{
  "contractName": "BytesUtils",
  "abi": [
    {
      "inputs": [
        {
          "internalType": "string",
          "name": "str",
          "type": "string"
        }
      ],
      "name": "hexStringToAddress",
      "outputs": [
        {
          "internalType": "bytes",
          "name": "",
          "type": "bytes"
        }
      ],
      "stateMutability": "pure",
      "type": "function"
    },
    {
      "inputs": [
        {
          "internalType": "string",
          "name": "did",
          "type": "string"
        }
      ],
      "name": "getSigner",
      "outputs": [
        {
          "internalType": "bytes",
          "name": "",
          "type": "bytes"
        }
      ],
      "stateMutability": "pure",
      "type": "function"
    },
    {
      "inputs": [
        {
          "internalType": "string",
          "name": "str",
          "type": "string"
        },
        {
          "internalType": "uint256",
          "name": "startIndex",
          "type": "uint256"
        },
        {
          "internalType": "uint256",
          "name": "endIndex",
          "type": "uint256"
        }
      ],
      "name": "substring",
      "outputs": [
        {
          "internalType": "string",
          "name": "",
          "type": "string"
        }
      ],
      "stateMutability": "pure",
      "type": "function"
    },
    {
      "inputs": [
        {
          "internalType": "string",
          "name": "str",
          "type": "string"
        }
      ],
      "name": "stringToBytes",
      "outputs": [
        {
          "internalType": "bytes",
          "name": "",
          "type": "bytes"
        }
      ],
      "stateMutability": "pure",
      "type": "function"
    },
    {
      "inputs": [
        {
          "internalType": "bytes",
          "name": "_bs",
          "type": "bytes"
        }
      ],
      "name": "bytesToAddress",
      "outputs": [
        {
          "internalType": "address",
          "name": "addr",
          "type": "address"
        }
      ],
      "stateMutability": "pure",
      "type": "function"
    },
    {
      "inputs": [
        {
          "internalType": "address",
          "name": "_addr",
          "type": "address"
        }
      ],
      "name": "addressToBytes",
      "outputs": [
        {
          "internalType": "bytes",
          "name": "bs",
          "type": "bytes"
        }
      ],
      "stateMutability": "pure",
      "type": "function"
    },
    {
      "inputs": [
        {
          "internalType": "uint8",
          "name": "c",
          "type": "uint8"
        }
      ],
      "name": "fromHexChar",
      "outputs": [
        {
          "internalType": "uint8",
          "name": "",
          "type": "uint8"
        }
      ],
      "stateMutability": "pure",
      "type": "function"
    },
    {
      "inputs": [
        {
          "internalType": "string",
          "name": "s",
          "type": "string"
        }
      ],
      "name": "fromHex",
      "outputs": [
        {
          "internalType": "bytes",
          "name": "",
          "type": "bytes"
        }
      ],
      "stateMutability": "pure",
      "type": "function"
    },
    {
      "inputs": [
        {
          "internalType": "string",
          "name": "str",
          "type": "string"
        }
      ],
      "name": "toLower",
      "outputs": [
        {
          "internalType": "string",
          "name": "",
          "type": "string"
        }
      ],
      "stateMutability": "pure",
      "type": "function"
    }
  ],
  "bytecode": "0x61146e61004e600b8282823980515f1a607314610042577f4e487b71000000000000000000000000000000000000000000000000000000005f525f60045260245ffd5b305f52607381538281f3fe730000000000000000000000000000000000000000301460806040526004361061009c575f3560e01c806342526e4e1161006f57806342526e4e146101605780638e7e34d7146101905780639416b423146101c0578063ded8454a146101f0578063e106fb4b146102205761009c565b8063119750d8146100a05780631dcd9b55146100d05780632ecb20d3146101005780632f38751414610130575b5f80fd5b6100ba60048036038101906100b59190610d14565b610250565b6040516100c79190610dd5565b60405180910390f35b6100ea60048036038101906100e59190610e28565b610273565b6040516100f79190610ee6565b60405180910390f35b61011a60048036038101906101159190610f3c565b61036b565b6040516101279190610f76565b60405180910390f35b61014a60048036038101906101459190610d14565b6106d8565b6040516101579190610dd5565b60405180910390f35b61017a6004803603810190610175919061102d565b610856565b60405161018791906110b3565b60405180910390f35b6101aa60048036038101906101a59190610d14565b6108a7565b6040516101b79190610dd5565b60405180910390f35b6101da60048036038101906101d59190610d14565b610a25565b6040516101e79190610ee6565b60405180910390f35b61020a600480360381019061020591906110f6565b610b9d565b6040516102179190610dd5565b60405180910390f35b61023a60048036038101906102359190610d14565b610bbd565b6040516102479190610dd5565b60405180910390f35b60605f6102608360096031610273565b905061026b816106d8565b915050919050565b60605f8490505f8484610286919061114e565b67ffffffffffffffff81111561029f5761029e610bf0565b5b6040519080825280601f01601f1916602001820160405280156102d15781602001600182028036833780820191505090505b5090505f8590505b8481101561035e578281815181106102f4576102f3611181565b5b602001015160f81c60f81b82878361030c919061114e565b8151811061031d5761031c611181565b5b60200101907effffffffffffffffffffffffffffffffffffffffffffffffffffffffffffff191690815f1a9053508080610356906111ae565b9150506102d9565b5080925050509392505050565b5f7f30000000000000000000000000000000000000000000000000000000000000007effffffffffffffffffffffffffffffffffffffffffffffffffffffffffffff19168260f81b7effffffffffffffffffffffffffffffffffffffffffffffffffffffffffffff19161015801561044a57507f39000000000000000000000000000000000000000000000000000000000000007effffffffffffffffffffffffffffffffffffffffffffffffffffffffffffff19168260f81b7effffffffffffffffffffffffffffffffffffffffffffffffffffffffffffff191611155b15610485577f300000000000000000000000000000000000000000000000000000000000000060f81c8261047e91906111f5565b90506106d3565b7f61000000000000000000000000000000000000000000000000000000000000007effffffffffffffffffffffffffffffffffffffffffffffffffffffffffffff19168260f81b7effffffffffffffffffffffffffffffffffffffffffffffffffffffffffffff19161015801561056357507f66000000000000000000000000000000000000000000000000000000000000007effffffffffffffffffffffffffffffffffffffffffffffffffffffffffffff19168260f81b7effffffffffffffffffffffffffffffffffffffffffffffffffffffffffffff191611155b156105aa577f610000000000000000000000000000000000000000000000000000000000000060f81c82600a6105999190611229565b6105a391906111f5565b90506106d3565b7f41000000000000000000000000000000000000000000000000000000000000007effffffffffffffffffffffffffffffffffffffffffffffffffffffffffffff19168260f81b7effffffffffffffffffffffffffffffffffffffffffffffffffffffffffffff19161015801561068857507f46000000000000000000000000000000000000000000000000000000000000007effffffffffffffffffffffffffffffffffffffffffffffffffffffffffffff19168260f81b7effffffffffffffffffffffffffffffffffffffffffffffffffffffffffffff191611155b156106cf577f410000000000000000000000000000000000000000000000000000000000000060f81c82600a6106be9190611229565b6106c891906111f5565b90506106d3565b5f80fd5b919050565b60605f8290505f600282516106ed919061128a565b146106f6575f80fd5b5f6002825161070591906112ba565b67ffffffffffffffff81111561071e5761071d610bf0565b5b6040519080825280601f01601f1916602001820160405280156107505781602001600182028036833780820191505090505b5090505f5b6002835161076391906112ba565b81101561084b576107ab83600183600261077d91906112ea565b610787919061132b565b8151811061079857610797611181565b5b602001015160f81c60f81b60f81c61036b565b60106107e2858460026107be91906112ea565b815181106107cf576107ce611181565b5b602001015160f81c60f81b60f81c61036b565b6107ec919061135e565b6107f69190611229565b60f81b82828151811061080c5761080b611181565b5b60200101907effffffffffffffffffffffffffffffffffffffffffffffffffffffffffffff191690815f1a90535080610844906111ae565b9050610755565b508092505050919050565b5f601482511461089b576040517f08c379a00000000000000000000000000000000000000000000000000000000081526004016108929061141a565b60405180910390fd5b60148201519050919050565b60605f8290505f600282516108bc919061128a565b146108c5575f80fd5b5f600282516108d491906112ba565b67ffffffffffffffff8111156108ed576108ec610bf0565b5b6040519080825280601f01601f19166020018201604052801561091f5781602001600182028036833780820191505090505b5090505f5b6002835161093291906112ba565b811015610a1a5761097a83600183600261094c91906112ea565b610956919061132b565b8151811061096757610966611181565b5b602001015160f81c60f81b60f81c61036b565b60106109b18584600261098d91906112ea565b8151811061099e5761099d611181565b5b602001015160f81c60f81b60f81c61036b565b6109bb919061135e565b6109c59190611229565b60f81b8282815181106109db576109da611181565b5b60200101907effffffffffffffffffffffffffffffffffffffffffffffffffffffffffffff191690815f1a90535080610a13906111ae565b9050610924565b508092505050919050565b60605f8290505f815167ffffffffffffffff811115610a4757610a46610bf0565b5b6040519080825280601f01601f191660200182016040528015610a795781602001600182028036833780820191505090505b5090505f5b8251811015610b92575f838281518110610a9b57610a9a611181565b5b602001015160f81c60f81b60f81c905060418160ff1610158015610ac35750605a8160ff1611155b15610b1e57602081610ad59190611229565b60f81b838381518110610aeb57610aea611181565b5b60200101907effffffffffffffffffffffffffffffffffffffffffffffffffffffffffffff191690815f1a905350610b7e565b838281518110610b3157610b30611181565b5b602001015160f81c60f81b838381518110610b4f57610b4e611181565b5b60200101907effffffffffffffffffffffffffffffffffffffffffffffffffffffffffffff191690815f1a9053505b508080610b8a906111ae565b915050610a7e565b508092505050919050565b60606040519050601481528160601b602082015260408101604052919050565b6060819050919050565b5f604051905090565b5f80fd5b5f80fd5b5f80fd5b5f80fd5b5f601f19601f8301169050919050565b7f4e487b71000000000000000000000000000000000000000000000000000000005f52604160045260245ffd5b610c2682610be0565b810181811067ffffffffffffffff82111715610c4557610c44610bf0565b5b80604052505050565b5f610c57610bc7565b9050610c638282610c1d565b919050565b5f67ffffffffffffffff821115610c8257610c81610bf0565b5b610c8b82610be0565b9050602081019050919050565b828183375f83830152505050565b5f610cb8610cb384610c68565b610c4e565b905082815260208101848484011115610cd457610cd3610bdc565b5b610cdf848285610c98565b509392505050565b5f82601f830112610cfb57610cfa610bd8565b5b8135610d0b848260208601610ca6565b91505092915050565b5f60208284031215610d2957610d28610bd0565b5b5f82013567ffffffffffffffff811115610d4657610d45610bd4565b5b610d5284828501610ce7565b91505092915050565b5f81519050919050565b5f82825260208201905092915050565b5f5b83811015610d92578082015181840152602081019050610d77565b5f8484015250505050565b5f610da782610d5b565b610db18185610d65565b9350610dc1818560208601610d75565b610dca81610be0565b840191505092915050565b5f6020820190508181035f830152610ded8184610d9d565b905092915050565b5f819050919050565b610e0781610df5565b8114610e11575f80fd5b50565b5f81359050610e2281610dfe565b92915050565b5f805f60608486031215610e3f57610e3e610bd0565b5b5f84013567ffffffffffffffff811115610e5c57610e5b610bd4565b5b610e6886828701610ce7565b9350506020610e7986828701610e14565b9250506040610e8a86828701610e14565b9150509250925092565b5f81519050919050565b5f82825260208201905092915050565b5f610eb882610e94565b610ec28185610e9e565b9350610ed2818560208601610d75565b610edb81610be0565b840191505092915050565b5f6020820190508181035f830152610efe8184610eae565b905092915050565b5f60ff82169050919050565b610f1b81610f06565b8114610f25575f80fd5b50565b5f81359050610f3681610f12565b92915050565b5f60208284031215610f5157610f50610bd0565b5b5f610f5e84828501610f28565b91505092915050565b610f7081610f06565b82525050565b5f602082019050610f895f830184610f67565b92915050565b5f67ffffffffffffffff821115610fa957610fa8610bf0565b5b610fb282610be0565b9050602081019050919050565b5f610fd1610fcc84610f8f565b610c4e565b905082815260208101848484011115610fed57610fec610bdc565b5b610ff8848285610c98565b509392505050565b5f82601f83011261101457611013610bd8565b5b8135611024848260208601610fbf565b91505092915050565b5f6020828403121561104257611041610bd0565b5b5f82013567ffffffffffffffff81111561105f5761105e610bd4565b5b61106b84828501611000565b91505092915050565b5f73ffffffffffffffffffffffffffffffffffffffff82169050919050565b5f61109d82611074565b9050919050565b6110ad81611093565b82525050565b5f6020820190506110c65f8301846110a4565b92915050565b6110d581611093565b81146110df575f80fd5b50565b5f813590506110f0816110cc565b92915050565b5f6020828403121561110b5761110a610bd0565b5b5f611118848285016110e2565b91505092915050565b7f4e487b71000000000000000000000000000000000000000000000000000000005f52601160045260245ffd5b5f61115882610df5565b915061116383610df5565b925082820390508181111561117b5761117a611121565b5b92915050565b7f4e487b71000000000000000000000000000000000000000000000000000000005f52603260045260245ffd5b5f6111b882610df5565b91507fffffffffffffffffffffffffffffffffffffffffffffffffffffffffffffffff82036111ea576111e9611121565b5b600182019050919050565b5f6111ff82610f06565b915061120a83610f06565b9250828203905060ff81111561122357611222611121565b5b92915050565b5f61123382610f06565b915061123e83610f06565b9250828201905060ff81111561125757611256611121565b5b92915050565b7f4e487b71000000000000000000000000000000000000000000000000000000005f52601260045260245ffd5b5f61129482610df5565b915061129f83610df5565b9250826112af576112ae61125d565b5b828206905092915050565b5f6112c482610df5565b91506112cf83610df5565b9250826112df576112de61125d565b5b828204905092915050565b5f6112f482610df5565b91506112ff83610df5565b925082820261130d81610df5565b9150828204841483151761132457611323611121565b5b5092915050565b5f61133582610df5565b915061134083610df5565b925082820190508082111561135857611357611121565b5b92915050565b5f61136882610f06565b915061137383610f06565b925082820261138181610f06565b915080821461139357611392611121565b5b5092915050565b5f82825260208201905092915050565b7f6279746573206c656e67746820646f6573206e6f74206d6174636820616464725f8201527f6573732028323029000000000000000000000000000000000000000000000000602082015250565b5f61140460288361139a565b915061140f826113aa565b604082019050919050565b5f6020820190508181035f830152611431816113f8565b905091905056fea2646970667358221220693cfed47f201655dcb7988e1ee0aae8dcae683e7e9b9954215e166631bee10c64736f6c63430008150033",
  "immutableReferences": {},
  "source": "// SPDX-License-Identifier: MIT\r\npragma solidity ^0.8.0;\r\n\r\nlibrary BytesUtils {\r\n\r\n    /**\r\n     *  0x...  hexString    \r\n     */ \r\n    function hexStringToAddress(string memory str)\r\n        public\r\n        pure\r\n        returns (bytes memory)\r\n    {\r\n        bytes memory res = bytes(str);\r\n        require(res.length % 2 == 0); // length must be even\r\n        bytes memory r = new bytes(res.length / 2);\r\n        for (uint256 i = 0; i < res.length / 2; ++i) {\r\n            r[i] = bytes1(\r\n                fromHexChar(uint8(res[2 * i])) *\r\n                    16 +\r\n                    fromHexChar(uint8(res[2 * i + 1]))\r\n            );\r\n        }\r\n\r\n        return r;\r\n    }\r\n\r\n    /**\r\n     * DID   (Identifier) ,    return\r\n     */\r\n    function getSigner(string memory did)\r\n        public\r\n        pure\r\n        returns (bytes memory)\r\n    {\r\n        string memory cid = substring(did, 9, 49);\r\n        return hexStringToAddress(cid);\r\n    }\r\n\r\n    /**\r\n     * string  \r\n     */\r\n    function substring(\r\n        string memory str,\r\n        uint256 startIndex,\r\n        uint256 endIndex\r\n    ) public pure returns (string memory) {\r\n        bytes memory strBytes = bytes(str);\r\n        bytes memory result = new bytes(endIndex - startIndex);\r\n        for (uint256 i = startIndex; i < endIndex; i++) {\r\n            result[i - startIndex] = strBytes[i];\r\n        }\r\n        return string(result);\r\n    }\r\n\r\n    /**\r\n     * string bytes  \r\n     */\r\n    function stringToBytes(string memory str)\r\n        public\r\n        pure\r\n        returns (bytes memory)\r\n    {\r\n        return bytes(str);\r\n    }\r\n\r\n    /** \r\n     *  @notice      Convert bytes to address\r\n     *  @param _bs   Source bytes: bytes length must be 20\r\n     *  @return addr Converted address from source bytes\r\n     */\r\n    function bytesToAddress(bytes memory _bs)\r\n        public\r\n        pure\r\n        returns (address addr)\r\n    {\r\n        require(_bs.length == 20, \"bytes length does not match address (20)\");\r\n        assembly {\r\n            // for _bs, first word store _bs.length, second word store _bs.value\r\n            // load 32 bytes from mem[_bs+20], convert it into Uint160, meaning we take last 20 bytes as addr (address).\r\n            addr := mload(add(_bs, 0x14))\r\n        }\r\n    }\r\n\r\n    /** \r\n     *  @notice      Convert address to bytes\r\n     *  @param _addr Address need to be converted\r\n     *  @return bs   Converted bytes from address\r\n     */\r\n    function addressToBytes(address _addr)\r\n        public\r\n        pure\r\n        returns (bytes memory bs)\r\n    {\r\n        assembly {\r\n            // Get a location of some free memory and store it in result as\r\n            // Solidity does for memory variables.\r\n            bs := mload(0x40)\r\n            // Put 20 (address byte length) at the first word, the length of bytes for uint256 value\r\n            mstore(bs, 0x14)\r\n            // logical shift left _a by 12 bytes, change _a from right-aligned to left-aligned\r\n            mstore(add(bs, 0x20), shl(96, _addr))\r\n            // Update the free-memory pointer by padding our last write location to 32 bytes\r\n            mstore(0x40, add(bs, 0x40))\r\n        }\r\n    }\r\n\r\n    /* @notice              Compare if two bytes are equal, which are in storage and memory, seperately\r\n                            Refer from https://github.com/summa-tx/bitcoin-spv/blob/master/solidity/contracts/BytesLib.sol#L368\r\n    *  @param _preBytes     The bytes stored in storage\r\n    *  @param _postBytes    The bytes stored in memory\r\n    *  @return              Bool type indicating if they are equal\r\n    */\r\n    function equalStorage(bytes storage _preBytes, bytes memory _postBytes)\r\n        internal\r\n        view\r\n        returns (bool)\r\n    {\r\n        // Load the length of the storage array\r\n        uint256 slength = _preBytes.length;\r\n        // Load the length of the memory array\r\n        uint256 mlength = _postBytes.length;\r\n\r\n        // If lengths don't match, the arrays are not equal\r\n        if (slength != mlength) {\r\n            return false;\r\n        }\r\n\r\n        // Compute the keccak hash of the storage location of _preBytes\r\n        uint256 sc = uint256(keccak256(abi.encodePacked(_preBytes)));\r\n\r\n        bool success = true;\r\n\r\n        assembly {\r\n            // Start position of the _postBytes data\r\n            let mc := add(_postBytes, 0x20)\r\n            // End position of the _postBytes data\r\n            let end := add(mc, mlength)\r\n\r\n            // Loop over each element in the storage and memory arrays\r\n            for { } lt(mc, end) { } {\r\n                mc := add(mc, 0x20)  // Move to the next 32-byte block in memory\r\n                sc := add(sc, 1)     // Move to the next slot in storage\r\n\r\n                // Load the current element from storage and memory\r\n                let sElement := sload(sc)\r\n                let mElement := mload(mc)\r\n\r\n                // Check if the elements are not equal\r\n                if iszero(eq(sElement, mElement)) {\r\n                    success := 0  // Set success to false\r\n                    break         // Exit the loop\r\n                }\r\n            }\r\n        }\r\n\r\n        return success;\r\n    }\r\n\r\n    // function equalStorage(bytes storage _preBytes, bytes memory _postBytes)\r\n    //     internal\r\n    //     view\r\n    //     returns (bool)\r\n    // {\r\n    //     bool success = true;\r\n\r\n    //     assembly {\r\n    //         // we know _preBytes_offset is 0\r\n    //         let fslot := sload(_preBytes_slot)\r\n    //         // Arrays of 31 bytes or less have an even value in their slot,\r\n    //         // while longer arrays have an odd value. The actual length is\r\n    //         // the slot divided by two for odd values, and the lowest order\r\n    //         // byte divided by two for even values.\r\n    //         // If the slot is even, bitwise and the slot with 255 and divide by\r\n    //         // two to get the length. If the slot is odd, bitwise and the slot\r\n    //         // with -1 and divide by two.\r\n    //         let slength := div(\r\n    //             and(fslot, sub(mul(0x100, iszero(and(fslot, 1))), 1)),\r\n    //             2\r\n    //         )\r\n    //         let mlength := mload(_postBytes)\r\n\r\n    //         // if lengths don't match the arrays are not equal\r\n    //         switch eq(slength, mlength)\r\n    //         case 1 {\r\n    //             // fslot can contain both the length and contents of the array\r\n    //             // if slength < 32 bytes so let's prepare for that\r\n    //             // v. http://solidity.readthedocs.io/en/latest/miscellaneous.html#layout-of-state-variables-in-storage\r\n    //             // slength != 0\r\n    //             if iszero(iszero(slength)) {\r\n    //                 switch lt(slength, 32)\r\n    //                 case 1 {\r\n    //                     // blank the last byte which is the length\r\n    //                     fslot := mul(div(fslot, 0x100), 0x100)\r\n\r\n    //                     if iszero(eq(fslot, mload(add(_postBytes, 0x20)))) {\r\n    //                         // unsuccess:\r\n    //                         success := 0\r\n    //                     }\r\n    //                 }\r\n    //                 default {\r\n    //                     // cb is a circuit breaker in the for loop since there's\r\n    //                     //  no said feature for inline assembly loops\r\n    //                     // cb = 1 - don't breaker\r\n    //                     // cb = 0 - break\r\n    //                     let cb := 1\r\n\r\n    //                     // get the keccak hash to get the contents of the array\r\n    //                     mstore(0x0, _preBytes_slot)\r\n    //                     let sc := keccak256(0x0, 0x20)\r\n\r\n    //                     let mc := add(_postBytes, 0x20)\r\n    //                     let end := add(mc, mlength)\r\n\r\n    //                     // the next line is the loop condition:\r\n    //                     // while(uint(mc < end) + cb == 2)\r\n    //                     for {\r\n\r\n    //                     } eq(add(lt(mc, end), cb), 2) {\r\n    //                         sc := add(sc, 1)\r\n    //                         mc := add(mc, 0x20)\r\n    //                     } {\r\n    //                         if iszero(eq(sload(sc), mload(mc))) {\r\n    //                             // unsuccess:\r\n    //                             success := 0\r\n    //                             cb := 0\r\n    //                         }\r\n    //                     }\r\n    //                 }\r\n    //             }\r\n    //         }\r\n    //         default {\r\n    //             // unsuccess:\r\n    //             success := 0\r\n    //         }\r\n    //     }\r\n\r\n    //     return success;\r\n    // }\r\n\r\n\r\n    function equal(bytes memory _preBytes, bytes memory _postBytes)\r\n        internal\r\n        pure\r\n        returns (bool)\r\n    {\r\n        bool success = true;\r\n\r\n        assembly {\r\n            let length := mload(_preBytes)\r\n\r\n            // if lengths don't match the arrays are not equal\r\n            switch eq(length, mload(_postBytes))\r\n            case 1 {\r\n                // cb is a circuit breaker in the for loop since there's\r\n                //  no said feature for inline assembly loops\r\n                // cb = 1 - don't breaker\r\n                // cb = 0 - break\r\n                let cb := 1\r\n\r\n                let mc := add(_preBytes, 0x20)\r\n                let end := add(mc, length)\r\n\r\n                for {\r\n                    let cc := add(_postBytes, 0x20)\r\n                    // the next line is the loop condition:\r\n                    // while(uint256(mc < end) + cb == 2)\r\n                } eq(add(lt(mc, end), cb), 2) {\r\n                    mc := add(mc, 0x20)\r\n                    cc := add(cc, 0x20)\r\n                } {\r\n                    // if any of these checks fails then arrays are not equal\r\n                    if iszero(eq(mload(mc), mload(cc))) {\r\n                        // unsuccess:\r\n                        success := 0\r\n                        cb := 0\r\n                    }\r\n                }\r\n            }\r\n            default {\r\n                // unsuccess:\r\n                success := 0\r\n            }\r\n        }\r\n\r\n        return success;\r\n    }\r\n\r\n    /* @notice              Slice the _bytes from _start index till the result has length of _length\r\n                            Refer from https://github.com/summa-tx/bitcoin-spv/blob/master/solidity/contracts/BytesLib.sol#L246\r\n    *  @param _bytes        The original bytes needs to be sliced\r\n    *  @param _start        The index of _bytes for the start of sliced bytes\r\n    *  @param _length       The index of _bytes for the end of sliced bytes\r\n    *  @return              The sliced bytes\r\n    */\r\n    function slice(\r\n        bytes memory _bytes,\r\n        uint256 _start,\r\n        uint256 _length\r\n    ) internal pure returns (bytes memory) {\r\n        require(_bytes.length >= (_start + _length));\r\n\r\n        bytes memory tempBytes;\r\n\r\n        assembly {\r\n            switch iszero(_length)\r\n            case 0 {\r\n                // Get a location of some free memory and store it in tempBytes as\r\n                // Solidity does for memory variables.\r\n                tempBytes := mload(0x40)\r\n\r\n                // The first word of the slice result is potentially a partial\r\n                // word read from the original array. To read it, we calculate\r\n                // the length of that partial word and start copying that many\r\n                // bytes into the array. The first word we copy will start with\r\n                // data we don't care about, but the last `lengthmod` bytes will\r\n                // land at the beginning of the contents of the new array. When\r\n                // we're done copying, we overwrite the full first word with\r\n                // the actual length of the slice.\r\n                // lengthmod <= _length % 32\r\n                let lengthmod := and(_length, 31)\r\n\r\n                // The multiplication in the next line is necessary\r\n                // because when slicing multiples of 32 bytes (lengthmod == 0)\r\n                // the following copy loop was copying the origin's length\r\n                // and then ending prematurely not copying everything it should.\r\n                let mc := add(\r\n                    add(tempBytes, lengthmod),\r\n                    mul(0x20, iszero(lengthmod))\r\n                )\r\n                let end := add(mc, _length)\r\n\r\n                for {\r\n                    // The multiplication in the next line has the same exact purpose\r\n                    // as the one above.\r\n                    let cc := add(\r\n                        add(\r\n                            add(_bytes, lengthmod),\r\n                            mul(0x20, iszero(lengthmod))\r\n                        ),\r\n                        _start\r\n                    )\r\n                } lt(mc, end) {\r\n                    mc := add(mc, 0x20)\r\n                    cc := add(cc, 0x20)\r\n                } {\r\n                    mstore(mc, mload(cc))\r\n                }\r\n\r\n                mstore(tempBytes, _length)\r\n\r\n                //update free-memory pointer\r\n                //allocating the array padded to 32 bytes like the compiler does now\r\n                mstore(0x40, and(add(mc, 31), not(31)))\r\n            }\r\n            //if we want a zero-length slice let's just return a zero-length array\r\n            default {\r\n                tempBytes := mload(0x40)\r\n\r\n                mstore(0x40, add(tempBytes, 0x20))\r\n            }\r\n        }\r\n\r\n        return tempBytes;\r\n    }\r\n\r\n    /**\r\n     * @dev Returns true if `account` is a contract.\r\n     *      Refer from https://github.com/OpenZeppelin/openzeppelin-contracts/blob/master/contracts/utils/Address.sol#L18\r\n     *\r\n     * This test is non-exhaustive, and there may be false-negatives: during the\r\n     * execution of a contract's constructor, its address will be reported as\r\n     * not containing a contract.\r\n     *\r\n     * IMPORTANT: It is unsafe to assume that an address for which this\r\n     * function returns false is an externally-owned account (EOA) and not a\r\n     * contract.\r\n     */\r\n    function isContract(address account) internal view returns (bool) {\r\n        // This method relies in extcodesize, which returns 0 for contracts in\r\n        // construction, since the code is only stored at the end of the\r\n        // constructor execution.\r\n\r\n        // According to EIP-1052, 0x0 is the value returned for not-yet created accounts\r\n        // and 0xc5d2460186f7233c927e7db2dcc703c0e500b653ca82273b7bfad8045d85a470 is returned\r\n        // for accounts without code, i.e. `keccak256('')`\r\n        bytes32 codehash;\r\n        bytes32 accountHash = 0xc5d2460186f7233c927e7db2dcc703c0e500b653ca82273b7bfad8045d85a470;\r\n        // solhint-disable-next-line no-inline-assembly\r\n        assembly {\r\n            codehash := extcodehash(account)\r\n        }\r\n        return (codehash != 0x0 && codehash != accountHash);\r\n    }\r\n\r\n    /**\r\n     * @dev Convert an hexadecimal character to their value\r\n     * @param c char\r\n     */\r\n    function fromHexChar(uint8 c) public pure returns (uint8) {\r\n        if (bytes1(c) >= bytes1(\"0\") && bytes1(c) <= bytes1(\"9\")) {\r\n            return c - uint8(bytes1(\"0\"));\r\n        }\r\n        if (bytes1(c) >= bytes1(\"a\") && bytes1(c) <= bytes1(\"f\")) {\r\n            return 10 + c - uint8(bytes1(\"a\"));\r\n        }\r\n        if (bytes1(c) >= bytes1(\"A\") && bytes1(c) <= bytes1(\"F\")) {\r\n            return 10 + c - uint8(bytes1(\"A\"));\r\n        }\r\n        revert();\r\n    }\r\n\r\n    /**\r\n     * @dev  Convert an hexadecimal string to raw bytes\r\n     * @param s string\r\n     */\r\n    function fromHex(string memory s) public pure returns (bytes memory) {\r\n        bytes memory ss = bytes(s);\r\n        require(ss.length % 2 == 0);\r\n        // length must be even\r\n        bytes memory r = new bytes(ss.length / 2);\r\n        for (uint256 i = 0; i < ss.length / 2; ++i) {\r\n            r[i] = bytes1(\r\n                fromHexChar(uint8(ss[2 * i])) *\r\n                    16 +\r\n                    fromHexChar(uint8(ss[2 * i + 1]))\r\n            );\r\n        }\r\n        return r;\r\n    }\r\n\r\n    /**\r\n     * @dev  Convert uint to string\r\n     * @param _i uint\r\n     */\r\n    function uint2str(uint256 _i)\r\n        internal\r\n        pure\r\n        returns (string memory _uintAsString)\r\n    {\r\n        if (_i == 0) {\r\n            return \"0\";\r\n        }\r\n        uint256 j = _i;\r\n        uint256 len;\r\n        while (j != 0) {\r\n            len++;\r\n            j /= 10;\r\n        }\r\n        bytes memory bstr = new bytes(len);\r\n        uint256 k = len - 1;\r\n        while (_i != 0) {\r\n            bstr[k--] = bytes1(uint8(48 + (_i % 10)));\r\n            _i /= 10;\r\n        }\r\n        return string(bstr);\r\n    }\r\n\r\n    /**\r\n     * @dev  Convert string to lowercase\r\n     * @param str string\r\n     */\r\n    function toLower(string memory str) public pure returns (string memory) {\r\n        bytes memory bStr = bytes(str);\r\n        bytes memory bLower = new bytes(bStr.length);\r\n        for (uint256 i = 0; i < bStr.length; i++) {\r\n            // Uppercase character...\r\n            uint8 c = uint8(bStr[i]);\r\n            if ((c >= 65) && (c <= 90)) {\r\n                // So we add 32 to make it lowercase\r\n                bLower[i] = bytes1(c + 32);\r\n            } else {\r\n                bLower[i] = bStr[i];\r\n            }\r\n        }\r\n        return string(bLower);\r\n    }\r\n}",
  "sourcePath": "C:\\Users\\SSAFY\\Desktop\\S10P31C203\\blockchain\\did-consortium\\contracts\\utils\\BytesUtils.sol",
  "compiler": {
    "name": "solc",
    "version": "0.8.21+commit.d9974bed.Emscripten.clang"
  },
  "schemaVersion": "3.4.16",
  "updatedAt": "2024-05-09T06:28:32.497Z",
  "devdoc": {
    "kind": "dev",
    "methods": {
      "addressToBytes(address)": {
        "params": {
          "_addr": "Address need to be converted"
        },
        "returns": {
          "bs": "  Converted bytes from address"
        }
      },
      "bytesToAddress(bytes)": {
        "params": {
          "_bs": "Source bytes: bytes length must be 20"
        },
        "returns": {
          "addr": "Converted address from source bytes"
        }
      },
      "fromHex(string)": {
        "details": "Convert an hexadecimal string to raw bytes",
        "params": {
          "s": "string"
        }
      },
      "fromHexChar(uint8)": {
        "details": "Convert an hexadecimal character to their value",
        "params": {
          "c": "char"
        }
      },
      "toLower(string)": {
        "details": "Convert string to lowercase",
        "params": {
          "str": "string"
        }
      }
    },
    "version": 1
  },
  "userdoc": {
    "kind": "user",
    "methods": {
      "addressToBytes(address)": {
        "notice": "Convert address to bytes"
      },
      "bytesToAddress(bytes)": {
        "notice": "Convert bytes to address"
      },
      "getSigner(string)": {
        "notice": "DID   (Identifier) ,    return"
      },
      "hexStringToAddress(string)": {
        "notice": "0x...  hexString    "
      },
      "stringToBytes(string)": {
        "notice": "string bytes  "
      },
      "substring(string,uint256,uint256)": {
        "notice": "string  "
      }
    },
    "version": 1
  }
}