{
  "contractName": "HexUtils",
  "abi": [
    {
      "inputs": [
        {
          "internalType": "uint256",
          "name": "value",
          "type": "uint256"
        },
        {
          "internalType": "uint256",
          "name": "length",
          "type": "uint256"
        }
      ],
      "name": "toHexString",
      "outputs": [
        {
          "internalType": "string",
          "name": "",
          "type": "string"
        }
      ],
      "stateMutability": "pure",
      "type": "function"
    }
  ],
  "bytecode": "0x6104fe61004e600b8282823980515f1a607314610042577f4e487b71000000000000000000000000000000000000000000000000000000005f525f60045260245ffd5b305f52607381538281f3fe7300000000000000000000000000000000000000003014608060405260043610610034575f3560e01c806363e1cbea14610038575b5f80fd5b610052600480360381019061004d919061027e565b610068565b60405161005f9190610346565b60405180910390f35b60605f600283600261007a9190610393565b61008491906103d4565b67ffffffffffffffff81111561009d5761009c610407565b5b6040519080825280601f01601f1916602001820160405280156100cf5781602001600182028036833780820191505090505b5090507f3000000000000000000000000000000000000000000000000000000000000000815f8151811061010657610105610434565b5b60200101907effffffffffffffffffffffffffffffffffffffffffffffffffffffffffffff191690815f1a9053507f78000000000000000000000000000000000000000000000000000000000000008160018151811061016957610168610434565b5b60200101907effffffffffffffffffffffffffffffffffffffffffffffffffffffffffffff191690815f1a9053505f60018460026101a79190610393565b6101b191906103d4565b90505b600181111561023c57600a600f8616106101cf5760576101d2565b60305b600f86166101e0919061046d565b60f81b8282815181106101f6576101f5610434565b5b60200101907effffffffffffffffffffffffffffffffffffffffffffffffffffffffffffff191690815f1a905350600485901c945080610235906104a1565b90506101b4565b508091505092915050565b5f80fd5b5f819050919050565b61025d8161024b565b8114610267575f80fd5b50565b5f8135905061027881610254565b92915050565b5f806040838503121561029457610293610247565b5b5f6102a18582860161026a565b92505060206102b28582860161026a565b9150509250929050565b5f81519050919050565b5f82825260208201905092915050565b5f5b838110156102f35780820151818401526020810190506102d8565b5f8484015250505050565b5f601f19601f8301169050919050565b5f610318826102bc565b61032281856102c6565b93506103328185602086016102d6565b61033b816102fe565b840191505092915050565b5f6020820190508181035f83015261035e818461030e565b905092915050565b7f4e487b71000000000000000000000000000000000000000000000000000000005f52601160045260245ffd5b5f61039d8261024b565b91506103a88361024b565b92508282026103b68161024b565b915082820484148315176103cd576103cc610366565b5b5092915050565b5f6103de8261024b565b91506103e98361024b565b925082820190508082111561040157610400610366565b5b92915050565b7f4e487b71000000000000000000000000000000000000000000000000000000005f52604160045260245ffd5b7f4e487b71000000000000000000000000000000000000000000000000000000005f52603260045260245ffd5b5f60ff82169050919050565b5f61047782610461565b915061048283610461565b9250828201905060ff81111561049b5761049a610366565b5b92915050565b5f6104ab8261024b565b91505f82036104bd576104bc610366565b5b60018203905091905056fea264697066735822122075472b25631ece16ce8556b87b340644bfdb405da045d7dbdb9c533129a0d01664736f6c63430008150033",
  "immutableReferences": {},
  "source": "// SPDX-License-Identifier: MIT\r\npragma solidity ^0.8.0;\r\n\r\nlibrary HexUtils {\r\n\r\n    function toHexString(uint256 value, uint length) public pure returns (string memory) {\r\n        bytes memory buffer = new bytes(2 * length + 2);\r\n        buffer[0] = '0';\r\n        buffer[1] = 'x';\r\n        for (uint i = 2 * length + 1; i > 1; --i) {\r\n            buffer[i] = bytes1(uint8(value & 0xf) + (value & 0xf < 10 ? 48 : 87));\r\n            value >>= 4;\r\n        }\r\n        return string(buffer);\r\n    }\r\n\r\n}",
  "sourcePath": "C:\\Users\\SSAFY\\Desktop\\S10P31C203\\blockchain\\did-consortium\\contracts\\utils\\HexUtils.sol",
  "compiler": {
    "name": "solc",
    "version": "0.8.21+commit.d9974bed.Emscripten.clang"
  },
  "schemaVersion": "3.4.16",
  "updatedAt": "2024-05-10T06:18:02.849Z",
  "devdoc": {
    "kind": "dev",
    "methods": {},
    "version": 1
  },
  "userdoc": {
    "kind": "user",
    "methods": {},
    "version": 1
  }
}