{
  "contractName": "MinistryDIDRegistry",
  "abi": [
    {
      "inputs": [],
      "stateMutability": "nonpayable",
      "type": "constructor"
    },
    {
      "inputs": [
        {
          "internalType": "address",
          "name": "owner",
          "type": "address"
        }
      ],
      "name": "OwnableInvalidOwner",
      "type": "error"
    },
    {
      "inputs": [
        {
          "internalType": "address",
          "name": "account",
          "type": "address"
        }
      ],
      "name": "OwnableUnauthorizedAccount",
      "type": "error"
    },
    {
      "anonymous": false,
      "inputs": [
        {
          "indexed": false,
          "internalType": "string",
          "name": "did",
          "type": "string"
        }
      ],
      "name": "DIDCreated",
      "type": "event"
    },
    {
      "anonymous": false,
      "inputs": [
        {
          "indexed": false,
          "internalType": "string",
          "name": "did",
          "type": "string"
        }
      ],
      "name": "DIDDeleted",
      "type": "event"
    },
    {
      "anonymous": false,
      "inputs": [
        {
          "indexed": true,
          "internalType": "address",
          "name": "previousOwner",
          "type": "address"
        },
        {
          "indexed": true,
          "internalType": "address",
          "name": "newOwner",
          "type": "address"
        }
      ],
      "name": "OwnershipTransferred",
      "type": "event"
    },
    {
      "inputs": [],
      "name": "owner",
      "outputs": [
        {
          "internalType": "address",
          "name": "",
          "type": "address"
        }
      ],
      "stateMutability": "view",
      "type": "function"
    },
    {
      "inputs": [],
      "name": "renounceOwnership",
      "outputs": [],
      "stateMutability": "nonpayable",
      "type": "function"
    },
    {
      "inputs": [
        {
          "internalType": "address",
          "name": "newOwner",
          "type": "address"
        }
      ],
      "name": "transferOwnership",
      "outputs": [],
      "stateMutability": "nonpayable",
      "type": "function"
    },
    {
      "inputs": [
        {
          "internalType": "string",
          "name": "_publicKey",
          "type": "string"
        }
      ],
      "name": "createDIDDocument",
      "outputs": [],
      "stateMutability": "nonpayable",
      "type": "function"
    },
    {
      "inputs": [
        {
          "internalType": "string",
          "name": "did",
          "type": "string"
        }
      ],
      "name": "getDIDDocument",
      "outputs": [
        {
          "components": [
            {
              "internalType": "string",
              "name": "context",
              "type": "string"
            },
            {
              "internalType": "string",
              "name": "id",
              "type": "string"
            },
            {
              "components": [
                {
                  "internalType": "string",
                  "name": "id",
                  "type": "string"
                },
                {
                  "internalType": "string",
                  "name": "keyType",
                  "type": "string"
                },
                {
                  "internalType": "string",
                  "name": "controller",
                  "type": "string"
                },
                {
                  "internalType": "string",
                  "name": "publicKeyData",
                  "type": "string"
                }
              ],
              "internalType": "struct DIDStruct.PublicKey",
              "name": "publicKey",
              "type": "tuple"
            },
            {
              "internalType": "string",
              "name": "authentication",
              "type": "string"
            }
          ],
          "internalType": "struct DIDStruct.DIDDocument",
          "name": "",
          "type": "tuple"
        }
      ],
      "stateMutability": "view",
      "type": "function"
    },
    {
      "inputs": [
        {
          "internalType": "string",
          "name": "did",
          "type": "string"
        }
      ],
      "name": "deleteDIDDocument",
      "outputs": [],
      "stateMutability": "nonpayable",
      "type": "function"
    }
  ],
  "bytecode": "0x608060405234801562000010575f80fd5b50335f73ffffffffffffffffffffffffffffffffffffffff168173ffffffffffffffffffffffffffffffffffffffff160362000085575f6040517f1e4fbdf70000000000000000000000000000000000000000000000000000000081526004016200007c9190620001a1565b60405180910390fd5b62000096816200009d60201b60201c565b50620001bc565b5f805f9054906101000a900473ffffffffffffffffffffffffffffffffffffffff169050815f806101000a81548173ffffffffffffffffffffffffffffffffffffffff021916908373ffffffffffffffffffffffffffffffffffffffff1602179055508173ffffffffffffffffffffffffffffffffffffffff168173ffffffffffffffffffffffffffffffffffffffff167f8be0079c531659141344cd1fd0a4f28419497f9722a3daafe3b4186f6b6457e060405160405180910390a35050565b5f73ffffffffffffffffffffffffffffffffffffffff82169050919050565b5f62000189826200015e565b9050919050565b6200019b816200017d565b82525050565b5f602082019050620001b65f83018462000190565b92915050565b61163e80620001ca5f395ff3fe608060405234801561000f575f80fd5b5060043610610060575f3560e01c8063434fa66914610064578063715018a614610080578063784afc4e1461008a5780638da5cb5b146100ba578063b9a46384146100d8578063f2fde38b146100f4575b5f80fd5b61007e60048036038101906100799190610cb9565b610110565b005b61008861039e565b005b6100a4600480360381019061009f9190610d5d565b6103b1565b6040516100b19190610f0c565b60405180910390f35b6100c26107ee565b6040516100cf9190610f6b565b60405180910390f35b6100f260048036038101906100ed9190610d5d565b610815565b005b61010e60048036038101906101099190610fae565b6108eb565b005b61011861096f565b610120610abe565b6040518060400160405280601c81526020017f68747470733a2f2f7777772e77332e6f72672f6e732f6469642f763100000000815250815f018190525073__HexUtils______________________________6363e1cbea3373ffffffffffffffffffffffffffffffffffffffff1660146040518363ffffffff1660e01b81526004016101ad929190611033565b5f60405180830381865af41580156101c7573d5f803e3d5ffd5b505050506040513d5f823e3d601f19601f820116820180604052508101906101ef91906110c8565b6040516020016101ff9190611193565b6040516020818303038152906040528160200181905250806020015160405160200161022b91906111fe565b60405160208183030381529060405281604001515f01819052506040518060600160405280602181526020016115e86021913981604001516020018190525080602001518160400151604001819052508181604001516060018190525080604001515f0151816060018190525080600182602001516040516102ad919061121f565b90815260200160405180910390205f820151815f0190816102ce9190611426565b5060208201518160010190816102e49190611426565b506040820151816002015f820151815f0190816103019190611426565b5060208201518160010190816103179190611426565b50604082015181600201908161032d9190611426565b5060608201518160030190816103439190611426565b505050606082015181600601908161035b9190611426565b509050507f5fccafd09eeeb6a3dc1c80357ee982c00d7fb00a991274a9b96fe4fd7cb605528160200151604051610392919061153d565b60405180910390a15050565b6103a661096f565b6103af5f6109f6565b565b6103b9610abe565b600183836040516103cb929190611581565b90815260200160405180910390206040518060800160405290815f820180546103f390611262565b80601f016020809104026020016040519081016040528092919081815260200182805461041f90611262565b801561046a5780601f106104415761010080835404028352916020019161046a565b820191905f5260205f20905b81548152906001019060200180831161044d57829003601f168201915b5050505050815260200160018201805461048390611262565b80601f01602080910402602001604051908101604052809291908181526020018280546104af90611262565b80156104fa5780601f106104d1576101008083540402835291602001916104fa565b820191905f5260205f20905b8154815290600101906020018083116104dd57829003601f168201915b50505050508152602001600282016040518060800160405290815f8201805461052290611262565b80601f016020809104026020016040519081016040528092919081815260200182805461054e90611262565b80156105995780601f1061057057610100808354040283529160200191610599565b820191905f5260205f20905b81548152906001019060200180831161057c57829003601f168201915b505050505081526020016001820180546105b290611262565b80601f01602080910402602001604051908101604052809291908181526020018280546105de90611262565b80156106295780601f1061060057610100808354040283529160200191610629565b820191905f5260205f20905b81548152906001019060200180831161060c57829003601f168201915b5050505050815260200160028201805461064290611262565b80601f016020809104026020016040519081016040528092919081815260200182805461066e90611262565b80156106b95780601f10610690576101008083540402835291602001916106b9565b820191905f5260205f20905b81548152906001019060200180831161069c57829003601f168201915b505050505081526020016003820180546106d290611262565b80601f01602080910402602001604051908101604052809291908181526020018280546106fe90611262565b80156107495780601f1061072057610100808354040283529160200191610749565b820191905f5260205f20905b81548152906001019060200180831161072c57829003601f168201915b505050505081525050815260200160068201805461076690611262565b80601f016020809104026020016040519081016040528092919081815260200182805461079290611262565b80156107dd5780601f106107b4576101008083540402835291602001916107dd565b820191905f5260205f20905b8154815290600101906020018083116107c057829003601f168201915b505050505081525050905092915050565b5f805f9054906101000a900473ffffffffffffffffffffffffffffffffffffffff16905090565b61081d61096f565b6001828260405161082f929190611581565b90815260200160405180910390205f8082015f61084c9190610aec565b600182015f61085b9190610aec565b600282015f8082015f61086e9190610aec565b600182015f61087d9190610aec565b600282015f61088c9190610aec565b600382015f61089b9190610aec565b5050600682015f6108ac9190610aec565b50507fb24f94d3ff75ed62d7237e14a510a969d70c1d4efdd4cce8ad563aa8ba60a64c82826040516108df9291906115c5565b60405180910390a15050565b6108f361096f565b5f73ffffffffffffffffffffffffffffffffffffffff168173ffffffffffffffffffffffffffffffffffffffff1603610963575f6040517f1e4fbdf700000000000000000000000000000000000000000000000000000000815260040161095a9190610f6b565b60405180910390fd5b61096c816109f6565b50565b610977610ab7565b73ffffffffffffffffffffffffffffffffffffffff166109956107ee565b73ffffffffffffffffffffffffffffffffffffffff16146109f4576109b8610ab7565b6040517f118cdaa70000000000000000000000000000000000000000000000000000000081526004016109eb9190610f6b565b60405180910390fd5b565b5f805f9054906101000a900473ffffffffffffffffffffffffffffffffffffffff169050815f806101000a81548173ffffffffffffffffffffffffffffffffffffffff021916908373ffffffffffffffffffffffffffffffffffffffff1602179055508173ffffffffffffffffffffffffffffffffffffffff168173ffffffffffffffffffffffffffffffffffffffff167f8be0079c531659141344cd1fd0a4f28419497f9722a3daafe3b4186f6b6457e060405160405180910390a35050565b5f33905090565b60405180608001604052806060815260200160608152602001610adf610b29565b8152602001606081525090565b508054610af890611262565b5f825580601f10610b095750610b26565b601f0160209004905f5260205f2090810190610b259190610b51565b5b50565b6040518060800160405280606081526020016060815260200160608152602001606081525090565b5b80821115610b68575f815f905550600101610b52565b5090565b5f604051905090565b5f80fd5b5f80fd5b5f80fd5b5f80fd5b5f601f19601f8301169050919050565b7f4e487b71000000000000000000000000000000000000000000000000000000005f52604160045260245ffd5b610bcb82610b85565b810181811067ffffffffffffffff82111715610bea57610be9610b95565b5b80604052505050565b5f610bfc610b6c565b9050610c088282610bc2565b919050565b5f67ffffffffffffffff821115610c2757610c26610b95565b5b610c3082610b85565b9050602081019050919050565b828183375f83830152505050565b5f610c5d610c5884610c0d565b610bf3565b905082815260208101848484011115610c7957610c78610b81565b5b610c84848285610c3d565b509392505050565b5f82601f830112610ca057610c9f610b7d565b5b8135610cb0848260208601610c4b565b91505092915050565b5f60208284031215610cce57610ccd610b75565b5b5f82013567ffffffffffffffff811115610ceb57610cea610b79565b5b610cf784828501610c8c565b91505092915050565b5f80fd5b5f80fd5b5f8083601f840112610d1d57610d1c610b7d565b5b8235905067ffffffffffffffff811115610d3a57610d39610d00565b5b602083019150836001820283011115610d5657610d55610d04565b5b9250929050565b5f8060208385031215610d7357610d72610b75565b5b5f83013567ffffffffffffffff811115610d9057610d8f610b79565b5b610d9c85828601610d08565b92509250509250929050565b5f81519050919050565b5f82825260208201905092915050565b5f5b83811015610ddf578082015181840152602081019050610dc4565b5f8484015250505050565b5f610df482610da8565b610dfe8185610db2565b9350610e0e818560208601610dc2565b610e1781610b85565b840191505092915050565b5f608083015f8301518482035f860152610e3c8282610dea565b91505060208301518482036020860152610e568282610dea565b91505060408301518482036040860152610e708282610dea565b91505060608301518482036060860152610e8a8282610dea565b9150508091505092915050565b5f608083015f8301518482035f860152610eb18282610dea565b91505060208301518482036020860152610ecb8282610dea565b91505060408301518482036040860152610ee58282610e22565b91505060608301518482036060860152610eff8282610dea565b9150508091505092915050565b5f6020820190508181035f830152610f248184610e97565b905092915050565b5f73ffffffffffffffffffffffffffffffffffffffff82169050919050565b5f610f5582610f2c565b9050919050565b610f6581610f4b565b82525050565b5f602082019050610f7e5f830184610f5c565b92915050565b610f8d81610f4b565b8114610f97575f80fd5b50565b5f81359050610fa881610f84565b92915050565b5f60208284031215610fc357610fc2610b75565b5b5f610fd084828501610f9a565b91505092915050565b5f819050919050565b610feb81610fd9565b82525050565b5f819050919050565b5f819050919050565b5f61101d61101861101384610ff1565b610ffa565b610fd9565b9050919050565b61102d81611003565b82525050565b5f6040820190506110465f830185610fe2565b6110536020830184611024565b9392505050565b5f61106c61106784610c0d565b610bf3565b90508281526020810184848401111561108857611087610b81565b5b611093848285610dc2565b509392505050565b5f82601f8301126110af576110ae610b7d565b5b81516110bf84826020860161105a565b91505092915050565b5f602082840312156110dd576110dc610b75565b5b5f82015167ffffffffffffffff8111156110fa576110f9610b79565b5b6111068482850161109b565b91505092915050565b5f81905092915050565b7f6469643a6b6c61793a00000000000000000000000000000000000000000000005f82015250565b5f61114d60098361110f565b915061115882611119565b600982019050919050565b5f61116d82610da8565b611177818561110f565b9350611187818560208601610dc2565b80840191505092915050565b5f61119d82611141565b91506111a98284611163565b915081905092915050565b7f236b6579732d31000000000000000000000000000000000000000000000000005f82015250565b5f6111e860078361110f565b91506111f3826111b4565b600782019050919050565b5f6112098284611163565b9150611214826111dc565b915081905092915050565b5f61122a8284611163565b915081905092915050565b7f4e487b71000000000000000000000000000000000000000000000000000000005f52602260045260245ffd5b5f600282049050600182168061127957607f821691505b60208210810361128c5761128b611235565b5b50919050565b5f819050815f5260205f209050919050565b5f6020601f8301049050919050565b5f82821b905092915050565b5f600883026112ee7fffffffffffffffffffffffffffffffffffffffffffffffffffffffffffffffff826112b3565b6112f886836112b3565b95508019841693508086168417925050509392505050565b5f61132a61132561132084610fd9565b610ffa565b610fd9565b9050919050565b5f819050919050565b61134383611310565b61135761134f82611331565b8484546112bf565b825550505050565b5f90565b61136b61135f565b61137681848461133a565b505050565b5b818110156113995761138e5f82611363565b60018101905061137c565b5050565b601f8211156113de576113af81611292565b6113b8846112a4565b810160208510156113c7578190505b6113db6113d3856112a4565b83018261137b565b50505b505050565b5f82821c905092915050565b5f6113fe5f19846008026113e3565b1980831691505092915050565b5f61141683836113ef565b9150826002028217905092915050565b61142f82610da8565b67ffffffffffffffff81111561144857611447610b95565b5b6114528254611262565b61145d82828561139d565b5f60209050601f83116001811461148e575f841561147c578287015190505b611486858261140b565b8655506114ed565b601f19841661149c86611292565b5f5b828110156114c35784890151825560018201915060208501945060208101905061149e565b868310156114e057848901516114dc601f8916826113ef565b8355505b6001600288020188555050505b505050505050565b5f82825260208201905092915050565b5f61150f82610da8565b61151981856114f5565b9350611529818560208601610dc2565b61153281610b85565b840191505092915050565b5f6020820190508181035f8301526115558184611505565b905092915050565b5f611568838561110f565b9350611575838584610c3d565b82840190509392505050565b5f61158d82848661155d565b91508190509392505050565b5f6115a483856114f5565b93506115b1838584610c3d565b6115ba83610b85565b840190509392505050565b5f6020820190508181035f8301526115de818486611599565b9050939250505056fe4563647361536563703235366b31566572696669636174696f6e4b657932303139a2646970667358221220be64d8ef80e8c6e9d4250abee16b3250b2f233ae79c79c4e15e2ee9e7ef388dc64736f6c63430008150033",
  "immutableReferences": {},
  "source": "// SPDX-License-Identifier: MIT\r\npragma solidity ^0.8.0;\r\n\r\nimport \"@openzeppelin/contracts/access/Ownable.sol\";\r\nimport \"../structs/DIDStruct.sol\";\r\nimport \"../utils/HexUtils.sol\";\r\n\r\ncontract MinistryDIDRegistry is Ownable {\r\n\r\n    //DID DID document \r\n    mapping(string => DIDStruct.DIDDocument) didDocuments;\r\n\r\n    constructor() Ownable(msg.sender) {}\r\n\r\n    event DIDCreated(string did);\r\n    event DIDDeleted(string did);\r\n\r\n    function createDIDDocument(string memory _publicKey) external onlyOwner {\r\n        DIDStruct.DIDDocument memory didDocument;\r\n       \r\n        didDocument.context = \"https://www.w3.org/ns/did/v1\";\r\n        didDocument.id = string(abi.encodePacked(\"did:klay:\", HexUtils.toHexString(uint256(uint160(msg.sender)), 20)));\r\n\r\n        didDocument.publicKey.id = string(abi.encodePacked(didDocument.id,\"#keys-1\"));\r\n        didDocument.publicKey.keyType = \"EcdsaSecp256k1VerificationKey2019\";\r\n        didDocument.publicKey.controller = didDocument.id;\r\n        didDocument.publicKey.publicKeyData = _publicKey;\r\n\r\n        didDocument.authentication=didDocument.publicKey.id;\r\n\r\n        didDocuments[didDocument.id] = didDocument;\r\n\r\n        emit DIDCreated(didDocument.id);\r\n    }\r\n\r\n    function getDIDDocument(string calldata did) external view returns (DIDStruct.DIDDocument memory) {\r\n        return didDocuments[did];\r\n    }\r\n\r\n    function deleteDIDDocument(string calldata did) external onlyOwner {\r\n        delete didDocuments[did];\r\n        emit DIDDeleted(did);\r\n    }\r\n\r\n}\r\n",
  "sourcePath": "C:\\Users\\SSAFY\\Desktop\\S10P31C203\\blockchain\\did-consortium\\contracts\\ministryDID\\MinistryDIDRegistry.sol",
  "compiler": {
    "name": "solc",
    "version": "0.8.21+commit.d9974bed.Emscripten.clang"
  },
  "schemaVersion": "3.4.16",
  "updatedAt": "2024-05-09T06:28:32.487Z",
  "devdoc": {
    "errors": {
      "OwnableInvalidOwner(address)": [
        {
          "details": "The owner is not a valid owner account. (eg. `address(0)`)"
        }
      ],
      "OwnableUnauthorizedAccount(address)": [
        {
          "details": "The caller account is not authorized to perform an operation."
        }
      ]
    },
    "kind": "dev",
    "methods": {
      "owner()": {
        "details": "Returns the address of the current owner."
      },
      "renounceOwnership()": {
        "details": "Leaves the contract without owner. It will not be possible to call `onlyOwner` functions. Can only be called by the current owner. NOTE: Renouncing ownership will leave the contract without an owner, thereby disabling any functionality that is only available to the owner."
      },
      "transferOwnership(address)": {
        "details": "Transfers ownership of the contract to a new account (`newOwner`). Can only be called by the current owner."
      }
    },
    "version": 1
  },
  "userdoc": {
    "kind": "user",
    "methods": {},
    "version": 1
  }
}