{
  "contractName": "MinistryDIDRegistry",
  "abi": [
    {
      "inputs": [],
      "stateMutability": "nonpayable",
      "type": "constructor"
    },
    {
      "inputs": [
        {
          "internalType": "address",
          "name": "owner",
          "type": "address"
        }
      ],
      "name": "OwnableInvalidOwner",
      "type": "error"
    },
    {
      "inputs": [
        {
          "internalType": "address",
          "name": "account",
          "type": "address"
        }
      ],
      "name": "OwnableUnauthorizedAccount",
      "type": "error"
    },
    {
      "anonymous": false,
      "inputs": [
        {
          "indexed": false,
          "internalType": "string",
          "name": "did",
          "type": "string"
        }
      ],
      "name": "DIDCreated",
      "type": "event"
    },
    {
      "anonymous": false,
      "inputs": [
        {
          "indexed": false,
          "internalType": "string",
          "name": "did",
          "type": "string"
        }
      ],
      "name": "DIDDeleted",
      "type": "event"
    },
    {
      "anonymous": false,
      "inputs": [
        {
          "indexed": true,
          "internalType": "address",
          "name": "previousOwner",
          "type": "address"
        },
        {
          "indexed": true,
          "internalType": "address",
          "name": "newOwner",
          "type": "address"
        }
      ],
      "name": "OwnershipTransferred",
      "type": "event"
    },
    {
      "inputs": [],
      "name": "owner",
      "outputs": [
        {
          "internalType": "address",
          "name": "",
          "type": "address"
        }
      ],
      "stateMutability": "view",
      "type": "function"
    },
    {
      "inputs": [],
      "name": "renounceOwnership",
      "outputs": [],
      "stateMutability": "nonpayable",
      "type": "function"
    },
    {
      "inputs": [
        {
          "internalType": "address",
          "name": "newOwner",
          "type": "address"
        }
      ],
      "name": "transferOwnership",
      "outputs": [],
      "stateMutability": "nonpayable",
      "type": "function"
    },
    {
      "inputs": [
        {
          "internalType": "bytes",
          "name": "_publicKey",
          "type": "bytes"
        }
      ],
      "name": "createDIDDocument",
      "outputs": [],
      "stateMutability": "nonpayable",
      "type": "function"
    },
    {
      "inputs": [
        {
          "internalType": "string",
          "name": "did",
          "type": "string"
        }
      ],
      "name": "getDIDDocument",
      "outputs": [
        {
          "components": [
            {
              "internalType": "string",
              "name": "context",
              "type": "string"
            },
            {
              "internalType": "string",
              "name": "id",
              "type": "string"
            },
            {
              "components": [
                {
                  "internalType": "string",
                  "name": "id",
                  "type": "string"
                },
                {
                  "internalType": "string",
                  "name": "keyType",
                  "type": "string"
                },
                {
                  "internalType": "string",
                  "name": "controller",
                  "type": "string"
                },
                {
                  "internalType": "bytes",
                  "name": "publicKeyData",
                  "type": "bytes"
                }
              ],
              "internalType": "struct DIDStruct.PublicKey",
              "name": "publicKey",
              "type": "tuple"
            },
            {
              "internalType": "string",
              "name": "authentication",
              "type": "string"
            }
          ],
          "internalType": "struct DIDStruct.DIDDocument",
          "name": "",
          "type": "tuple"
        }
      ],
      "stateMutability": "view",
      "type": "function"
    },
    {
      "inputs": [
        {
          "internalType": "string",
          "name": "did",
          "type": "string"
        }
      ],
      "name": "deleteDIDDocument",
      "outputs": [],
      "stateMutability": "nonpayable",
      "type": "function"
    }
  ],
  "bytecode": "0x608060405234801562000010575f80fd5b50335f73ffffffffffffffffffffffffffffffffffffffff168173ffffffffffffffffffffffffffffffffffffffff160362000085575f6040517f1e4fbdf70000000000000000000000000000000000000000000000000000000081526004016200007c9190620001a1565b60405180910390fd5b62000096816200009d60201b60201c565b50620001bc565b5f805f9054906101000a900473ffffffffffffffffffffffffffffffffffffffff169050815f806101000a81548173ffffffffffffffffffffffffffffffffffffffff021916908373ffffffffffffffffffffffffffffffffffffffff1602179055508173ffffffffffffffffffffffffffffffffffffffff168173ffffffffffffffffffffffffffffffffffffffff167f8be0079c531659141344cd1fd0a4f28419497f9722a3daafe3b4186f6b6457e060405160405180910390a35050565b5f73ffffffffffffffffffffffffffffffffffffffff82169050919050565b5f62000189826200015e565b9050919050565b6200019b816200017d565b82525050565b5f602082019050620001b65f83018462000190565b92915050565b61182380620001ca5f395ff3fe608060405234801561000f575f80fd5b5060043610610060575f3560e01c8063715018a614610064578063784afc4e1461006e5780638da5cb5b1461009e578063b9a46384146100bc578063ecc75036146100d8578063f2fde38b146100f4575b5f80fd5b61006c610110565b005b61008860048036038101906100839190610c5f565b610123565b6040516100959190610e70565b60405180910390f35b6100a6610560565b6040516100b39190610ecf565b60405180910390f35b6100d660048036038101906100d19190610c5f565b610587565b005b6100f260048036038101906100ed9190610f3d565b61065d565b005b61010e60048036038101906101099190610fb2565b61092f565b005b6101186109b3565b6101215f610a3a565b565b61012b610b02565b6001838360405161013d929190611019565b90815260200160405180910390206040518060800160405290815f820180546101659061105e565b80601f01602080910402602001604051908101604052809291908181526020018280546101919061105e565b80156101dc5780601f106101b3576101008083540402835291602001916101dc565b820191905f5260205f20905b8154815290600101906020018083116101bf57829003601f168201915b505050505081526020016001820180546101f59061105e565b80601f01602080910402602001604051908101604052809291908181526020018280546102219061105e565b801561026c5780601f106102435761010080835404028352916020019161026c565b820191905f5260205f20905b81548152906001019060200180831161024f57829003601f168201915b50505050508152602001600282016040518060800160405290815f820180546102949061105e565b80601f01602080910402602001604051908101604052809291908181526020018280546102c09061105e565b801561030b5780601f106102e25761010080835404028352916020019161030b565b820191905f5260205f20905b8154815290600101906020018083116102ee57829003601f168201915b505050505081526020016001820180546103249061105e565b80601f01602080910402602001604051908101604052809291908181526020018280546103509061105e565b801561039b5780601f106103725761010080835404028352916020019161039b565b820191905f5260205f20905b81548152906001019060200180831161037e57829003601f168201915b505050505081526020016002820180546103b49061105e565b80601f01602080910402602001604051908101604052809291908181526020018280546103e09061105e565b801561042b5780601f106104025761010080835404028352916020019161042b565b820191905f5260205f20905b81548152906001019060200180831161040e57829003601f168201915b505050505081526020016003820180546104449061105e565b80601f01602080910402602001604051908101604052809291908181526020018280546104709061105e565b80156104bb5780601f10610492576101008083540402835291602001916104bb565b820191905f5260205f20905b81548152906001019060200180831161049e57829003601f168201915b50505050508152505081526020016006820180546104d89061105e565b80601f01602080910402602001604051908101604052809291908181526020018280546105049061105e565b801561054f5780601f106105265761010080835404028352916020019161054f565b820191905f5260205f20905b81548152906001019060200180831161053257829003601f168201915b505050505081525050905092915050565b5f805f9054906101000a900473ffffffffffffffffffffffffffffffffffffffff16905090565b61058f6109b3565b600182826040516105a1929190611019565b90815260200160405180910390205f8082015f6105be9190610b30565b600182015f6105cd9190610b30565b600282015f8082015f6105e09190610b30565b600182015f6105ef9190610b30565b600282015f6105fe9190610b30565b600382015f61060d9190610b6d565b5050600682015f61061e9190610b30565b50507fb24f94d3ff75ed62d7237e14a510a969d70c1d4efdd4cce8ad563aa8ba60a64c82826040516106519291906110ca565b60405180910390a15050565b6106656109b3565b61066d610b02565b6040518060400160405280601c81526020017f68747470733a2f2f7777772e77332e6f72672f6e732f6469642f763100000000815250815f018190525073__HexUtils______________________________6363e1cbea3373ffffffffffffffffffffffffffffffffffffffff1660146040518363ffffffff1660e01b81526004016106fa929190611146565b5f60405180830381865af4158015610714573d5f803e3d5ffd5b505050506040513d5f823e3d601f19601f8201168201806040525081019061073c9190611287565b60405160200161074c9190611348565b6040516020818303038152906040528160200181905250806020015160405160200161077891906113b3565b60405160208183030381529060405281604001515f01819052506040518060600160405280602181526020016117cd60219139816040015160200181905250806020015181604001516040018190525082828080601f0160208091040260200160405190810160405280939291908181526020018383808284375f81840152601f19601f8201169050808301925050505050505081604001516060018190525080604001515f01518160600181905250806001826020015160405161083d91906113d4565b90815260200160405180910390205f820151815f01908161085e919061157e565b506020820151816001019081610874919061157e565b506040820151816002015f820151815f019081610891919061157e565b5060208201518160010190816108a7919061157e565b5060408201518160020190816108bd919061157e565b5060608201518160030190816108d391906116a5565b50505060608201518160060190816108eb919061157e565b509050507f5fccafd09eeeb6a3dc1c80357ee982c00d7fb00a991274a9b96fe4fd7cb60552816020015160405161092291906117ac565b60405180910390a1505050565b6109376109b3565b5f73ffffffffffffffffffffffffffffffffffffffff168173ffffffffffffffffffffffffffffffffffffffff16036109a7575f6040517f1e4fbdf700000000000000000000000000000000000000000000000000000000815260040161099e9190610ecf565b60405180910390fd5b6109b081610a3a565b50565b6109bb610afb565b73ffffffffffffffffffffffffffffffffffffffff166109d9610560565b73ffffffffffffffffffffffffffffffffffffffff1614610a38576109fc610afb565b6040517f118cdaa7000000000000000000000000000000000000000000000000000000008152600401610a2f9190610ecf565b60405180910390fd5b565b5f805f9054906101000a900473ffffffffffffffffffffffffffffffffffffffff169050815f806101000a81548173ffffffffffffffffffffffffffffffffffffffff021916908373ffffffffffffffffffffffffffffffffffffffff1602179055508173ffffffffffffffffffffffffffffffffffffffff168173ffffffffffffffffffffffffffffffffffffffff167f8be0079c531659141344cd1fd0a4f28419497f9722a3daafe3b4186f6b6457e060405160405180910390a35050565b5f33905090565b60405180608001604052806060815260200160608152602001610b23610baa565b8152602001606081525090565b508054610b3c9061105e565b5f825580601f10610b4d5750610b6a565b601f0160209004905f5260205f2090810190610b699190610bd2565b5b50565b508054610b799061105e565b5f825580601f10610b8a5750610ba7565b601f0160209004905f5260205f2090810190610ba69190610bd2565b5b50565b6040518060800160405280606081526020016060815260200160608152602001606081525090565b5b80821115610be9575f815f905550600101610bd3565b5090565b5f604051905090565b5f80fd5b5f80fd5b5f80fd5b5f80fd5b5f80fd5b5f8083601f840112610c1f57610c1e610bfe565b5b8235905067ffffffffffffffff811115610c3c57610c3b610c02565b5b602083019150836001820283011115610c5857610c57610c06565b5b9250929050565b5f8060208385031215610c7557610c74610bf6565b5b5f83013567ffffffffffffffff811115610c9257610c91610bfa565b5b610c9e85828601610c0a565b92509250509250929050565b5f81519050919050565b5f82825260208201905092915050565b5f5b83811015610ce1578082015181840152602081019050610cc6565b5f8484015250505050565b5f601f19601f8301169050919050565b5f610d0682610caa565b610d108185610cb4565b9350610d20818560208601610cc4565b610d2981610cec565b840191505092915050565b5f81519050919050565b5f82825260208201905092915050565b5f610d5882610d34565b610d628185610d3e565b9350610d72818560208601610cc4565b610d7b81610cec565b840191505092915050565b5f608083015f8301518482035f860152610da08282610cfc565b91505060208301518482036020860152610dba8282610cfc565b91505060408301518482036040860152610dd48282610cfc565b91505060608301518482036060860152610dee8282610d4e565b9150508091505092915050565b5f608083015f8301518482035f860152610e158282610cfc565b91505060208301518482036020860152610e2f8282610cfc565b91505060408301518482036040860152610e498282610d86565b91505060608301518482036060860152610e638282610cfc565b9150508091505092915050565b5f6020820190508181035f830152610e888184610dfb565b905092915050565b5f73ffffffffffffffffffffffffffffffffffffffff82169050919050565b5f610eb982610e90565b9050919050565b610ec981610eaf565b82525050565b5f602082019050610ee25f830184610ec0565b92915050565b5f8083601f840112610efd57610efc610bfe565b5b8235905067ffffffffffffffff811115610f1a57610f19610c02565b5b602083019150836001820283011115610f3657610f35610c06565b5b9250929050565b5f8060208385031215610f5357610f52610bf6565b5b5f83013567ffffffffffffffff811115610f7057610f6f610bfa565b5b610f7c85828601610ee8565b92509250509250929050565b610f9181610eaf565b8114610f9b575f80fd5b50565b5f81359050610fac81610f88565b92915050565b5f60208284031215610fc757610fc6610bf6565b5b5f610fd484828501610f9e565b91505092915050565b5f81905092915050565b828183375f83830152505050565b5f6110008385610fdd565b935061100d838584610fe7565b82840190509392505050565b5f611025828486610ff5565b91508190509392505050565b7f4e487b71000000000000000000000000000000000000000000000000000000005f52602260045260245ffd5b5f600282049050600182168061107557607f821691505b60208210810361108857611087611031565b5b50919050565b5f82825260208201905092915050565b5f6110a9838561108e565b93506110b6838584610fe7565b6110bf83610cec565b840190509392505050565b5f6020820190508181035f8301526110e381848661109e565b90509392505050565b5f819050919050565b6110fe816110ec565b82525050565b5f819050919050565b5f819050919050565b5f61113061112b61112684611104565b61110d565b6110ec565b9050919050565b61114081611116565b82525050565b5f6040820190506111595f8301856110f5565b6111666020830184611137565b9392505050565b5f80fd5b7f4e487b71000000000000000000000000000000000000000000000000000000005f52604160045260245ffd5b6111a782610cec565b810181811067ffffffffffffffff821117156111c6576111c5611171565b5b80604052505050565b5f6111d8610bed565b90506111e4828261119e565b919050565b5f67ffffffffffffffff82111561120357611202611171565b5b61120c82610cec565b9050602081019050919050565b5f61122b611226846111e9565b6111cf565b9050828152602081018484840111156112475761124661116d565b5b611252848285610cc4565b509392505050565b5f82601f83011261126e5761126d610bfe565b5b815161127e848260208601611219565b91505092915050565b5f6020828403121561129c5761129b610bf6565b5b5f82015167ffffffffffffffff8111156112b9576112b8610bfa565b5b6112c58482850161125a565b91505092915050565b7f6469643a6b6c61793a00000000000000000000000000000000000000000000005f82015250565b5f611302600983610fdd565b915061130d826112ce565b600982019050919050565b5f61132282610caa565b61132c8185610fdd565b935061133c818560208601610cc4565b80840191505092915050565b5f611352826112f6565b915061135e8284611318565b915081905092915050565b7f236b6579732d31000000000000000000000000000000000000000000000000005f82015250565b5f61139d600783610fdd565b91506113a882611369565b600782019050919050565b5f6113be8284611318565b91506113c982611391565b915081905092915050565b5f6113df8284611318565b915081905092915050565b5f819050815f5260205f209050919050565b5f6020601f8301049050919050565b5f82821b905092915050565b5f600883026114467fffffffffffffffffffffffffffffffffffffffffffffffffffffffffffffffff8261140b565b611450868361140b565b95508019841693508086168417925050509392505050565b5f61148261147d611478846110ec565b61110d565b6110ec565b9050919050565b5f819050919050565b61149b83611468565b6114af6114a782611489565b848454611417565b825550505050565b5f90565b6114c36114b7565b6114ce818484611492565b505050565b5b818110156114f1576114e65f826114bb565b6001810190506114d4565b5050565b601f82111561153657611507816113ea565b611510846113fc565b8101602085101561151f578190505b61153361152b856113fc565b8301826114d3565b50505b505050565b5f82821c905092915050565b5f6115565f198460080261153b565b1980831691505092915050565b5f61156e8383611547565b9150826002028217905092915050565b61158782610caa565b67ffffffffffffffff8111156115a05761159f611171565b5b6115aa825461105e565b6115b58282856114f5565b5f60209050601f8311600181146115e6575f84156115d4578287015190505b6115de8582611563565b865550611645565b601f1984166115f4866113ea565b5f5b8281101561161b578489015182556001820191506020850194506020810190506115f6565b868310156116385784890151611634601f891682611547565b8355505b6001600288020188555050505b505050505050565b5f819050815f5260205f209050919050565b601f8211156116a0576116718161164d565b61167a846113fc565b81016020851015611689578190505b61169d611695856113fc565b8301826114d3565b50505b505050565b6116ae82610d34565b67ffffffffffffffff8111156116c7576116c6611171565b5b6116d1825461105e565b6116dc82828561165f565b5f60209050601f83116001811461170d575f84156116fb578287015190505b6117058582611563565b86555061176c565b601f19841661171b8661164d565b5f5b828110156117425784890151825560018201915060208501945060208101905061171d565b8683101561175f578489015161175b601f891682611547565b8355505b6001600288020188555050505b505050505050565b5f61177e82610caa565b611788818561108e565b9350611798818560208601610cc4565b6117a181610cec565b840191505092915050565b5f6020820190508181035f8301526117c48184611774565b90509291505056fe4563647361536563703235366b31566572696669636174696f6e4b657932303139a2646970667358221220e549e68b7ea16d73c15af7e5b3f5f1c4bac8127b9c290b6714f75047f34dfcdf64736f6c63430008150033",
  "immutableReferences": {},
  "source": "// SPDX-License-Identifier: MIT\r\npragma solidity ^0.8.0;\r\n\r\nimport \"@openzeppelin/contracts/access/Ownable.sol\";\r\nimport \"../structs/DIDStruct.sol\";\r\nimport \"../utils/HexUtils.sol\";\r\n\r\ncontract MinistryDIDRegistry is Ownable {\r\n\r\n    mapping(string => DIDStruct.DIDDocument) didDocuments;\r\n\r\n    constructor() Ownable(msg.sender) {}\r\n\r\n    event DIDCreated(string did);\r\n    event DIDDeleted(string did);\r\n\r\n    function createDIDDocument(bytes calldata _publicKey) external onlyOwner {\r\n        DIDStruct.DIDDocument memory didDocument;\r\n       \r\n        didDocument.context = \"https://www.w3.org/ns/did/v1\";\r\n        didDocument.id = string(abi.encodePacked(\"did:klay:\", HexUtils.toHexString(uint256(uint160(msg.sender)), 20)));\r\n\r\n        didDocument.publicKey.id = string(abi.encodePacked(didDocument.id,\"#keys-1\"));\r\n        didDocument.publicKey.keyType = \"EcdsaSecp256k1VerificationKey2019\";\r\n        didDocument.publicKey.controller = didDocument.id;\r\n        didDocument.publicKey.publicKeyData = _publicKey;\r\n\r\n        didDocument.authentication=didDocument.publicKey.id;\r\n\r\n        didDocuments[didDocument.id] = didDocument;\r\n\r\n        emit DIDCreated(didDocument.id);\r\n    }\r\n\r\n    function getDIDDocument(string calldata did) external view returns (DIDStruct.DIDDocument memory) {\r\n        return didDocuments[did];\r\n    }\r\n\r\n    function deleteDIDDocument(string calldata did) external onlyOwner {\r\n        delete didDocuments[did];\r\n        emit DIDDeleted(did);\r\n    }\r\n\r\n}\r\n",
  "sourcePath": "C:\\Users\\SSAFY\\Desktop\\S10P31C203\\blockchain\\did-consortium\\contracts\\ministryDID\\MinistryDIDRegistry.sol",
  "compiler": {
    "name": "solc",
    "version": "0.8.21+commit.d9974bed.Emscripten.clang"
  },
  "schemaVersion": "3.4.16",
  "updatedAt": "2024-05-10T00:55:05.185Z",
  "devdoc": {
    "errors": {
      "OwnableInvalidOwner(address)": [
        {
          "details": "The owner is not a valid owner account. (eg. `address(0)`)"
        }
      ],
      "OwnableUnauthorizedAccount(address)": [
        {
          "details": "The caller account is not authorized to perform an operation."
        }
      ]
    },
    "kind": "dev",
    "methods": {
      "owner()": {
        "details": "Returns the address of the current owner."
      },
      "renounceOwnership()": {
        "details": "Leaves the contract without owner. It will not be possible to call `onlyOwner` functions. Can only be called by the current owner. NOTE: Renouncing ownership will leave the contract without an owner, thereby disabling any functionality that is only available to the owner."
      },
      "transferOwnership(address)": {
        "details": "Transfers ownership of the contract to a new account (`newOwner`). Can only be called by the current owner."
      }
    },
    "version": 1
  },
  "userdoc": {
    "kind": "user",
    "methods": {},
    "version": 1
  }
}