{
  "contractName": "MinistryDIDRegistry",
  "abi": [
    {
      "inputs": [],
      "stateMutability": "nonpayable",
      "type": "constructor"
    },
    {
      "inputs": [
        {
          "internalType": "address",
          "name": "owner",
          "type": "address"
        }
      ],
      "name": "OwnableInvalidOwner",
      "type": "error"
    },
    {
      "inputs": [
        {
          "internalType": "address",
          "name": "account",
          "type": "address"
        }
      ],
      "name": "OwnableUnauthorizedAccount",
      "type": "error"
    },
    {
      "anonymous": false,
      "inputs": [
        {
          "indexed": false,
          "internalType": "string",
          "name": "did",
          "type": "string"
        }
      ],
      "name": "DIDCreated",
      "type": "event"
    },
    {
      "anonymous": false,
      "inputs": [
        {
          "indexed": false,
          "internalType": "string",
          "name": "did",
          "type": "string"
        }
      ],
      "name": "DIDDeleted",
      "type": "event"
    },
    {
      "anonymous": false,
      "inputs": [
        {
          "indexed": true,
          "internalType": "address",
          "name": "previousOwner",
          "type": "address"
        },
        {
          "indexed": true,
          "internalType": "address",
          "name": "newOwner",
          "type": "address"
        }
      ],
      "name": "OwnershipTransferred",
      "type": "event"
    },
    {
      "inputs": [],
      "name": "owner",
      "outputs": [
        {
          "internalType": "address",
          "name": "",
          "type": "address"
        }
      ],
      "stateMutability": "view",
      "type": "function"
    },
    {
      "inputs": [],
      "name": "renounceOwnership",
      "outputs": [],
      "stateMutability": "nonpayable",
      "type": "function"
    },
    {
      "inputs": [
        {
          "internalType": "address",
          "name": "newOwner",
          "type": "address"
        }
      ],
      "name": "transferOwnership",
      "outputs": [],
      "stateMutability": "nonpayable",
      "type": "function"
    },
    {
      "inputs": [
        {
          "internalType": "string",
          "name": "_publicKey",
          "type": "string"
        }
      ],
      "name": "createDIDDocument",
      "outputs": [],
      "stateMutability": "nonpayable",
      "type": "function"
    },
    {
      "inputs": [
        {
          "internalType": "string",
          "name": "did",
          "type": "string"
        }
      ],
      "name": "getDIDDocument",
      "outputs": [
        {
          "components": [
            {
              "internalType": "string",
              "name": "context",
              "type": "string"
            },
            {
              "internalType": "string",
              "name": "id",
              "type": "string"
            },
            {
              "components": [
                {
                  "internalType": "string",
                  "name": "id",
                  "type": "string"
                },
                {
                  "internalType": "string",
                  "name": "keyType",
                  "type": "string"
                },
                {
                  "internalType": "string",
                  "name": "controller",
                  "type": "string"
                },
                {
                  "internalType": "string",
                  "name": "publicKeyHex",
                  "type": "string"
                }
              ],
              "internalType": "struct DIDStruct.PublicKey",
              "name": "publicKey",
              "type": "tuple"
            },
            {
              "internalType": "string",
              "name": "authentication",
              "type": "string"
            }
          ],
          "internalType": "struct DIDStruct.DIDDocument",
          "name": "",
          "type": "tuple"
        }
      ],
      "stateMutability": "view",
      "type": "function"
    },
    {
      "inputs": [
        {
          "internalType": "string",
          "name": "did",
          "type": "string"
        }
      ],
      "name": "deleteDIDDocument",
      "outputs": [],
      "stateMutability": "nonpayable",
      "type": "function"
    }
  ],
  "bytecode": "0x608060405234801562000010575f80fd5b50335f73ffffffffffffffffffffffffffffffffffffffff168173ffffffffffffffffffffffffffffffffffffffff160362000085575f6040517f1e4fbdf70000000000000000000000000000000000000000000000000000000081526004016200007c9190620001a1565b60405180910390fd5b62000096816200009d60201b60201c565b50620001bc565b5f805f9054906101000a900473ffffffffffffffffffffffffffffffffffffffff169050815f806101000a81548173ffffffffffffffffffffffffffffffffffffffff021916908373ffffffffffffffffffffffffffffffffffffffff1602179055508173ffffffffffffffffffffffffffffffffffffffff168173ffffffffffffffffffffffffffffffffffffffff167f8be0079c531659141344cd1fd0a4f28419497f9722a3daafe3b4186f6b6457e060405160405180910390a35050565b5f73ffffffffffffffffffffffffffffffffffffffff82169050919050565b5f62000189826200015e565b9050919050565b6200019b816200017d565b82525050565b5f602082019050620001b65f83018462000190565b92915050565b6115cd80620001ca5f395ff3fe608060405234801561000f575f80fd5b5060043610610060575f3560e01c8063434fa66914610064578063715018a614610080578063784afc4e1461008a5780638da5cb5b146100ba578063b9a46384146100d8578063f2fde38b146100f4575b5f80fd5b61007e60048036038101906100799190610c22565b610110565b005b6100886103e2565b005b6100a4600480360381019061009f9190610c22565b6103f5565b6040516100b19190610de1565b60405180910390f35b6100c2610832565b6040516100cf9190610e40565b60405180910390f35b6100f260048036038101906100ed9190610c22565b610859565b005b61010e60048036038101906101099190610e83565b61092f565b005b6101186109b3565b610120610b02565b6040518060400160405280601c81526020017f68747470733a2f2f7777772e77332e6f72672f6e732f6469642f763100000000815250815f018190525073__HexUtils______________________________6363e1cbea3373ffffffffffffffffffffffffffffffffffffffff1660146040518363ffffffff1660e01b81526004016101ad929190610f08565b5f60405180830381865af41580156101c7573d5f803e3d5ffd5b505050506040513d5f823e3d601f19601f820116820180604052508101906101ef9190611049565b6040516020016101ff9190611114565b6040516020818303038152906040528160200181905250806020015160405160200161022b919061117f565b60405160208183030381529060405281604001515f018190525060405180606001604052806021815260200161157760219139816040015160200181905250806020015181604001516040018190525082828080601f0160208091040260200160405190810160405280939291908181526020018383808284375f81840152601f19601f8201169050808301925050505050505081604001516060018190525080604001515f0151816060018190525080600182602001516040516102f091906111a0565b90815260200160405180910390205f820151815f01908161031191906113a7565b50602082015181600101908161032791906113a7565b506040820151816002015f820151815f01908161034491906113a7565b50602082015181600101908161035a91906113a7565b50604082015181600201908161037091906113a7565b50606082015181600301908161038691906113a7565b505050606082015181600601908161039e91906113a7565b509050507f5fccafd09eeeb6a3dc1c80357ee982c00d7fb00a991274a9b96fe4fd7cb6055281602001516040516103d591906114be565b60405180910390a1505050565b6103ea6109b3565b6103f35f610a3a565b565b6103fd610b02565b6001838360405161040f929190611510565b90815260200160405180910390206040518060800160405290815f82018054610437906111e3565b80601f0160208091040260200160405190810160405280929190818152602001828054610463906111e3565b80156104ae5780601f10610485576101008083540402835291602001916104ae565b820191905f5260205f20905b81548152906001019060200180831161049157829003601f168201915b505050505081526020016001820180546104c7906111e3565b80601f01602080910402602001604051908101604052809291908181526020018280546104f3906111e3565b801561053e5780601f106105155761010080835404028352916020019161053e565b820191905f5260205f20905b81548152906001019060200180831161052157829003601f168201915b50505050508152602001600282016040518060800160405290815f82018054610566906111e3565b80601f0160208091040260200160405190810160405280929190818152602001828054610592906111e3565b80156105dd5780601f106105b4576101008083540402835291602001916105dd565b820191905f5260205f20905b8154815290600101906020018083116105c057829003601f168201915b505050505081526020016001820180546105f6906111e3565b80601f0160208091040260200160405190810160405280929190818152602001828054610622906111e3565b801561066d5780601f106106445761010080835404028352916020019161066d565b820191905f5260205f20905b81548152906001019060200180831161065057829003601f168201915b50505050508152602001600282018054610686906111e3565b80601f01602080910402602001604051908101604052809291908181526020018280546106b2906111e3565b80156106fd5780601f106106d4576101008083540402835291602001916106fd565b820191905f5260205f20905b8154815290600101906020018083116106e057829003601f168201915b50505050508152602001600382018054610716906111e3565b80601f0160208091040260200160405190810160405280929190818152602001828054610742906111e3565b801561078d5780601f106107645761010080835404028352916020019161078d565b820191905f5260205f20905b81548152906001019060200180831161077057829003601f168201915b50505050508152505081526020016006820180546107aa906111e3565b80601f01602080910402602001604051908101604052809291908181526020018280546107d6906111e3565b80156108215780601f106107f857610100808354040283529160200191610821565b820191905f5260205f20905b81548152906001019060200180831161080457829003601f168201915b505050505081525050905092915050565b5f805f9054906101000a900473ffffffffffffffffffffffffffffffffffffffff16905090565b6108616109b3565b60018282604051610873929190611510565b90815260200160405180910390205f8082015f6108909190610b30565b600182015f61089f9190610b30565b600282015f8082015f6108b29190610b30565b600182015f6108c19190610b30565b600282015f6108d09190610b30565b600382015f6108df9190610b30565b5050600682015f6108f09190610b30565b50507fb24f94d3ff75ed62d7237e14a510a969d70c1d4efdd4cce8ad563aa8ba60a64c8282604051610923929190611554565b60405180910390a15050565b6109376109b3565b5f73ffffffffffffffffffffffffffffffffffffffff168173ffffffffffffffffffffffffffffffffffffffff16036109a7575f6040517f1e4fbdf700000000000000000000000000000000000000000000000000000000815260040161099e9190610e40565b60405180910390fd5b6109b081610a3a565b50565b6109bb610afb565b73ffffffffffffffffffffffffffffffffffffffff166109d9610832565b73ffffffffffffffffffffffffffffffffffffffff1614610a38576109fc610afb565b6040517f118cdaa7000000000000000000000000000000000000000000000000000000008152600401610a2f9190610e40565b60405180910390fd5b565b5f805f9054906101000a900473ffffffffffffffffffffffffffffffffffffffff169050815f806101000a81548173ffffffffffffffffffffffffffffffffffffffff021916908373ffffffffffffffffffffffffffffffffffffffff1602179055508173ffffffffffffffffffffffffffffffffffffffff168173ffffffffffffffffffffffffffffffffffffffff167f8be0079c531659141344cd1fd0a4f28419497f9722a3daafe3b4186f6b6457e060405160405180910390a35050565b5f33905090565b60405180608001604052806060815260200160608152602001610b23610b6d565b8152602001606081525090565b508054610b3c906111e3565b5f825580601f10610b4d5750610b6a565b601f0160209004905f5260205f2090810190610b699190610b95565b5b50565b6040518060800160405280606081526020016060815260200160608152602001606081525090565b5b80821115610bac575f815f905550600101610b96565b5090565b5f604051905090565b5f80fd5b5f80fd5b5f80fd5b5f80fd5b5f80fd5b5f8083601f840112610be257610be1610bc1565b5b8235905067ffffffffffffffff811115610bff57610bfe610bc5565b5b602083019150836001820283011115610c1b57610c1a610bc9565b5b9250929050565b5f8060208385031215610c3857610c37610bb9565b5b5f83013567ffffffffffffffff811115610c5557610c54610bbd565b5b610c6185828601610bcd565b92509250509250929050565b5f81519050919050565b5f82825260208201905092915050565b5f5b83811015610ca4578082015181840152602081019050610c89565b5f8484015250505050565b5f601f19601f8301169050919050565b5f610cc982610c6d565b610cd38185610c77565b9350610ce3818560208601610c87565b610cec81610caf565b840191505092915050565b5f608083015f8301518482035f860152610d118282610cbf565b91505060208301518482036020860152610d2b8282610cbf565b91505060408301518482036040860152610d458282610cbf565b91505060608301518482036060860152610d5f8282610cbf565b9150508091505092915050565b5f608083015f8301518482035f860152610d868282610cbf565b91505060208301518482036020860152610da08282610cbf565b91505060408301518482036040860152610dba8282610cf7565b91505060608301518482036060860152610dd48282610cbf565b9150508091505092915050565b5f6020820190508181035f830152610df98184610d6c565b905092915050565b5f73ffffffffffffffffffffffffffffffffffffffff82169050919050565b5f610e2a82610e01565b9050919050565b610e3a81610e20565b82525050565b5f602082019050610e535f830184610e31565b92915050565b610e6281610e20565b8114610e6c575f80fd5b50565b5f81359050610e7d81610e59565b92915050565b5f60208284031215610e9857610e97610bb9565b5b5f610ea584828501610e6f565b91505092915050565b5f819050919050565b610ec081610eae565b82525050565b5f819050919050565b5f819050919050565b5f610ef2610eed610ee884610ec6565b610ecf565b610eae565b9050919050565b610f0281610ed8565b82525050565b5f604082019050610f1b5f830185610eb7565b610f286020830184610ef9565b9392505050565b5f80fd5b7f4e487b71000000000000000000000000000000000000000000000000000000005f52604160045260245ffd5b610f6982610caf565b810181811067ffffffffffffffff82111715610f8857610f87610f33565b5b80604052505050565b5f610f9a610bb0565b9050610fa68282610f60565b919050565b5f67ffffffffffffffff821115610fc557610fc4610f33565b5b610fce82610caf565b9050602081019050919050565b5f610fed610fe884610fab565b610f91565b90508281526020810184848401111561100957611008610f2f565b5b611014848285610c87565b509392505050565b5f82601f8301126110305761102f610bc1565b5b8151611040848260208601610fdb565b91505092915050565b5f6020828403121561105e5761105d610bb9565b5b5f82015167ffffffffffffffff81111561107b5761107a610bbd565b5b6110878482850161101c565b91505092915050565b5f81905092915050565b7f6469643a6b6c61793a00000000000000000000000000000000000000000000005f82015250565b5f6110ce600983611090565b91506110d98261109a565b600982019050919050565b5f6110ee82610c6d565b6110f88185611090565b9350611108818560208601610c87565b80840191505092915050565b5f61111e826110c2565b915061112a82846110e4565b915081905092915050565b7f236b6579732d31000000000000000000000000000000000000000000000000005f82015250565b5f611169600783611090565b915061117482611135565b600782019050919050565b5f61118a82846110e4565b91506111958261115d565b915081905092915050565b5f6111ab82846110e4565b915081905092915050565b7f4e487b71000000000000000000000000000000000000000000000000000000005f52602260045260245ffd5b5f60028204905060018216806111fa57607f821691505b60208210810361120d5761120c6111b6565b5b50919050565b5f819050815f5260205f209050919050565b5f6020601f8301049050919050565b5f82821b905092915050565b5f6008830261126f7fffffffffffffffffffffffffffffffffffffffffffffffffffffffffffffffff82611234565b6112798683611234565b95508019841693508086168417925050509392505050565b5f6112ab6112a66112a184610eae565b610ecf565b610eae565b9050919050565b5f819050919050565b6112c483611291565b6112d86112d0826112b2565b848454611240565b825550505050565b5f90565b6112ec6112e0565b6112f78184846112bb565b505050565b5b8181101561131a5761130f5f826112e4565b6001810190506112fd565b5050565b601f82111561135f5761133081611213565b61133984611225565b81016020851015611348578190505b61135c61135485611225565b8301826112fc565b50505b505050565b5f82821c905092915050565b5f61137f5f1984600802611364565b1980831691505092915050565b5f6113978383611370565b9150826002028217905092915050565b6113b082610c6d565b67ffffffffffffffff8111156113c9576113c8610f33565b5b6113d382546111e3565b6113de82828561131e565b5f60209050601f83116001811461140f575f84156113fd578287015190505b611407858261138c565b86555061146e565b601f19841661141d86611213565b5f5b828110156114445784890151825560018201915060208501945060208101905061141f565b86831015611461578489015161145d601f891682611370565b8355505b6001600288020188555050505b505050505050565b5f82825260208201905092915050565b5f61149082610c6d565b61149a8185611476565b93506114aa818560208601610c87565b6114b381610caf565b840191505092915050565b5f6020820190508181035f8301526114d68184611486565b905092915050565b828183375f83830152505050565b5f6114f78385611090565b93506115048385846114de565b82840190509392505050565b5f61151c8284866114ec565b91508190509392505050565b5f6115338385611476565b93506115408385846114de565b61154983610caf565b840190509392505050565b5f6020820190508181035f83015261156d818486611528565b9050939250505056fe4563647361536563703235366b31566572696669636174696f6e4b657932303139a26469706673582212200e7c90373c2392da058a1a63cd140b1845576ca62a849764c05c21d193c1dc9964736f6c63430008150033",
  "immutableReferences": {},
  "source": "// SPDX-License-Identifier: MIT\r\npragma solidity ^0.8.0;\r\n\r\nimport \"@openzeppelin/contracts/access/Ownable.sol\";\r\nimport \"../structs/DIDStruct.sol\";\r\nimport \"../utils/HexUtils.sol\";\r\n\r\ncontract MinistryDIDRegistry is Ownable {\r\n\r\n    mapping(string => DIDStruct.DIDDocument) didDocuments;\r\n\r\n    constructor() Ownable(msg.sender) {}\r\n\r\n    event DIDCreated(string did);\r\n    event DIDDeleted(string did);\r\n\r\n    function createDIDDocument(string calldata _publicKey) external onlyOwner {\r\n        DIDStruct.DIDDocument memory didDocument;\r\n       \r\n        didDocument.context = \"https://www.w3.org/ns/did/v1\";\r\n        didDocument.id = string(abi.encodePacked(\"did:klay:\", HexUtils.toHexString(uint256(uint160(msg.sender)), 20)));\r\n\r\n        didDocument.publicKey.id = string(abi.encodePacked(didDocument.id,\"#keys-1\"));\r\n        didDocument.publicKey.keyType = \"EcdsaSecp256k1VerificationKey2019\";\r\n        didDocument.publicKey.controller = didDocument.id;\r\n        didDocument.publicKey.publicKeyHex = _publicKey;\r\n\r\n        didDocument.authentication=didDocument.publicKey.id;\r\n\r\n        didDocuments[didDocument.id] = didDocument;\r\n\r\n        emit DIDCreated(didDocument.id);\r\n    }\r\n\r\n    function getDIDDocument(string calldata did) external view returns (DIDStruct.DIDDocument memory) {\r\n        return didDocuments[did];\r\n    }\r\n\r\n    function deleteDIDDocument(string calldata did) external onlyOwner {\r\n        delete didDocuments[did];\r\n        emit DIDDeleted(did);\r\n    }\r\n\r\n}\r\n",
  "sourcePath": "C:\\Users\\SSAFY\\Desktop\\S10P31C203\\blockchain\\did-consortium\\contracts\\ministryDID\\MinistryDIDRegistry.sol",
  "compiler": {
    "name": "solc",
    "version": "0.8.21+commit.d9974bed.Emscripten.clang"
  },
  "schemaVersion": "3.4.16",
  "updatedAt": "2024-05-10T06:18:02.844Z",
  "devdoc": {
    "errors": {
      "OwnableInvalidOwner(address)": [
        {
          "details": "The owner is not a valid owner account. (eg. `address(0)`)"
        }
      ],
      "OwnableUnauthorizedAccount(address)": [
        {
          "details": "The caller account is not authorized to perform an operation."
        }
      ]
    },
    "kind": "dev",
    "methods": {
      "owner()": {
        "details": "Returns the address of the current owner."
      },
      "renounceOwnership()": {
        "details": "Leaves the contract without owner. It will not be possible to call `onlyOwner` functions. Can only be called by the current owner. NOTE: Renouncing ownership will leave the contract without an owner, thereby disabling any functionality that is only available to the owner."
      },
      "transferOwnership(address)": {
        "details": "Transfers ownership of the contract to a new account (`newOwner`). Can only be called by the current owner."
      }
    },
    "version": 1
  },
  "userdoc": {
    "kind": "user",
    "methods": {},
    "version": 1
  }
}