{
  "contractName": "MinistryDIDRegistry",
  "abi": [
    {
      "inputs": [],
      "stateMutability": "nonpayable",
      "type": "constructor"
    },
    {
      "inputs": [
        {
          "internalType": "address",
          "name": "owner",
          "type": "address"
        }
      ],
      "name": "OwnableInvalidOwner",
      "type": "error"
    },
    {
      "inputs": [
        {
          "internalType": "address",
          "name": "account",
          "type": "address"
        }
      ],
      "name": "OwnableUnauthorizedAccount",
      "type": "error"
    },
    {
      "anonymous": false,
      "inputs": [
        {
          "indexed": false,
          "internalType": "string",
          "name": "did",
          "type": "string"
        }
      ],
      "name": "DIDCreated",
      "type": "event"
    },
    {
      "anonymous": false,
      "inputs": [
        {
          "indexed": false,
          "internalType": "string",
          "name": "did",
          "type": "string"
        }
      ],
      "name": "DIDDeleted",
      "type": "event"
    },
    {
      "anonymous": false,
      "inputs": [
        {
          "indexed": true,
          "internalType": "address",
          "name": "previousOwner",
          "type": "address"
        },
        {
          "indexed": true,
          "internalType": "address",
          "name": "newOwner",
          "type": "address"
        }
      ],
      "name": "OwnershipTransferred",
      "type": "event"
    },
    {
      "inputs": [],
      "name": "owner",
      "outputs": [
        {
          "internalType": "address",
          "name": "",
          "type": "address"
        }
      ],
      "stateMutability": "view",
      "type": "function"
    },
    {
      "inputs": [],
      "name": "renounceOwnership",
      "outputs": [],
      "stateMutability": "nonpayable",
      "type": "function"
    },
    {
      "inputs": [
        {
          "internalType": "address",
          "name": "newOwner",
          "type": "address"
        }
      ],
      "name": "transferOwnership",
      "outputs": [],
      "stateMutability": "nonpayable",
      "type": "function"
    },
    {
      "inputs": [
        {
          "components": [
            {
              "internalType": "string",
              "name": "context",
              "type": "string"
            },
            {
              "internalType": "string",
              "name": "id",
              "type": "string"
            },
            {
              "components": [
                {
                  "internalType": "string",
                  "name": "id",
                  "type": "string"
                },
                {
                  "internalType": "string",
                  "name": "keyType",
                  "type": "string"
                },
                {
                  "internalType": "string",
                  "name": "controller",
                  "type": "string"
                },
                {
                  "internalType": "string",
                  "name": "publicKeyData",
                  "type": "string"
                }
              ],
              "internalType": "struct DIDStruct.PublicKey",
              "name": "publicKey",
              "type": "tuple"
            },
            {
              "internalType": "string",
              "name": "authentication",
              "type": "string"
            },
            {
              "components": [
                {
                  "internalType": "string",
                  "name": "id",
                  "type": "string"
                },
                {
                  "internalType": "string",
                  "name": "serviceType",
                  "type": "string"
                },
                {
                  "internalType": "string",
                  "name": "serviceEndPoint",
                  "type": "string"
                }
              ],
              "internalType": "struct DIDStruct.Service",
              "name": "service",
              "type": "tuple"
            }
          ],
          "internalType": "struct DIDStruct.DIDDocument",
          "name": "_didDocument",
          "type": "tuple"
        }
      ],
      "name": "createDIDDocument",
      "outputs": [],
      "stateMutability": "nonpayable",
      "type": "function"
    },
    {
      "inputs": [
        {
          "internalType": "string",
          "name": "did",
          "type": "string"
        }
      ],
      "name": "getDIDDocument",
      "outputs": [
        {
          "components": [
            {
              "internalType": "string",
              "name": "context",
              "type": "string"
            },
            {
              "internalType": "string",
              "name": "id",
              "type": "string"
            },
            {
              "components": [
                {
                  "internalType": "string",
                  "name": "id",
                  "type": "string"
                },
                {
                  "internalType": "string",
                  "name": "keyType",
                  "type": "string"
                },
                {
                  "internalType": "string",
                  "name": "controller",
                  "type": "string"
                },
                {
                  "internalType": "string",
                  "name": "publicKeyData",
                  "type": "string"
                }
              ],
              "internalType": "struct DIDStruct.PublicKey",
              "name": "publicKey",
              "type": "tuple"
            },
            {
              "internalType": "string",
              "name": "authentication",
              "type": "string"
            },
            {
              "components": [
                {
                  "internalType": "string",
                  "name": "id",
                  "type": "string"
                },
                {
                  "internalType": "string",
                  "name": "serviceType",
                  "type": "string"
                },
                {
                  "internalType": "string",
                  "name": "serviceEndPoint",
                  "type": "string"
                }
              ],
              "internalType": "struct DIDStruct.Service",
              "name": "service",
              "type": "tuple"
            }
          ],
          "internalType": "struct DIDStruct.DIDDocument",
          "name": "",
          "type": "tuple"
        }
      ],
      "stateMutability": "view",
      "type": "function"
    },
    {
      "inputs": [
        {
          "internalType": "string",
          "name": "did",
          "type": "string"
        }
      ],
      "name": "deleteDIDDocument",
      "outputs": [],
      "stateMutability": "nonpayable",
      "type": "function"
    }
  ],
  "bytecode": "0x608060405234801562000010575f80fd5b50335f73ffffffffffffffffffffffffffffffffffffffff168173ffffffffffffffffffffffffffffffffffffffff160362000085575f6040517f1e4fbdf70000000000000000000000000000000000000000000000000000000081526004016200007c9190620001a1565b60405180910390fd5b62000096816200009d60201b60201c565b50620001bc565b5f805f9054906101000a900473ffffffffffffffffffffffffffffffffffffffff169050815f806101000a81548173ffffffffffffffffffffffffffffffffffffffff021916908373ffffffffffffffffffffffffffffffffffffffff1602179055508173ffffffffffffffffffffffffffffffffffffffff168173ffffffffffffffffffffffffffffffffffffffff167f8be0079c531659141344cd1fd0a4f28419497f9722a3daafe3b4186f6b6457e060405160405180910390a35050565b5f73ffffffffffffffffffffffffffffffffffffffff82169050919050565b5f62000189826200015e565b9050919050565b6200019b816200017d565b82525050565b5f602082019050620001b65f83018462000190565b92915050565b611b7d80620001ca5f395ff3fe608060405234801561000f575f80fd5b5060043610610060575f3560e01c806322aa51b114610064578063715018a614610080578063784afc4e1461008a5780638da5cb5b146100ba578063b9a46384146100d8578063f2fde38b146100f4575b5f80fd5b61007e600480360381019061007991906111ec565b610110565b005b6100886103f6565b005b6100a4600480360381019061009f9190611290565b610409565b6040516100b191906114b4565b60405180910390f35b6100c2610a09565b6040516100cf9190611513565b60405180910390f35b6100f260048036038101906100ed9190611290565b610a30565b005b61010e60048036038101906101099190611556565b610b39565b005b610118610bbd565b610120610d0c565b73__HexUtils______________________________6363e1cbea3373ffffffffffffffffffffffffffffffffffffffff1660146040518363ffffffff1660e01b81526004016101709291906115db565b5f60405180830381865af415801561018a573d5f803e3d5ffd5b505050506040513d5f823e3d601f19601f820116820180604052508101906101b29190611670565b6040516020016101c2919061173b565b6040516020818303038152906040528160200181905250815f0151815f0181905250806020015182604001515f015160405160200161020292919061175c565b60405160208183030381529060405281604001515f01819052508160400151602001518160400151602001819052508160400151604001518160400151604001819052508160400151606001518160400151606001819052508160600151816060018190525081608001515f015181608001515f018190525081608001516020015181608001516020018190525081608001516040015181608001516040018190525080600182602001516040516102ba919061177f565b90815260200160405180910390205f820151815f0190816102db9190611986565b5060208201518160010190816102f19190611986565b506040820151816002015f820151815f01908161030e9190611986565b5060208201518160010190816103249190611986565b50604082015181600201908161033a9190611986565b5060608201518160030190816103509190611986565b50505060608201518160060190816103689190611986565b506080820151816007015f820151815f0190816103859190611986565b50602082015181600101908161039b9190611986565b5060408201518160020190816103b19190611986565b5050509050507f5fccafd09eeeb6a3dc1c80357ee982c00d7fb00a991274a9b96fe4fd7cb6055281602001516040516103ea9190611a9d565b60405180910390a15050565b6103fe610bbd565b6104075f610c44565b565b610411610d0c565b60018383604051610423929190611ae1565b90815260200160405180910390206040518060a00160405290815f8201805461044b906117c2565b80601f0160208091040260200160405190810160405280929190818152602001828054610477906117c2565b80156104c25780601f10610499576101008083540402835291602001916104c2565b820191905f5260205f20905b8154815290600101906020018083116104a557829003601f168201915b505050505081526020016001820180546104db906117c2565b80601f0160208091040260200160405190810160405280929190818152602001828054610507906117c2565b80156105525780601f1061052957610100808354040283529160200191610552565b820191905f5260205f20905b81548152906001019060200180831161053557829003601f168201915b50505050508152602001600282016040518060800160405290815f8201805461057a906117c2565b80601f01602080910402602001604051908101604052809291908181526020018280546105a6906117c2565b80156105f15780601f106105c8576101008083540402835291602001916105f1565b820191905f5260205f20905b8154815290600101906020018083116105d457829003601f168201915b5050505050815260200160018201805461060a906117c2565b80601f0160208091040260200160405190810160405280929190818152602001828054610636906117c2565b80156106815780601f1061065857610100808354040283529160200191610681565b820191905f5260205f20905b81548152906001019060200180831161066457829003601f168201915b5050505050815260200160028201805461069a906117c2565b80601f01602080910402602001604051908101604052809291908181526020018280546106c6906117c2565b80156107115780601f106106e857610100808354040283529160200191610711565b820191905f5260205f20905b8154815290600101906020018083116106f457829003601f168201915b5050505050815260200160038201805461072a906117c2565b80601f0160208091040260200160405190810160405280929190818152602001828054610756906117c2565b80156107a15780601f10610778576101008083540402835291602001916107a1565b820191905f5260205f20905b81548152906001019060200180831161078457829003601f168201915b50505050508152505081526020016006820180546107be906117c2565b80601f01602080910402602001604051908101604052809291908181526020018280546107ea906117c2565b80156108355780601f1061080c57610100808354040283529160200191610835565b820191905f5260205f20905b81548152906001019060200180831161081857829003601f168201915b50505050508152602001600782016040518060600160405290815f8201805461085d906117c2565b80601f0160208091040260200160405190810160405280929190818152602001828054610889906117c2565b80156108d45780601f106108ab576101008083540402835291602001916108d4565b820191905f5260205f20905b8154815290600101906020018083116108b757829003601f168201915b505050505081526020016001820180546108ed906117c2565b80601f0160208091040260200160405190810160405280929190818152602001828054610919906117c2565b80156109645780601f1061093b57610100808354040283529160200191610964565b820191905f5260205f20905b81548152906001019060200180831161094757829003601f168201915b5050505050815260200160028201805461097d906117c2565b80601f01602080910402602001604051908101604052809291908181526020018280546109a9906117c2565b80156109f45780601f106109cb576101008083540402835291602001916109f4565b820191905f5260205f20905b8154815290600101906020018083116109d757829003601f168201915b50505050508152505081525050905092915050565b5f805f9054906101000a900473ffffffffffffffffffffffffffffffffffffffff16905090565b610a38610bbd565b60018282604051610a4a929190611ae1565b90815260200160405180910390205f8082015f610a679190610d47565b600182015f610a769190610d47565b600282015f8082015f610a899190610d47565b600182015f610a989190610d47565b600282015f610aa79190610d47565b600382015f610ab69190610d47565b5050600682015f610ac79190610d47565b600782015f8082015f610ada9190610d47565b600182015f610ae99190610d47565b600282015f610af89190610d47565b505050507fb24f94d3ff75ed62d7237e14a510a969d70c1d4efdd4cce8ad563aa8ba60a64c8282604051610b2d929190611b25565b60405180910390a15050565b610b41610bbd565b5f73ffffffffffffffffffffffffffffffffffffffff168173ffffffffffffffffffffffffffffffffffffffff1603610bb1575f6040517f1e4fbdf7000000000000000000000000000000000000000000000000000000008152600401610ba89190611513565b60405180910390fd5b610bba81610c44565b50565b610bc5610d05565b73ffffffffffffffffffffffffffffffffffffffff16610be3610a09565b73ffffffffffffffffffffffffffffffffffffffff1614610c4257610c06610d05565b6040517f118cdaa7000000000000000000000000000000000000000000000000000000008152600401610c399190611513565b60405180910390fd5b565b5f805f9054906101000a900473ffffffffffffffffffffffffffffffffffffffff169050815f806101000a81548173ffffffffffffffffffffffffffffffffffffffff021916908373ffffffffffffffffffffffffffffffffffffffff1602179055508173ffffffffffffffffffffffffffffffffffffffff168173ffffffffffffffffffffffffffffffffffffffff167f8be0079c531659141344cd1fd0a4f28419497f9722a3daafe3b4186f6b6457e060405160405180910390a35050565b5f33905090565b6040518060a001604052806060815260200160608152602001610d2d610d84565b815260200160608152602001610d41610dac565b81525090565b508054610d53906117c2565b5f825580601f10610d645750610d81565b601f0160209004905f5260205f2090810190610d809190610dcd565b5b50565b6040518060800160405280606081526020016060815260200160608152602001606081525090565b60405180606001604052806060815260200160608152602001606081525090565b5b80821115610de4575f815f905550600101610dce565b5090565b5f604051905090565b5f80fd5b5f80fd5b5f80fd5b5f601f19601f8301169050919050565b7f4e487b71000000000000000000000000000000000000000000000000000000005f52604160045260245ffd5b610e4382610dfd565b810181811067ffffffffffffffff82111715610e6257610e61610e0d565b5b80604052505050565b5f610e74610de8565b9050610e808282610e3a565b919050565b5f80fd5b5f80fd5b5f80fd5b5f67ffffffffffffffff821115610eab57610eaa610e0d565b5b610eb482610dfd565b9050602081019050919050565b828183375f83830152505050565b5f610ee1610edc84610e91565b610e6b565b905082815260208101848484011115610efd57610efc610e8d565b5b610f08848285610ec1565b509392505050565b5f82601f830112610f2457610f23610e89565b5b8135610f34848260208601610ecf565b91505092915050565b5f60808284031215610f5257610f51610df9565b5b610f5c6080610e6b565b90505f82013567ffffffffffffffff811115610f7b57610f7a610e85565b5b610f8784828501610f10565b5f83015250602082013567ffffffffffffffff811115610faa57610fa9610e85565b5b610fb684828501610f10565b602083015250604082013567ffffffffffffffff811115610fda57610fd9610e85565b5b610fe684828501610f10565b604083015250606082013567ffffffffffffffff81111561100a57611009610e85565b5b61101684828501610f10565b60608301525092915050565b5f6060828403121561103757611036610df9565b5b6110416060610e6b565b90505f82013567ffffffffffffffff8111156110605761105f610e85565b5b61106c84828501610f10565b5f83015250602082013567ffffffffffffffff81111561108f5761108e610e85565b5b61109b84828501610f10565b602083015250604082013567ffffffffffffffff8111156110bf576110be610e85565b5b6110cb84828501610f10565b60408301525092915050565b5f60a082840312156110ec576110eb610df9565b5b6110f660a0610e6b565b90505f82013567ffffffffffffffff81111561111557611114610e85565b5b61112184828501610f10565b5f83015250602082013567ffffffffffffffff81111561114457611143610e85565b5b61115084828501610f10565b602083015250604082013567ffffffffffffffff81111561117457611173610e85565b5b61118084828501610f3d565b604083015250606082013567ffffffffffffffff8111156111a4576111a3610e85565b5b6111b084828501610f10565b606083015250608082013567ffffffffffffffff8111156111d4576111d3610e85565b5b6111e084828501611022565b60808301525092915050565b5f6020828403121561120157611200610df1565b5b5f82013567ffffffffffffffff81111561121e5761121d610df5565b5b61122a848285016110d7565b91505092915050565b5f80fd5b5f80fd5b5f8083601f8401126112505761124f610e89565b5b8235905067ffffffffffffffff81111561126d5761126c611233565b5b60208301915083600182028301111561128957611288611237565b5b9250929050565b5f80602083850312156112a6576112a5610df1565b5b5f83013567ffffffffffffffff8111156112c3576112c2610df5565b5b6112cf8582860161123b565b92509250509250929050565b5f81519050919050565b5f82825260208201905092915050565b5f5b838110156113125780820151818401526020810190506112f7565b5f8484015250505050565b5f611327826112db565b61133181856112e5565b93506113418185602086016112f5565b61134a81610dfd565b840191505092915050565b5f608083015f8301518482035f86015261136f828261131d565b91505060208301518482036020860152611389828261131d565b915050604083015184820360408601526113a3828261131d565b915050606083015184820360608601526113bd828261131d565b9150508091505092915050565b5f606083015f8301518482035f8601526113e4828261131d565b915050602083015184820360208601526113fe828261131d565b91505060408301518482036040860152611418828261131d565b9150508091505092915050565b5f60a083015f8301518482035f86015261143f828261131d565b91505060208301518482036020860152611459828261131d565b915050604083015184820360408601526114738282611355565b9150506060830151848203606086015261148d828261131d565b915050608083015184820360808601526114a782826113ca565b9150508091505092915050565b5f6020820190508181035f8301526114cc8184611425565b905092915050565b5f73ffffffffffffffffffffffffffffffffffffffff82169050919050565b5f6114fd826114d4565b9050919050565b61150d816114f3565b82525050565b5f6020820190506115265f830184611504565b92915050565b611535816114f3565b811461153f575f80fd5b50565b5f813590506115508161152c565b92915050565b5f6020828403121561156b5761156a610df1565b5b5f61157884828501611542565b91505092915050565b5f819050919050565b61159381611581565b82525050565b5f819050919050565b5f819050919050565b5f6115c56115c06115bb84611599565b6115a2565b611581565b9050919050565b6115d5816115ab565b82525050565b5f6040820190506115ee5f83018561158a565b6115fb60208301846115cc565b9392505050565b5f61161461160f84610e91565b610e6b565b9050828152602081018484840111156116305761162f610e8d565b5b61163b8482856112f5565b509392505050565b5f82601f83011261165757611656610e89565b5b8151611667848260208601611602565b91505092915050565b5f6020828403121561168557611684610df1565b5b5f82015167ffffffffffffffff8111156116a2576116a1610df5565b5b6116ae84828501611643565b91505092915050565b5f81905092915050565b7f6469643a6b6c61793a00000000000000000000000000000000000000000000005f82015250565b5f6116f56009836116b7565b9150611700826116c1565b600982019050919050565b5f611715826112db565b61171f81856116b7565b935061172f8185602086016112f5565b80840191505092915050565b5f611745826116e9565b9150611751828461170b565b915081905092915050565b5f611767828561170b565b9150611773828461170b565b91508190509392505050565b5f61178a828461170b565b915081905092915050565b7f4e487b71000000000000000000000000000000000000000000000000000000005f52602260045260245ffd5b5f60028204905060018216806117d957607f821691505b6020821081036117ec576117eb611795565b5b50919050565b5f819050815f5260205f209050919050565b5f6020601f8301049050919050565b5f82821b905092915050565b5f6008830261184e7fffffffffffffffffffffffffffffffffffffffffffffffffffffffffffffffff82611813565b6118588683611813565b95508019841693508086168417925050509392505050565b5f61188a61188561188084611581565b6115a2565b611581565b9050919050565b5f819050919050565b6118a383611870565b6118b76118af82611891565b84845461181f565b825550505050565b5f90565b6118cb6118bf565b6118d681848461189a565b505050565b5b818110156118f9576118ee5f826118c3565b6001810190506118dc565b5050565b601f82111561193e5761190f816117f2565b61191884611804565b81016020851015611927578190505b61193b61193385611804565b8301826118db565b50505b505050565b5f82821c905092915050565b5f61195e5f1984600802611943565b1980831691505092915050565b5f611976838361194f565b9150826002028217905092915050565b61198f826112db565b67ffffffffffffffff8111156119a8576119a7610e0d565b5b6119b282546117c2565b6119bd8282856118fd565b5f60209050601f8311600181146119ee575f84156119dc578287015190505b6119e6858261196b565b865550611a4d565b601f1984166119fc866117f2565b5f5b82811015611a23578489015182556001820191506020850194506020810190506119fe565b86831015611a405784890151611a3c601f89168261194f565b8355505b6001600288020188555050505b505050505050565b5f82825260208201905092915050565b5f611a6f826112db565b611a798185611a55565b9350611a898185602086016112f5565b611a9281610dfd565b840191505092915050565b5f6020820190508181035f830152611ab58184611a65565b905092915050565b5f611ac883856116b7565b9350611ad5838584610ec1565b82840190509392505050565b5f611aed828486611abd565b91508190509392505050565b5f611b048385611a55565b9350611b11838584610ec1565b611b1a83610dfd565b840190509392505050565b5f6020820190508181035f830152611b3e818486611af9565b9050939250505056fea2646970667358221220ea8de2089891b3b0f77dc5ef9ed3bd6dcadc3daf976e656e2dbd0c17a40800b964736f6c63430008150033",
  "immutableReferences": {},
  "source": "// SPDX-License-Identifier: MIT\r\npragma solidity ^0.8.0;\r\n\r\nimport \"@openzeppelin/contracts/access/Ownable.sol\";\r\nimport \"../structs/DIDStruct.sol\";\r\nimport \"../utils/HexUtils.sol\";\r\n\r\ncontract MinistryDIDRegistry is Ownable {\r\n\r\n    mapping(string => DIDStruct.DIDDocument) didDocuments;\r\n\r\n    constructor() Ownable(msg.sender) {}\r\n\r\n    event DIDCreated(string did);\r\n    event DIDDeleted(string did);\r\n\r\n    function createDIDDocument(DIDStruct.DIDDocument memory _didDocument) external onlyOwner {\r\n        DIDStruct.DIDDocument memory didDocument;\r\n        didDocument.id = string(abi.encodePacked(\"did:klay:\", HexUtils.toHexString(uint256(uint160(msg.sender)), 20)));\r\n        didDocument.context = _didDocument.context;\r\n\r\n        didDocument.publicKey.id = string(abi.encodePacked(didDocument.id, _didDocument.publicKey.id)); // DID + fragment \r\n        didDocument.publicKey.keyType = _didDocument.publicKey.keyType;\r\n        didDocument.publicKey.controller = _didDocument.publicKey.controller;\r\n        didDocument.publicKey.publicKeyData = _didDocument.publicKey.publicKeyData;\r\n\r\n        didDocument.authentication = _didDocument.authentication;\r\n\r\n        didDocument.service.id = _didDocument.service.id;\r\n        didDocument.service.serviceType = _didDocument.service.serviceType;\r\n        didDocument.service.serviceEndPoint = _didDocument.service.serviceEndPoint;\r\n\r\n        didDocuments[didDocument.id] = didDocument;\r\n\r\n        emit DIDCreated(didDocument.id);\r\n    }\r\n\r\n    function getDIDDocument(string calldata did) external view returns (DIDStruct.DIDDocument memory) {\r\n        return didDocuments[did];\r\n    }\r\n\r\n    function deleteDIDDocument(string calldata did) external onlyOwner {\r\n        delete didDocuments[did];\r\n        emit DIDDeleted(did);\r\n    }\r\n\r\n}\r\n",
  "sourcePath": "C:\\Users\\SSAFY\\Desktop\\S10P31C203\\blockchain\\did-consortium\\contracts\\ministryDID\\MinistryDIDRegistry.sol",
  "compiler": {
    "name": "solc",
    "version": "0.8.21+commit.d9974bed.Emscripten.clang"
  },
  "schemaVersion": "3.4.16",
  "updatedAt": "2024-05-08T00:36:01.864Z",
  "devdoc": {
    "errors": {
      "OwnableInvalidOwner(address)": [
        {
          "details": "The owner is not a valid owner account. (eg. `address(0)`)"
        }
      ],
      "OwnableUnauthorizedAccount(address)": [
        {
          "details": "The caller account is not authorized to perform an operation."
        }
      ]
    },
    "kind": "dev",
    "methods": {
      "owner()": {
        "details": "Returns the address of the current owner."
      },
      "renounceOwnership()": {
        "details": "Leaves the contract without owner. It will not be possible to call `onlyOwner` functions. Can only be called by the current owner. NOTE: Renouncing ownership will leave the contract without an owner, thereby disabling any functionality that is only available to the owner."
      },
      "transferOwnership(address)": {
        "details": "Transfers ownership of the contract to a new account (`newOwner`). Can only be called by the current owner."
      }
    },
    "version": 1
  },
  "userdoc": {
    "kind": "user",
    "methods": {},
    "version": 1
  }
}