{
  "contractName": "KeyUtils",
  "abi": [
    {
      "inputs": [
        {
          "internalType": "string",
          "name": "did",
          "type": "string"
        }
      ],
      "name": "genContextKey",
      "outputs": [
        {
          "internalType": "string",
          "name": "",
          "type": "string"
        }
      ],
      "stateMutability": "pure",
      "type": "function"
    },
    {
      "inputs": [
        {
          "internalType": "string",
          "name": "ctx",
          "type": "string"
        }
      ],
      "name": "genContextSecondKey",
      "outputs": [
        {
          "internalType": "bytes32",
          "name": "",
          "type": "bytes32"
        }
      ],
      "stateMutability": "pure",
      "type": "function"
    },
    {
      "inputs": [
        {
          "internalType": "string",
          "name": "did",
          "type": "string"
        }
      ],
      "name": "genPubKeyListKey",
      "outputs": [
        {
          "internalType": "string",
          "name": "",
          "type": "string"
        }
      ],
      "stateMutability": "pure",
      "type": "function"
    },
    {
      "inputs": [
        {
          "internalType": "bytes",
          "name": "pubKey",
          "type": "bytes"
        }
      ],
      "name": "genPubKeyListSecondKey",
      "outputs": [
        {
          "internalType": "bytes32",
          "name": "",
          "type": "bytes32"
        }
      ],
      "stateMutability": "pure",
      "type": "function"
    },
    {
      "inputs": [
        {
          "internalType": "string",
          "name": "did",
          "type": "string"
        }
      ],
      "name": "genControllerKey",
      "outputs": [
        {
          "internalType": "string",
          "name": "",
          "type": "string"
        }
      ],
      "stateMutability": "pure",
      "type": "function"
    },
    {
      "inputs": [
        {
          "internalType": "string",
          "name": "controller",
          "type": "string"
        }
      ],
      "name": "genControllerSecondKey",
      "outputs": [
        {
          "internalType": "bytes32",
          "name": "",
          "type": "bytes32"
        }
      ],
      "stateMutability": "pure",
      "type": "function"
    },
    {
      "inputs": [
        {
          "internalType": "string",
          "name": "did",
          "type": "string"
        }
      ],
      "name": "genServiceKey",
      "outputs": [
        {
          "internalType": "string",
          "name": "",
          "type": "string"
        }
      ],
      "stateMutability": "pure",
      "type": "function"
    },
    {
      "inputs": [
        {
          "internalType": "string",
          "name": "serviceId",
          "type": "string"
        }
      ],
      "name": "genServiceSecondKey",
      "outputs": [
        {
          "internalType": "bytes32",
          "name": "",
          "type": "bytes32"
        }
      ],
      "stateMutability": "pure",
      "type": "function"
    },
    {
      "inputs": [
        {
          "internalType": "string",
          "name": "did",
          "type": "string"
        }
      ],
      "name": "genUpdateTimeKey",
      "outputs": [
        {
          "internalType": "string",
          "name": "",
          "type": "string"
        }
      ],
      "stateMutability": "pure",
      "type": "function"
    },
    {
      "inputs": [],
      "name": "genUpdateTimeSecondKey",
      "outputs": [
        {
          "internalType": "bytes32",
          "name": "",
          "type": "bytes32"
        }
      ],
      "stateMutability": "pure",
      "type": "function"
    }
  ],
  "bytecode": "0x61097a61004e600b8282823980515f1a607314610042577f4e487b71000000000000000000000000000000000000000000000000000000005f525f60045260245ffd5b305f52607381538281f3fe73000000000000000000000000000000000000000030146080604052600436106100a7575f3560e01c80639eee0a891161006f5780639eee0a891461019b578063b726099b146101cb578063e97b8b90146101fb578063eb82484414610219578063f4d9407f14610249576100a7565b8063170b9254146100ab5780631badc8de146100db5780631eae56fe1461010b578063229cbc871461013b5780634acf27051461016b575b5f80fd5b6100c560048036038101906100c091906104fc565b610279565b6040516100d291906105bd565b60405180910390f35b6100f560048036038101906100f091906104fc565b6102a2565b60405161010291906105bd565b60405180910390f35b610125600480360381019061012091906104fc565b6102cb565b60405161013291906105bd565b60405180910390f35b610155600480360381019061015091906104fc565b6102f4565b60405161016291906105f5565b60405180910390f35b610185600480360381019061018091906104fc565b610304565b60405161019291906105f5565b60405180910390f35b6101b560048036038101906101b091906104fc565b610314565b6040516101c291906105bd565b60405180910390f35b6101e560048036038101906101e091906106ac565b61033d565b6040516101f291906105f5565b60405180910390f35b61020361034d565b60405161021091906105f5565b60405180910390f35b610233600480360381019061022e91906104fc565b610376565b60405161024091906105bd565b60405180910390f35b610263600480360381019061025e91906104fc565b61039f565b60405161027091906105f5565b60405180910390f35b60608160405160200161028c9190610777565b6040516020818303038152906040529050919050565b6060816040516020016102b591906107e2565b6040516020818303038152906040529050919050565b6060816040516020016102de919061084d565b6040516020818303038152906040529050919050565b5f81805190602001209050919050565b5f81805190602001209050919050565b60608160405160200161032791906108b8565b6040516020818303038152906040529050919050565b5f81805190602001209050919050565b5f7fc82895c0c3ceabd782a01504a94c9aacea049cda0758a362503092064cb5015f5f1b905090565b6060816040516020016103899190610923565b6040516020818303038152906040529050919050565b5f81805190602001209050919050565b5f604051905090565b5f80fd5b5f80fd5b5f80fd5b5f80fd5b5f601f19601f8301169050919050565b7f4e487b71000000000000000000000000000000000000000000000000000000005f52604160045260245ffd5b61040e826103c8565b810181811067ffffffffffffffff8211171561042d5761042c6103d8565b5b80604052505050565b5f61043f6103af565b905061044b8282610405565b919050565b5f67ffffffffffffffff82111561046a576104696103d8565b5b610473826103c8565b9050602081019050919050565b828183375f83830152505050565b5f6104a061049b84610450565b610436565b9050828152602081018484840111156104bc576104bb6103c4565b5b6104c7848285610480565b509392505050565b5f82601f8301126104e3576104e26103c0565b5b81356104f384826020860161048e565b91505092915050565b5f60208284031215610511576105106103b8565b5b5f82013567ffffffffffffffff81111561052e5761052d6103bc565b5b61053a848285016104cf565b91505092915050565b5f81519050919050565b5f82825260208201905092915050565b5f5b8381101561057a57808201518184015260208101905061055f565b5f8484015250505050565b5f61058f82610543565b610599818561054d565b93506105a981856020860161055d565b6105b2816103c8565b840191505092915050565b5f6020820190508181035f8301526105d58184610585565b905092915050565b5f819050919050565b6105ef816105dd565b82525050565b5f6020820190506106085f8301846105e6565b92915050565b5f67ffffffffffffffff821115610628576106276103d8565b5b610631826103c8565b9050602081019050919050565b5f61065061064b8461060e565b610436565b90508281526020810184848401111561066c5761066b6103c4565b5b610677848285610480565b509392505050565b5f82601f830112610693576106926103c0565b5b81356106a384826020860161063e565b91505092915050565b5f602082840312156106c1576106c06103b8565b5b5f82013567ffffffffffffffff8111156106de576106dd6103bc565b5b6106ea8482850161067f565b91505092915050565b5f81905092915050565b5f61070782610543565b61071181856106f3565b935061072181856020860161055d565b80840191505092915050565b7f7075626c69634b657900000000000000000000000000000000000000000000005f82015250565b5f6107616009836106f3565b915061076c8261072d565b600982019050919050565b5f61078282846106fd565b915061078d82610755565b915081905092915050565b7f40636f6e746578740000000000000000000000000000000000000000000000005f82015250565b5f6107cc6008836106f3565b91506107d782610798565b600882019050919050565b5f6107ed82846106fd565b91506107f8826107c0565b915081905092915050565b7f636f6e74726f6c6c6572000000000000000000000000000000000000000000005f82015250565b5f610837600a836106f3565b915061084282610803565b600a82019050919050565b5f61085882846106fd565b91506108638261082b565b915081905092915050565b7f75706461746554696d65000000000000000000000000000000000000000000005f82015250565b5f6108a2600a836106f3565b91506108ad8261086e565b600a82019050919050565b5f6108c382846106fd565b91506108ce82610896565b915081905092915050565b7f73657276696365000000000000000000000000000000000000000000000000005f82015250565b5f61090d6007836106f3565b9150610918826108d9565b600782019050919050565b5f61092e82846106fd565b915061093982610901565b91508190509291505056fea2646970667358221220fcba02a129e6f336a6ad7aec0d8171124d395494e8522d36782aad6bc1f8fe8464736f6c63430008150033",
  "immutableReferences": {},
  "source": "// SPDX-License-Identifier: MIT\npragma solidity ^0.8.0;\n\nimport \"./BytesUtils.sol\";\n\nlibrary KeyUtils {\n    function genContextKey(string memory did)\n        public\n        pure\n        returns (string memory)\n    {\n        return string(abi.encodePacked(did, \"@context\"));\n    }\n\n    function genContextSecondKey(string memory ctx)\n        public\n        pure\n        returns (bytes32)\n    {\n        return keccak256(bytes(ctx));\n    }\n\n    function genPubKeyListKey(string memory did)\n        public\n        pure\n        returns (string memory)\n    {\n        return string(abi.encodePacked(did, \"publicKey\"));\n    }\n\n    function genPubKeyListSecondKey(bytes memory pubKey)\n        public\n        pure\n        returns (bytes32)\n    {\n        return keccak256(pubKey);\n    }\n\n    function genControllerKey(string memory did)\n        public\n        pure\n        returns (string memory)\n    {\n        return string(abi.encodePacked(did, \"controller\"));\n    }\n\n    function genControllerSecondKey(string memory controller)\n        public\n        pure\n        returns (bytes32)\n    {\n        return keccak256(bytes(controller));\n    }\n\n    function genServiceKey(string memory did)\n        public\n        pure\n        returns (string memory)\n    {\n        return string(abi.encodePacked(did, \"service\"));\n    }\n\n    function genServiceSecondKey(string memory serviceId)\n        public\n        pure\n        returns (bytes32)\n    {\n        return keccak256(bytes(serviceId));\n    }\n\n    function genUpdateTimeKey(string memory did)\n        public\n        pure\n        returns (string memory)\n    {\n        return string(abi.encodePacked(did, \"updateTime\"));\n    }\n\n    function genUpdateTimeSecondKey() public pure returns (bytes32) {\n        // return keccak256(\"updateTime\");\n        return\n            0xc82895c0c3ceabd782a01504a94c9aacea049cda0758a362503092064cb5015f;\n    }\n}",
  "sourcePath": "/Users/sejin/Desktop/Development/C203/S10P31C203/blockchain/did-user/contracts/utils/KeyUtils.sol",
  "compiler": {
    "name": "solc",
    "version": "0.8.21+commit.d9974bed.Emscripten.clang"
  },
  "schemaVersion": "3.4.16",
  "updatedAt": "2024-05-08T06:09:17.001Z",
  "devdoc": {
    "kind": "dev",
    "methods": {},
    "version": 1
  },
  "userdoc": {
    "kind": "user",
    "methods": {},
    "version": 1
  }
}