{
  "contractName": "Loan",
  "abi": [
    {
      "inputs": [
        {
          "internalType": "address payable",
          "name": "_target",
          "type": "address"
        }
      ],
      "stateMutability": "nonpayable",
      "type": "constructor"
    },
    {
      "anonymous": false,
      "inputs": [
        {
          "indexed": false,
          "internalType": "string",
          "name": "mortgage",
          "type": "string"
        },
        {
          "indexed": false,
          "internalType": "uint256",
          "name": "amount",
          "type": "uint256"
        }
      ],
      "name": "Borrowed",
      "type": "event"
    },
    {
      "inputs": [],
      "name": "pendingLoanAmount",
      "outputs": [
        {
          "internalType": "uint256",
          "name": "",
          "type": "uint256"
        }
      ],
      "stateMutability": "view",
      "type": "function"
    },
    {
      "inputs": [],
      "name": "pendingLoanMortgage",
      "outputs": [
        {
          "internalType": "string",
          "name": "",
          "type": "string"
        }
      ],
      "stateMutability": "view",
      "type": "function"
    },
    {
      "inputs": [
        {
          "internalType": "string",
          "name": "mortgage",
          "type": "string"
        },
        {
          "internalType": "uint256",
          "name": "amount",
          "type": "uint256"
        }
      ],
      "name": "sendLoanRequest",
      "outputs": [],
      "stateMutability": "nonpayable",
      "type": "function"
    },
    {
      "inputs": [],
      "name": "assignLoanRequest",
      "outputs": [],
      "stateMutability": "nonpayable",
      "type": "function"
    }
  ],
  "bytecode": "0x608060405234801561000f575f80fd5b50604051610c4f380380610c4f83398181016040528101906100319190610128565b73c0a88521a8669e453c02d37ceed99dbb0a4dc5085f806101000a81548173ffffffffffffffffffffffffffffffffffffffff021916908373ffffffffffffffffffffffffffffffffffffffff1602179055508060015f6101000a81548173ffffffffffffffffffffffffffffffffffffffff021916908373ffffffffffffffffffffffffffffffffffffffff16021790555050610153565b5f80fd5b5f73ffffffffffffffffffffffffffffffffffffffff82169050919050565b5f6100f7826100ce565b9050919050565b610107816100ed565b8114610111575f80fd5b50565b5f81519050610122816100fe565b92915050565b5f6020828403121561013d5761013c6100ca565b5b5f61014a84828501610114565b91505092915050565b610aef806101605f395ff3fe608060405234801561000f575f80fd5b506004361061004a575f3560e01c806301ec4aee1461004e5780636c4325aa14610058578063d4956fd214610076578063d8721e0014610092575b5f80fd5b6100566100b0565b005b6100606101e5565b60405161006d91906103ab565b60405180910390f35b610090600480360381019061008b919061053b565b610271565b005b61009a61031b565b6040516100a791906105a4565b60405180910390f35b5f600254116100f4576040517f08c379a00000000000000000000000000000000000000000000000000000000081526004016100eb90610607565b60405180910390fd5b600254471015610139576040517f08c379a000000000000000000000000000000000000000000000000000000000815260040161013090610695565b60405180910390fd5b60015f9054906101000a900473ffffffffffffffffffffffffffffffffffffffff1673ffffffffffffffffffffffffffffffffffffffff166108fc60025490811502906040515f60405180830381858888f1935050505015801561019f573d5f803e3d5ffd5b507ffc30ec1bee3b4fb527f0d90b4bbbf5a24b72f0964679ff277df1895e8ad2395760036002546040516101d49291906107a3565b60405180910390a15f600281905550565b600380546101f2906106e0565b80601f016020809104026020016040519081016040528092919081815260200182805461021e906106e0565b80156102695780601f1061024057610100808354040283529160200191610269565b820191905f5260205f20905b81548152906001019060200180831161024c57829003601f168201915b505050505081565b60015f9054906101000a900473ffffffffffffffffffffffffffffffffffffffff1673ffffffffffffffffffffffffffffffffffffffff163373ffffffffffffffffffffffffffffffffffffffff1614610300576040517f08c379a00000000000000000000000000000000000000000000000000000000081526004016102f790610841565b60405180910390fd5b80600281905550816003908161031691906109ea565b505050565b60025481565b5f81519050919050565b5f82825260208201905092915050565b5f5b8381101561035857808201518184015260208101905061033d565b5f8484015250505050565b5f601f19601f8301169050919050565b5f61037d82610321565b610387818561032b565b935061039781856020860161033b565b6103a081610363565b840191505092915050565b5f6020820190508181035f8301526103c38184610373565b905092915050565b5f604051905090565b5f80fd5b5f80fd5b5f80fd5b5f80fd5b7f4e487b71000000000000000000000000000000000000000000000000000000005f52604160045260245ffd5b61041a82610363565b810181811067ffffffffffffffff82111715610439576104386103e4565b5b80604052505050565b5f61044b6103cb565b90506104578282610411565b919050565b5f67ffffffffffffffff821115610476576104756103e4565b5b61047f82610363565b9050602081019050919050565b828183375f83830152505050565b5f6104ac6104a78461045c565b610442565b9050828152602081018484840111156104c8576104c76103e0565b5b6104d384828561048c565b509392505050565b5f82601f8301126104ef576104ee6103dc565b5b81356104ff84826020860161049a565b91505092915050565b5f819050919050565b61051a81610508565b8114610524575f80fd5b50565b5f8135905061053581610511565b92915050565b5f8060408385031215610551576105506103d4565b5b5f83013567ffffffffffffffff81111561056e5761056d6103d8565b5b61057a858286016104db565b925050602061058b85828601610527565b9150509250929050565b61059e81610508565b82525050565b5f6020820190506105b75f830184610595565b92915050565b7f4e6f2070656e64696e67206c6f616e20616d6f756e7420746f2061737369676e5f82015250565b5f6105f160208361032b565b91506105fc826105bd565b602082019050919050565b5f6020820190508181035f83015261061e816105e5565b9050919050565b7f496e73756666696369656e742066756e647320696e2074686520636f6e7472615f8201527f6374000000000000000000000000000000000000000000000000000000000000602082015250565b5f61067f60228361032b565b915061068a82610625565b604082019050919050565b5f6020820190508181035f8301526106ac81610673565b9050919050565b7f4e487b71000000000000000000000000000000000000000000000000000000005f52602260045260245ffd5b5f60028204905060018216806106f757607f821691505b60208210810361070a576107096106b3565b5b50919050565b5f819050815f5260205f209050919050565b5f815461072e816106e0565b610738818661032b565b9450600182165f811461075257600181146107685761079a565b60ff19831686528115156020028601935061079a565b61077185610710565b5f5b8381101561079257815481890152600182019150602081019050610773565b808801955050505b50505092915050565b5f6040820190508181035f8301526107bb8185610722565b90506107ca6020830184610595565b9392505050565b7f4f6e6c79207468652064657369676e61746564207461726765742063616e20725f8201527f6571756573742061206c6f616e00000000000000000000000000000000000000602082015250565b5f61082b602d8361032b565b9150610836826107d1565b604082019050919050565b5f6020820190508181035f8301526108588161081f565b9050919050565b5f6020601f8301049050919050565b5f82821b905092915050565b5f600883026108a97fffffffffffffffffffffffffffffffffffffffffffffffffffffffffffffffff8261086e565b6108b3868361086e565b95508019841693508086168417925050509392505050565b5f819050919050565b5f6108ee6108e96108e484610508565b6108cb565b610508565b9050919050565b5f819050919050565b610907836108d4565b61091b610913826108f5565b84845461087a565b825550505050565b5f90565b61092f610923565b61093a8184846108fe565b505050565b5b8181101561095d576109525f82610927565b600181019050610940565b5050565b601f8211156109a25761097381610710565b61097c8461085f565b8101602085101561098b578190505b61099f6109978561085f565b83018261093f565b50505b505050565b5f82821c905092915050565b5f6109c25f19846008026109a7565b1980831691505092915050565b5f6109da83836109b3565b9150826002028217905092915050565b6109f382610321565b67ffffffffffffffff811115610a0c57610a0b6103e4565b5b610a1682546106e0565b610a21828285610961565b5f60209050601f831160018114610a52575f8415610a40578287015190505b610a4a85826109cf565b865550610ab1565b601f198416610a6086610710565b5f5b82811015610a8757848901518255600182019150602085019450602081019050610a62565b86831015610aa45784890151610aa0601f8916826109b3565b8355505b6001600288020188555050505b50505050505056fea2646970667358221220e765053c40388edb9ff87ce5f47fb0b0fb4d6558dd78aee5fd3e29590eebc5c964736f6c63430008150033",
  "immutableReferences": {},
  "source": "// SPDX-License-Identifier: MIT\r\npragma solidity ^0.8.0;\r\n\r\nimport \"@openzeppelin/contracts/access/Ownable.sol\";\r\n\r\ncontract Loan {\r\n\r\n    address payable private bankAccount;\r\n    address payable private target;\r\n\r\n    uint256 public pendingLoanAmount;\r\n    string public pendingLoanMortgage;\r\n\r\n    mapping(string => uint256) mortgageAmounts;\r\n\r\n    constructor(address payable _target) {\r\n\r\n        bankAccount = payable(0xC0a88521a8669e453c02D37cEed99dBb0a4dc508);\r\n        target = _target;\r\n    }\r\n\r\n    event Borrowed(string mortgage, uint256 amount);\r\n\r\n    function sendLoanRequest(string memory mortgage, uint256 amount) external {\r\n        require(msg.sender == target, \"Only the designated target can request a loan\");\r\n        pendingLoanAmount = amount;\r\n        pendingLoanMortgage = mortgage;\r\n    }\r\n\r\n    function assignLoanRequest() external {\r\n        require(pendingLoanAmount > 0, \"No pending loan amount to assign\");\r\n        require(address(this).balance >= pendingLoanAmount, \"Insufficient funds in the contract\");\r\n\r\n        target.transfer(pendingLoanAmount); //   target \r\n        \r\n        emit Borrowed(pendingLoanMortgage, pendingLoanAmount); //  \r\n\r\n        pendingLoanAmount = 0; //   \r\n    }\r\n\r\n}",
  "sourcePath": "C:\\Users\\SSAFY\\Desktop\\S10P31C203\\blockchain\\did-user\\contracts\\loan\\Loan.sol",
  "compiler": {
    "name": "solc",
    "version": "0.8.21+commit.d9974bed.Emscripten.clang"
  },
  "schemaVersion": "3.4.16",
  "updatedAt": "2024-05-10T06:01:48.772Z",
  "devdoc": {
    "kind": "dev",
    "methods": {},
    "version": 1
  },
  "userdoc": {
    "kind": "user",
    "methods": {},
    "version": 1
  }
}