{
  "contractName": "MinistryDIDRegistry",
  "abi": [
    {
      "inputs": [],
      "stateMutability": "nonpayable",
      "type": "constructor"
    },
    {
      "inputs": [
        {
          "internalType": "address",
          "name": "owner",
          "type": "address"
        }
      ],
      "name": "OwnableInvalidOwner",
      "type": "error"
    },
    {
      "inputs": [
        {
          "internalType": "address",
          "name": "account",
          "type": "address"
        }
      ],
      "name": "OwnableUnauthorizedAccount",
      "type": "error"
    },
    {
      "anonymous": false,
      "inputs": [
        {
          "indexed": false,
          "internalType": "string",
          "name": "did",
          "type": "string"
        }
      ],
      "name": "DIDCreated",
      "type": "event"
    },
    {
      "anonymous": false,
      "inputs": [
        {
          "indexed": false,
          "internalType": "string",
          "name": "did",
          "type": "string"
        }
      ],
      "name": "DIDDeleted",
      "type": "event"
    },
    {
      "anonymous": false,
      "inputs": [
        {
          "indexed": true,
          "internalType": "address",
          "name": "previousOwner",
          "type": "address"
        },
        {
          "indexed": true,
          "internalType": "address",
          "name": "newOwner",
          "type": "address"
        }
      ],
      "name": "OwnershipTransferred",
      "type": "event"
    },
    {
      "inputs": [],
      "name": "owner",
      "outputs": [
        {
          "internalType": "address",
          "name": "",
          "type": "address"
        }
      ],
      "stateMutability": "view",
      "type": "function"
    },
    {
      "inputs": [],
      "name": "renounceOwnership",
      "outputs": [],
      "stateMutability": "nonpayable",
      "type": "function"
    },
    {
      "inputs": [
        {
          "internalType": "address",
          "name": "newOwner",
          "type": "address"
        }
      ],
      "name": "transferOwnership",
      "outputs": [],
      "stateMutability": "nonpayable",
      "type": "function"
    },
    {
      "inputs": [
        {
          "components": [
            {
              "internalType": "string",
              "name": "context",
              "type": "string"
            },
            {
              "internalType": "string",
              "name": "id",
              "type": "string"
            },
            {
              "components": [
                {
                  "internalType": "string",
                  "name": "id",
                  "type": "string"
                },
                {
                  "internalType": "string",
                  "name": "keyType",
                  "type": "string"
                },
                {
                  "internalType": "string",
                  "name": "controller",
                  "type": "string"
                },
                {
                  "internalType": "string",
                  "name": "publicKeyData",
                  "type": "string"
                }
              ],
              "internalType": "struct DIDStructs.PublicKey[]",
              "name": "publicKey",
              "type": "tuple[]"
            },
            {
              "internalType": "string[]",
              "name": "authentication",
              "type": "string[]"
            },
            {
              "components": [
                {
                  "internalType": "string",
                  "name": "id",
                  "type": "string"
                },
                {
                  "internalType": "string",
                  "name": "serviceType",
                  "type": "string"
                },
                {
                  "internalType": "string",
                  "name": "serviceEndPoint",
                  "type": "string"
                }
              ],
              "internalType": "struct DIDStructs.Service[]",
              "name": "service",
              "type": "tuple[]"
            }
          ],
          "internalType": "struct DIDStructs.DIDDocument",
          "name": "_didDocument",
          "type": "tuple"
        }
      ],
      "name": "createDIDDocument",
      "outputs": [],
      "stateMutability": "nonpayable",
      "type": "function"
    },
    {
      "inputs": [
        {
          "internalType": "string",
          "name": "did",
          "type": "string"
        }
      ],
      "name": "getDIDDocument",
      "outputs": [
        {
          "components": [
            {
              "internalType": "string",
              "name": "context",
              "type": "string"
            },
            {
              "internalType": "string",
              "name": "id",
              "type": "string"
            },
            {
              "components": [
                {
                  "internalType": "string",
                  "name": "id",
                  "type": "string"
                },
                {
                  "internalType": "string",
                  "name": "keyType",
                  "type": "string"
                },
                {
                  "internalType": "string",
                  "name": "controller",
                  "type": "string"
                },
                {
                  "internalType": "string",
                  "name": "publicKeyData",
                  "type": "string"
                }
              ],
              "internalType": "struct DIDStructs.PublicKey[]",
              "name": "publicKey",
              "type": "tuple[]"
            },
            {
              "internalType": "string[]",
              "name": "authentication",
              "type": "string[]"
            },
            {
              "components": [
                {
                  "internalType": "string",
                  "name": "id",
                  "type": "string"
                },
                {
                  "internalType": "string",
                  "name": "serviceType",
                  "type": "string"
                },
                {
                  "internalType": "string",
                  "name": "serviceEndPoint",
                  "type": "string"
                }
              ],
              "internalType": "struct DIDStructs.Service[]",
              "name": "service",
              "type": "tuple[]"
            }
          ],
          "internalType": "struct DIDStructs.DIDDocument",
          "name": "",
          "type": "tuple"
        }
      ],
      "stateMutability": "view",
      "type": "function"
    },
    {
      "inputs": [
        {
          "internalType": "string",
          "name": "did",
          "type": "string"
        }
      ],
      "name": "deleteDIDDocument",
      "outputs": [],
      "stateMutability": "nonpayable",
      "type": "function"
    },
    {
      "inputs": [
        {
          "internalType": "string",
          "name": "did",
          "type": "string"
        }
      ],
      "name": "getTaxContractAddress",
      "outputs": [
        {
          "internalType": "address",
          "name": "",
          "type": "address"
        }
      ],
      "stateMutability": "view",
      "type": "function"
    }
  ],
  "bytecode": "0x608060405234801562000010575f80fd5b50335f73ffffffffffffffffffffffffffffffffffffffff168173ffffffffffffffffffffffffffffffffffffffff160362000085575f6040517f1e4fbdf70000000000000000000000000000000000000000000000000000000081526004016200007c9190620001a1565b60405180910390fd5b62000096816200009d60201b60201c565b50620001bc565b5f805f9054906101000a900473ffffffffffffffffffffffffffffffffffffffff169050815f806101000a81548173ffffffffffffffffffffffffffffffffffffffff021916908373ffffffffffffffffffffffffffffffffffffffff1602179055508173ffffffffffffffffffffffffffffffffffffffff168173ffffffffffffffffffffffffffffffffffffffff167f8be0079c531659141344cd1fd0a4f28419497f9722a3daafe3b4186f6b6457e060405160405180910390a35050565b5f73ffffffffffffffffffffffffffffffffffffffff82169050919050565b5f62000189826200015e565b9050919050565b6200019b816200017d565b82525050565b5f602082019050620001b65f83018462000190565b92915050565b6136d580620001ca5f395ff3fe608060405234801562000010575f80fd5b506004361062000086575f3560e01c8063a991067e1162000061578063a991067e14620000ee578063b9a463841462000124578063f2fde38b1462000144578063f4958cf714620001645762000086565b8063715018a6146200008a578063784afc4e14620000965780638da5cb5b14620000cc575b5f80fd5b6200009462000184565b005b620000b46004803603810190620000ae919062001557565b6200019b565b604051620000c3919062001a10565b60405180910390f35b620000d6620008c9565b604051620000e5919062001a75565b60405180910390f35b6200010c600480360381019062000106919062001557565b620008f0565b6040516200011b919062001a75565b60405180910390f35b6200014260048036038101906200013c919062001557565b6200093b565b005b6200016260048036038101906200015c919062001abf565b620009fd565b005b6200018260048036038101906200017c919062002211565b62000a88565b005b6200018e62001004565b620001995f62001094565b565b620001a56200115c565b60018383604051620001b992919062002292565b90815260200160405180910390206040518060a00160405290815f82018054620001e390620022d9565b80601f01602080910402602001604051908101604052809291908181526020018280546200021190620022d9565b8015620002605780601f10620002365761010080835404028352916020019162000260565b820191905f5260205f20905b8154815290600101906020018083116200024257829003601f168201915b505050505081526020016001820180546200027b90620022d9565b80601f0160208091040260200160405190810160405280929190818152602001828054620002a990620022d9565b8015620002f85780601f10620002ce57610100808354040283529160200191620002f8565b820191905f5260205f20905b815481529060010190602001808311620002da57829003601f168201915b5050505050815260200160028201805480602002602001604051908101604052809291908181526020015f905b82821015620005b6578382905f5260205f2090600402016040518060800160405290815f820180546200035890620022d9565b80601f01602080910402602001604051908101604052809291908181526020018280546200038690620022d9565b8015620003d55780601f10620003ab57610100808354040283529160200191620003d5565b820191905f5260205f20905b815481529060010190602001808311620003b757829003601f168201915b50505050508152602001600182018054620003f090620022d9565b80601f01602080910402602001604051908101604052809291908181526020018280546200041e90620022d9565b80156200046d5780601f1062000443576101008083540402835291602001916200046d565b820191905f5260205f20905b8154815290600101906020018083116200044f57829003601f168201915b505050505081526020016002820180546200048890620022d9565b80601f0160208091040260200160405190810160405280929190818152602001828054620004b690620022d9565b8015620005055780601f10620004db5761010080835404028352916020019162000505565b820191905f5260205f20905b815481529060010190602001808311620004e757829003601f168201915b505050505081526020016003820180546200052090620022d9565b80601f01602080910402602001604051908101604052809291908181526020018280546200054e90620022d9565b80156200059d5780601f1062000573576101008083540402835291602001916200059d565b820191905f5260205f20905b8154815290600101906020018083116200057f57829003601f168201915b5050505050815250508152602001906001019062000325565b50505050815260200160038201805480602002602001604051908101604052809291908181526020015f905b8282101562000694578382905f5260205f200180546200060290620022d9565b80601f01602080910402602001604051908101604052809291908181526020018280546200063090620022d9565b80156200067f5780601f1062000655576101008083540402835291602001916200067f565b820191905f5260205f20905b8154815290600101906020018083116200066157829003601f168201915b505050505081526020019060010190620005e2565b50505050815260200160048201805480602002602001604051908101604052809291908181526020015f905b82821015620008b9578382905f5260205f2090600302016040518060600160405290815f82018054620006f390620022d9565b80601f01602080910402602001604051908101604052809291908181526020018280546200072190620022d9565b8015620007705780601f10620007465761010080835404028352916020019162000770565b820191905f5260205f20905b8154815290600101906020018083116200075257829003601f168201915b505050505081526020016001820180546200078b90620022d9565b80601f0160208091040260200160405190810160405280929190818152602001828054620007b990620022d9565b8015620008085780601f10620007de5761010080835404028352916020019162000808565b820191905f5260205f20905b815481529060010190602001808311620007ea57829003601f168201915b505050505081526020016002820180546200082390620022d9565b80601f01602080910402602001604051908101604052809291908181526020018280546200085190620022d9565b8015620008a05780601f106200087657610100808354040283529160200191620008a0565b820191905f5260205f20905b8154815290600101906020018083116200088257829003601f168201915b50505050508152505081526020019060010190620006c0565b5050505081525050905092915050565b5f805f9054906101000a900473ffffffffffffffffffffffffffffffffffffffff16905090565b5f600283836040516200090592919062002292565b90815260200160405180910390205f9054906101000a900473ffffffffffffffffffffffffffffffffffffffff16905092915050565b6200094562001004565b600182826040516200095992919062002292565b90815260200160405180910390205f8082015f6200097891906200118b565b600182015f6200098991906200118b565b600282015f6200099a9190620011ce565b600382015f620009ab9190620011f1565b600482015f620009bc919062001211565b50507fb24f94d3ff75ed62d7237e14a510a969d70c1d4efdd4cce8ad563aa8ba60a64c8282604051620009f19291906200234f565b60405180910390a15050565b62000a0762001004565b5f73ffffffffffffffffffffffffffffffffffffffff168173ffffffffffffffffffffffffffffffffffffffff160362000a7a575f6040517f1e4fbdf700000000000000000000000000000000000000000000000000000000815260040162000a71919062001a75565b60405180910390fd5b62000a858162001094565b50565b62000a9262001004565b5f73__HexUtils______________________________6363e1cbea3373ffffffffffffffffffffffffffffffffffffffff1660146040518363ffffffff1660e01b815260040162000ae5929190620023d7565b5f60405180830381865af415801562000b00573d5f803e3d5ffd5b505050506040513d5f823e3d601f19601f8201168201806040525081019062000b2a91906200247e565b60405160200162000b3c919062002551565b60405160208183030381529060405290505f60018260405162000b60919062002576565b90815260200160405180910390209050825f0151815f01908162000b85919062002748565b505f3360405162000b969062001234565b62000ba2919062001a75565b604051809103905ff08015801562000bbc573d5f803e3d5ffd5b5090508060028360010160405162000bd59190620028b8565b90815260200160405180910390205f6101000a81548173ffffffffffffffffffffffffffffffffffffffff021916908373ffffffffffffffffffffffffffffffffffffffff1602179055505f5b84604001515181101562000e0157826002016040518060800160405280856001018860400151858151811062000c5d5762000c5c620028d0565b5b60200260200101515f015160405160200162000c7b929190620028fd565b60405160208183030381529060405281526020018760400151848151811062000ca95762000ca8620028d0565b5b60200260200101516020015181526020018760400151848151811062000cd45762000cd3620028d0565b5b60200260200101516040015181526020018760400151848151811062000cff5762000cfe620028d0565b5b602002602001015160600151815250908060018154018082558091505060019003905f5260205f2090600402015f909190919091505f820151815f01908162000d49919062002748565b50602082015181600101908162000d61919062002748565b50604082015181600201908162000d79919062002748565b50606082015181600301908162000d91919062002748565b505050826003018560600151828151811062000db25762000db1620028d0565b5b6020026020010151908060018154018082558091505060019003905f5260205f20015f90919091909150908162000dea919062002748565b50808062000df89062002951565b91505062000c22565b505f5b84608001515181101562000f23578260040160405180606001604052808760800151848151811062000e3b5762000e3a620028d0565b5b60200260200101515f015181526020018760800151848151811062000e655762000e64620028d0565b5b60200260200101516020015181526020018760800151848151811062000e905762000e8f620028d0565b5b602002602001015160400151815250908060018154018082558091505060019003905f5260205f2090600302015f909190919091505f820151815f01908162000eda919062002748565b50602082015181600101908162000ef2919062002748565b50604082015181600201908162000f0a919062002748565b505050808062000f1a9062002951565b91505062000e04565b508160018360010160405162000f3a9190620028b8565b90815260200160405180910390205f8201815f01908162000f5c9190620029b4565b506001820181600101908162000f739190620029b4565b50600282018160020190805462000f8c92919062001242565b50600382018160030190805462000fa5929190620012f5565b50600482018160040190805462000fbe92919062001355565b509050507f5fccafd09eeeb6a3dc1c80357ee982c00d7fb00a991274a9b96fe4fd7cb605528260010160405162000ff6919062002b3f565b60405180910390a150505050565b6200100e62001155565b73ffffffffffffffffffffffffffffffffffffffff166200102e620008c9565b73ffffffffffffffffffffffffffffffffffffffff161462001092576200105462001155565b6040517f118cdaa700000000000000000000000000000000000000000000000000000000815260040162001089919062001a75565b60405180910390fd5b565b5f805f9054906101000a900473ffffffffffffffffffffffffffffffffffffffff169050815f806101000a81548173ffffffffffffffffffffffffffffffffffffffff021916908373ffffffffffffffffffffffffffffffffffffffff1602179055508173ffffffffffffffffffffffffffffffffffffffff168173ffffffffffffffffffffffffffffffffffffffff167f8be0079c531659141344cd1fd0a4f28419497f9722a3daafe3b4186f6b6457e060405160405180910390a35050565b5f33905090565b6040518060a0016040528060608152602001606081526020016060815260200160608152602001606081525090565b5080546200119990620022d9565b5f825580601f10620011ac5750620011cb565b601f0160209004905f5260205f2090810190620011ca9190620013f1565b5b50565b5080545f8255600402905f5260205f2090810190620011ee91906200140e565b50565b5080545f8255905f5260205f20908101906200120e91906200146a565b50565b5080545f8255600302905f5260205f209081019062001231919062001491565b50565b610b3e8062002b6283390190565b828054828255905f5260205f20906004028101928215620012e2575f5260205f209160040282015b82811115620012e15782825f8201815f019081620012899190620029b4565b5060018201816001019081620012a09190620029b4565b5060028201816002019081620012b79190620029b4565b5060038201816003019081620012ce9190620029b4565b505050916004019190600401906200126a565b5b509050620012f191906200140e565b5090565b828054828255905f5260205f2090810192821562001342575f5260205f209182015b82811115620013415782829081620013309190620029b4565b509160010191906001019062001317565b5b5090506200135191906200146a565b5090565b828054828255905f5260205f20906003028101928215620013de575f5260205f209160030282015b82811115620013dd5782825f8201815f0190816200139c9190620029b4565b5060018201816001019081620013b39190620029b4565b5060028201816002019081620013ca9190620029b4565b505050916003019190600301906200137d565b5b509050620013ed919062001491565b5090565b5b808211156200140a575f815f905550600101620013f2565b5090565b5b8082111562001466575f8082015f6200142991906200118b565b600182015f6200143a91906200118b565b600282015f6200144b91906200118b565b600382015f6200145c91906200118b565b506004016200140f565b5090565b5b808211156200148d575f81816200148391906200118b565b506001016200146b565b5090565b5b80821115620014d8575f8082015f620014ac91906200118b565b600182015f620014bd91906200118b565b600282015f620014ce91906200118b565b5060030162001492565b5090565b5f604051905090565b5f80fd5b5f80fd5b5f80fd5b5f80fd5b5f80fd5b5f8083601f840112620015115762001510620014ed565b5b8235905067ffffffffffffffff811115620015315762001530620014f1565b5b60208301915083600182028301111562001550576200154f620014f5565b5b9250929050565b5f806020838503121562001570576200156f620014e5565b5b5f83013567ffffffffffffffff81111562001590576200158f620014e9565b5b6200159e85828601620014f9565b92509250509250929050565b5f81519050919050565b5f82825260208201905092915050565b5f5b83811015620015e3578082015181840152602081019050620015c6565b5f8484015250505050565b5f601f19601f8301169050919050565b5f6200160a82620015aa565b620016168185620015b4565b935062001628818560208601620015c4565b6200163381620015ee565b840191505092915050565b5f81519050919050565b5f82825260208201905092915050565b5f819050602082019050919050565b5f608083015f8301518482035f860152620016838282620015fe565b915050602083015184820360208601526200169f8282620015fe565b91505060408301518482036040860152620016bb8282620015fe565b91505060608301518482036060860152620016d78282620015fe565b9150508091505092915050565b5f620016f1838362001667565b905092915050565b5f602082019050919050565b5f62001711826200163e565b6200171d818562001648565b935083602082028501620017318562001658565b805f5b85811015620017725784840389528151620017508582620016e4565b94506200175d83620016f9565b925060208a0199505060018101905062001734565b50829750879550505050505092915050565b5f81519050919050565b5f82825260208201905092915050565b5f819050602082019050919050565b5f620017ba8383620015fe565b905092915050565b5f602082019050919050565b5f620017da8262001784565b620017e681856200178e565b935083602082028501620017fa856200179e565b805f5b858110156200183b5784840389528151620018198582620017ad565b94506200182683620017c2565b925060208a01995050600181019050620017fd565b50829750879550505050505092915050565b5f81519050919050565b5f82825260208201905092915050565b5f819050602082019050919050565b5f606083015f8301518482035f860152620018928282620015fe565b91505060208301518482036020860152620018ae8282620015fe565b91505060408301518482036040860152620018ca8282620015fe565b9150508091505092915050565b5f620018e4838362001876565b905092915050565b5f602082019050919050565b5f62001904826200184d565b62001910818562001857565b935083602082028501620019248562001867565b805f5b85811015620019655784840389528151620019438582620018d7565b94506200195083620018ec565b925060208a0199505060018101905062001927565b50829750879550505050505092915050565b5f60a083015f8301518482035f860152620019938282620015fe565b91505060208301518482036020860152620019af8282620015fe565b91505060408301518482036040860152620019cb828262001705565b91505060608301518482036060860152620019e78282620017ce565b9150506080830151848203608086015262001a038282620018f8565b9150508091505092915050565b5f6020820190508181035f83015262001a2a818462001977565b905092915050565b5f73ffffffffffffffffffffffffffffffffffffffff82169050919050565b5f62001a5d8262001a32565b9050919050565b62001a6f8162001a51565b82525050565b5f60208201905062001a8a5f83018462001a64565b92915050565b62001a9b8162001a51565b811462001aa6575f80fd5b50565b5f8135905062001ab98162001a90565b92915050565b5f6020828403121562001ad75762001ad6620014e5565b5b5f62001ae68482850162001aa9565b91505092915050565b5f80fd5b7f4e487b71000000000000000000000000000000000000000000000000000000005f52604160045260245ffd5b62001b2b82620015ee565b810181811067ffffffffffffffff8211171562001b4d5762001b4c62001af3565b5b80604052505050565b5f62001b61620014dc565b905062001b6f828262001b20565b919050565b5f80fd5b5f80fd5b5f67ffffffffffffffff82111562001b995762001b9862001af3565b5b62001ba482620015ee565b9050602081019050919050565b828183375f83830152505050565b5f62001bd562001bcf8462001b7c565b62001b56565b90508281526020810184848401111562001bf45762001bf362001b78565b5b62001c0184828562001bb1565b509392505050565b5f82601f83011262001c205762001c1f620014ed565b5b813562001c3284826020860162001bbf565b91505092915050565b5f67ffffffffffffffff82111562001c585762001c5762001af3565b5b602082029050602081019050919050565b5f6080828403121562001c815762001c8062001aef565b5b62001c8d608062001b56565b90505f82013567ffffffffffffffff81111562001caf5762001cae62001b74565b5b62001cbd8482850162001c09565b5f83015250602082013567ffffffffffffffff81111562001ce35762001ce262001b74565b5b62001cf18482850162001c09565b602083015250604082013567ffffffffffffffff81111562001d185762001d1762001b74565b5b62001d268482850162001c09565b604083015250606082013567ffffffffffffffff81111562001d4d5762001d4c62001b74565b5b62001d5b8482850162001c09565b60608301525092915050565b5f62001d7d62001d778462001c3b565b62001b56565b9050808382526020820190506020840283018581111562001da35762001da2620014f5565b5b835b8181101562001df157803567ffffffffffffffff81111562001dcc5762001dcb620014ed565b5b80860162001ddb898262001c69565b8552602085019450505060208101905062001da5565b5050509392505050565b5f82601f83011262001e125762001e11620014ed565b5b813562001e2484826020860162001d67565b91505092915050565b5f67ffffffffffffffff82111562001e4a5762001e4962001af3565b5b602082029050602081019050919050565b5f62001e7162001e6b8462001e2d565b62001b56565b9050808382526020820190506020840283018581111562001e975762001e96620014f5565b5b835b8181101562001ee557803567ffffffffffffffff81111562001ec05762001ebf620014ed565b5b80860162001ecf898262001c09565b8552602085019450505060208101905062001e99565b5050509392505050565b5f82601f83011262001f065762001f05620014ed565b5b813562001f1884826020860162001e5b565b91505092915050565b5f67ffffffffffffffff82111562001f3e5762001f3d62001af3565b5b602082029050602081019050919050565b5f6060828403121562001f675762001f6662001aef565b5b62001f73606062001b56565b90505f82013567ffffffffffffffff81111562001f955762001f9462001b74565b5b62001fa38482850162001c09565b5f83015250602082013567ffffffffffffffff81111562001fc95762001fc862001b74565b5b62001fd78482850162001c09565b602083015250604082013567ffffffffffffffff81111562001ffe5762001ffd62001b74565b5b6200200c8482850162001c09565b60408301525092915050565b5f6200202e620020288462001f21565b62001b56565b90508083825260208201905060208402830185811115620020545762002053620014f5565b5b835b81811015620020a257803567ffffffffffffffff8111156200207d576200207c620014ed565b5b8086016200208c898262001f4f565b8552602085019450505060208101905062002056565b5050509392505050565b5f82601f830112620020c357620020c2620014ed565b5b8135620020d584826020860162002018565b91505092915050565b5f60a08284031215620020f657620020f562001aef565b5b6200210260a062001b56565b90505f82013567ffffffffffffffff81111562002124576200212362001b74565b5b620021328482850162001c09565b5f83015250602082013567ffffffffffffffff81111562002158576200215762001b74565b5b620021668482850162001c09565b602083015250604082013567ffffffffffffffff8111156200218d576200218c62001b74565b5b6200219b8482850162001dfb565b604083015250606082013567ffffffffffffffff811115620021c257620021c162001b74565b5b620021d08482850162001eef565b606083015250608082013567ffffffffffffffff811115620021f757620021f662001b74565b5b6200220584828501620020ac565b60808301525092915050565b5f60208284031215620022295762002228620014e5565b5b5f82013567ffffffffffffffff811115620022495762002248620014e9565b5b6200225784828501620020de565b91505092915050565b5f81905092915050565b5f62002277838562002260565b93506200228683858462001bb1565b82840190509392505050565b5f620022a08284866200226a565b91508190509392505050565b7f4e487b71000000000000000000000000000000000000000000000000000000005f52602260045260245ffd5b5f6002820490506001821680620022f157607f821691505b602082108103620023075762002306620022ac565b5b50919050565b5f82825260208201905092915050565b5f6200232a83856200230d565b93506200233983858462001bb1565b6200234483620015ee565b840190509392505050565b5f6020820190508181035f8301526200236a8184866200231d565b90509392505050565b5f819050919050565b620023878162002373565b82525050565b5f819050919050565b5f819050919050565b5f620023bf620023b9620023b3846200238d565b62002396565b62002373565b9050919050565b620023d1816200239f565b82525050565b5f604082019050620023ec5f8301856200237c565b620023fb6020830184620023c6565b9392505050565b5f62002418620024128462001b7c565b62001b56565b90508281526020810184848401111562002437576200243662001b78565b5b62002444848285620015c4565b509392505050565b5f82601f830112620024635762002462620014ed565b5b81516200247584826020860162002402565b91505092915050565b5f60208284031215620024965762002495620014e5565b5b5f82015167ffffffffffffffff811115620024b657620024b5620014e9565b5b620024c4848285016200244c565b91505092915050565b7f6469643a6b6c61793a00000000000000000000000000000000000000000000005f82015250565b5f6200250360098362002260565b91506200251082620024cd565b600982019050919050565b5f6200252782620015aa565b62002533818562002260565b935062002545818560208601620015c4565b80840191505092915050565b5f6200255d82620024f5565b91506200256b82846200251b565b915081905092915050565b5f6200258382846200251b565b915081905092915050565b5f819050815f5260205f209050919050565b5f6020601f8301049050919050565b5f82821b905092915050565b5f60088302620025ec7fffffffffffffffffffffffffffffffffffffffffffffffffffffffffffffffff82620025af565b620025f88683620025af565b95508019841693508086168417925050509392505050565b5f620026306200262a620026248462002373565b62002396565b62002373565b9050919050565b5f819050919050565b6200264b8362002610565b620026636200265a8262002637565b848454620025bb565b825550505050565b5f90565b620026796200266b565b6200268681848462002640565b505050565b5b81811015620026ad57620026a15f826200266f565b6001810190506200268c565b5050565b601f821115620026fc57620026c6816200258e565b620026d184620025a0565b81016020851015620026e1578190505b620026f9620026f085620025a0565b8301826200268b565b50505b505050565b5f82821c905092915050565b5f6200271e5f198460080262002701565b1980831691505092915050565b5f6200273883836200270d565b9150826002028217905092915050565b6200275382620015aa565b67ffffffffffffffff8111156200276f576200276e62001af3565b5b6200277b8254620022d9565b62002788828285620026b1565b5f60209050601f831160018114620027be575f8415620027a9578287015190505b620027b585826200272b565b86555062002824565b601f198416620027ce866200258e565b5f5b82811015620027f757848901518255600182019150602085019450602081019050620027d0565b8683101562002817578489015162002813601f8916826200270d565b8355505b6001600288020188555050505b505050505050565b5f81546200283a81620022d9565b62002846818662002260565b9450600182165f81146200286357600181146200287957620028af565b60ff1983168652811515820286019350620028af565b62002884856200258e565b5f5b83811015620028a75781548189015260018201915060208101905062002886565b838801955050505b50505092915050565b5f620028c582846200282c565b915081905092915050565b7f4e487b71000000000000000000000000000000000000000000000000000000005f52603260045260245ffd5b5f6200290a82856200282c565b91506200291882846200251b565b91508190509392505050565b7f4e487b71000000000000000000000000000000000000000000000000000000005f52601160045260245ffd5b5f6200295d8262002373565b91507fffffffffffffffffffffffffffffffffffffffffffffffffffffffffffffffff820362002992576200299162002924565b5b600182019050919050565b5f81549050620029ad81620022d9565b9050919050565b818103620029c457505062002ab0565b620029cf826200299d565b67ffffffffffffffff811115620029eb57620029ea62001af3565b5b620029f78254620022d9565b62002a04828285620026b1565b5f601f83116001811462002a36575f841562002a21578287015490505b62002a2d85826200272b565b86555062002aa9565b601f19841662002a46876200258e565b965062002a53866200258e565b5f5b8281101562002a7c5784890154825560018201915060018501945060208101905062002a55565b8683101562002a9c578489015462002a98601f8916826200270d565b8355505b6001600288020188555050505b5050505050505b565b5f815462002ac081620022d9565b62002acc81866200230d565b9450600182165f811462002ae9576001811462002b005762002b36565b60ff19831686528115156020028601935062002b36565b62002b0b856200258e565b5f5b8381101562002b2e5781548189015260018201915060208101905062002b0d565b808801955050505b50505092915050565b5f6020820190508181035f83015262002b59818462002ab2565b90509291505056fe608060405234801561000f575f80fd5b50604051610b3e380380610b3e8339818101604052810190610031919061022b565b805f73ffffffffffffffffffffffffffffffffffffffff168173ffffffffffffffffffffffffffffffffffffffff16036100a2575f6040517f1e4fbdf70000000000000000000000000000000000000000000000000000000081526004016100999190610265565b60405180910390fd5b6100b18161010c60201b60201c565b5073cd48b32650621694240fafb2d467cdb52fd9579560015f6101000a81548173ffffffffffffffffffffffffffffffffffffffff021916908373ffffffffffffffffffffffffffffffffffffffff1602179055505061027e565b5f805f9054906101000a900473ffffffffffffffffffffffffffffffffffffffff169050815f806101000a81548173ffffffffffffffffffffffffffffffffffffffff021916908373ffffffffffffffffffffffffffffffffffffffff1602179055508173ffffffffffffffffffffffffffffffffffffffff168173ffffffffffffffffffffffffffffffffffffffff167f8be0079c531659141344cd1fd0a4f28419497f9722a3daafe3b4186f6b6457e060405160405180910390a35050565b5f80fd5b5f73ffffffffffffffffffffffffffffffffffffffff82169050919050565b5f6101fa826101d1565b9050919050565b61020a816101f0565b8114610214575f80fd5b50565b5f8151905061022581610201565b92915050565b5f602082840312156102405761023f6101cd565b5b5f61024d84828501610217565b91505092915050565b61025f816101f0565b82525050565b5f6020820190506102785f830184610256565b92915050565b6108b38061028b5f395ff3fe608060405260043610610054575f3560e01c8063376791a114610058578063715018a6146100805780638da5cb5b14610096578063d267732f146100c0578063db72c6b8146100ca578063f2fde38b146100d4575b5f80fd5b348015610063575f80fd5b5061007e6004803603810190610079919061064c565b6100fc565b005b34801561008b575f80fd5b50610094610147565b005b3480156100a1575f80fd5b506100aa61015a565b6040516100b79190610697565b60405180910390f35b6100c8610181565b005b6100d26102ce565b005b3480156100df575f80fd5b506100fa60048036038101906100f591906106da565b61041b565b005b61010461049f565b8060015f6101000a81548173ffffffffffffffffffffffffffffffffffffffff021916908373ffffffffffffffffffffffffffffffffffffffff16021790555050565b61014f61049f565b6101585f610526565b565b5f805f9054906101000a900473ffffffffffffffffffffffffffffffffffffffff16905090565b61018961049f565b5f34116101cb576040517f08c379a00000000000000000000000000000000000000000000000000000000081526004016101c29061075f565b60405180910390fd5b5f60015f9054906101000a900473ffffffffffffffffffffffffffffffffffffffff1673ffffffffffffffffffffffffffffffffffffffff1634604051610211906107aa565b5f6040518083038185875af1925050503d805f811461024b576040519150601f19603f3d011682016040523d82523d5f602084013e610250565b606091505b5050905080610294576040517f08c379a000000000000000000000000000000000000000000000000000000000815260040161028b9061082e565b60405180910390fd5b7fd0572805d790e0d28bb993c858da272484755e34742342d9ad07203e04d896dc346040516102c39190610864565b60405180910390a150565b6102d661049f565b5f3411610318576040517f08c379a000000000000000000000000000000000000000000000000000000000815260040161030f9061075f565b60405180910390fd5b5f60015f9054906101000a900473ffffffffffffffffffffffffffffffffffffffff1673ffffffffffffffffffffffffffffffffffffffff163460405161035e906107aa565b5f6040518083038185875af1925050503d805f8114610398576040519150601f19603f3d011682016040523d82523d5f602084013e61039d565b606091505b50509050806103e1576040517f08c379a00000000000000000000000000000000000000000000000000000000081526004016103d89061082e565b60405180910390fd5b7f932aea04ae675778c045416b67dc8d486ffde60351e811a0a208a5888891f1b5346040516104109190610864565b60405180910390a150565b61042361049f565b5f73ffffffffffffffffffffffffffffffffffffffff168173ffffffffffffffffffffffffffffffffffffffff1603610493575f6040517f1e4fbdf700000000000000000000000000000000000000000000000000000000815260040161048a9190610697565b60405180910390fd5b61049c81610526565b50565b6104a76105e7565b73ffffffffffffffffffffffffffffffffffffffff166104c561015a565b73ffffffffffffffffffffffffffffffffffffffff1614610524576104e86105e7565b6040517f118cdaa700000000000000000000000000000000000000000000000000000000815260040161051b9190610697565b60405180910390fd5b565b5f805f9054906101000a900473ffffffffffffffffffffffffffffffffffffffff169050815f806101000a81548173ffffffffffffffffffffffffffffffffffffffff021916908373ffffffffffffffffffffffffffffffffffffffff1602179055508173ffffffffffffffffffffffffffffffffffffffff168173ffffffffffffffffffffffffffffffffffffffff167f8be0079c531659141344cd1fd0a4f28419497f9722a3daafe3b4186f6b6457e060405160405180910390a35050565b5f33905090565b5f80fd5b5f73ffffffffffffffffffffffffffffffffffffffff82169050919050565b5f61061b826105f2565b9050919050565b61062b81610611565b8114610635575f80fd5b50565b5f8135905061064681610622565b92915050565b5f60208284031215610661576106606105ee565b5b5f61066e84828501610638565b91505092915050565b5f610681826105f2565b9050919050565b61069181610677565b82525050565b5f6020820190506106aa5f830184610688565b92915050565b6106b981610677565b81146106c3575f80fd5b50565b5f813590506106d4816106b0565b92915050565b5f602082840312156106ef576106ee6105ee565b5b5f6106fc848285016106c6565b91505092915050565b5f82825260208201905092915050565b7f596f75206e65656420746f2073656e6420736f6d65204b4c41590000000000005f82015250565b5f610749601a83610705565b915061075482610715565b602082019050919050565b5f6020820190508181035f8301526107768161073d565b9050919050565b5f81905092915050565b50565b5f6107955f8361077d565b91506107a082610787565b5f82019050919050565b5f6107b48261078a565b9150819050919050565b7f4661696c656420746f2073656e64204b4c415920746f207468652074617820615f8201527f63636f756e740000000000000000000000000000000000000000000000000000602082015250565b5f610818602683610705565b9150610823826107be565b604082019050919050565b5f6020820190508181035f8301526108458161080c565b9050919050565b5f819050919050565b61085e8161084c565b82525050565b5f6020820190506108775f830184610855565b9291505056fea26469706673582212205cdd2ff6a840c824e0c1b587ce530954c151ea77c2755cdf6413f131fe064a1364736f6c63430008150033a26469706673582212208da935a7338940ff3c16b7304c9074b144b4623100d8a7337d141b61cd1fc1ad64736f6c63430008150033",
  "immutableReferences": {},
  "source": "// SPDX-License-Identifier: MIT\r\npragma solidity ^0.8.0;\r\n\r\nimport \"@openzeppelin/contracts/access/Ownable.sol\";\r\nimport \"../structs/DIDStructs.sol\";\r\nimport \"../utils/HexUtils.sol\";\r\nimport \"../tax/TaxPayment.sol\";\r\n\r\ncontract MinistryDIDRegistry is Ownable {\r\n\r\n    mapping(string => DIDStructs.DIDDocument) didDocuments;\r\n\r\n    mapping(string => address) taxAddresses;\r\n\r\n    constructor() Ownable(msg.sender) {}\r\n\r\n    event DIDCreated(string did);\r\n    event DIDDeleted(string did);\r\n\r\n    function createDIDDocument(DIDStructs.DIDDocument memory _didDocument) external onlyOwner {\r\n        // DIDStructs.DIDDocument memory didDocument;\r\n\r\n        string memory did = string(abi.encodePacked(\"did:klay:\", HexUtils.toHexString(uint256(uint160(msg.sender)), 20)));\r\n        DIDStructs.DIDDocument storage didDocument = didDocuments[did];\r\n        \r\n        didDocument.context = _didDocument.context;\r\n\r\n        address taxAddress = address(new TaxPayment(msg.sender));\r\n        taxAddresses[didDocument.id] = taxAddress;\r\n\r\n        for (uint i = 0; i < _didDocument.publicKey.length; i++) {\r\n            // publicKeys[i].id = string(abi.encodePacked(didDocument.id, _didDocument.publicKey[i].id)); // DID + fragment \r\n            // publicKeys[i].keyType = _didDocument.publicKey[i].keyType;\r\n            // publicKeys[i].controller = _didDocument.publicKey[i].controller;\r\n            // publicKeys[i].publicKeyData = _didDocument.publicKey[i].publicKeyData;\r\n\r\n            didDocument.publicKey.push(DIDStructs.PublicKey({\r\n                id: string(abi.encodePacked(didDocument.id, _didDocument.publicKey[i].id)),\r\n                keyType: _didDocument.publicKey[i].keyType,\r\n                controller: _didDocument.publicKey[i].controller,\r\n                publicKeyData: _didDocument.publicKey[i].publicKeyData\r\n            }));\r\n\r\n            //   key auth \r\n            didDocument.authentication.push(_didDocument.authentication[i]);\r\n        }\r\n\r\n        for (uint i = 0; i < _didDocument.service.length; i++) {\r\n            // services[i].id = _didDocument.service[i].id;\r\n            // services[i].serviceType = _didDocument.service[i].serviceType;\r\n            // services[i].serviceEndPoint = _didDocument.service[i].serviceEndPoint;\r\n\r\n            didDocument.service.push(DIDStructs.Service({\r\n                id: _didDocument.service[i].id,\r\n                serviceType: _didDocument.service[i].serviceType,\r\n                serviceEndPoint: _didDocument.service[i].serviceEndPoint\r\n            }));\r\n        }\r\n\r\n        didDocuments[didDocument.id] = didDocument;\r\n\r\n        emit DIDCreated(didDocument.id);\r\n    }\r\n\r\n    function getDIDDocument(string calldata did) external view returns (DIDStructs.DIDDocument memory) {\r\n        return didDocuments[did];\r\n    }\r\n\r\n    function deleteDIDDocument(string calldata did) external onlyOwner {\r\n        delete didDocuments[did];\r\n        emit DIDDeleted(did);\r\n    }\r\n    \r\n    function getTaxContractAddress(string calldata did) external view returns (address) {\r\n        return taxAddresses[did];\r\n    }\r\n\r\n}\r\n",
  "sourcePath": "C:\\SSAFY\\S10P31C203\\blockchain\\did-user\\contracts\\ministryDID\\UserDIDRegistry.sol",
  "compiler": {
    "name": "solc",
    "version": "0.8.21+commit.d9974bed.Emscripten.clang"
  },
  "schemaVersion": "3.4.16",
  "updatedAt": "2024-05-07T05:48:14.093Z",
  "devdoc": {
    "errors": {
      "OwnableInvalidOwner(address)": [
        {
          "details": "The owner is not a valid owner account. (eg. `address(0)`)"
        }
      ],
      "OwnableUnauthorizedAccount(address)": [
        {
          "details": "The caller account is not authorized to perform an operation."
        }
      ]
    },
    "kind": "dev",
    "methods": {
      "owner()": {
        "details": "Returns the address of the current owner."
      },
      "renounceOwnership()": {
        "details": "Leaves the contract without owner. It will not be possible to call `onlyOwner` functions. Can only be called by the current owner. NOTE: Renouncing ownership will leave the contract without an owner, thereby disabling any functionality that is only available to the owner."
      },
      "transferOwnership(address)": {
        "details": "Transfers ownership of the contract to a new account (`newOwner`). Can only be called by the current owner."
      }
    },
    "version": 1
  },
  "userdoc": {
    "kind": "user",
    "methods": {},
    "version": 1
  }
}