{
  "contractName": "UserDIDRegistry",
  "abi": [
    {
      "inputs": [],
      "stateMutability": "nonpayable",
      "type": "constructor"
    },
    {
      "inputs": [
        {
          "internalType": "address",
          "name": "owner",
          "type": "address"
        }
      ],
      "name": "OwnableInvalidOwner",
      "type": "error"
    },
    {
      "inputs": [
        {
          "internalType": "address",
          "name": "account",
          "type": "address"
        }
      ],
      "name": "OwnableUnauthorizedAccount",
      "type": "error"
    },
    {
      "anonymous": false,
      "inputs": [
        {
          "indexed": false,
          "internalType": "string",
          "name": "did",
          "type": "string"
        }
      ],
      "name": "DIDCreated",
      "type": "event"
    },
    {
      "anonymous": false,
      "inputs": [
        {
          "indexed": false,
          "internalType": "string",
          "name": "did",
          "type": "string"
        }
      ],
      "name": "DIDDeleted",
      "type": "event"
    },
    {
      "anonymous": false,
      "inputs": [
        {
          "indexed": true,
          "internalType": "address",
          "name": "previousOwner",
          "type": "address"
        },
        {
          "indexed": true,
          "internalType": "address",
          "name": "newOwner",
          "type": "address"
        }
      ],
      "name": "OwnershipTransferred",
      "type": "event"
    },
    {
      "inputs": [],
      "name": "owner",
      "outputs": [
        {
          "internalType": "address",
          "name": "",
          "type": "address"
        }
      ],
      "stateMutability": "view",
      "type": "function"
    },
    {
      "inputs": [],
      "name": "renounceOwnership",
      "outputs": [],
      "stateMutability": "nonpayable",
      "type": "function"
    },
    {
      "inputs": [
        {
          "internalType": "address",
          "name": "newOwner",
          "type": "address"
        }
      ],
      "name": "transferOwnership",
      "outputs": [],
      "stateMutability": "nonpayable",
      "type": "function"
    },
    {
      "inputs": [
        {
          "components": [
            {
              "internalType": "string",
              "name": "context",
              "type": "string"
            },
            {
              "internalType": "string",
              "name": "id",
              "type": "string"
            },
            {
              "components": [
                {
                  "internalType": "string",
                  "name": "id",
                  "type": "string"
                },
                {
                  "internalType": "string",
                  "name": "keyType",
                  "type": "string"
                },
                {
                  "internalType": "string",
                  "name": "controller",
                  "type": "string"
                },
                {
                  "internalType": "string",
                  "name": "publicKeyData",
                  "type": "string"
                }
              ],
              "internalType": "struct DIDStruct.PublicKey[]",
              "name": "publicKey",
              "type": "tuple[]"
            },
            {
              "internalType": "string[]",
              "name": "authentication",
              "type": "string[]"
            },
            {
              "components": [
                {
                  "internalType": "string",
                  "name": "id",
                  "type": "string"
                },
                {
                  "internalType": "string",
                  "name": "serviceType",
                  "type": "string"
                },
                {
                  "internalType": "string",
                  "name": "serviceEndPoint",
                  "type": "string"
                }
              ],
              "internalType": "struct DIDStruct.Service[]",
              "name": "service",
              "type": "tuple[]"
            }
          ],
          "internalType": "struct DIDStruct.DIDDocument",
          "name": "_didDocument",
          "type": "tuple"
        }
      ],
      "name": "createDIDDocument",
      "outputs": [],
      "stateMutability": "nonpayable",
      "type": "function"
    },
    {
      "inputs": [
        {
          "internalType": "string",
          "name": "did",
          "type": "string"
        }
      ],
      "name": "getDIDDocument",
      "outputs": [
        {
          "components": [
            {
              "internalType": "string",
              "name": "context",
              "type": "string"
            },
            {
              "internalType": "string",
              "name": "id",
              "type": "string"
            },
            {
              "components": [
                {
                  "internalType": "string",
                  "name": "id",
                  "type": "string"
                },
                {
                  "internalType": "string",
                  "name": "keyType",
                  "type": "string"
                },
                {
                  "internalType": "string",
                  "name": "controller",
                  "type": "string"
                },
                {
                  "internalType": "string",
                  "name": "publicKeyData",
                  "type": "string"
                }
              ],
              "internalType": "struct DIDStruct.PublicKey[]",
              "name": "publicKey",
              "type": "tuple[]"
            },
            {
              "internalType": "string[]",
              "name": "authentication",
              "type": "string[]"
            },
            {
              "components": [
                {
                  "internalType": "string",
                  "name": "id",
                  "type": "string"
                },
                {
                  "internalType": "string",
                  "name": "serviceType",
                  "type": "string"
                },
                {
                  "internalType": "string",
                  "name": "serviceEndPoint",
                  "type": "string"
                }
              ],
              "internalType": "struct DIDStruct.Service[]",
              "name": "service",
              "type": "tuple[]"
            }
          ],
          "internalType": "struct DIDStruct.DIDDocument",
          "name": "",
          "type": "tuple"
        }
      ],
      "stateMutability": "view",
      "type": "function"
    },
    {
      "inputs": [
        {
          "internalType": "string",
          "name": "did",
          "type": "string"
        }
      ],
      "name": "deleteDIDDocument",
      "outputs": [],
      "stateMutability": "nonpayable",
      "type": "function"
    },
    {
      "inputs": [
        {
          "internalType": "string",
          "name": "did",
          "type": "string"
        }
      ],
      "name": "getTaxContractAddress",
      "outputs": [
        {
          "internalType": "address",
          "name": "",
          "type": "address"
        }
      ],
      "stateMutability": "view",
      "type": "function"
    }
  ],
  "bytecode": "0x608060405234801562000010575f80fd5b50335f73ffffffffffffffffffffffffffffffffffffffff168173ffffffffffffffffffffffffffffffffffffffff160362000085575f6040517f1e4fbdf70000000000000000000000000000000000000000000000000000000081526004016200007c9190620001a1565b60405180910390fd5b62000096816200009d60201b60201c565b50620001bc565b5f805f9054906101000a900473ffffffffffffffffffffffffffffffffffffffff169050815f806101000a81548173ffffffffffffffffffffffffffffffffffffffff021916908373ffffffffffffffffffffffffffffffffffffffff1602179055508173ffffffffffffffffffffffffffffffffffffffff168173ffffffffffffffffffffffffffffffffffffffff167f8be0079c531659141344cd1fd0a4f28419497f9722a3daafe3b4186f6b6457e060405160405180910390a35050565b5f73ffffffffffffffffffffffffffffffffffffffff82169050919050565b5f62000189826200015e565b9050919050565b6200019b816200017d565b82525050565b5f602082019050620001b65f83018462000190565b92915050565b6136e980620001ca5f395ff3fe608060405234801562000010575f80fd5b506004361062000086575f3560e01c8063a991067e1162000061578063a991067e14620000ee578063b9a463841462000124578063f2fde38b1462000144578063f4958cf714620001645762000086565b8063715018a6146200008a578063784afc4e14620000965780638da5cb5b14620000cc575b5f80fd5b6200009462000184565b005b620000b46004803603810190620000ae91906200156b565b6200019b565b604051620000c3919062001a24565b60405180910390f35b620000d6620008c9565b604051620000e5919062001a89565b60405180910390f35b6200010c60048036038101906200010691906200156b565b620008f0565b6040516200011b919062001a89565b60405180910390f35b6200014260048036038101906200013c91906200156b565b6200093b565b005b6200016260048036038101906200015c919062001ad3565b620009fd565b005b6200018260048036038101906200017c919062002225565b62000a88565b005b6200018e62001018565b620001995f620010a8565b565b620001a562001170565b60018383604051620001b9929190620022a6565b90815260200160405180910390206040518060a00160405290815f82018054620001e390620022ed565b80601f01602080910402602001604051908101604052809291908181526020018280546200021190620022ed565b8015620002605780601f10620002365761010080835404028352916020019162000260565b820191905f5260205f20905b8154815290600101906020018083116200024257829003601f168201915b505050505081526020016001820180546200027b90620022ed565b80601f0160208091040260200160405190810160405280929190818152602001828054620002a990620022ed565b8015620002f85780601f10620002ce57610100808354040283529160200191620002f8565b820191905f5260205f20905b815481529060010190602001808311620002da57829003601f168201915b5050505050815260200160028201805480602002602001604051908101604052809291908181526020015f905b82821015620005b6578382905f5260205f2090600402016040518060800160405290815f820180546200035890620022ed565b80601f01602080910402602001604051908101604052809291908181526020018280546200038690620022ed565b8015620003d55780601f10620003ab57610100808354040283529160200191620003d5565b820191905f5260205f20905b815481529060010190602001808311620003b757829003601f168201915b50505050508152602001600182018054620003f090620022ed565b80601f01602080910402602001604051908101604052809291908181526020018280546200041e90620022ed565b80156200046d5780601f1062000443576101008083540402835291602001916200046d565b820191905f5260205f20905b8154815290600101906020018083116200044f57829003601f168201915b505050505081526020016002820180546200048890620022ed565b80601f0160208091040260200160405190810160405280929190818152602001828054620004b690620022ed565b8015620005055780601f10620004db5761010080835404028352916020019162000505565b820191905f5260205f20905b815481529060010190602001808311620004e757829003601f168201915b505050505081526020016003820180546200052090620022ed565b80601f01602080910402602001604051908101604052809291908181526020018280546200054e90620022ed565b80156200059d5780601f1062000573576101008083540402835291602001916200059d565b820191905f5260205f20905b8154815290600101906020018083116200057f57829003601f168201915b5050505050815250508152602001906001019062000325565b50505050815260200160038201805480602002602001604051908101604052809291908181526020015f905b8282101562000694578382905f5260205f200180546200060290620022ed565b80601f01602080910402602001604051908101604052809291908181526020018280546200063090620022ed565b80156200067f5780601f1062000655576101008083540402835291602001916200067f565b820191905f5260205f20905b8154815290600101906020018083116200066157829003601f168201915b505050505081526020019060010190620005e2565b50505050815260200160048201805480602002602001604051908101604052809291908181526020015f905b82821015620008b9578382905f5260205f2090600302016040518060600160405290815f82018054620006f390620022ed565b80601f01602080910402602001604051908101604052809291908181526020018280546200072190620022ed565b8015620007705780601f10620007465761010080835404028352916020019162000770565b820191905f5260205f20905b8154815290600101906020018083116200075257829003601f168201915b505050505081526020016001820180546200078b90620022ed565b80601f0160208091040260200160405190810160405280929190818152602001828054620007b990620022ed565b8015620008085780601f10620007de5761010080835404028352916020019162000808565b820191905f5260205f20905b815481529060010190602001808311620007ea57829003601f168201915b505050505081526020016002820180546200082390620022ed565b80601f01602080910402602001604051908101604052809291908181526020018280546200085190620022ed565b8015620008a05780601f106200087657610100808354040283529160200191620008a0565b820191905f5260205f20905b8154815290600101906020018083116200088257829003601f168201915b50505050508152505081526020019060010190620006c0565b5050505081525050905092915050565b5f805f9054906101000a900473ffffffffffffffffffffffffffffffffffffffff16905090565b5f6002838360405162000905929190620022a6565b90815260200160405180910390205f9054906101000a900473ffffffffffffffffffffffffffffffffffffffff16905092915050565b6200094562001018565b6001828260405162000959929190620022a6565b90815260200160405180910390205f8082015f6200097891906200119f565b600182015f6200098991906200119f565b600282015f6200099a9190620011e2565b600382015f620009ab919062001205565b600482015f620009bc919062001225565b50507fb24f94d3ff75ed62d7237e14a510a969d70c1d4efdd4cce8ad563aa8ba60a64c8282604051620009f192919062002363565b60405180910390a15050565b62000a0762001018565b5f73ffffffffffffffffffffffffffffffffffffffff168173ffffffffffffffffffffffffffffffffffffffff160362000a7a575f6040517f1e4fbdf700000000000000000000000000000000000000000000000000000000815260040162000a71919062001a89565b60405180910390fd5b62000a8581620010a8565b50565b62000a9262001018565b5f73__HexUtils______________________________6363e1cbea3373ffffffffffffffffffffffffffffffffffffffff1660146040518363ffffffff1660e01b815260040162000ae5929190620023eb565b5f60405180830381865af415801562000b00573d5f803e3d5ffd5b505050506040513d5f823e3d601f19601f8201168201806040525081019062000b2a919062002492565b60405160200162000b3c919062002565565b60405160208183030381529060405290505f60018260405162000b6091906200258a565b908152602001604051809103902090508181600101908162000b8391906200275c565b50825f0151815f01908162000b9991906200275c565b505f3360405162000baa9062001248565b62000bb6919062001a89565b604051809103905ff08015801562000bd0573d5f803e3d5ffd5b5090508060028360010160405162000be99190620028cc565b90815260200160405180910390205f6101000a81548173ffffffffffffffffffffffffffffffffffffffff021916908373ffffffffffffffffffffffffffffffffffffffff1602179055505f5b84604001515181101562000e1557826002016040518060800160405280856001018860400151858151811062000c715762000c70620028e4565b5b60200260200101515f015160405160200162000c8f92919062002911565b60405160208183030381529060405281526020018760400151848151811062000cbd5762000cbc620028e4565b5b60200260200101516020015181526020018760400151848151811062000ce85762000ce7620028e4565b5b60200260200101516040015181526020018760400151848151811062000d135762000d12620028e4565b5b602002602001015160600151815250908060018154018082558091505060019003905f5260205f2090600402015f909190919091505f820151815f01908162000d5d91906200275c565b50602082015181600101908162000d7591906200275c565b50604082015181600201908162000d8d91906200275c565b50606082015181600301908162000da591906200275c565b505050826003018560600151828151811062000dc65762000dc5620028e4565b5b6020026020010151908060018154018082558091505060019003905f5260205f20015f90919091909150908162000dfe91906200275c565b50808062000e0c9062002965565b91505062000c36565b505f5b84608001515181101562000f37578260040160405180606001604052808760800151848151811062000e4f5762000e4e620028e4565b5b60200260200101515f015181526020018760800151848151811062000e795762000e78620028e4565b5b60200260200101516020015181526020018760800151848151811062000ea45762000ea3620028e4565b5b602002602001015160400151815250908060018154018082558091505060019003905f5260205f2090600302015f909190919091505f820151815f01908162000eee91906200275c565b50602082015181600101908162000f0691906200275c565b50604082015181600201908162000f1e91906200275c565b505050808062000f2e9062002965565b91505062000e18565b508160018360010160405162000f4e9190620028cc565b90815260200160405180910390205f8201815f01908162000f709190620029c8565b506001820181600101908162000f879190620029c8565b50600282018160020190805462000fa092919062001256565b50600382018160030190805462000fb992919062001309565b50600482018160040190805462000fd292919062001369565b509050507f5fccafd09eeeb6a3dc1c80357ee982c00d7fb00a991274a9b96fe4fd7cb60552826001016040516200100a919062002b53565b60405180910390a150505050565b6200102262001169565b73ffffffffffffffffffffffffffffffffffffffff1662001042620008c9565b73ffffffffffffffffffffffffffffffffffffffff1614620010a6576200106862001169565b6040517f118cdaa70000000000000000000000000000000000000000000000000000000081526004016200109d919062001a89565b60405180910390fd5b565b5f805f9054906101000a900473ffffffffffffffffffffffffffffffffffffffff169050815f806101000a81548173ffffffffffffffffffffffffffffffffffffffff021916908373ffffffffffffffffffffffffffffffffffffffff1602179055508173ffffffffffffffffffffffffffffffffffffffff168173ffffffffffffffffffffffffffffffffffffffff167f8be0079c531659141344cd1fd0a4f28419497f9722a3daafe3b4186f6b6457e060405160405180910390a35050565b5f33905090565b6040518060a0016040528060608152602001606081526020016060815260200160608152602001606081525090565b508054620011ad90620022ed565b5f825580601f10620011c05750620011df565b601f0160209004905f5260205f2090810190620011de919062001405565b5b50565b5080545f8255600402905f5260205f209081019062001202919062001422565b50565b5080545f8255905f5260205f20908101906200122291906200147e565b50565b5080545f8255600302905f5260205f2090810190620012459190620014a5565b50565b610b3e8062002b7683390190565b828054828255905f5260205f20906004028101928215620012f6575f5260205f209160040282015b82811115620012f55782825f8201815f0190816200129d9190620029c8565b5060018201816001019081620012b49190620029c8565b5060028201816002019081620012cb9190620029c8565b5060038201816003019081620012e29190620029c8565b505050916004019190600401906200127e565b5b50905062001305919062001422565b5090565b828054828255905f5260205f2090810192821562001356575f5260205f209182015b82811115620013555782829081620013449190620029c8565b50916001019190600101906200132b565b5b5090506200136591906200147e565b5090565b828054828255905f5260205f20906003028101928215620013f2575f5260205f209160030282015b82811115620013f15782825f8201815f019081620013b09190620029c8565b5060018201816001019081620013c79190620029c8565b5060028201816002019081620013de9190620029c8565b5050509160030191906003019062001391565b5b509050620014019190620014a5565b5090565b5b808211156200141e575f815f90555060010162001406565b5090565b5b808211156200147a575f8082015f6200143d91906200119f565b600182015f6200144e91906200119f565b600282015f6200145f91906200119f565b600382015f6200147091906200119f565b5060040162001423565b5090565b5b80821115620014a1575f81816200149791906200119f565b506001016200147f565b5090565b5b80821115620014ec575f8082015f620014c091906200119f565b600182015f620014d191906200119f565b600282015f620014e291906200119f565b50600301620014a6565b5090565b5f604051905090565b5f80fd5b5f80fd5b5f80fd5b5f80fd5b5f80fd5b5f8083601f84011262001525576200152462001501565b5b8235905067ffffffffffffffff81111562001545576200154462001505565b5b60208301915083600182028301111562001564576200156362001509565b5b9250929050565b5f8060208385031215620015845762001583620014f9565b5b5f83013567ffffffffffffffff811115620015a457620015a3620014fd565b5b620015b2858286016200150d565b92509250509250929050565b5f81519050919050565b5f82825260208201905092915050565b5f5b83811015620015f7578082015181840152602081019050620015da565b5f8484015250505050565b5f601f19601f8301169050919050565b5f6200161e82620015be565b6200162a8185620015c8565b93506200163c818560208601620015d8565b620016478162001602565b840191505092915050565b5f81519050919050565b5f82825260208201905092915050565b5f819050602082019050919050565b5f608083015f8301518482035f86015262001697828262001612565b91505060208301518482036020860152620016b3828262001612565b91505060408301518482036040860152620016cf828262001612565b91505060608301518482036060860152620016eb828262001612565b9150508091505092915050565b5f6200170583836200167b565b905092915050565b5f602082019050919050565b5f620017258262001652565b6200173181856200165c565b93508360208202850162001745856200166c565b805f5b85811015620017865784840389528151620017648582620016f8565b945062001771836200170d565b925060208a0199505060018101905062001748565b50829750879550505050505092915050565b5f81519050919050565b5f82825260208201905092915050565b5f819050602082019050919050565b5f620017ce838362001612565b905092915050565b5f602082019050919050565b5f620017ee8262001798565b620017fa8185620017a2565b9350836020820285016200180e85620017b2565b805f5b858110156200184f57848403895281516200182d8582620017c1565b94506200183a83620017d6565b925060208a0199505060018101905062001811565b50829750879550505050505092915050565b5f81519050919050565b5f82825260208201905092915050565b5f819050602082019050919050565b5f606083015f8301518482035f860152620018a6828262001612565b91505060208301518482036020860152620018c2828262001612565b91505060408301518482036040860152620018de828262001612565b9150508091505092915050565b5f620018f883836200188a565b905092915050565b5f602082019050919050565b5f620019188262001861565b6200192481856200186b565b93508360208202850162001938856200187b565b805f5b85811015620019795784840389528151620019578582620018eb565b9450620019648362001900565b925060208a019950506001810190506200193b565b50829750879550505050505092915050565b5f60a083015f8301518482035f860152620019a7828262001612565b91505060208301518482036020860152620019c3828262001612565b91505060408301518482036040860152620019df828262001719565b91505060608301518482036060860152620019fb8282620017e2565b9150506080830151848203608086015262001a1782826200190c565b9150508091505092915050565b5f6020820190508181035f83015262001a3e81846200198b565b905092915050565b5f73ffffffffffffffffffffffffffffffffffffffff82169050919050565b5f62001a718262001a46565b9050919050565b62001a838162001a65565b82525050565b5f60208201905062001a9e5f83018462001a78565b92915050565b62001aaf8162001a65565b811462001aba575f80fd5b50565b5f8135905062001acd8162001aa4565b92915050565b5f6020828403121562001aeb5762001aea620014f9565b5b5f62001afa8482850162001abd565b91505092915050565b5f80fd5b7f4e487b71000000000000000000000000000000000000000000000000000000005f52604160045260245ffd5b62001b3f8262001602565b810181811067ffffffffffffffff8211171562001b615762001b6062001b07565b5b80604052505050565b5f62001b75620014f0565b905062001b83828262001b34565b919050565b5f80fd5b5f80fd5b5f67ffffffffffffffff82111562001bad5762001bac62001b07565b5b62001bb88262001602565b9050602081019050919050565b828183375f83830152505050565b5f62001be962001be38462001b90565b62001b6a565b90508281526020810184848401111562001c085762001c0762001b8c565b5b62001c1584828562001bc5565b509392505050565b5f82601f83011262001c345762001c3362001501565b5b813562001c4684826020860162001bd3565b91505092915050565b5f67ffffffffffffffff82111562001c6c5762001c6b62001b07565b5b602082029050602081019050919050565b5f6080828403121562001c955762001c9462001b03565b5b62001ca1608062001b6a565b90505f82013567ffffffffffffffff81111562001cc35762001cc262001b88565b5b62001cd18482850162001c1d565b5f83015250602082013567ffffffffffffffff81111562001cf75762001cf662001b88565b5b62001d058482850162001c1d565b602083015250604082013567ffffffffffffffff81111562001d2c5762001d2b62001b88565b5b62001d3a8482850162001c1d565b604083015250606082013567ffffffffffffffff81111562001d615762001d6062001b88565b5b62001d6f8482850162001c1d565b60608301525092915050565b5f62001d9162001d8b8462001c4f565b62001b6a565b9050808382526020820190506020840283018581111562001db75762001db662001509565b5b835b8181101562001e0557803567ffffffffffffffff81111562001de05762001ddf62001501565b5b80860162001def898262001c7d565b8552602085019450505060208101905062001db9565b5050509392505050565b5f82601f83011262001e265762001e2562001501565b5b813562001e3884826020860162001d7b565b91505092915050565b5f67ffffffffffffffff82111562001e5e5762001e5d62001b07565b5b602082029050602081019050919050565b5f62001e8562001e7f8462001e41565b62001b6a565b9050808382526020820190506020840283018581111562001eab5762001eaa62001509565b5b835b8181101562001ef957803567ffffffffffffffff81111562001ed45762001ed362001501565b5b80860162001ee3898262001c1d565b8552602085019450505060208101905062001ead565b5050509392505050565b5f82601f83011262001f1a5762001f1962001501565b5b813562001f2c84826020860162001e6f565b91505092915050565b5f67ffffffffffffffff82111562001f525762001f5162001b07565b5b602082029050602081019050919050565b5f6060828403121562001f7b5762001f7a62001b03565b5b62001f87606062001b6a565b90505f82013567ffffffffffffffff81111562001fa95762001fa862001b88565b5b62001fb78482850162001c1d565b5f83015250602082013567ffffffffffffffff81111562001fdd5762001fdc62001b88565b5b62001feb8482850162001c1d565b602083015250604082013567ffffffffffffffff81111562002012576200201162001b88565b5b620020208482850162001c1d565b60408301525092915050565b5f620020426200203c8462001f35565b62001b6a565b9050808382526020820190506020840283018581111562002068576200206762001509565b5b835b81811015620020b657803567ffffffffffffffff81111562002091576200209062001501565b5b808601620020a0898262001f63565b855260208501945050506020810190506200206a565b5050509392505050565b5f82601f830112620020d757620020d662001501565b5b8135620020e98482602086016200202c565b91505092915050565b5f60a082840312156200210a576200210962001b03565b5b6200211660a062001b6a565b90505f82013567ffffffffffffffff81111562002138576200213762001b88565b5b620021468482850162001c1d565b5f83015250602082013567ffffffffffffffff8111156200216c576200216b62001b88565b5b6200217a8482850162001c1d565b602083015250604082013567ffffffffffffffff811115620021a157620021a062001b88565b5b620021af8482850162001e0f565b604083015250606082013567ffffffffffffffff811115620021d657620021d562001b88565b5b620021e48482850162001f03565b606083015250608082013567ffffffffffffffff8111156200220b576200220a62001b88565b5b6200221984828501620020c0565b60808301525092915050565b5f602082840312156200223d576200223c620014f9565b5b5f82013567ffffffffffffffff8111156200225d576200225c620014fd565b5b6200226b84828501620020f2565b91505092915050565b5f81905092915050565b5f6200228b838562002274565b93506200229a83858462001bc5565b82840190509392505050565b5f620022b48284866200227e565b91508190509392505050565b7f4e487b71000000000000000000000000000000000000000000000000000000005f52602260045260245ffd5b5f60028204905060018216806200230557607f821691505b6020821081036200231b576200231a620022c0565b5b50919050565b5f82825260208201905092915050565b5f6200233e838562002321565b93506200234d83858462001bc5565b620023588362001602565b840190509392505050565b5f6020820190508181035f8301526200237e81848662002331565b90509392505050565b5f819050919050565b6200239b8162002387565b82525050565b5f819050919050565b5f819050919050565b5f620023d3620023cd620023c784620023a1565b620023aa565b62002387565b9050919050565b620023e581620023b3565b82525050565b5f604082019050620024005f83018562002390565b6200240f6020830184620023da565b9392505050565b5f6200242c620024268462001b90565b62001b6a565b9050828152602081018484840111156200244b576200244a62001b8c565b5b62002458848285620015d8565b509392505050565b5f82601f83011262002477576200247662001501565b5b81516200248984826020860162002416565b91505092915050565b5f60208284031215620024aa57620024a9620014f9565b5b5f82015167ffffffffffffffff811115620024ca57620024c9620014fd565b5b620024d88482850162002460565b91505092915050565b7f6469643a6b6c61793a00000000000000000000000000000000000000000000005f82015250565b5f6200251760098362002274565b91506200252482620024e1565b600982019050919050565b5f6200253b82620015be565b62002547818562002274565b935062002559818560208601620015d8565b80840191505092915050565b5f620025718262002509565b91506200257f82846200252f565b915081905092915050565b5f6200259782846200252f565b915081905092915050565b5f819050815f5260205f209050919050565b5f6020601f8301049050919050565b5f82821b905092915050565b5f60088302620026007fffffffffffffffffffffffffffffffffffffffffffffffffffffffffffffffff82620025c3565b6200260c8683620025c3565b95508019841693508086168417925050509392505050565b5f620026446200263e620026388462002387565b620023aa565b62002387565b9050919050565b5f819050919050565b6200265f8362002624565b620026776200266e826200264b565b848454620025cf565b825550505050565b5f90565b6200268d6200267f565b6200269a81848462002654565b505050565b5b81811015620026c157620026b55f8262002683565b600181019050620026a0565b5050565b601f8211156200271057620026da81620025a2565b620026e584620025b4565b81016020851015620026f5578190505b6200270d6200270485620025b4565b8301826200269f565b50505b505050565b5f82821c905092915050565b5f620027325f198460080262002715565b1980831691505092915050565b5f6200274c838362002721565b9150826002028217905092915050565b6200276782620015be565b67ffffffffffffffff81111562002783576200278262001b07565b5b6200278f8254620022ed565b6200279c828285620026c5565b5f60209050601f831160018114620027d2575f8415620027bd578287015190505b620027c985826200273f565b86555062002838565b601f198416620027e286620025a2565b5f5b828110156200280b57848901518255600182019150602085019450602081019050620027e4565b868310156200282b578489015162002827601f89168262002721565b8355505b6001600288020188555050505b505050505050565b5f81546200284e81620022ed565b6200285a818662002274565b9450600182165f81146200287757600181146200288d57620028c3565b60ff1983168652811515820286019350620028c3565b6200289885620025a2565b5f5b83811015620028bb578154818901526001820191506020810190506200289a565b838801955050505b50505092915050565b5f620028d9828462002840565b915081905092915050565b7f4e487b71000000000000000000000000000000000000000000000000000000005f52603260045260245ffd5b5f6200291e828562002840565b91506200292c82846200252f565b91508190509392505050565b7f4e487b71000000000000000000000000000000000000000000000000000000005f52601160045260245ffd5b5f620029718262002387565b91507fffffffffffffffffffffffffffffffffffffffffffffffffffffffffffffffff8203620029a657620029a562002938565b5b600182019050919050565b5f81549050620029c181620022ed565b9050919050565b818103620029d857505062002ac4565b620029e382620029b1565b67ffffffffffffffff811115620029ff57620029fe62001b07565b5b62002a0b8254620022ed565b62002a18828285620026c5565b5f601f83116001811462002a4a575f841562002a35578287015490505b62002a4185826200273f565b86555062002abd565b601f19841662002a5a87620025a2565b965062002a6786620025a2565b5f5b8281101562002a905784890154825560018201915060018501945060208101905062002a69565b8683101562002ab0578489015462002aac601f89168262002721565b8355505b6001600288020188555050505b5050505050505b565b5f815462002ad481620022ed565b62002ae0818662002321565b9450600182165f811462002afd576001811462002b145762002b4a565b60ff19831686528115156020028601935062002b4a565b62002b1f85620025a2565b5f5b8381101562002b425781548189015260018201915060208101905062002b21565b808801955050505b50505092915050565b5f6020820190508181035f83015262002b6d818462002ac6565b90509291505056fe608060405234801561000f575f80fd5b50604051610b3e380380610b3e8339818101604052810190610031919061022b565b805f73ffffffffffffffffffffffffffffffffffffffff168173ffffffffffffffffffffffffffffffffffffffff16036100a2575f6040517f1e4fbdf70000000000000000000000000000000000000000000000000000000081526004016100999190610265565b60405180910390fd5b6100b18161010c60201b60201c565b5073cd48b32650621694240fafb2d467cdb52fd9579560015f6101000a81548173ffffffffffffffffffffffffffffffffffffffff021916908373ffffffffffffffffffffffffffffffffffffffff1602179055505061027e565b5f805f9054906101000a900473ffffffffffffffffffffffffffffffffffffffff169050815f806101000a81548173ffffffffffffffffffffffffffffffffffffffff021916908373ffffffffffffffffffffffffffffffffffffffff1602179055508173ffffffffffffffffffffffffffffffffffffffff168173ffffffffffffffffffffffffffffffffffffffff167f8be0079c531659141344cd1fd0a4f28419497f9722a3daafe3b4186f6b6457e060405160405180910390a35050565b5f80fd5b5f73ffffffffffffffffffffffffffffffffffffffff82169050919050565b5f6101fa826101d1565b9050919050565b61020a816101f0565b8114610214575f80fd5b50565b5f8151905061022581610201565b92915050565b5f602082840312156102405761023f6101cd565b5b5f61024d84828501610217565b91505092915050565b61025f816101f0565b82525050565b5f6020820190506102785f830184610256565b92915050565b6108b38061028b5f395ff3fe608060405260043610610054575f3560e01c8063376791a114610058578063715018a6146100805780638da5cb5b14610096578063d267732f146100c0578063db72c6b8146100ca578063f2fde38b146100d4575b5f80fd5b348015610063575f80fd5b5061007e6004803603810190610079919061064c565b6100fc565b005b34801561008b575f80fd5b50610094610147565b005b3480156100a1575f80fd5b506100aa61015a565b6040516100b79190610697565b60405180910390f35b6100c8610181565b005b6100d26102ce565b005b3480156100df575f80fd5b506100fa60048036038101906100f591906106da565b61041b565b005b61010461049f565b8060015f6101000a81548173ffffffffffffffffffffffffffffffffffffffff021916908373ffffffffffffffffffffffffffffffffffffffff16021790555050565b61014f61049f565b6101585f610526565b565b5f805f9054906101000a900473ffffffffffffffffffffffffffffffffffffffff16905090565b61018961049f565b5f34116101cb576040517f08c379a00000000000000000000000000000000000000000000000000000000081526004016101c29061075f565b60405180910390fd5b5f60015f9054906101000a900473ffffffffffffffffffffffffffffffffffffffff1673ffffffffffffffffffffffffffffffffffffffff1634604051610211906107aa565b5f6040518083038185875af1925050503d805f811461024b576040519150601f19603f3d011682016040523d82523d5f602084013e610250565b606091505b5050905080610294576040517f08c379a000000000000000000000000000000000000000000000000000000000815260040161028b9061082e565b60405180910390fd5b7fd0572805d790e0d28bb993c858da272484755e34742342d9ad07203e04d896dc346040516102c39190610864565b60405180910390a150565b6102d661049f565b5f3411610318576040517f08c379a000000000000000000000000000000000000000000000000000000000815260040161030f9061075f565b60405180910390fd5b5f60015f9054906101000a900473ffffffffffffffffffffffffffffffffffffffff1673ffffffffffffffffffffffffffffffffffffffff163460405161035e906107aa565b5f6040518083038185875af1925050503d805f8114610398576040519150601f19603f3d011682016040523d82523d5f602084013e61039d565b606091505b50509050806103e1576040517f08c379a00000000000000000000000000000000000000000000000000000000081526004016103d89061082e565b60405180910390fd5b7f932aea04ae675778c045416b67dc8d486ffde60351e811a0a208a5888891f1b5346040516104109190610864565b60405180910390a150565b61042361049f565b5f73ffffffffffffffffffffffffffffffffffffffff168173ffffffffffffffffffffffffffffffffffffffff1603610493575f6040517f1e4fbdf700000000000000000000000000000000000000000000000000000000815260040161048a9190610697565b60405180910390fd5b61049c81610526565b50565b6104a76105e7565b73ffffffffffffffffffffffffffffffffffffffff166104c561015a565b73ffffffffffffffffffffffffffffffffffffffff1614610524576104e86105e7565b6040517f118cdaa700000000000000000000000000000000000000000000000000000000815260040161051b9190610697565b60405180910390fd5b565b5f805f9054906101000a900473ffffffffffffffffffffffffffffffffffffffff169050815f806101000a81548173ffffffffffffffffffffffffffffffffffffffff021916908373ffffffffffffffffffffffffffffffffffffffff1602179055508173ffffffffffffffffffffffffffffffffffffffff168173ffffffffffffffffffffffffffffffffffffffff167f8be0079c531659141344cd1fd0a4f28419497f9722a3daafe3b4186f6b6457e060405160405180910390a35050565b5f33905090565b5f80fd5b5f73ffffffffffffffffffffffffffffffffffffffff82169050919050565b5f61061b826105f2565b9050919050565b61062b81610611565b8114610635575f80fd5b50565b5f8135905061064681610622565b92915050565b5f60208284031215610661576106606105ee565b5b5f61066e84828501610638565b91505092915050565b5f610681826105f2565b9050919050565b61069181610677565b82525050565b5f6020820190506106aa5f830184610688565b92915050565b6106b981610677565b81146106c3575f80fd5b50565b5f813590506106d4816106b0565b92915050565b5f602082840312156106ef576106ee6105ee565b5b5f6106fc848285016106c6565b91505092915050565b5f82825260208201905092915050565b7f596f75206e65656420746f2073656e6420736f6d65204b4c41590000000000005f82015250565b5f610749601a83610705565b915061075482610715565b602082019050919050565b5f6020820190508181035f8301526107768161073d565b9050919050565b5f81905092915050565b50565b5f6107955f8361077d565b91506107a082610787565b5f82019050919050565b5f6107b48261078a565b9150819050919050565b7f4661696c656420746f2073656e64204b4c415920746f207468652074617820615f8201527f63636f756e740000000000000000000000000000000000000000000000000000602082015250565b5f610818602683610705565b9150610823826107be565b604082019050919050565b5f6020820190508181035f8301526108458161080c565b9050919050565b5f819050919050565b61085e8161084c565b82525050565b5f6020820190506108775f830184610855565b9291505056fea26469706673582212205cdd2ff6a840c824e0c1b587ce530954c151ea77c2755cdf6413f131fe064a1364736f6c63430008150033a26469706673582212207f9c9d73745d3f7080aaa7ef0c3f847c09dc31e5db25f07853c67bfc5a6e7d6764736f6c63430008150033",
  "immutableReferences": {},
  "source": "// SPDX-License-Identifier: MIT\r\npragma solidity ^0.8.0;\r\n\r\nimport \"@openzeppelin/contracts/access/Ownable.sol\";\r\nimport \"../structs/DIDStruct.sol\";\r\nimport \"../utils/HexUtils.sol\";\r\nimport \"../tax/TaxPayment.sol\";\r\n\r\ncontract UserDIDRegistry is Ownable {\r\n\r\n    mapping(string => DIDStruct.DIDDocument) didDocuments;\r\n\r\n    mapping(string => address) taxAddresses;\r\n    mapping(string => address) loanAddresses;\r\n\r\n    constructor() Ownable(msg.sender) {}\r\n\r\n    event DIDCreated(string did);\r\n    event DIDDeleted(string did);\r\n\r\n    function createDIDDocument(DIDStruct.DIDDocument memory _didDocument) external onlyOwner {\r\n        string memory id = string(abi.encodePacked(\"did:klay:\", HexUtils.toHexString(uint256(uint160(msg.sender)), 20)));\r\n        DIDStruct.DIDDocument storage didDocument = didDocuments[id];\r\n        didDocument.id = id;\r\n        didDocument.context = _didDocument.context;\r\n\r\n        address taxAddress = address(new TaxPayment(msg.sender));\r\n        taxAddresses[didDocument.id] = taxAddress;\r\n\r\n        for (uint i = 0; i < _didDocument.publicKey.length; i++) {\r\n            didDocument.publicKey.push(DIDStruct.PublicKey({\r\n                id: string(abi.encodePacked(didDocument.id, _didDocument.publicKey[i].id)),\r\n                keyType: _didDocument.publicKey[i].keyType,\r\n                controller: _didDocument.publicKey[i].controller,\r\n                publicKeyData: _didDocument.publicKey[i].publicKeyData\r\n            }));\r\n\r\n            //   key auth \r\n            didDocument.authentication.push(_didDocument.authentication[i]);\r\n        }\r\n\r\n        for (uint i = 0; i < _didDocument.service.length; i++) {\r\n            didDocument.service.push(DIDStruct.Service({\r\n                id: _didDocument.service[i].id,\r\n                serviceType: _didDocument.service[i].serviceType,\r\n                serviceEndPoint: _didDocument.service[i].serviceEndPoint\r\n            }));\r\n        }\r\n\r\n        didDocuments[didDocument.id] = didDocument;\r\n\r\n        emit DIDCreated(didDocument.id);\r\n    }\r\n\r\n    function getDIDDocument(string calldata did) external view returns (DIDStruct.DIDDocument memory) {\r\n        return didDocuments[did];\r\n    }\r\n\r\n    function deleteDIDDocument(string calldata did) external onlyOwner {\r\n        delete didDocuments[did];\r\n        emit DIDDeleted(did);\r\n    }\r\n    \r\n    function getTaxContractAddress(string calldata did) external view returns (address) {\r\n        return taxAddresses[did];\r\n    }\r\n\r\n}\r\n",
  "sourcePath": "C:\\SSAFY\\S10P31C203\\blockchain\\did-user\\contracts\\ministryDID\\UserDIDRegistry.sol",
  "compiler": {
    "name": "solc",
    "version": "0.8.21+commit.d9974bed.Emscripten.clang"
  },
  "schemaVersion": "3.4.16",
  "updatedAt": "2024-05-09T01:28:28.674Z",
  "devdoc": {
    "errors": {
      "OwnableInvalidOwner(address)": [
        {
          "details": "The owner is not a valid owner account. (eg. `address(0)`)"
        }
      ],
      "OwnableUnauthorizedAccount(address)": [
        {
          "details": "The caller account is not authorized to perform an operation."
        }
      ]
    },
    "kind": "dev",
    "methods": {
      "owner()": {
        "details": "Returns the address of the current owner."
      },
      "renounceOwnership()": {
        "details": "Leaves the contract without owner. It will not be possible to call `onlyOwner` functions. Can only be called by the current owner. NOTE: Renouncing ownership will leave the contract without an owner, thereby disabling any functionality that is only available to the owner."
      },
      "transferOwnership(address)": {
        "details": "Transfers ownership of the contract to a new account (`newOwner`). Can only be called by the current owner."
      }
    },
    "version": 1
  },
  "userdoc": {
    "kind": "user",
    "methods": {},
    "version": 1
  }
}