{
  "contractName": "UserDIDRegistry",
  "abi": [
    {
      "inputs": [],
      "stateMutability": "nonpayable",
      "type": "constructor"
    },
    {
      "inputs": [
        {
          "internalType": "address",
          "name": "owner",
          "type": "address"
        }
      ],
      "name": "OwnableInvalidOwner",
      "type": "error"
    },
    {
      "inputs": [
        {
          "internalType": "address",
          "name": "account",
          "type": "address"
        }
      ],
      "name": "OwnableUnauthorizedAccount",
      "type": "error"
    },
    {
      "anonymous": false,
      "inputs": [
        {
          "indexed": false,
          "internalType": "string",
          "name": "did",
          "type": "string"
        }
      ],
      "name": "DIDCreated",
      "type": "event"
    },
    {
      "anonymous": false,
      "inputs": [
        {
          "indexed": false,
          "internalType": "string",
          "name": "did",
          "type": "string"
        }
      ],
      "name": "DIDDeleted",
      "type": "event"
    },
    {
      "anonymous": false,
      "inputs": [
        {
          "indexed": true,
          "internalType": "address",
          "name": "previousOwner",
          "type": "address"
        },
        {
          "indexed": true,
          "internalType": "address",
          "name": "newOwner",
          "type": "address"
        }
      ],
      "name": "OwnershipTransferred",
      "type": "event"
    },
    {
      "inputs": [],
      "name": "owner",
      "outputs": [
        {
          "internalType": "address",
          "name": "",
          "type": "address"
        }
      ],
      "stateMutability": "view",
      "type": "function"
    },
    {
      "inputs": [],
      "name": "renounceOwnership",
      "outputs": [],
      "stateMutability": "nonpayable",
      "type": "function"
    },
    {
      "inputs": [
        {
          "internalType": "address",
          "name": "newOwner",
          "type": "address"
        }
      ],
      "name": "transferOwnership",
      "outputs": [],
      "stateMutability": "nonpayable",
      "type": "function"
    },
    {
      "inputs": [],
      "name": "createDIDDocument",
      "outputs": [],
      "stateMutability": "nonpayable",
      "type": "function"
    },
    {
      "inputs": [
        {
          "internalType": "string",
          "name": "did",
          "type": "string"
        }
      ],
      "name": "getDIDDocument",
      "outputs": [
        {
          "components": [
            {
              "internalType": "string",
              "name": "context",
              "type": "string"
            },
            {
              "internalType": "string",
              "name": "id",
              "type": "string"
            },
            {
              "components": [
                {
                  "internalType": "string",
                  "name": "id",
                  "type": "string"
                },
                {
                  "internalType": "string",
                  "name": "keyType",
                  "type": "string"
                },
                {
                  "internalType": "string",
                  "name": "controller",
                  "type": "string"
                },
                {
                  "internalType": "string",
                  "name": "publicKeyData",
                  "type": "string"
                }
              ],
              "internalType": "struct DIDStruct.PublicKey",
              "name": "publicKey",
              "type": "tuple"
            },
            {
              "internalType": "string",
              "name": "authentication",
              "type": "string"
            },
            {
              "components": [
                {
                  "internalType": "string",
                  "name": "id",
                  "type": "string"
                },
                {
                  "internalType": "string",
                  "name": "serviceType",
                  "type": "string"
                },
                {
                  "internalType": "string",
                  "name": "serviceEndPoint",
                  "type": "string"
                }
              ],
              "internalType": "struct DIDStruct.Service",
              "name": "service",
              "type": "tuple"
            }
          ],
          "internalType": "struct DIDStruct.DIDDocument",
          "name": "",
          "type": "tuple"
        }
      ],
      "stateMutability": "view",
      "type": "function"
    },
    {
      "inputs": [
        {
          "internalType": "string",
          "name": "did",
          "type": "string"
        }
      ],
      "name": "deleteDIDDocument",
      "outputs": [],
      "stateMutability": "nonpayable",
      "type": "function"
    },
    {
      "inputs": [
        {
          "internalType": "string",
          "name": "did",
          "type": "string"
        }
      ],
      "name": "getTaxContractAddress",
      "outputs": [
        {
          "internalType": "address",
          "name": "",
          "type": "address"
        }
      ],
      "stateMutability": "view",
      "type": "function"
    }
  ],
  "bytecode": "0x608060405234801562000010575f80fd5b50335f73ffffffffffffffffffffffffffffffffffffffff168173ffffffffffffffffffffffffffffffffffffffff160362000085575f6040517f1e4fbdf70000000000000000000000000000000000000000000000000000000081526004016200007c9190620001a1565b60405180910390fd5b62000096816200009d60201b60201c565b50620001bc565b5f805f9054906101000a900473ffffffffffffffffffffffffffffffffffffffff169050815f806101000a81548173ffffffffffffffffffffffffffffffffffffffff021916908373ffffffffffffffffffffffffffffffffffffffff1602179055508173ffffffffffffffffffffffffffffffffffffffff168173ffffffffffffffffffffffffffffffffffffffff167f8be0079c531659141344cd1fd0a4f28419497f9722a3daafe3b4186f6b6457e060405160405180910390a35050565b5f73ffffffffffffffffffffffffffffffffffffffff82169050919050565b5f62000189826200015e565b9050919050565b6200019b816200017d565b82525050565b5f602082019050620001b65f83018462000190565b92915050565b61258080620001ca5f395ff3fe608060405234801562000010575f80fd5b506004361062000086575f3560e01c80638da5cb5b11620000615780638da5cb5b14620000d8578063a991067e14620000fa578063b9a463841462000130578063f2fde38b14620001505762000086565b8063659b28df146200008a578063715018a61462000096578063784afc4e14620000a2575b5f80fd5b6200009462000170565b005b620000a062000485565b005b620000c06004803603810190620000ba919062000fd9565b6200049c565b604051620000cf919062001237565b60405180910390f35b620000e262000af0565b604051620000f191906200129c565b60405180910390f35b62000118600480360381019062000112919062000fd9565b62000b17565b6040516200012791906200129c565b60405180910390f35b6200014e600480360381019062000148919062000fd9565b62000b62565b005b6200016e6004803603810190620001689190620012e6565b62000c85565b005b6200017a62000d10565b6200018462000e68565b73__HexUtils______________________________6363e1cbea3373ffffffffffffffffffffffffffffffffffffffff1660146040518363ffffffff1660e01b8152600401620001d69291906200137a565b5f60405180830381865af4158015620001f1573d5f803e3d5ffd5b505050506040513d5f823e3d601f19601f820116820180604052508101906200021b9190620014db565b6040516020016200022d9190620015b8565b60405160208183030381529060405281602001819052506040518060400160405280601c81526020017f68747470733a2f2f7777772e77332e6f72672f6e732f6469642f763100000000815250815f01819052505f33604051620002919062000ea7565b6200029d91906200129c565b604051809103905ff080158015620002b7573d5f803e3d5ffd5b5090508060028360200151604051620002d19190620015dd565b90815260200160405180910390205f6101000a81548173ffffffffffffffffffffffffffffffffffffffff021916908373ffffffffffffffffffffffffffffffffffffffff1602179055508160018360200151604051620003339190620015dd565b90815260200160405180910390205f820151815f01908162000356919062001810565b5060208201518160010190816200036e919062001810565b506040820151816002015f820151815f0190816200038d919062001810565b506020820151816001019081620003a5919062001810565b506040820151816002019081620003bd919062001810565b506060820151816003019081620003d5919062001810565b5050506060820151816006019081620003ef919062001810565b506080820151816007015f820151815f0190816200040e919062001810565b50602082015181600101908162000426919062001810565b5060408201518160020190816200043e919062001810565b5050509050507f5fccafd09eeeb6a3dc1c80357ee982c00d7fb00a991274a9b96fe4fd7cb60552826020015160405162000479919062001944565b60405180910390a15050565b6200048f62000d10565b6200049a5f62000da0565b565b620004a662000e68565b60018383604051620004ba9291906200199c565b90815260200160405180910390206040518060a00160405290815f82018054620004e49062001622565b80601f0160208091040260200160405190810160405280929190818152602001828054620005129062001622565b8015620005615780601f10620005375761010080835404028352916020019162000561565b820191905f5260205f20905b8154815290600101906020018083116200054357829003601f168201915b505050505081526020016001820180546200057c9062001622565b80601f0160208091040260200160405190810160405280929190818152602001828054620005aa9062001622565b8015620005f95780601f10620005cf57610100808354040283529160200191620005f9565b820191905f5260205f20905b815481529060010190602001808311620005db57829003601f168201915b50505050508152602001600282016040518060800160405290815f82018054620006239062001622565b80601f0160208091040260200160405190810160405280929190818152602001828054620006519062001622565b8015620006a05780601f106200067657610100808354040283529160200191620006a0565b820191905f5260205f20905b8154815290600101906020018083116200068257829003601f168201915b50505050508152602001600182018054620006bb9062001622565b80601f0160208091040260200160405190810160405280929190818152602001828054620006e99062001622565b8015620007385780601f106200070e5761010080835404028352916020019162000738565b820191905f5260205f20905b8154815290600101906020018083116200071a57829003601f168201915b50505050508152602001600282018054620007539062001622565b80601f0160208091040260200160405190810160405280929190818152602001828054620007819062001622565b8015620007d05780601f10620007a657610100808354040283529160200191620007d0565b820191905f5260205f20905b815481529060010190602001808311620007b257829003601f168201915b50505050508152602001600382018054620007eb9062001622565b80601f0160208091040260200160405190810160405280929190818152602001828054620008199062001622565b8015620008685780601f106200083e5761010080835404028352916020019162000868565b820191905f5260205f20905b8154815290600101906020018083116200084a57829003601f168201915b5050505050815250508152602001600682018054620008879062001622565b80601f0160208091040260200160405190810160405280929190818152602001828054620008b59062001622565b8015620009045780601f10620008da5761010080835404028352916020019162000904565b820191905f5260205f20905b815481529060010190602001808311620008e657829003601f168201915b50505050508152602001600782016040518060600160405290815f820180546200092e9062001622565b80601f01602080910402602001604051908101604052809291908181526020018280546200095c9062001622565b8015620009ab5780601f106200098157610100808354040283529160200191620009ab565b820191905f5260205f20905b8154815290600101906020018083116200098d57829003601f168201915b50505050508152602001600182018054620009c69062001622565b80601f0160208091040260200160405190810160405280929190818152602001828054620009f49062001622565b801562000a435780601f1062000a195761010080835404028352916020019162000a43565b820191905f5260205f20905b81548152906001019060200180831162000a2557829003601f168201915b5050505050815260200160028201805462000a5e9062001622565b80601f016020809104026020016040519081016040528092919081815260200182805462000a8c9062001622565b801562000adb5780601f1062000ab15761010080835404028352916020019162000adb565b820191905f5260205f20905b81548152906001019060200180831162000abd57829003601f168201915b50505050508152505081525050905092915050565b5f805f9054906101000a900473ffffffffffffffffffffffffffffffffffffffff16905090565b5f6002838360405162000b2c9291906200199c565b90815260200160405180910390205f9054906101000a900473ffffffffffffffffffffffffffffffffffffffff16905092915050565b62000b6c62000d10565b6001828260405162000b809291906200199c565b90815260200160405180910390205f8082015f62000b9f919062000eb5565b600182015f62000bb0919062000eb5565b600282015f8082015f62000bc5919062000eb5565b600182015f62000bd6919062000eb5565b600282015f62000be7919062000eb5565b600382015f62000bf8919062000eb5565b5050600682015f62000c0b919062000eb5565b600782015f8082015f62000c20919062000eb5565b600182015f62000c31919062000eb5565b600282015f62000c42919062000eb5565b505050507fb24f94d3ff75ed62d7237e14a510a969d70c1d4efdd4cce8ad563aa8ba60a64c828260405162000c79929190620019e8565b60405180910390a15050565b62000c8f62000d10565b5f73ffffffffffffffffffffffffffffffffffffffff168173ffffffffffffffffffffffffffffffffffffffff160362000d02575f6040517f1e4fbdf700000000000000000000000000000000000000000000000000000000815260040162000cf991906200129c565b60405180910390fd5b62000d0d8162000da0565b50565b62000d1a62000e61565b73ffffffffffffffffffffffffffffffffffffffff1662000d3a62000af0565b73ffffffffffffffffffffffffffffffffffffffff161462000d9e5762000d6062000e61565b6040517f118cdaa700000000000000000000000000000000000000000000000000000000815260040162000d9591906200129c565b60405180910390fd5b565b5f805f9054906101000a900473ffffffffffffffffffffffffffffffffffffffff169050815f806101000a81548173ffffffffffffffffffffffffffffffffffffffff021916908373ffffffffffffffffffffffffffffffffffffffff1602179055508173ffffffffffffffffffffffffffffffffffffffff168173ffffffffffffffffffffffffffffffffffffffff167f8be0079c531659141344cd1fd0a4f28419497f9722a3daafe3b4186f6b6457e060405160405180910390a35050565b5f33905090565b6040518060a00160405280606081526020016060815260200162000e8b62000ef8565b81526020016060815260200162000ea162000f20565b81525090565b610b3e8062001a0d83390190565b50805462000ec39062001622565b5f825580601f1062000ed6575062000ef5565b601f0160209004905f5260205f209081019062000ef4919062000f41565b5b50565b6040518060800160405280606081526020016060815260200160608152602001606081525090565b60405180606001604052806060815260200160608152602001606081525090565b5b8082111562000f5a575f815f90555060010162000f42565b5090565b5f604051905090565b5f80fd5b5f80fd5b5f80fd5b5f80fd5b5f80fd5b5f8083601f84011262000f935762000f9262000f6f565b5b8235905067ffffffffffffffff81111562000fb35762000fb262000f73565b5b60208301915083600182028301111562000fd25762000fd162000f77565b5b9250929050565b5f806020838503121562000ff25762000ff162000f67565b5b5f83013567ffffffffffffffff81111562001012576200101162000f6b565b5b620010208582860162000f7b565b92509250509250929050565b5f81519050919050565b5f82825260208201905092915050565b5f5b838110156200106557808201518184015260208101905062001048565b5f8484015250505050565b5f601f19601f8301169050919050565b5f6200108c826200102c565b62001098818562001036565b9350620010aa81856020860162001046565b620010b58162001070565b840191505092915050565b5f608083015f8301518482035f860152620010dc828262001080565b91505060208301518482036020860152620010f8828262001080565b9150506040830151848203604086015262001114828262001080565b9150506060830151848203606086015262001130828262001080565b9150508091505092915050565b5f606083015f8301518482035f86015262001159828262001080565b9150506020830151848203602086015262001175828262001080565b9150506040830151848203604086015262001191828262001080565b9150508091505092915050565b5f60a083015f8301518482035f860152620011ba828262001080565b91505060208301518482036020860152620011d6828262001080565b91505060408301518482036040860152620011f28282620010c0565b915050606083015184820360608601526200120e828262001080565b915050608083015184820360808601526200122a82826200113d565b9150508091505092915050565b5f6020820190508181035f8301526200125181846200119e565b905092915050565b5f73ffffffffffffffffffffffffffffffffffffffff82169050919050565b5f620012848262001259565b9050919050565b620012968162001278565b82525050565b5f602082019050620012b15f8301846200128b565b92915050565b620012c28162001278565b8114620012cd575f80fd5b50565b5f81359050620012e081620012b7565b92915050565b5f60208284031215620012fe57620012fd62000f67565b5b5f6200130d84828501620012d0565b91505092915050565b5f819050919050565b6200132a8162001316565b82525050565b5f819050919050565b5f819050919050565b5f620013626200135c620013568462001330565b62001339565b62001316565b9050919050565b620013748162001342565b82525050565b5f6040820190506200138f5f8301856200131f565b6200139e602083018462001369565b9392505050565b5f80fd5b7f4e487b71000000000000000000000000000000000000000000000000000000005f52604160045260245ffd5b620013e18262001070565b810181811067ffffffffffffffff82111715620014035762001402620013a9565b5b80604052505050565b5f6200141762000f5e565b9050620014258282620013d6565b919050565b5f67ffffffffffffffff821115620014475762001446620013a9565b5b620014528262001070565b9050602081019050919050565b5f620014756200146f846200142a565b6200140c565b905082815260208101848484011115620014945762001493620013a5565b5b620014a184828562001046565b509392505050565b5f82601f830112620014c057620014bf62000f6f565b5b8151620014d28482602086016200145f565b91505092915050565b5f60208284031215620014f357620014f262000f67565b5b5f82015167ffffffffffffffff81111562001513576200151262000f6b565b5b6200152184828501620014a9565b91505092915050565b5f81905092915050565b7f6469643a6b6c61793a00000000000000000000000000000000000000000000005f82015250565b5f6200156a6009836200152a565b9150620015778262001534565b600982019050919050565b5f6200158e826200102c565b6200159a81856200152a565b9350620015ac81856020860162001046565b80840191505092915050565b5f620015c4826200155c565b9150620015d2828462001582565b915081905092915050565b5f620015ea828462001582565b915081905092915050565b7f4e487b71000000000000000000000000000000000000000000000000000000005f52602260045260245ffd5b5f60028204905060018216806200163a57607f821691505b60208210810362001650576200164f620015f5565b5b50919050565b5f819050815f5260205f209050919050565b5f6020601f8301049050919050565b5f82821b905092915050565b5f60088302620016b47fffffffffffffffffffffffffffffffffffffffffffffffffffffffffffffffff8262001677565b620016c0868362001677565b95508019841693508086168417925050509392505050565b5f620016f8620016f2620016ec8462001316565b62001339565b62001316565b9050919050565b5f819050919050565b6200171383620016d8565b6200172b6200172282620016ff565b84845462001683565b825550505050565b5f90565b6200174162001733565b6200174e81848462001708565b505050565b5b818110156200177557620017695f8262001737565b60018101905062001754565b5050565b601f821115620017c4576200178e8162001656565b620017998462001668565b81016020851015620017a9578190505b620017c1620017b88562001668565b83018262001753565b50505b505050565b5f82821c905092915050565b5f620017e65f1984600802620017c9565b1980831691505092915050565b5f620018008383620017d5565b9150826002028217905092915050565b6200181b826200102c565b67ffffffffffffffff811115620018375762001836620013a9565b5b62001843825462001622565b6200185082828562001779565b5f60209050601f83116001811462001886575f841562001871578287015190505b6200187d8582620017f3565b865550620018ec565b601f198416620018968662001656565b5f5b82811015620018bf5784890151825560018201915060208501945060208101905062001898565b86831015620018df5784890151620018db601f891682620017d5565b8355505b6001600288020188555050505b505050505050565b5f82825260208201905092915050565b5f62001910826200102c565b6200191c8185620018f4565b93506200192e81856020860162001046565b620019398162001070565b840191505092915050565b5f6020820190508181035f8301526200195e818462001904565b905092915050565b828183375f83830152505050565b5f6200198183856200152a565b93506200199083858462001966565b82840190509392505050565b5f620019aa82848662001974565b91508190509392505050565b5f620019c38385620018f4565b9350620019d283858462001966565b620019dd8362001070565b840190509392505050565b5f6020820190508181035f83015262001a03818486620019b6565b9050939250505056fe608060405234801561000f575f80fd5b50604051610b3e380380610b3e8339818101604052810190610031919061022b565b805f73ffffffffffffffffffffffffffffffffffffffff168173ffffffffffffffffffffffffffffffffffffffff16036100a2575f6040517f1e4fbdf70000000000000000000000000000000000000000000000000000000081526004016100999190610265565b60405180910390fd5b6100b18161010c60201b60201c565b5073cd48b32650621694240fafb2d467cdb52fd9579560015f6101000a81548173ffffffffffffffffffffffffffffffffffffffff021916908373ffffffffffffffffffffffffffffffffffffffff1602179055505061027e565b5f805f9054906101000a900473ffffffffffffffffffffffffffffffffffffffff169050815f806101000a81548173ffffffffffffffffffffffffffffffffffffffff021916908373ffffffffffffffffffffffffffffffffffffffff1602179055508173ffffffffffffffffffffffffffffffffffffffff168173ffffffffffffffffffffffffffffffffffffffff167f8be0079c531659141344cd1fd0a4f28419497f9722a3daafe3b4186f6b6457e060405160405180910390a35050565b5f80fd5b5f73ffffffffffffffffffffffffffffffffffffffff82169050919050565b5f6101fa826101d1565b9050919050565b61020a816101f0565b8114610214575f80fd5b50565b5f8151905061022581610201565b92915050565b5f602082840312156102405761023f6101cd565b5b5f61024d84828501610217565b91505092915050565b61025f816101f0565b82525050565b5f6020820190506102785f830184610256565b92915050565b6108b38061028b5f395ff3fe608060405260043610610054575f3560e01c8063376791a114610058578063715018a6146100805780638da5cb5b14610096578063d267732f146100c0578063db72c6b8146100ca578063f2fde38b146100d4575b5f80fd5b348015610063575f80fd5b5061007e6004803603810190610079919061064c565b6100fc565b005b34801561008b575f80fd5b50610094610147565b005b3480156100a1575f80fd5b506100aa61015a565b6040516100b79190610697565b60405180910390f35b6100c8610181565b005b6100d26102ce565b005b3480156100df575f80fd5b506100fa60048036038101906100f591906106da565b61041b565b005b61010461049f565b8060015f6101000a81548173ffffffffffffffffffffffffffffffffffffffff021916908373ffffffffffffffffffffffffffffffffffffffff16021790555050565b61014f61049f565b6101585f610526565b565b5f805f9054906101000a900473ffffffffffffffffffffffffffffffffffffffff16905090565b61018961049f565b5f34116101cb576040517f08c379a00000000000000000000000000000000000000000000000000000000081526004016101c29061075f565b60405180910390fd5b5f60015f9054906101000a900473ffffffffffffffffffffffffffffffffffffffff1673ffffffffffffffffffffffffffffffffffffffff1634604051610211906107aa565b5f6040518083038185875af1925050503d805f811461024b576040519150601f19603f3d011682016040523d82523d5f602084013e610250565b606091505b5050905080610294576040517f08c379a000000000000000000000000000000000000000000000000000000000815260040161028b9061082e565b60405180910390fd5b7fd0572805d790e0d28bb993c858da272484755e34742342d9ad07203e04d896dc346040516102c39190610864565b60405180910390a150565b6102d661049f565b5f3411610318576040517f08c379a000000000000000000000000000000000000000000000000000000000815260040161030f9061075f565b60405180910390fd5b5f60015f9054906101000a900473ffffffffffffffffffffffffffffffffffffffff1673ffffffffffffffffffffffffffffffffffffffff163460405161035e906107aa565b5f6040518083038185875af1925050503d805f8114610398576040519150601f19603f3d011682016040523d82523d5f602084013e61039d565b606091505b50509050806103e1576040517f08c379a00000000000000000000000000000000000000000000000000000000081526004016103d89061082e565b60405180910390fd5b7f932aea04ae675778c045416b67dc8d486ffde60351e811a0a208a5888891f1b5346040516104109190610864565b60405180910390a150565b61042361049f565b5f73ffffffffffffffffffffffffffffffffffffffff168173ffffffffffffffffffffffffffffffffffffffff1603610493575f6040517f1e4fbdf700000000000000000000000000000000000000000000000000000000815260040161048a9190610697565b60405180910390fd5b61049c81610526565b50565b6104a76105e7565b73ffffffffffffffffffffffffffffffffffffffff166104c561015a565b73ffffffffffffffffffffffffffffffffffffffff1614610524576104e86105e7565b6040517f118cdaa700000000000000000000000000000000000000000000000000000000815260040161051b9190610697565b60405180910390fd5b565b5f805f9054906101000a900473ffffffffffffffffffffffffffffffffffffffff169050815f806101000a81548173ffffffffffffffffffffffffffffffffffffffff021916908373ffffffffffffffffffffffffffffffffffffffff1602179055508173ffffffffffffffffffffffffffffffffffffffff168173ffffffffffffffffffffffffffffffffffffffff167f8be0079c531659141344cd1fd0a4f28419497f9722a3daafe3b4186f6b6457e060405160405180910390a35050565b5f33905090565b5f80fd5b5f73ffffffffffffffffffffffffffffffffffffffff82169050919050565b5f61061b826105f2565b9050919050565b61062b81610611565b8114610635575f80fd5b50565b5f8135905061064681610622565b92915050565b5f60208284031215610661576106606105ee565b5b5f61066e84828501610638565b91505092915050565b5f610681826105f2565b9050919050565b61069181610677565b82525050565b5f6020820190506106aa5f830184610688565b92915050565b6106b981610677565b81146106c3575f80fd5b50565b5f813590506106d4816106b0565b92915050565b5f602082840312156106ef576106ee6105ee565b5b5f6106fc848285016106c6565b91505092915050565b5f82825260208201905092915050565b7f596f75206e65656420746f2073656e6420736f6d65204b4c41590000000000005f82015250565b5f610749601a83610705565b915061075482610715565b602082019050919050565b5f6020820190508181035f8301526107768161073d565b9050919050565b5f81905092915050565b50565b5f6107955f8361077d565b91506107a082610787565b5f82019050919050565b5f6107b48261078a565b9150819050919050565b7f4661696c656420746f2073656e64204b4c415920746f207468652074617820615f8201527f63636f756e740000000000000000000000000000000000000000000000000000602082015250565b5f610818602683610705565b9150610823826107be565b604082019050919050565b5f6020820190508181035f8301526108458161080c565b9050919050565b5f819050919050565b61085e8161084c565b82525050565b5f6020820190506108775f830184610855565b9291505056fea26469706673582212205cdd2ff6a840c824e0c1b587ce530954c151ea77c2755cdf6413f131fe064a1364736f6c63430008150033a2646970667358221220e5dabeba93e110e19cd66d333c6edfda4eeaf64d8ccb884bc5fe539cb150c79164736f6c63430008150033",
  "immutableReferences": {},
  "source": "// SPDX-License-Identifier: MIT\r\npragma solidity ^0.8.0;\r\n\r\nimport \"@openzeppelin/contracts/access/Ownable.sol\";\r\nimport \"../structs/DIDStruct.sol\";\r\nimport \"../utils/HexUtils.sol\";\r\nimport \"../tax/TaxPayment.sol\";\r\n\r\ncontract UserDIDRegistry is Ownable {\r\n\r\n    mapping(string => DIDStruct.DIDDocument) didDocuments;\r\n\r\n    mapping(string => address) taxAddresses;\r\n    mapping(string => address) loanAddresses;\r\n\r\n    constructor() Ownable(msg.sender) {}\r\n\r\n    event DIDCreated(string did);\r\n    event DIDDeleted(string did);\r\n\r\n    function createDIDDocument() external onlyOwner {\r\n        DIDStruct.DIDDocument memory didDocument;\r\n        didDocument.id = string(abi.encodePacked(\"did:klay:\", HexUtils.toHexString(uint256(uint160(msg.sender)), 20)));\r\n        didDocument.context = \"https://www.w3.org/ns/did/v1\";\r\n\r\n        address taxAddress = address(new TaxPayment(msg.sender));\r\n        taxAddresses[didDocument.id] = taxAddress;\r\n\r\n        didDocuments[didDocument.id] = didDocument;\r\n\r\n        emit DIDCreated(didDocument.id);\r\n    }\r\n\r\n    function getDIDDocument(string calldata did) external view returns (DIDStruct.DIDDocument memory) {\r\n        return didDocuments[did];\r\n    }\r\n\r\n    function deleteDIDDocument(string calldata did) external onlyOwner {\r\n        delete didDocuments[did];\r\n        emit DIDDeleted(did);\r\n    }\r\n    \r\n    function getTaxContractAddress(string calldata did) external view returns (address) {\r\n        return taxAddresses[did];\r\n    }\r\n\r\n}\r\n",
  "sourcePath": "C:\\Users\\SSAFY\\Desktop\\S10P31C203\\blockchain\\did-user\\contracts\\userDID\\UserDIDRegistry.sol",
  "compiler": {
    "name": "solc",
    "version": "0.8.21+commit.d9974bed.Emscripten.clang"
  },
  "schemaVersion": "3.4.16",
  "updatedAt": "2024-05-10T06:01:48.784Z",
  "devdoc": {
    "errors": {
      "OwnableInvalidOwner(address)": [
        {
          "details": "The owner is not a valid owner account. (eg. `address(0)`)"
        }
      ],
      "OwnableUnauthorizedAccount(address)": [
        {
          "details": "The caller account is not authorized to perform an operation."
        }
      ]
    },
    "kind": "dev",
    "methods": {
      "owner()": {
        "details": "Returns the address of the current owner."
      },
      "renounceOwnership()": {
        "details": "Leaves the contract without owner. It will not be possible to call `onlyOwner` functions. Can only be called by the current owner. NOTE: Renouncing ownership will leave the contract without an owner, thereby disabling any functionality that is only available to the owner."
      },
      "transferOwnership(address)": {
        "details": "Transfers ownership of the contract to a new account (`newOwner`). Can only be called by the current owner."
      }
    },
    "version": 1
  },
  "userdoc": {
    "kind": "user",
    "methods": {},
    "version": 1
  }
}