{
  "contractName": "Bank",
  "abi": [
    {
      "inputs": [],
      "stateMutability": "nonpayable",
      "type": "constructor"
    },
    {
      "inputs": [
        {
          "internalType": "address",
          "name": "owner",
          "type": "address"
        }
      ],
      "name": "OwnableInvalidOwner",
      "type": "error"
    },
    {
      "inputs": [
        {
          "internalType": "address",
          "name": "account",
          "type": "address"
        }
      ],
      "name": "OwnableUnauthorizedAccount",
      "type": "error"
    },
    {
      "anonymous": false,
      "inputs": [
        {
          "indexed": true,
          "internalType": "address",
          "name": "previousOwner",
          "type": "address"
        },
        {
          "indexed": true,
          "internalType": "address",
          "name": "newOwner",
          "type": "address"
        }
      ],
      "name": "OwnershipTransferred",
      "type": "event"
    },
    {
      "anonymous": false,
      "inputs": [
        {
          "indexed": false,
          "internalType": "string",
          "name": "mortgage",
          "type": "string"
        },
        {
          "indexed": false,
          "internalType": "uint256",
          "name": "amount",
          "type": "uint256"
        }
      ],
      "name": "created",
      "type": "event"
    },
    {
      "inputs": [],
      "name": "owner",
      "outputs": [
        {
          "internalType": "address",
          "name": "",
          "type": "address"
        }
      ],
      "stateMutability": "view",
      "type": "function",
      "constant": true
    },
    {
      "inputs": [],
      "name": "renounceOwnership",
      "outputs": [],
      "stateMutability": "nonpayable",
      "type": "function"
    },
    {
      "inputs": [
        {
          "internalType": "address",
          "name": "newOwner",
          "type": "address"
        }
      ],
      "name": "transferOwnership",
      "outputs": [],
      "stateMutability": "nonpayable",
      "type": "function"
    },
    {
      "inputs": [
        {
          "internalType": "address",
          "name": "_target",
          "type": "address"
        },
        {
          "internalType": "uint256",
          "name": "_amount",
          "type": "uint256"
        },
        {
          "internalType": "string",
          "name": "_mortgage",
          "type": "string"
        }
      ],
      "name": "createLoan",
      "outputs": [],
      "stateMutability": "nonpayable",
      "type": "function"
    },
    {
      "inputs": [
        {
          "internalType": "string",
          "name": "_mortgage",
          "type": "string"
        }
      ],
      "name": "getLoan",
      "outputs": [
        {
          "components": [
            {
              "internalType": "address payable",
              "name": "target",
              "type": "address"
            },
            {
              "internalType": "uint256",
              "name": "pendingLoanAmount",
              "type": "uint256"
            },
            {
              "internalType": "string",
              "name": "pendingLoanMortgage",
              "type": "string"
            }
          ],
          "internalType": "struct Bank.Loan",
          "name": "",
          "type": "tuple"
        }
      ],
      "stateMutability": "view",
      "type": "function",
      "constant": true
    }
  ],
  "bytecode": "0x6080604052346200002d57620000146200003d565b6200001e62000033565b610d8d620002588239610d8d90f35b62000039565b60405190565b5f80fd5b6200004833620000bf565b565b90565b60018060a01b031690565b90565b620000746200006e6200007a926200004a565b62000058565b6200004d565b90565b62000088906200005b565b90565b62000096906200004d565b90565b620000a4906200008b565b9052565b9190620000bd905f6020850194019062000099565b565b80620000e0620000d9620000d35f6200007d565b6200008b565b916200008b565b14620000f357620000f190620001ec565b565b62000123620001025f6200007d565b6200010c62000033565b918291631e4fbdf760e01b835260048301620000a8565b0390fd5b5f1c90565b60018060a01b031690565b620001466200014c9162000127565b6200012c565b90565b6200015b905462000137565b90565b5f1b90565b906200017660018060a01b03916200015e565b9181191691161790565b62000199620001936200019f926200004d565b62000058565b6200004d565b90565b620001ad9062000180565b90565b620001bb90620001a2565b90565b90565b90620001db620001d5620001e392620001b0565b620001be565b825462000163565b9055565b5f0190565b620001f75f6200014f565b62000203825f620001c1565b906200023b620002347f8be0079c531659141344cd1fd0a4f28419497f9722a3daafe3b4186f6b6457e093620001b0565b91620001b0565b916200024662000033565b806200025281620001e7565b0390a356fe60806040526004361015610013575b6104d7565b61001d5f3561006c565b80633fbb787114610067578063715018a6146100625780638da5cb5b1461005d578063c47d2586146100585763f2fde38b0361000e576104a4565b610451565b610221565b6101cc565b610186565b60e01c90565b60405190565b5f80fd5b5f80fd5b5f80fd5b60018060a01b031690565b61009890610084565b90565b6100a48161008f565b036100ab57565b5f80fd5b905035906100bc8261009b565b565b90565b6100ca816100be565b036100d157565b5f80fd5b905035906100e2826100c1565b565b5f80fd5b5f80fd5b5f80fd5b909182601f8301121561012a5781359167ffffffffffffffff831161012557602001926001830284011161012057565b6100ec565b6100e8565b6100e4565b9160608383031261017c57610146825f85016100af565b9261015483602083016100d5565b92604082013567ffffffffffffffff81116101775761017392016100f0565b9091565b610080565b61007c565b5f0190565b346101b8576101a261019936600461012f565b92919091610ae2565b6101aa610072565b806101b481610181565b0390f35b610078565b5f9103126101c757565b61007c565b346101fa576101dc3660046101bd565b6101e4610578565b6101ec610072565b806101f681610181565b0390f35b610078565b6102089061008f565b9052565b919061021f905f602085019401906101ff565b565b34610251576102313660046101bd565b61024d61023c610510565b610244610072565b9182918261020c565b0390f35b610078565b5f80fd5b601f801991011690565b634e487b7160e01b5f52604160045260245ffd5b906102829061025a565b810190811067ffffffffffffffff82111761029c57604052565b610264565b906102b46102ad610072565b9283610278565b565b67ffffffffffffffff81116102d4576102d060209161025a565b0190565b610264565b90825f939282370152565b909291926102f96102f4826102b6565b6102a1565b9381855260208501908284011161031557610313926102d9565b565b610256565b9080601f8301121561033857816020610335933591016102e4565b90565b6100e4565b9060208282031261036d575f82013567ffffffffffffffff811161036857610365920161031a565b90565b610080565b61007c565b61037b90610084565b90565b61038790610372565b9052565b610394906100be565b9052565b5190565b60209181520190565b5f5b8381106103b7575050905f910152565b8060209183015181850152016103a7565b6103e76103f06020936103f5936103de81610398565b9384809361039c565b958691016103a5565b61025a565b0190565b61043691604060608201926104145f8201515f85019061037e565b6104266020820151602085019061038b565b01519060408184039101526103c8565b90565b61044e9160208201915f8184039101526103f9565b90565b346104815761047d61046c61046736600461033d565b610d38565b610474610072565b91829182610439565b0390f35b610078565b9060208282031261049f5761049c915f016100af565b90565b61007c565b346104d2576104bc6104b7366004610486565b610643565b6104c4610072565b806104ce81610181565b0390f35b610078565b5f80fd5b5f90565b5f1c90565b60018060a01b031690565b6104fb610500916104df565b6104e4565b90565b61050d90546104ef565b90565b6105186104db565b506105225f610503565b90565b61052d610582565b610535610565565b565b90565b90565b61055161054c61055692610537565b61053a565b610084565b90565b6105629061053d565b90565b6105766105715f610559565b6106c5565b565b610580610525565b565b61058a610510565b6105a361059d610598610724565b61008f565b9161008f565b036105aa57565b6105d36105b5610724565b6105bd610072565b91829163118cdaa760e01b83526004830161020c565b0390fd5b6105e8906105e3610582565b6105ea565b565b806106056105ff6105fa5f610559565b61008f565b9161008f565b1461061557610613906106c5565b565b61063f6106215f610559565b610629610072565b918291631e4fbdf760e01b83526004830161020c565b0390fd5b61064c906105d7565b565b5f1b90565b9061066460018060a01b039161064e565b9181191691161790565b61068261067d61068792610084565b61053a565b610084565b90565b6106939061066e565b90565b61069f9061068a565b90565b90565b906106ba6106b56106c192610696565b6106a2565b8254610653565b9055565b6106ce5f610503565b6106d8825f6106a5565b9061070c6107067f8be0079c531659141344cd1fd0a4f28419497f9722a3daafe3b4186f6b6457e093610696565b91610696565b91610715610072565b8061071f81610181565b0390a3565b61072c6104db565b503390565b90610745939291610740610582565b610a9a565b565b905090565b90918261075c8161076393610747565b80936102d9565b0190565b90565b61077661077b916100be565b610767565b9052565b61079090602094936107979361074c565b809261076a565b0190565b90916107b2906107a9610072565b9384938461077f565b03902090565b90916107c39261079b565b90565b90565b6107d29061066e565b90565b6107de906107c9565b90565b6107ea906107c9565b90565b90565b9061080561080061080c926107e1565b6107ed565b8254610653565b9055565b9061081c5f199161064e565b9181191691161790565b61083a61083561083f926100be565b61053a565b6100be565b90565b90565b9061085a61085561086192610826565b610842565b8254610810565b9055565b5090565b634e487b7160e01b5f52602260045260245ffd5b906001600283049216801561089d575b602083101461089857565b610869565b91607f169161088d565b5f5260205f2090565b601f602091010490565b1b90565b919060086108d99102916108d35f19846108ba565b926108ba565b9181191691161790565b91906108f96108f461090193610826565b610842565b9083546108be565b9055565b5f90565b61091b91610915610905565b916108e3565b565b5b818110610929575050565b806109365f600193610909565b0161091e565b9190601f811161094c575b505050565b61095861097d936108a7565b906020610964846108b0565b83019310610985575b610976906108b0565b019061091d565b5f8080610947565b91506109768192905061096d565b1c90565b906109a7905f1990600802610993565b191690565b816109b691610997565b906002021790565b916109c99082610865565b9067ffffffffffffffff8211610a88576109ed826109e7855461087d565b8561093c565b5f90601f8311600114610a2057918091610a0f935f92610a14575b50506109ac565b90555b565b90915001355f80610a08565b601f19831691610a2f856108a7565b925f5b818110610a7057509160029391856001969410610a56575b50505002019055610a12565b610a66910135601f841690610997565b90555f8080610a4a565b91936020600181928787013581550195019201610a32565b610264565b90610a9892916109be565b565b91600290610ad8610ae09593610acf610ac7610ac1610abc6001878a916107b8565b6107c6565b976107d5565b5f88016107f0565b60018601610845565b919201610a8d565b565b90610aee939291610731565b565b610afa60606102a1565b90565b5f90565b5f90565b606090565b610b12610af0565b906020808084610b20610afd565b815201610b2b610b01565b815201610b36610b05565b81525050565b610b44610b0a565b90565b610b6c610b6392602092610b5a81610398565b94858093610747565b938491016103a5565b0190565b610b80610b879160209493610b47565b809261076a565b0190565b610b9f610b96610072565b92839283610b70565b03902090565b610bae91610b8b565b90565b60018060a01b031690565b610bc8610bcd916104df565b610bb1565b90565b610bda9054610bbc565b90565b90610be790610372565b9052565b90565b610bfa610bff916104df565b610beb565b90565b610c0c9054610bee565b90565b90610c19906100be565b9052565b905f9291805490610c37610c308361087d565b809461039c565b916001811690815f14610c8e5750600114610c52575b505050565b610c5f91929394506108a7565b915f925b818410610c7657505001905f8080610c4d565b60018160209295939554848601520191019290610c63565b92949550505060ff19168252151560200201905f8080610c4d565b90610cb391610c1d565b90565b90610cd6610ccf92610cc6610072565b93848092610ca9565b0383610278565b565b52565b90610d2a610d216002610cec610af0565b94610d03610cfb5f8301610bd0565b5f8801610bdd565b610d1b610d1260018301610c02565b60208801610c0f565b01610cb6565b60408401610cd8565b565b610d3590610cdb565b90565b610d4f610d5491610d47610b3c565b506001610ba5565b610d2c565b9056fea264697066735822122085ed8e85400e6a43a8586f86b8ef41b7470c88157dfc7c4b5c8a12c281607f5064736f6c63430008150033",
  "immutableReferences": {},
  "source": "// SPDX-License-Identifier: MIT\r\npragma solidity ^0.8.0;\r\n\r\nimport \"@openzeppelin/contracts/access/Ownable.sol\";\r\n\r\ncontract Bank is Ownable{\r\n\r\n    struct Loan{\r\n        address payable target;\r\n        uint256 pendingLoanAmount;\r\n        string pendingLoanMortgage;\r\n    }\r\n\r\n    event created(string mortgage, uint256 amount);\r\n\r\n    mapping(string => Loan) loanRegistry;\r\n\r\n    constructor() Ownable(msg.sender){}\r\n    function createLoan(address _target,uint256 _amount, string calldata _mortgage) external onlyOwner{\r\n        Loan storage newLoan = loanRegistry[_mortgage];\r\n        newLoan.target=payable(_target);\r\n        newLoan.pendingLoanAmount = _amount;\r\n        newLoan.pendingLoanMortgage = _mortgage;\r\n    }\r\n\r\n    function getLoan(string memory _mortgage) public view returns(Loan memory) {\r\n        return(loanRegistry[_mortgage]);\r\n    }\r\n\r\n}",
  "sourcePath": "C:\\Users\\SSAFY\\Desktop\\S10P31C203\\blockchain\\contracts\\Bank.sol",
  "compiler": {
    "name": "solc",
    "version": "0.8.21+commit.d9974bed.Emscripten.clang"
  },
  "schemaVersion": "3.4.16",
  "updatedAt": "2024-05-17T06:44:20.858Z",
  "networkType": "ethereum",
  "devdoc": {
    "errors": {
      "OwnableInvalidOwner(address)": [
        {
          "details": "The owner is not a valid owner account. (eg. `address(0)`)"
        }
      ],
      "OwnableUnauthorizedAccount(address)": [
        {
          "details": "The caller account is not authorized to perform an operation."
        }
      ]
    },
    "kind": "dev",
    "methods": {
      "owner()": {
        "details": "Returns the address of the current owner."
      },
      "renounceOwnership()": {
        "details": "Leaves the contract without owner. It will not be possible to call `onlyOwner` functions. Can only be called by the current owner. NOTE: Renouncing ownership will leave the contract without an owner, thereby disabling any functionality that is only available to the owner."
      },
      "transferOwnership(address)": {
        "details": "Transfers ownership of the contract to a new account (`newOwner`). Can only be called by the current owner."
      }
    },
    "version": 1
  },
  "userdoc": {
    "kind": "user",
    "methods": {},
    "version": 1
  }
}