{
  "contractName": "CitizenshipVCRegistry",
  "abi": [
    {
      "inputs": [],
      "stateMutability": "nonpayable",
      "type": "constructor"
    },
    {
      "inputs": [
        {
          "internalType": "address",
          "name": "owner",
          "type": "address"
        }
      ],
      "name": "OwnableInvalidOwner",
      "type": "error"
    },
    {
      "inputs": [
        {
          "internalType": "address",
          "name": "account",
          "type": "address"
        }
      ],
      "name": "OwnableUnauthorizedAccount",
      "type": "error"
    },
    {
      "anonymous": false,
      "inputs": [
        {
          "indexed": true,
          "internalType": "address",
          "name": "previousOwner",
          "type": "address"
        },
        {
          "indexed": true,
          "internalType": "address",
          "name": "newOwner",
          "type": "address"
        }
      ],
      "name": "OwnershipTransferred",
      "type": "event"
    },
    {
      "anonymous": false,
      "inputs": [
        {
          "indexed": false,
          "internalType": "string",
          "name": "id",
          "type": "string"
        }
      ],
      "name": "VCcreated",
      "type": "event"
    },
    {
      "anonymous": false,
      "inputs": [
        {
          "indexed": false,
          "internalType": "string",
          "name": "id",
          "type": "string"
        }
      ],
      "name": "VCdeleted",
      "type": "event"
    },
    {
      "inputs": [],
      "name": "owner",
      "outputs": [
        {
          "internalType": "address",
          "name": "",
          "type": "address"
        }
      ],
      "stateMutability": "view",
      "type": "function"
    },
    {
      "inputs": [],
      "name": "renounceOwnership",
      "outputs": [],
      "stateMutability": "nonpayable",
      "type": "function"
    },
    {
      "inputs": [
        {
          "internalType": "address",
          "name": "newOwner",
          "type": "address"
        }
      ],
      "name": "transferOwnership",
      "outputs": [],
      "stateMutability": "nonpayable",
      "type": "function"
    },
    {
      "inputs": [
        {
          "internalType": "string",
          "name": "_subject",
          "type": "string"
        },
        {
          "internalType": "uint256",
          "name": "_issuanceDate",
          "type": "uint256"
        },
        {
          "internalType": "bytes32",
          "name": "_r",
          "type": "bytes32"
        },
        {
          "internalType": "bytes32",
          "name": "_s",
          "type": "bytes32"
        },
        {
          "internalType": "uint8",
          "name": "_v",
          "type": "uint8"
        }
      ],
      "name": "claimCredential",
      "outputs": [],
      "stateMutability": "nonpayable",
      "type": "function"
    },
    {
      "inputs": [
        {
          "internalType": "string",
          "name": "_id",
          "type": "string"
        }
      ],
      "name": "verifyCredential",
      "outputs": [
        {
          "internalType": "bool",
          "name": "",
          "type": "bool"
        }
      ],
      "stateMutability": "view",
      "type": "function"
    },
    {
      "inputs": [
        {
          "internalType": "string",
          "name": "id",
          "type": "string"
        }
      ],
      "name": "getVC",
      "outputs": [
        {
          "components": [
            {
              "internalType": "string",
              "name": "issuer",
              "type": "string"
            },
            {
              "internalType": "string",
              "name": "subject",
              "type": "string"
            },
            {
              "internalType": "uint256",
              "name": "issuanceDate",
              "type": "uint256"
            },
            {
              "internalType": "string",
              "name": "value",
              "type": "string"
            },
            {
              "components": [
                {
                  "internalType": "bytes32",
                  "name": "r",
                  "type": "bytes32"
                },
                {
                  "internalType": "bytes32",
                  "name": "s",
                  "type": "bytes32"
                },
                {
                  "internalType": "uint8",
                  "name": "v",
                  "type": "uint8"
                }
              ],
              "internalType": "struct CitizenshipVCRegistry.Proof",
              "name": "proof",
              "type": "tuple"
            }
          ],
          "internalType": "struct CitizenshipVCRegistry.Credential",
          "name": "",
          "type": "tuple"
        }
      ],
      "stateMutability": "view",
      "type": "function"
    },
    {
      "inputs": [
        {
          "internalType": "string",
          "name": "id",
          "type": "string"
        }
      ],
      "name": "deleteVC",
      "outputs": [],
      "stateMutability": "nonpayable",
      "type": "function"
    }
  ],
  "bytecode": "0x6080604052346200002d57620000146200003d565b6200001e62000033565b61191362000258823961191390f35b62000039565b60405190565b5f80fd5b6200004833620000bf565b565b90565b60018060a01b031690565b90565b620000746200006e6200007a926200004a565b62000058565b6200004d565b90565b62000088906200005b565b90565b62000096906200004d565b90565b620000a4906200008b565b9052565b9190620000bd905f6020850194019062000099565b565b80620000e0620000d9620000d35f6200007d565b6200008b565b916200008b565b14620000f357620000f190620001ec565b565b62000123620001025f6200007d565b6200010c62000033565b918291631e4fbdf760e01b835260048301620000a8565b0390fd5b5f1c90565b60018060a01b031690565b620001466200014c9162000127565b6200012c565b90565b6200015b905462000137565b90565b5f1b90565b906200017660018060a01b03916200015e565b9181191691161790565b62000199620001936200019f926200004d565b62000058565b6200004d565b90565b620001ad9062000180565b90565b620001bb90620001a2565b90565b90565b90620001db620001d5620001e392620001b0565b620001be565b825462000163565b9055565b5f0190565b620001f75f6200014f565b62000203825f620001c1565b906200023b620002347f8be0079c531659141344cd1fd0a4f28419497f9722a3daafe3b4186f6b6457e093620001b0565b91620001b0565b916200024662000033565b806200025281620001e7565b0390a356fe60806040526004361015610013575b61068d565b61001d5f3561008c565b80630289a8fe14610087578063715018a6146100825780638da5cb5b1461007d578063bb3670ab14610078578063d905515a14610073578063f2fde38b1461006e5763f6ebfb550361000e57610653565b610548565b6104d1565b610351565b6101d9565b61016d565b61012a565b60e01c90565b60405190565b5f80fd5b5f80fd5b5f80fd5b5f80fd5b5f80fd5b5f80fd5b909182601f830112156100ea5781359167ffffffffffffffff83116100e55760200192600183028401116100e057565b6100ac565b6100a8565b6100a4565b90602082820312610120575f82013567ffffffffffffffff811161011b5761011792016100b0565b9091565b6100a0565b61009c565b5f0190565b346101595761014361013d3660046100ef565b906118d1565b61014b610092565b8061015581610125565b0390f35b610098565b5f91031261016857565b61009c565b3461019b5761017d36600461015e565b61018561072e565b61018d610092565b8061019781610125565b0390f35b610098565b60018060a01b031690565b6101b4906101a0565b90565b6101c0906101ab565b9052565b91906101d7905f602085019401906101b7565b565b34610209576101e936600461015e565b6102056101f46106c6565b6101fc610092565b918291826101c4565b0390f35b610098565b5f80fd5b601f801991011690565b634e487b7160e01b5f52604160045260245ffd5b9061023a90610212565b810190811067ffffffffffffffff82111761025457604052565b61021c565b9061026c610265610092565b9283610230565b565b67ffffffffffffffff811161028c57610288602091610212565b0190565b61021c565b90825f939282370152565b909291926102b16102ac8261026e565b610259565b938185526020850190828401116102cd576102cb92610291565b565b61020e565b9080601f830112156102f0578160206102ed9335910161029c565b90565b6100a4565b90602082820312610325575f82013567ffffffffffffffff81116103205761031d92016102d2565b90565b6100a0565b61009c565b151590565b6103389061032a565b9052565b919061034f905f6020850194019061032f565b565b346103815761037d61036c6103673660046102f5565b61126c565b610374610092565b9182918261033c565b0390f35b610098565b5190565b60209181520190565b5f5b8381106103a5575050905f910152565b806020918301518185015201610395565b6103d56103de6020936103e3936103cc81610386565b9384809361038a565b95869101610393565b610212565b0190565b90565b6103f3906103e7565b9052565b90565b610403906103f7565b9052565b60ff1690565b61041690610407565b9052565b9060408061044e936104325f8201515f8601906103fa565b610444602082015160208601906103fa565b015191019061040d565b565b906104b6906080806104ab61048761047560e086015f8901518782035f8901526103b6565b602088015186820360208801526103b6565b610499604088015160408701906103ea565b606087015185820360608701526103b6565b94015191019061041a565b90565b6104ce9160208201915f818403910152610450565b90565b34610502576104fe6104ed6104e73660046100ef565b90611593565b6104f5610092565b918291826104b9565b0390f35b610098565b610510816101ab565b0361051757565b5f80fd5b9050359061052882610507565b565b9060208282031261054357610540915f0161051b565b90565b61009c565b346105765761056061055b36600461052a565b6107f9565b610568610092565b8061057281610125565b0390f35b610098565b610584816103e7565b0361058b57565b5f80fd5b9050359061059c8261057b565b565b6105a7816103f7565b036105ae57565b5f80fd5b905035906105bf8261059e565b565b6105ca81610407565b036105d157565b5f80fd5b905035906105e2826105c1565b565b9160a08383031261064e575f83013567ffffffffffffffff8111610649578261060e9185016100b0565b92909361061e826020830161058f565b9261064661062f84604085016105b2565b9361063d81606086016105b2565b936080016105d5565b90565b6100a0565b61009c565b34610688576106726106663660046105e4565b94939093929192610fd4565b61067a610092565b8061068481610125565b0390f35b610098565b5f80fd5b5f90565b5f1c90565b60018060a01b031690565b6106b16106b691610695565b61069a565b90565b6106c390546106a5565b90565b6106ce610691565b506106d85f6106b9565b90565b6106e3610738565b6106eb61071b565b565b90565b90565b61070761070261070c926106ed565b6106f0565b6101a0565b90565b610718906106f3565b90565b61072c6107275f61070f565b61087b565b565b6107366106db565b565b6107406106c6565b61075961075361074e6108da565b6101ab565b916101ab565b0361076057565b61078961076b6108da565b610773610092565b91829163118cdaa760e01b8352600483016101c4565b0390fd5b61079e90610799610738565b6107a0565b565b806107bb6107b56107b05f61070f565b6101ab565b916101ab565b146107cb576107c99061087b565b565b6107f56107d75f61070f565b6107df610092565b918291631e4fbdf760e01b8352600483016101c4565b0390fd5b6108029061078d565b565b5f1b90565b9061081a60018060a01b0391610804565b9181191691161790565b61083861083361083d926101a0565b6106f0565b6101a0565b90565b61084990610824565b90565b61085590610840565b90565b90565b9061087061086b6108779261084c565b610858565b8254610809565b9055565b6108845f6106b9565b61088e825f61085b565b906108c26108bc7f8be0079c531659141344cd1fd0a4f28419497f9722a3daafe3b4186f6b6457e09361084c565b9161084c565b916108cb610092565b806108d581610125565b0390a3565b6108e2610691565b503390565b906108fd95949392916108f8610738565b610f14565b565b905090565b9091826109148161091b936108ff565b8093610291565b0190565b90565b61092e610933916103e7565b61091f565b9052565b610948906020949361094f93610904565b8092610922565b0190565b909161096a90610961610092565b93849384610937565b03902090565b909161097b92610953565b90565b90565b634e487b7160e01b5f525f60045260245ffd5b634e487b7160e01b5f52602260045260245ffd5b90600160028304921680156109c8575b60208310146109c357565b610994565b91607f16916109b8565b5f5260205f2090565b601f602091010490565b1b90565b91906008610a049102916109fe5f19846109e5565b926109e5565b9181191691161790565b610a22610a1d610a27926103e7565b6106f0565b6103e7565b90565b90565b9190610a43610a3e610a4b93610a0e565b610a2a565b9083546109e9565b9055565b5f90565b610a6591610a5f610a4f565b91610a2d565b565b5b818110610a73575050565b80610a805f600193610a53565b01610a68565b9190601f8111610a96575b505050565b610aa2610ac7936109d2565b906020610aae846109db565b83019310610acf575b610ac0906109db565b0190610a67565b5f8080610a91565b9150610ac081929050610ab7565b6001610b227f623135306637666134396339306538383061630000000000000000000000000092610b196033610b1383546109a8565b83610a86565b606781556109d2565b7f6469643a6b6c61793a30783437613534623436373730636338333938333063625f8201550155565b610b5490610add565b565b5090565b5f5260205f2090565b9190601f8111610b73575b505050565b610b7f610ba493610b5a565b906020610b8b846109db565b83019310610bac575b610b9d906109db565b0190610a67565b5f8080610b6e565b9150610b9d81929050610b94565b1c90565b90610bce905f1990600802610bba565b191690565b81610bdd91610bbe565b906002021790565b91610bf09082610b56565b9067ffffffffffffffff8211610caf57610c1482610c0e85546109a8565b85610b63565b5f90601f8311600114610c4757918091610c36935f92610c3b575b5050610bd3565b90555b565b90915001355f80610c2f565b601f19831691610c5685610b5a565b925f5b818110610c9757509160029391856001969410610c7d575b50505002019055610c39565b610c8d910135601f841690610bbe565b90555f8080610c71565b91936020600181928787013581550195019201610c59565b61021c565b90610cbf9291610be5565b565b90610ccd5f1991610804565b9181191691161790565b90610cec610ce7610cf392610a0e565b610a2a565b8254610cc1565b9055565b610d0c6011610d0683546109a8565b83610a86565b60227f52657075626c6963206f66204b6f726561000000000000000000000000000000019055565b610d3d90610cf7565b565b610d496060610259565b90565b90610d56906103f7565b9052565b90610d6490610407565b9052565b610d7290516103f7565b90565b610d7e906103f7565b90565b610d8a90610695565b90565b90610da2610d9d610da992610d75565b610d81565b8254610cc1565b9055565b610db79051610407565b90565b90610dc660ff91610804565b9181191691161790565b610de4610ddf610de992610407565b6106f0565b610407565b90565b90565b90610e04610dff610e0b92610dd0565b610dec565b8254610dba565b9055565b90610e5360406002610e5994610e325f8201610e2c5f8801610d68565b90610d8d565b610e4b60018201610e4560208801610d68565b90610d8d565b019201610dad565b90610def565b565b90610e6591610e0f565b565b60209181520190565b905f9291805490610e8a610e83836109a8565b8094610e67565b916001811690815f14610ee15750600114610ea5575b505050565b610eb29192939450610b5a565b915f925b818410610ec957505001905f8080610ea0565b60018160209295939554848601520191019290610eb6565b92949550505060ff19168252151560200201905f8080610ea0565b610f119160208201915f818403910152610e70565b90565b939194610f86610f9894610f5c600198610f53610f8f96610f3f610f3a8d8d8491610970565b61097e565b9a610f4b5f8d01610b4b565b8c8c01610cb4565b60028901610cd7565b610f6860038801610d34565b93610f7d610f74610d3f565b955f8701610d4c565b60208501610d4c565b60408301610d5a565b60048301610e5b565b01610fcf7f654d76f61e4e7047f6181124017f2f814cd81e4b075b0ef23e6bc07d12dcffb291610fc6610092565b91829182610efc565b0390a1565b90610fe295949392916108e7565b565b5f90565b61100d61100492602092610ffb81610386565b948580936108ff565b93849101610393565b0190565b6110216110289160209493610fe8565b8092610922565b0190565b611040611037610092565b92839283611011565b03902090565b61104f9161102c565b90565b90565b61106161106691610695565b611052565b90565b6110739054611055565b90565b905f9291805490611090611089836109a8565b809461038a565b916001811690815f146110e757506001146110ab575b505050565b6110b89192939450610b5a565b915f925b8184106110cf57505001905f80806110a6565b600181602092959395548486015201910192906110bc565b92949550505060ff19168252151560200201905f80806110a6565b9061110c91611076565b90565b9061112f6111289261111f610092565b93848092611102565b0383610230565b565b61113a9061110f565b90565b5f7f19457468657265756d205369676e6564204d6573736167653a0a333200000000910152565b611170601c80926108ff565b6111798161113d565b0190565b90565b61118c611191916103f7565b61117d565b9052565b906111ab6111a4602093611164565b8092611180565b0190565b60200190565b5190565b60ff1690565b6111cb6111d091610695565b6111b9565b90565b6111dd90546111bf565b90565b90565b6111ef6111f491610695565b6111e0565b90565b61120190546111e3565b90565b61120d906103f7565b9052565b61121a90610407565b9052565b61125361125a9461124960609498979561123f608086019a5f870190611204565b6020850190611211565b6040830190611204565b0190611204565b565b611264610092565b3d5f823e3d90fd5b5f61128b61128660209361127e610fe4565b506001611046565b61097e565b6112d36112e16112c0600184016112a460028601611069565b6112ba6112b46003880193611131565b92611131565b91611398565b6112c8610092565b928391878301611195565b868201810382520382610230565b6112f36112ed826111b5565b916111af565b20611335611306600260048501016111d3565b926113236001600461131b88828601016111f7565b9301016111f7565b9061132c610092565b9485948561121e565b838052039060015afa1561136a5761134d5f51610804565b61136661136061135b6106c6565b6101ab565b916101ab565b1490565b61125c565b5f90565b9161138e6113876113959594602094610fe8565b8092610922565b0190610fe8565b90565b906113bf6113ce926113a861136f565b5091936113b3610092565b94859360208501611373565b60208201810382520382610230565b6113e06113da826111b5565b916111af565b2090565b6113ee60a0610259565b90565b606090565b5f90565b6114046060610259565b90565b5f90565b5f90565b6114176113fa565b906020808084611425611407565b815201611430611407565b81520161143b61140b565b81525050565b61144961140f565b90565b6114546113e4565b90602080808080866114646113f1565b81520161146f6113f1565b81520161147a6113f6565b8152016114856113f1565b815201611490611441565b81525050565b61149e61144c565b90565b52565b906114ae906103e7565b9052565b906115016114f860026114c36113fa565b946114da6114d25f83016111f7565b5f8801610d4c565b6114f26114e9600183016111f7565b60208801610d4c565b016111d3565b60408401610d5a565b565b52565b9061158561157c60046115176113e4565b9461152e6115265f830161110f565b5f88016114a1565b61154661153d6001830161110f565b602088016114a1565b61155e61155560028301611069565b604088016114a4565b61157661156d6003830161110f565b606088016114a1565b016114b2565b60808401611503565b565b61159090611506565b90565b6115ae906115b3926115a3611496565b506001919091610970565b611587565b90565b906115c8916115c3610738565b61187f565b565b906115dd905f1990602003600802610bba565b8154169055565b905f916115fb6115f382610b5a565b928354610bd3565b905555565b919290602082105f1461165957601f841160011461162957611623929350610bd3565b90555b5b565b509061164f61165493600161164661164085610b5a565b926109db565b82019101610a67565b6115e4565b611626565b50611690829361166a600194610b5a565b611689611676856109db565b820192601f86168061169b575b506109db565b0190610a67565b600202179055611627565b6116a7908886036115ca565b5f611683565b92909168010000000000000000821161170d576020115f146116fe57602081105f146116e2576116dc91610bd3565b90555b5b565b60019160ff19166116f284610b5a565b556002020190556116df565b600191506002020190556116e0565b61021c565b90815461171e816109a8565b90818311611747575b818310611735575b50505050565b61173e93611600565b5f80808061172f565b611753838383876116ad565b611727565b5f61176291611712565b565b905f036117765761177490611758565b565b610981565b919061179161178c61179993610d75565b610d81565b9083546109e9565b9055565b6117af916117a961136f565b9161177b565b565b60025f916117c18380830161179d565b6117ce836001830161179d565b0155565b905f036117e4576117e2906117b1565b565b610981565b5f6004611829926117fc83808301611764565b6118098360018301611764565b6118168360028301610a53565b6118238360038301611764565b016117d2565b565b905f0361183d5761183b906117e9565b565b610981565b919061185c816118558161186195610e67565b8095610291565b610212565b0190565b909161187c9260208301925f818503910152611842565b90565b6118955f6118906001848691610970565b61182b565b907ff73018c7f397f59e4dfbab5fc1e381788eac8b63cb77e818c984c4e18313b434916118cc6118c3610092565b92839283611865565b0390a1565b906118db916115b6565b56fea26469706673582212200cda0227ab12cf8f3c1dbba5f2c3966899360e15ca80ffa0e36ae2bc97d9d27e64736f6c63430008150033",
  "immutableReferences": {},
  "source": "// SPDX-License-Identifier: MIT\r\npragma solidity ^0.8.0;\r\n\r\nimport \"@openzeppelin/contracts/access/Ownable.sol\";\r\nimport \"@openzeppelin/contracts/utils/Strings.sol\";\r\n\r\ncontract CitizenshipVCRegistry is Ownable{\r\n\r\n    struct Proof{\r\n        bytes32 r;\r\n        bytes32 s;\r\n        uint8 v;\r\n    }\r\n\r\n    struct Credential{\r\n        string issuer;\r\n        string subject;\r\n        uint256 issuanceDate;\r\n        string value; //   \r\n        Proof proof;\r\n    }\r\n\r\n    mapping( string => Credential) credentials;\r\n    constructor() Ownable(msg.sender) {}\r\n\r\n    event VCcreated(string id);\r\n    event VCdeleted(string id);\r\n\r\n    function getMessageHash(\r\n        string memory _subject, uint256 _issuanceDate, string memory  _value) private pure returns (bytes32){\r\n        return keccak256(abi.encodePacked(_subject, _issuanceDate,_value));\r\n    }\r\n\r\n    function claimCredential(\r\n        string calldata _subject, uint256 _issuanceDate, bytes32 _r, bytes32 _s, uint8 _v) external onlyOwner{\r\n\r\n        Credential storage newCredential = credentials[_subject];\r\n        newCredential.issuer=\"did:klay:0x47a54b46770cc839830cbb150f7fa49c90e880ac\"; // DID\r\n        newCredential.subject=_subject;\r\n        newCredential.issuanceDate=_issuanceDate;\r\n        newCredential.value=\"Republic of Korea\";\r\n        newCredential.proof=Proof(_r,_s,_v);\r\n\r\n        emit VCcreated(newCredential.subject);\r\n    }\r\n\r\n    function verifyCredential(string memory _id) public view returns (bool) {\r\n        Credential storage vc = credentials[_id];\r\n        bytes32 messageHash = getMessageHash(vc.subject, vc.issuanceDate, vc.value);\r\n        bytes32 ethSignedMessageHash = keccak256(\r\n            abi.encodePacked(\"\\x19Ethereum Signed Message:\\n32\", messageHash)\r\n        );\r\n\r\n        // ecrecover    \r\n        address recoveredSigner = ecrecover(ethSignedMessageHash, vc.proof.v, vc.proof.r, vc.proof.s);\r\n        return (recoveredSigner == owner());\r\n    }\r\n\r\n    function getVC(string calldata id) external view returns (Credential memory) {\r\n        return credentials[id];\r\n    }\r\n\r\n    function deleteVC(string calldata id) external onlyOwner {\r\n        delete credentials[id];\r\n        emit VCdeleted(id);\r\n    }\r\n\r\n}",
  "sourcePath": "C:\\Users\\SSAFY\\Desktop\\S10P31C203\\blockchain\\contracts\\CitizenshipVCRegistry.sol",
  "compiler": {
    "name": "solc",
    "version": "0.8.21+commit.d9974bed.Emscripten.clang"
  },
  "schemaVersion": "3.4.16",
  "updatedAt": "2024-05-17T06:44:13.093Z",
  "devdoc": {
    "errors": {
      "OwnableInvalidOwner(address)": [
        {
          "details": "The owner is not a valid owner account. (eg. `address(0)`)"
        }
      ],
      "OwnableUnauthorizedAccount(address)": [
        {
          "details": "The caller account is not authorized to perform an operation."
        }
      ]
    },
    "kind": "dev",
    "methods": {
      "owner()": {
        "details": "Returns the address of the current owner."
      },
      "renounceOwnership()": {
        "details": "Leaves the contract without owner. It will not be possible to call `onlyOwner` functions. Can only be called by the current owner. NOTE: Renouncing ownership will leave the contract without an owner, thereby disabling any functionality that is only available to the owner."
      },
      "transferOwnership(address)": {
        "details": "Transfers ownership of the contract to a new account (`newOwner`). Can only be called by the current owner."
      }
    },
    "version": 1
  },
  "userdoc": {
    "kind": "user",
    "methods": {},
    "version": 1
  }
}