{
  "contractName": "Loan",
  "abi": [
    {
      "inputs": [
        {
          "internalType": "address payable",
          "name": "_target",
          "type": "address"
        }
      ],
      "stateMutability": "nonpayable",
      "type": "constructor"
    },
    {
      "anonymous": false,
      "inputs": [
        {
          "indexed": false,
          "internalType": "string",
          "name": "mortgage",
          "type": "string"
        },
        {
          "indexed": false,
          "internalType": "uint256",
          "name": "amount",
          "type": "uint256"
        }
      ],
      "name": "Borrowed",
      "type": "event"
    },
    {
      "inputs": [],
      "name": "pendingLoanAmount",
      "outputs": [
        {
          "internalType": "uint256",
          "name": "",
          "type": "uint256"
        }
      ],
      "stateMutability": "view",
      "type": "function"
    },
    {
      "inputs": [],
      "name": "pendingLoanMortgage",
      "outputs": [
        {
          "internalType": "string",
          "name": "",
          "type": "string"
        }
      ],
      "stateMutability": "view",
      "type": "function"
    },
    {
      "inputs": [
        {
          "internalType": "string",
          "name": "mortgage",
          "type": "string"
        },
        {
          "internalType": "uint256",
          "name": "amount",
          "type": "uint256"
        }
      ],
      "name": "sendLoanRequest",
      "outputs": [],
      "stateMutability": "nonpayable",
      "type": "function"
    },
    {
      "inputs": [],
      "name": "assignLoanRequest",
      "outputs": [],
      "stateMutability": "nonpayable",
      "type": "function"
    }
  ],
  "bytecode": "0x60806040523462000037576200001e6200001862000110565b620001d0565b620000286200003d565b610bc96200020a8239610bc990f35b62000043565b60405190565b5f80fd5b601f801991011690565b634e487b7160e01b5f52604160045260245ffd5b90620000719062000047565b810190811060018060401b038211176200008a57604052565b62000051565b90620000a76200009f6200003d565b928362000065565b565b5f80fd5b60018060a01b031690565b620000c390620000ad565b90565b620000d181620000b8565b03620000d957565b5f80fd5b90505190620000ec82620000c6565b565b906020828203126200010a5762000107915f01620000dd565b90565b620000a9565b6200013362000dd380380380620001278162000090565b928339810190620000ee565b90565b90565b620001526200014c6200015892620000ad565b62000136565b620000ad565b90565b620001669062000139565b90565b62000174906200015b565b90565b5f1b90565b906200018f60018060a01b039162000177565b9181191691161790565b620001a4906200015b565b90565b90565b90620001c4620001be620001cc9262000199565b620001a7565b82546200017c565b9055565b6200020790620001ff620001f873c0a88521a8669e453c02d37ceed99dbb0a4dc50862000169565b5f620001aa565b6001620001aa565b56fe60806040526004361015610013575b6104cb565b61001d5f3561005c565b806301ec4aee146100575780636c4325aa14610052578063d4956fd21461004d5763d8721e000361000e57610496565b610404565b6102bc565b610084565b60e01c90565b60405190565b5f80fd5b5f80fd5b5f91031261007a57565b61006c565b5f0190565b346100b257610094366004610070565b61009c610aa8565b6100a4610062565b806100ae8161007f565b0390f35b610068565b634e487b7160e01b5f525f60045260245ffd5b634e487b7160e01b5f52602260045260245ffd5b90600160028304921680156100fe575b60208310146100f957565b6100ca565b91607f16916100ee565b60209181520190565b5f5260205f2090565b905f929180549061013461012d836100de565b8094610108565b916001811690815f1461018b575060011461014f575b505050565b61015c9192939450610111565b915f925b81841061017357505001905f808061014a565b60018160209295939554848601520191019290610160565b92949550505060ff19168252151560200201905f808061014a565b906101b09161011a565b90565b601f801991011690565b634e487b7160e01b5f52604160045260245ffd5b906101db906101b3565b810190811067ffffffffffffffff8211176101f557604052565b6101bd565b9061021a6102139261020a610062565b938480926101a6565b03836101d1565b565b905f1061022f5761022c906101fa565b90565b6100b7565b61024060035f9061021c565b90565b5190565b60209181520190565b5f5b838110610262575050905f910152565b806020918301518185015201610252565b61029261029b6020936102a09361028981610243565b93848093610247565b95869101610250565b6101b3565b0190565b6102b99160208201915f818403910152610273565b90565b346102ec576102cc366004610070565b6102e86102d7610234565b6102df610062565b918291826102a4565b0390f35b610068565b5f80fd5b5f80fd5b5f80fd5b90610310610309610062565b92836101d1565b565b67ffffffffffffffff81116103305761032c6020916101b3565b0190565b6101bd565b90825f939282370152565b9092919261035561035082610312565b6102fd565b938185526020850190828401116103715761036f92610335565b565b6102f9565b9080601f830112156103945781602061039193359101610340565b90565b6102f5565b90565b6103a581610399565b036103ac57565b5f80fd5b905035906103bd8261039c565b565b91906040838203126103ff575f8301359067ffffffffffffffff82116103fa576103ee816103f7938601610376565b936020016103b0565b90565b6102f1565b61006c565b346104335761041d6104173660046103bf565b90610835565b610425610062565b8061042f8161007f565b0390f35b610068565b1c90565b90565b61044f9060086104549302610438565b61043c565b90565b90610462915461043f565b90565b61047160025f90610457565b90565b61047d90610399565b9052565b9190610494905f60208501940190610474565b565b346104c6576104a6366004610070565b6104c26104b1610465565b6104b9610062565b91829182610481565b0390f35b610068565b5f80fd5b5f1c90565b60018060a01b031690565b6104eb6104f0916104cf565b6104d4565b90565b6104fd90546104df565b90565b60018060a01b031690565b61051490610500565b90565b90565b61052e61052961053392610500565b610517565b610500565b90565b61053f9061051a565b90565b61054b90610536565b90565b60207f6571756573742061206c6f616e00000000000000000000000000000000000000917f4f6e6c79207468652064657369676e61746564207461726765742063616e20725f8201520152565b6105a8602d604092610247565b6105b18161054e565b0190565b6105ca9060208101905f81830391015261059b565b90565b156105d457565b6105dc610062565b62461bcd60e51b8152806105f2600482016105b5565b0390fd5b5f1b90565b906106075f19916105f6565b9181191691161790565b61062561062061062a92610399565b610517565b610399565b90565b90565b9061064561064061064c92610611565b61062d565b82546105fb565b9055565b601f602091010490565b1b90565b919060086106799102916106735f198461065a565b9261065a565b9181191691161790565b91906106996106946106a193610611565b61062d565b90835461065e565b9055565b5f90565b6106bb916106b56106a5565b91610683565b565b5b8181106106c9575050565b806106d65f6001936106a9565b016106be565b9190601f81116106ec575b505050565b6106f861071d93610111565b90602061070484610650565b83019310610725575b61071690610650565b01906106bd565b5f80806106e7565b91506107168192905061070d565b90610743905f1990600802610438565b191690565b8161075291610733565b906002021790565b9061076481610243565b9067ffffffffffffffff8211610824576107888261078285546100de565b856106dc565b602090601f83116001146107bc579180916107ab935f926107b0575b5050610748565b90555b565b90915001515f806107a4565b601f198316916107cb85610111565b925f5b81811061080c575091600293918560019694106107f2575b505050020190556107ae565b610802910151601f841690610733565b90555f80806107e6565b919360206001819287870151815501950192016107ce565b6101bd565b906108339161075a565b565b61086861086f926108613361085b61085561085060016104f3565b610542565b9161050b565b146105cd565b6002610630565b6003610829565b565b61087d610882916104cf565b61043c565b90565b61088f9054610871565b90565b90565b6108a96108a46108ae92610892565b610517565b610399565b90565b5f7f4e6f2070656e64696e67206c6f616e20616d6f756e7420746f2061737369676e910152565b6108e460208092610247565b6108ed816108b1565b0190565b6109069060208101905f8183039101526108d8565b90565b1561091057565b610918610062565b62461bcd60e51b81528061092e600482016108f1565b0390fd5b61093b90610536565b90565b60207f6374000000000000000000000000000000000000000000000000000000000000917f496e73756666696369656e742066756e647320696e2074686520636f6e7472615f8201520152565b6109986022604092610247565b6109a18161093e565b0190565b6109ba9060208101905f81830391015261098b565b90565b156109c457565b6109cc610062565b62461bcd60e51b8152806109e2600482016109a5565b0390fd5b6109ee610062565b3d5f823e3d90fd5b905f9291805490610a10610a09836100de565b8094610247565b916001811690815f14610a675750600114610a2b575b505050565b610a389192939450610111565b915f925b818410610a4f57505001905f8080610a26565b60018160209295939554848601520191019290610a3c565b92949550505060ff19168252151560200201905f8080610a26565b92916020610a9e610aa69360408701908782035f8901526109f6565b940190610474565b565b610acd610ab56002610885565b610ac7610ac15f610895565b91610399565b11610909565b610afc610ad930610932565b31610af5610aef610aea6002610885565b610399565b91610399565b10156109bd565b5f808080610b12610b0d60016104f3565b610542565b610b1c6002610885565b90828215610b8a575bf115610b85576003610b376002610885565b7ffc30ec1bee3b4fb527f0d90b4bbbf5a24b72f0964679ff277df1895e8ad2395791610b6d610b64610062565b92839283610a82565b0390a1610b83610b7c5f610895565b6002610630565b565b6109e6565b506108fc610b2556fea2646970667358221220bb6ba88566c803fece4e399f822371dbf909e92873179f2ac27da3d727fdb53064736f6c63430008150033",
  "immutableReferences": {},
  "source": "// SPDX-License-Identifier: MIT\r\npragma solidity ^0.8.0;\r\n\r\nimport \"@openzeppelin/contracts/access/Ownable.sol\";\r\n\r\ncontract Loan {\r\n\r\n    address payable private bankAccount;\r\n    address payable private target;\r\n\r\n    uint256 public pendingLoanAmount;\r\n    string public pendingLoanMortgage;\r\n\r\n    mapping(string => uint256) mortgageAmounts;\r\n\r\n    constructor(address payable _target) {\r\n\r\n        bankAccount = payable(0xC0a88521a8669e453c02D37cEed99dBb0a4dc508);\r\n        target = _target;\r\n    }\r\n\r\n    event Borrowed(string mortgage, uint256 amount);\r\n\r\n    function sendLoanRequest(string memory mortgage, uint256 amount) external {\r\n        require(msg.sender == target, \"Only the designated target can request a loan\");\r\n        pendingLoanAmount = amount;\r\n        pendingLoanMortgage = mortgage;\r\n    }\r\n\r\n    function assignLoanRequest() external {\r\n        require(pendingLoanAmount > 0, \"No pending loan amount to assign\");\r\n        require(address(this).balance >= pendingLoanAmount, \"Insufficient funds in the contract\");\r\n\r\n        target.transfer(pendingLoanAmount); // 대출 금액을 target에게 이체\r\n        \r\n        emit Borrowed(pendingLoanMortgage, pendingLoanAmount); // 이벤트 로깅\r\n\r\n        pendingLoanAmount = 0; // 대출 금액 초기화\r\n    }\r\n\r\n}",
  "sourcePath": "C:\\Users\\SSAFY\\Desktop\\S10P31C203\\blockchain\\contracts\\Loan.sol",
  "compiler": {
    "name": "solc",
    "version": "0.8.21+commit.d9974bed.Emscripten.clang"
  },
  "schemaVersion": "3.4.16",
  "updatedAt": "2024-05-14T08:09:25.732Z",
  "devdoc": {
    "kind": "dev",
    "methods": {},
    "version": 1
  },
  "userdoc": {
    "kind": "user",
    "methods": {},
    "version": 1
  }
}