{
  "contractName": "Loan",
  "abi": [
    {
      "inputs": [
        {
          "internalType": "address payable",
          "name": "_target",
          "type": "address"
        },
        {
          "internalType": "uint256",
          "name": "_pendingLoanAmount",
          "type": "uint256"
        },
        {
          "internalType": "string",
          "name": "_pendingLoanMortgage",
          "type": "string"
        }
      ],
      "stateMutability": "nonpayable",
      "type": "constructor"
    },
    {
      "inputs": [
        {
          "internalType": "address",
          "name": "owner",
          "type": "address"
        }
      ],
      "name": "OwnableInvalidOwner",
      "type": "error"
    },
    {
      "inputs": [
        {
          "internalType": "address",
          "name": "account",
          "type": "address"
        }
      ],
      "name": "OwnableUnauthorizedAccount",
      "type": "error"
    },
    {
      "anonymous": false,
      "inputs": [
        {
          "indexed": true,
          "internalType": "address",
          "name": "previousOwner",
          "type": "address"
        },
        {
          "indexed": true,
          "internalType": "address",
          "name": "newOwner",
          "type": "address"
        }
      ],
      "name": "OwnershipTransferred",
      "type": "event"
    },
    {
      "anonymous": false,
      "inputs": [
        {
          "indexed": false,
          "internalType": "string",
          "name": "mortgage",
          "type": "string"
        },
        {
          "indexed": false,
          "internalType": "uint256",
          "name": "amount",
          "type": "uint256"
        }
      ],
      "name": "created",
      "type": "event"
    },
    {
      "inputs": [],
      "name": "owner",
      "outputs": [
        {
          "internalType": "address",
          "name": "",
          "type": "address"
        }
      ],
      "stateMutability": "view",
      "type": "function"
    },
    {
      "inputs": [],
      "name": "pendingLoanAmount",
      "outputs": [
        {
          "internalType": "uint256",
          "name": "",
          "type": "uint256"
        }
      ],
      "stateMutability": "view",
      "type": "function"
    },
    {
      "inputs": [],
      "name": "pendingLoanMortgage",
      "outputs": [
        {
          "internalType": "string",
          "name": "",
          "type": "string"
        }
      ],
      "stateMutability": "view",
      "type": "function"
    },
    {
      "inputs": [],
      "name": "renounceOwnership",
      "outputs": [],
      "stateMutability": "nonpayable",
      "type": "function"
    },
    {
      "inputs": [
        {
          "internalType": "address",
          "name": "newOwner",
          "type": "address"
        }
      ],
      "name": "transferOwnership",
      "outputs": [],
      "stateMutability": "nonpayable",
      "type": "function"
    }
  ],
  "bytecode": "0x60806040523462000038576200001f620000186200022e565b91620006bf565b620000296200003e565b610709620008f5823961070990f35b62000044565b60405190565b5f80fd5b601f801991011690565b634e487b7160e01b5f52604160045260245ffd5b90620000729062000048565b810190811060018060401b038211176200008b57604052565b62000052565b90620000a8620000a06200003e565b928362000066565b565b5f80fd5b5f80fd5b60018060a01b031690565b620000c890620000b2565b90565b620000d681620000bd565b03620000de57565b5f80fd5b90505190620000f182620000cb565b565b90565b6200010181620000f3565b036200010957565b5f80fd5b905051906200011c82620000f6565b565b5f80fd5b5f80fd5b60018060401b03811162000145576200014160209162000048565b0190565b62000052565b5f5b8381106200015e575050905f910152565b8060209183015181850152016200014d565b9092919262000189620001838262000126565b62000091565b93818552602085019082840111620001a857620001a6926200014b565b565b62000122565b9080601f83011215620001cf57816020620001cc9351910162000170565b90565b6200011e565b916060838303126200022857620001ef825f8501620000e2565b92620001ff83602083016200010d565b92604082015160018060401b03811162000222576200021f9201620001ae565b90565b620000ae565b620000aa565b6200025162000ffe80380380620002458162000091565b928339810190620001d5565b909192565b5f1b90565b906200026e60018060a01b039162000256565b9181191691161790565b90565b620002946200028e6200029a92620000b2565b62000278565b620000b2565b90565b620002a8906200027b565b90565b620002b6906200029d565b90565b90565b90620002d6620002d0620002de92620002ab565b620002b9565b82546200025b565b9055565b90620002f05f199162000256565b9181191691161790565b620003136200030d6200031992620000f3565b62000278565b620000f3565b90565b90565b9062000339620003336200034192620002fa565b6200031c565b8254620002e2565b9055565b5190565b634e487b7160e01b5f52602260045260245ffd5b906001600283049216801562000380575b60208310146200037a57565b62000349565b91607f16916200036e565b5f5260205f2090565b601f602091010490565b1b90565b91906008620003c1910291620003ba5f19846200039e565b926200039e565b9181191691161790565b9190620003e6620003e0620003ef93620002fa565b6200031c565b908354620003a2565b9055565b5f90565b6200040d9162000406620003f3565b91620003cb565b565b5b8181106200041c575050565b806200042b5f600193620003f7565b0162000410565b9190601f811162000443575b505050565b620004526200047d936200038b565b906020620004608462000394565b8301931062000486575b620004759062000394565b01906200040f565b5f80806200043e565b915062000475819290506200046a565b1c90565b90620004ac905f199060080262000496565b191690565b81620004bd916200049a565b906002021790565b90620004d18162000345565b9060018060401b038211620005a257620004f882620004f185546200035d565b8562000432565b602090601f831160011462000531579180916200051f935f9262000524575b5050620004b1565b90555b565b90915001515f8062000517565b601f1983169162000542856200038b565b925f5b81811062000589575091600293918560019694106200056c575b5050500201905562000522565b6200057e910151601f8416906200049a565b90555f80806200055f565b9193602060018192878701518155019501920162000545565b62000052565b90620005b491620004c5565b565b5f1c90565b90565b620005cd620005d391620005b6565b620005bb565b90565b620005e29054620005be565b90565b60209181520190565b905f92918054906200060c62000604836200035d565b8094620005e5565b916001811690815f146200066a575060011462000629575b505050565b6200063891929394506200038b565b915f925b8184106200065157505001905f808062000624565b600181602092959395548486015201910192906200063c565b92949550505060ff19168252151560200201905f808062000624565b6200069190620000f3565b9052565b92916020620006b4620006bd9360408701908782035f890152620005ee565b94019062000686565b565b620006f19291620006e1620006e992620006d933620007a5565b6001620002bc565b60026200031f565b6003620005a8565b6003620006ff6002620005d6565b7fd0f72bfa5d7ec15b17544840cf7aed796fab0633f5a4ec58920a974ccb10a39791620007396200072f6200003e565b9283928362000695565b0390a1565b90565b6200075a6200075462000760926200073e565b62000278565b620000b2565b90565b6200076e9062000741565b90565b6200077c90620000b2565b90565b6200078a9062000771565b9052565b9190620007a3905f602085019401906200077f565b565b80620007c6620007bf620007b95f62000763565b62000771565b9162000771565b14620007d957620007d79062000889565b565b62000809620007e85f62000763565b620007f26200003e565b918291631e4fbdf760e01b8352600483016200078e565b0390fd5b60018060a01b031690565b620008276200082d91620005b6565b6200080d565b90565b6200083c905462000818565b90565b6200084a906200027b565b90565b62000858906200083f565b90565b90565b90620008786200087262000880926200084d565b6200085b565b82546200025b565b9055565b5f0190565b620008945f62000830565b620008a0825f6200085e565b90620008d8620008d17f8be0079c531659141344cd1fd0a4f28419497f9722a3daafe3b4186f6b6457e0936200084d565b916200084d565b91620008e36200003e565b80620008ef8162000884565b0390a356fe60806040526004361015610013575b610479565b61001d5f3561006c565b80636c4325aa14610067578063715018a6146100625780638da5cb5b1461005d578063d8721e00146100585763f2fde38b0361000e57610446565b6103d0565b61033a565b6102ce565b610294565b60e01c90565b60405190565b5f80fd5b5f80fd5b5f91031261008a57565b61007c565b634e487b7160e01b5f525f60045260245ffd5b634e487b7160e01b5f52602260045260245ffd5b90600160028304921680156100d6575b60208310146100d157565b6100a2565b91607f16916100c6565b60209181520190565b5f5260205f2090565b905f929180549061010c610105836100b6565b80946100e0565b916001811690815f146101635750600114610127575b505050565b61013491929394506100e9565b915f925b81841061014b57505001905f8080610122565b60018160209295939554848601520191019290610138565b92949550505060ff19168252151560200201905f8080610122565b90610188916100f2565b90565b601f801991011690565b634e487b7160e01b5f52604160045260245ffd5b906101b39061018b565b810190811067ffffffffffffffff8211176101cd57604052565b610195565b906101f26101eb926101e2610072565b9384809261017e565b03836101a9565b565b905f1061020757610204906101d2565b90565b61008f565b61021860035f906101f4565b90565b5190565b60209181520190565b5f5b83811061023a575050905f910152565b80602091830151818501520161022a565b61026a610273602093610278936102618161021b565b9384809361021f565b95869101610228565b61018b565b0190565b6102919160208201915f81840391015261024b565b90565b346102c4576102a4366004610080565b6102c06102af61020c565b6102b7610072565b9182918261027c565b0390f35b610078565b5f0190565b346102fc576102de366004610080565b6102e661051a565b6102ee610072565b806102f8816102c9565b0390f35b610078565b60018060a01b031690565b61031590610301565b90565b6103219061030c565b9052565b9190610338905f60208501940190610318565b565b3461036a5761034a366004610080565b6103666103556104b2565b61035d610072565b91829182610325565b0390f35b610078565b1c90565b90565b61038690600861038b930261036f565b610373565b90565b906103999154610376565b90565b6103a860025f9061038e565b90565b90565b6103b7906103ab565b9052565b91906103ce905f602085019401906103ae565b565b34610400576103e0366004610080565b6103fc6103eb61039c565b6103f3610072565b918291826103bb565b0390f35b610078565b61040e8161030c565b0361041557565b5f80fd5b9050359061042682610405565b565b906020828203126104415761043e915f01610419565b90565b61007c565b346104745761045e610459366004610428565b6105e5565b610466610072565b80610470816102c9565b0390f35b610078565b5f80fd5b5f90565b5f1c90565b60018060a01b031690565b61049d6104a291610481565b610486565b90565b6104af9054610491565b90565b6104ba61047d565b506104c45f6104a5565b90565b6104cf610524565b6104d7610507565b565b90565b90565b6104f36104ee6104f8926104d9565b6104dc565b610301565b90565b610504906104df565b90565b6105186105135f6104fb565b610667565b565b6105226104c7565b565b61052c6104b2565b61054561053f61053a6106c6565b61030c565b9161030c565b0361054c57565b6105756105576106c6565b61055f610072565b91829163118cdaa760e01b835260048301610325565b0390fd5b61058a90610585610524565b61058c565b565b806105a76105a161059c5f6104fb565b61030c565b9161030c565b146105b7576105b590610667565b565b6105e16105c35f6104fb565b6105cb610072565b918291631e4fbdf760e01b835260048301610325565b0390fd5b6105ee90610579565b565b5f1b90565b9061060660018060a01b03916105f0565b9181191691161790565b61062461061f61062992610301565b6104dc565b610301565b90565b61063590610610565b90565b6106419061062c565b90565b90565b9061065c61065761066392610638565b610644565b82546105f5565b9055565b6106705f6104a5565b61067a825f610647565b906106ae6106a87f8be0079c531659141344cd1fd0a4f28419497f9722a3daafe3b4186f6b6457e093610638565b91610638565b916106b7610072565b806106c1816102c9565b0390a3565b6106ce61047d565b50339056fea264697066735822122048449375db769d2e01d6e684c0a67b20c259fda1de5741613725edb6b47f299464736f6c63430008150033",
  "immutableReferences": {},
  "source": "// SPDX-License-Identifier: MIT\r\npragma solidity ^0.8.0;\r\n\r\nimport \"@openzeppelin/contracts/access/Ownable.sol\";\r\n\r\ncontract Loan is Ownable{\r\n\r\n    address payable private target;\r\n    uint256 public pendingLoanAmount;\r\n    string public pendingLoanMortgage;\r\n\r\n    event created(string mortgage, uint256 amount);\r\n\r\n    constructor(address payable _target,uint256 _pendingLoanAmount,string memory _pendingLoanMortgage) Ownable(msg.sender){\r\n        target = _target;\r\n        pendingLoanAmount=_pendingLoanAmount;\r\n        pendingLoanMortgage=_pendingLoanMortgage;\r\n        emit created(pendingLoanMortgage,pendingLoanAmount);\r\n    }\r\n\r\n}",
  "sourcePath": "C:\\Users\\SSAFY\\Desktop\\S10P31C203\\blockchain\\contracts\\Loan.sol",
  "compiler": {
    "name": "solc",
    "version": "0.8.21+commit.d9974bed.Emscripten.clang"
  },
  "schemaVersion": "3.4.16",
  "updatedAt": "2024-05-16T06:57:34.602Z",
  "devdoc": {
    "errors": {
      "OwnableInvalidOwner(address)": [
        {
          "details": "The owner is not a valid owner account. (eg. `address(0)`)"
        }
      ],
      "OwnableUnauthorizedAccount(address)": [
        {
          "details": "The caller account is not authorized to perform an operation."
        }
      ]
    },
    "kind": "dev",
    "methods": {
      "owner()": {
        "details": "Returns the address of the current owner."
      },
      "renounceOwnership()": {
        "details": "Leaves the contract without owner. It will not be possible to call `onlyOwner` functions. Can only be called by the current owner. NOTE: Renouncing ownership will leave the contract without an owner, thereby disabling any functionality that is only available to the owner."
      },
      "transferOwnership(address)": {
        "details": "Transfers ownership of the contract to a new account (`newOwner`). Can only be called by the current owner."
      }
    },
    "version": 1
  },
  "userdoc": {
    "kind": "user",
    "methods": {},
    "version": 1
  }
}