{
  "contractName": "LongTermRent",
  "abi": [
    {
      "inputs": [
        {
          "internalType": "address payable",
          "name": "_landlordAddress",
          "type": "address"
        },
        {
          "internalType": "address payable",
          "name": "_tenantAddress",
          "type": "address"
        },
        {
          "internalType": "string",
          "name": "_landlordDID",
          "type": "string"
        },
        {
          "internalType": "string",
          "name": "_tenantDID",
          "type": "string"
        },
        {
          "internalType": "uint16",
          "name": "_leasePeriod",
          "type": "uint16"
        },
        {
          "internalType": "uint256",
          "name": "_deposit",
          "type": "uint256"
        },
        {
          "internalType": "string",
          "name": "_propertyDID",
          "type": "string"
        },
        {
          "internalType": "uint256",
          "name": "_contractDate",
          "type": "uint256"
        },
        {
          "internalType": "string[]",
          "name": "_terms",
          "type": "string[]"
        }
      ],
      "stateMutability": "nonpayable",
      "type": "constructor"
    },
    {
      "inputs": [],
      "name": "rentalContract",
      "outputs": [
        {
          "components": [
            {
              "internalType": "string",
              "name": "landlordDID",
              "type": "string"
            },
            {
              "internalType": "string",
              "name": "tenantDID",
              "type": "string"
            },
            {
              "internalType": "uint16",
              "name": "leasePeriod",
              "type": "uint16"
            },
            {
              "internalType": "uint256",
              "name": "deposit",
              "type": "uint256"
            },
            {
              "internalType": "string",
              "name": "propertyDID",
              "type": "string"
            },
            {
              "internalType": "uint256",
              "name": "contractDate",
              "type": "uint256"
            },
            {
              "internalType": "string[]",
              "name": "terms",
              "type": "string[]"
            }
          ],
          "internalType": "struct LongTermRent.ContractInfo",
          "name": "contractInfo",
          "type": "tuple"
        },
        {
          "internalType": "bytes32",
          "name": "contractInfoHash",
          "type": "bytes32"
        },
        {
          "internalType": "bytes",
          "name": "landlordSignature",
          "type": "bytes"
        },
        {
          "internalType": "bytes",
          "name": "tenantSignature",
          "type": "bytes"
        }
      ],
      "stateMutability": "view",
      "type": "function"
    },
    {
      "inputs": [
        {
          "internalType": "bytes",
          "name": "_landlordSignature",
          "type": "bytes"
        }
      ],
      "name": "signContractByLandlord",
      "outputs": [],
      "stateMutability": "nonpayable",
      "type": "function"
    },
    {
      "inputs": [
        {
          "internalType": "bytes",
          "name": "_tenantSignature",
          "type": "bytes"
        }
      ],
      "name": "signContractByTenant",
      "outputs": [],
      "stateMutability": "nonpayable",
      "type": "function"
    },
    {
      "inputs": [],
      "name": "verifyContract",
      "outputs": [
        {
          "internalType": "bool",
          "name": "",
          "type": "bool"
        }
      ],
      "stateMutability": "view",
      "type": "function"
    },
    {
      "inputs": [],
      "name": "payDeposit",
      "outputs": [],
      "stateMutability": "payable",
      "type": "function"
    },
    {
      "inputs": [],
      "name": "returnDeposit",
      "outputs": [],
      "stateMutability": "payable",
      "type": "function"
    },
    {
      "inputs": [],
      "name": "withdrawDeposit",
      "outputs": [],
      "stateMutability": "nonpayable",
      "type": "function"
    }
  ],
  "bytecode": "0x60806040523462000041576200002862000018620003d2565b9796909695919594929462000ee9565b6200003262000047565b6115ca62000fd182396115ca90f35b6200004d565b60405190565b5f80fd5b601f801991011690565b634e487b7160e01b5f52604160045260245ffd5b906200007b9062000051565b810190811060018060401b038211176200009457604052565b6200005b565b90620000b1620000a962000047565b92836200006f565b565b5f80fd5b5f80fd5b60018060a01b031690565b620000d190620000bb565b90565b620000df81620000c6565b03620000e757565b5f80fd5b90505190620000fa82620000d4565b565b5f80fd5b5f80fd5b60018060401b03811162000123576200011f60209162000051565b0190565b6200005b565b5f5b8381106200013c575050905f910152565b8060209183015181850152016200012b565b9092919262000167620001618262000104565b6200009a565b938185526020850190828401116200018657620001849262000129565b565b62000100565b9080601f83011215620001ad57816020620001aa935191016200014e565b90565b620000fc565b61ffff1690565b620001c581620001b3565b03620001cd57565b5f80fd5b90505190620001e082620001ba565b565b90565b620001f081620001e2565b03620001f857565b5f80fd5b905051906200020b82620001e5565b565b60018060401b038111620002245760208091020190565b6200005b565b5f80fd5b9291906200024662000240826200020d565b6200009a565b9381855260208086019202810191838311620002a25781905b8382106200026e575050505050565b815160018060401b0381116200029c576020916200029087849387016200018c565b8152019101906200025f565b620000fc565b6200022a565b9080601f83011215620002c957816020620002c6935191016200022e565b90565b620000fc565b9161012083830312620003cc57620002ea825f8501620000eb565b92620002fa8360208301620000eb565b92604082015160018060401b038111620003c657816200031c9184016200018c565b92606083015160018060401b038111620003c057826200033e9185016200018c565b926200034e8360808301620001d1565b926200035e8160a08401620001fc565b9260c083015160018060401b038111620003ba5782620003809185016200018c565b92620003908360e08301620001fc565b9261010082015160018060401b038111620003b457620003b19201620002a8565b90565b620000b7565b620000b7565b620000b7565b620000b7565b620000b3565b620003f56200259b80380380620003e9816200009a565b928339810190620002cf565b909192939495969798565b5f1b90565b906200041860018060a01b039162000400565b9181191691161790565b90565b6200043e620004386200044492620000bb565b62000422565b620000bb565b90565b620004529062000425565b90565b620004609062000447565b90565b90565b90620004806200047a620004889262000455565b62000463565b825462000405565b9055565b634e487b7160e01b5f525f60045260245ffd5b5190565b634e487b7160e01b5f52602260045260245ffd5b9060016002830492168015620004da575b6020831014620004d457565b620004a3565b91607f1691620004c8565b5f5260205f2090565b601f602091010490565b1b90565b919060086200051b910291620005145f1984620004f8565b92620004f8565b9181191691161790565b6200053e620005386200054492620001e2565b62000422565b620001e2565b90565b90565b9190620005656200055f6200056e9362000525565b62000547565b908354620004fc565b9055565b5f90565b6200058c916200058562000572565b916200054a565b565b5b8181106200059b575050565b80620005aa5f60019362000576565b016200058f565b9190601f8111620005c2575b505050565b620005d1620005fc93620004e5565b906020620005df84620004ee565b8301931062000605575b620005f490620004ee565b01906200058e565b5f8080620005bd565b9150620005f481929050620005e9565b1c90565b906200062b905f199060080262000615565b191690565b816200063c9162000619565b906002021790565b9062000650816200049f565b9060018060401b03821162000721576200067782620006708554620004b7565b85620005b1565b602090601f8311600114620006b0579180916200069e935f92620006a3575b505062000630565b90555b565b90915001515f8062000696565b601f19831691620006c185620004e5565b925f5b8181106200070857509160029391856001969410620006eb575b50505002019055620006a1565b620006fd910151601f84169062000619565b90555f8080620006de565b91936020600181928787015181550195019201620006c4565b6200005b565b90620007339162000644565b565b906200074461ffff9162000400565b9181191691161790565b62000767620007616200076d92620001b3565b62000422565b620001b3565b90565b90565b906200078d6200078762000795926200074e565b62000770565b825462000735565b9055565b90620007a75f199162000400565b9181191691161790565b90620007cb620007c5620007d39262000525565b62000547565b825462000799565b9055565b60200190565b5490565b600190818003010490565b5f5260205f2090565b906200080a905f199060200360080262000615565b8154169055565b905f916200082c6200082382620004e5565b92835462000630565b905555565b919290602082105f146200089757601f84116001146200085e576200085892935062000630565b90555b5b565b50906200088b62000891936001620008816200087a85620004e5565b92620004ee565b820191016200058e565b62000811565b6200085b565b50620008d78293620008ab600194620004e5565b620008cf620008ba85620004ee565b820192601f861680620008e3575b50620004ee565b01906200058e565b6002021790556200085c565b620008f190888603620007f5565b5f620008c8565b92909168010000000000000000821162000961576020115f146200095157602081105f1462000932576200092c9162000630565b90555b5b565b60019160ff19166200094484620004e5565b556002020190556200092f565b6001915060020201905562000930565b6200005b565b9081546200097581620004b7565b90818311620009a3575b8183106200098e575b50505050565b620009999362000831565b5f80808062000988565b620009b183838387620008f8565b6200097f565b5f620009c39162000967565b565b905f03620009da57620009d890620009b7565b565b6200048c565b5b818110620009ed575050565b80620009fc5f600193620009c5565b01620009e1565b909182811062000a13575b505050565b62000a3862000a3162000a2a62000a4495620007e1565b92620007e1565b92620007ec565b918201910190620009e0565b5f808062000a0e565b9068010000000000000000811162000a7b578162000a6f62000a7993620007dd565b9082815562000a03565b565b6200005b565b5190565b5190565b62000ab662000aaf62000a9c8462000a81565b9362000aa9858562000a4d565b620007d7565b91620007ec565b5f915b83831062000ac75750505050565b600160208262000ae362000adc849562000a85565b8662000727565b0192019201919062000ab9565b9062000afc9162000a89565b565b60209181520190565b905f929180549062000b2562000b1d83620004b7565b809462000afe565b916001811690815f1462000b83575060011462000b42575b505050565b62000b519192939450620004e5565b915f925b81841062000b6a57505001905f808062000b3d565b6001816020929593955484860152019101929062000b55565b92949550505060ff19168252151560200201905f808062000b3d565b5f1c90565b61ffff1690565b62000bba62000bc09162000b9f565b62000ba4565b90565b62000bce90620001b3565b9052565b90565b62000be462000bea9162000b9f565b62000bd2565b90565b62000bf890620001e2565b9052565b60209181520190565b9062000c119162000b07565b90565b60010190565b9062000c3262000c2a83620007dd565b809262000bfc565b908162000c4560208302840194620007ec565b925f915b83831062000c5957505050505090565b9091929394602062000c7e62000c7783856001950387528962000c05565b9762000c14565b930193019193929062000c49565b62000d4291600662000d1362000cc562000cb360e085015f87018682035f88015262000b07565b60018601858203602087015262000b07565b62000ce362000cd8600287015462000bab565b604086019062000bc3565b62000d0162000cf6600387015462000bd5565b606086019062000bed565b60048501848203608086015262000b07565b9262000d3262000d27600583015462000bd5565b60a085019062000bed565b019060c081840391015262000c1a565b90565b90565b62000d5762000d5d9162000b9f565b62000d45565b90565b90565b62000d6e9062000d60565b9052565b60209181520190565b5f5260205f2090565b905f929180549062000da262000d9a83620004b7565b809462000d72565b916001811690815f1462000e00575060011462000dbf575b505050565b62000dce919293945062000d7b565b915f925b81841062000de757505001905f808062000dba565b6001816020929593955484860152019101929062000dd2565b92949550505060ff19168252151560200201905f808062000dba565b62000e8091600962000e6f62000e3f608084015f86018582035f87015262000c8c565b62000e5d62000e52600787015462000d48565b602086019062000d63565b60088501848203604086015262000d84565b920190606081840391015262000d84565b90565b62000e9a9160208201915f81840391015262000e1c565b90565b60200190565b5190565b62000eb29062000d60565b90565b62000ec09062000b9f565b90565b9062000edd62000ed762000ee59262000ea7565b62000eb5565b825462000799565b9055565b62000f619462000f3d62000f6d989562000f3162000f559662000f2662000f799e9d9b9762000f1e62000f4998600a62000466565b600b62000466565b5f8080010162000727565b60015f80010162000727565b60025f80010162000773565b60035f800101620007b1565b60045f80010162000727565b60055f800101620007b1565b60065f80010162000af0565b62000fce62000f9d62000fad5f62000f9062000047565b9283916020830162000e83565b602082018103825203826200006f565b62000fc362000fbc8262000ea3565b9162000e9d565b2060075f0162000ec3565b56fe60806040526004361015610013575b610989565b61001d5f3561008c565b8063117df0881461008757806330f532b3146100825780635c274b861461007d5780637e88f60314610078578063a0d948ea14610073578063caa5fbaf1461006e5763e8f4e9d40361000e57610950565b6102ec565b6102b7565b610267565b61023e565b61020b565b6100b4565b60e01c90565b60405190565b5f80fd5b5f80fd5b5f9103126100aa57565b61009c565b5f0190565b346100e2576100c43660046100a0565b6100cc6114ca565b6100d4610092565b806100de816100af565b0390f35b610098565b5f80fd5b5f80fd5b5f80fd5b601f801991011690565b634e487b7160e01b5f52604160045260245ffd5b9061011b906100f3565b810190811067ffffffffffffffff82111761013557604052565b6100fd565b9061014d610146610092565b9283610111565b565b67ffffffffffffffff811161016d576101696020916100f3565b0190565b6100fd565b90825f939282370152565b9092919261019261018d8261014f565b61013a565b938185526020850190828401116101ae576101ac92610172565b565b6100ef565b9080601f830112156101d1578160206101ce9335910161017d565b90565b6100eb565b90602082820312610206575f82013567ffffffffffffffff8111610201576101fe92016101b3565b90565b6100e7565b61009c565b346102395761022361021e3660046101d6565b610cf4565b61022b610092565b80610235816100af565b0390f35b610098565b6102493660046100a0565b6102516110d1565b610259610092565b80610263816100af565b0390f35b6102723660046100a0565b61027a611280565b610282610092565b8061028c816100af565b0390f35b151590565b61029e90610290565b9052565b91906102b5905f60208501940190610295565b565b346102e7576102c73660046100a0565b6102e36102d2610ec6565b6102da610092565b918291826102a2565b0390f35b610098565b3461031a576103046102ff3660046101d6565b610cc0565b61030c610092565b80610316816100af565b0390f35b610098565b634e487b7160e01b5f52602260045260245ffd5b9060016002830492168015610353575b602083101461034e57565b61031f565b91607f1691610343565b60209181520190565b5f5260205f2090565b905f929180549061038961038283610333565b809461035d565b916001811690815f146103e057506001146103a4575b505050565b6103b19192939450610366565b915f925b8184106103c857505001905f808061039f565b600181602092959395548486015201910192906103b5565b92949550505060ff19168252151560200201905f808061039f565b906104059161036f565b90565b9061042861042192610418610092565b938480926103fb565b0383610111565b565b52565b5f1c90565b61ffff1690565b61044561044a9161042d565b610432565b90565b6104579054610439565b90565b61ffff1690565b9061046b9061045a565b9052565b90565b61047e6104839161042d565b61046f565b90565b6104909054610472565b90565b90565b906104a090610493565b9052565b5490565b67ffffffffffffffff81116104c05760208091020190565b6100fd565b906104d76104d2836104a8565b61013a565b918252565b5f5260205f2090565b6104ee90610408565b90565b906104fb826104a4565b610504816104c5565b9261051260208501916104dc565b5f915b8383106105225750505050565b600160208192610531856104e5565b815201920192019190610515565b52565b61054c60e061013a565b90565b906105fe6105f56006610560610542565b9461057761056f5f8301610408565b5f880161042a565b61058f61058660018301610408565b6020880161042a565b6105a761059e6002830161044d565b60408801610461565b6105bf6105b660038301610486565b60608801610496565b6105d76105ce60048301610408565b6080880161042a565b6105ef6105e660058301610486565b60a08801610496565b016104f1565b60c0840161053f565b565b90565b61060f6106149161042d565b610600565b90565b6106219054610603565b90565b60209181520190565b5f5260205f2090565b905f929180549061065061064983610333565b8094610624565b916001811690815f146106a7575060011461066b575b505050565b610678919293945061062d565b915f925b81841061068f57505001905f8080610666565b6001816020929593955484860152019101929061067c565b92949550505060ff19168252151560200201905f8080610666565b906106cc91610636565b90565b906106ef6106e8926106df610092565b938480926106c2565b0383610111565b565b5f906106fe5f830161054f565b9161070b60078201610617565b91610724600961071d600885016106cf565b93016106cf565b90565b5190565b5f5b83811061073d575050905f910152565b80602091830151818501520161072d565b61076d61077660209361077b9361076481610727565b9384809361035d565b9586910161072b565b6100f3565b0190565b6107889061045a565b9052565b61079590610493565b9052565b5190565b60209181520190565b60200190565b906107b69161074e565b90565b60200190565b906107d36107cc83610799565b809261079d565b90816107e4602083028401946107a6565b925f915b8383106107f757505050505090565b90919293946020610819610813838560019503875289516107ac565b976107b9565b93019301919392906107e8565b6108b49160c061089161085b61084960e085015f8701518682035f88015261074e565b6020860151858203602087015261074e565b61086d6040860151604086019061077f565b61087f6060860151606086019061078c565b6080850151848203608086015261074e565b926108a460a082015160a085019061078c565b01519060c08184039101526107bf565b90565b90565b6108c3906108b7565b9052565b5190565b60209181520190565b6108f36108fc602093610901936108ea816108c7565b938480936108cb565b9586910161072b565b6100f3565b0190565b929161094d949261093261092761093f9460808801908882035f8a0152610826565b9260208701906108ba565b84820360408601526108d4565b9160608184039101526108d4565b90565b34610984576109603660046100a0565b61098061096b6106f1565b90610977949294610092565b94859485610905565b0390f35b610098565b5f80fd5b60018060a01b031690565b6109a46109a99161042d565b61098d565b90565b6109b69054610998565b90565b60018060a01b031690565b6109cd906109b9565b90565b90565b6109e76109e26109ec926109b9565b6109d0565b6109b9565b90565b6109f8906109d3565b90565b610a04906109ef565b90565b60209181520190565b60207f6163742e00000000000000000000000000000000000000000000000000000000917f4f6e6c79206c616e646c6f72642063616e207369676e2074686520636f6e74725f8201520152565b610a6a6024604092610a07565b610a7381610a10565b0190565b610a8c9060208101905f818303910152610a5d565b90565b15610a9657565b610a9e610092565b62461bcd60e51b815280610ab460048201610a77565b0390fd5b601f602091010490565b1b90565b91906008610ae1910291610adb5f1984610ac2565b92610ac2565b9181191691161790565b610aff610afa610b0492610493565b6109d0565b610493565b90565b90565b9190610b20610b1b610b2893610aeb565b610b07565b908354610ac6565b9055565b5f90565b610b4291610b3c610b2c565b91610b0a565b565b5b818110610b50575050565b80610b5d5f600193610b30565b01610b45565b9190601f8111610b73575b505050565b610b7f610ba49361062d565b906020610b8b84610ab8565b83019310610bac575b610b9d90610ab8565b0190610b44565b5f8080610b6e565b9150610b9d81929050610b94565b1c90565b90610bce905f1990600802610bba565b191690565b81610bdd91610bbe565b906002021790565b90610bef816108c7565b9067ffffffffffffffff8211610caf57610c1382610c0d8554610333565b85610b63565b602090601f8311600114610c4757918091610c36935f92610c3b575b5050610bd3565b90555b565b90915001515f80610c2f565b601f19831691610c568561062d565b925f5b818110610c9757509160029391856001969410610c7d575b50505002019055610c39565b610c8d910151601f841690610bbe565b90555f8080610c71565b91936020600181928787015181550195019201610c59565b6100fd565b90610cbe91610be5565b565b610cf290610ce933610ce3610cdd610cd8600a6109ac565b6109fb565b916109c4565b14610a8f565b60085f01610cb4565b565b610d2690610d1d33610d17610d11610d0c600b6109ac565b6109fb565b916109c4565b14610a8f565b60095f01610cb4565b565b5f90565b905f9291805490610d46610d3f83610333565b8094610a07565b916001811690815f14610d9d5750600114610d61575b505050565b610d6e9192939450610366565b915f925b818410610d8557505001905f8080610d5c565b60018160209295939554848601520191019290610d72565b92949550505060ff19168252151560200201905f8080610d5c565b610dc19061045a565b9052565b610dce90610493565b9052565b60209181520190565b60010190565b90610df5610dee836104a4565b8092610dd2565b9081610e06602083028401946104dc565b925f915b838310610e1957505050505090565b90919293946020610e3a610e348385600195038752896103fb565b97610ddb565b9301930191939290610e0a565b9394610e98610ebd9896610e8e610e83610ea596610e75610eb0999760e08c01908c5f818403910152610d2c565b908a820360208c0152610d2c565b946040890190610db8565b6060870190610dc5565b8482036080860152610d2c565b9360a0830190610dc5565b60c0818403910152610de1565b90565b60200190565b610ece610d28565b505f80800101610f3c60015f80010191610f2d610eef60025f80010161044d565b610efd60035f800101610486565b60045f800101610f1160055f800101610486565b9160065f80010193610f21610092565b98899760208901610e47565b60208201810382520382610111565b610f4e610f48826108c7565b91610ec0565b20610f6d610f67610f6160075f01610617565b926108b7565b916108b7565b1490565b60207f7369742e00000000000000000000000000000000000000000000000000000000917f4f6e6c79207468652074656e616e742063616e2070617920746865206465706f5f8201520152565b610fcb6024604092610a07565b610fd481610f71565b0190565b610fed9060208101905f818303910152610fbe565b90565b15610ff757565b610fff610092565b62461bcd60e51b81528061101560048201610fd8565b0390fd5b60207f2e00000000000000000000000000000000000000000000000000000000000000917f4465706f73697420616d6f756e74206973206e6f742073756666696369656e745f8201520152565b6110736021604092610a07565b61107c81611019565b0190565b6110959060208101905f818303910152611066565b90565b1561109f57565b6110a7610092565b62461bcd60e51b8152806110bd60048201611080565b0390fd5b6110c9610092565b3d5f823e3d90fd5b6110f6336110f06110ea6110e5600b6109ac565b6109fb565b916109c4565b14610ff0565b6111203461111961111361110e60035f800101610486565b610493565b91610493565b1015611098565b5f808080611136611131600a6109ac565b6109fb565b349082821561114d575bf11561114857565b6110c1565b506108fc611140565b5f7f4f6e6c7920746865206c616e646c6f72642063616e206465706f7369742e0000910152565b61118a601e602092610a07565b61119381611156565b0190565b6111ac9060208101905f81830391015261117d565b90565b156111b657565b6111be610092565b62461bcd60e51b8152806111d460048201611197565b0390fd5b60207f6465706f7369742e000000000000000000000000000000000000000000000000917f496e73756666696369656e742066756e647320746f20636f76657220746865205f8201520152565b6112326028604092610a07565b61123b816111d8565b0190565b6112549060208101905f818303910152611225565b90565b1561125e57565b611266610092565b62461bcd60e51b81528061127c6004820161123f565b0390fd5b6112a53361129f611299611294600a6109ac565b6109fb565b916109c4565b146111af565b6112cf346112c86112c26112bd60035f800101610486565b610493565b91610493565b1015611257565b565b60207f206465706f7369742e0000000000000000000000000000000000000000000000917f4f6e6c79207468652074656e616e742063616e207769746864726177207468655f8201520152565b61132b6029604092610a07565b611334816112d1565b0190565b61134d9060208101905f81830391015261131e565b90565b1561135757565b61135f610092565b62461bcd60e51b81528061137560048201611338565b0390fd5b62ffffff1690565b61139561139061139a9261045a565b6109d0565b611379565b90565b90565b6113b46113af6113b99261139d565b6109d0565b611379565b90565b634e487b7160e01b5f52601160045260245ffd5b6113dc6113e291611379565b91611379565b02906113ed82611379565b9182036113f657565b6113bc565b61140f61140a61141492611379565b6109d0565b610493565b90565b61142661142c91939293610493565b92610493565b820180921161143757565b6113bc565b5f7f4c6561736520686173206e6f742079657420657870697265642e000000000000910152565b611470601a602092610a07565b6114798161143c565b0190565b6114929060208101905f818303910152611463565b90565b1561149c57565b6114a4610092565b62461bcd60e51b8152806114ba6004820161147d565b0390fd5b6114c7906109ef565b90565b6114ef336114e96114e36114de600b6109ac565b6109fb565b916109c4565b14611350565b6115554261154e61154861154361150a60055f800101610486565b61153d61153861151e60025f80010161044d565b61153361152d62278d006113a0565b91611381565b6113d0565b6113fb565b90611417565b610493565b91610493565b1015611495565b5f80808061156b611566600b6109ac565b6109fb565b611574306114be565b319082821561158b575bf11561158657565b6110c1565b506108fc61157e56fea26469706673582212208476f2afbec61a97dec584d48144947ab1552ae81984df78165e67fe86aaefc064736f6c63430008150033",
  "immutableReferences": {},
  "source": "// SPDX-License-Identifier: MIT\r\npragma solidity ^0.8.0;\r\n\r\ncontract LongTermRent {\r\n\r\n    struct ContractInfo {\r\n        string landlordDID; //   \r\n        string tenantDID; //   \r\n        uint16 leasePeriod; //   ( )\r\n        uint256 deposit; // \r\n        string propertyDID; //   \r\n        uint256 contractDate; //   (timestamp)\r\n        string[] terms; //   \r\n    }\r\n\r\n    struct LongTermRentContract {\r\n        ContractInfo contractInfo;\r\n        bytes32 contractInfoHash;\r\n\r\n        bytes landlordSignature; //  \r\n        bytes tenantSignature; //  \r\n    }\r\n\r\n    LongTermRentContract public rentalContract;\r\n\r\n    address payable landlordAddress;\r\n    address payable tenantAddress;\r\n\r\n    constructor(\r\n        address payable _landlordAddress,\r\n        address payable _tenantAddress,\r\n        string memory _landlordDID,\r\n        string memory _tenantDID,\r\n        uint16 _leasePeriod,\r\n        uint256 _deposit,\r\n        string memory _propertyDID,\r\n        uint256 _contractDate,\r\n        string[] memory _terms\r\n    ) {\r\n        landlordAddress = _landlordAddress;\r\n        tenantAddress = _tenantAddress;\r\n\r\n        //   \r\n        rentalContract.contractInfo.landlordDID = _landlordDID;\r\n        rentalContract.contractInfo.tenantDID = _tenantDID;\r\n        rentalContract.contractInfo.leasePeriod = _leasePeriod;\r\n        rentalContract.contractInfo.deposit = _deposit;\r\n        rentalContract.contractInfo.propertyDID = _propertyDID;\r\n        rentalContract.contractInfo.contractDate = _contractDate;\r\n        rentalContract.contractInfo.terms = _terms;\r\n\r\n        //    \r\n        rentalContract.contractInfoHash = keccak256(abi.encode(rentalContract));\r\n    }\r\n\r\n    function signContractByLandlord(bytes memory _landlordSignature) external {\r\n        require(msg.sender == landlordAddress, \"Only landlord can sign the contract.\");\r\n        rentalContract.landlordSignature = _landlordSignature;\r\n    }\r\n\r\n    function signContractByTenant(bytes memory _tenantSignature) external {\r\n        require(msg.sender == tenantAddress, \"Only landlord can sign the contract.\");\r\n        rentalContract.tenantSignature = _tenantSignature;\r\n    }\r\n\r\n    //   \r\n    function verifyContract() public view returns (bool) {\r\n        bytes32 hash = keccak256(\r\n            abi.encode(\r\n                rentalContract.contractInfo.landlordDID,\r\n                rentalContract.contractInfo.tenantDID,\r\n                rentalContract.contractInfo.leasePeriod,\r\n                rentalContract.contractInfo.deposit,\r\n                rentalContract.contractInfo.propertyDID,\r\n                rentalContract.contractInfo.contractDate,\r\n                rentalContract.contractInfo.terms\r\n            )\r\n        );\r\n\r\n        return rentalContract.contractInfoHash == hash;\r\n    }\r\n    \r\n    //      payable \r\n    function payDeposit() public payable {\r\n        require(msg.sender == tenantAddress, \"Only the tenant can pay the deposit.\");\r\n        require(msg.value >= rentalContract.contractInfo.deposit, \"Deposit amount is not sufficient.\");\r\n\r\n        //    \r\n        landlordAddress.transfer(msg.value);\r\n    }\r\n\r\n    //    \r\n    function returnDeposit() public payable {\r\n        require(msg.sender == landlordAddress, \"Only the landlord can deposit.\");\r\n        require(msg.value >= rentalContract.contractInfo.deposit, \"Insufficient funds to cover the deposit.\");\r\n    }\r\n\r\n    //   \r\n    function withdrawDeposit() public {\r\n        require(msg.sender == tenantAddress, \"Only the tenant can withdraw the deposit.\");\r\n        require(block.timestamp >= rentalContract.contractInfo.contractDate + rentalContract.contractInfo.leasePeriod * 30 days, \"Lease has not yet expired.\");\r\n        tenantAddress.transfer(address(this).balance);\r\n    }\r\n\r\n}",
  "sourcePath": "C:\\Users\\SSAFY\\Desktop\\S10P31C203\\blockchain\\contracts\\real-estate\\LongTermRent.sol",
  "compiler": {
    "name": "solc",
    "version": "0.8.21+commit.d9974bed.Emscripten.clang"
  },
  "schemaVersion": "3.4.16",
  "updatedAt": "2024-05-14T08:09:25.746Z",
  "devdoc": {
    "kind": "dev",
    "methods": {},
    "version": 1
  },
  "userdoc": {
    "kind": "user",
    "methods": {},
    "version": 1
  }
}