{
  "contractName": "LongTermRent",
  "abi": [
    {
      "inputs": [
        {
          "internalType": "address",
          "name": "_landlordAddress",
          "type": "address"
        },
        {
          "internalType": "address",
          "name": "_tenantAddress",
          "type": "address"
        },
        {
          "internalType": "uint16",
          "name": "_leasePeriod",
          "type": "uint16"
        },
        {
          "internalType": "uint256",
          "name": "_deposit",
          "type": "uint256"
        },
        {
          "internalType": "string",
          "name": "_propertyDID",
          "type": "string"
        },
        {
          "internalType": "uint256",
          "name": "_contractDate",
          "type": "uint256"
        },
        {
          "internalType": "string[]",
          "name": "_terms",
          "type": "string[]"
        },
        {
          "internalType": "bytes32",
          "name": "_r",
          "type": "bytes32"
        },
        {
          "internalType": "bytes32",
          "name": "_s",
          "type": "bytes32"
        },
        {
          "internalType": "uint8",
          "name": "_v",
          "type": "uint8"
        }
      ],
      "stateMutability": "nonpayable",
      "type": "constructor"
    },
    {
      "inputs": [],
      "name": "rentalContract",
      "outputs": [
        {
          "components": [
            {
              "internalType": "string",
              "name": "landlordDID",
              "type": "string"
            },
            {
              "internalType": "string",
              "name": "tenantDID",
              "type": "string"
            },
            {
              "internalType": "uint16",
              "name": "leasePeriod",
              "type": "uint16"
            },
            {
              "internalType": "uint256",
              "name": "deposit",
              "type": "uint256"
            },
            {
              "internalType": "string",
              "name": "propertyDID",
              "type": "string"
            },
            {
              "internalType": "uint256",
              "name": "contractDate",
              "type": "uint256"
            },
            {
              "internalType": "string[]",
              "name": "terms",
              "type": "string[]"
            }
          ],
          "internalType": "struct LongTermRent.ContractInfo",
          "name": "contractInfo",
          "type": "tuple"
        },
        {
          "components": [
            {
              "internalType": "bytes32",
              "name": "r",
              "type": "bytes32"
            },
            {
              "internalType": "bytes32",
              "name": "s",
              "type": "bytes32"
            },
            {
              "internalType": "uint8",
              "name": "v",
              "type": "uint8"
            }
          ],
          "internalType": "struct LongTermRent.Signature",
          "name": "tenantSignature",
          "type": "tuple"
        },
        {
          "components": [
            {
              "internalType": "bytes32",
              "name": "r",
              "type": "bytes32"
            },
            {
              "internalType": "bytes32",
              "name": "s",
              "type": "bytes32"
            },
            {
              "internalType": "uint8",
              "name": "v",
              "type": "uint8"
            }
          ],
          "internalType": "struct LongTermRent.Signature",
          "name": "landlordSignature",
          "type": "tuple"
        }
      ],
      "stateMutability": "view",
      "type": "function"
    },
    {
      "inputs": [
        {
          "internalType": "bytes32",
          "name": "_r",
          "type": "bytes32"
        },
        {
          "internalType": "bytes32",
          "name": "_s",
          "type": "bytes32"
        },
        {
          "internalType": "uint8",
          "name": "_v",
          "type": "uint8"
        }
      ],
      "name": "tenantSign",
      "outputs": [],
      "stateMutability": "payable",
      "type": "function"
    },
    {
      "inputs": [],
      "name": "returnDeposit",
      "outputs": [],
      "stateMutability": "payable",
      "type": "function"
    },
    {
      "inputs": [],
      "name": "withdrawDeposit",
      "outputs": [],
      "stateMutability": "nonpayable",
      "type": "function"
    },
    {
      "inputs": [],
      "name": "verifyTenantSignature",
      "outputs": [
        {
          "internalType": "bool",
          "name": "",
          "type": "bool"
        }
      ],
      "stateMutability": "view",
      "type": "function"
    },
    {
      "inputs": [],
      "name": "verifyLandlordSignature",
      "outputs": [
        {
          "internalType": "bool",
          "name": "",
          "type": "bool"
        }
      ],
      "stateMutability": "view",
      "type": "function"
    }
  ],
  "bytecode": "0x60806040523462000044576200002b620000186200040e565b9897909796919695929594939462000d2e565b620000356200004a565b6115cf6200135d82396115cf90f35b62000050565b60405190565b5f80fd5b601f801991011690565b634e487b7160e01b5f52604160045260245ffd5b906200007e9062000054565b810190811060018060401b038211176200009757604052565b6200005e565b90620000b4620000ac6200004a565b928362000072565b565b5f80fd5b5f80fd5b60018060a01b031690565b620000d490620000be565b90565b620000e281620000c9565b03620000ea57565b5f80fd5b90505190620000fd82620000d7565b565b61ffff1690565b6200011181620000ff565b036200011957565b5f80fd5b905051906200012c8262000106565b565b90565b6200013c816200012e565b036200014457565b5f80fd5b90505190620001578262000131565b565b5f80fd5b5f80fd5b60018060401b03811162000180576200017c60209162000054565b0190565b6200005e565b5f5b83811062000199575050905f910152565b80602091830151818501520162000188565b90929192620001c4620001be8262000161565b6200009d565b93818552602085019082840111620001e357620001e19262000186565b565b6200015d565b9080601f830112156200020a578160206200020793519101620001ab565b90565b62000159565b60018060401b038111620002275760208091020190565b6200005e565b5f80fd5b92919062000249620002438262000210565b6200009d565b9381855260208086019202810191838311620002a55781905b83821062000271575050505050565b815160018060401b0381116200029f57602091620002938784938701620001e9565b81520191019062000262565b62000159565b6200022d565b9080601f83011215620002cc57816020620002c99351910162000231565b90565b62000159565b90565b620002e081620002d2565b03620002e857565b5f80fd5b90505190620002fb82620002d5565b565b60ff1690565b6200030e81620002fd565b036200031657565b5f80fd5b90505190620003298262000303565b565b61014081830312620004085762000345825f8301620000ee565b92620003558360208401620000ee565b926200036581604085016200011d565b9262000375826060830162000148565b92608082015160018060401b03811162000402578362000397918401620001e9565b92620003a78160a0850162000148565b9260c081015160018060401b038111620003fc5782620003c9918301620002ab565b92620003f9620003dd8460e08501620002ec565b93620003ee816101008601620002ec565b93610120016200031a565b90565b620000ba565b620000ba565b620000b6565b620004316200292c8038038062000425816200009d565b9283398101906200032b565b90919293949596979899565b90565b62000459620004536200045f92620000be565b6200043d565b620000be565b90565b6200046d9062000440565b90565b6200047b9062000462565b90565b5f1b90565b906200049660018060a01b03916200047e565b9181191691161790565b620004ab9062000462565b90565b90565b90620004cb620004c5620004d392620004a0565b620004ae565b825462000483565b9055565b620004e29062000440565b90565b620004fe620004f86200050492620000be565b6200043d565b6200012e565b90565b90565b620005236200051d620005299262000507565b6200043d565b6200012e565b90565b905090565b5f7f6469643a6b6c61793a0000000000000000000000000000000000000000000000910152565b62000566600980926200052c565b620005718162000531565b0190565b5190565b620005a46200059a92602092620005908162000575565b948580936200052c565b9384910162000186565b0190565b90620005b8620005bf9262000558565b9062000579565b90565b90565b634e487b7160e01b5f525f60045260245ffd5b634e487b7160e01b5f52602260045260245ffd5b90600160028304921680156200060f575b60208310146200060957565b620005d8565b91607f1691620005fd565b5f5260205f2090565b601f602091010490565b1b90565b9190600862000650910291620006495f19846200062d565b926200062d565b9181191691161790565b620006736200066d62000679926200012e565b6200043d565b6200012e565b90565b90565b91906200069a62000694620006a3936200065a565b6200067c565b90835462000631565b9055565b5f90565b620006c191620006ba620006a7565b916200067f565b565b5b818110620006d0575050565b80620006df5f600193620006ab565b01620006c4565b9190601f8111620006f7575b505050565b6200070662000731936200061a565b906020620007148462000623565b830193106200073a575b620007299062000623565b0190620006c3565b5f8080620006f2565b915062000729819290506200071e565b1c90565b9062000760905f19906008026200074a565b191690565b8162000771916200074e565b906002021790565b90620007858162000575565b9060018060401b0382116200085657620007ac82620007a58554620005ec565b85620006e6565b602090601f8311600114620007e557918091620007d3935f92620007d8575b505062000765565b90555b565b90915001515f80620007cb565b601f19831691620007f6856200061a565b925f5b8181106200083d5750916002939185600196941062000820575b50505002019055620007d6565b62000832910151601f8416906200074e565b90555f808062000813565b91936020600181928787015181550195019201620007f9565b6200005e565b90620008689162000779565b565b906200087961ffff916200047e565b9181191691161790565b6200089c62000896620008a292620000ff565b6200043d565b620000ff565b90565b90565b90620008c2620008bc620008ca9262000883565b620008a5565b82546200086a565b9055565b90620008dc5f19916200047e565b9181191691161790565b9062000900620008fa62000908926200065a565b6200067c565b8254620008ce565b9055565b60200190565b5490565b634e487b7160e01b5f52601160045260245ffd5b6200093c62000943919392936200012e565b926200012e565b91620009518382026200012e565b9281840414901517156200096157565b62000916565b600190818003010490565b5f5260205f2090565b9062000990905f19906020036008026200074a565b8154169055565b905f91620009b2620009a9826200061a565b92835462000765565b905555565b919290602082105f1462000a1d57601f8411600114620009e457620009de92935062000765565b90555b5b565b509062000a1162000a1793600162000a0762000a00856200061a565b9262000623565b82019101620006c3565b62000997565b620009e1565b5062000a5d829362000a316001946200061a565b62000a5562000a408562000623565b820192601f86168062000a69575b5062000623565b0190620006c3565b600202179055620009e2565b62000a77908886036200097b565b5f62000a4e565b92909168010000000000000000821162000ae7576020115f1462000ad757602081105f1462000ab85762000ab29162000765565b90555b5b565b60019160ff191662000aca846200061a565b5560020201905562000ab5565b6001915060020201905562000ab6565b6200005e565b90815462000afb81620005ec565b9081831162000b29575b81831062000b14575b50505050565b62000b1f93620009b7565b5f80808062000b0e565b62000b378383838762000a7e565b62000b05565b5f62000b499162000aed565b565b905f0362000b605762000b5e9062000b3d565b565b620005c5565b5b81811062000b73575050565b8062000b825f60019362000b4b565b0162000b67565b909182811062000b99575b505050565b62000bbe62000bb762000bb062000bca9562000967565b9262000967565b9262000972565b91820191019062000b66565b5f808062000b94565b9068010000000000000000811162000c01578162000bf562000bff9362000912565b9082815562000b89565b565b6200005e565b5190565b5190565b62000c3c62000c3562000c228462000c07565b9362000c2f858562000bd3565b6200090c565b9162000972565b5f915b83831062000c4d5750505050565b600160208262000c6962000c62849562000c0b565b866200085c565b0192019201919062000c3f565b9062000c829162000c0f565b565b62000c8f90620002d2565b90565b5f1c90565b62000ca29062000c92565b90565b9062000cbf62000cb962000cc79262000c84565b62000c97565b8254620008ce565b9055565b9062000cd960ff916200047e565b9181191691161790565b62000cfc62000cf662000d0292620002fd565b6200043d565b620002fd565b90565b90565b9062000d2262000d1c62000d2a9262000ce3565b62000d05565b825462000ccb565b9055565b9462000e9262000ec3989562000e8662000eaa9662000e7a62000ed09e9d9b9762000e6e62000e6262000e4c62000e5c62000eb69f62000e2262000e1c62000e9e9e62000e1662000e0b62000df562000e0562000dde62000dcb62000dc562000e359a62000da862000da08262000470565b600d620004b1565b62000dbf62000db78a62000470565b600e620004b1565b620004d7565b620004e5565b62000dd760146200050a565b90620011b4565b62000de86200004a565b92839160208301620005a8565b6020820181038252038262000072565b620005c2565b5f808001016200085c565b620004d7565b620004e5565b62000e2e60146200050a565b90620011b4565b62000e3f6200004a565b92839160208301620005a8565b6020820181038252038262000072565b620005c2565b60015f8001016200085c565b60025f800101620008a8565b60035f800101620008e6565b60045f8001016200085c565b60055f800101620008e6565b60065f80010162000c76565b5f600a81010162000ca5565b6001600a5f010162000ca5565b6002600a5f010162000d08565b565b606090565b90565b62000ef362000eed62000ef99262000ed7565b6200043d565b6200012e565b90565b62000f0e62000f15919392936200012e565b926200012e565b820180921162000f2157565b62000916565b60018060401b03811162000f465762000f4260209162000054565b0190565b6200005e565b9062000f6262000f5c8362000f27565b6200009d565b918252565b369037565b9062000f9762000f7c8362000f4c565b9260208062000f8c869362000f27565b920191039062000f67565b565b600360fc1b90565b634e487b7160e01b5f52603260045260245ffd5b5190565b9062000fc58262000fb5565b81101562000fd857600160209102010190565b62000fa1565b90565b62000ffa62000ff4620010009262000fde565b6200043d565b6200012e565b90565b600f60fb1b90565b90565b62001027620010216200102d926200100b565b6200043d565b6200012e565b90565b6200103b906200012e565b5f81146200104a576001900390565b62000916565b90565b6200106c62001066620010729262001050565b6200043d565b6200012e565b90565b6200108e6200108862001094926200012e565b6200043d565b620002fd565b90565b90565b620010b3620010ad620010b99262001097565b6200043d565b6200012e565b90565b90565b620010d8620010d2620010de92620010bc565b6200043d565b620002fd565b90565b90565b620010fd620010f76200110392620010e1565b6200043d565b620002fd565b90565b620011156200111c91620002fd565b91620002fd565b019060ff82116200112957565b62000916565b60ff60f81b1690565b60f81b90565b62001157620011516200115d92620002fd565b62001138565b6200112f565b90565b90565b6200117c62001176620011829262001160565b6200043d565b620002fd565b90565b620011ab90620011a46200119d620011b194620002fd565b916200012e565b906200074a565b6200012e565b90565b9190620011c062000ed2565b50620012756200126262001202620011fc620011e96002620011e3879162000eda565b6200092a565b620011f5600262000eda565b9062000efc565b62000f6c565b926200120d62000f99565b6200122885620012215f935f1a9362000fe1565b9062000fb9565b536200123362001003565b6200124f85620012486001935f1a936200100e565b9062000fb9565b536200125c600262000eda565b6200092a565b6200126e60016200100e565b9062000efc565b925b836200128f6200128860016200100e565b916200012e565b11156200134b576200132b816200130662001300620012bf6200133295620012b8600f62001053565b1662001075565b83620012cc600f62001053565b16620012e4620012dd600a6200109a565b916200012e565b105f146200133957620012f86030620010e4565b5b9062001106565b6200113e565b62001317859188905f1a9262000fb9565b5362001324600462001163565b9062001185565b9362001030565b9262001277565b620013456057620010bf565b620012f9565b5062001359919250620005c2565b9056fe60806040526004361015610013575b6108bb565b61001d5f3561007c565b8063117df088146100775780631ba8c1b4146100725780632bf549931461006d5780637e88f60314610068578063d5178b53146100635763e8f4e9d40361000e57610883565b61020f565b6101e6565b6101bc565b6100fe565b6100a4565b60e01c90565b60405190565b5f80fd5b5f80fd5b5f91031261009a57565b61008c565b5f0190565b346100d2576100b4366004610090565b6100bc610f25565b6100c4610082565b806100ce8161009f565b0390f35b610088565b151590565b6100e5906100d7565b9052565b91906100fc905f602085019401906100dc565b565b3461012e5761010e366004610090565b61012a6101196110d8565b610121610082565b918291826100e9565b0390f35b610088565b90565b61013f81610133565b0361014657565b5f80fd5b9050359061015782610136565b565b60ff1690565b61016881610159565b0361016f57565b5f80fd5b905035906101808261015f565b565b90916060828403126101b7576101b461019d845f850161014a565b936101ab816020860161014a565b93604001610173565b90565b61008c565b6101d06101ca366004610182565b91610afe565b6101d8610082565b806101e28161009f565b0390f35b6101f1366004610090565b6101f9610cdb565b610201610082565b8061020b8161009f565b0390f35b3461023f5761021f366004610090565b61023b61022a611463565b610232610082565b918291826100e9565b0390f35b610088565b634e487b7160e01b5f52602260045260245ffd5b9060016002830492168015610278575b602083101461027357565b610244565b91607f1691610268565b60209181520190565b5f5260205f2090565b905f92918054906102ae6102a783610258565b8094610282565b916001811690815f1461030557506001146102c9575b505050565b6102d6919293945061028b565b915f925b8184106102ed57505001905f80806102c4565b600181602092959395548486015201910192906102da565b92949550505060ff19168252151560200201905f80806102c4565b9061032a91610294565b90565b601f801991011690565b634e487b7160e01b5f52604160045260245ffd5b906103559061032d565b810190811067ffffffffffffffff82111761036f57604052565b610337565b9061039461038d92610384610082565b93848092610320565b038361034b565b565b52565b5f1c90565b61ffff1690565b6103b16103b691610399565b61039e565b90565b6103c390546103a5565b90565b61ffff1690565b906103d7906103c6565b9052565b90565b6103ea6103ef91610399565b6103db565b90565b6103fc90546103de565b90565b90565b9061040c906103ff565b9052565b5490565b90610427610420610082565b928361034b565b565b67ffffffffffffffff81116104415760208091020190565b610337565b9061045861045383610429565b610414565b918252565b5f5260205f2090565b61046f90610374565b90565b9061047c82610410565b61048581610446565b92610493602085019161045d565b5f915b8383106104a35750505050565b6001602081926104b285610466565b815201920192019190610496565b52565b6104cd60e0610414565b90565b9061057f61057660066104e16104c3565b946104f86104f05f8301610374565b5f8801610396565b61051061050760018301610374565b60208801610396565b61052861051f600283016103b9565b604088016103cd565b610540610537600383016103f2565b60608801610402565b61055861054f60048301610374565b60808801610396565b610570610567600583016103f2565b60a08801610402565b01610472565b60c084016104c0565b565b90565b61059061059591610399565b610581565b90565b6105a29054610584565b90565b906105af90610133565b9052565b60ff1690565b6105c56105ca91610399565b6105b3565b90565b6105d790546105b9565b90565b906105e490610159565b9052565b6105f26060610414565b90565b9061064461063b60026106066105e8565b9461061d6106155f8301610598565b5f88016105a5565b61063561062c60018301610598565b602088016105a5565b016105cd565b604084016105da565b565b5f6106525f82016104d0565b9161066b600a610664600785016105f5565b93016105f5565b90565b5190565b5f5b838110610684575050905f910152565b806020918301518185015201610674565b6106b46106bd6020936106c2936106ab8161066e565b93848093610282565b95869101610672565b61032d565b0190565b6106cf906103c6565b9052565b6106dc906103ff565b9052565b5190565b60209181520190565b60200190565b906106fd91610695565b90565b60200190565b9061071a610713836106e0565b80926106e4565b908161072b602083028401946106ed565b925f915b83831061073e57505050505090565b9091929394602061076061075a838560019503875289516106f3565b97610700565b930193019193929061072f565b6107fb9160c06107d86107a261079060e085015f8701518682035f880152610695565b60208601518582036020870152610695565b6107b4604086015160408601906106c6565b6107c6606086015160608601906106d3565b60808501518482036080860152610695565b926107eb60a082015160a08501906106d3565b01519060c0818403910152610706565b90565b61080790610133565b9052565b61081490610159565b9052565b9060408061084c936108305f8201515f8601906107fe565b610842602082015160208601906107fe565b015191019061080b565b565b60809061087a61086f6108819597969460e08401908482035f86015261076d565b966020830190610818565b0190610818565b565b346108b657610893366004610090565b6108b261089e610646565b6108a9939193610082565b9384938461084e565b0390f35b610088565b5f80fd5b60018060a01b031690565b6108d66108db91610399565b6108bf565b90565b6108e890546108ca565b90565b60018060a01b031690565b6108ff906108eb565b90565b90565b61091961091461091e926108eb565b610902565b6108eb565b90565b61092a90610905565b90565b61093690610921565b90565b60209181520190565b5f7f596f7520617265206e6f74207468652074656e616e742e000000000000000000910152565b6109766017602092610939565b61097f81610942565b0190565b6109989060208101905f818303910152610969565b90565b156109a257565b6109aa610082565b62461bcd60e51b8152806109c060048201610983565b0390fd5b5f7f4c657373206f72206d6f7265207468616e206465706f7369742e000000000000910152565b6109f8601a602092610939565b610a01816109c4565b0190565b610a1a9060208101905f8183039101526109eb565b90565b15610a2457565b610a2c610082565b62461bcd60e51b815280610a4260048201610a05565b0390fd5b5f1b90565b90610a575f1991610a46565b9181191691161790565b610a6a90610133565b90565b610a7690610399565b90565b90610a8e610a89610a9592610a61565b610a6d565b8254610a4b565b9055565b90610aa560ff91610a46565b9181191691161790565b610ac3610abe610ac892610159565b610902565b610159565b90565b90565b90610ae3610ade610aea92610aaf565b610acb565b8254610a99565b9055565b610af6610082565b3d5f823e3d90fd5b610b7b9291610b63610b6f92610b2f33610b29610b23610b1e600e6108de565b61092d565b916108f6565b1461099b565b610b5834610b52610b4c610b4760035f8001016103f2565b6103ff565b916103ff565b14610a1d565b5f6007810101610a79565b600160075f0101610a79565b600260075f0101610ace565b5f808080610b91610b8c600d6108de565b61092d565b3490828215610ba8575bf115610ba357565b610aee565b506108fc610b9b565b5f7f4f6e6c7920746865206c616e646c6f72642063616e206465706f7369742e0000910152565b610be5601e602092610939565b610bee81610bb1565b0190565b610c079060208101905f818303910152610bd8565b90565b15610c1157565b610c19610082565b62461bcd60e51b815280610c2f60048201610bf2565b0390fd5b60207f6465706f7369742e000000000000000000000000000000000000000000000000917f496e73756666696369656e742066756e647320746f20636f76657220746865205f8201520152565b610c8d6028604092610939565b610c9681610c33565b0190565b610caf9060208101905f818303910152610c80565b90565b15610cb957565b610cc1610082565b62461bcd60e51b815280610cd760048201610c9a565b0390fd5b610d0033610cfa610cf4610cef600d6108de565b61092d565b916108f6565b14610c0a565b610d2a34610d23610d1d610d1860035f8001016103f2565b6103ff565b916103ff565b1015610cb2565b565b60207f206465706f7369742e0000000000000000000000000000000000000000000000917f4f6e6c79207468652074656e616e742063616e207769746864726177207468655f8201520152565b610d866029604092610939565b610d8f81610d2c565b0190565b610da89060208101905f818303910152610d79565b90565b15610db257565b610dba610082565b62461bcd60e51b815280610dd060048201610d93565b0390fd5b62ffffff1690565b610df0610deb610df5926103c6565b610902565b610dd4565b90565b90565b610e0f610e0a610e1492610df8565b610902565b610dd4565b90565b634e487b7160e01b5f52601160045260245ffd5b610e37610e3d91610dd4565b91610dd4565b0290610e4882610dd4565b918203610e5157565b610e17565b610e6a610e65610e6f92610dd4565b610902565b6103ff565b90565b610e81610e87919392936103ff565b926103ff565b8201809211610e9257565b610e17565b5f7f4c6561736520686173206e6f742079657420657870697265642e000000000000910152565b610ecb601a602092610939565b610ed481610e97565b0190565b610eed9060208101905f818303910152610ebe565b90565b15610ef757565b610eff610082565b62461bcd60e51b815280610f1560048201610ed8565b0390fd5b610f2290610921565b90565b610f4a33610f44610f3e610f39600e6108de565b61092d565b916108f6565b14610dab565b610fb042610fa9610fa3610f9e610f6560055f8001016103f2565b610f98610f93610f7960025f8001016103b9565b610f8e610f8862278d00610dfb565b91610ddc565b610e2b565b610e56565b90610e72565b6103ff565b916103ff565b1015610ef0565b5f808080610fc6610fc1600e6108de565b61092d565b610fcf30610f19565b3190828215610fe6575bf115610fe157565b610aee565b506108fc610fd9565b5f90565b610ffc90610472565b90565b905090565b5f7f19457468657265756d205369676e6564204d6573736167653a0a333200000000910152565b611037601c8092610fff565b61104081611004565b0190565b90565b61105361105891610133565b611044565b9052565b9061107261106b60209361102b565b8092611047565b0190565b60200190565b5190565b61108990610133565b9052565b61109690610159565b9052565b6110cf6110d6946110c56060949897956110bb608086019a5f870190611080565b602085019061108d565b6040830190611080565b0190611080565b565b6110e0610fef565b5060205f61116f61117d61115c8380800101600185800101906111076002878001016103b9565b906111166003888001016103f2565b6004888001019261112b60058a8001016103f2565b9361115661115061114a61114460068e80010197610466565b98610466565b92610466565b94610ff3565b95611388565b611164610082565b92839186830161105c565b85820181038252038261034b565b61118f6111898261107c565b91611076565b2061119f600260078401016105cd565b906111d26111b1846007810101610598565b6111c060016007870101610598565b906111c9610082565b9485948561109a565b838052039060015afa15611209576111ea5f51610a46565b6112056111ff6111fa600e6108de565b61092d565b916108f6565b1490565b610aee565b5f90565b606090565b90565b61122e61122961123392611217565b610902565b6103ff565b90565b61123f906103ff565b5f19811461124d5760010190565b610e17565b634e487b7160e01b5f52603260045260245ffd5b90611270826106e0565b811015611281576020809102010190565b611252565b905090565b6112b06112a79260209261129e8161107c565b94858093611286565b93849101610672565b0190565b6112d96112d0926020926112c78161066e565b94858093610fff565b93849101610672565b0190565b6112eb906112f1939261128b565b906112b4565b90565b60f01b90565b611303906112f4565b90565b611312611317916103c6565b6112fa565b9052565b90565b61132a61132f916103ff565b61131b565b9052565b611385979694611370600261137e966113686113616113779861135b60209d99988e996112b4565b906112b4565b8092611306565b01809261131e565b01906112b4565b809261131e565b019061128b565b90565b959693949290919261139861120e565b506113a1611212565b956113ab5f61121a565b965b876113c86113c26113bd8d6106e0565b6103ff565b916103ff565b10156114145761140e906114086113e08c8b90611266565b51916113f96113ed610082565b938492602084016112dd565b6020820181038252038261034b565b97611236565b966113ad565b929395985061144d965061143e949795979390919293611432610082565b98899760208901611333565b6020820181038252038261034b565b61145f6114598261107c565b91611076565b2090565b61146b610fef565b5060205f6114fa6115086114e78380800101600185800101906114926002878001016103b9565b906114a16003888001016103f2565b600488800101926114b660058a8001016103f2565b936114e16114db6114d56114cf60068e80010197610466565b98610466565b92610466565b94610ff3565b95611388565b6114ef610082565b92839186830161105c565b85820181038252038261034b565b61151a6115148261107c565b91611076565b2061152a6002600a8401016105cd565b9061155d61153c84600a810101610598565b61154b6001600a870101610598565b90611554610082565b9485948561109a565b838052039060015afa15611594576115755f51610a46565b61159061158a611585600d6108de565b61092d565b916108f6565b1490565b610aee56fea26469706673582212204887050895a1377a7285210d6a87525d35749e15cbc0e008f3d4fb78479fb97464736f6c63430008150033",
  "immutableReferences": {},
  "source": "// SPDX-License-Identifier: MIT\r\npragma solidity ^0.8.0;\r\n\r\ncontract LongTermRent {\r\n\r\n    struct Signature{\r\n        bytes32 r;\r\n        bytes32 s;\r\n        uint8 v;\r\n    }\r\n\r\n    struct ContractInfo {\r\n        string landlordDID; //   \r\n        string tenantDID; //   \r\n        uint16 leasePeriod; //   ( )\r\n        uint256 deposit; // \r\n        string propertyDID; //   \r\n        uint256 contractDate; //   (timestamp)\r\n        string[] terms; //   \r\n    }\r\n\r\n    struct LongTermRentContract {\r\n        ContractInfo contractInfo;\r\n        Signature tenantSignature;\r\n        Signature landlordSignature;\r\n    }\r\n\r\n    LongTermRentContract public rentalContract;\r\n\r\n    address payable landlordAddress;\r\n    address payable tenantAddress;\r\n\r\n    function toHexString(uint256 value, uint length) private pure returns (string memory) {\r\n        bytes memory buffer = new bytes(2 * length + 2);\r\n        buffer[0] = '0';\r\n        buffer[1] = 'x';\r\n        for (uint i = 2 * length + 1; i > 1; --i) {\r\n            buffer[i] = bytes1(uint8(value & 0xf) + (value & 0xf < 10 ? 48 : 87));\r\n            value >>= 4;\r\n        }\r\n        return string(buffer);\r\n    }\r\n\r\n    function getMessageHash(\r\n        string memory _landlordDID,\r\n        string memory _tenantDID,\r\n        uint16 _leasePeriod, \r\n        uint256 _deposit,\r\n        string memory _propertyDID, \r\n        uint256 _contractDate,\r\n        string[] memory _terms) private pure returns (bytes32){\r\n        bytes memory packedData;\r\n        for (uint i = 0; i < _terms.length; i++) {\r\n            packedData = abi.encodePacked(packedData, _terms[i]);\r\n        }\r\n        return keccak256(abi.encodePacked(_landlordDID,_tenantDID,_leasePeriod,_deposit,_propertyDID,_contractDate,packedData));\r\n    }\r\n\r\n    constructor (\r\n        address _landlordAddress,\r\n        address _tenantAddress,\r\n        uint16 _leasePeriod,\r\n        uint256 _deposit,\r\n        string memory _propertyDID,\r\n        uint256 _contractDate,\r\n        string[] memory _terms,\r\n        bytes32 _r, bytes32 _s, uint8 _v\r\n    ) {\r\n        landlordAddress = payable(_landlordAddress);\r\n        tenantAddress = payable(_tenantAddress);\r\n\r\n        //   \r\n        rentalContract.contractInfo.landlordDID = string(abi.encodePacked(\"did:klay:\", toHexString(uint256(uint160(_landlordAddress)), 20)));\r\n        rentalContract.contractInfo.tenantDID = string(abi.encodePacked(\"did:klay:\", toHexString(uint256(uint160(_tenantAddress)), 20)));\r\n        rentalContract.contractInfo.leasePeriod = _leasePeriod;\r\n        rentalContract.contractInfo.deposit = _deposit;\r\n        rentalContract.contractInfo.propertyDID = _propertyDID;\r\n        rentalContract.contractInfo.contractDate = _contractDate;\r\n        rentalContract.contractInfo.terms = _terms;\r\n\r\n        rentalContract.landlordSignature.r=_r;\r\n        rentalContract.landlordSignature.s=_s;\r\n        rentalContract.landlordSignature.v=_v;\r\n    }\r\n\r\n    //      payable \r\n    function tenantSign(bytes32 _r, bytes32 _s, uint8 _v) public payable {\r\n        require(msg.sender == tenantAddress, \"You are not the tenant.\");\r\n        require(msg.value == rentalContract.contractInfo.deposit, \"Less or more than deposit.\");\r\n        rentalContract.tenantSignature.r=_r;\r\n        rentalContract.tenantSignature.s=_s;\r\n        rentalContract.tenantSignature.v=_v;\r\n        //    \r\n        landlordAddress.transfer(msg.value);\r\n    }\r\n\r\n    //    \r\n    function returnDeposit() public payable {\r\n        require(msg.sender == landlordAddress, \"Only the landlord can deposit.\");\r\n        require(msg.value >= rentalContract.contractInfo.deposit, \"Insufficient funds to cover the deposit.\");\r\n    }\r\n\r\n    //   \r\n    function withdrawDeposit() public {\r\n        require(msg.sender == tenantAddress, \"Only the tenant can withdraw the deposit.\");\r\n        require(block.timestamp >= rentalContract.contractInfo.contractDate + rentalContract.contractInfo.leasePeriod * 30 days, \"Lease has not yet expired.\");\r\n        tenantAddress.transfer(address(this).balance);\r\n    }\r\n\r\n    function verifyTenantSignature() public view returns (bool) {\r\n        bytes32 messageHash = getMessageHash(rentalContract.contractInfo.landlordDID,rentalContract.contractInfo.tenantDID,rentalContract.contractInfo.leasePeriod,rentalContract.contractInfo.deposit,rentalContract.contractInfo.propertyDID,rentalContract.contractInfo.contractDate,rentalContract.contractInfo.terms);\r\n        bytes32 ethSignedMessageHash = keccak256(\r\n            abi.encodePacked(\"\\x19Ethereum Signed Message:\\n32\", messageHash)\r\n        );\r\n\r\n        // ecrecover    \r\n        address recoveredSigner = ecrecover(ethSignedMessageHash, rentalContract.tenantSignature.v, rentalContract.tenantSignature.r, rentalContract.tenantSignature.s);\r\n        return (recoveredSigner==tenantAddress);\r\n    }\r\n\r\n    function verifyLandlordSignature() public view returns (bool) {\r\n        bytes32 messageHash = getMessageHash(rentalContract.contractInfo.landlordDID,rentalContract.contractInfo.tenantDID,rentalContract.contractInfo.leasePeriod,rentalContract.contractInfo.deposit,rentalContract.contractInfo.propertyDID,rentalContract.contractInfo.contractDate,rentalContract.contractInfo.terms);\r\n        bytes32 ethSignedMessageHash = keccak256(\r\n            abi.encodePacked(\"\\x19Ethereum Signed Message:\\n32\", messageHash)\r\n        );\r\n\r\n        // ecrecover    \r\n        address recoveredSigner = ecrecover(ethSignedMessageHash, rentalContract.landlordSignature.v, rentalContract.landlordSignature.r, rentalContract.landlordSignature.s);\r\n        return (recoveredSigner==landlordAddress);\r\n    }\r\n\r\n}",
  "sourcePath": "C:\\Users\\SSAFY\\Desktop\\S10P31C203\\blockchain\\contracts\\real-estate\\LongTermRent.sol",
  "compiler": {
    "name": "solc",
    "version": "0.8.21+commit.d9974bed.Emscripten.clang"
  },
  "schemaVersion": "3.4.16",
  "updatedAt": "2024-05-16T06:57:34.617Z",
  "devdoc": {
    "kind": "dev",
    "methods": {},
    "version": 1
  },
  "userdoc": {
    "kind": "user",
    "methods": {},
    "version": 1
  }
}