{
  "contractName": "LongTermRent",
  "abi": [
    {
      "inputs": [
        {
          "internalType": "address payable",
          "name": "_landlordAddress",
          "type": "address"
        },
        {
          "internalType": "address payable",
          "name": "_tenantAddress",
          "type": "address"
        },
        {
          "internalType": "string",
          "name": "_landlordDID",
          "type": "string"
        },
        {
          "internalType": "string",
          "name": "_tenantDID",
          "type": "string"
        },
        {
          "internalType": "uint16",
          "name": "_leasePeriod",
          "type": "uint16"
        },
        {
          "internalType": "uint256",
          "name": "_deposit",
          "type": "uint256"
        },
        {
          "internalType": "string",
          "name": "_propertyDID",
          "type": "string"
        },
        {
          "internalType": "uint256",
          "name": "_contractDate",
          "type": "uint256"
        },
        {
          "internalType": "string[]",
          "name": "_terms",
          "type": "string[]"
        }
      ],
      "stateMutability": "nonpayable",
      "type": "constructor"
    },
    {
      "inputs": [],
      "name": "rentalContract",
      "outputs": [
        {
          "components": [
            {
              "internalType": "string",
              "name": "landlordDID",
              "type": "string"
            },
            {
              "internalType": "string",
              "name": "tenantDID",
              "type": "string"
            },
            {
              "internalType": "uint16",
              "name": "leasePeriod",
              "type": "uint16"
            },
            {
              "internalType": "uint256",
              "name": "deposit",
              "type": "uint256"
            },
            {
              "internalType": "string",
              "name": "propertyDID",
              "type": "string"
            },
            {
              "internalType": "uint256",
              "name": "contractDate",
              "type": "uint256"
            },
            {
              "internalType": "string[]",
              "name": "terms",
              "type": "string[]"
            }
          ],
          "internalType": "struct LongTermRent.ContractInfo",
          "name": "contractInfo",
          "type": "tuple"
        },
        {
          "internalType": "bytes32",
          "name": "contractInfoHash",
          "type": "bytes32"
        },
        {
          "internalType": "bytes",
          "name": "landlordSignature",
          "type": "bytes"
        },
        {
          "internalType": "bytes",
          "name": "tenantSignature",
          "type": "bytes"
        }
      ],
      "stateMutability": "view",
      "type": "function"
    },
    {
      "inputs": [
        {
          "internalType": "bytes",
          "name": "_landlordSignature",
          "type": "bytes"
        }
      ],
      "name": "signContractByLandlord",
      "outputs": [],
      "stateMutability": "nonpayable",
      "type": "function"
    },
    {
      "inputs": [
        {
          "internalType": "bytes",
          "name": "_tenantSignature",
          "type": "bytes"
        }
      ],
      "name": "signContractByTenant",
      "outputs": [],
      "stateMutability": "nonpayable",
      "type": "function"
    },
    {
      "inputs": [],
      "name": "verifyContract",
      "outputs": [
        {
          "internalType": "bool",
          "name": "",
          "type": "bool"
        }
      ],
      "stateMutability": "view",
      "type": "function"
    },
    {
      "inputs": [],
      "name": "payDeposit",
      "outputs": [],
      "stateMutability": "payable",
      "type": "function"
    },
    {
      "inputs": [],
      "name": "returnDeposit",
      "outputs": [],
      "stateMutability": "payable",
      "type": "function"
    },
    {
      "inputs": [],
      "name": "withdrawDeposit",
      "outputs": [],
      "stateMutability": "nonpayable",
      "type": "function"
    }
  ],
  "bytecode": "0x608060405234801562000010575f80fd5b506040516200276d3803806200276d8339818101604052810190620000369190620005c1565b88600a5f6101000a81548173ffffffffffffffffffffffffffffffffffffffff021916908373ffffffffffffffffffffffffffffffffffffffff16021790555087600b5f6101000a81548173ffffffffffffffffffffffffffffffffffffffff021916908373ffffffffffffffffffffffffffffffffffffffff160217905550865f80015f019081620000ca919062000944565b50855f80016001019081620000e0919062000944565b50845f80016002015f6101000a81548161ffff021916908361ffff160217905550835f800160030181905550825f8001600401908162000121919062000944565b50815f800160050181905550805f80016006019080519060200190620001499291906200018a565b505f6040516020016200015d919062000e5f565b604051602081830303815290604052805190602001205f6007018190555050505050505050505062000e81565b828054828255905f5260205f20908101928215620001d5579160200282015b82811115620001d4578251829081620001c3919062000944565b5091602001919060010190620001a9565b5b509050620001e49190620001e8565b5090565b5b808211156200020b575f81816200020191906200020f565b50600101620001e9565b5090565b5080546200021d906200074d565b5f825580601f106200023057506200024f565b601f0160209004905f5260205f20908101906200024e919062000252565b5b50565b5b808211156200026b575f815f90555060010162000253565b5090565b5f604051905090565b5f80fd5b5f80fd5b5f73ffffffffffffffffffffffffffffffffffffffff82169050919050565b5f620002ab8262000280565b9050919050565b620002bd816200029f565b8114620002c8575f80fd5b50565b5f81519050620002db81620002b2565b92915050565b5f80fd5b5f80fd5b5f601f19601f8301169050919050565b7f4e487b71000000000000000000000000000000000000000000000000000000005f52604160045260245ffd5b6200033182620002e9565b810181811067ffffffffffffffff82111715620003535762000352620002f9565b5b80604052505050565b5f620003676200026f565b905062000375828262000326565b919050565b5f67ffffffffffffffff821115620003975762000396620002f9565b5b620003a282620002e9565b9050602081019050919050565b5f5b83811015620003ce578082015181840152602081019050620003b1565b5f8484015250505050565b5f620003ef620003e9846200037a565b6200035c565b9050828152602081018484840111156200040e576200040d620002e5565b5b6200041b848285620003af565b509392505050565b5f82601f8301126200043a5762000439620002e1565b5b81516200044c848260208601620003d9565b91505092915050565b5f61ffff82169050919050565b6200046d8162000455565b811462000478575f80fd5b50565b5f815190506200048b8162000462565b92915050565b5f819050919050565b620004a58162000491565b8114620004b0575f80fd5b50565b5f81519050620004c3816200049a565b92915050565b5f67ffffffffffffffff821115620004e657620004e5620002f9565b5b602082029050602081019050919050565b5f80fd5b5f620005116200050b84620004c9565b6200035c565b90508083825260208201905060208402830185811115620005375762000536620004f7565b5b835b818110156200058557805167ffffffffffffffff81111562000560576200055f620002e1565b5b8086016200056f898262000423565b8552602085019450505060208101905062000539565b5050509392505050565b5f82601f830112620005a657620005a5620002e1565b5b8151620005b8848260208601620004fb565b91505092915050565b5f805f805f805f805f6101208a8c031215620005e257620005e162000278565b5b5f620005f18c828d01620002cb565b9950506020620006048c828d01620002cb565b98505060408a015167ffffffffffffffff8111156200062857620006276200027c565b5b620006368c828d0162000423565b97505060608a015167ffffffffffffffff8111156200065a57620006596200027c565b5b620006688c828d0162000423565b96505060806200067b8c828d016200047b565b95505060a06200068e8c828d01620004b3565b94505060c08a015167ffffffffffffffff811115620006b257620006b16200027c565b5b620006c08c828d0162000423565b93505060e0620006d38c828d01620004b3565b9250506101008a015167ffffffffffffffff811115620006f857620006f76200027c565b5b620007068c828d016200058f565b9150509295985092959850929598565b5f81519050919050565b7f4e487b71000000000000000000000000000000000000000000000000000000005f52602260045260245ffd5b5f60028204905060018216806200076557607f821691505b6020821081036200077b576200077a62000720565b5b50919050565b5f819050815f5260205f209050919050565b5f6020601f8301049050919050565b5f82821b905092915050565b5f60088302620007df7fffffffffffffffffffffffffffffffffffffffffffffffffffffffffffffffff82620007a2565b620007eb8683620007a2565b95508019841693508086168417925050509392505050565b5f819050919050565b5f6200082c62000826620008208462000491565b62000803565b62000491565b9050919050565b5f819050919050565b62000847836200080c565b6200085f620008568262000833565b848454620007ae565b825550505050565b5f90565b6200087562000867565b620008828184846200083c565b505050565b5b81811015620008a9576200089d5f826200086b565b60018101905062000888565b5050565b601f821115620008f857620008c28162000781565b620008cd8462000793565b81016020851015620008dd578190505b620008f5620008ec8562000793565b83018262000887565b50505b505050565b5f82821c905092915050565b5f6200091a5f1984600802620008fd565b1980831691505092915050565b5f62000934838362000909565b9150826002028217905092915050565b6200094f8262000716565b67ffffffffffffffff8111156200096b576200096a620002f9565b5b6200097782546200074d565b62000984828285620008ad565b5f60209050601f831160018114620009ba575f8415620009a5578287015190505b620009b1858262000927565b86555062000a20565b601f198416620009ca8662000781565b5f5b82811015620009f357848901518255600182019150602085019450602081019050620009cc565b8683101562000a13578489015162000a0f601f89168262000909565b8355505b6001600288020188555050505b505050505050565b5f82825260208201905092915050565b5f815462000a46816200074d565b62000a52818662000a28565b9450600182165f811462000a6f576001811462000a865762000abc565b60ff19831686528115156020028601935062000abc565b62000a918562000781565b5f5b8381101562000ab45781548189015260018201915060208101905062000a93565b808801955050505b50505092915050565b5f815f1c9050919050565b5f61ffff82169050919050565b5f62000af362000aed8362000ac5565b62000ad0565b9050919050565b62000b058162000455565b82525050565b5f819050919050565b5f62000b2a62000b248362000ac5565b62000b0b565b9050919050565b62000b3c8162000491565b82525050565b5f81549050919050565b5f82825260208201905092915050565b5f819050815f5260205f209050919050565b5f62000b7b838362000a38565b905092915050565b5f600182019050919050565b5f62000b9b8262000b42565b62000ba7818562000b4c565b93508360208202850162000bbb8562000b5c565b805f5b8581101562000bfb5784840389528162000bd9858262000b6e565b945062000be68362000b83565b925060208a0199505060018101905062000bbe565b50829750879550505050505092915050565b5f60e083015f8084018583035f87015262000c29838262000a38565b92505060018401858303602087015262000c44838262000a38565b9250506002840154905062000c598162000add565b62000c68604087018262000afa565b506003840154905062000c7b8162000b14565b62000c8a606087018262000b31565b5060048401858303608087015262000ca3838262000a38565b9250506005840154905062000cb88162000b14565b62000cc760a087018262000b31565b506006840185830360c087015262000ce0838262000b8f565b925050819250505092915050565b5f819050919050565b5f62000d0d62000d078362000ac5565b62000cee565b9050919050565b5f819050919050565b62000d288162000d14565b82525050565b5f82825260208201905092915050565b5f819050815f5260205f209050919050565b5f815462000d5e816200074d565b62000d6a818662000d2e565b9450600182165f811462000d87576001811462000d9e5762000dd4565b60ff19831686528115156020028601935062000dd4565b62000da98562000d3e565b5f5b8381101562000dcc5781548189015260018201915060208101905062000dab565b808801955050505b50505092915050565b5f608083015f8084018583035f87015262000df9838262000c0d565b9250506007840154905062000e0e8162000cf7565b62000e1d602087018262000d1d565b5060088401858303604087015262000e36838262000d50565b92505060098401858303606087015262000e51838262000d50565b925050819250505092915050565b5f6020820190508181035f83015262000e79818462000ddd565b905092915050565b6118de8062000e8f5f395ff3fe60806040526004361061006f575f3560e01c80637e88f6031161004d5780637e88f603146100bb578063a0d948ea146100c5578063caa5fbaf146100ef578063e8f4e9d4146101175761006f565b8063117df0881461007357806330f532b3146100895780635c274b86146100b1575b5f80fd5b34801561007e575f80fd5b50610087610144565b005b348015610094575f80fd5b506100af60048036038101906100aa9190610bc4565b6102b8565b005b6100b961035c565b005b6100c361049b565b005b3480156100d0575f80fd5b506100d9610575565b6040516100e69190610c25565b60405180910390f35b3480156100fa575f80fd5b5061011560048036038101906101109190610bc4565b6105eb565b005b348015610122575f80fd5b5061012b61068f565b60405161013b9493929190610ebf565b60405180910390f35b600b5f9054906101000a900473ffffffffffffffffffffffffffffffffffffffff1673ffffffffffffffffffffffffffffffffffffffff163373ffffffffffffffffffffffffffffffffffffffff16146101d3576040517f08c379a00000000000000000000000000000000000000000000000000000000081526004016101ca90610f97565b60405180910390fd5b62278d005f80016002015f9054906101000a900461ffff1661ffff166101f99190610ff0565b62ffffff165f80016005015461020f919061102c565b421015610251576040517f08c379a0000000000000000000000000000000000000000000000000000000008152600401610248906110a9565b60405180910390fd5b600b5f9054906101000a900473ffffffffffffffffffffffffffffffffffffffff1673ffffffffffffffffffffffffffffffffffffffff166108fc4790811502906040515f60405180830381858888f193505050501580156102b5573d5f803e3d5ffd5b50565b600b5f9054906101000a900473ffffffffffffffffffffffffffffffffffffffff1673ffffffffffffffffffffffffffffffffffffffff163373ffffffffffffffffffffffffffffffffffffffff1614610347576040517f08c379a000000000000000000000000000000000000000000000000000000000815260040161033e90611137565b60405180910390fd5b805f6009019081610358919061134f565b5050565b600b5f9054906101000a900473ffffffffffffffffffffffffffffffffffffffff1673ffffffffffffffffffffffffffffffffffffffff163373ffffffffffffffffffffffffffffffffffffffff16146103eb576040517f08c379a00000000000000000000000000000000000000000000000000000000081526004016103e29061148e565b60405180910390fd5b5f800160030154341015610434576040517f08c379a000000000000000000000000000000000000000000000000000000000815260040161042b9061151c565b60405180910390fd5b600a5f9054906101000a900473ffffffffffffffffffffffffffffffffffffffff1673ffffffffffffffffffffffffffffffffffffffff166108fc3490811502906040515f60405180830381858888f19350505050158015610498573d5f803e3d5ffd5b50565b600a5f9054906101000a900473ffffffffffffffffffffffffffffffffffffffff1673ffffffffffffffffffffffffffffffffffffffff163373ffffffffffffffffffffffffffffffffffffffff161461052a576040517f08c379a000000000000000000000000000000000000000000000000000000000815260040161052190611584565b60405180910390fd5b5f800160030154341015610573576040517f08c379a000000000000000000000000000000000000000000000000000000000815260040161056a90611612565b60405180910390fd5b565b5f805f80015f015f80016001015f80016002015f9054906101000a900461ffff165f8001600301545f80016004015f8001600501545f80016006016040516020016105c6979695949392919061181f565b604051602081830303815290604052805190602001209050805f600701541491505090565b600a5f9054906101000a900473ffffffffffffffffffffffffffffffffffffffff1673ffffffffffffffffffffffffffffffffffffffff163373ffffffffffffffffffffffffffffffffffffffff161461067a576040517f08c379a000000000000000000000000000000000000000000000000000000000815260040161067190611137565b60405180910390fd5b805f600801908161068b919061134f565b5050565b5f805f016040518060e00160405290815f820180546106ad90611182565b80601f01602080910402602001604051908101604052809291908181526020018280546106d990611182565b80156107245780601f106106fb57610100808354040283529160200191610724565b820191905f5260205f20905b81548152906001019060200180831161070757829003601f168201915b5050505050815260200160018201805461073d90611182565b80601f016020809104026020016040519081016040528092919081815260200182805461076990611182565b80156107b45780601f1061078b576101008083540402835291602001916107b4565b820191905f5260205f20905b81548152906001019060200180831161079757829003601f168201915b50505050508152602001600282015f9054906101000a900461ffff1661ffff1661ffff168152602001600382015481526020016004820180546107f690611182565b80601f016020809104026020016040519081016040528092919081815260200182805461082290611182565b801561086d5780601f106108445761010080835404028352916020019161086d565b820191905f5260205f20905b81548152906001019060200180831161085057829003601f168201915b505050505081526020016005820154815260200160068201805480602002602001604051908101604052809291908181526020015f905b8282101561094c578382905f5260205f200180546108c190611182565b80601f01602080910402602001604051908101604052809291908181526020018280546108ed90611182565b80156109385780601f1061090f57610100808354040283529160200191610938565b820191905f5260205f20905b81548152906001019060200180831161091b57829003601f168201915b5050505050815260200190600101906108a4565b50505050815250509080600701549080600801805461096a90611182565b80601f016020809104026020016040519081016040528092919081815260200182805461099690611182565b80156109e15780601f106109b8576101008083540402835291602001916109e1565b820191905f5260205f20905b8154815290600101906020018083116109c457829003601f168201915b5050505050908060090180546109f690611182565b80601f0160208091040260200160405190810160405280929190818152602001828054610a2290611182565b8015610a6d5780601f10610a4457610100808354040283529160200191610a6d565b820191905f5260205f20905b815481529060010190602001808311610a5057829003601f168201915b5050505050905084565b5f604051905090565b5f80fd5b5f80fd5b5f80fd5b5f80fd5b5f601f19601f8301169050919050565b7f4e487b71000000000000000000000000000000000000000000000000000000005f52604160045260245ffd5b610ad682610a90565b810181811067ffffffffffffffff82111715610af557610af4610aa0565b5b80604052505050565b5f610b07610a77565b9050610b138282610acd565b919050565b5f67ffffffffffffffff821115610b3257610b31610aa0565b5b610b3b82610a90565b9050602081019050919050565b828183375f83830152505050565b5f610b68610b6384610b18565b610afe565b905082815260208101848484011115610b8457610b83610a8c565b5b610b8f848285610b48565b509392505050565b5f82601f830112610bab57610baa610a88565b5b8135610bbb848260208601610b56565b91505092915050565b5f60208284031215610bd957610bd8610a80565b5b5f82013567ffffffffffffffff811115610bf657610bf5610a84565b5b610c0284828501610b97565b91505092915050565b5f8115159050919050565b610c1f81610c0b565b82525050565b5f602082019050610c385f830184610c16565b92915050565b5f81519050919050565b5f82825260208201905092915050565b5f5b83811015610c75578082015181840152602081019050610c5a565b5f8484015250505050565b5f610c8a82610c3e565b610c948185610c48565b9350610ca4818560208601610c58565b610cad81610a90565b840191505092915050565b5f61ffff82169050919050565b610cce81610cb8565b82525050565b5f819050919050565b610ce681610cd4565b82525050565b5f81519050919050565b5f82825260208201905092915050565b5f819050602082019050919050565b5f610d208383610c80565b905092915050565b5f602082019050919050565b5f610d3e82610cec565b610d488185610cf6565b935083602082028501610d5a85610d06565b805f5b85811015610d955784840389528151610d768582610d15565b9450610d8183610d28565b925060208a01995050600181019050610d5d565b50829750879550505050505092915050565b5f60e083015f8301518482035f860152610dc18282610c80565b91505060208301518482036020860152610ddb8282610c80565b9150506040830151610df06040860182610cc5565b506060830151610e036060860182610cdd565b5060808301518482036080860152610e1b8282610c80565b91505060a0830151610e3060a0860182610cdd565b5060c083015184820360c0860152610e488282610d34565b9150508091505092915050565b5f819050919050565b610e6781610e55565b82525050565b5f81519050919050565b5f82825260208201905092915050565b5f610e9182610e6d565b610e9b8185610e77565b9350610eab818560208601610c58565b610eb481610a90565b840191505092915050565b5f6080820190508181035f830152610ed78187610da7565b9050610ee66020830186610e5e565b8181036040830152610ef88185610e87565b90508181036060830152610f0c8184610e87565b905095945050505050565b5f82825260208201905092915050565b7f4f6e6c79207468652074656e616e742063616e207769746864726177207468655f8201527f206465706f7369742e0000000000000000000000000000000000000000000000602082015250565b5f610f81602983610f17565b9150610f8c82610f27565b604082019050919050565b5f6020820190508181035f830152610fae81610f75565b9050919050565b5f62ffffff82169050919050565b7f4e487b71000000000000000000000000000000000000000000000000000000005f52601160045260245ffd5b5f610ffa82610fb5565b915061100583610fb5565b925082820261101381610fb5565b915080821461102557611024610fc3565b5b5092915050565b5f61103682610cd4565b915061104183610cd4565b925082820190508082111561105957611058610fc3565b5b92915050565b7f4c6561736520686173206e6f742079657420657870697265642e0000000000005f82015250565b5f611093601a83610f17565b915061109e8261105f565b602082019050919050565b5f6020820190508181035f8301526110c081611087565b9050919050565b7f4f6e6c79206c616e646c6f72642063616e207369676e2074686520636f6e74725f8201527f6163742e00000000000000000000000000000000000000000000000000000000602082015250565b5f611121602483610f17565b915061112c826110c7565b604082019050919050565b5f6020820190508181035f83015261114e81611115565b9050919050565b7f4e487b71000000000000000000000000000000000000000000000000000000005f52602260045260245ffd5b5f600282049050600182168061119957607f821691505b6020821081036111ac576111ab611155565b5b50919050565b5f819050815f5260205f209050919050565b5f6020601f8301049050919050565b5f82821b905092915050565b5f6008830261120e7fffffffffffffffffffffffffffffffffffffffffffffffffffffffffffffffff826111d3565b61121886836111d3565b95508019841693508086168417925050509392505050565b5f819050919050565b5f61125361124e61124984610cd4565b611230565b610cd4565b9050919050565b5f819050919050565b61126c83611239565b6112806112788261125a565b8484546111df565b825550505050565b5f90565b611294611288565b61129f818484611263565b505050565b5b818110156112c2576112b75f8261128c565b6001810190506112a5565b5050565b601f821115611307576112d8816111b2565b6112e1846111c4565b810160208510156112f0578190505b6113046112fc856111c4565b8301826112a4565b50505b505050565b5f82821c905092915050565b5f6113275f198460080261130c565b1980831691505092915050565b5f61133f8383611318565b9150826002028217905092915050565b61135882610e6d565b67ffffffffffffffff81111561137157611370610aa0565b5b61137b8254611182565b6113868282856112c6565b5f60209050601f8311600181146113b7575f84156113a5578287015190505b6113af8582611334565b865550611416565b601f1984166113c5866111b2565b5f5b828110156113ec578489015182556001820191506020850194506020810190506113c7565b868310156114095784890151611405601f891682611318565b8355505b6001600288020188555050505b505050505050565b7f4f6e6c79207468652074656e616e742063616e2070617920746865206465706f5f8201527f7369742e00000000000000000000000000000000000000000000000000000000602082015250565b5f611478602483610f17565b91506114838261141e565b604082019050919050565b5f6020820190508181035f8301526114a58161146c565b9050919050565b7f4465706f73697420616d6f756e74206973206e6f742073756666696369656e745f8201527f2e00000000000000000000000000000000000000000000000000000000000000602082015250565b5f611506602183610f17565b9150611511826114ac565b604082019050919050565b5f6020820190508181035f830152611533816114fa565b9050919050565b7f4f6e6c7920746865206c616e646c6f72642063616e206465706f7369742e00005f82015250565b5f61156e601e83610f17565b91506115798261153a565b602082019050919050565b5f6020820190508181035f83015261159b81611562565b9050919050565b7f496e73756666696369656e742066756e647320746f20636f76657220746865205f8201527f6465706f7369742e000000000000000000000000000000000000000000000000602082015250565b5f6115fc602883610f17565b9150611607826115a2565b604082019050919050565b5f6020820190508181035f830152611629816115f0565b9050919050565b5f819050815f5260205f209050919050565b5f815461164e81611182565b6116588186610f17565b9450600182165f81146116725760018114611688576116ba565b60ff1983168652811515602002860193506116ba565b61169185611630565b5f5b838110156116b257815481890152600182019150602081019050611693565b808801955050505b50505092915050565b6116cc81610cb8565b82525050565b6116db81610cd4565b82525050565b5f81549050919050565b5f82825260208201905092915050565b5f819050815f5260205f209050919050565b5f815461171981611182565b6117238186610c48565b9450600182165f811461173d576001811461175357611785565b60ff198316865281151560200286019350611785565b61175c85611630565b5f5b8381101561177d5781548189015260018201915060208101905061175e565b808801955050505b50505092915050565b5f611799838361170d565b905092915050565b5f600182019050919050565b5f6117b7826116e1565b6117c181856116eb565b9350836020820285016117d3856116fb565b805f5b8581101561180d578484038952816117ee858261178e565b94506117f9836117a1565b925060208a019950506001810190506117d6565b50829750879550505050505092915050565b5f60e0820190508181035f830152611837818a611642565b9050818103602083015261184b8189611642565b905061185a60408301886116c3565b61186760608301876116d2565b81810360808301526118798186611642565b905061188860a08301856116d2565b81810360c083015261189a81846117ad565b90509897505050505050505056fea26469706673582212202b56743b8627ad369dd196c213b73cc1d36a0d2768afb735faa6e91a3f11105b64736f6c63430008150033",
  "immutableReferences": {},
  "source": "// SPDX-License-Identifier: MIT\r\npragma solidity ^0.8.0;\r\n\r\ncontract LongTermRent {\r\n\r\n    struct ContractInfo {\r\n        string landlordDID; //   \r\n        string tenantDID; //   \r\n        uint16 leasePeriod; //   ( )\r\n        uint256 deposit; // \r\n        string propertyDID; //   \r\n        uint256 contractDate; //   (timestamp)\r\n        string[] terms; //   \r\n    }\r\n\r\n    struct LongTermRentContract {\r\n        ContractInfo contractInfo;\r\n        bytes32 contractInfoHash;\r\n\r\n        bytes landlordSignature; //  \r\n        bytes tenantSignature; //  \r\n    }\r\n\r\n    LongTermRentContract public rentalContract;\r\n\r\n    address payable landlordAddress;\r\n    address payable tenantAddress;\r\n\r\n    constructor(\r\n        address payable _landlordAddress,\r\n        address payable _tenantAddress,\r\n        string memory _landlordDID,\r\n        string memory _tenantDID,\r\n        uint16 _leasePeriod,\r\n        uint256 _deposit,\r\n        string memory _propertyDID,\r\n        uint256 _contractDate,\r\n        string[] memory _terms\r\n    ) {\r\n        landlordAddress = _landlordAddress;\r\n        tenantAddress = _tenantAddress;\r\n\r\n        //   \r\n        rentalContract.contractInfo.landlordDID = _landlordDID;\r\n        rentalContract.contractInfo.tenantDID = _tenantDID;\r\n        rentalContract.contractInfo.leasePeriod = _leasePeriod;\r\n        rentalContract.contractInfo.deposit = _deposit;\r\n        rentalContract.contractInfo.propertyDID = _propertyDID;\r\n        rentalContract.contractInfo.contractDate = _contractDate;\r\n        rentalContract.contractInfo.terms = _terms;\r\n\r\n        //    \r\n        rentalContract.contractInfoHash = keccak256(abi.encode(rentalContract));\r\n    }\r\n\r\n    function signContractByLandlord(bytes memory _landlordSignature) external {\r\n        require(msg.sender == landlordAddress, \"Only landlord can sign the contract.\");\r\n        rentalContract.landlordSignature = _landlordSignature;\r\n    }\r\n\r\n    function signContractByTenant(bytes memory _tenantSignature) external {\r\n        require(msg.sender == tenantAddress, \"Only landlord can sign the contract.\");\r\n        rentalContract.tenantSignature = _tenantSignature;\r\n    }\r\n\r\n    //   \r\n    function verifyContract() public view returns (bool) {\r\n        bytes32 hash = keccak256(\r\n            abi.encode(\r\n                rentalContract.contractInfo.landlordDID,\r\n                rentalContract.contractInfo.tenantDID,\r\n                rentalContract.contractInfo.leasePeriod,\r\n                rentalContract.contractInfo.deposit,\r\n                rentalContract.contractInfo.propertyDID,\r\n                rentalContract.contractInfo.contractDate,\r\n                rentalContract.contractInfo.terms\r\n            )\r\n        );\r\n\r\n        return rentalContract.contractInfoHash == hash;\r\n    }\r\n    \r\n    //      payable \r\n    function payDeposit() public payable {\r\n        require(msg.sender == tenantAddress, \"Only the tenant can pay the deposit.\");\r\n        require(msg.value >= rentalContract.contractInfo.deposit, \"Deposit amount is not sufficient.\");\r\n\r\n        //    \r\n        landlordAddress.transfer(msg.value);\r\n    }\r\n\r\n    //    \r\n    function returnDeposit() public payable {\r\n        require(msg.sender == landlordAddress, \"Only the landlord can deposit.\");\r\n        require(msg.value >= rentalContract.contractInfo.deposit, \"Insufficient funds to cover the deposit.\");\r\n    }\r\n\r\n    //   \r\n    function withdrawDeposit() public {\r\n        require(msg.sender == tenantAddress, \"Only the tenant can withdraw the deposit.\");\r\n        require(block.timestamp >= rentalContract.contractInfo.contractDate + rentalContract.contractInfo.leasePeriod * 30 days, \"Lease has not yet expired.\");\r\n        tenantAddress.transfer(address(this).balance);\r\n    }\r\n\r\n}",
  "sourcePath": "C:\\Users\\SSAFY\\Desktop\\S10P31C203\\blockchain\\contracts\\real-estate\\LongTermRent.sol",
  "compiler": {
    "name": "solc",
    "version": "0.8.21+commit.d9974bed.Emscripten.clang"
  },
  "schemaVersion": "3.4.16",
  "updatedAt": "2024-05-14T00:35:27.935Z",
  "devdoc": {
    "kind": "dev",
    "methods": {},
    "version": 1
  },
  "userdoc": {
    "kind": "user",
    "methods": {},
    "version": 1
  }
}