{
  "contractName": "LongTermRent",
  "abi": [
    {
      "inputs": [
        {
          "internalType": "address",
          "name": "_landlordAddress",
          "type": "address"
        },
        {
          "internalType": "address",
          "name": "_tenantAddress",
          "type": "address"
        },
        {
          "internalType": "uint16",
          "name": "_leasePeriod",
          "type": "uint16"
        },
        {
          "internalType": "uint256",
          "name": "_deposit",
          "type": "uint256"
        },
        {
          "internalType": "string",
          "name": "_propertyDID",
          "type": "string"
        },
        {
          "internalType": "string",
          "name": "_contractDate",
          "type": "string"
        },
        {
          "internalType": "string",
          "name": "_terms",
          "type": "string"
        },
        {
          "internalType": "bytes32",
          "name": "_r",
          "type": "bytes32"
        },
        {
          "internalType": "bytes32",
          "name": "_s",
          "type": "bytes32"
        },
        {
          "internalType": "uint8",
          "name": "_v",
          "type": "uint8"
        }
      ],
      "stateMutability": "nonpayable",
      "type": "constructor"
    },
    {
      "inputs": [],
      "name": "rentalContract",
      "outputs": [
        {
          "components": [
            {
              "internalType": "string",
              "name": "landlordDID",
              "type": "string"
            },
            {
              "internalType": "string",
              "name": "tenantDID",
              "type": "string"
            },
            {
              "internalType": "uint16",
              "name": "leasePeriod",
              "type": "uint16"
            },
            {
              "internalType": "uint256",
              "name": "deposit",
              "type": "uint256"
            },
            {
              "internalType": "string",
              "name": "propertyDID",
              "type": "string"
            },
            {
              "internalType": "string",
              "name": "contractDate",
              "type": "string"
            },
            {
              "internalType": "string",
              "name": "terms",
              "type": "string"
            }
          ],
          "internalType": "struct LongTermRent.ContractInfo",
          "name": "contractInfo",
          "type": "tuple"
        },
        {
          "components": [
            {
              "internalType": "bytes32",
              "name": "r",
              "type": "bytes32"
            },
            {
              "internalType": "bytes32",
              "name": "s",
              "type": "bytes32"
            },
            {
              "internalType": "uint8",
              "name": "v",
              "type": "uint8"
            }
          ],
          "internalType": "struct LongTermRent.Signature",
          "name": "tenantSignature",
          "type": "tuple"
        },
        {
          "components": [
            {
              "internalType": "bytes32",
              "name": "r",
              "type": "bytes32"
            },
            {
              "internalType": "bytes32",
              "name": "s",
              "type": "bytes32"
            },
            {
              "internalType": "uint8",
              "name": "v",
              "type": "uint8"
            }
          ],
          "internalType": "struct LongTermRent.Signature",
          "name": "landlordSignature",
          "type": "tuple"
        }
      ],
      "stateMutability": "view",
      "type": "function"
    },
    {
      "inputs": [
        {
          "internalType": "bytes32",
          "name": "_r",
          "type": "bytes32"
        },
        {
          "internalType": "bytes32",
          "name": "_s",
          "type": "bytes32"
        },
        {
          "internalType": "uint8",
          "name": "_v",
          "type": "uint8"
        }
      ],
      "name": "tenantSign",
      "outputs": [],
      "stateMutability": "payable",
      "type": "function"
    },
    {
      "inputs": [],
      "name": "returnDeposit",
      "outputs": [],
      "stateMutability": "payable",
      "type": "function"
    },
    {
      "inputs": [],
      "name": "withdrawDeposit",
      "outputs": [],
      "stateMutability": "nonpayable",
      "type": "function"
    },
    {
      "inputs": [],
      "name": "verifyTenantSignature",
      "outputs": [
        {
          "internalType": "bool",
          "name": "",
          "type": "bool"
        }
      ],
      "stateMutability": "view",
      "type": "function"
    },
    {
      "inputs": [],
      "name": "verifyLandlordSignature",
      "outputs": [
        {
          "internalType": "bool",
          "name": "",
          "type": "bool"
        }
      ],
      "stateMutability": "view",
      "type": "function"
    }
  ],
  "bytecode": "0x60806040523462000044576200002b6200001862000364565b98979097969196959295949394620008f9565b620000356200004a565b6111ba62000f7982396111ba90f35b62000050565b60405190565b5f80fd5b601f801991011690565b634e487b7160e01b5f52604160045260245ffd5b906200007e9062000054565b810190811060018060401b038211176200009757604052565b6200005e565b90620000b4620000ac6200004a565b928362000072565b565b5f80fd5b5f80fd5b60018060a01b031690565b620000d490620000be565b90565b620000e281620000c9565b03620000ea57565b5f80fd5b90505190620000fd82620000d7565b565b61ffff1690565b6200011181620000ff565b036200011957565b5f80fd5b905051906200012c8262000106565b565b90565b6200013c816200012e565b036200014457565b5f80fd5b90505190620001578262000131565b565b5f80fd5b5f80fd5b60018060401b03811162000180576200017c60209162000054565b0190565b6200005e565b5f5b83811062000199575050905f910152565b80602091830151818501520162000188565b90929192620001c4620001be8262000161565b6200009d565b93818552602085019082840111620001e357620001e19262000186565b565b6200015d565b9080601f830112156200020a578160206200020793519101620001ab565b90565b62000159565b90565b6200021e8162000210565b036200022657565b5f80fd5b90505190620002398262000213565b565b60ff1690565b6200024c816200023b565b036200025457565b5f80fd5b90505190620002678262000241565b565b610140818303126200035e5762000283825f8301620000ee565b92620002938360208401620000ee565b92620002a381604085016200011d565b92620002b3826060830162000148565b92608082015160018060401b038111620003585783620002d5918401620001e9565b9260a083015160018060401b038111620003525781620002f7918501620001e9565b9260c081015160018060401b0381116200034c578262000319918301620001e9565b92620003496200032d8460e085016200022a565b936200033e8161010086016200022a565b936101200162000258565b90565b620000ba565b620000ba565b620000ba565b620000b6565b6200038762002133803803806200037b816200009d565b92833981019062000269565b90919293949596979899565b90565b620003af620003a9620003b592620000be565b62000393565b620000be565b90565b620003c39062000396565b90565b620003d190620003b8565b90565b5f1b90565b90620003ec60018060a01b0391620003d4565b9181191691161790565b6200040190620003b8565b90565b90565b90620004216200041b6200042992620003f6565b62000404565b8254620003d9565b9055565b620004389062000396565b90565b620004546200044e6200045a92620000be565b62000393565b6200012e565b90565b90565b62000479620004736200047f926200045d565b62000393565b6200012e565b90565b905090565b5f7f6469643a6b6c61793a0000000000000000000000000000000000000000000000910152565b620004bc6009809262000482565b620004c78162000487565b0190565b5190565b620004fa620004f092602092620004e681620004cb565b9485809362000482565b9384910162000186565b0190565b906200050e6200051592620004ae565b90620004cf565b90565b90565b634e487b7160e01b5f52602260045260245ffd5b906001600283049216801562000552575b60208310146200054c57565b6200051b565b91607f169162000540565b5f5260205f2090565b601f602091010490565b1b90565b91906008620005939102916200058c5f198462000570565b9262000570565b9181191691161790565b620005b6620005b0620005bc926200012e565b62000393565b6200012e565b90565b90565b9190620005dd620005d7620005e6936200059d565b620005bf565b90835462000574565b9055565b5f90565b6200060491620005fd620005ea565b91620005c2565b565b5b81811062000613575050565b80620006225f600193620005ee565b0162000607565b9190601f81116200063a575b505050565b6200064962000674936200055d565b906020620006578462000566565b830193106200067d575b6200066c9062000566565b019062000606565b5f808062000635565b91506200066c8192905062000661565b1c90565b90620006a3905f19906008026200068d565b191690565b81620006b49162000691565b906002021790565b90620006c881620004cb565b9060018060401b0382116200079957620006ef82620006e885546200052f565b8562000629565b602090601f8311600114620007285791809162000716935f926200071b575b5050620006a8565b90555b565b90915001515f806200070e565b601f1983169162000739856200055d565b925f5b818110620007805750916002939185600196941062000763575b5050500201905562000719565b62000775910151601f84169062000691565b90555f808062000756565b919360206001819287870151815501950192016200073c565b6200005e565b90620007ab91620006bc565b565b90620007bc61ffff91620003d4565b9181191691161790565b620007df620007d9620007e592620000ff565b62000393565b620000ff565b90565b90565b9062000805620007ff6200080d92620007c6565b620007e8565b8254620007ad565b9055565b906200081f5f1991620003d4565b9181191691161790565b90620008436200083d6200084b926200059d565b620005bf565b825462000811565b9055565b6200085a9062000210565b90565b5f1c90565b6200086d906200085d565b90565b906200088a6200088462000892926200084f565b62000862565b825462000811565b9055565b90620008a460ff91620003d4565b9181191691161790565b620008c7620008c1620008cd926200023b565b62000393565b6200023b565b90565b90565b90620008ed620008e7620008f592620008ae565b620008d0565b825462000896565b9055565b9462000a5d62000a8e989562000a5162000a759662000a4562000a9b9e9d9b9762000a3962000a2d62000a1762000a2762000a819f620009ed620009e762000a699e620009e1620009d6620009c0620009d0620009a9620009966200099062000a009a620009736200096b82620003c6565b600d62000407565b6200098a620009828a620003c6565b600e62000407565b6200042d565b6200043b565b620009a2601462000460565b9062000dd0565b620009b36200004a565b92839160208301620004fe565b6020820181038252038262000072565b62000518565b5f808001016200079f565b6200042d565b6200043b565b620009f9601462000460565b9062000dd0565b62000a0a6200004a565b92839160208301620004fe565b6020820181038252038262000072565b62000518565b60015f8001016200079f565b60025f800101620007eb565b60035f80010162000829565b60045f8001016200079f565b60055f8001016200079f565b60065f8001016200079f565b5f600a81010162000870565b6001600a5f010162000870565b6002600a5f0101620008d3565b565b606090565b90565b62000abe62000ab862000ac49262000aa2565b62000393565b6200012e565b90565b634e487b7160e01b5f52601160045260245ffd5b62000aed62000af4919392936200012e565b926200012e565b9162000b028382026200012e565b92818404149015171562000b1257565b62000ac7565b62000b2a62000b31919392936200012e565b926200012e565b820180921162000b3d57565b62000ac7565b60018060401b03811162000b625762000b5e60209162000054565b0190565b6200005e565b9062000b7e62000b788362000b43565b6200009d565b918252565b369037565b9062000bb362000b988362000b68565b9260208062000ba8869362000b43565b920191039062000b83565b565b600360fc1b90565b634e487b7160e01b5f52603260045260245ffd5b5190565b9062000be18262000bd1565b81101562000bf457600160209102010190565b62000bbd565b90565b62000c1662000c1062000c1c9262000bfa565b62000393565b6200012e565b90565b600f60fb1b90565b90565b62000c4362000c3d62000c499262000c27565b62000393565b6200012e565b90565b62000c57906200012e565b5f811462000c66576001900390565b62000ac7565b90565b62000c8862000c8262000c8e9262000c6c565b62000393565b6200012e565b90565b62000caa62000ca462000cb0926200012e565b62000393565b6200023b565b90565b90565b62000ccf62000cc962000cd59262000cb3565b62000393565b6200012e565b90565b90565b62000cf462000cee62000cfa9262000cd8565b62000393565b6200023b565b90565b90565b62000d1962000d1362000d1f9262000cfd565b62000393565b6200023b565b90565b62000d3162000d38916200023b565b916200023b565b019060ff821162000d4557565b62000ac7565b60ff60f81b1690565b60f81b90565b62000d7362000d6d62000d79926200023b565b62000d54565b62000d4b565b90565b90565b62000d9862000d9262000d9e9262000d7c565b62000393565b6200023b565b90565b62000dc79062000dc062000db962000dcd946200023b565b916200012e565b906200068d565b6200012e565b90565b919062000ddc62000a9d565b5062000e9162000e7e62000e1e62000e1862000e05600262000dff879162000aa5565b62000adb565b62000e11600262000aa5565b9062000b18565b62000b88565b9262000e2962000bb5565b62000e448562000e3d5f935f1a9362000bfd565b9062000bd5565b5362000e4f62000c1f565b62000e6b8562000e646001935f1a9362000c2a565b9062000bd5565b5362000e78600262000aa5565b62000adb565b62000e8a600162000c2a565b9062000b18565b925b8362000eab62000ea4600162000c2a565b916200012e565b111562000f675762000f478162000f2262000f1c62000edb62000f4e9562000ed4600f62000c6f565b1662000c91565b8362000ee8600f62000c6f565b1662000f0062000ef9600a62000cb6565b916200012e565b105f1462000f555762000f14603062000d00565b5b9062000d22565b62000d5a565b62000f33859188905f1a9262000bd5565b5362000f40600462000d7f565b9062000da1565b9362000c4c565b9262000e93565b62000f61605762000cdb565b62000f15565b5062000f7591925062000518565b9056fe60806040526004361015610013575b610793565b61001d5f3561007c565b8063117df088146100775780631ba8c1b4146100725780632bf549931461006d5780637e88f60314610068578063d5178b53146100635763e8f4e9d40361000e5761075b565b61020f565b6101e6565b6101bc565b6100fe565b6100a4565b60e01c90565b60405190565b5f80fd5b5f80fd5b5f91031261009a57565b61008c565b5f0190565b346100d2576100b4366004610090565b6100bc610cb8565b6100c4610082565b806100ce8161009f565b0390f35b610088565b151590565b6100e5906100d7565b9052565b91906100fc905f602085019401906100dc565b565b3461012e5761010e366004610090565b61012a610119610e05565b610121610082565b918291826100e9565b0390f35b610088565b90565b61013f81610133565b0361014657565b5f80fd5b9050359061015782610136565b565b60ff1690565b61016881610159565b0361016f57565b5f80fd5b905035906101808261015f565b565b90916060828403126101b7576101b461019d845f850161014a565b936101ab816020860161014a565b93604001610173565b90565b61008c565b6101d06101ca366004610182565b916109d6565b6101d8610082565b806101e28161009f565b0390f35b6101f1366004610090565b6101f9610bb3565b610201610082565b8061020b8161009f565b0390f35b3461023f5761021f366004610090565b61023b61022a61104e565b610232610082565b918291826100e9565b0390f35b610088565b634e487b7160e01b5f52602260045260245ffd5b9060016002830492168015610278575b602083101461027357565b610244565b91607f1691610268565b60209181520190565b5f5260205f2090565b905f92918054906102ae6102a783610258565b8094610282565b916001811690815f1461030557506001146102c9575b505050565b6102d6919293945061028b565b915f925b8184106102ed57505001905f80806102c4565b600181602092959395548486015201910192906102da565b92949550505060ff19168252151560200201905f80806102c4565b9061032a91610294565b90565b601f801991011690565b634e487b7160e01b5f52604160045260245ffd5b906103559061032d565b810190811067ffffffffffffffff82111761036f57604052565b610337565b9061039461038d92610384610082565b93848092610320565b038361034b565b565b52565b5f1c90565b61ffff1690565b6103b16103b691610399565b61039e565b90565b6103c390546103a5565b90565b61ffff1690565b906103d7906103c6565b9052565b90565b6103ea6103ef91610399565b6103db565b90565b6103fc90546103de565b90565b90565b9061040c906103ff565b9052565b9061042361041c610082565b928361034b565b565b61042f60e0610410565b90565b906104e16104d86006610443610425565b9461045a6104525f8301610374565b5f8801610396565b61047261046960018301610374565b60208801610396565b61048a610481600283016103b9565b604088016103cd565b6104a2610499600383016103f2565b60608801610402565b6104ba6104b160048301610374565b60808801610396565b6104d26104c960058301610374565b60a08801610396565b01610374565b60c08401610396565b565b90565b6104f26104f791610399565b6104e3565b90565b61050490546104e6565b90565b9061051190610133565b9052565b60ff1690565b61052761052c91610399565b610515565b90565b610539905461051b565b90565b9061054690610159565b9052565b6105546060610410565b90565b906105a661059d600261056861054a565b9461057f6105775f83016104fa565b5f8801610507565b61059761058e600183016104fa565b60208801610507565b0161052f565b6040840161053c565b565b5f6105b45f8201610432565b916105cd600a6105c660078501610557565b9301610557565b90565b5190565b5f5b8381106105e6575050905f910152565b8060209183015181850152016105d6565b61061661061f6020936106249361060d816105d0565b93848093610282565b958691016105d4565b61032d565b0190565b610631906103c6565b9052565b61063e906103ff565b9052565b6106d39160c06106c26106b061067a61066860e086015f8801518782035f8901526105f7565b602087015186820360208801526105f7565b61068c60408701516040870190610628565b61069e60608701516060870190610635565b608086015185820360808701526105f7565b60a085015184820360a08601526105f7565b9201519060c08184039101526105f7565b90565b6106df90610133565b9052565b6106ec90610159565b9052565b90604080610724936107085f8201515f8601906106d6565b61071a602082015160208601906106d6565b01519101906106e3565b565b6080906107526107476107599597969460e08401908482035f860152610642565b9660208301906106f0565b01906106f0565b565b3461078e5761076b366004610090565b61078a6107766105a8565b610781939193610082565b93849384610726565b0390f35b610088565b5f80fd5b60018060a01b031690565b6107ae6107b391610399565b610797565b90565b6107c090546107a2565b90565b60018060a01b031690565b6107d7906107c3565b90565b90565b6107f16107ec6107f6926107c3565b6107da565b6107c3565b90565b610802906107dd565b90565b61080e906107f9565b90565b60209181520190565b5f7f596f7520617265206e6f74207468652074656e616e742e000000000000000000910152565b61084e6017602092610811565b6108578161081a565b0190565b6108709060208101905f818303910152610841565b90565b1561087a57565b610882610082565b62461bcd60e51b8152806108986004820161085b565b0390fd5b5f7f4c657373206f72206d6f7265207468616e206465706f7369742e000000000000910152565b6108d0601a602092610811565b6108d98161089c565b0190565b6108f29060208101905f8183039101526108c3565b90565b156108fc57565b610904610082565b62461bcd60e51b81528061091a600482016108dd565b0390fd5b5f1b90565b9061092f5f199161091e565b9181191691161790565b61094290610133565b90565b61094e90610399565b90565b9061096661096161096d92610939565b610945565b8254610923565b9055565b9061097d60ff9161091e565b9181191691161790565b61099b6109966109a092610159565b6107da565b610159565b90565b90565b906109bb6109b66109c292610987565b6109a3565b8254610971565b9055565b6109ce610082565b3d5f823e3d90fd5b610a539291610a3b610a4792610a0733610a016109fb6109f6600e6107b6565b610805565b916107ce565b14610873565b610a3034610a2a610a24610a1f60035f8001016103f2565b6103ff565b916103ff565b146108f5565b5f6007810101610951565b600160075f0101610951565b600260075f01016109a6565b5f808080610a69610a64600d6107b6565b610805565b3490828215610a80575bf115610a7b57565b6109c6565b506108fc610a73565b5f7f4f6e6c7920746865206c616e646c6f72642063616e206465706f7369742e0000910152565b610abd601e602092610811565b610ac681610a89565b0190565b610adf9060208101905f818303910152610ab0565b90565b15610ae957565b610af1610082565b62461bcd60e51b815280610b0760048201610aca565b0390fd5b60207f6465706f7369742e000000000000000000000000000000000000000000000000917f496e73756666696369656e742066756e647320746f20636f76657220746865205f8201520152565b610b656028604092610811565b610b6e81610b0b565b0190565b610b879060208101905f818303910152610b58565b90565b15610b9157565b610b99610082565b62461bcd60e51b815280610baf60048201610b72565b0390fd5b610bd833610bd2610bcc610bc7600d6107b6565b610805565b916107ce565b14610ae2565b610c0234610bfb610bf5610bf060035f8001016103f2565b6103ff565b916103ff565b1015610b8a565b565b60207f206465706f7369742e0000000000000000000000000000000000000000000000917f4f6e6c79207468652074656e616e742063616e207769746864726177207468655f8201520152565b610c5e6029604092610811565b610c6781610c04565b0190565b610c809060208101905f818303910152610c51565b90565b15610c8a57565b610c92610082565b62461bcd60e51b815280610ca860048201610c6b565b0390fd5b610cb5906107f9565b90565b610cdd33610cd7610cd1610ccc600e6107b6565b610805565b916107ce565b14610c83565b5f808080610cf3610cee600e6107b6565b610805565b610cfc30610cac565b3190828215610d13575bf115610d0e57565b6109c6565b506108fc610d06565b5f90565b610d2990610374565b90565b905090565b5f7f19457468657265756d205369676e6564204d6573736167653a0a333200000000910152565b610d64601c8092610d2c565b610d6d81610d31565b0190565b90565b610d80610d8591610133565b610d71565b9052565b90610d9f610d98602093610d58565b8092610d74565b0190565b60200190565b5190565b610db690610133565b9052565b610dc390610159565b9052565b610dfc610e0394610df2606094989795610de8608086019a5f870190610dad565b6020850190610dba565b6040830190610dad565b0190610dad565b565b610e0d610d1c565b5060205f610e9c610eaa610e89838080010160018580010190610e346002878001016103b9565b610e426003888001016103f2565b6004888001019160058980010192610e83610e7d610e77610e71610e6b60068f80010199610d20565b99610d20565b93610d20565b95610d20565b95610d20565b95610ff8565b610e91610082565b928391868301610d89565b85820181038252038261034b565b610ebc610eb682610da9565b91610da3565b20610ecc6002600784010161052f565b90610eff610ede8460078101016104fa565b610eed600160078701016104fa565b90610ef6610082565b94859485610dc7565b838052039060015afa15610f3657610f175f5161091e565b610f32610f2c610f27600e6107b6565b610805565b916107ce565b1490565b6109c6565b5f90565b610f64610f5b92602092610f52816105d0565b94858093610d2c565b938491016105d4565b0190565b60f01b90565b610f7790610f68565b90565b610f86610f8b916103c6565b610f6e565b9052565b90565b610f9e610fa3916103ff565b610f8f565b9052565b93610fe26002610fe995610fda610fd3610fef9a97610fcd610ff59e9d9b602099610f3f565b90610f3f565b8092610f7a565b018092610f92565b0190610f3f565b90610f3f565b90610f3f565b90565b9461102993929691946110389661100d610f3b565b509597939091929361101d610082565b98899760208901610fa7565b6020820181038252038261034b565b61104a61104482610da9565b91610da3565b2090565b611056610d1c565b5060205f6110e56110f36110d283808001016001858001019061107d6002878001016103b9565b61108b6003888001016103f2565b60048880010191600589800101926110cc6110c66110c06110ba6110b460068f80010199610d20565b99610d20565b93610d20565b95610d20565b95610d20565b95610ff8565b6110da610082565b928391868301610d89565b85820181038252038261034b565b6111056110ff82610da9565b91610da3565b206111156002600a84010161052f565b9061114861112784600a8101016104fa565b6111366001600a8701016104fa565b9061113f610082565b94859485610dc7565b838052039060015afa1561117f576111605f5161091e565b61117b611175611170600d6107b6565b610805565b916107ce565b1490565b6109c656fea2646970667358221220e05f22ecf60fe495cb1e1280b4b958576ad58ec1fad009bf11d5ffa12574dc1e64736f6c63430008150033",
  "immutableReferences": {},
  "source": "// SPDX-License-Identifier: MIT\r\npragma solidity ^0.8.0;\r\n\r\ncontract LongTermRent {\r\n\r\n    struct Signature{\r\n        bytes32 r;\r\n        bytes32 s;\r\n        uint8 v;\r\n    }\r\n\r\n    struct ContractInfo {\r\n        string landlordDID; // 임대인의 분산식 식별자\r\n        string tenantDID; // 임차인의 분산식 식별자\r\n        uint16 leasePeriod; // 임대 기간 (월 단위)\r\n        uint256 deposit; // 전세금\r\n        string propertyDID; // 부동산의 분산식 식별자\r\n        string contractDate; // 계약 날짜\r\n        string terms; // 계약의 세부 조건들\r\n    }\r\n\r\n    struct LongTermRentContract {\r\n        ContractInfo contractInfo;\r\n        Signature tenantSignature;\r\n        Signature landlordSignature;\r\n    }\r\n\r\n    LongTermRentContract public rentalContract;\r\n\r\n    address payable landlordAddress;\r\n    address payable tenantAddress;\r\n\r\n    function toHexString(uint256 value, uint length) private pure returns (string memory) {\r\n        bytes memory buffer = new bytes(2 * length + 2);\r\n        buffer[0] = '0';\r\n        buffer[1] = 'x';\r\n        for (uint i = 2 * length + 1; i > 1; --i) {\r\n            buffer[i] = bytes1(uint8(value & 0xf) + (value & 0xf < 10 ? 48 : 87));\r\n            value >>= 4;\r\n        }\r\n        return string(buffer);\r\n    }\r\n\r\n    function getMessageHash(\r\n        string memory _landlordDID,\r\n        string memory _tenantDID,\r\n        uint16 _leasePeriod, \r\n        uint256 _deposit,\r\n        string memory _propertyDID, \r\n        string memory _contractDate,\r\n        string memory _terms) private pure returns (bytes32){\r\n        \r\n        return keccak256(abi.encodePacked(_landlordDID,_tenantDID,_leasePeriod,_deposit,_propertyDID,_contractDate,_terms));\r\n    }\r\n\r\n    constructor (\r\n        address _landlordAddress,\r\n        address _tenantAddress,\r\n        uint16 _leasePeriod,\r\n        uint256 _deposit,\r\n        string memory _propertyDID,\r\n        string memory _contractDate,\r\n        string memory _terms,\r\n        bytes32 _r, bytes32 _s, uint8 _v\r\n    ) {\r\n        landlordAddress = payable(_landlordAddress);\r\n        tenantAddress = payable(_tenantAddress);\r\n\r\n        // 계약 정보 초기화\r\n        rentalContract.contractInfo.landlordDID = string(abi.encodePacked(\"did:klay:\", toHexString(uint256(uint160(_landlordAddress)), 20)));\r\n        rentalContract.contractInfo.tenantDID = string(abi.encodePacked(\"did:klay:\", toHexString(uint256(uint160(_tenantAddress)), 20)));\r\n        rentalContract.contractInfo.leasePeriod = _leasePeriod;\r\n        rentalContract.contractInfo.deposit = _deposit;\r\n        rentalContract.contractInfo.propertyDID = _propertyDID;\r\n        rentalContract.contractInfo.contractDate = _contractDate;\r\n        rentalContract.contractInfo.terms = _terms;\r\n\r\n        rentalContract.landlordSignature.r=_r;\r\n        rentalContract.landlordSignature.s=_s;\r\n        rentalContract.landlordSignature.v=_v;\r\n    }\r\n\r\n    // 임차인이 이더를 보낼 수 있는 payable 함수\r\n    function tenantSign(bytes32 _r, bytes32 _s, uint8 _v) public payable {\r\n        require(msg.sender == tenantAddress, \"You are not the tenant.\");\r\n        require(msg.value == rentalContract.contractInfo.deposit, \"Less or more than deposit.\");\r\n        rentalContract.tenantSignature.r=_r;\r\n        rentalContract.tenantSignature.s=_s;\r\n        rentalContract.tenantSignature.v=_v;\r\n        // 받은 돈을 임대인에게 전송\r\n        landlordAddress.transfer(msg.value);\r\n    }\r\n\r\n    // 임대인이 보증금을 컨트랙트에 입금\r\n    function returnDeposit() public payable {\r\n        require(msg.sender == landlordAddress, \"Only the landlord can deposit.\");\r\n        require(msg.value >= rentalContract.contractInfo.deposit, \"Insufficient funds to cover the deposit.\");\r\n    }\r\n\r\n    // 임차인이 보증금을 인출\r\n    function withdrawDeposit() public {\r\n        require(msg.sender == tenantAddress, \"Only the tenant can withdraw the deposit.\");\r\n        tenantAddress.transfer(address(this).balance);\r\n    }\r\n\r\n    function verifyTenantSignature() public view returns (bool) {\r\n        bytes32 messageHash = getMessageHash(rentalContract.contractInfo.landlordDID,rentalContract.contractInfo.tenantDID,rentalContract.contractInfo.leasePeriod,rentalContract.contractInfo.deposit,rentalContract.contractInfo.propertyDID,rentalContract.contractInfo.contractDate,rentalContract.contractInfo.terms);\r\n        bytes32 ethSignedMessageHash = keccak256(\r\n            abi.encodePacked(\"\\x19Ethereum Signed Message:\\n32\", messageHash)\r\n        );\r\n\r\n        // ecrecover를 사용하여 서명자 주소 복구\r\n        address recoveredSigner = ecrecover(ethSignedMessageHash, rentalContract.tenantSignature.v, rentalContract.tenantSignature.r, rentalContract.tenantSignature.s);\r\n        return (recoveredSigner==tenantAddress);\r\n    }\r\n\r\n    function verifyLandlordSignature() public view returns (bool) {\r\n        bytes32 messageHash = getMessageHash(rentalContract.contractInfo.landlordDID,rentalContract.contractInfo.tenantDID,rentalContract.contractInfo.leasePeriod,rentalContract.contractInfo.deposit,rentalContract.contractInfo.propertyDID,rentalContract.contractInfo.contractDate,rentalContract.contractInfo.terms);\r\n        bytes32 ethSignedMessageHash = keccak256(\r\n            abi.encodePacked(\"\\x19Ethereum Signed Message:\\n32\", messageHash)\r\n        );\r\n\r\n        // ecrecover를 사용하여 서명자 주소 복구\r\n        address recoveredSigner = ecrecover(ethSignedMessageHash, rentalContract.landlordSignature.v, rentalContract.landlordSignature.r, rentalContract.landlordSignature.s);\r\n        return (recoveredSigner==landlordAddress);\r\n    }\r\n\r\n}",
  "sourcePath": "C:\\Users\\SSAFY\\Desktop\\S10P31C203\\blockchain\\contracts\\real-estate\\LongTermRent.sol",
  "compiler": {
    "name": "solc",
    "version": "0.8.21+commit.d9974bed.Emscripten.clang"
  },
  "schemaVersion": "3.4.16",
  "updatedAt": "2024-05-17T06:44:13.108Z",
  "devdoc": {
    "kind": "dev",
    "methods": {},
    "version": 1
  },
  "userdoc": {
    "kind": "user",
    "methods": {},
    "version": 1
  }
}