{
  "contractName": "MinistryDIDRegistry",
  "abi": [
    {
      "inputs": [],
      "stateMutability": "nonpayable",
      "type": "constructor"
    },
    {
      "inputs": [
        {
          "internalType": "address",
          "name": "owner",
          "type": "address"
        }
      ],
      "name": "OwnableInvalidOwner",
      "type": "error"
    },
    {
      "inputs": [
        {
          "internalType": "address",
          "name": "account",
          "type": "address"
        }
      ],
      "name": "OwnableUnauthorizedAccount",
      "type": "error"
    },
    {
      "anonymous": false,
      "inputs": [
        {
          "indexed": false,
          "internalType": "string",
          "name": "did",
          "type": "string"
        }
      ],
      "name": "DIDCreated",
      "type": "event"
    },
    {
      "anonymous": false,
      "inputs": [
        {
          "indexed": false,
          "internalType": "string",
          "name": "did",
          "type": "string"
        }
      ],
      "name": "DIDDeleted",
      "type": "event"
    },
    {
      "anonymous": false,
      "inputs": [
        {
          "indexed": true,
          "internalType": "address",
          "name": "previousOwner",
          "type": "address"
        },
        {
          "indexed": true,
          "internalType": "address",
          "name": "newOwner",
          "type": "address"
        }
      ],
      "name": "OwnershipTransferred",
      "type": "event"
    },
    {
      "inputs": [],
      "name": "owner",
      "outputs": [
        {
          "internalType": "address",
          "name": "",
          "type": "address"
        }
      ],
      "stateMutability": "view",
      "type": "function"
    },
    {
      "inputs": [],
      "name": "renounceOwnership",
      "outputs": [],
      "stateMutability": "nonpayable",
      "type": "function"
    },
    {
      "inputs": [
        {
          "internalType": "address",
          "name": "newOwner",
          "type": "address"
        }
      ],
      "name": "transferOwnership",
      "outputs": [],
      "stateMutability": "nonpayable",
      "type": "function"
    },
    {
      "inputs": [
        {
          "internalType": "uint256",
          "name": "value",
          "type": "uint256"
        },
        {
          "internalType": "uint256",
          "name": "length",
          "type": "uint256"
        }
      ],
      "name": "toHexString",
      "outputs": [
        {
          "internalType": "string",
          "name": "",
          "type": "string"
        }
      ],
      "stateMutability": "pure",
      "type": "function"
    },
    {
      "inputs": [
        {
          "internalType": "string",
          "name": "_publicKey",
          "type": "string"
        }
      ],
      "name": "createDIDDocument",
      "outputs": [],
      "stateMutability": "nonpayable",
      "type": "function"
    },
    {
      "inputs": [
        {
          "internalType": "string",
          "name": "did",
          "type": "string"
        }
      ],
      "name": "getDIDDocument",
      "outputs": [
        {
          "components": [
            {
              "internalType": "string",
              "name": "context",
              "type": "string"
            },
            {
              "internalType": "string",
              "name": "id",
              "type": "string"
            },
            {
              "components": [
                {
                  "internalType": "string",
                  "name": "id",
                  "type": "string"
                },
                {
                  "internalType": "string",
                  "name": "keyType",
                  "type": "string"
                },
                {
                  "internalType": "string",
                  "name": "controller",
                  "type": "string"
                },
                {
                  "internalType": "string",
                  "name": "publicKeyHex",
                  "type": "string"
                }
              ],
              "internalType": "struct MinistryDIDRegistry.PublicKey",
              "name": "publicKey",
              "type": "tuple"
            },
            {
              "internalType": "string",
              "name": "authentication",
              "type": "string"
            }
          ],
          "internalType": "struct MinistryDIDRegistry.DIDDocument",
          "name": "",
          "type": "tuple"
        }
      ],
      "stateMutability": "view",
      "type": "function"
    },
    {
      "inputs": [
        {
          "internalType": "string",
          "name": "did",
          "type": "string"
        }
      ],
      "name": "deleteDIDDocument",
      "outputs": [],
      "stateMutability": "nonpayable",
      "type": "function"
    }
  ],
  "bytecode": "0x608060405234801562000010575f80fd5b50335f73ffffffffffffffffffffffffffffffffffffffff168173ffffffffffffffffffffffffffffffffffffffff160362000085575f6040517f1e4fbdf70000000000000000000000000000000000000000000000000000000081526004016200007c9190620001a1565b60405180910390fd5b62000096816200009d60201b60201c565b50620001bc565b5f805f9054906101000a900473ffffffffffffffffffffffffffffffffffffffff169050815f806101000a81548173ffffffffffffffffffffffffffffffffffffffff021916908373ffffffffffffffffffffffffffffffffffffffff1602179055508173ffffffffffffffffffffffffffffffffffffffff168173ffffffffffffffffffffffffffffffffffffffff167f8be0079c531659141344cd1fd0a4f28419497f9722a3daafe3b4186f6b6457e060405160405180910390a35050565b5f73ffffffffffffffffffffffffffffffffffffffff82169050919050565b5f62000189826200015e565b9050919050565b6200019b816200017d565b82525050565b5f602082019050620001b65f83018462000190565b92915050565b61176f80620001ca5f395ff3fe608060405234801561000f575f80fd5b506004361061007b575f3560e01c8063784afc4e11610059578063784afc4e146100d55780638da5cb5b14610105578063b9a4638414610123578063f2fde38b1461013f5761007b565b8063434fa6691461007f57806363e1cbea1461009b578063715018a6146100cb575b5f80fd5b61009960048036038101906100949190610dca565b61015b565b005b6100b560048036038101906100b09190610e48565b6103b4565b6040516100c29190610f10565b60405180910390f35b6100d3610593565b005b6100ef60048036038101906100ea9190610dca565b6105a6565b6040516100fc9190611062565b60405180910390f35b61010d6109e3565b60405161011a91906110c1565b60405180910390f35b61013d60048036038101906101389190610dca565b610a0a565b005b61015960048036038101906101549190611104565b610ae0565b005b610163610cb3565b6040518060400160405280601c81526020017f68747470733a2f2f7777772e77332e6f72672f6e732f6469642f763100000000815250815f01819052506101c13373ffffffffffffffffffffffffffffffffffffffff1660146103b4565b6040516020016101d191906111b3565b604051602081830303815290604052816020018190525080602001516040516020016101fd919061121e565b60405160208183030381529060405281604001515f018190525060405180606001604052806021815260200161171960219139816040015160200181905250806020015181604001516040018190525082828080601f0160208091040260200160405190810160405280939291908181526020018383808284375f81840152601f19601f8201169050808301925050505050505081604001516060018190525080604001515f0151816060018190525080600182602001516040516102c2919061123f565b90815260200160405180910390205f820151815f0190816102e3919061147c565b5060208201518160010190816102f9919061147c565b506040820151816002015f820151815f019081610316919061147c565b50602082015181600101908161032c919061147c565b506040820151816002019081610342919061147c565b506060820151816003019081610358919061147c565b5050506060820151816006019081610370919061147c565b509050507f5fccafd09eeeb6a3dc1c80357ee982c00d7fb00a991274a9b96fe4fd7cb6055281602001516040516103a79190610f10565b60405180910390a1505050565b60605f60028360026103c69190611578565b6103d091906115b9565b67ffffffffffffffff8111156103e9576103e8611255565b5b6040519080825280601f01601f19166020018201604052801561041b5781602001600182028036833780820191505090505b5090507f3000000000000000000000000000000000000000000000000000000000000000815f81518110610452576104516115ec565b5b60200101907effffffffffffffffffffffffffffffffffffffffffffffffffffffffffffff191690815f1a9053507f7800000000000000000000000000000000000000000000000000000000000000816001815181106104b5576104b46115ec565b5b60200101907effffffffffffffffffffffffffffffffffffffffffffffffffffffffffffff191690815f1a9053505f60018460026104f39190611578565b6104fd91906115b9565b90505b600181111561058857600a600f86161061051b57605761051e565b60305b600f861661052c9190611625565b60f81b828281518110610542576105416115ec565b5b60200101907effffffffffffffffffffffffffffffffffffffffffffffffffffffffffffff191690815f1a905350600485901c94508061058190611659565b9050610500565b508091505092915050565b61059b610b64565b6105a45f610beb565b565b6105ae610cb3565b600183836040516105c09291906116b2565b90815260200160405180910390206040518060800160405290815f820180546105e8906112af565b80601f0160208091040260200160405190810160405280929190818152602001828054610614906112af565b801561065f5780601f106106365761010080835404028352916020019161065f565b820191905f5260205f20905b81548152906001019060200180831161064257829003601f168201915b50505050508152602001600182018054610678906112af565b80601f01602080910402602001604051908101604052809291908181526020018280546106a4906112af565b80156106ef5780601f106106c6576101008083540402835291602001916106ef565b820191905f5260205f20905b8154815290600101906020018083116106d257829003601f168201915b50505050508152602001600282016040518060800160405290815f82018054610717906112af565b80601f0160208091040260200160405190810160405280929190818152602001828054610743906112af565b801561078e5780601f106107655761010080835404028352916020019161078e565b820191905f5260205f20905b81548152906001019060200180831161077157829003601f168201915b505050505081526020016001820180546107a7906112af565b80601f01602080910402602001604051908101604052809291908181526020018280546107d3906112af565b801561081e5780601f106107f55761010080835404028352916020019161081e565b820191905f5260205f20905b81548152906001019060200180831161080157829003601f168201915b50505050508152602001600282018054610837906112af565b80601f0160208091040260200160405190810160405280929190818152602001828054610863906112af565b80156108ae5780601f10610885576101008083540402835291602001916108ae565b820191905f5260205f20905b81548152906001019060200180831161089157829003601f168201915b505050505081526020016003820180546108c7906112af565b80601f01602080910402602001604051908101604052809291908181526020018280546108f3906112af565b801561093e5780601f106109155761010080835404028352916020019161093e565b820191905f5260205f20905b81548152906001019060200180831161092157829003601f168201915b505050505081525050815260200160068201805461095b906112af565b80601f0160208091040260200160405190810160405280929190818152602001828054610987906112af565b80156109d25780601f106109a9576101008083540402835291602001916109d2565b820191905f5260205f20905b8154815290600101906020018083116109b557829003601f168201915b505050505081525050905092915050565b5f805f9054906101000a900473ffffffffffffffffffffffffffffffffffffffff16905090565b610a12610b64565b60018282604051610a249291906116b2565b90815260200160405180910390205f8082015f610a419190610ce1565b600182015f610a509190610ce1565b600282015f8082015f610a639190610ce1565b600182015f610a729190610ce1565b600282015f610a819190610ce1565b600382015f610a909190610ce1565b5050600682015f610aa19190610ce1565b50507fb24f94d3ff75ed62d7237e14a510a969d70c1d4efdd4cce8ad563aa8ba60a64c8282604051610ad49291906116f6565b60405180910390a15050565b610ae8610b64565b5f73ffffffffffffffffffffffffffffffffffffffff168173ffffffffffffffffffffffffffffffffffffffff1603610b58575f6040517f1e4fbdf7000000000000000000000000000000000000000000000000000000008152600401610b4f91906110c1565b60405180910390fd5b610b6181610beb565b50565b610b6c610cac565b73ffffffffffffffffffffffffffffffffffffffff16610b8a6109e3565b73ffffffffffffffffffffffffffffffffffffffff1614610be957610bad610cac565b6040517f118cdaa7000000000000000000000000000000000000000000000000000000008152600401610be091906110c1565b60405180910390fd5b565b5f805f9054906101000a900473ffffffffffffffffffffffffffffffffffffffff169050815f806101000a81548173ffffffffffffffffffffffffffffffffffffffff021916908373ffffffffffffffffffffffffffffffffffffffff1602179055508173ffffffffffffffffffffffffffffffffffffffff168173ffffffffffffffffffffffffffffffffffffffff167f8be0079c531659141344cd1fd0a4f28419497f9722a3daafe3b4186f6b6457e060405160405180910390a35050565b5f33905090565b60405180608001604052806060815260200160608152602001610cd4610d1e565b8152602001606081525090565b508054610ced906112af565b5f825580601f10610cfe5750610d1b565b601f0160209004905f5260205f2090810190610d1a9190610d46565b5b50565b6040518060800160405280606081526020016060815260200160608152602001606081525090565b5b80821115610d5d575f815f905550600101610d47565b5090565b5f80fd5b5f80fd5b5f80fd5b5f80fd5b5f80fd5b5f8083601f840112610d8a57610d89610d69565b5b8235905067ffffffffffffffff811115610da757610da6610d6d565b5b602083019150836001820283011115610dc357610dc2610d71565b5b9250929050565b5f8060208385031215610de057610ddf610d61565b5b5f83013567ffffffffffffffff811115610dfd57610dfc610d65565b5b610e0985828601610d75565b92509250509250929050565b5f819050919050565b610e2781610e15565b8114610e31575f80fd5b50565b5f81359050610e4281610e1e565b92915050565b5f8060408385031215610e5e57610e5d610d61565b5b5f610e6b85828601610e34565b9250506020610e7c85828601610e34565b9150509250929050565b5f81519050919050565b5f82825260208201905092915050565b5f5b83811015610ebd578082015181840152602081019050610ea2565b5f8484015250505050565b5f601f19601f8301169050919050565b5f610ee282610e86565b610eec8185610e90565b9350610efc818560208601610ea0565b610f0581610ec8565b840191505092915050565b5f6020820190508181035f830152610f288184610ed8565b905092915050565b5f82825260208201905092915050565b5f610f4a82610e86565b610f548185610f30565b9350610f64818560208601610ea0565b610f6d81610ec8565b840191505092915050565b5f608083015f8301518482035f860152610f928282610f40565b91505060208301518482036020860152610fac8282610f40565b91505060408301518482036040860152610fc68282610f40565b91505060608301518482036060860152610fe08282610f40565b9150508091505092915050565b5f608083015f8301518482035f8601526110078282610f40565b915050602083015184820360208601526110218282610f40565b9150506040830151848203604086015261103b8282610f78565b915050606083015184820360608601526110558282610f40565b9150508091505092915050565b5f6020820190508181035f83015261107a8184610fed565b905092915050565b5f73ffffffffffffffffffffffffffffffffffffffff82169050919050565b5f6110ab82611082565b9050919050565b6110bb816110a1565b82525050565b5f6020820190506110d45f8301846110b2565b92915050565b6110e3816110a1565b81146110ed575f80fd5b50565b5f813590506110fe816110da565b92915050565b5f6020828403121561111957611118610d61565b5b5f611126848285016110f0565b91505092915050565b5f81905092915050565b7f6469643a6b6c61793a00000000000000000000000000000000000000000000005f82015250565b5f61116d60098361112f565b915061117882611139565b600982019050919050565b5f61118d82610e86565b611197818561112f565b93506111a7818560208601610ea0565b80840191505092915050565b5f6111bd82611161565b91506111c98284611183565b915081905092915050565b7f236b6579732d31000000000000000000000000000000000000000000000000005f82015250565b5f61120860078361112f565b9150611213826111d4565b600782019050919050565b5f6112298284611183565b9150611234826111fc565b915081905092915050565b5f61124a8284611183565b915081905092915050565b7f4e487b71000000000000000000000000000000000000000000000000000000005f52604160045260245ffd5b7f4e487b71000000000000000000000000000000000000000000000000000000005f52602260045260245ffd5b5f60028204905060018216806112c657607f821691505b6020821081036112d9576112d8611282565b5b50919050565b5f819050815f5260205f209050919050565b5f6020601f8301049050919050565b5f82821b905092915050565b5f6008830261133b7fffffffffffffffffffffffffffffffffffffffffffffffffffffffffffffffff82611300565b6113458683611300565b95508019841693508086168417925050509392505050565b5f819050919050565b5f61138061137b61137684610e15565b61135d565b610e15565b9050919050565b5f819050919050565b61139983611366565b6113ad6113a582611387565b84845461130c565b825550505050565b5f90565b6113c16113b5565b6113cc818484611390565b505050565b5b818110156113ef576113e45f826113b9565b6001810190506113d2565b5050565b601f82111561143457611405816112df565b61140e846112f1565b8101602085101561141d578190505b611431611429856112f1565b8301826113d1565b50505b505050565b5f82821c905092915050565b5f6114545f1984600802611439565b1980831691505092915050565b5f61146c8383611445565b9150826002028217905092915050565b61148582610e86565b67ffffffffffffffff81111561149e5761149d611255565b5b6114a882546112af565b6114b38282856113f3565b5f60209050601f8311600181146114e4575f84156114d2578287015190505b6114dc8582611461565b865550611543565b601f1984166114f2866112df565b5f5b82811015611519578489015182556001820191506020850194506020810190506114f4565b868310156115365784890151611532601f891682611445565b8355505b6001600288020188555050505b505050505050565b7f4e487b71000000000000000000000000000000000000000000000000000000005f52601160045260245ffd5b5f61158282610e15565b915061158d83610e15565b925082820261159b81610e15565b915082820484148315176115b2576115b161154b565b5b5092915050565b5f6115c382610e15565b91506115ce83610e15565b92508282019050808211156115e6576115e561154b565b5b92915050565b7f4e487b71000000000000000000000000000000000000000000000000000000005f52603260045260245ffd5b5f60ff82169050919050565b5f61162f82611619565b915061163a83611619565b9250828201905060ff8111156116535761165261154b565b5b92915050565b5f61166382610e15565b91505f82036116755761167461154b565b5b600182039050919050565b828183375f83830152505050565b5f611699838561112f565b93506116a6838584611680565b82840190509392505050565b5f6116be82848661168e565b91508190509392505050565b5f6116d58385610e90565b93506116e2838584611680565b6116eb83610ec8565b840190509392505050565b5f6020820190508181035f83015261170f8184866116ca565b9050939250505056fe4563647361536563703235366b31566572696669636174696f6e4b657932303139a2646970667358221220e64bca0f302bce1a58c749fc3bf34289b03ef0e40c6ab8831c630da35ded689564736f6c63430008150033",
  "immutableReferences": {},
  "source": "// SPDX-License-Identifier: MIT\r\npragma solidity ^0.8.0;\r\n\r\nimport \"@openzeppelin/contracts/access/Ownable.sol\";\r\n\r\ncontract MinistryDIDRegistry is Ownable {\r\n\r\n    struct PublicKey {\r\n        string id;\r\n        string keyType;\r\n        string controller;\r\n        string publicKeyHex;\r\n    }\r\n\r\n    struct DIDDocument {\r\n        string context;\r\n        string id;\r\n        PublicKey publicKey;\r\n        string authentication;\r\n    }\r\n\r\n    mapping(string => DIDDocument) didDocuments;\r\n\r\n    constructor() Ownable(msg.sender) {}\r\n\r\n    event DIDCreated(string did);\r\n    event DIDDeleted(string did);\r\n\r\n    function toHexString(uint256 value, uint length) public pure returns (string memory) {\r\n        bytes memory buffer = new bytes(2 * length + 2);\r\n        buffer[0] = '0';\r\n        buffer[1] = 'x';\r\n        for (uint i = 2 * length + 1; i > 1; --i) {\r\n            buffer[i] = bytes1(uint8(value & 0xf) + (value & 0xf < 10 ? 48 : 87));\r\n            value >>= 4;\r\n        }\r\n        return string(buffer);\r\n    }\r\n\r\n    function createDIDDocument(string calldata _publicKey) public {\r\n        DIDDocument memory didDocument;\r\n       \r\n        didDocument.context = \"https://www.w3.org/ns/did/v1\";\r\n        didDocument.id = string(abi.encodePacked(\"did:klay:\", toHexString(uint256(uint160(msg.sender)), 20)));\r\n        didDocument.publicKey.id = string(abi.encodePacked(didDocument.id,\"#keys-1\"));\r\n        didDocument.publicKey.keyType = \"EcdsaSecp256k1VerificationKey2019\";\r\n        didDocument.publicKey.controller = didDocument.id;\r\n        didDocument.publicKey.publicKeyHex = _publicKey;\r\n        didDocument.authentication=didDocument.publicKey.id;\r\n\r\n        didDocuments[didDocument.id] = didDocument;\r\n\r\n        emit DIDCreated(didDocument.id);\r\n    }\r\n\r\n    function getDIDDocument(string calldata did) external view returns (DIDDocument memory) {\r\n        return didDocuments[did];\r\n    }\r\n\r\n    function deleteDIDDocument(string calldata did) external onlyOwner {\r\n        delete didDocuments[did];\r\n        emit DIDDeleted(did);\r\n    }\r\n\r\n}\r\n",
  "sourcePath": "C:\\Users\\SSAFY\\Desktop\\S10P31C203\\blockchain\\contracts\\MinistryDIDRegistry.sol",
  "compiler": {
    "name": "solc",
    "version": "0.8.21+commit.d9974bed.Emscripten.clang"
  },
  "schemaVersion": "3.4.16",
  "updatedAt": "2024-05-14T00:35:27.896Z",
  "devdoc": {
    "errors": {
      "OwnableInvalidOwner(address)": [
        {
          "details": "The owner is not a valid owner account. (eg. `address(0)`)"
        }
      ],
      "OwnableUnauthorizedAccount(address)": [
        {
          "details": "The caller account is not authorized to perform an operation."
        }
      ]
    },
    "kind": "dev",
    "methods": {
      "owner()": {
        "details": "Returns the address of the current owner."
      },
      "renounceOwnership()": {
        "details": "Leaves the contract without owner. It will not be possible to call `onlyOwner` functions. Can only be called by the current owner. NOTE: Renouncing ownership will leave the contract without an owner, thereby disabling any functionality that is only available to the owner."
      },
      "transferOwnership(address)": {
        "details": "Transfers ownership of the contract to a new account (`newOwner`). Can only be called by the current owner."
      }
    },
    "version": 1
  },
  "userdoc": {
    "kind": "user",
    "methods": {},
    "version": 1
  }
}