{
  "contractName": "MinistryDIDRegistry",
  "abi": [
    {
      "inputs": [],
      "stateMutability": "nonpayable",
      "type": "constructor"
    },
    {
      "inputs": [
        {
          "internalType": "address",
          "name": "owner",
          "type": "address"
        }
      ],
      "name": "OwnableInvalidOwner",
      "type": "error"
    },
    {
      "inputs": [
        {
          "internalType": "address",
          "name": "account",
          "type": "address"
        }
      ],
      "name": "OwnableUnauthorizedAccount",
      "type": "error"
    },
    {
      "anonymous": false,
      "inputs": [
        {
          "indexed": false,
          "internalType": "string",
          "name": "did",
          "type": "string"
        }
      ],
      "name": "DIDCreated",
      "type": "event"
    },
    {
      "anonymous": false,
      "inputs": [
        {
          "indexed": false,
          "internalType": "string",
          "name": "did",
          "type": "string"
        }
      ],
      "name": "DIDDeleted",
      "type": "event"
    },
    {
      "anonymous": false,
      "inputs": [
        {
          "indexed": true,
          "internalType": "address",
          "name": "previousOwner",
          "type": "address"
        },
        {
          "indexed": true,
          "internalType": "address",
          "name": "newOwner",
          "type": "address"
        }
      ],
      "name": "OwnershipTransferred",
      "type": "event"
    },
    {
      "inputs": [],
      "name": "owner",
      "outputs": [
        {
          "internalType": "address",
          "name": "",
          "type": "address"
        }
      ],
      "stateMutability": "view",
      "type": "function",
      "constant": true
    },
    {
      "inputs": [],
      "name": "renounceOwnership",
      "outputs": [],
      "stateMutability": "nonpayable",
      "type": "function"
    },
    {
      "inputs": [
        {
          "internalType": "address",
          "name": "newOwner",
          "type": "address"
        }
      ],
      "name": "transferOwnership",
      "outputs": [],
      "stateMutability": "nonpayable",
      "type": "function"
    },
    {
      "inputs": [
        {
          "internalType": "address",
          "name": "_holderAddress",
          "type": "address"
        },
        {
          "internalType": "string",
          "name": "_publicKey",
          "type": "string"
        }
      ],
      "name": "createDIDDocument",
      "outputs": [],
      "stateMutability": "nonpayable",
      "type": "function"
    },
    {
      "inputs": [
        {
          "internalType": "string",
          "name": "did",
          "type": "string"
        }
      ],
      "name": "getDIDDocument",
      "outputs": [
        {
          "components": [
            {
              "internalType": "string",
              "name": "context",
              "type": "string"
            },
            {
              "internalType": "string",
              "name": "id",
              "type": "string"
            },
            {
              "components": [
                {
                  "internalType": "string",
                  "name": "id",
                  "type": "string"
                },
                {
                  "internalType": "string",
                  "name": "keyType",
                  "type": "string"
                },
                {
                  "internalType": "string",
                  "name": "controller",
                  "type": "string"
                },
                {
                  "internalType": "string",
                  "name": "publicKeyHex",
                  "type": "string"
                }
              ],
              "internalType": "struct MinistryDIDRegistry.PublicKey",
              "name": "publicKey",
              "type": "tuple"
            },
            {
              "internalType": "string",
              "name": "authentication",
              "type": "string"
            }
          ],
          "internalType": "struct MinistryDIDRegistry.DIDDocument",
          "name": "",
          "type": "tuple"
        }
      ],
      "stateMutability": "view",
      "type": "function",
      "constant": true
    },
    {
      "inputs": [
        {
          "internalType": "string",
          "name": "did",
          "type": "string"
        }
      ],
      "name": "deleteDIDDocument",
      "outputs": [],
      "stateMutability": "nonpayable",
      "type": "function"
    }
  ],
  "bytecode": "0x608060405234801562000010575f80fd5b50335f73ffffffffffffffffffffffffffffffffffffffff168173ffffffffffffffffffffffffffffffffffffffff160362000085575f6040517f1e4fbdf70000000000000000000000000000000000000000000000000000000081526004016200007c9190620001a1565b60405180910390fd5b62000096816200009d60201b60201c565b50620001bc565b5f805f9054906101000a900473ffffffffffffffffffffffffffffffffffffffff169050815f806101000a81548173ffffffffffffffffffffffffffffffffffffffff021916908373ffffffffffffffffffffffffffffffffffffffff1602179055508173ffffffffffffffffffffffffffffffffffffffff168173ffffffffffffffffffffffffffffffffffffffff167f8be0079c531659141344cd1fd0a4f28419497f9722a3daafe3b4186f6b6457e060405160405180910390a35050565b5f73ffffffffffffffffffffffffffffffffffffffff82169050919050565b5f62000189826200015e565b9050919050565b6200019b816200017d565b82525050565b5f602082019050620001b65f83018462000190565b92915050565b61171a80620001ca5f395ff3fe608060405234801561000f575f80fd5b5060043610610060575f3560e01c8063114080f614610064578063715018a614610080578063784afc4e1461008a5780638da5cb5b146100ba578063b9a46384146100d8578063f2fde38b146100f4575b5f80fd5b61007e60048036038101906100799190610dda565b610110565b005b61008861036a565b005b6100a4600480360381019061009f9190610e37565b61037d565b6040516100b19190610ff6565b60405180910390f35b6100c26107ba565b6040516100cf9190611025565b60405180910390f35b6100f260048036038101906100ed9190610e37565b6107e1565b005b61010e6004803603810190610109919061103e565b6108b7565b005b610118610c69565b6040518060400160405280601c81526020017f68747470733a2f2f7777772e77332e6f72672f6e732f6469642f763100000000815250815f01819052506101768473ffffffffffffffffffffffffffffffffffffffff16601461093b565b60405160200161018691906110ed565b604051602081830303815290604052816020018190525080602001516040516020016101b29190611158565b60405160208183030381529060405281604001515f01819052506040518060600160405280602181526020016116c460219139816040015160200181905250806020015181604001516040018190525082828080601f0160208091040260200160405190810160405280939291908181526020018383808284375f81840152601f19601f8201169050808301925050505050505081604001516060018190525080604001515f0151816060018190525080600182602001516040516102779190611179565b90815260200160405180910390205f820151815f01908161029891906113bf565b5060208201518160010190816102ae91906113bf565b506040820151816002015f820151815f0190816102cb91906113bf565b5060208201518160010190816102e191906113bf565b5060408201518160020190816102f791906113bf565b50606082015181600301908161030d91906113bf565b505050606082015181600601908161032591906113bf565b509050507f5fccafd09eeeb6a3dc1c80357ee982c00d7fb00a991274a9b96fe4fd7cb60552816020015160405161035c91906114d6565b60405180910390a150505050565b610372610b1a565b61037b5f610ba1565b565b610385610c69565b60018383604051610397929190611528565b90815260200160405180910390206040518060800160405290815f820180546103bf906111e9565b80601f01602080910402602001604051908101604052809291908181526020018280546103eb906111e9565b80156104365780601f1061040d57610100808354040283529160200191610436565b820191905f5260205f20905b81548152906001019060200180831161041957829003601f168201915b5050505050815260200160018201805461044f906111e9565b80601f016020809104026020016040519081016040528092919081815260200182805461047b906111e9565b80156104c65780601f1061049d576101008083540402835291602001916104c6565b820191905f5260205f20905b8154815290600101906020018083116104a957829003601f168201915b50505050508152602001600282016040518060800160405290815f820180546104ee906111e9565b80601f016020809104026020016040519081016040528092919081815260200182805461051a906111e9565b80156105655780601f1061053c57610100808354040283529160200191610565565b820191905f5260205f20905b81548152906001019060200180831161054857829003601f168201915b5050505050815260200160018201805461057e906111e9565b80601f01602080910402602001604051908101604052809291908181526020018280546105aa906111e9565b80156105f55780601f106105cc576101008083540402835291602001916105f5565b820191905f5260205f20905b8154815290600101906020018083116105d857829003601f168201915b5050505050815260200160028201805461060e906111e9565b80601f016020809104026020016040519081016040528092919081815260200182805461063a906111e9565b80156106855780601f1061065c57610100808354040283529160200191610685565b820191905f5260205f20905b81548152906001019060200180831161066857829003601f168201915b5050505050815260200160038201805461069e906111e9565b80601f01602080910402602001604051908101604052809291908181526020018280546106ca906111e9565b80156107155780601f106106ec57610100808354040283529160200191610715565b820191905f5260205f20905b8154815290600101906020018083116106f857829003601f168201915b5050505050815250508152602001600682018054610732906111e9565b80601f016020809104026020016040519081016040528092919081815260200182805461075e906111e9565b80156107a95780601f10610780576101008083540402835291602001916107a9565b820191905f5260205f20905b81548152906001019060200180831161078c57829003601f168201915b505050505081525050905092915050565b5f805f9054906101000a900473ffffffffffffffffffffffffffffffffffffffff16905090565b6107e9610b1a565b600182826040516107fb929190611528565b90815260200160405180910390205f8082015f6108189190610c97565b600182015f6108279190610c97565b600282015f8082015f61083a9190610c97565b600182015f6108499190610c97565b600282015f6108589190610c97565b600382015f6108679190610c97565b5050600682015f6108789190610c97565b50507fb24f94d3ff75ed62d7237e14a510a969d70c1d4efdd4cce8ad563aa8ba60a64c82826040516108ab92919061156c565b60405180910390a15050565b6108bf610b1a565b5f73ffffffffffffffffffffffffffffffffffffffff168173ffffffffffffffffffffffffffffffffffffffff160361092f575f6040517f1e4fbdf70000000000000000000000000000000000000000000000000000000081526004016109269190611025565b60405180910390fd5b61093881610ba1565b50565b60605f600283600261094d91906115bb565b61095791906115fc565b67ffffffffffffffff8111156109705761096f61118f565b5b6040519080825280601f01601f1916602001820160405280156109a25781602001600182028036833780820191505090505b5090507f3000000000000000000000000000000000000000000000000000000000000000815f815181106109d9576109d861162f565b5b60200101907effffffffffffffffffffffffffffffffffffffffffffffffffffffffffffff191690815f1a9053507f780000000000000000000000000000000000000000000000000000000000000081600181518110610a3c57610a3b61162f565b5b60200101907effffffffffffffffffffffffffffffffffffffffffffffffffffffffffffff191690815f1a9053505f6001846002610a7a91906115bb565b610a8491906115fc565b90505b6001811115610b0f57600a600f861610610aa2576057610aa5565b60305b600f8616610ab39190611668565b60f81b828281518110610ac957610ac861162f565b5b60200101907effffffffffffffffffffffffffffffffffffffffffffffffffffffffffffff191690815f1a905350600485901c945080610b089061169c565b9050610a87565b508091505092915050565b610b22610c62565b73ffffffffffffffffffffffffffffffffffffffff16610b406107ba565b73ffffffffffffffffffffffffffffffffffffffff1614610b9f57610b63610c62565b6040517f118cdaa7000000000000000000000000000000000000000000000000000000008152600401610b969190611025565b60405180910390fd5b565b5f805f9054906101000a900473ffffffffffffffffffffffffffffffffffffffff169050815f806101000a81548173ffffffffffffffffffffffffffffffffffffffff021916908373ffffffffffffffffffffffffffffffffffffffff1602179055508173ffffffffffffffffffffffffffffffffffffffff168173ffffffffffffffffffffffffffffffffffffffff167f8be0079c531659141344cd1fd0a4f28419497f9722a3daafe3b4186f6b6457e060405160405180910390a35050565b5f33905090565b60405180608001604052806060815260200160608152602001610c8a610cd4565b8152602001606081525090565b508054610ca3906111e9565b5f825580601f10610cb45750610cd1565b601f0160209004905f5260205f2090810190610cd09190610cfc565b5b50565b6040518060800160405280606081526020016060815260200160608152602001606081525090565b5b80821115610d13575f815f905550600101610cfd565b5090565b5f80fd5b5f80fd5b5f73ffffffffffffffffffffffffffffffffffffffff82169050919050565b5f610d4882610d1f565b9050919050565b610d5881610d3e565b8114610d62575f80fd5b50565b5f81359050610d7381610d4f565b92915050565b5f80fd5b5f80fd5b5f80fd5b5f8083601f840112610d9a57610d99610d79565b5b8235905067ffffffffffffffff811115610db757610db6610d7d565b5b602083019150836001820283011115610dd357610dd2610d81565b5b9250929050565b5f805f60408486031215610df157610df0610d17565b5b5f610dfe86828701610d65565b935050602084013567ffffffffffffffff811115610e1f57610e1e610d1b565b5b610e2b86828701610d85565b92509250509250925092565b5f8060208385031215610e4d57610e4c610d17565b5b5f83013567ffffffffffffffff811115610e6a57610e69610d1b565b5b610e7685828601610d85565b92509250509250929050565b5f81519050919050565b5f82825260208201905092915050565b5f5b83811015610eb9578082015181840152602081019050610e9e565b5f8484015250505050565b5f601f19601f8301169050919050565b5f610ede82610e82565b610ee88185610e8c565b9350610ef8818560208601610e9c565b610f0181610ec4565b840191505092915050565b5f608083015f8301518482035f860152610f268282610ed4565b91505060208301518482036020860152610f408282610ed4565b91505060408301518482036040860152610f5a8282610ed4565b91505060608301518482036060860152610f748282610ed4565b9150508091505092915050565b5f608083015f8301518482035f860152610f9b8282610ed4565b91505060208301518482036020860152610fb58282610ed4565b91505060408301518482036040860152610fcf8282610f0c565b91505060608301518482036060860152610fe98282610ed4565b9150508091505092915050565b5f6020820190508181035f83015261100e8184610f81565b905092915050565b61101f81610d3e565b82525050565b5f6020820190506110385f830184611016565b92915050565b5f6020828403121561105357611052610d17565b5b5f61106084828501610d65565b91505092915050565b5f81905092915050565b7f6469643a6b6c61793a00000000000000000000000000000000000000000000005f82015250565b5f6110a7600983611069565b91506110b282611073565b600982019050919050565b5f6110c782610e82565b6110d18185611069565b93506110e1818560208601610e9c565b80840191505092915050565b5f6110f78261109b565b915061110382846110bd565b915081905092915050565b7f236b6579732d31000000000000000000000000000000000000000000000000005f82015250565b5f611142600783611069565b915061114d8261110e565b600782019050919050565b5f61116382846110bd565b915061116e82611136565b915081905092915050565b5f61118482846110bd565b915081905092915050565b7f4e487b71000000000000000000000000000000000000000000000000000000005f52604160045260245ffd5b7f4e487b71000000000000000000000000000000000000000000000000000000005f52602260045260245ffd5b5f600282049050600182168061120057607f821691505b602082108103611213576112126111bc565b5b50919050565b5f819050815f5260205f209050919050565b5f6020601f8301049050919050565b5f82821b905092915050565b5f600883026112757fffffffffffffffffffffffffffffffffffffffffffffffffffffffffffffffff8261123a565b61127f868361123a565b95508019841693508086168417925050509392505050565b5f819050919050565b5f819050919050565b5f6112c36112be6112b984611297565b6112a0565b611297565b9050919050565b5f819050919050565b6112dc836112a9565b6112f06112e8826112ca565b848454611246565b825550505050565b5f90565b6113046112f8565b61130f8184846112d3565b505050565b5b81811015611332576113275f826112fc565b600181019050611315565b5050565b601f8211156113775761134881611219565b6113518461122b565b81016020851015611360578190505b61137461136c8561122b565b830182611314565b50505b505050565b5f82821c905092915050565b5f6113975f198460080261137c565b1980831691505092915050565b5f6113af8383611388565b9150826002028217905092915050565b6113c882610e82565b67ffffffffffffffff8111156113e1576113e061118f565b5b6113eb82546111e9565b6113f6828285611336565b5f60209050601f831160018114611427575f8415611415578287015190505b61141f85826113a4565b865550611486565b601f19841661143586611219565b5f5b8281101561145c57848901518255600182019150602085019450602081019050611437565b868310156114795784890151611475601f891682611388565b8355505b6001600288020188555050505b505050505050565b5f82825260208201905092915050565b5f6114a882610e82565b6114b2818561148e565b93506114c2818560208601610e9c565b6114cb81610ec4565b840191505092915050565b5f6020820190508181035f8301526114ee818461149e565b905092915050565b828183375f83830152505050565b5f61150f8385611069565b935061151c8385846114f6565b82840190509392505050565b5f611534828486611504565b91508190509392505050565b5f61154b838561148e565b93506115588385846114f6565b61156183610ec4565b840190509392505050565b5f6020820190508181035f830152611585818486611540565b90509392505050565b7f4e487b71000000000000000000000000000000000000000000000000000000005f52601160045260245ffd5b5f6115c582611297565b91506115d083611297565b92508282026115de81611297565b915082820484148315176115f5576115f461158e565b5b5092915050565b5f61160682611297565b915061161183611297565b92508282019050808211156116295761162861158e565b5b92915050565b7f4e487b71000000000000000000000000000000000000000000000000000000005f52603260045260245ffd5b5f60ff82169050919050565b5f6116728261165c565b915061167d8361165c565b9250828201905060ff8111156116965761169561158e565b5b92915050565b5f6116a682611297565b91505f82036116b8576116b761158e565b5b60018203905091905056fe4563647361536563703235366b31566572696669636174696f6e4b657932303139a264697066735822122055d67d84f8ce71bf8a483e55437f26b71ff3fcd6ca7c35c335e239c876cb7df964736f6c63430008150033",
  "immutableReferences": {},
  "source": "// SPDX-License-Identifier: MIT\r\npragma solidity ^0.8.0;\r\n\r\nimport \"@openzeppelin/contracts/access/Ownable.sol\";\r\n\r\ncontract MinistryDIDRegistry is Ownable {\r\n\r\n    struct PublicKey {\r\n        string id;\r\n        string keyType;\r\n        string controller;\r\n        string publicKeyHex;\r\n    }\r\n\r\n    struct DIDDocument {\r\n        string context;\r\n        string id;\r\n        PublicKey publicKey;\r\n        string authentication;\r\n    }\r\n\r\n    mapping(string => DIDDocument) didDocuments;\r\n\r\n    constructor() Ownable(msg.sender) {}\r\n\r\n    event DIDCreated(string did);\r\n    event DIDDeleted(string did);\r\n\r\n    function toHexString(uint256 value, uint length) private pure returns (string memory) {\r\n        bytes memory buffer = new bytes(2 * length + 2);\r\n        buffer[0] = '0';\r\n        buffer[1] = 'x';\r\n        for (uint i = 2 * length + 1; i > 1; --i) {\r\n            buffer[i] = bytes1(uint8(value & 0xf) + (value & 0xf < 10 ? 48 : 87));\r\n            value >>= 4;\r\n        }\r\n        return string(buffer);\r\n    }\r\n\r\n    function createDIDDocument(address _holderAddress, string calldata _publicKey) public {\r\n        DIDDocument memory didDocument;\r\n       \r\n        didDocument.context = \"https://www.w3.org/ns/did/v1\";\r\n        didDocument.id = string(abi.encodePacked(\"did:klay:\", toHexString(uint256(uint160(_holderAddress)), 20)));\r\n        didDocument.publicKey.id = string(abi.encodePacked(didDocument.id,\"#keys-1\"));\r\n        didDocument.publicKey.keyType = \"EcdsaSecp256k1VerificationKey2019\";\r\n        didDocument.publicKey.controller = didDocument.id;\r\n        didDocument.publicKey.publicKeyHex = _publicKey;\r\n        didDocument.authentication=didDocument.publicKey.id;\r\n\r\n        didDocuments[didDocument.id] = didDocument;\r\n\r\n        emit DIDCreated(didDocument.id);\r\n    }\r\n\r\n    function getDIDDocument(string calldata did) external view returns (DIDDocument memory) {\r\n        return didDocuments[did];\r\n    }\r\n\r\n    function deleteDIDDocument(string calldata did) external onlyOwner {\r\n        delete didDocuments[did];\r\n        emit DIDDeleted(did);\r\n    }\r\n\r\n}\r\n",
  "sourcePath": "C:\\Users\\SSAFY\\Desktop\\S10P31C203\\blockchain\\contracts\\MinistryDIDRegistry.sol",
  "compiler": {
    "name": "solc",
    "version": "0.8.21+commit.d9974bed.Emscripten.clang"
  },
  "schemaVersion": "3.4.16",
  "updatedAt": "2024-05-14T01:24:01.018Z",
  "networkType": "ethereum",
  "devdoc": {
    "errors": {
      "OwnableInvalidOwner(address)": [
        {
          "details": "The owner is not a valid owner account. (eg. `address(0)`)"
        }
      ],
      "OwnableUnauthorizedAccount(address)": [
        {
          "details": "The caller account is not authorized to perform an operation."
        }
      ]
    },
    "kind": "dev",
    "methods": {
      "owner()": {
        "details": "Returns the address of the current owner."
      },
      "renounceOwnership()": {
        "details": "Leaves the contract without owner. It will not be possible to call `onlyOwner` functions. Can only be called by the current owner. NOTE: Renouncing ownership will leave the contract without an owner, thereby disabling any functionality that is only available to the owner."
      },
      "transferOwnership(address)": {
        "details": "Transfers ownership of the contract to a new account (`newOwner`). Can only be called by the current owner."
      }
    },
    "version": 1
  },
  "userdoc": {
    "kind": "user",
    "methods": {},
    "version": 1
  }
}