{
  "contractName": "MinistryDIDRegistry",
  "abi": [
    {
      "inputs": [],
      "stateMutability": "nonpayable",
      "type": "constructor"
    },
    {
      "inputs": [
        {
          "internalType": "address",
          "name": "owner",
          "type": "address"
        }
      ],
      "name": "OwnableInvalidOwner",
      "type": "error"
    },
    {
      "inputs": [
        {
          "internalType": "address",
          "name": "account",
          "type": "address"
        }
      ],
      "name": "OwnableUnauthorizedAccount",
      "type": "error"
    },
    {
      "anonymous": false,
      "inputs": [
        {
          "indexed": false,
          "internalType": "string",
          "name": "did",
          "type": "string"
        }
      ],
      "name": "DIDCreated",
      "type": "event"
    },
    {
      "anonymous": false,
      "inputs": [
        {
          "indexed": false,
          "internalType": "string",
          "name": "did",
          "type": "string"
        }
      ],
      "name": "DIDDeleted",
      "type": "event"
    },
    {
      "anonymous": false,
      "inputs": [
        {
          "indexed": true,
          "internalType": "address",
          "name": "previousOwner",
          "type": "address"
        },
        {
          "indexed": true,
          "internalType": "address",
          "name": "newOwner",
          "type": "address"
        }
      ],
      "name": "OwnershipTransferred",
      "type": "event"
    },
    {
      "inputs": [],
      "name": "owner",
      "outputs": [
        {
          "internalType": "address",
          "name": "",
          "type": "address"
        }
      ],
      "stateMutability": "view",
      "type": "function"
    },
    {
      "inputs": [],
      "name": "renounceOwnership",
      "outputs": [],
      "stateMutability": "nonpayable",
      "type": "function"
    },
    {
      "inputs": [
        {
          "internalType": "address",
          "name": "newOwner",
          "type": "address"
        }
      ],
      "name": "transferOwnership",
      "outputs": [],
      "stateMutability": "nonpayable",
      "type": "function"
    },
    {
      "inputs": [
        {
          "internalType": "address",
          "name": "_holderAddress",
          "type": "address"
        },
        {
          "internalType": "string",
          "name": "_publicKey",
          "type": "string"
        }
      ],
      "name": "createDIDDocument",
      "outputs": [],
      "stateMutability": "nonpayable",
      "type": "function"
    },
    {
      "inputs": [
        {
          "internalType": "string",
          "name": "did",
          "type": "string"
        }
      ],
      "name": "getDIDDocument",
      "outputs": [
        {
          "components": [
            {
              "internalType": "string",
              "name": "context",
              "type": "string"
            },
            {
              "internalType": "string",
              "name": "id",
              "type": "string"
            },
            {
              "components": [
                {
                  "internalType": "string",
                  "name": "id",
                  "type": "string"
                },
                {
                  "internalType": "string",
                  "name": "keyType",
                  "type": "string"
                },
                {
                  "internalType": "string",
                  "name": "controller",
                  "type": "string"
                },
                {
                  "internalType": "string",
                  "name": "publicKeyHex",
                  "type": "string"
                }
              ],
              "internalType": "struct MinistryDIDRegistry.PublicKey",
              "name": "publicKey",
              "type": "tuple"
            },
            {
              "internalType": "string",
              "name": "authentication",
              "type": "string"
            }
          ],
          "internalType": "struct MinistryDIDRegistry.DIDDocument",
          "name": "",
          "type": "tuple"
        }
      ],
      "stateMutability": "view",
      "type": "function"
    },
    {
      "inputs": [
        {
          "internalType": "string",
          "name": "did",
          "type": "string"
        }
      ],
      "name": "deleteDIDDocument",
      "outputs": [],
      "stateMutability": "nonpayable",
      "type": "function"
    }
  ],
  "bytecode": "0x6080604052346200002d57620000146200003d565b6200001e62000033565b6118e36200025882396118e390f35b62000039565b60405190565b5f80fd5b6200004833620000bf565b565b90565b60018060a01b031690565b90565b620000746200006e6200007a926200004a565b62000058565b6200004d565b90565b62000088906200005b565b90565b62000096906200004d565b90565b620000a4906200008b565b9052565b9190620000bd905f6020850194019062000099565b565b80620000e0620000d9620000d35f6200007d565b6200008b565b916200008b565b14620000f357620000f190620001ec565b565b62000123620001025f6200007d565b6200010c62000033565b918291631e4fbdf760e01b835260048301620000a8565b0390fd5b5f1c90565b60018060a01b031690565b620001466200014c9162000127565b6200012c565b90565b6200015b905462000137565b90565b5f1b90565b906200017660018060a01b03916200015e565b9181191691161790565b62000199620001936200019f926200004d565b62000058565b6200004d565b90565b620001ad9062000180565b90565b620001bb90620001a2565b90565b90565b90620001db620001d5620001e392620001b0565b620001be565b825462000163565b9055565b5f0190565b620001f75f6200014f565b62000203825f620001c1565b906200023b620002347f8be0079c531659141344cd1fd0a4f28419497f9722a3daafe3b4186f6b6457e093620001b0565b91620001b0565b916200024662000033565b806200025281620001e7565b0390a356fe60806040526004361015610013575b61045b565b61001d5f3561007c565b8063114080f614610077578063715018a614610072578063784afc4e1461006d5780638da5cb5b14610068578063b9a46384146100635763f2fde38b0361000e57610428565b6103d6565b6103a1565b610349565b6101a7565b610164565b60e01c90565b60405190565b5f80fd5b5f80fd5b5f80fd5b60018060a01b031690565b6100a890610094565b90565b6100b48161009f565b036100bb57565b5f80fd5b905035906100cc826100ab565b565b5f80fd5b5f80fd5b5f80fd5b909182601f830112156101145781359167ffffffffffffffff831161010f57602001926001830284011161010a57565b6100d6565b6100d2565b6100ce565b91909160408184031261015a57610132835f83016100bf565b92602082013567ffffffffffffffff81116101555761015192016100da565b9091565b610090565b61008c565b5f0190565b346101935761017d610177366004610119565b91610e16565b610185610082565b8061018f8161015f565b0390f35b610088565b5f9103126101a257565b61008c565b346101d5576101b7366004610198565b6101bf6104fc565b6101c7610082565b806101d18161015f565b0390f35b610088565b9060208282031261020b575f82013567ffffffffffffffff81116102065761020292016100da565b9091565b610090565b61008c565b5190565b60209181520190565b5f5b83811061022f575050905f910152565b80602091830151818501520161021f565b601f801991011690565b6102696102726020936102779361026081610210565b93848093610214565b9586910161021d565b610240565b0190565b6102d39160606102c26102b061029e608085015f8701518682035f88015261024a565b6020860151858203602087015261024a565b6040850151848203604086015261024a565b92015190606081840391015261024a565b90565b61032e91606061031d61030b6102f9608085015f8701518682035f88015261024a565b6020860151858203602087015261024a565b6040850151848203604086015261027b565b92015190606081840391015261024a565b90565b6103469160208201915f8184039101526102d6565b90565b3461037a5761037661036561035f3660046101da565b90611592565b61036d610082565b91829182610331565b0390f35b610088565b6103889061009f565b9052565b919061039f905f6020850194019061037f565b565b346103d1576103b1366004610198565b6103cd6103bc610494565b6103c4610082565b9182918261038c565b0390f35b610088565b34610405576103ef6103e93660046101da565b906118a1565b6103f7610082565b806104018161015f565b0390f35b610088565b9060208282031261042357610420915f016100bf565b90565b61008c565b346104565761044061043b36600461040a565b6105c7565b610448610082565b806104528161015f565b0390f35b610088565b5f80fd5b5f90565b5f1c90565b60018060a01b031690565b61047f61048491610463565b610468565b90565b6104919054610473565b90565b61049c61045f565b506104a65f610487565b90565b6104b1610506565b6104b96104e9565b565b90565b90565b6104d56104d06104da926104bb565b6104be565b610094565b90565b6104e6906104c1565b90565b6104fa6104f55f6104dd565b610649565b565b6105046104a9565b565b61050e610494565b61052761052161051c6106a8565b61009f565b9161009f565b0361052e57565b6105576105396106a8565b610541610082565b91829163118cdaa760e01b83526004830161038c565b0390fd5b61056c90610567610506565b61056e565b565b8061058961058361057e5f6104dd565b61009f565b9161009f565b146105995761059790610649565b565b6105c36105a55f6104dd565b6105ad610082565b918291631e4fbdf760e01b83526004830161038c565b0390fd5b6105d09061055b565b565b5f1b90565b906105e860018060a01b03916105d2565b9181191691161790565b61060661060161060b92610094565b6104be565b610094565b90565b610617906105f2565b90565b6106239061060e565b90565b90565b9061063e6106396106459261061a565b610626565b82546105d7565b9055565b6106525f610487565b61065c825f610629565b9061069061068a7f8be0079c531659141344cd1fd0a4f28419497f9722a3daafe3b4186f6b6457e09361061a565b9161061a565b91610699610082565b806106a38161015f565b0390a3565b6106b061045f565b503390565b634e487b7160e01b5f52604160045260245ffd5b906106d390610240565b810190811067ffffffffffffffff8211176106ed57604052565b6106b5565b906107056106fe610082565b92836106c9565b565b61071160806106f2565b90565b606090565b61072360806106f2565b90565b61072e610719565b9060208080808561073d610714565b815201610748610714565b815201610753610714565b81520161075e610714565b81525050565b61076c610726565b90565b610777610707565b90602080808085610786610714565b815201610791610714565b81520161079c610764565b8152016107a7610714565b81525050565b6107b561076f565b90565b90565b906107c5906107b8565b9052565b67ffffffffffffffff81116107e7576107e3602091610240565b0190565b6106b5565b906107fe6107f9836107c9565b6106f2565b918252565b5f7f68747470733a2f2f7777772e77332e6f72672f6e732f6469642f763100000000910152565b610834601c6107ec565b9061084160208301610803565b565b61084c906105f2565b90565b61086361085e61086892610094565b6104be565b6107b8565b90565b90565b61088261087d6108879261086b565b6104be565b6107b8565b90565b905090565b5f7f6469643a6b6c61793a0000000000000000000000000000000000000000000000910152565b6108c26009809261088a565b6108cb8161088f565b0190565b6108f46108eb926020926108e281610210565b9485809361088a565b9384910161021d565b0190565b9061090561090b926108b6565b906108cf565b90565b90565b5f7f236b6579732d3100000000000000000000000000000000000000000000000000910152565b6109446007809261088a565b61094d81610911565b0190565b61095e90610963926108cf565b610938565b90565b60207f3900000000000000000000000000000000000000000000000000000000000000917f4563647361536563703235366b31566572696669636174696f6e4b65793230315f8201520152565b6109bd60216107ec565b906109ca60208301610966565b565b5f80fd5b90825f939282370152565b909291926109f06109eb826107c9565b6106f2565b93818552602085019082840111610a0c57610a0a926109d0565b565b6109cc565b610a1c9136916109db565b90565b90565b610a2e610a33916107b8565b610a1f565b9052565b610a47610a4e91602094936108cf565b8092610a22565b0190565b610a66610a5d610082565b92839283610a37565b03902090565b610a7591610a52565b90565b634e487b7160e01b5f525f60045260245ffd5b5190565b634e487b7160e01b5f52602260045260245ffd5b9060016002830492168015610ac3575b6020831014610abe57565b610a8f565b91607f1691610ab3565b5f5260205f2090565b601f602091010490565b1b90565b91906008610aff910291610af95f1984610ae0565b92610ae0565b9181191691161790565b610b1d610b18610b22926107b8565b6104be565b6107b8565b90565b90565b9190610b3e610b39610b4693610b09565b610b25565b908354610ae4565b9055565b5f90565b610b6091610b5a610b4a565b91610b28565b565b5b818110610b6e575050565b80610b7b5f600193610b4e565b01610b63565b9190601f8111610b91575b505050565b610b9d610bc293610acd565b906020610ba984610ad6565b83019310610bca575b610bbb90610ad6565b0190610b62565b5f8080610b8c565b9150610bbb81929050610bb2565b1c90565b90610bec905f1990600802610bd8565b191690565b81610bfb91610bdc565b906002021790565b90610c0d81610210565b9067ffffffffffffffff8211610ccd57610c3182610c2b8554610aa3565b85610b81565b602090601f8311600114610c6557918091610c54935f92610c59575b5050610bf1565b90555b565b90915001515f80610c4d565b601f19831691610c7485610acd565b925f5b818110610cb557509160029391856001969410610c9b575b50505002019055610c57565b610cab910151601f841690610bdc565b90555f8080610c8f565b91936020600181928787015181550195019201610c77565b6106b5565b90610cdc91610c03565b565b5190565b90610d3f60606003610d4594610d055f8201610cff5f8801610a8b565b90610cd2565b610d1e60018201610d1860208801610a8b565b90610cd2565b610d3760028201610d3160408801610a8b565b90610cd2565b019201610a8b565b90610cd2565b565b90610d5191610ce2565b565b90610db060606006610db694610d765f8201610d705f8801610a8b565b90610cd2565b610d8f60018201610d8960208801610a8b565b90610cd2565b610da860028201610da260408801610cde565b90610d47565b019201610a8b565b90610cd2565b565b90610dc291610d53565b565b60209181520190565b610dec610df5602093610dfa93610de381610210565b93848093610dc4565b9586910161021d565b610240565b0190565b610e139160208201915f818403910152610dcd565b90565b9091610eff602093610e8d610e7a610e88610e67610e57610e52610e386107ad565b99610e4d5f8c01610e4761082a565b906107bb565b610843565b61084f565b610e61601461086e565b9061122d565b610e6f610082565b9283918a83016108f8565b8982018103825203826106c9565b61090e565b85850152610ec4610eb1610ebf87870151610ea6610082565b9283918a8301610951565b8982018103825203826106c9565b61090e565b5f60408601510152610ee485604086015101610ede6109b3565b906107bb565b84840151604080860151015291606060408501510192610a11565b90525f604082015101516060820152610f2681610f2160018585015190610a6c565b610db8565b0151610f5e7f5fccafd09eeeb6a3dc1c80357ee982c00d7fb00a991274a9b96fe4fd7cb6055291610f55610082565b91829182610dfe565b0390a1565b606090565b90565b610f7f610f7a610f8492610f68565b6104be565b6107b8565b90565b634e487b7160e01b5f52601160045260245ffd5b610faa610fb0919392936107b8565b926107b8565b91610fbc8382026107b8565b928184041490151715610fcb57565b610f87565b610fdf610fe5919392936107b8565b926107b8565b8201809211610ff057565b610f87565b67ffffffffffffffff81116110135761100f602091610240565b0190565b6106b5565b9061102a61102583610ff5565b6106f2565b918252565b369037565b9061105961104183611018565b9260208061104f8693610ff5565b920191039061102f565b565b600360fc1b90565b634e487b7160e01b5f52603260045260245ffd5b5190565b9061108582611077565b81101561109757600160209102010190565b611063565b6110b06110ab6110b5926104bb565b6104be565b6107b8565b90565b600f60fb1b90565b90565b6110d76110d26110dc926110c0565b6104be565b6107b8565b90565b6110e8906107b8565b5f81146110f6576001900390565b610f87565b90565b61111261110d611117926110fb565b6104be565b6107b8565b90565b60ff1690565b61113461112f611139926107b8565b6104be565b61111a565b90565b90565b61115361114e6111589261113c565b6104be565b6107b8565b90565b90565b61117261116d6111779261115b565b6104be565b61111a565b90565b90565b61119161118c6111969261117a565b6104be565b61111a565b90565b6111a56111ab9161111a565b9161111a565b019060ff82116111b757565b610f87565b60ff60f81b1690565b60f81b90565b6111df6111da6111e49261111a565b6111c5565b6111bc565b90565b90565b6111fe6111f9611203926111e7565b6104be565b61111a565b90565b6112259061121f61121961122a9461111a565b916107b8565b90610bd8565b6107b8565b90565b9190611237610f63565b506112ce6112be61126d61126861125860026112538791610f6b565b610f9b565b6112626002610f6b565b90610fd0565b611034565b9261127661105b565b61128d856112875f935f1a9361109c565b9061107b565b536112966110b8565b6112ae856112a86001935f1a936110c3565b9061107b565b536112b96002610f6b565b610f9b565b6112c860016110c3565b90610fd0565b925b836112e46112de60016110c3565b916107b8565b1115611382576113678161134761134261130b61136d95611305600f6110fe565b16611120565b83611316600f6110fe565b1661132a611324600a61113f565b916107b8565b105f146113735761133b603061117d565b5b90611199565b6111cb565b611356859188905f1a9261107b565b5361136160046111ea565b90611206565b936110df565b926112d0565b61137d605761115e565b61133c565b5061138e91925061090e565b90565b9091826113a1816113a89361088a565b80936109d0565b0190565b6113bd90602094936113c493611391565b8092610a22565b0190565b90916113df906113d6610082565b938493846113ac565b03902090565b90916113f0926113c8565b90565b905f929180549061140d61140683610aa3565b8094610214565b916001811690815f146114645750600114611428575b505050565b6114359192939450610acd565b915f925b81841061144c57505001905f8080611423565b60018160209295939554848601520191019290611439565b92949550505060ff19168252151560200201905f8080611423565b90611489916113f3565b90565b906114ac6114a59261149c610082565b9384809261147f565b03836106c9565b565b52565b9061151861150f60036114c2610719565b946114d96114d15f830161148c565b5f88016114ae565b6114f16114e86001830161148c565b602088016114ae565b6115096115006002830161148c565b604088016114ae565b0161148c565b606084016114ae565b565b52565b9061158461157b600661152e610707565b9461154561153d5f830161148c565b5f88016114ae565b61155d6115546001830161148c565b602088016114ae565b61157561156c600283016114b1565b6040880161151a565b0161148c565b606084016114ae565b565b61158f9061151d565b90565b6115ad906115b2926115a26107ad565b5060019190916113e5565b611586565b90565b906115c7916115c2610506565b61184f565b565b906115dc905f1990602003600802610bd8565b8154169055565b905f916115fa6115f282610acd565b928354610bf1565b905555565b919290602082105f1461165857601f841160011461162857611622929350610bf1565b90555b5b565b509061164e61165393600161164561163f85610acd565b92610ad6565b82019101610b62565b6115e3565b611625565b5061168f8293611669600194610acd565b61168861167585610ad6565b820192601f86168061169a575b50610ad6565b0190610b62565b600202179055611626565b6116a6908886036115c9565b5f611682565b92909168010000000000000000821161170c576020115f146116fd57602081105f146116e1576116db91610bf1565b90555b5b565b60019160ff19166116f184610acd565b556002020190556116de565b600191506002020190556116df565b6106b5565b90815461171d81610aa3565b90818311611746575b818310611734575b50505050565b61173d936115ff565b5f80808061172e565b611752838383876116ac565b611726565b5f61176191611711565b565b905f036117755761177390611757565b565b610a78565b5f60036117ad9261178d83808301611763565b61179a8360018301611763565b6117a78360028301611763565b01611763565b565b905f036117c1576117bf9061177a565b565b610a78565b5f60066117f9926117d983808301611763565b6117e68360018301611763565b6117f383600283016117af565b01611763565b565b905f0361180d5761180b906117c6565b565b610a78565b919061182c816118258161183195610dc4565b80956109d0565b610240565b0190565b909161184c9260208301925f818503910152611812565b90565b6118655f61186060018486916113e5565b6117fb565b907fb24f94d3ff75ed62d7237e14a510a969d70c1d4efdd4cce8ad563aa8ba60a64c9161189c611893610082565b92839283611835565b0390a1565b906118ab916115b5565b56fea2646970667358221220613198b6e3ee92d3b8116d22cb71e1efed0890652d90ffd14aaa50aa4d4ff72a64736f6c63430008150033",
  "immutableReferences": {},
  "source": "// SPDX-License-Identifier: MIT\r\npragma solidity ^0.8.0;\r\n\r\nimport \"@openzeppelin/contracts/access/Ownable.sol\";\r\n\r\ncontract MinistryDIDRegistry is Ownable {\r\n\r\n    struct PublicKey {\r\n        string id;\r\n        string keyType;\r\n        string controller;\r\n        string publicKeyHex;\r\n    }\r\n\r\n    struct DIDDocument {\r\n        string context;\r\n        string id;\r\n        PublicKey publicKey;\r\n        string authentication;\r\n    }\r\n\r\n    mapping(string => DIDDocument) didDocuments;\r\n\r\n    constructor() Ownable(msg.sender) {}\r\n\r\n    event DIDCreated(string did);\r\n    event DIDDeleted(string did);\r\n\r\n    function toHexString(uint256 value, uint length) private pure returns (string memory) {\r\n        bytes memory buffer = new bytes(2 * length + 2);\r\n        buffer[0] = '0';\r\n        buffer[1] = 'x';\r\n        for (uint i = 2 * length + 1; i > 1; --i) {\r\n            buffer[i] = bytes1(uint8(value & 0xf) + (value & 0xf < 10 ? 48 : 87));\r\n            value >>= 4;\r\n        }\r\n        return string(buffer);\r\n    }\r\n\r\n    function createDIDDocument(address _holderAddress, string calldata _publicKey) public {\r\n        DIDDocument memory didDocument;\r\n       \r\n        didDocument.context = \"https://www.w3.org/ns/did/v1\";\r\n        didDocument.id = string(abi.encodePacked(\"did:klay:\", toHexString(uint256(uint160(_holderAddress)), 20)));\r\n        didDocument.publicKey.id = string(abi.encodePacked(didDocument.id,\"#keys-1\"));\r\n        didDocument.publicKey.keyType = \"EcdsaSecp256k1VerificationKey2019\";\r\n        didDocument.publicKey.controller = didDocument.id;\r\n        didDocument.publicKey.publicKeyHex = _publicKey;\r\n        didDocument.authentication=didDocument.publicKey.id;\r\n\r\n        didDocuments[didDocument.id] = didDocument;\r\n\r\n        emit DIDCreated(didDocument.id);\r\n    }\r\n\r\n    function getDIDDocument(string calldata did) external view returns (DIDDocument memory) {\r\n        return didDocuments[did];\r\n    }\r\n\r\n    function deleteDIDDocument(string calldata did) external onlyOwner {\r\n        delete didDocuments[did];\r\n        emit DIDDeleted(did);\r\n    }\r\n\r\n}\r\n",
  "sourcePath": "C:\\Users\\SSAFY\\Desktop\\S10P31C203\\blockchain\\contracts\\MinistryDIDRegistry.sol",
  "compiler": {
    "name": "solc",
    "version": "0.8.21+commit.d9974bed.Emscripten.clang"
  },
  "schemaVersion": "3.4.16",
  "updatedAt": "2024-05-14T08:09:25.735Z",
  "devdoc": {
    "errors": {
      "OwnableInvalidOwner(address)": [
        {
          "details": "The owner is not a valid owner account. (eg. `address(0)`)"
        }
      ],
      "OwnableUnauthorizedAccount(address)": [
        {
          "details": "The caller account is not authorized to perform an operation."
        }
      ]
    },
    "kind": "dev",
    "methods": {
      "owner()": {
        "details": "Returns the address of the current owner."
      },
      "renounceOwnership()": {
        "details": "Leaves the contract without owner. It will not be possible to call `onlyOwner` functions. Can only be called by the current owner. NOTE: Renouncing ownership will leave the contract without an owner, thereby disabling any functionality that is only available to the owner."
      },
      "transferOwnership(address)": {
        "details": "Transfers ownership of the contract to a new account (`newOwner`). Can only be called by the current owner."
      }
    },
    "version": 1
  },
  "userdoc": {
    "kind": "user",
    "methods": {},
    "version": 1
  }
}