{
  "contractName": "OwnershipVCRegistry",
  "abi": [
    {
      "inputs": [],
      "stateMutability": "nonpayable",
      "type": "constructor"
    },
    {
      "inputs": [
        {
          "internalType": "address",
          "name": "owner",
          "type": "address"
        }
      ],
      "name": "OwnableInvalidOwner",
      "type": "error"
    },
    {
      "inputs": [
        {
          "internalType": "address",
          "name": "account",
          "type": "address"
        }
      ],
      "name": "OwnableUnauthorizedAccount",
      "type": "error"
    },
    {
      "anonymous": false,
      "inputs": [
        {
          "indexed": true,
          "internalType": "address",
          "name": "previousOwner",
          "type": "address"
        },
        {
          "indexed": true,
          "internalType": "address",
          "name": "newOwner",
          "type": "address"
        }
      ],
      "name": "OwnershipTransferred",
      "type": "event"
    },
    {
      "anonymous": false,
      "inputs": [
        {
          "indexed": false,
          "internalType": "string",
          "name": "id",
          "type": "string"
        }
      ],
      "name": "VCcreated",
      "type": "event"
    },
    {
      "anonymous": false,
      "inputs": [
        {
          "indexed": false,
          "internalType": "string",
          "name": "id",
          "type": "string"
        }
      ],
      "name": "VCdeleted",
      "type": "event"
    },
    {
      "inputs": [],
      "name": "owner",
      "outputs": [
        {
          "internalType": "address",
          "name": "",
          "type": "address"
        }
      ],
      "stateMutability": "view",
      "type": "function"
    },
    {
      "inputs": [],
      "name": "renounceOwnership",
      "outputs": [],
      "stateMutability": "nonpayable",
      "type": "function"
    },
    {
      "inputs": [
        {
          "internalType": "address",
          "name": "newOwner",
          "type": "address"
        }
      ],
      "name": "transferOwnership",
      "outputs": [],
      "stateMutability": "nonpayable",
      "type": "function"
    },
    {
      "inputs": [
        {
          "internalType": "string",
          "name": "_subject",
          "type": "string"
        },
        {
          "internalType": "uint256",
          "name": "_issuanceDate",
          "type": "uint256"
        },
        {
          "internalType": "bytes32",
          "name": "_r",
          "type": "bytes32"
        },
        {
          "internalType": "bytes32",
          "name": "_s",
          "type": "bytes32"
        },
        {
          "internalType": "uint8",
          "name": "_v",
          "type": "uint8"
        },
        {
          "internalType": "string",
          "name": "_value",
          "type": "string"
        }
      ],
      "name": "claimCredential",
      "outputs": [],
      "stateMutability": "nonpayable",
      "type": "function"
    },
    {
      "inputs": [
        {
          "internalType": "string",
          "name": "_id",
          "type": "string"
        }
      ],
      "name": "verifyCredential",
      "outputs": [
        {
          "internalType": "bool",
          "name": "",
          "type": "bool"
        }
      ],
      "stateMutability": "view",
      "type": "function"
    },
    {
      "inputs": [
        {
          "internalType": "string",
          "name": "id",
          "type": "string"
        }
      ],
      "name": "getVC",
      "outputs": [
        {
          "components": [
            {
              "internalType": "string",
              "name": "issuer",
              "type": "string"
            },
            {
              "internalType": "string",
              "name": "subject",
              "type": "string"
            },
            {
              "internalType": "uint256",
              "name": "issuanceDate",
              "type": "uint256"
            },
            {
              "internalType": "string",
              "name": "value",
              "type": "string"
            },
            {
              "components": [
                {
                  "internalType": "bytes32",
                  "name": "r",
                  "type": "bytes32"
                },
                {
                  "internalType": "bytes32",
                  "name": "s",
                  "type": "bytes32"
                },
                {
                  "internalType": "uint8",
                  "name": "v",
                  "type": "uint8"
                }
              ],
              "internalType": "struct OwnershipVCRegistry.Proof",
              "name": "proof",
              "type": "tuple"
            }
          ],
          "internalType": "struct OwnershipVCRegistry.Credential",
          "name": "",
          "type": "tuple"
        }
      ],
      "stateMutability": "view",
      "type": "function"
    },
    {
      "inputs": [
        {
          "internalType": "string",
          "name": "id",
          "type": "string"
        }
      ],
      "name": "deleteVC",
      "outputs": [],
      "stateMutability": "nonpayable",
      "type": "function"
    }
  ],
  "bytecode": "0x6080604052346200002d57620000146200003d565b6200001e62000033565b611a36620002588239611a3690f35b62000039565b60405190565b5f80fd5b6200004833620000bf565b565b90565b60018060a01b031690565b90565b620000746200006e6200007a926200004a565b62000058565b6200004d565b90565b62000088906200005b565b90565b62000096906200004d565b90565b620000a4906200008b565b9052565b9190620000bd905f6020850194019062000099565b565b80620000e0620000d9620000d35f6200007d565b6200008b565b916200008b565b14620000f357620000f190620001ec565b565b62000123620001025f6200007d565b6200010c62000033565b918291631e4fbdf760e01b835260048301620000a8565b0390fd5b5f1c90565b60018060a01b031690565b620001466200014c9162000127565b6200012c565b90565b6200015b905462000137565b90565b5f1b90565b906200017660018060a01b03916200015e565b9181191691161790565b62000199620001936200019f926200004d565b62000058565b6200004d565b90565b620001ad9062000180565b90565b620001bb90620001a2565b90565b90565b90620001db620001d5620001e392620001b0565b620001be565b825462000163565b9055565b5f0190565b620001f75f6200014f565b62000203825f620001c1565b906200023b620002347f8be0079c531659141344cd1fd0a4f28419497f9722a3daafe3b4186f6b6457e093620001b0565b91620001b0565b916200024662000033565b806200025281620001e7565b0390a356fe60806040526004361015610013575b6106b8565b61001d5f3561008c565b80630289a8fe146100875780632bca572c14610082578063715018a61461007d5780638da5cb5b14610078578063bb3670ab14610073578063d905515a1461006e5763f2fde38b0361000e57610685565b61060e565b61049a565b610322565b6102b6565b61026a565b61012a565b60e01c90565b60405190565b5f80fd5b5f80fd5b5f80fd5b5f80fd5b5f80fd5b5f80fd5b909182601f830112156100ea5781359167ffffffffffffffff83116100e55760200192600183028401116100e057565b6100ac565b6100a8565b6100a4565b90602082820312610120575f82013567ffffffffffffffff811161011b5761011792016100b0565b9091565b6100a0565b61009c565b5f0190565b346101595761014361013d3660046100ef565b906119f4565b61014b610092565b8061015581610125565b0390f35b610098565b90565b61016a8161015e565b0361017157565b5f80fd5b9050359061018282610161565b565b90565b61019081610184565b0361019757565b5f80fd5b905035906101a882610187565b565b60ff1690565b6101b9816101aa565b036101c057565b5f80fd5b905035906101d1826101b0565b565b919060c083820312610265575f83013567ffffffffffffffff811161026057816101fe9185016100b0565b92909361020e8360208301610175565b9261021c816040840161019b565b9261022a826060850161019b565b9261023883608083016101c4565b9260a082013567ffffffffffffffff811161025b5761025792016100b0565b9091565b6100a0565b6100a0565b61009c565b346102a25761028c61027d3660046101d3565b96959095949194939293610fbe565b610294610092565b8061029e81610125565b0390f35b610098565b5f9103126102b157565b61009c565b346102e4576102c63660046102a7565b6102ce610759565b6102d6610092565b806102e081610125565b0390f35b610098565b60018060a01b031690565b6102fd906102e9565b90565b610309906102f4565b9052565b9190610320905f60208501940190610300565b565b34610352576103323660046102a7565b61034e61033d6106f1565b610345610092565b9182918261030d565b0390f35b610098565b5f80fd5b601f801991011690565b634e487b7160e01b5f52604160045260245ffd5b906103839061035b565b810190811067ffffffffffffffff82111761039d57604052565b610365565b906103b56103ae610092565b9283610379565b565b67ffffffffffffffff81116103d5576103d160209161035b565b0190565b610365565b90825f939282370152565b909291926103fa6103f5826103b7565b6103a2565b9381855260208501908284011161041657610414926103da565b565b610357565b9080601f8301121561043957816020610436933591016103e5565b90565b6100a4565b9060208282031261046e575f82013567ffffffffffffffff811161046957610466920161041b565b90565b6100a0565b61009c565b151590565b61048190610473565b9052565b9190610498905f60208501940190610478565b565b346104ca576104c66104b56104b036600461043e565b61132e565b6104bd610092565b91829182610485565b0390f35b610098565b5190565b60209181520190565b5f5b8381106104ee575050905f910152565b8060209183015181850152016104de565b61051e61052760209361052c93610515816104cf565b938480936104d3565b958691016104dc565b61035b565b0190565b6105399061015e565b9052565b61054690610184565b9052565b610553906101aa565b9052565b9060408061058b9361056f5f8201515f86019061053d565b6105816020820151602086019061053d565b015191019061054a565b565b906105f3906080806105e86105c46105b260e086015f8901518782035f8901526104ff565b602088015186820360208801526104ff565b6105d660408801516040870190610530565b606087015185820360608701526104ff565b940151910190610557565b90565b61060b9160208201915f81840391015261058d565b90565b3461063f5761063b61062a6106243660046100ef565b906116b6565b610632610092565b918291826105f6565b0390f35b610098565b61064d816102f4565b0361065457565b5f80fd5b9050359061066582610644565b565b906020828203126106805761067d915f01610658565b90565b61009c565b346106b35761069d610698366004610667565b610824565b6106a5610092565b806106af81610125565b0390f35b610098565b5f80fd5b5f90565b5f1c90565b60018060a01b031690565b6106dc6106e1916106c0565b6106c5565b90565b6106ee90546106d0565b90565b6106f96106bc565b506107035f6106e4565b90565b61070e610763565b610716610746565b565b90565b90565b61073261072d61073792610718565b61071b565b6102e9565b90565b6107439061071e565b90565b6107576107525f61073a565b6108a6565b565b610761610706565b565b61076b6106f1565b61078461077e610779610905565b6102f4565b916102f4565b0361078b57565b6107b4610796610905565b61079e610092565b91829163118cdaa760e01b83526004830161030d565b0390fd5b6107c9906107c4610763565b6107cb565b565b806107e66107e06107db5f61073a565b6102f4565b916102f4565b146107f6576107f4906108a6565b565b6108206108025f61073a565b61080a610092565b918291631e4fbdf760e01b83526004830161030d565b0390fd5b61082d906107b8565b565b5f1b90565b9061084560018060a01b039161082f565b9181191691161790565b61086361085e610868926102e9565b61071b565b6102e9565b90565b6108749061084f565b90565b6108809061086b565b90565b90565b9061089b6108966108a292610877565b610883565b8254610834565b9055565b6108af5f6106e4565b6108b9825f610886565b906108ed6108e77f8be0079c531659141344cd1fd0a4f28419497f9722a3daafe3b4186f6b6457e093610877565b91610877565b916108f6610092565b8061090081610125565b0390a3565b61090d6106bc565b503390565b9061092a97969594939291610925610763565b610ef9565b565b905090565b909182610941816109489361092c565b80936103da565b0190565b90565b61095b6109609161015e565b61094c565b9052565b610975906020949361097c93610931565b809261094f565b0190565b90916109979061098e610092565b93849384610964565b03902090565b90916109a892610980565b90565b90565b634e487b7160e01b5f525f60045260245ffd5b634e487b7160e01b5f52602260045260245ffd5b90600160028304921680156109f5575b60208310146109f057565b6109c1565b91607f16916109e5565b5f5260205f2090565b601f602091010490565b1b90565b91906008610a31910291610a2b5f1984610a12565b92610a12565b9181191691161790565b610a4f610a4a610a549261015e565b61071b565b61015e565b90565b90565b9190610a70610a6b610a7893610a3b565b610a57565b908354610a16565b9055565b5f90565b610a9291610a8c610a7c565b91610a5a565b565b5b818110610aa0575050565b80610aad5f600193610a80565b01610a95565b9190601f8111610ac3575b505050565b610acf610af4936109ff565b906020610adb84610a08565b83019310610afc575b610aed90610a08565b0190610a94565b5f8080610abe565b9150610aed81929050610ae4565b6001610b4f7f643032313736343262636437346165366364340000000000000000000000000092610b466033610b4083546109d5565b83610ab3565b606781556109ff565b7f6469643a6b6c61793a30786235343936646564613064316161316637626133395f8201550155565b610b8190610b0a565b565b5090565b5f5260205f2090565b9190601f8111610ba0575b505050565b610bac610bd193610b87565b906020610bb884610a08565b83019310610bd9575b610bca90610a08565b0190610a94565b5f8080610b9b565b9150610bca81929050610bc1565b1c90565b90610bfb905f1990600802610be7565b191690565b81610c0a91610beb565b906002021790565b91610c1d9082610b83565b9067ffffffffffffffff8211610cdc57610c4182610c3b85546109d5565b85610b90565b5f90601f8311600114610c7457918091610c63935f92610c68575b5050610c00565b90555b565b90915001355f80610c5c565b601f19831691610c8385610b87565b925f5b818110610cc457509160029391856001969410610caa575b50505002019055610c66565b610cba910135601f841690610beb565b90555f8080610c9e565b91936020600181928787013581550195019201610c86565b610365565b90610cec9291610c12565b565b90610cfa5f199161082f565b9181191691161790565b90610d19610d14610d2092610a3b565b610a57565b8254610cee565b9055565b610d2e60606103a2565b90565b90610d3b90610184565b9052565b90610d49906101aa565b9052565b610d579051610184565b90565b610d6390610184565b90565b610d6f906106c0565b90565b90610d87610d82610d8e92610d5a565b610d66565b8254610cee565b9055565b610d9c90516101aa565b90565b90610dab60ff9161082f565b9181191691161790565b610dc9610dc4610dce926101aa565b61071b565b6101aa565b90565b90565b90610de9610de4610df092610db5565b610dd1565b8254610d9f565b9055565b90610e3860406002610e3e94610e175f8201610e115f8801610d4d565b90610d72565b610e3060018201610e2a60208801610d4d565b90610d72565b019201610d92565b90610dd4565b565b90610e4a91610df4565b565b60209181520190565b905f9291805490610e6f610e68836109d5565b8094610e4c565b916001811690815f14610ec65750600114610e8a575b505050565b610e979192939450610b87565b915f925b818410610eae57505001905f8080610e85565b60018160209295939554848601520191019290610e9b565b92949550505060ff19168252151560200201905f8080610e85565b610ef69160208201915f818403910152610e55565b90565b92610f52600398600198610f4a610f829996610f41610f7999610f7098610f2b8f610f2690888a9161099d565b6109ab565b9e8f92610f395f8501610b78565b919201610ce1565b60028c01610d04565b8a8a01610ce1565b93610f67610f5e610d24565b955f8701610d31565b60208501610d31565b60408301610d3f565b60048301610e40565b01610fb97f654d76f61e4e7047f6181124017f2f814cd81e4b075b0ef23e6bc07d12dcffb291610fb0610092565b91829182610ee1565b0390a1565b90610fce97969594939291610912565b565b5f90565b610ff9610ff092602092610fe7816104cf565b9485809361092c565b938491016104dc565b0190565b61100d6110149160209493610fd4565b809261094f565b0190565b61102c611023610092565b92839283610ffd565b03902090565b61103b91611018565b90565b90565b61104d611052916106c0565b61103e565b90565b61105f9054611041565b90565b905f929180549061107c611075836109d5565b80946104d3565b916001811690815f146110d35750600114611097575b505050565b6110a49192939450610b87565b915f925b8184106110bb57505001905f8080611092565b600181602092959395548486015201910192906110a8565b92949550505060ff19168252151560200201905f8080611092565b906110f891611062565b90565b9061111b6111149261110b610092565b938480926110ee565b0383610379565b565b611126906110fb565b90565b5f7f19457468657265756d205369676e6564204d6573736167653a0a333200000000910152565b61115c601c809261092c565b61116581611129565b0190565b90565b61117861117d91610184565b611169565b9052565b90611197611190602093611150565b809261116c565b0190565b60200190565b5190565b60ff1690565b6111b76111bc916106c0565b6111a5565b90565b6111c990546111ab565b90565b90565b6111db6111e0916106c0565b6111cc565b90565b6111ed90546111cf565b90565b6111f990610184565b9052565b611206906101aa565b9052565b61123f6112469461123560609498979561122b608086019a5f8701906111f0565b60208501906111fd565b60408301906111f0565b01906111f0565b565b611250610092565b3d5f823e3d90fd5b905f929180549061127261126b836109d5565b809461092c565b916001811690815f146112c4575060011461128d575b505050565b61129a9192939450610b87565b5f905b8382106112b057505001905f8080611288565b60018160209254848601520191019061129d565b92949550505060ff191682528015150201905f8080611288565b6112e791611258565b90565b6bffffffffffffffffffffffff191690565b611305906112ea565b90565b60601c90565b61131a61131f91611308565b61084f565b90565b61132b9061130e565b90565b61134561134a9161133d610fd0565b506001611032565b6109ab565b60205f6113a36113b1611390838601600187019061136a60028901611055565b9061138a61138461137e60038c019361111d565b9461111d565b9161111d565b926114ba565b611398610092565b928391868301611181565b858201810382520382610379565b6113c36113bd826111a1565b9161119b565b206113d3600260048601016111bf565b906114066113e58460048801016111e3565b6113f4600160048901016111e3565b906113fd610092565b9485948561120a565b838052039060015afa156114825761147e61147861147361146e6114476114565f611431815161082f565b970161143b610092565b928391602083016112de565b60208201810382520382610379565b611468611462826111a1565b9161119b565b206112fc565b611322565b6102f4565b916102f4565b1490565b611248565b5f90565b6114a96020936114a36114b0936114b7989795610fd4565b90610fd4565b809261094f565b0190610fd4565b90565b6114f192936114e2916114cb611487565b5092946114d6610092565b9586946020860161148b565b60208201810382520382610379565b6115036114fd826111a1565b9161119b565b2090565b61151160a06103a2565b90565b606090565b5f90565b61152760606103a2565b90565b5f90565b5f90565b61153a61151d565b90602080808461154861152a565b81520161155361152a565b81520161155e61152e565b81525050565b61156c611532565b90565b611577611507565b9060208080808086611587611514565b815201611592611514565b81520161159d611519565b8152016115a8611514565b8152016115b3611564565b81525050565b6115c161156f565b90565b52565b906115d19061015e565b9052565b9061162461161b60026115e661151d565b946115fd6115f55f83016111e3565b5f8801610d31565b61161561160c600183016111e3565b60208801610d31565b016111bf565b60408401610d3f565b565b52565b906116a861169f600461163a611507565b946116516116495f83016110fb565b5f88016115c4565b611669611660600183016110fb565b602088016115c4565b61168161167860028301611055565b604088016115c7565b611699611690600383016110fb565b606088016115c4565b016115d5565b60808401611626565b565b6116b390611629565b90565b6116d1906116d6926116c66115b9565b50600191909161099d565b6116aa565b90565b906116eb916116e6610763565b6119a2565b565b90611700905f1990602003600802610be7565b8154169055565b905f9161171e61171682610b87565b928354610c00565b905555565b919290602082105f1461177c57601f841160011461174c57611746929350610c00565b90555b5b565b509061177261177793600161176961176385610b87565b92610a08565b82019101610a94565b611707565b611749565b506117b3829361178d600194610b87565b6117ac61179985610a08565b820192601f8616806117be575b50610a08565b0190610a94565b60020217905561174a565b6117ca908886036116ed565b5f6117a6565b929091680100000000000000008211611830576020115f1461182157602081105f14611805576117ff91610c00565b90555b5b565b60019160ff191661181584610b87565b55600202019055611802565b60019150600202019055611803565b610365565b908154611841816109d5565b9081831161186a575b818310611858575b50505050565b61186193611723565b5f808080611852565b611876838383876117d0565b61184a565b5f61188591611835565b565b905f03611899576118979061187b565b565b6109ae565b91906118b46118af6118bc93610d5a565b610d66565b908354610a16565b9055565b6118d2916118cc611487565b9161189e565b565b60025f916118e4838083016118c0565b6118f183600183016118c0565b0155565b905f0361190757611905906118d4565b565b6109ae565b5f600461194c9261191f83808301611887565b61192c8360018301611887565b6119398360028301610a80565b6119468360038301611887565b016118f5565b565b905f036119605761195e9061190c565b565b6109ae565b919061197f816119788161198495610e4c565b80956103da565b61035b565b0190565b909161199f9260208301925f818503910152611965565b90565b6119b85f6119b3600184869161099d565b61194e565b907ff73018c7f397f59e4dfbab5fc1e381788eac8b63cb77e818c984c4e18313b434916119ef6119e6610092565b92839283611988565b0390a1565b906119fe916116d9565b56fea26469706673582212203d809551058782b3f9ca7e4c136d26e494d80aad516f311bed1c8dcdb686189564736f6c63430008150033",
  "immutableReferences": {},
  "source": "// SPDX-License-Identifier: MIT\r\npragma solidity ^0.8.0;\r\n\r\nimport \"@openzeppelin/contracts/access/Ownable.sol\";\r\nimport \"@openzeppelin/contracts/utils/Strings.sol\";\r\n\r\ncontract OwnershipVCRegistry is Ownable{\r\n\r\n    struct Proof{\r\n        bytes32 r;\r\n        bytes32 s;\r\n        uint8 v;\r\n    }\r\n\r\n    struct Credential{\r\n        string issuer;\r\n        string subject;\r\n        uint256 issuanceDate;\r\n        string value; //  DID \r\n        Proof proof;\r\n    }\r\n\r\n    mapping( string => Credential) credentials;\r\n    constructor() Ownable(msg.sender) {}\r\n\r\n    event VCcreated(string id);\r\n    event VCdeleted(string id);\r\n\r\n    function getMessageHash(\r\n        string memory _issuer, string memory _subject, uint256 _issuanceDate, string memory  _value\r\n    ) private pure returns (bytes32){\r\n        return keccak256(abi.encodePacked(_issuer, _subject, _issuanceDate,_value));\r\n    }\r\n\r\n    function claimCredential(\r\n        string calldata _subject, uint256 _issuanceDate, bytes32 _r, bytes32 _s, uint8 _v,string calldata _value\r\n        ) external onlyOwner{\r\n\r\n        Credential storage newCredential = credentials[_value];\r\n        newCredential.issuer=\"did:klay:0xb5496deda0d1aa1f7ba39d0217642bcd74ae6cd4\"; // DID\r\n        newCredential.subject=_subject;\r\n        newCredential.issuanceDate=_issuanceDate;\r\n        newCredential.value=_value;\r\n        newCredential.proof=Proof(_r,_s,_v);\r\n\r\n        emit VCcreated(newCredential.value);\r\n    }\r\n\r\n    function verifyCredential(string memory _id) public view returns (bool) {\r\n        Credential storage vc = credentials[_id];\r\n        bytes32 messageHash = getMessageHash(vc.issuer, vc.subject, vc.issuanceDate, vc.value);\r\n        bytes32 ethSignedMessageHash = keccak256(\r\n            abi.encodePacked(\"\\x19Ethereum Signed Message:\\n32\", messageHash)\r\n        );\r\n\r\n        // ecrecover    \r\n        address recoveredSigner = ecrecover(ethSignedMessageHash, vc.proof.v, vc.proof.r, vc.proof.s);\r\n        return (recoveredSigner == address(bytes20(keccak256(abi.encodePacked(vc.issuer)))));\r\n    }\r\n\r\n    function getVC(string calldata id) external view returns (Credential memory) {\r\n        return credentials[id];\r\n    }\r\n\r\n    function deleteVC(string calldata id) external onlyOwner {\r\n        delete credentials[id];\r\n        emit VCdeleted(id);\r\n    }\r\n\r\n}",
  "sourcePath": "C:\\Users\\SSAFY\\Desktop\\S10P31C203\\blockchain\\contracts\\OwnershipVCRegistry.sol",
  "compiler": {
    "name": "solc",
    "version": "0.8.21+commit.d9974bed.Emscripten.clang"
  },
  "schemaVersion": "3.4.16",
  "updatedAt": "2024-05-14T08:09:25.737Z",
  "devdoc": {
    "errors": {
      "OwnableInvalidOwner(address)": [
        {
          "details": "The owner is not a valid owner account. (eg. `address(0)`)"
        }
      ],
      "OwnableUnauthorizedAccount(address)": [
        {
          "details": "The caller account is not authorized to perform an operation."
        }
      ]
    },
    "kind": "dev",
    "methods": {
      "owner()": {
        "details": "Returns the address of the current owner."
      },
      "renounceOwnership()": {
        "details": "Leaves the contract without owner. It will not be possible to call `onlyOwner` functions. Can only be called by the current owner. NOTE: Renouncing ownership will leave the contract without an owner, thereby disabling any functionality that is only available to the owner."
      },
      "transferOwnership(address)": {
        "details": "Transfers ownership of the contract to a new account (`newOwner`). Can only be called by the current owner."
      }
    },
    "version": 1
  },
  "userdoc": {
    "kind": "user",
    "methods": {},
    "version": 1
  }
}