{
  "contractName": "OwnershipVCRegistry",
  "abi": [
    {
      "inputs": [],
      "stateMutability": "nonpayable",
      "type": "constructor"
    },
    {
      "inputs": [
        {
          "internalType": "address",
          "name": "owner",
          "type": "address"
        }
      ],
      "name": "OwnableInvalidOwner",
      "type": "error"
    },
    {
      "inputs": [
        {
          "internalType": "address",
          "name": "account",
          "type": "address"
        }
      ],
      "name": "OwnableUnauthorizedAccount",
      "type": "error"
    },
    {
      "anonymous": false,
      "inputs": [
        {
          "indexed": true,
          "internalType": "address",
          "name": "previousOwner",
          "type": "address"
        },
        {
          "indexed": true,
          "internalType": "address",
          "name": "newOwner",
          "type": "address"
        }
      ],
      "name": "OwnershipTransferred",
      "type": "event"
    },
    {
      "anonymous": false,
      "inputs": [
        {
          "indexed": false,
          "internalType": "string",
          "name": "id",
          "type": "string"
        }
      ],
      "name": "VCcreated",
      "type": "event"
    },
    {
      "anonymous": false,
      "inputs": [
        {
          "indexed": false,
          "internalType": "string",
          "name": "id",
          "type": "string"
        }
      ],
      "name": "VCdeleted",
      "type": "event"
    },
    {
      "inputs": [],
      "name": "owner",
      "outputs": [
        {
          "internalType": "address",
          "name": "",
          "type": "address"
        }
      ],
      "stateMutability": "view",
      "type": "function"
    },
    {
      "inputs": [],
      "name": "renounceOwnership",
      "outputs": [],
      "stateMutability": "nonpayable",
      "type": "function"
    },
    {
      "inputs": [
        {
          "internalType": "address",
          "name": "newOwner",
          "type": "address"
        }
      ],
      "name": "transferOwnership",
      "outputs": [],
      "stateMutability": "nonpayable",
      "type": "function"
    },
    {
      "inputs": [
        {
          "internalType": "string",
          "name": "_subject",
          "type": "string"
        },
        {
          "internalType": "uint256",
          "name": "_issuanceDate",
          "type": "uint256"
        },
        {
          "internalType": "bytes32",
          "name": "_r",
          "type": "bytes32"
        },
        {
          "internalType": "bytes32",
          "name": "_s",
          "type": "bytes32"
        },
        {
          "internalType": "uint8",
          "name": "_v",
          "type": "uint8"
        },
        {
          "internalType": "string",
          "name": "_value",
          "type": "string"
        }
      ],
      "name": "claimCredential",
      "outputs": [],
      "stateMutability": "nonpayable",
      "type": "function"
    },
    {
      "inputs": [
        {
          "internalType": "string",
          "name": "_id",
          "type": "string"
        }
      ],
      "name": "verifyCredential",
      "outputs": [
        {
          "internalType": "bool",
          "name": "",
          "type": "bool"
        }
      ],
      "stateMutability": "view",
      "type": "function"
    },
    {
      "inputs": [
        {
          "internalType": "string",
          "name": "id",
          "type": "string"
        }
      ],
      "name": "getVC",
      "outputs": [
        {
          "components": [
            {
              "internalType": "string",
              "name": "issuer",
              "type": "string"
            },
            {
              "internalType": "string",
              "name": "subject",
              "type": "string"
            },
            {
              "internalType": "uint256",
              "name": "issuanceDate",
              "type": "uint256"
            },
            {
              "internalType": "string",
              "name": "value",
              "type": "string"
            },
            {
              "components": [
                {
                  "internalType": "bytes32",
                  "name": "r",
                  "type": "bytes32"
                },
                {
                  "internalType": "bytes32",
                  "name": "s",
                  "type": "bytes32"
                },
                {
                  "internalType": "uint8",
                  "name": "v",
                  "type": "uint8"
                }
              ],
              "internalType": "struct OwnershipVCRegistry.Proof",
              "name": "proof",
              "type": "tuple"
            }
          ],
          "internalType": "struct OwnershipVCRegistry.Credential",
          "name": "",
          "type": "tuple"
        }
      ],
      "stateMutability": "view",
      "type": "function"
    },
    {
      "inputs": [
        {
          "internalType": "string",
          "name": "id",
          "type": "string"
        }
      ],
      "name": "deleteVC",
      "outputs": [],
      "stateMutability": "nonpayable",
      "type": "function"
    },
    {
      "inputs": [
        {
          "internalType": "string",
          "name": "_userDID",
          "type": "string"
        }
      ],
      "name": "getAllVCofUser",
      "outputs": [
        {
          "internalType": "string[]",
          "name": "",
          "type": "string[]"
        }
      ],
      "stateMutability": "view",
      "type": "function"
    }
  ],
  "bytecode": "0x6080604052346200002d57620000146200003d565b6200001e62000033565b611f8a620002588239611f8a90f35b62000039565b60405190565b5f80fd5b6200004833620000bf565b565b90565b60018060a01b031690565b90565b620000746200006e6200007a926200004a565b62000058565b6200004d565b90565b62000088906200005b565b90565b62000096906200004d565b90565b620000a4906200008b565b9052565b9190620000bd905f6020850194019062000099565b565b80620000e0620000d9620000d35f6200007d565b6200008b565b916200008b565b14620000f357620000f190620001ec565b565b62000123620001025f6200007d565b6200010c62000033565b918291631e4fbdf760e01b835260048301620000a8565b0390fd5b5f1c90565b60018060a01b031690565b620001466200014c9162000127565b6200012c565b90565b6200015b905462000137565b90565b5f1b90565b906200017660018060a01b03916200015e565b9181191691161790565b62000199620001936200019f926200004d565b62000058565b6200004d565b90565b620001ad9062000180565b90565b620001bb90620001a2565b90565b90565b90620001db620001d5620001e392620001b0565b620001be565b825462000163565b9055565b5f0190565b620001f75f6200014f565b62000203825f620001c1565b906200023b620002347f8be0079c531659141344cd1fd0a4f28419497f9722a3daafe3b4186f6b6457e093620001b0565b91620001b0565b916200024662000033565b806200025281620001e7565b0390a356fe60806040526004361015610013575b6107a3565b61001d5f3561009c565b80630289a8fe146100975780632bca572c14610092578063715018a61461008d5780638da5cb5b14610088578063bb3670ab14610083578063d905515a1461007e578063f2fde38b146100795763f402efa80361000e5761076d565b610695565b61061e565b6104aa565b610332565b6102c6565b61027a565b61013a565b60e01c90565b60405190565b5f80fd5b5f80fd5b5f80fd5b5f80fd5b5f80fd5b5f80fd5b909182601f830112156100fa5781359167ffffffffffffffff83116100f55760200192600183028401116100f057565b6100bc565b6100b8565b6100b4565b90602082820312610130575f82013567ffffffffffffffff811161012b5761012792016100c0565b9091565b6100b0565b6100ac565b5f0190565b346101695761015361014d3660046100ff565b90611e85565b61015b6100a2565b8061016581610135565b0390f35b6100a8565b90565b61017a8161016e565b0361018157565b5f80fd5b9050359061019282610171565b565b90565b6101a081610194565b036101a757565b5f80fd5b905035906101b882610197565b565b60ff1690565b6101c9816101ba565b036101d057565b5f80fd5b905035906101e1826101c0565b565b919060c083820312610275575f83013567ffffffffffffffff8111610270578161020e9185016100c0565b92909361021e8360208301610185565b9261022c81604084016101ab565b9261023a82606085016101ab565b9261024883608083016101d4565b9260a082013567ffffffffffffffff811161026b5761026792016100c0565b9091565b6100b0565b6100b0565b6100ac565b346102b25761029c61028d3660046101e3565b96959095949194939293611180565b6102a46100a2565b806102ae81610135565b0390f35b6100a8565b5f9103126102c157565b6100ac565b346102f4576102d63660046102b7565b6102de610844565b6102e66100a2565b806102f081610135565b0390f35b6100a8565b60018060a01b031690565b61030d906102f9565b90565b61031990610304565b9052565b9190610330905f60208501940190610310565b565b34610362576103423660046102b7565b61035e61034d6107dc565b6103556100a2565b9182918261031d565b0390f35b6100a8565b5f80fd5b601f801991011690565b634e487b7160e01b5f52604160045260245ffd5b906103939061036b565b810190811067ffffffffffffffff8211176103ad57604052565b610375565b906103c56103be6100a2565b9283610389565b565b67ffffffffffffffff81116103e5576103e160209161036b565b0190565b610375565b90825f939282370152565b9092919261040a610405826103c7565b6103b2565b9381855260208501908284011161042657610424926103ea565b565b610367565b9080601f8301121561044957816020610446933591016103f5565b90565b6100b4565b9060208282031261047e575f82013567ffffffffffffffff811161047957610476920161042b565b90565b6100b0565b6100ac565b151590565b61049190610483565b9052565b91906104a8905f60208501940190610488565b565b346104da576104d66104c56104c036600461044e565b61141a565b6104cd6100a2565b91829182610495565b0390f35b6100a8565b5190565b60209181520190565b5f5b8381106104fe575050905f910152565b8060209183015181850152016104ee565b61052e61053760209361053c93610525816104df565b938480936104e3565b958691016104ec565b61036b565b0190565b6105499061016e565b9052565b61055690610194565b9052565b610563906101ba565b9052565b9060408061059b9361057f5f8201515f86019061054d565b6105916020820151602086019061054d565b015191019061055a565b565b90610603906080806105f86105d46105c260e086015f8901518782035f89015261050f565b6020880151868203602088015261050f565b6105e660408801516040870190610540565b6060870151858203606087015261050f565b940151910190610567565b90565b61061b9160208201915f81840391015261059d565b90565b3461064f5761064b61063a6106343660046100ff565b90611741565b6106426100a2565b91829182610606565b0390f35b6100a8565b61065d81610304565b0361066457565b5f80fd5b9050359061067582610654565b565b906020828203126106905761068d915f01610668565b90565b6100ac565b346106c3576106ad6106a8366004610677565b61090f565b6106b56100a2565b806106bf81610135565b0390f35b6100a8565b5190565b60209181520190565b60200190565b906106e59161050f565b90565b60200190565b906107026106fb836106c8565b80926106cc565b9081610713602083028401946106d5565b925f915b83831061072657505050505090565b90919293946020610748610742838560019503875289516106db565b976106e8565b9301930191939290610717565b61076a9160208201915f8184039101526106ee565b90565b3461079e5761079a6107896107833660046100ff565b90611f31565b6107916100a2565b91829182610755565b0390f35b6100a8565b5f80fd5b5f90565b5f1c90565b60018060a01b031690565b6107c76107cc916107ab565b6107b0565b90565b6107d990546107bb565b90565b6107e46107a7565b506107ee5f6107cf565b90565b6107f961084e565b610801610831565b565b90565b90565b61081d61081861082292610803565b610806565b6102f9565b90565b61082e90610809565b90565b61084261083d5f610825565b610991565b565b61084c6107f1565b565b6108566107dc565b61086f6108696108646109f0565b610304565b91610304565b0361087657565b61089f6108816109f0565b6108896100a2565b91829163118cdaa760e01b83526004830161031d565b0390fd5b6108b4906108af61084e565b6108b6565b565b806108d16108cb6108c65f610825565b610304565b91610304565b146108e1576108df90610991565b565b61090b6108ed5f610825565b6108f56100a2565b918291631e4fbdf760e01b83526004830161031d565b0390fd5b610918906108a3565b565b5f1b90565b9061093060018060a01b039161091a565b9181191691161790565b61094e610949610953926102f9565b610806565b6102f9565b90565b61095f9061093a565b90565b61096b90610956565b90565b90565b9061098661098161098d92610962565b61096e565b825461091f565b9055565b61099a5f6107cf565b6109a4825f610971565b906109d86109d27f8be0079c531659141344cd1fd0a4f28419497f9722a3daafe3b4186f6b6457e093610962565b91610962565b916109e16100a2565b806109eb81610135565b0390a3565b6109f86107a7565b503390565b90610a1597969594939291610a1061084e565b61108b565b565b905090565b909182610a2c81610a3393610a17565b80936103ea565b0190565b90565b610a46610a4b9161016e565b610a37565b9052565b610a609060209493610a6793610a1c565b8092610a3a565b0190565b9091610a8290610a796100a2565b93849384610a4f565b03902090565b9091610a9392610a6b565b90565b90565b634e487b7160e01b5f525f60045260245ffd5b634e487b7160e01b5f52602260045260245ffd5b9060016002830492168015610ae0575b6020831014610adb57565b610aac565b91607f1691610ad0565b5f5260205f2090565b601f602091010490565b1b90565b91906008610b1c910291610b165f1984610afd565b92610afd565b9181191691161790565b610b3a610b35610b3f9261016e565b610806565b61016e565b90565b90565b9190610b5b610b56610b6393610b26565b610b42565b908354610b01565b9055565b5f90565b610b7d91610b77610b67565b91610b45565b565b5b818110610b8b575050565b80610b985f600193610b6b565b01610b80565b9190601f8111610bae575b505050565b610bba610bdf93610aea565b906020610bc684610af3565b83019310610be7575b610bd890610af3565b0190610b7f565b5f8080610ba9565b9150610bd881929050610bcf565b6001610c3a7f643032313736343262636437346165366364340000000000000000000000000092610c316033610c2b8354610ac0565b83610b9e565b60678155610aea565b7f6469643a6b6c61793a30786235343936646564613064316161316637626133395f8201550155565b610c6c90610bf5565b565b5090565b5f5260205f2090565b9190601f8111610c8b575b505050565b610c97610cbc93610c72565b906020610ca384610af3565b83019310610cc4575b610cb590610af3565b0190610b7f565b5f8080610c86565b9150610cb581929050610cac565b1c90565b90610ce6905f1990600802610cd2565b191690565b81610cf591610cd6565b906002021790565b91610d089082610c6e565b9067ffffffffffffffff8211610dc757610d2c82610d268554610ac0565b85610c7b565b5f90601f8311600114610d5f57918091610d4e935f92610d53575b5050610ceb565b90555b565b90915001355f80610d47565b601f19831691610d6e85610c72565b925f5b818110610daf57509160029391856001969410610d95575b50505002019055610d51565b610da5910135601f841690610cd6565b90555f8080610d89565b91936020600181928787013581550195019201610d71565b610375565b90610dd79291610cfd565b565b90610de55f199161091a565b9181191691161790565b90610e04610dff610e0b92610b26565b610b42565b8254610dd9565b9055565b610e1960606103b2565b90565b90610e2690610194565b9052565b90610e34906101ba565b9052565b610e429051610194565b90565b610e4e90610194565b90565b610e5a906107ab565b90565b90610e72610e6d610e7992610e45565b610e51565b8254610dd9565b9055565b610e8790516101ba565b90565b90610e9660ff9161091a565b9181191691161790565b610eb4610eaf610eb9926101ba565b610806565b6101ba565b90565b90565b90610ed4610ecf610edb92610ea0565b610ebc565b8254610e8a565b9055565b90610f2360406002610f2994610f025f8201610efc5f8801610e38565b90610e5d565b610f1b60018201610f1560208801610e38565b90610e5d565b019201610e7d565b90610ebf565b565b90610f3591610edf565b565b9091610f4292610a6b565b90565b90565b5f5260205f2090565b634e487b7160e01b5f52603260045260245ffd5b5490565b610f7281610f65565b821015610f8c57610f84600191610f48565b910201905f90565b610f51565b929190610fa357610fa192610cfd565b565b610a99565b919082549268010000000000000000841015610fd95783610fd1916001610fd796018155610f69565b90610f91565b565b610375565b60209181520190565b905f9291805490611001610ffa83610ac0565b8094610fde565b916001811690815f14611058575060011461101c575b505050565b6110299192939450610c72565b915f925b81841061104057505001905f8080611017565b6001816020929593955484860152019101929061102d565b92949550505060ff19168252151560200201905f8080611017565b6110889160208201915f818403910152610fe7565b90565b939196949092600187879061109f92610a88565b6110a890610a96565b97885f016110b590610c63565b85858a600101916110c592610dcc565b88600201906110d391610def565b868689600301916110e392610dcc565b916110ec610e0f565b925f8401906110fa91610e1c565b602083019061110891610e1c565b604082019061111691610e2a565b856004019061112491610f2b565b60029161113092610f37565b61113990610f45565b9161114392610fa8565b6003017f654d76f61e4e7047f6181124017f2f814cd81e4b075b0ef23e6bc07d12dcffb2906111706100a2565b61117b819282611073565b0390a1565b90611190979695949392916109fd565b565b5f90565b6111bb6111b2926020926111a9816104df565b94858093610a17565b938491016104ec565b0190565b6111cf6111d69160209493611196565b8092610a3a565b0190565b6111ee6111e56100a2565b928392836111bf565b03902090565b6111fd916111da565b90565b90565b61120f611214916107ab565b611200565b90565b6112219054611203565b90565b905f929180549061123e61123783610ac0565b80946104e3565b916001811690815f146112955750600114611259575b505050565b6112669192939450610c72565b915f925b81841061127d57505001905f8080611254565b6001816020929593955484860152019101929061126a565b92949550505060ff19168252151560200201905f8080611254565b906112ba91611224565b90565b906112dd6112d6926112cd6100a2565b938480926112b0565b0383610389565b565b6112e8906112bd565b90565b5f7f19457468657265756d205369676e6564204d6573736167653a0a333200000000910152565b61131e601c8092610a17565b611327816112eb565b0190565b90565b61133a61133f91610194565b61132b565b9052565b90611359611352602093611312565b809261132e565b0190565b60200190565b5190565b60ff1690565b61137961137e916107ab565b611367565b90565b61138b905461136d565b90565b90565b61139d6113a2916107ab565b61138e565b90565b6113af9054611391565b90565b6113bb90610194565b9052565b6113c8906101ba565b9052565b611401611408946113f76060949897956113ed608086019a5f8701906113b2565b60208501906113bf565b60408301906113b2565b01906113b2565b565b6114126100a2565b3d5f823e3d90fd5b5f61143961143460209361142c611192565b5060016111f4565b610a96565b61148161148f61146e6001840161145260028601611217565b61146861146260038801936112df565b926112df565b91611546565b6114766100a2565b928391878301611343565b868201810382520382610389565b6114a161149b82611363565b9161135d565b206114e36114b460026004850101611381565b926114d1600160046114c988828601016113a5565b9301016113a5565b906114da6100a2565b948594856113cc565b838052039060015afa15611518576114fb5f5161091a565b61151461150e6115096107dc565b610304565b91610304565b1490565b61140a565b5f90565b9161153c6115356115439594602094611196565b8092610a3a565b0190611196565b90565b9061156d61157c9261155661151d565b5091936115616100a2565b94859360208501611521565b60208201810382520382610389565b61158e61158882611363565b9161135d565b2090565b61159c60a06103b2565b90565b606090565b5f90565b6115b260606103b2565b90565b5f90565b5f90565b6115c56115a8565b9060208080846115d36115b5565b8152016115de6115b5565b8152016115e96115b9565b81525050565b6115f76115bd565b90565b611602611592565b906020808080808661161261159f565b81520161161d61159f565b8152016116286115a4565b81520161163361159f565b81520161163e6115ef565b81525050565b61164c6115fa565b90565b52565b9061165c9061016e565b9052565b906116af6116a660026116716115a8565b946116886116805f83016113a5565b5f8801610e1c565b6116a0611697600183016113a5565b60208801610e1c565b01611381565b60408401610e2a565b565b52565b9061173361172a60046116c5611592565b946116dc6116d45f83016112bd565b5f880161164f565b6116f46116eb600183016112bd565b6020880161164f565b61170c61170360028301611217565b60408801611652565b61172461171b600383016112bd565b6060880161164f565b01611660565b608084016116b1565b565b61173e906116b4565b90565b61175c9061176192611751611644565b506001919091610a88565b611735565b90565b906117769161177161084e565b611ce7565b565b905f929180549061179261178b83610ac0565b8094610a17565b916001811690815f146117e457506001146117ad575b505050565b6117ba9192939450610c72565b5f905b8382106117d057505001905f80806117a8565b6001816020925484860152019101906117bd565b92949550505060ff191682528015150201905f80806117a8565b61180e6118159160209493611778565b8092610a3a565b0190565b61182d6118246100a2565b928392836117fe565b03902090565b61183c91611819565b90565b61185361184e61185892610803565b610806565b61016e565b90565b634e487b7160e01b5f52601160045260245ffd5b6118789061016e565b5f1981146118865760010190565b61185b565b61189491611778565b90565b90916118a292610a1c565b90565b90565b6118bc6118b76118c1926118a5565b610806565b61016e565b90565b6118d36118d99193929361016e565b9261016e565b82039182116118e457565b61185b565b6118f39054610ac0565b90565b908082146119d557611907816118e9565b9067ffffffffffffffff82116119d05761192b826119258554610ac0565b85610c7b565b5f90601f831160011461195e5791809161194d935f92611952575b5050610ceb565b90555b565b90915001545f80611946565b9061196d601f19841692610c72565b9061197785610c72565b925f5b8181106119b85750916002939185600196941061199e575b50505002019055611950565b6119ae910154601f841690610cd6565b90555f8080611992565b9193600180602092878701548155019501920161197a565b610375565b5050565b91906119ea576119e8916118f6565b565b610a99565b634e487b7160e01b5f52603160045260245ffd5b90611a16905f1990602003600802610cd2565b8154169055565b905f91611a34611a2c82610c72565b928354610ceb565b905555565b919290602082105f14611a9257601f8411600114611a6257611a5c929350610ceb565b90555b5b565b5090611a88611a8d936001611a7f611a7985610c72565b92610af3565b82019101610b7f565b611a1d565b611a5f565b50611ac98293611aa3600194610c72565b611ac2611aaf85610af3565b820192601f861680611ad4575b50610af3565b0190610b7f565b600202179055611a60565b611ae090888603611a03565b5f611abc565b929091680100000000000000008211611b46576020115f14611b3757602081105f14611b1b57611b1591610ceb565b90555b5b565b60019160ff1916611b2b84610c72565b55600202019055611b18565b60019150600202019055611b19565b610375565b908154611b5781610ac0565b90818311611b80575b818310611b6e575b50505050565b611b7793611a39565b5f808080611b68565b611b8c83838387611ae6565b611b60565b5f611b9b91611b4b565b565b905f03611baf57611bad90611b91565b565b610a99565b611bbd81610f65565b8015611bde576001900390611bdb611bd58383610f69565b90611b9d565b55565b6119ef565b9190611bf9611bf4611c0193610e45565b610e51565b908354610b01565b9055565b611c1791611c1161151d565b91611be3565b565b60025f91611c2983808301611c05565b611c368360018301611c05565b0155565b905f03611c4c57611c4a90611c19565b565b610a99565b5f6004611c9192611c6483808301611b9d565b611c718360018301611b9d565b611c7e8360028301610b6b565b611c8b8360038301611b9d565b01611c3a565b565b905f03611ca557611ca390611c51565b565b610a99565b9190611cc481611cbd81611cc995610fde565b80956103ea565b61036b565b0190565b9091611ce49260208301925f818503910152611caa565b90565b919091611d0c611d0760026001611d0081868991610a88565b0190611833565b610f45565b90611d165f61183f565b5b80611d32611d2c611d2786610f65565b61016e565b9161016e565b1015611e2d57611ddf90611d62611d71611d4d868490610f69565b50611d566100a2565b9283916020830161188b565b60208201810382520382610389565b611d83611d7d82611363565b9161135d565b20611dd4611dce85611db68a91611da7611d9b6100a2565b93849260208401611897565b60208201810382520382610389565b611dc8611dc282611363565b9161135d565b20610194565b91610194565b14611de4575b61186f565b611d17565b611e1f611e0d85611e07611df788610f65565b611e0160016118a8565b906118c4565b90610f69565b50611e19868490610f69565b906119d9565b611e2884611bb4565b611dda565b509050919091611e495f611e446001848691610a88565b611c93565b907ff73018c7f397f59e4dfbab5fc1e381788eac8b63cb77e818c984c4e18313b43491611e80611e776100a2565b92839283611ccd565b0390a1565b90611e8f91611764565b565b606090565b5490565b67ffffffffffffffff8111611eb25760208091020190565b610375565b90611ec9611ec483611e9a565b6103b2565b918252565b5f5260205f2090565b90611ee182611e96565b611eea81611eb7565b92611ef86020850191611ece565b5f915b838310611f085750505050565b600160208192611f17856112df565b815201920192019190611efb565b611f2e90611ed7565b90565b611f4c90611f5192611f41611e91565b506002919091610f37565b611f25565b9056fea264697066735822122008e05189eb0ead3e8dea30f55ad9d7a750b219849757bd6ffefd440fe296015164736f6c63430008150033",
  "immutableReferences": {},
  "source": "// SPDX-License-Identifier: MIT\r\npragma solidity ^0.8.0;\r\n\r\nimport \"@openzeppelin/contracts/access/Ownable.sol\";\r\n\r\ncontract OwnershipVCRegistry is Ownable{\r\n\r\n    struct Proof{\r\n        bytes32 r;\r\n        bytes32 s;\r\n        uint8 v;\r\n    }\r\n\r\n    struct Credential{\r\n        string issuer;\r\n        string subject;\r\n        uint256 issuanceDate;\r\n        string value; //  DID\r\n        Proof proof;\r\n    }\r\n\r\n    mapping( string => Credential) credentials;\r\n    mapping( string => string[] ) CredentialsToUser;\r\n    constructor() Ownable(msg.sender) {} \r\n\r\n    event VCcreated(string id);\r\n    event VCdeleted(string id);\r\n\r\n    function getMessageHash(\r\n        string memory _subject, uint256 _issuanceDate, string memory  _value\r\n    ) private pure returns (bytes32){\r\n        return keccak256(abi.encodePacked(_subject, _issuanceDate,_value));\r\n    }\r\n\r\n    function claimCredential(\r\n        string calldata _subject, uint256 _issuanceDate, bytes32 _r, bytes32 _s, uint8 _v,string calldata _value\r\n        ) external onlyOwner{\r\n\r\n        Credential storage newCredential = credentials[_value];\r\n        newCredential.issuer=\"did:klay:0xb5496deda0d1aa1f7ba39d0217642bcd74ae6cd4\"; // DID\r\n        newCredential.subject=_subject;\r\n        newCredential.issuanceDate=_issuanceDate;\r\n        newCredential.value=_value;\r\n        newCredential.proof=Proof(_r,_s,_v);\r\n\r\n        CredentialsToUser[_subject].push(_value);\r\n\r\n        emit VCcreated(newCredential.value);\r\n    }\r\n    \r\n    function verifyCredential(string memory _id) public view returns (bool) {\r\n        Credential storage vc = credentials[_id];\r\n        bytes32 messageHash = getMessageHash(vc.subject, vc.issuanceDate, vc.value);\r\n        bytes32 ethSignedMessageHash = keccak256(\r\n            abi.encodePacked(\"\\x19Ethereum Signed Message:\\n32\", messageHash)\r\n        );\r\n\r\n        // ecrecover    \r\n        address recoveredSigner = ecrecover(ethSignedMessageHash, vc.proof.v, vc.proof.r, vc.proof.s);\r\n        return (recoveredSigner==owner());\r\n    }\r\n\r\n    function getVC(string calldata id) external view returns (Credential memory) {\r\n        return credentials[id];\r\n    }\r\n\r\n    function deleteVC(string calldata id) external onlyOwner {\r\n        string[] storage allCredentials = CredentialsToUser[credentials[id].subject];\r\n        for (uint256 i = 0; i < allCredentials.length; i++) {\r\n            if(keccak256(abi.encodePacked(allCredentials[i]))==keccak256(abi.encodePacked(id))){\r\n                allCredentials[i] = allCredentials[allCredentials.length - 1];\r\n                allCredentials.pop();\r\n            }\r\n        }\r\n        delete credentials[id];\r\n        emit VCdeleted(id);\r\n    }\r\n\r\n    function getAllVCofUser(string calldata _userDID) external view returns (string[] memory) {\r\n        return CredentialsToUser[_userDID];\r\n    }\r\n\r\n}",
  "sourcePath": "C:\\Users\\SSAFY\\Desktop\\S10P31C203\\blockchain\\contracts\\OwnershipVCRegistry.sol",
  "compiler": {
    "name": "solc",
    "version": "0.8.21+commit.d9974bed.Emscripten.clang"
  },
  "schemaVersion": "3.4.16",
  "updatedAt": "2024-05-17T06:44:13.097Z",
  "devdoc": {
    "errors": {
      "OwnableInvalidOwner(address)": [
        {
          "details": "The owner is not a valid owner account. (eg. `address(0)`)"
        }
      ],
      "OwnableUnauthorizedAccount(address)": [
        {
          "details": "The caller account is not authorized to perform an operation."
        }
      ]
    },
    "kind": "dev",
    "methods": {
      "owner()": {
        "details": "Returns the address of the current owner."
      },
      "renounceOwnership()": {
        "details": "Leaves the contract without owner. It will not be possible to call `onlyOwner` functions. Can only be called by the current owner. NOTE: Renouncing ownership will leave the contract without an owner, thereby disabling any functionality that is only available to the owner."
      },
      "transferOwnership(address)": {
        "details": "Transfers ownership of the contract to a new account (`newOwner`). Can only be called by the current owner."
      }
    },
    "version": 1
  },
  "userdoc": {
    "kind": "user",
    "methods": {},
    "version": 1
  }
}