{
  "contractName": "OwnershipVCRegistry",
  "abi": [
    {
      "inputs": [],
      "stateMutability": "nonpayable",
      "type": "constructor"
    },
    {
      "inputs": [
        {
          "internalType": "address",
          "name": "owner",
          "type": "address"
        }
      ],
      "name": "OwnableInvalidOwner",
      "type": "error"
    },
    {
      "inputs": [
        {
          "internalType": "address",
          "name": "account",
          "type": "address"
        }
      ],
      "name": "OwnableUnauthorizedAccount",
      "type": "error"
    },
    {
      "anonymous": false,
      "inputs": [
        {
          "indexed": true,
          "internalType": "address",
          "name": "previousOwner",
          "type": "address"
        },
        {
          "indexed": true,
          "internalType": "address",
          "name": "newOwner",
          "type": "address"
        }
      ],
      "name": "OwnershipTransferred",
      "type": "event"
    },
    {
      "anonymous": false,
      "inputs": [
        {
          "indexed": false,
          "internalType": "string",
          "name": "id",
          "type": "string"
        }
      ],
      "name": "VCcreated",
      "type": "event"
    },
    {
      "anonymous": false,
      "inputs": [
        {
          "indexed": false,
          "internalType": "string",
          "name": "id",
          "type": "string"
        }
      ],
      "name": "VCdeleted",
      "type": "event"
    },
    {
      "inputs": [],
      "name": "owner",
      "outputs": [
        {
          "internalType": "address",
          "name": "",
          "type": "address"
        }
      ],
      "stateMutability": "view",
      "type": "function"
    },
    {
      "inputs": [],
      "name": "renounceOwnership",
      "outputs": [],
      "stateMutability": "nonpayable",
      "type": "function"
    },
    {
      "inputs": [
        {
          "internalType": "address",
          "name": "newOwner",
          "type": "address"
        }
      ],
      "name": "transferOwnership",
      "outputs": [],
      "stateMutability": "nonpayable",
      "type": "function"
    },
    {
      "inputs": [
        {
          "internalType": "string",
          "name": "_subject",
          "type": "string"
        },
        {
          "internalType": "uint256",
          "name": "_issuanceDate",
          "type": "uint256"
        },
        {
          "internalType": "bytes32",
          "name": "_r",
          "type": "bytes32"
        },
        {
          "internalType": "bytes32",
          "name": "_s",
          "type": "bytes32"
        },
        {
          "internalType": "uint8",
          "name": "_v",
          "type": "uint8"
        },
        {
          "internalType": "string",
          "name": "_value",
          "type": "string"
        }
      ],
      "name": "claimCredential",
      "outputs": [],
      "stateMutability": "nonpayable",
      "type": "function"
    },
    {
      "inputs": [
        {
          "internalType": "string",
          "name": "_id",
          "type": "string"
        }
      ],
      "name": "verifyCredential",
      "outputs": [
        {
          "internalType": "bool",
          "name": "",
          "type": "bool"
        }
      ],
      "stateMutability": "view",
      "type": "function"
    },
    {
      "inputs": [
        {
          "internalType": "string",
          "name": "id",
          "type": "string"
        }
      ],
      "name": "getVC",
      "outputs": [
        {
          "components": [
            {
              "internalType": "string",
              "name": "issuer",
              "type": "string"
            },
            {
              "internalType": "string",
              "name": "subject",
              "type": "string"
            },
            {
              "internalType": "uint256",
              "name": "issuanceDate",
              "type": "uint256"
            },
            {
              "internalType": "string",
              "name": "value",
              "type": "string"
            },
            {
              "components": [
                {
                  "internalType": "bytes32",
                  "name": "r",
                  "type": "bytes32"
                },
                {
                  "internalType": "bytes32",
                  "name": "s",
                  "type": "bytes32"
                },
                {
                  "internalType": "uint8",
                  "name": "v",
                  "type": "uint8"
                }
              ],
              "internalType": "struct OwnershipVCRegistry.Proof",
              "name": "proof",
              "type": "tuple"
            }
          ],
          "internalType": "struct OwnershipVCRegistry.Credential",
          "name": "",
          "type": "tuple"
        }
      ],
      "stateMutability": "view",
      "type": "function"
    },
    {
      "inputs": [
        {
          "internalType": "string",
          "name": "id",
          "type": "string"
        }
      ],
      "name": "deleteVC",
      "outputs": [],
      "stateMutability": "nonpayable",
      "type": "function"
    }
  ],
  "bytecode": "0x608060405234801562000010575f80fd5b50335f73ffffffffffffffffffffffffffffffffffffffff168173ffffffffffffffffffffffffffffffffffffffff160362000085575f6040517f1e4fbdf70000000000000000000000000000000000000000000000000000000081526004016200007c9190620001a1565b60405180910390fd5b62000096816200009d60201b60201c565b50620001bc565b5f805f9054906101000a900473ffffffffffffffffffffffffffffffffffffffff169050815f806101000a81548173ffffffffffffffffffffffffffffffffffffffff021916908373ffffffffffffffffffffffffffffffffffffffff1602179055508173ffffffffffffffffffffffffffffffffffffffff168173ffffffffffffffffffffffffffffffffffffffff167f8be0079c531659141344cd1fd0a4f28419497f9722a3daafe3b4186f6b6457e060405160405180910390a35050565b5f73ffffffffffffffffffffffffffffffffffffffff82169050919050565b5f62000189826200015e565b9050919050565b6200019b816200017d565b82525050565b5f602082019050620001b65f83018462000190565b92915050565b6118c280620001ca5f395ff3fe608060405234801561000f575f80fd5b506004361061007b575f3560e01c80638da5cb5b116100595780638da5cb5b146100c1578063bb3670ab146100df578063d905515a1461010f578063f2fde38b1461013f5761007b565b80630289a8fe1461007f5780632bca572c1461009b578063715018a6146100b7575b5f80fd5b61009960048036038101906100949190610baf565b61015b565b005b6100b560048036038101906100b09190610c96565b61021d565b005b6100bf61033e565b005b6100c9610351565b6040516100d69190610d9f565b60405180910390f35b6100f960048036038101906100f49190610ef0565b610378565b6040516101069190610f51565b60405180910390f35b61012960048036038101906101249190610baf565b610648565b60405161013691906110d2565b60405180910390f35b6101596004803603810190610154919061111c565b61087f565b005b610163610903565b60018282604051610175929190611175565b90815260200160405180910390205f8082015f6101929190610a8a565b600182015f6101a19190610a8a565b600282015f9055600382015f6101b79190610a8a565b600482015f8082015f9055600182015f9055600282015f6101000a81549060ff0219169055505050507ff73018c7f397f59e4dfbab5fc1e381788eac8b63cb77e818c984c4e18313b43482826040516102119291906111c9565b60405180910390a15050565b610225610903565b5f60018383604051610238929190611175565b9081526020016040518091039020905060405180606001604052806033815260200161185a60339139815f01908161027091906113e5565b5088888260010191826102849291906114be565b5086816002018190555082828260030191826102a19291906114be565b5060405180606001604052808781526020018681526020018560ff16815250816004015f820151815f0155602082015181600101556040820151816002015f6101000a81548160ff021916908360ff1602179055509050507f654d76f61e4e7047f6181124017f2f814cd81e4b075b0ef23e6bc07d12dcffb28160030160405161032b919061160c565b60405180910390a1505050505050505050565b610346610903565b61034f5f61098a565b565b5f805f9054906101000a900473ffffffffffffffffffffffffffffffffffffffff16905090565b5f8060018360405161038a919061165c565b908152602001604051809103902090505f610548825f0180546103ac90611218565b80601f01602080910402602001604051908101604052809291908181526020018280546103d890611218565b80156104235780601f106103fa57610100808354040283529160200191610423565b820191905f5260205f20905b81548152906001019060200180831161040657829003601f168201915b505050505083600101805461043790611218565b80601f016020809104026020016040519081016040528092919081815260200182805461046390611218565b80156104ae5780601f10610485576101008083540402835291602001916104ae565b820191905f5260205f20905b81548152906001019060200180831161049157829003601f168201915b505050505084600201548560030180546104c790611218565b80601f01602080910402602001604051908101604052809291908181526020018280546104f390611218565b801561053e5780601f106105155761010080835404028352916020019161053e565b820191905f5260205f20905b81548152906001019060200180831161052157829003601f168201915b5050505050610a4b565b90505f8160405160200161055c91906116dc565b6040516020818303038152906040528051906020012090505f600182856004016002015f9054906101000a900460ff16866004015f015487600401600101546040515f81526020016040526040516105b7949392919061171f565b6020604051602081039080840390855afa1580156105d7573d5f803e3d5ffd5b505050602060405103519050835f016040516020016105f691906117e2565b6040516020818303038152906040528051906020012060601c73ffffffffffffffffffffffffffffffffffffffff168173ffffffffffffffffffffffffffffffffffffffff1614945050505050919050565b610650610ac7565b60018383604051610662929190611175565b90815260200160405180910390206040518060a00160405290815f8201805461068a90611218565b80601f01602080910402602001604051908101604052809291908181526020018280546106b690611218565b80156107015780601f106106d857610100808354040283529160200191610701565b820191905f5260205f20905b8154815290600101906020018083116106e457829003601f168201915b5050505050815260200160018201805461071a90611218565b80601f016020809104026020016040519081016040528092919081815260200182805461074690611218565b80156107915780601f1061076857610100808354040283529160200191610791565b820191905f5260205f20905b81548152906001019060200180831161077457829003601f168201915b50505050508152602001600282015481526020016003820180546107b490611218565b80601f01602080910402602001604051908101604052809291908181526020018280546107e090611218565b801561082b5780601f106108025761010080835404028352916020019161082b565b820191905f5260205f20905b81548152906001019060200180831161080e57829003601f168201915b50505050508152602001600482016040518060600160405290815f820154815260200160018201548152602001600282015f9054906101000a900460ff1660ff1660ff168152505081525050905092915050565b610887610903565b5f73ffffffffffffffffffffffffffffffffffffffff168173ffffffffffffffffffffffffffffffffffffffff16036108f7575f6040517f1e4fbdf70000000000000000000000000000000000000000000000000000000081526004016108ee9190610d9f565b60405180910390fd5b6109008161098a565b50565b61090b610a83565b73ffffffffffffffffffffffffffffffffffffffff16610929610351565b73ffffffffffffffffffffffffffffffffffffffff16146109885761094c610a83565b6040517f118cdaa700000000000000000000000000000000000000000000000000000000815260040161097f9190610d9f565b60405180910390fd5b565b5f805f9054906101000a900473ffffffffffffffffffffffffffffffffffffffff169050815f806101000a81548173ffffffffffffffffffffffffffffffffffffffff021916908373ffffffffffffffffffffffffffffffffffffffff1602179055508173ffffffffffffffffffffffffffffffffffffffff168173ffffffffffffffffffffffffffffffffffffffff167f8be0079c531659141344cd1fd0a4f28419497f9722a3daafe3b4186f6b6457e060405160405180910390a35050565b5f84848484604051602001610a639493929190611818565b604051602081830303815290604052805190602001209050949350505050565b5f33905090565b508054610a9690611218565b5f825580601f10610aa75750610ac4565b601f0160209004905f5260205f2090810190610ac39190610afb565b5b50565b6040518060a0016040528060608152602001606081526020015f815260200160608152602001610af5610b16565b81525090565b5b80821115610b12575f815f905550600101610afc565b5090565b60405180606001604052805f80191681526020015f80191681526020015f60ff1681525090565b5f604051905090565b5f80fd5b5f80fd5b5f80fd5b5f80fd5b5f80fd5b5f8083601f840112610b6f57610b6e610b4e565b5b8235905067ffffffffffffffff811115610b8c57610b8b610b52565b5b602083019150836001820283011115610ba857610ba7610b56565b5b9250929050565b5f8060208385031215610bc557610bc4610b46565b5b5f83013567ffffffffffffffff811115610be257610be1610b4a565b5b610bee85828601610b5a565b92509250509250929050565b5f819050919050565b610c0c81610bfa565b8114610c16575f80fd5b50565b5f81359050610c2781610c03565b92915050565b5f819050919050565b610c3f81610c2d565b8114610c49575f80fd5b50565b5f81359050610c5a81610c36565b92915050565b5f60ff82169050919050565b610c7581610c60565b8114610c7f575f80fd5b50565b5f81359050610c9081610c6c565b92915050565b5f805f805f805f8060c0898b031215610cb257610cb1610b46565b5b5f89013567ffffffffffffffff811115610ccf57610cce610b4a565b5b610cdb8b828c01610b5a565b98509850506020610cee8b828c01610c19565b9650506040610cff8b828c01610c4c565b9550506060610d108b828c01610c4c565b9450506080610d218b828c01610c82565b93505060a089013567ffffffffffffffff811115610d4257610d41610b4a565b5b610d4e8b828c01610b5a565b92509250509295985092959890939650565b5f73ffffffffffffffffffffffffffffffffffffffff82169050919050565b5f610d8982610d60565b9050919050565b610d9981610d7f565b82525050565b5f602082019050610db25f830184610d90565b92915050565b5f80fd5b5f601f19601f8301169050919050565b7f4e487b71000000000000000000000000000000000000000000000000000000005f52604160045260245ffd5b610e0282610dbc565b810181811067ffffffffffffffff82111715610e2157610e20610dcc565b5b80604052505050565b5f610e33610b3d565b9050610e3f8282610df9565b919050565b5f67ffffffffffffffff821115610e5e57610e5d610dcc565b5b610e6782610dbc565b9050602081019050919050565b828183375f83830152505050565b5f610e94610e8f84610e44565b610e2a565b905082815260208101848484011115610eb057610eaf610db8565b5b610ebb848285610e74565b509392505050565b5f82601f830112610ed757610ed6610b4e565b5b8135610ee7848260208601610e82565b91505092915050565b5f60208284031215610f0557610f04610b46565b5b5f82013567ffffffffffffffff811115610f2257610f21610b4a565b5b610f2e84828501610ec3565b91505092915050565b5f8115159050919050565b610f4b81610f37565b82525050565b5f602082019050610f645f830184610f42565b92915050565b5f81519050919050565b5f82825260208201905092915050565b5f5b83811015610fa1578082015181840152602081019050610f86565b5f8484015250505050565b5f610fb682610f6a565b610fc08185610f74565b9350610fd0818560208601610f84565b610fd981610dbc565b840191505092915050565b610fed81610bfa565b82525050565b610ffc81610c2d565b82525050565b61100b81610c60565b82525050565b606082015f8201516110255f850182610ff3565b5060208201516110386020850182610ff3565b50604082015161104b6040850182611002565b50505050565b5f60e083015f8301518482035f86015261106b8282610fac565b915050602083015184820360208601526110858282610fac565b915050604083015161109a6040860182610fe4565b50606083015184820360608601526110b28282610fac565b91505060808301516110c76080860182611011565b508091505092915050565b5f6020820190508181035f8301526110ea8184611051565b905092915050565b6110fb81610d7f565b8114611105575f80fd5b50565b5f81359050611116816110f2565b92915050565b5f6020828403121561113157611130610b46565b5b5f61113e84828501611108565b91505092915050565b5f81905092915050565b5f61115c8385611147565b9350611169838584610e74565b82840190509392505050565b5f611181828486611151565b91508190509392505050565b5f82825260208201905092915050565b5f6111a8838561118d565b93506111b5838584610e74565b6111be83610dbc565b840190509392505050565b5f6020820190508181035f8301526111e281848661119d565b90509392505050565b7f4e487b71000000000000000000000000000000000000000000000000000000005f52602260045260245ffd5b5f600282049050600182168061122f57607f821691505b602082108103611242576112416111eb565b5b50919050565b5f819050815f5260205f209050919050565b5f6020601f8301049050919050565b5f82821b905092915050565b5f600883026112a47fffffffffffffffffffffffffffffffffffffffffffffffffffffffffffffffff82611269565b6112ae8683611269565b95508019841693508086168417925050509392505050565b5f819050919050565b5f6112e96112e46112df84610bfa565b6112c6565b610bfa565b9050919050565b5f819050919050565b611302836112cf565b61131661130e826112f0565b848454611275565b825550505050565b5f90565b61132a61131e565b6113358184846112f9565b505050565b5b818110156113585761134d5f82611322565b60018101905061133b565b5050565b601f82111561139d5761136e81611248565b6113778461125a565b81016020851015611386578190505b61139a6113928561125a565b83018261133a565b50505b505050565b5f82821c905092915050565b5f6113bd5f19846008026113a2565b1980831691505092915050565b5f6113d583836113ae565b9150826002028217905092915050565b6113ee82610f6a565b67ffffffffffffffff81111561140757611406610dcc565b5b6114118254611218565b61141c82828561135c565b5f60209050601f83116001811461144d575f841561143b578287015190505b61144585826113ca565b8655506114ac565b601f19841661145b86611248565b5f5b828110156114825784890151825560018201915060208501945060208101905061145d565b8683101561149f578489015161149b601f8916826113ae565b8355505b6001600288020188555050505b505050505050565b5f82905092915050565b6114c883836114b4565b67ffffffffffffffff8111156114e1576114e0610dcc565b5b6114eb8254611218565b6114f682828561135c565b5f601f831160018114611523575f8415611511578287013590505b61151b85826113ca565b865550611582565b601f19841661153186611248565b5f5b8281101561155857848901358255600182019150602085019450602081019050611533565b868310156115755784890135611571601f8916826113ae565b8355505b6001600288020188555050505b50505050505050565b5f815461159781611218565b6115a1818661118d565b9450600182165f81146115bb57600181146115d157611603565b60ff198316865281151560200286019350611603565b6115da85611248565b5f5b838110156115fb578154818901526001820191506020810190506115dc565b808801955050505b50505092915050565b5f6020820190508181035f830152611624818461158b565b905092915050565b5f61163682610f6a565b6116408185611147565b9350611650818560208601610f84565b80840191505092915050565b5f611667828461162c565b915081905092915050565b7f19457468657265756d205369676e6564204d6573736167653a0a3332000000005f82015250565b5f6116a6601c83611147565b91506116b182611672565b601c82019050919050565b5f819050919050565b6116d66116d182610c2d565b6116bc565b82525050565b5f6116e68261169a565b91506116f282846116c5565b60208201915081905092915050565b61170a81610c2d565b82525050565b61171981610c60565b82525050565b5f6080820190506117325f830187611701565b61173f6020830186611710565b61174c6040830185611701565b6117596060830184611701565b95945050505050565b5f815461176e81611218565b6117788186611147565b9450600182165f811461179257600181146117a7576117d9565b60ff19831686528115158202860193506117d9565b6117b085611248565b5f5b838110156117d1578154818901526001820191506020810190506117b2565b838801955050505b50505092915050565b5f6117ed8284611762565b915081905092915050565b5f819050919050565b61181261180d82610bfa565b6117f8565b82525050565b5f611823828761162c565b915061182f828661162c565b915061183b8285611801565b60208201915061184b828461162c565b91508190509594505050505056fe6469643a6b6c61793a307862353439366465646130643161613166376261333964303231373634326263643734616536636434a2646970667358221220c6ce108c7ae13b3b092cfc7ed4b30fbcb4e07cff33f2d714376f7fd0b0222ae064736f6c63430008150033",
  "immutableReferences": {},
  "source": "// SPDX-License-Identifier: MIT\r\npragma solidity ^0.8.0;\r\n\r\nimport \"@openzeppelin/contracts/access/Ownable.sol\";\r\nimport \"@openzeppelin/contracts/utils/Strings.sol\";\r\n\r\ncontract OwnershipVCRegistry is Ownable{\r\n\r\n    struct Proof{\r\n        bytes32 r;\r\n        bytes32 s;\r\n        uint8 v;\r\n    }\r\n\r\n    struct Credential{\r\n        string issuer;\r\n        string subject;\r\n        uint256 issuanceDate;\r\n        string value; //  DID \r\n        Proof proof;\r\n    }\r\n\r\n    mapping( string => Credential) credentials;\r\n    constructor() Ownable(msg.sender) {}\r\n\r\n    event VCcreated(string id);\r\n    event VCdeleted(string id);\r\n\r\n    function getMessageHash(\r\n        string memory _issuer, string memory _subject, uint256 _issuanceDate, string memory  _value\r\n    ) private pure returns (bytes32){\r\n        return keccak256(abi.encodePacked(_issuer, _subject, _issuanceDate,_value));\r\n    }\r\n\r\n    function claimCredential(\r\n        string calldata _subject, uint256 _issuanceDate, bytes32 _r, bytes32 _s, uint8 _v,string calldata _value\r\n        ) external onlyOwner{\r\n\r\n        Credential storage newCredential = credentials[_value];\r\n        newCredential.issuer=\"did:klay:0xb5496deda0d1aa1f7ba39d0217642bcd74ae6cd4\"; // DID\r\n        newCredential.subject=_subject;\r\n        newCredential.issuanceDate=_issuanceDate;\r\n        newCredential.value=_value;\r\n        newCredential.proof=Proof(_r,_s,_v);\r\n\r\n        emit VCcreated(newCredential.value);\r\n    }\r\n\r\n    function verifyCredential(string memory _id) public view returns (bool) {\r\n        Credential storage vc = credentials[_id];\r\n        bytes32 messageHash = getMessageHash(vc.issuer, vc.subject, vc.issuanceDate, vc.value);\r\n        bytes32 ethSignedMessageHash = keccak256(\r\n            abi.encodePacked(\"\\x19Ethereum Signed Message:\\n32\", messageHash)\r\n        );\r\n\r\n        // ecrecover    \r\n        address recoveredSigner = ecrecover(ethSignedMessageHash, vc.proof.v, vc.proof.r, vc.proof.s);\r\n        return (recoveredSigner == address(bytes20(keccak256(abi.encodePacked(vc.issuer)))));\r\n    }\r\n\r\n    function getVC(string calldata id) external view returns (Credential memory) {\r\n        return credentials[id];\r\n    }\r\n\r\n    function deleteVC(string calldata id) external onlyOwner {\r\n        delete credentials[id];\r\n        emit VCdeleted(id);\r\n    }\r\n\r\n}",
  "sourcePath": "C:\\Users\\SSAFY\\Desktop\\S10P31C203\\blockchain\\contracts\\OwnershipVCRegistry.sol",
  "compiler": {
    "name": "solc",
    "version": "0.8.21+commit.d9974bed.Emscripten.clang"
  },
  "schemaVersion": "3.4.16",
  "updatedAt": "2024-05-14T00:35:27.902Z",
  "devdoc": {
    "errors": {
      "OwnableInvalidOwner(address)": [
        {
          "details": "The owner is not a valid owner account. (eg. `address(0)`)"
        }
      ],
      "OwnableUnauthorizedAccount(address)": [
        {
          "details": "The caller account is not authorized to perform an operation."
        }
      ]
    },
    "kind": "dev",
    "methods": {
      "owner()": {
        "details": "Returns the address of the current owner."
      },
      "renounceOwnership()": {
        "details": "Leaves the contract without owner. It will not be possible to call `onlyOwner` functions. Can only be called by the current owner. NOTE: Renouncing ownership will leave the contract without an owner, thereby disabling any functionality that is only available to the owner."
      },
      "transferOwnership(address)": {
        "details": "Transfers ownership of the contract to a new account (`newOwner`). Can only be called by the current owner."
      }
    },
    "version": 1
  },
  "userdoc": {
    "kind": "user",
    "methods": {},
    "version": 1
  }
}