{
  "contractName": "RealEstateDIDRegistry",
  "abi": [
    {
      "inputs": [],
      "stateMutability": "nonpayable",
      "type": "constructor"
    },
    {
      "inputs": [
        {
          "internalType": "address",
          "name": "owner",
          "type": "address"
        }
      ],
      "name": "OwnableInvalidOwner",
      "type": "error"
    },
    {
      "inputs": [
        {
          "internalType": "address",
          "name": "account",
          "type": "address"
        }
      ],
      "name": "OwnableUnauthorizedAccount",
      "type": "error"
    },
    {
      "anonymous": false,
      "inputs": [
        {
          "indexed": false,
          "internalType": "string",
          "name": "did",
          "type": "string"
        }
      ],
      "name": "DIDCreated",
      "type": "event"
    },
    {
      "anonymous": false,
      "inputs": [
        {
          "indexed": false,
          "internalType": "string",
          "name": "did",
          "type": "string"
        }
      ],
      "name": "DIDDeleted",
      "type": "event"
    },
    {
      "anonymous": false,
      "inputs": [
        {
          "indexed": true,
          "internalType": "address",
          "name": "previousOwner",
          "type": "address"
        },
        {
          "indexed": true,
          "internalType": "address",
          "name": "newOwner",
          "type": "address"
        }
      ],
      "name": "OwnershipTransferred",
      "type": "event"
    },
    {
      "inputs": [],
      "name": "owner",
      "outputs": [
        {
          "internalType": "address",
          "name": "",
          "type": "address"
        }
      ],
      "stateMutability": "view",
      "type": "function",
      "constant": true
    },
    {
      "inputs": [],
      "name": "renounceOwnership",
      "outputs": [],
      "stateMutability": "nonpayable",
      "type": "function"
    },
    {
      "inputs": [
        {
          "internalType": "address",
          "name": "newOwner",
          "type": "address"
        }
      ],
      "name": "transferOwnership",
      "outputs": [],
      "stateMutability": "nonpayable",
      "type": "function"
    },
    {
      "inputs": [
        {
          "internalType": "uint256",
          "name": "value",
          "type": "uint256"
        },
        {
          "internalType": "uint256",
          "name": "length",
          "type": "uint256"
        }
      ],
      "name": "toHexString",
      "outputs": [
        {
          "internalType": "string",
          "name": "",
          "type": "string"
        }
      ],
      "stateMutability": "pure",
      "type": "function",
      "constant": true
    },
    {
      "inputs": [
        {
          "internalType": "string",
          "name": "_roadNameAddress",
          "type": "string"
        },
        {
          "internalType": "string",
          "name": "_buildingName",
          "type": "string"
        },
        {
          "internalType": "uint16",
          "name": "_buildingNumber",
          "type": "uint16"
        },
        {
          "internalType": "uint16",
          "name": "_roomNumber",
          "type": "uint16"
        },
        {
          "internalType": "bool",
          "name": "_isViolated",
          "type": "bool"
        },
        {
          "internalType": "bool",
          "name": "_isNotPermitted",
          "type": "bool"
        },
        {
          "internalType": "uint8",
          "name": "_estateType",
          "type": "uint8"
        },
        {
          "internalType": "string",
          "name": "_area",
          "type": "string"
        },
        {
          "internalType": "uint256",
          "name": "_date",
          "type": "uint256"
        },
        {
          "internalType": "string",
          "name": "_purpose",
          "type": "string"
        }
      ],
      "name": "createDIDDocument",
      "outputs": [],
      "stateMutability": "nonpayable",
      "type": "function"
    },
    {
      "inputs": [
        {
          "internalType": "string",
          "name": "did",
          "type": "string"
        }
      ],
      "name": "getDIDDocument",
      "outputs": [
        {
          "components": [
            {
              "internalType": "string",
              "name": "context",
              "type": "string"
            },
            {
              "internalType": "string",
              "name": "id",
              "type": "string"
            },
            {
              "components": [
                {
                  "internalType": "string",
                  "name": "id",
                  "type": "string"
                },
                {
                  "internalType": "string",
                  "name": "keyType",
                  "type": "string"
                },
                {
                  "internalType": "string",
                  "name": "controller",
                  "type": "string"
                }
              ],
              "internalType": "struct RealEstateDIDRegistry.PublicKey",
              "name": "publicKey",
              "type": "tuple"
            },
            {
              "internalType": "string",
              "name": "authentication",
              "type": "string"
            }
          ],
          "internalType": "struct RealEstateDIDRegistry.DIDDocument",
          "name": "",
          "type": "tuple"
        }
      ],
      "stateMutability": "view",
      "type": "function",
      "constant": true
    },
    {
      "inputs": [
        {
          "internalType": "string",
          "name": "did",
          "type": "string"
        }
      ],
      "name": "deleteDIDDocument",
      "outputs": [],
      "stateMutability": "nonpayable",
      "type": "function"
    }
  ],
  "bytecode": "0x6080604052346200002d57620000146200003d565b6200001e62000033565b61351c62000258823961351c90f35b62000039565b60405190565b5f80fd5b6200004833620000bf565b565b90565b60018060a01b031690565b90565b620000746200006e6200007a926200004a565b62000058565b6200004d565b90565b62000088906200005b565b90565b62000096906200004d565b90565b620000a4906200008b565b9052565b9190620000bd905f6020850194019062000099565b565b80620000e0620000d9620000d35f6200007d565b6200008b565b916200008b565b14620000f357620000f190620001ec565b565b62000123620001025f6200007d565b6200010c62000033565b918291631e4fbdf760e01b835260048301620000a8565b0390fd5b5f1c90565b60018060a01b031690565b620001466200014c9162000127565b6200012c565b90565b6200015b905462000137565b90565b5f1b90565b906200017660018060a01b03916200015e565b9181191691161790565b62000199620001936200019f926200004d565b62000058565b6200004d565b90565b620001ad9062000180565b90565b620001bb90620001a2565b90565b90565b90620001db620001d5620001e392620001b0565b620001be565b825462000163565b9055565b5f0190565b620001f75f6200014f565b62000203825f620001c1565b906200023b620002347f8be0079c531659141344cd1fd0a4f28419497f9722a3daafe3b4186f6b6457e093620001b0565b91620001b0565b916200024662000033565b806200025281620001e7565b0390a356fe6080604052600436101562000015575b6200083f565b620000215f356200009e565b806363e1cbea1462000098578063715018a61462000092578063784afc4e146200008c5780638da5cb5b14620000865780639bb5055e1462000080578063b9a46384146200007a5763f2fde38b036200000f5762000802565b6200077a565b6200072d565b6200044d565b620003ce565b620001f9565b620001a3565b60e01c90565b60405190565b5f80fd5b5f80fd5b5f80fd5b90565b620000c481620000b6565b03620000cc57565b5f80fd5b90503590620000df82620000b9565b565b91906040838203126200010e5780620001016200010b925f8601620000d0565b93602001620000d0565b90565b620000ae565b5190565b60209181520190565b5f5b83811062000134575050905f910152565b80602091830151818501520162000123565b601f801991011690565b620001756200017f60209362000185936200016b8162000114565b9384809362000118565b9586910162000121565b62000146565b0190565b620001a09160208201915f81840391015262000150565b90565b34620001dd57620001d9620001c5620001be366004620000e1565b9062000e32565b620001cf620000a4565b9182918262000189565b0390f35b620000aa565b5f910312620001ee57565b620000ae565b5f0190565b3462000230576200020c366004620001e3565b62000216620008fa565b62000220620000a4565b806200022c81620001f4565b0390f35b620000aa565b5f80fd5b5f80fd5b5f80fd5b909182601f83011215620002815781359167ffffffffffffffff83116200027b5760200192600183028401116200027557565b6200023e565b6200023a565b62000236565b90602082820312620002bd575f82013567ffffffffffffffff8111620002b757620002b3920162000242565b9091565b620000b2565b620000ae565b60209181520190565b620002f1620002fb6020936200030193620002e78162000114565b93848093620002c3565b9586910162000121565b62000146565b0190565b6200034e9160406200033c62000329606084015f8601518582035f870152620002cc565b60208501518482036020860152620002cc565b920151906040818403910152620002cc565b90565b620003b19160606200039f6200038c62000379608085015f8701518682035f880152620002cc565b60208601518582036020870152620002cc565b6040850151848203604086015262000305565b920151906060818403910152620002cc565b90565b620003cb9160208201915f81840391015262000351565b90565b34620004085762000404620003f0620003e936600462000287565b9062001c95565b620003fa620000a4565b91829182620003b4565b0390f35b620000aa565b60018060a01b031690565b62000424906200040e565b90565b620004329062000419565b9052565b91906200044b905f6020850194019062000427565b565b34620004865762000460366004620001e3565b620004826200046e6200087e565b62000478620000a4565b9182918262000436565b0390f35b620000aa565b61ffff1690565b6200049e816200048c565b03620004a657565b5f80fd5b90503590620004b98262000493565b565b151590565b620004cb81620004bb565b03620004d357565b5f80fd5b90503590620004e682620004c0565b565b60ff1690565b620004f981620004e8565b036200050157565b5f80fd5b905035906200051482620004ee565b565b5f80fd5b634e487b7160e01b5f52604160045260245ffd5b906200053a9062000146565b810190811067ffffffffffffffff8211176200055557604052565b6200051a565b90620005726200056a620000a4565b92836200052e565b565b67ffffffffffffffff811162000595576200059160209162000146565b0190565b6200051a565b90825f939282370152565b90929192620005bf620005b98262000574565b6200055b565b93818552602085019082840111620005de57620005dc926200059b565b565b62000516565b9080601f8301121562000605578160206200060293359101620005a6565b90565b62000236565b9190916101408184031262000727575f81013567ffffffffffffffff81116200072157836200063c91830162000242565b929093602083013567ffffffffffffffff81116200071b57816200066291850162000242565b929093620006748360408301620004aa565b92620006848160608401620004aa565b92620006948260808501620004d7565b92620006a48360a08301620004d7565b92620006b48160c0840162000505565b9260e083013567ffffffffffffffff8111620007155782620006d8918501620005e4565b92620006e9836101008301620000d0565b9261012082013567ffffffffffffffff81116200070f576200070c9201620005e4565b90565b620000b2565b620000b2565b620000b2565b620000b2565b620000ae565b3462000774576200075a620007443660046200060b565b9a99909998919897929796939695949562001a50565b62000764620000a4565b806200077081620001f4565b0390f35b620000aa565b34620007b257620007986200079136600462000287565b9062001fd8565b620007a2620000a4565b80620007ae81620001f4565b0390f35b620000aa565b620007c38162000419565b03620007cb57565b5f80fd5b90503590620007de82620007b8565b565b90602082820312620007fc57620007f9915f01620007cf565b90565b620000ae565b3462000839576200081f62000819366004620007e0565b620009e9565b62000829620000a4565b806200083581620001f4565b0390f35b620000aa565b5f80fd5b5f90565b5f1c90565b60018060a01b031690565b620008666200086c9162000847565b6200084c565b90565b6200087b905462000857565b90565b6200088862000843565b50620008945f6200086f565b90565b620008a162000906565b620008ab620008e3565b565b90565b90565b620008cc620008c6620008d292620008ad565b620008b0565b6200040e565b90565b620008e090620008b3565b90565b620008f8620008f25f620008d5565b62000a7f565b565b6200090462000897565b565b620009106200087e565b6200092f620009286200092262000aea565b62000419565b9162000419565b036200093757565b620009666200094562000aea565b6200094f620000a4565b91829163118cdaa760e01b83526004830162000436565b0390fd5b6200097f906200097962000906565b62000981565b565b80620009a26200099b620009955f620008d5565b62000419565b9162000419565b14620009b557620009b39062000a7f565b565b620009e5620009c45f620008d5565b620009ce620000a4565b918291631e4fbdf760e01b83526004830162000436565b0390fd5b620009f4906200096a565b565b5f1b90565b9062000a0e60018060a01b0391620009f6565b9181191691161790565b62000a3162000a2b62000a37926200040e565b620008b0565b6200040e565b90565b62000a459062000a18565b90565b62000a539062000a3a565b90565b90565b9062000a7362000a6d62000a7b9262000a48565b62000a56565b8254620009fb565b9055565b62000a8a5f6200086f565b62000a96825f62000a59565b9062000ace62000ac77f8be0079c531659141344cd1fd0a4f28419497f9722a3daafe3b4186f6b6457e09362000a48565b9162000a48565b9162000ad9620000a4565b8062000ae581620001f4565b0390a3565b62000af462000843565b503390565b606090565b90565b62000b1a62000b1462000b209262000afe565b620008b0565b620000b6565b90565b634e487b7160e01b5f52601160045260245ffd5b62000b4962000b5091939293620000b6565b92620000b6565b9162000b5e838202620000b6565b92818404149015171562000b6e57565b62000b23565b62000b8662000b8d91939293620000b6565b92620000b6565b820180921162000b9957565b62000b23565b67ffffffffffffffff811162000bc05762000bbc60209162000146565b0190565b6200051a565b9062000bdc62000bd68362000b9f565b6200055b565b918252565b369037565b9062000c1162000bf68362000bc6565b9260208062000c06869362000b9f565b920191039062000be1565b565b600360fc1b90565b634e487b7160e01b5f52603260045260245ffd5b5190565b9062000c3f8262000c2f565b81101562000c5257600160209102010190565b62000c1b565b62000c7162000c6b62000c7792620008ad565b620008b0565b620000b6565b90565b600f60fb1b90565b90565b62000c9e62000c9862000ca49262000c82565b620008b0565b620000b6565b90565b62000cb290620000b6565b5f811462000cc1576001900390565b62000b23565b90565b62000ce362000cdd62000ce99262000cc7565b620008b0565b620000b6565b90565b62000d0562000cff62000d0b92620000b6565b620008b0565b620004e8565b90565b90565b62000d2a62000d2462000d309262000d0e565b620008b0565b620000b6565b90565b90565b62000d4f62000d4962000d559262000d33565b620008b0565b620004e8565b90565b90565b62000d7462000d6e62000d7a9262000d58565b620008b0565b620004e8565b90565b62000d8c62000d9391620004e8565b91620004e8565b019060ff821162000da057565b62000b23565b60ff60f81b1690565b60f81b90565b62000dce62000dc862000dd492620004e8565b62000daf565b62000da6565b90565b90565b62000df362000ded62000df99262000dd7565b620008b0565b620004e8565b90565b1c90565b62000e269062000e1f62000e1862000e2c94620004e8565b91620000b6565b9062000dfc565b620000b6565b90565b90565b919062000e3e62000af9565b5062000ef362000ee062000e8062000e7a62000e67600262000e61879162000b01565b62000b37565b62000e73600262000b01565b9062000b74565b62000be6565b9262000e8b62000c13565b62000ea68562000e9f5f935f1a9362000c58565b9062000c33565b5362000eb162000c7a565b62000ecd8562000ec66001935f1a9362000c85565b9062000c33565b5362000eda600262000b01565b62000b37565b62000eec600162000c85565b9062000b74565b925b8362000f0d62000f06600162000c85565b91620000b6565b111562000fc95762000fa98162000f8462000f7e62000f3d62000fb09562000f36600f62000cca565b1662000cec565b8362000f4a600f62000cca565b1662000f6262000f5b600a62000d11565b91620000b6565b105f1462000fb75762000f76603062000d5b565b5b9062000d7d565b62000db5565b62000f95859188905f1a9262000c33565b5362000fa2600462000dda565b9062000e00565b9362000ca7565b9262000ef5565b62000fc3605762000d36565b62000f77565b5062000fd791925062000e2f565b90565b9062000ffa9b9a99989796959493929162000ff462000906565b6200188e565b565b91906200101b816200101381620010219562000118565b80956200059b565b62000146565b0190565b62001030906200048c565b9052565b6200103f90620004bb565b9052565b6200104e90620004e8565b9052565b6200105d90620000b6565b9052565b98926200110197620010d28b986200111d9f9d98620010c7906040620010be6200110e9f98620010f39c8f9199620010af620010dd9b620010e89e6101408601918683035f88015262000ffc565b92602081850391015262000ffc565b9c019062001025565b60608d019062001025565b60808b019062001034565b60a089019062001034565b60c087019062001043565b84820360e086015262000150565b9361010083019062001052565b61012081840391015262000150565b90565b6200112a620000a4565b3d5f823e3d90fd5b6200113d9062000a3a565b90565b6200114c60806200055b565b90565b606090565b6200116060606200055b565b90565b6200116d62001154565b9060208080846200117d6200114f565b8152016200118a6200114f565b815201620011976200114f565b81525050565b620011a762001163565b90565b620011b462001140565b90602080808085620011c56200114f565b815201620011d26200114f565b815201620011df6200119d565b815201620011ec6200114f565b81525050565b620011fc620011aa565b90565b6200120a9062000a18565b90565b62001226620012206200122c926200040e565b620008b0565b620000b6565b90565b90565b6200124b6200124562001251926200122f565b620008b0565b620000b6565b90565b905090565b5f7f6469643a6b6c61793a0000000000000000000000000000000000000000000000910152565b6200128e6009809262001254565b620012998162001259565b0190565b620012c8620012be92602092620012b48162000114565b9485809362001254565b9384910162000121565b0190565b90620012dc620012e39262001280565b906200129d565b90565b90620012f290620000b6565b9052565b906200130c620013068362000574565b6200055b565b918252565b5f7f68747470733a2f2f7777772e77332e6f72672f6e732f6469642f763100000000910152565b62001344601c620012f6565b90620013536020830162001311565b565b60207f64303231373634326263643734616536636434236b6579732d31000000000000917f6469643a6b6c61793a30786235343936646564613064316161316637626133395f8201520152565b620013ae603a620012f6565b90620013bd6020830162001355565b565b60207f3900000000000000000000000000000000000000000000000000000000000000917f4563647361536563703235366b31566572696669636174696f6e4b65793230315f8201520152565b620014186021620012f6565b906200142760208301620013bf565b565b60207f6430323137363432626364373461653663643400000000000000000000000000917f6469643a6b6c61793a30786235343936646564613064316161316637626133395f8201520152565b620014826033620012f6565b90620014916020830162001429565b565b90565b620014a5620014ab91620000b6565b62001493565b9052565b620014c2620014ca91602094936200129d565b809262001496565b0190565b620014e6620014dc620000a4565b92839283620014af565b03902090565b620014f791620014ce565b90565b634e487b7160e01b5f525f60045260245ffd5b5190565b634e487b7160e01b5f52602260045260245ffd5b906001600283049216801562001548575b60208310146200154257565b62001511565b91607f169162001536565b5f5260205f2090565b601f602091010490565b1b90565b9190600862001589910291620015825f198462001566565b9262001566565b9181191691161790565b620015ac620015a6620015b292620000b6565b620008b0565b620000b6565b90565b90565b9190620015d3620015cd620015dc9362001593565b620015b5565b9083546200156a565b9055565b5f90565b620015fa91620015f3620015e0565b91620015b8565b565b5b81811062001609575050565b80620016185f600193620015e4565b01620015fd565b9190601f811162001630575b505050565b6200163f6200166a9362001553565b9060206200164d846200155c565b8301931062001673575b62001662906200155c565b0190620015fc565b5f80806200162b565b9150620016628192905062001657565b9062001695905f199060080262000dfc565b191690565b81620016a69162001683565b906002021790565b90620016ba8162000114565b9067ffffffffffffffff82116200178d57620016e382620016dc855462001525565b856200161f565b602090601f83116001146200171c579180916200170a935f926200170f575b50506200169a565b90555b565b90915001515f8062001702565b601f198316916200172d8562001553565b925f5b818110620017745750916002939185600196941062001757575b505050020190556200170d565b62001769910151601f84169062001683565b90555f80806200174a565b9193602060018192878701518155019501920162001730565b6200051a565b906200179f91620016ae565b565b5190565b90620017f460406002620017fb94620017ce5f8201620017c75f88016200150d565b9062001793565b620017eb60018201620017e4602088016200150d565b9062001793565b0192016200150d565b9062001793565b565b906200180991620017a5565b565b9062001877606060056200187e94620018345f82016200182d5f88016200150d565b9062001793565b62001851600182016200184a602088016200150d565b9062001793565b6200186e600282016200186760408801620017a1565b90620017fd565b0192016200150d565b9062001793565b565b906200188c916200180b565b565b9a96929a9995919894909997939799989a979091929394959697620018b2620000a4565b9b6115008d019a8d8c1067ffffffffffffffff8d111762001a4a578d9c620018e59c8e6115009062001fe7903962001061565b03905ff0801562001a4457620018fd60209162001132565b6200196a62001955620019646200193f6200192c620019266200191f620011f2565b96620011ff565b6200120d565b62001938601462001232565b9062000e32565b62001949620000a4565b928391878301620012cc565b8682018103825203826200052e565b62000e2f565b82820152620019865f82016200197f62001338565b90620012e6565b620019a25f6040830151016200199b620013a2565b90620012e6565b620019be82604083015101620019b76200140c565b90620012e6565b620019da60408083015101620019d362001476565b90620012e6565b5f60408201510151606082015262001a0381620019fd60018585015190620014ec565b62001880565b015162001a3f7f5fccafd09eeeb6a3dc1c80357ee982c00d7fb00a991274a9b96fe4fd7cb605529162001a35620000a4565b9182918262000189565b0390a1565b62001120565b6200051a565b9062001a669b9a99989796959493929162000fda565b565b90918262001a7b8162001a839362001254565b80936200059b565b0190565b62001a9b906020949362001aa39362001a68565b809262001496565b0190565b909162001ac29062001ab8620000a4565b9384938462001a87565b03902090565b909162001ad59262001aa7565b90565b905f929180549062001af662001aee8362001525565b8094620002c3565b916001811690815f1462001b54575060011462001b13575b505050565b62001b22919293945062001553565b915f925b81841062001b3b57505001905f808062001b0e565b6001816020929593955484860152019101929062001b26565b92949550505060ff19168252151560200201905f808062001b0e565b9062001b7c9162001ad8565b90565b9062001ba562001b9d9262001b93620000a4565b9384809262001b70565b03836200052e565b565b52565b9062001c0762001bfd600262001bbf62001154565b9462001bda62001bd15f830162001b7f565b5f880162001ba7565b62001bf662001bec6001830162001b7f565b6020880162001ba7565b0162001b7f565b6040840162001ba7565b565b52565b9062001c8562001c7b600562001c2162001140565b9462001c3c62001c335f830162001b7f565b5f880162001ba7565b62001c5862001c4e6001830162001b7f565b6020880162001ba7565b62001c7462001c6a6002830162001baa565b6040880162001c09565b0162001b7f565b6060840162001ba7565b565b62001c929062001c0c565b90565b62001cb59062001cbb9262001ca9620011f2565b50600191909162001ac8565b62001c87565b90565b9062001cd49162001cce62000906565b62001f7e565b565b9062001ceb905f199060200360080262000dfc565b8154169055565b905f9162001d0d62001d048262001553565b9283546200169a565b905555565b919290602082105f1462001d7857601f841160011462001d3f5762001d399293506200169a565b90555b5b565b509062001d6c62001d7293600162001d6262001d5b8562001553565b926200155c565b82019101620015fc565b62001cf2565b62001d3c565b5062001db8829362001d8c60019462001553565b62001db062001d9b856200155c565b820192601f86168062001dc4575b506200155c565b0190620015fc565b60020217905562001d3d565b62001dd29088860362001cd6565b5f62001da9565b92909168010000000000000000821162001e42576020115f1462001e3257602081105f1462001e135762001e0d916200169a565b90555b5b565b60019160ff191662001e258462001553565b5560020201905562001e10565b6001915060020201905562001e11565b6200051a565b90815462001e568162001525565b9081831162001e84575b81831062001e6f575b50505050565b62001e7a9362001d12565b5f80808062001e69565b62001e928383838762001dd9565b62001e60565b5f62001ea49162001e48565b565b905f0362001ebb5762001eb99062001e98565b565b620014fa565b5f600262001eed9262001ed78380830162001ea6565b62001ee6836001830162001ea6565b0162001ea6565b565b905f0362001f045762001f029062001ec1565b565b620014fa565b5f600562001f459262001f208380830162001ea6565b62001f2f836001830162001ea6565b62001f3e836002830162001eef565b0162001ea6565b565b905f0362001f5c5762001f5a9062001f0a565b565b620014fa565b909162001f7b9260208301925f81850391015262000ffc565b90565b62001f985f62001f92600184869162001ac8565b62001f47565b907fb24f94d3ff75ed62d7237e14a510a969d70c1d4efdd4cce8ad563aa8ba60a64c9162001fd362001fc9620000a4565b9283928362001f62565b0390a1565b9062001fe49162001cbe565b56fe60806040523462000044576200002b620000186200033e565b9897909796919695929594939462000805565b620000356200004a565b610a4a62000ab68239610a4a90f35b62000050565b60405190565b5f80fd5b601f801991011690565b634e487b7160e01b5f52604160045260245ffd5b906200007e9062000054565b810190811060018060401b038211176200009757604052565b6200005e565b90620000b4620000ac6200004a565b928362000072565b565b5f80fd5b5f80fd5b5f80fd5b5f80fd5b60018060401b038111620000e557620000e160209162000054565b0190565b6200005e565b5f5b838110620000fe575050905f910152565b806020918301518185015201620000ed565b90929192620001296200012382620000c6565b6200009d565b9381855260208501908284011162000148576200014692620000eb565b565b620000c2565b9080601f830112156200016f578160206200016c9351910162000110565b90565b620000be565b61ffff1690565b620001878162000175565b036200018f57565b5f80fd5b90505190620001a2826200017c565b565b151590565b620001b481620001a4565b03620001bc57565b5f80fd5b90505190620001cf82620001a9565b565b60ff1690565b620001e281620001d1565b03620001ea57565b5f80fd5b90505190620001fd82620001d7565b565b90565b6200020d81620001ff565b036200021557565b5f80fd5b90505190620002288262000202565b565b906101408282031262000338575f82015160018060401b038111620003325781620002579184016200014e565b92602083015160018060401b0381116200032c5782620002799185016200014e565b9262000289836040830162000193565b9262000299816060840162000193565b92620002a98260808501620001c0565b92620002b98360a08301620001c0565b92620002c98160c08401620001ee565b9260e083015160018060401b038111620003265782620002eb9185016200014e565b92620002fc83610100830162000219565b9261012082015160018060401b03811162000320576200031d92016200014e565b90565b620000ba565b620000ba565b620000ba565b620000ba565b620000b6565b62000361620015008038038062000355816200009d565b9283398101906200022a565b90919293949596979899565b5190565b634e487b7160e01b5f52602260045260245ffd5b9060016002830492168015620003a8575b6020831014620003a257565b62000371565b91607f169162000396565b5f5260205f2090565b601f602091010490565b1b90565b91906008620003e9910291620003e25f1984620003c6565b92620003c6565b9181191691161790565b90565b6200040f620004096200041592620001ff565b620003f3565b620001ff565b90565b90565b919062000436620004306200043f93620003f6565b62000418565b908354620003ca565b9055565b5f90565b6200045d916200045662000443565b916200041b565b565b5b8181106200046c575050565b806200047b5f60019362000447565b0162000460565b9190601f811162000493575b505050565b620004a2620004cd93620003b3565b906020620004b084620003bc565b83019310620004d6575b620004c590620003bc565b01906200045f565b5f80806200048e565b9150620004c581929050620004ba565b1c90565b90620004fc905f1990600802620004e6565b191690565b816200050d91620004ea565b906002021790565b9062000521816200036d565b9060018060401b038211620005f257620005488262000541855462000385565b8562000482565b602090601f831160011462000581579180916200056f935f9262000574575b505062000501565b90555b565b90915001515f8062000567565b601f198316916200059285620003b3565b925f5b818110620005d957509160029391856001969410620005bc575b5050500201905562000572565b620005ce910151601f841690620004ea565b90555f8080620005af565b9193602060018192878701518155019501920162000595565b6200005e565b90620006049162000515565b565b5f1b90565b906200061a61ffff9162000606565b9181191691161790565b6200063d62000637620006439262000175565b620003f3565b62000175565b90565b90565b90620006636200065d6200066b9262000624565b62000646565b82546200060b565b9055565b60101b90565b906200068663ffff0000916200066f565b9181191691161790565b90620006aa620006a4620006b29262000624565b62000646565b825462000675565b9055565b60201b90565b90620006ce64ff0000000091620006b6565b9181191691161790565b620006e390620001a4565b90565b90565b9062000703620006fd6200070b92620006d8565b620006e6565b8254620006bc565b9055565b60281b90565b906200072865ff0000000000916200070f565b9181191691161790565b906200074c620007466200075492620006d8565b620006e6565b825462000715565b9055565b60301b90565b906200077266ff0000000000009162000758565b9181191691161790565b620007956200078f6200079b92620001d1565b620003f3565b620001d1565b90565b90565b90620007bb620007b5620007c3926200077c565b6200079e565b82546200075e565b9055565b90620007d55f199162000606565b9181191691161790565b90620007f9620007f36200080192620003f6565b62000418565b8254620007c7565b9055565b9462000877620008a398956200086c6200088d9662000861620008ae9e9d9b976200085662000882986200084c620008989e620008423362000922565b5f600101620005f8565b60018001620005f8565b600260010162000649565b600260010162000690565b6002600101620006e9565b600260010162000732565b6002600101620007a1565b6003600101620005f8565b6004600101620007df565b6005600101620005f8565b565b90565b60018060a01b031690565b620008d7620008d1620008dd92620008b0565b620003f3565b620008b3565b90565b620008eb90620008be565b90565b620008f990620008b3565b90565b6200090790620008ee565b9052565b919062000920905f60208501940190620008fc565b565b80620009436200093c620009365f620008e0565b620008ee565b91620008ee565b146200095657620009549062000a4a565b565b62000986620009655f620008e0565b6200096f6200004a565b918291631e4fbdf760e01b8352600483016200090b565b0390fd5b5f1c90565b60018060a01b031690565b620009a9620009af916200098a565b6200098f565b90565b620009be90546200099a565b90565b90620009d460018060a01b039162000606565b9181191691161790565b620009f7620009f1620009fd92620008b3565b620003f3565b620008b3565b90565b62000a0b90620009de565b90565b62000a199062000a00565b90565b90565b9062000a3962000a3362000a419262000a0e565b62000a1c565b8254620009c1565b9055565b5f0190565b62000a555f620009b2565b62000a61825f62000a1f565b9062000a9962000a927f8be0079c531659141344cd1fd0a4f28419497f9722a3daafe3b4186f6b6457e09362000a0e565b9162000a0e565b9162000aa46200004a565b8062000ab08162000a45565b0390a356fe60806040526004361015610013575b610366565b61001d5f3561005c565b80630998d29214610057578063715018a6146100525780638da5cb5b1461004d5763f2fde38b0361000e57610333565b6102bd565b610251565b610217565b60e01c90565b60405190565b5f80fd5b5f80fd5b5f91031261007a57565b61006c565b5190565b60209181520190565b5f5b83811061009e575050905f910152565b80602091830151818501520161008e565b601f801991011690565b6100d86100e16020936100e6936100cf8161007f565b93848093610083565b9586910161008c565b6100af565b0190565b61ffff1690565b6100fa906100ea565b9052565b151590565b61010c906100fe565b9052565b60ff1690565b61011f90610110565b9052565b90565b61012f90610123565b9052565b6101fc916101206101d661016a61015861014085015f8701518682035f8801526100b9565b602086015185820360208701526100b9565b61017c604086015160408601906100f1565b61018e606086015160608601906100f1565b6101a060808601516080860190610103565b6101b260a086015160a0860190610103565b6101c460c086015160c0860190610116565b60e085015184820360e08601526100b9565b926101eb610100820151610100850190610126565b0151906101208184039101526100b9565b90565b6102149160208201915f818403910152610133565b90565b3461024757610227366004610070565b6102436102326109fe565b61023a610062565b918291826101ff565b0390f35b610068565b5f0190565b3461027f57610261366004610070565b610269610407565b610271610062565b8061027b8161024c565b0390f35b610068565b60018060a01b031690565b61029890610284565b90565b6102a49061028f565b9052565b91906102bb905f6020850194019061029b565b565b346102ed576102cd366004610070565b6102e96102d861039f565b6102e0610062565b918291826102a8565b0390f35b610068565b6102fb8161028f565b0361030257565b5f80fd5b90503590610313826102f2565b565b9060208282031261032e5761032b915f01610306565b90565b61006c565b346103615761034b610346366004610315565b6104d2565b610353610062565b8061035d8161024c565b0390f35b610068565b5f80fd5b5f90565b5f1c90565b60018060a01b031690565b61038a61038f9161036e565b610373565b90565b61039c905461037e565b90565b6103a761036a565b506103b15f610392565b90565b6103bc610411565b6103c46103f4565b565b90565b90565b6103e06103db6103e5926103c6565b6103c9565b610284565b90565b6103f1906103cc565b90565b6104056104005f6103e8565b610554565b565b61040f6103b4565b565b61041961039f565b61043261042c6104276105b3565b61028f565b9161028f565b0361043957565b6104626104446105b3565b61044c610062565b91829163118cdaa760e01b8352600483016102a8565b0390fd5b61047790610472610411565b610479565b565b8061049461048e6104895f6103e8565b61028f565b9161028f565b146104a4576104a290610554565b565b6104ce6104b05f6103e8565b6104b8610062565b918291631e4fbdf760e01b8352600483016102a8565b0390fd5b6104db90610466565b565b5f1b90565b906104f360018060a01b03916104dd565b9181191691161790565b61051161050c61051692610284565b6103c9565b610284565b90565b610522906104fd565b90565b61052e90610519565b90565b90565b9061054961054461055092610525565b610531565b82546104e2565b9055565b61055d5f610392565b610567825f610534565b9061059b6105957f8be0079c531659141344cd1fd0a4f28419497f9722a3daafe3b4186f6b6457e093610525565b91610525565b916105a4610062565b806105ae8161024c565b0390a3565b6105bb61036a565b503390565b634e487b7160e01b5f52604160045260245ffd5b906105de906100af565b810190811067ffffffffffffffff8211176105f857604052565b6105c0565b90610610610609610062565b92836105d4565b565b61061d6101406105fd565b90565b606090565b5f90565b5f90565b5f90565b5f90565b61063d610612565b9060208080808080808080808b610652610620565b81520161065d610620565b815201610668610625565b815201610673610625565b81520161067e610629565b815201610689610629565b81520161069461062d565b81520161069f610620565b8152016106aa610631565b8152016106b5610620565b81525050565b6106c3610635565b90565b634e487b7160e01b5f52602260045260245ffd5b90600160028304921680156106fa575b60208310146106f557565b6106c6565b91607f16916106ea565b5f5260205f2090565b905f9291805490610727610720836106da565b8094610083565b916001811690815f1461077e5750600114610742575b505050565b61074f9192939450610704565b915f925b81841061076657505001905f808061073d565b60018160209295939554848601520191019290610753565b92949550505060ff19168252151560200201905f808061073d565b906107a39161070d565b90565b906107c66107bf926107b6610062565b93848092610799565b03836105d4565b565b52565b61ffff1690565b6107de6107e39161036e565b6107cb565b90565b6107f090546107d2565b90565b906107fd906100ea565b9052565b60101c90565b61081361081891610801565b6107cb565b90565b6108259054610807565b90565b60201c90565b60ff1690565b61084061084591610828565b61082e565b90565b6108529054610834565b90565b9061085f906100fe565b9052565b60281c90565b61087561087a91610863565b61082e565b90565b6108879054610869565b90565b60301c90565b60ff1690565b6108a26108a79161088a565b610890565b90565b6108b49054610896565b90565b906108c190610110565b9052565b90565b6108d46108d99161036e565b6108c5565b90565b6108e690546108c8565b90565b906108f390610123565b9052565b906109f06109e66005610908610612565b9461091f6109175f83016107a6565b5f88016107c8565b61093761092e600183016107a6565b602088016107c8565b61094f610946600283016107e6565b604088016107f3565b61096761095e6002830161081b565b606088016107f3565b61097f61097660028301610848565b60808801610855565b61099761098e6002830161087d565b60a08801610855565b6109af6109a6600283016108aa565b60c088016108b7565b6109c76109be600383016107a6565b60e088016107c8565b6109e06109d6600483016108dc565b61010088016108e9565b016107a6565b61012084016107c8565b565b6109fb906108f7565b90565b610a066106bb565b50610a1160016109f2565b9056fea26469706673582212203e300e0aa9b1f668dcc1dc83830af6a994f33029fb9a830af0351004123182d064736f6c63430008150033a264697066735822122087a5cee0f1dbc12ed901b9aa878fb4c5f1bcf7ab214c40db3ae4ffa212ee22bf64736f6c63430008150033",
  "immutableReferences": {},
  "source": "// SPDX-License-Identifier: MIT\r\npragma solidity ^0.8.0;\r\n\r\nimport \"@openzeppelin/contracts/access/Ownable.sol\";\r\nimport \"./RealEstateInfo.sol\";\r\n\r\ncontract RealEstateDIDRegistry is Ownable {\r\n\r\n        struct PublicKey {\r\n        string id;\r\n        string keyType;\r\n        string controller;\r\n    }\r\n\r\n    struct DIDDocument {\r\n        string context;\r\n        string id;\r\n        PublicKey publicKey;\r\n        string authentication;\r\n    }\r\n\r\n    mapping(string => DIDDocument) didDocuments;\r\n\r\n    constructor() Ownable(msg.sender) {}\r\n\r\n    event DIDCreated(string did);\r\n    event DIDDeleted(string did);\r\n\r\n    function toHexString(uint256 value, uint length) public pure returns (string memory) {\r\n        bytes memory buffer = new bytes(2 * length + 2);\r\n        buffer[0] = '0';\r\n        buffer[1] = 'x';\r\n        for (uint i = 2 * length + 1; i > 1; --i) {\r\n            buffer[i] = bytes1(uint8(value & 0xf) + (value & 0xf < 10 ? 48 : 87));\r\n            value >>= 4;\r\n        }\r\n        return string(buffer);\r\n    }\r\n\r\n    function createDIDDocument(\r\n        string calldata _roadNameAddress,\r\n        string calldata _buildingName,\r\n        uint16  _buildingNumber,\r\n        uint16  _roomNumber,\r\n        bool _isViolated,\r\n        bool _isNotPermitted,\r\n        uint8 _estateType,\r\n        string memory _area,\r\n        uint256 _date,\r\n        string memory _purpose) external onlyOwner {\r\n        RealEstateInfo realEstateInfo = new RealEstateInfo(\r\n        _roadNameAddress,_buildingName, _buildingNumber,_roomNumber,_isViolated,_isNotPermitted,_estateType,_area,_date,_purpose);\r\n        address identifier = address(realEstateInfo);\r\n        DIDDocument memory didDocument;\r\n        didDocument.id = string(abi.encodePacked(\"did:klay:\", toHexString(uint256(uint160(identifier)), 20)));\r\n        didDocument.context = \"https://www.w3.org/ns/did/v1\";\r\n\r\n        didDocument.publicKey.id = \"did:klay:0xb5496deda0d1aa1f7ba39d0217642bcd74ae6cd4#keys-1\";\r\n        didDocument.publicKey.keyType = \"EcdsaSecp256k1VerificationKey2019\";\r\n        didDocument.publicKey.controller = \"did:klay:0xb5496deda0d1aa1f7ba39d0217642bcd74ae6cd4\";\r\n\r\n        didDocument.authentication = didDocument.publicKey.id;\r\n\r\n        didDocuments[didDocument.id] = didDocument;\r\n\r\n        emit DIDCreated(didDocument.id);\r\n    }\r\n\r\n    function getDIDDocument(string calldata did) external view returns (DIDDocument memory) {\r\n        return didDocuments[did];\r\n    }\r\n\r\n    function deleteDIDDocument(string calldata did) external onlyOwner {\r\n        delete didDocuments[did];\r\n        emit DIDDeleted(did);\r\n    }\r\n\r\n}\r\n",
  "sourcePath": "C:\\Users\\SSAFY\\Desktop\\S10P31C203\\blockchain\\contracts\\RealEstateDIDRegistry.sol",
  "compiler": {
    "name": "solc",
    "version": "0.8.21+commit.d9974bed.Emscripten.clang"
  },
  "schemaVersion": "3.4.16",
  "updatedAt": "2024-05-16T06:57:44.647Z",
  "networkType": "ethereum",
  "devdoc": {
    "errors": {
      "OwnableInvalidOwner(address)": [
        {
          "details": "The owner is not a valid owner account. (eg. `address(0)`)"
        }
      ],
      "OwnableUnauthorizedAccount(address)": [
        {
          "details": "The caller account is not authorized to perform an operation."
        }
      ]
    },
    "kind": "dev",
    "methods": {
      "owner()": {
        "details": "Returns the address of the current owner."
      },
      "renounceOwnership()": {
        "details": "Leaves the contract without owner. It will not be possible to call `onlyOwner` functions. Can only be called by the current owner. NOTE: Renouncing ownership will leave the contract without an owner, thereby disabling any functionality that is only available to the owner."
      },
      "transferOwnership(address)": {
        "details": "Transfers ownership of the contract to a new account (`newOwner`). Can only be called by the current owner."
      }
    },
    "version": 1
  },
  "userdoc": {
    "kind": "user",
    "methods": {},
    "version": 1
  }
}