{
  "contractName": "RealEstateDIDRegistry",
  "abi": [
    {
      "inputs": [],
      "stateMutability": "nonpayable",
      "type": "constructor"
    },
    {
      "inputs": [
        {
          "internalType": "address",
          "name": "owner",
          "type": "address"
        }
      ],
      "name": "OwnableInvalidOwner",
      "type": "error"
    },
    {
      "inputs": [
        {
          "internalType": "address",
          "name": "account",
          "type": "address"
        }
      ],
      "name": "OwnableUnauthorizedAccount",
      "type": "error"
    },
    {
      "anonymous": false,
      "inputs": [
        {
          "indexed": false,
          "internalType": "string",
          "name": "did",
          "type": "string"
        }
      ],
      "name": "DIDCreated",
      "type": "event"
    },
    {
      "anonymous": false,
      "inputs": [
        {
          "indexed": false,
          "internalType": "string",
          "name": "did",
          "type": "string"
        }
      ],
      "name": "DIDDeleted",
      "type": "event"
    },
    {
      "anonymous": false,
      "inputs": [
        {
          "indexed": true,
          "internalType": "address",
          "name": "previousOwner",
          "type": "address"
        },
        {
          "indexed": true,
          "internalType": "address",
          "name": "newOwner",
          "type": "address"
        }
      ],
      "name": "OwnershipTransferred",
      "type": "event"
    },
    {
      "inputs": [],
      "name": "owner",
      "outputs": [
        {
          "internalType": "address",
          "name": "",
          "type": "address"
        }
      ],
      "stateMutability": "view",
      "type": "function"
    },
    {
      "inputs": [],
      "name": "renounceOwnership",
      "outputs": [],
      "stateMutability": "nonpayable",
      "type": "function"
    },
    {
      "inputs": [
        {
          "internalType": "address",
          "name": "newOwner",
          "type": "address"
        }
      ],
      "name": "transferOwnership",
      "outputs": [],
      "stateMutability": "nonpayable",
      "type": "function"
    },
    {
      "inputs": [
        {
          "internalType": "uint256",
          "name": "value",
          "type": "uint256"
        },
        {
          "internalType": "uint256",
          "name": "length",
          "type": "uint256"
        }
      ],
      "name": "toHexString",
      "outputs": [
        {
          "internalType": "string",
          "name": "",
          "type": "string"
        }
      ],
      "stateMutability": "pure",
      "type": "function"
    },
    {
      "inputs": [
        {
          "internalType": "string",
          "name": "_roadNameAddress",
          "type": "string"
        },
        {
          "internalType": "string",
          "name": "_buildingName",
          "type": "string"
        },
        {
          "internalType": "uint16",
          "name": "_buildingNumber",
          "type": "uint16"
        },
        {
          "internalType": "uint16",
          "name": "_roomNumber",
          "type": "uint16"
        },
        {
          "internalType": "bool",
          "name": "_isViolated",
          "type": "bool"
        },
        {
          "internalType": "bool",
          "name": "_isNotPermitted",
          "type": "bool"
        },
        {
          "internalType": "uint8",
          "name": "_estateType",
          "type": "uint8"
        },
        {
          "internalType": "string",
          "name": "_area",
          "type": "string"
        },
        {
          "internalType": "uint16",
          "name": "_date",
          "type": "uint16"
        },
        {
          "internalType": "string",
          "name": "_purpose",
          "type": "string"
        }
      ],
      "name": "createDIDDocument",
      "outputs": [],
      "stateMutability": "nonpayable",
      "type": "function"
    },
    {
      "inputs": [
        {
          "internalType": "string",
          "name": "did",
          "type": "string"
        }
      ],
      "name": "getDIDDocument",
      "outputs": [
        {
          "components": [
            {
              "internalType": "string",
              "name": "context",
              "type": "string"
            },
            {
              "internalType": "string",
              "name": "id",
              "type": "string"
            },
            {
              "components": [
                {
                  "internalType": "string",
                  "name": "id",
                  "type": "string"
                },
                {
                  "internalType": "string",
                  "name": "keyType",
                  "type": "string"
                },
                {
                  "internalType": "string",
                  "name": "controller",
                  "type": "string"
                }
              ],
              "internalType": "struct RealEstateDIDRegistry.PublicKey",
              "name": "publicKey",
              "type": "tuple"
            },
            {
              "internalType": "string",
              "name": "authentication",
              "type": "string"
            }
          ],
          "internalType": "struct RealEstateDIDRegistry.DIDDocument",
          "name": "",
          "type": "tuple"
        }
      ],
      "stateMutability": "view",
      "type": "function"
    },
    {
      "inputs": [
        {
          "internalType": "string",
          "name": "did",
          "type": "string"
        }
      ],
      "name": "deleteDIDDocument",
      "outputs": [],
      "stateMutability": "nonpayable",
      "type": "function"
    }
  ],
  "bytecode": "0x6080604052346200002d57620000146200003d565b6200001e62000033565b61346162000258823961346190f35b62000039565b60405190565b5f80fd5b6200004833620000bf565b565b90565b60018060a01b031690565b90565b620000746200006e6200007a926200004a565b62000058565b6200004d565b90565b62000088906200005b565b90565b62000096906200004d565b90565b620000a4906200008b565b9052565b9190620000bd905f6020850194019062000099565b565b80620000e0620000d9620000d35f6200007d565b6200008b565b916200008b565b14620000f357620000f190620001ec565b565b62000123620001025f6200007d565b6200010c62000033565b918291631e4fbdf760e01b835260048301620000a8565b0390fd5b5f1c90565b60018060a01b031690565b620001466200014c9162000127565b6200012c565b90565b6200015b905462000137565b90565b5f1b90565b906200017660018060a01b03916200015e565b9181191691161790565b62000199620001936200019f926200004d565b62000058565b6200004d565b90565b620001ad9062000180565b90565b620001bb90620001a2565b90565b90565b90620001db620001d5620001e392620001b0565b620001be565b825462000163565b9055565b5f0190565b620001f75f6200014f565b62000203825f620001c1565b906200023b620002347f8be0079c531659141344cd1fd0a4f28419497f9722a3daafe3b4186f6b6457e093620001b0565b91620001b0565b916200024662000033565b806200025281620001e7565b0390a356fe6080604052600436101562000015575b6200083f565b620000215f356200009e565b80632d31a11c146200009857806363e1cbea1462000092578063715018a6146200008c578063784afc4e14620000865780638da5cb5b1462000080578063b9a46384146200007a5763f2fde38b036200000f5762000802565b6200077a565b6200073b565b620006bc565b62000538565b620004e7565b620003b7565b60e01c90565b60405190565b5f80fd5b5f80fd5b5f80fd5b5f80fd5b5f80fd5b5f80fd5b909182601f83011215620001015781359167ffffffffffffffff8311620000fb576020019260018302840111620000f557565b620000be565b620000ba565b620000b6565b61ffff1690565b620001198162000107565b036200012157565b5f80fd5b9050359062000134826200010e565b565b151590565b620001468162000136565b036200014e57565b5f80fd5b9050359062000161826200013b565b565b60ff1690565b620001748162000163565b036200017c57565b5f80fd5b905035906200018f8262000169565b565b5f80fd5b601f801991011690565b634e487b7160e01b5f52604160045260245ffd5b90620001bf9062000195565b810190811067ffffffffffffffff821117620001da57604052565b6200019f565b90620001f7620001ef620000a4565b9283620001b3565b565b67ffffffffffffffff81116200021a576200021660209162000195565b0190565b6200019f565b90825f939282370152565b90929192620002446200023e82620001f9565b620001e0565b938185526020850190828401116200026357620002619262000220565b565b62000191565b9080601f830112156200028a5781602062000287933591016200022b565b90565b620000b6565b91909161014081840312620003ac575f81013567ffffffffffffffff8111620003a65783620002c1918301620000c2565b929093602083013567ffffffffffffffff8111620003a05781620002e7918501620000c2565b929093620002f9836040830162000125565b9262000309816060840162000125565b9262000319826080850162000152565b92620003298360a0830162000152565b92620003398160c0840162000180565b9260e083013567ffffffffffffffff81116200039a57826200035d91850162000269565b926200036e83610100830162000125565b9261012082013567ffffffffffffffff8111620003945762000391920162000269565b90565b620000b2565b620000b2565b620000b2565b620000b2565b620000ae565b5f0190565b34620003fe57620003e4620003ce36600462000290565b9a99909998919897929796939695949562001a41565b620003ee620000a4565b80620003fa81620003b2565b0390f35b620000aa565b90565b620004128162000404565b036200041a57565b5f80fd5b905035906200042d8262000407565b565b91906040838203126200045c57806200044f62000459925f86016200041e565b936020016200041e565b90565b620000ae565b5190565b60209181520190565b5f5b83811062000482575050905f910152565b80602091830151818501520162000471565b620004b9620004c3602093620004c993620004af8162000462565b9384809362000466565b958691016200046f565b62000195565b0190565b620004e49160208201915f81840391015262000494565b90565b3462000521576200051d62000509620005023660046200042f565b9062000e32565b62000513620000a4565b91829182620004cd565b0390f35b620000aa565b5f9103126200053257565b620000ae565b346200056f576200054b36600462000527565b62000555620008fa565b6200055f620000a4565b806200056b81620003b2565b0390f35b620000aa565b90602082820312620005ab575f82013567ffffffffffffffff8111620005a557620005a19201620000c2565b9091565b620000b2565b620000ae565b60209181520190565b620005df620005e9602093620005ef93620005d58162000462565b93848093620005b1565b958691016200046f565b62000195565b0190565b6200063c9160406200062a62000617606084015f8601518582035f870152620005ba565b60208501518482036020860152620005ba565b920151906040818403910152620005ba565b90565b6200069f9160606200068d6200067a62000667608085015f8701518682035f880152620005ba565b60208601518582036020870152620005ba565b60408501518482036040860152620005f3565b920151906060818403910152620005ba565b90565b620006b99160208201915f8184039101526200063f565b90565b34620006f657620006f2620006de620006d736600462000575565b9062001c86565b620006e8620000a4565b91829182620006a2565b0390f35b620000aa565b60018060a01b031690565b6200071290620006fc565b90565b620007209062000707565b9052565b919062000739905f6020850194019062000715565b565b3462000774576200074e36600462000527565b620007706200075c6200087e565b62000766620000a4565b9182918262000724565b0390f35b620000aa565b34620007b257620007986200079136600462000575565b9062001fc9565b620007a2620000a4565b80620007ae81620003b2565b0390f35b620000aa565b620007c38162000707565b03620007cb57565b5f80fd5b90503590620007de82620007b8565b565b90602082820312620007fc57620007f9915f01620007cf565b90565b620000ae565b3462000839576200081f62000819366004620007e0565b620009e9565b62000829620000a4565b806200083581620003b2565b0390f35b620000aa565b5f80fd5b5f90565b5f1c90565b60018060a01b031690565b620008666200086c9162000847565b6200084c565b90565b6200087b905462000857565b90565b6200088862000843565b50620008945f6200086f565b90565b620008a162000906565b620008ab620008e3565b565b90565b90565b620008cc620008c6620008d292620008ad565b620008b0565b620006fc565b90565b620008e090620008b3565b90565b620008f8620008f25f620008d5565b62000a7f565b565b6200090462000897565b565b620009106200087e565b6200092f620009286200092262000aea565b62000707565b9162000707565b036200093757565b620009666200094562000aea565b6200094f620000a4565b91829163118cdaa760e01b83526004830162000724565b0390fd5b6200097f906200097962000906565b62000981565b565b80620009a26200099b620009955f620008d5565b62000707565b9162000707565b14620009b557620009b39062000a7f565b565b620009e5620009c45f620008d5565b620009ce620000a4565b918291631e4fbdf760e01b83526004830162000724565b0390fd5b620009f4906200096a565b565b5f1b90565b9062000a0e60018060a01b0391620009f6565b9181191691161790565b62000a3162000a2b62000a3792620006fc565b620008b0565b620006fc565b90565b62000a459062000a18565b90565b62000a539062000a3a565b90565b90565b9062000a7362000a6d62000a7b9262000a48565b62000a56565b8254620009fb565b9055565b62000a8a5f6200086f565b62000a96825f62000a59565b9062000ace62000ac77f8be0079c531659141344cd1fd0a4f28419497f9722a3daafe3b4186f6b6457e09362000a48565b9162000a48565b9162000ad9620000a4565b8062000ae581620003b2565b0390a3565b62000af462000843565b503390565b606090565b90565b62000b1a62000b1462000b209262000afe565b620008b0565b62000404565b90565b634e487b7160e01b5f52601160045260245ffd5b62000b4962000b509193929362000404565b9262000404565b9162000b5e83820262000404565b92818404149015171562000b6e57565b62000b23565b62000b8662000b8d9193929362000404565b9262000404565b820180921162000b9957565b62000b23565b67ffffffffffffffff811162000bc05762000bbc60209162000195565b0190565b6200019f565b9062000bdc62000bd68362000b9f565b620001e0565b918252565b369037565b9062000c1162000bf68362000bc6565b9260208062000c06869362000b9f565b920191039062000be1565b565b600360fc1b90565b634e487b7160e01b5f52603260045260245ffd5b5190565b9062000c3f8262000c2f565b81101562000c5257600160209102010190565b62000c1b565b62000c7162000c6b62000c7792620008ad565b620008b0565b62000404565b90565b600f60fb1b90565b90565b62000c9e62000c9862000ca49262000c82565b620008b0565b62000404565b90565b62000cb29062000404565b5f811462000cc1576001900390565b62000b23565b90565b62000ce362000cdd62000ce99262000cc7565b620008b0565b62000404565b90565b62000d0562000cff62000d0b9262000404565b620008b0565b62000163565b90565b90565b62000d2a62000d2462000d309262000d0e565b620008b0565b62000404565b90565b90565b62000d4f62000d4962000d559262000d33565b620008b0565b62000163565b90565b90565b62000d7462000d6e62000d7a9262000d58565b620008b0565b62000163565b90565b62000d8c62000d939162000163565b9162000163565b019060ff821162000da057565b62000b23565b60ff60f81b1690565b60f81b90565b62000dce62000dc862000dd49262000163565b62000daf565b62000da6565b90565b90565b62000df362000ded62000df99262000dd7565b620008b0565b62000163565b90565b1c90565b62000e269062000e1f62000e1862000e2c9462000163565b9162000404565b9062000dfc565b62000404565b90565b90565b919062000e3e62000af9565b5062000ef362000ee062000e8062000e7a62000e67600262000e61879162000b01565b62000b37565b62000e73600262000b01565b9062000b74565b62000be6565b9262000e8b62000c13565b62000ea68562000e9f5f935f1a9362000c58565b9062000c33565b5362000eb162000c7a565b62000ecd8562000ec66001935f1a9362000c85565b9062000c33565b5362000eda600262000b01565b62000b37565b62000eec600162000c85565b9062000b74565b925b8362000f0d62000f06600162000c85565b9162000404565b111562000fc95762000fa98162000f8462000f7e62000f3d62000fb09562000f36600f62000cca565b1662000cec565b8362000f4a600f62000cca565b1662000f6262000f5b600a62000d11565b9162000404565b105f1462000fb75762000f76603062000d5b565b5b9062000d7d565b62000db5565b62000f95859188905f1a9262000c33565b5362000fa2600462000dda565b9062000e00565b9362000ca7565b9262000ef5565b62000fc3605762000d36565b62000f77565b5062000fd791925062000e2f565b90565b9062000ffa9b9a99989796959493929162000ff462000906565b6200187f565b565b91906200101b816200101381620010219562000466565b809562000220565b62000195565b0190565b620010309062000107565b9052565b6200103f9062000136565b9052565b6200104e9062000163565b9052565b9892620010f297620010c38b986200110e9f9d98620010b8906040620010af620010ff9f98620010e49c8f9199620010a0620010ce9b620010d99e6101408601918683035f88015262000ffc565b92602081850391015262000ffc565b9c019062001025565b60608d019062001025565b60808b019062001034565b60a089019062001034565b60c087019062001043565b84820360e086015262000494565b9361010083019062001025565b61012081840391015262000494565b90565b6200111b620000a4565b3d5f823e3d90fd5b6200112e9062000a3a565b90565b6200113d6080620001e0565b90565b606090565b620011516060620001e0565b90565b6200115e62001145565b9060208080846200116e62001140565b8152016200117b62001140565b8152016200118862001140565b81525050565b6200119862001154565b90565b620011a562001131565b90602080808085620011b662001140565b815201620011c362001140565b815201620011d06200118e565b815201620011dd62001140565b81525050565b620011ed6200119b565b90565b620011fb9062000a18565b90565b62001217620012116200121d92620006fc565b620008b0565b62000404565b90565b90565b6200123c62001236620012429262001220565b620008b0565b62000404565b90565b905090565b5f7f6469643a6b6c61793a0000000000000000000000000000000000000000000000910152565b6200127f6009809262001245565b6200128a816200124a565b0190565b620012b9620012af92602092620012a58162000462565b9485809362001245565b938491016200046f565b0190565b90620012cd620012d49262001271565b906200128e565b90565b90620012e39062000404565b9052565b90620012fd620012f783620001f9565b620001e0565b918252565b5f7f68747470733a2f2f7777772e77332e6f72672f6e732f6469642f763100000000910152565b62001335601c620012e7565b90620013446020830162001302565b565b60207f64303231373634326263643734616536636434236b6579732d31000000000000917f6469643a6b6c61793a30786235343936646564613064316161316637626133395f8201520152565b6200139f603a620012e7565b90620013ae6020830162001346565b565b60207f3900000000000000000000000000000000000000000000000000000000000000917f4563647361536563703235366b31566572696669636174696f6e4b65793230315f8201520152565b620014096021620012e7565b906200141860208301620013b0565b565b60207f6430323137363432626364373461653663643400000000000000000000000000917f6469643a6b6c61793a30786235343936646564613064316161316637626133395f8201520152565b620014736033620012e7565b9062001482602083016200141a565b565b90565b620014966200149c9162000404565b62001484565b9052565b620014b3620014bb91602094936200128e565b809262001487565b0190565b620014d7620014cd620000a4565b92839283620014a0565b03902090565b620014e891620014bf565b90565b634e487b7160e01b5f525f60045260245ffd5b5190565b634e487b7160e01b5f52602260045260245ffd5b906001600283049216801562001539575b60208310146200153357565b62001502565b91607f169162001527565b5f5260205f2090565b601f602091010490565b1b90565b919060086200157a910291620015735f198462001557565b9262001557565b9181191691161790565b6200159d62001597620015a39262000404565b620008b0565b62000404565b90565b90565b9190620015c4620015be620015cd9362001584565b620015a6565b9083546200155b565b9055565b5f90565b620015eb91620015e4620015d1565b91620015a9565b565b5b818110620015fa575050565b80620016095f600193620015d5565b01620015ee565b9190601f811162001621575b505050565b620016306200165b9362001544565b9060206200163e846200154d565b8301931062001664575b62001653906200154d565b0190620015ed565b5f80806200161c565b9150620016538192905062001648565b9062001686905f199060080262000dfc565b191690565b81620016979162001674565b906002021790565b90620016ab8162000462565b9067ffffffffffffffff82116200177e57620016d482620016cd855462001516565b8562001610565b602090601f83116001146200170d57918091620016fb935f9262001700575b50506200168b565b90555b565b90915001515f80620016f3565b601f198316916200171e8562001544565b925f5b818110620017655750916002939185600196941062001748575b50505002019055620016fe565b6200175a910151601f84169062001674565b90555f80806200173b565b9193602060018192878701518155019501920162001721565b6200019f565b9062001790916200169f565b565b5190565b90620017e560406002620017ec94620017bf5f8201620017b85f8801620014fe565b9062001784565b620017dc60018201620017d560208801620014fe565b9062001784565b019201620014fe565b9062001784565b565b90620017fa9162001796565b565b9062001868606060056200186f94620018255f82016200181e5f8801620014fe565b9062001784565b62001842600182016200183b60208801620014fe565b9062001784565b6200185f60028201620018586040880162001792565b90620017ee565b019201620014fe565b9062001784565b565b906200187d91620017fc565b565b9a96929a9995919894909997939799989a979091929394959697620018a3620000a4565b9b6114548d019a8d8c1067ffffffffffffffff8d111762001a3b578d9c620018d69c8e6114549062001fd8903962001052565b03905ff0801562001a3557620018ee60209162001123565b6200195b6200194662001955620019306200191d6200191762001910620011e3565b96620011f0565b620011fe565b62001929601462001223565b9062000e32565b6200193a620000a4565b928391878301620012bd565b868201810382520382620001b3565b62000e2f565b82820152620019775f82016200197062001329565b90620012d7565b620019935f6040830151016200198c62001393565b90620012d7565b620019af82604083015101620019a8620013fd565b90620012d7565b620019cb60408083015101620019c462001467565b90620012d7565b5f604082015101516060820152620019f481620019ee60018585015190620014dd565b62001871565b015162001a307f5fccafd09eeeb6a3dc1c80357ee982c00d7fb00a991274a9b96fe4fd7cb605529162001a26620000a4565b91829182620004cd565b0390a1565b62001111565b6200019f565b9062001a579b9a99989796959493929162000fda565b565b90918262001a6c8162001a749362001245565b809362000220565b0190565b62001a8c906020949362001a949362001a59565b809262001487565b0190565b909162001ab39062001aa9620000a4565b9384938462001a78565b03902090565b909162001ac69262001a98565b90565b905f929180549062001ae762001adf8362001516565b8094620005b1565b916001811690815f1462001b45575060011462001b04575b505050565b62001b13919293945062001544565b915f925b81841062001b2c57505001905f808062001aff565b6001816020929593955484860152019101929062001b17565b92949550505060ff19168252151560200201905f808062001aff565b9062001b6d9162001ac9565b90565b9062001b9662001b8e9262001b84620000a4565b9384809262001b61565b0383620001b3565b565b52565b9062001bf862001bee600262001bb062001145565b9462001bcb62001bc25f830162001b70565b5f880162001b98565b62001be762001bdd6001830162001b70565b6020880162001b98565b0162001b70565b6040840162001b98565b565b52565b9062001c7662001c6c600562001c1262001131565b9462001c2d62001c245f830162001b70565b5f880162001b98565b62001c4962001c3f6001830162001b70565b6020880162001b98565b62001c6562001c5b6002830162001b9b565b6040880162001bfa565b0162001b70565b6060840162001b98565b565b62001c839062001bfd565b90565b62001ca69062001cac9262001c9a620011e3565b50600191909162001ab9565b62001c78565b90565b9062001cc59162001cbf62000906565b62001f6f565b565b9062001cdc905f199060200360080262000dfc565b8154169055565b905f9162001cfe62001cf58262001544565b9283546200168b565b905555565b919290602082105f1462001d6957601f841160011462001d305762001d2a9293506200168b565b90555b5b565b509062001d5d62001d6393600162001d5362001d4c8562001544565b926200154d565b82019101620015ed565b62001ce3565b62001d2d565b5062001da9829362001d7d60019462001544565b62001da162001d8c856200154d565b820192601f86168062001db5575b506200154d565b0190620015ed565b60020217905562001d2e565b62001dc39088860362001cc7565b5f62001d9a565b92909168010000000000000000821162001e33576020115f1462001e2357602081105f1462001e045762001dfe916200168b565b90555b5b565b60019160ff191662001e168462001544565b5560020201905562001e01565b6001915060020201905562001e02565b6200019f565b90815462001e478162001516565b9081831162001e75575b81831062001e60575b50505050565b62001e6b9362001d03565b5f80808062001e5a565b62001e838383838762001dca565b62001e51565b5f62001e959162001e39565b565b905f0362001eac5762001eaa9062001e89565b565b620014eb565b5f600262001ede9262001ec88380830162001e97565b62001ed7836001830162001e97565b0162001e97565b565b905f0362001ef55762001ef39062001eb2565b565b620014eb565b5f600562001f369262001f118380830162001e97565b62001f20836001830162001e97565b62001f2f836002830162001ee0565b0162001e97565b565b905f0362001f4d5762001f4b9062001efb565b565b620014eb565b909162001f6c9260208301925f81850391015262000ffc565b90565b62001f895f62001f83600184869162001ab9565b62001f38565b907fb24f94d3ff75ed62d7237e14a510a969d70c1d4efdd4cce8ad563aa8ba60a64c9162001fc462001fba620000a4565b9283928362001f53565b0390a1565b9062001fd59162001caf565b56fe60806040523462000044576200002b6200001862000313565b989790979691969592959493946200079f565b620000356200004a565b610a0462000a508239610a0490f35b62000050565b60405190565b5f80fd5b601f801991011690565b634e487b7160e01b5f52604160045260245ffd5b906200007e9062000054565b810190811060018060401b038211176200009757604052565b6200005e565b90620000b4620000ac6200004a565b928362000072565b565b5f80fd5b5f80fd5b5f80fd5b5f80fd5b60018060401b038111620000e557620000e160209162000054565b0190565b6200005e565b5f5b838110620000fe575050905f910152565b806020918301518185015201620000ed565b90929192620001296200012382620000c6565b6200009d565b9381855260208501908284011162000148576200014692620000eb565b565b620000c2565b9080601f830112156200016f578160206200016c9351910162000110565b90565b620000be565b61ffff1690565b620001878162000175565b036200018f57565b5f80fd5b90505190620001a2826200017c565b565b151590565b620001b481620001a4565b03620001bc57565b5f80fd5b90505190620001cf82620001a9565b565b60ff1690565b620001e281620001d1565b03620001ea57565b5f80fd5b90505190620001fd82620001d7565b565b90610140828203126200030d575f82015160018060401b0381116200030757816200022c9184016200014e565b92602083015160018060401b0381116200030157826200024e9185016200014e565b926200025e836040830162000193565b926200026e816060840162000193565b926200027e8260808501620001c0565b926200028e8360a08301620001c0565b926200029e8160c08401620001ee565b9260e083015160018060401b038111620002fb5782620002c09185016200014e565b92620002d183610100830162000193565b9261012082015160018060401b038111620002f557620002f292016200014e565b90565b620000ba565b620000ba565b620000ba565b620000ba565b620000b6565b6200033662001454803803806200032a816200009d565b928339810190620001ff565b90919293949596979899565b5190565b634e487b7160e01b5f52602260045260245ffd5b90600160028304921680156200037d575b60208310146200037757565b62000346565b91607f16916200036b565b5f5260205f2090565b601f602091010490565b1b90565b91906008620003be910291620003b75f19846200039b565b926200039b565b9181191691161790565b90565b90565b620003e7620003e1620003ed92620003c8565b620003cb565b620003c8565b90565b90565b91906200040e620004086200041793620003ce565b620003f0565b9083546200039f565b9055565b5f90565b62000435916200042e6200041b565b91620003f3565b565b5b81811062000444575050565b80620004535f6001936200041f565b0162000438565b9190601f81116200046b575b505050565b6200047a620004a59362000388565b906020620004888462000391565b83019310620004ae575b6200049d9062000391565b019062000437565b5f808062000466565b91506200049d8192905062000492565b1c90565b90620004d4905f1990600802620004be565b191690565b81620004e591620004c2565b906002021790565b90620004f98162000342565b9060018060401b038211620005ca5762000520826200051985546200035a565b856200045a565b602090601f8311600114620005595791809162000547935f926200054c575b5050620004d9565b90555b565b90915001515f806200053f565b601f198316916200056a8562000388565b925f5b818110620005b15750916002939185600196941062000594575b505050020190556200054a565b620005a6910151601f841690620004c2565b90555f808062000587565b919360206001819287870151815501950192016200056d565b6200005e565b90620005dc91620004ed565b565b5f1b90565b90620005f261ffff91620005de565b9181191691161790565b620006156200060f6200061b9262000175565b620003cb565b62000175565b90565b90565b906200063b620006356200064392620005fc565b6200061e565b8254620005e3565b9055565b60101b90565b906200065e63ffff00009162000647565b9181191691161790565b90620006826200067c6200068a92620005fc565b6200061e565b82546200064d565b9055565b60201b90565b90620006a664ff00000000916200068e565b9181191691161790565b620006bb90620001a4565b90565b90565b90620006db620006d5620006e392620006b0565b620006be565b825462000694565b9055565b60281b90565b906200070065ff000000000091620006e7565b9181191691161790565b90620007246200071e6200072c92620006b0565b620006be565b8254620006ed565b9055565b60301b90565b906200074a66ff0000000000009162000730565b9181191691161790565b6200076d620007676200077392620001d1565b620003cb565b620001d1565b90565b90565b90620007936200078d6200079b9262000754565b62000776565b825462000736565b9055565b94620008116200083d9895620008066200082796620007fb620008489e9d9b97620007f06200081c98620007e6620008329e620007dc33620008bc565b5f600101620005d0565b60018001620005d0565b600260010162000621565b600260010162000668565b6002600101620006c1565b60026001016200070a565b600260010162000779565b6003600101620005d0565b600460010162000621565b6005600101620005d0565b565b90565b60018060a01b031690565b620008716200086b62000877926200084a565b620003cb565b6200084d565b90565b620008859062000858565b90565b62000893906200084d565b90565b620008a19062000888565b9052565b9190620008ba905f6020850194019062000896565b565b80620008dd620008d6620008d05f6200087a565b62000888565b9162000888565b14620008f057620008ee90620009e4565b565b62000920620008ff5f6200087a565b620009096200004a565b918291631e4fbdf760e01b835260048301620008a5565b0390fd5b5f1c90565b60018060a01b031690565b62000943620009499162000924565b62000929565b90565b62000958905462000934565b90565b906200096e60018060a01b0391620005de565b9181191691161790565b620009916200098b62000997926200084d565b620003cb565b6200084d565b90565b620009a59062000978565b90565b620009b3906200099a565b90565b90565b90620009d3620009cd620009db92620009a8565b620009b6565b82546200095b565b9055565b5f0190565b620009ef5f6200094c565b620009fb825f620009b9565b9062000a3362000a2c7f8be0079c531659141344cd1fd0a4f28419497f9722a3daafe3b4186f6b6457e093620009a8565b91620009a8565b9162000a3e6200004a565b8062000a4a81620009df565b0390a356fe60806040526004361015610013575b610356565b61001d5f3561005c565b80630998d29214610057578063715018a6146100525780638da5cb5b1461004d5763f2fde38b0361000e57610323565b6102ad565b610241565b610207565b60e01c90565b60405190565b5f80fd5b5f80fd5b5f91031261007a57565b61006c565b5190565b60209181520190565b5f5b83811061009e575050905f910152565b80602091830151818501520161008e565b601f801991011690565b6100d86100e16020936100e6936100cf8161007f565b93848093610083565b9586910161008c565b6100af565b0190565b61ffff1690565b6100fa906100ea565b9052565b151590565b61010c906100fe565b9052565b60ff1690565b61011f90610110565b9052565b6101ec916101206101c661015a61014861014085015f8701518682035f8801526100b9565b602086015185820360208701526100b9565b61016c604086015160408601906100f1565b61017e606086015160608601906100f1565b61019060808601516080860190610103565b6101a260a086015160a0860190610103565b6101b460c086015160c0860190610116565b60e085015184820360e08601526100b9565b926101db6101008201516101008501906100f1565b0151906101208184039101526100b9565b90565b6102049160208201915f818403910152610123565b90565b3461023757610217366004610070565b6102336102226109b8565b61022a610062565b918291826101ef565b0390f35b610068565b5f0190565b3461026f57610251366004610070565b6102596103f7565b610261610062565b8061026b8161023c565b0390f35b610068565b60018060a01b031690565b61028890610274565b90565b6102949061027f565b9052565b91906102ab905f6020850194019061028b565b565b346102dd576102bd366004610070565b6102d96102c861038f565b6102d0610062565b91829182610298565b0390f35b610068565b6102eb8161027f565b036102f257565b5f80fd5b90503590610303826102e2565b565b9060208282031261031e5761031b915f016102f6565b90565b61006c565b346103515761033b610336366004610305565b6104c2565b610343610062565b8061034d8161023c565b0390f35b610068565b5f80fd5b5f90565b5f1c90565b60018060a01b031690565b61037a61037f9161035e565b610363565b90565b61038c905461036e565b90565b61039761035a565b506103a15f610382565b90565b6103ac610401565b6103b46103e4565b565b90565b90565b6103d06103cb6103d5926103b6565b6103b9565b610274565b90565b6103e1906103bc565b90565b6103f56103f05f6103d8565b610544565b565b6103ff6103a4565b565b61040961038f565b61042261041c6104176105a3565b61027f565b9161027f565b0361042957565b6104526104346105a3565b61043c610062565b91829163118cdaa760e01b835260048301610298565b0390fd5b61046790610462610401565b610469565b565b8061048461047e6104795f6103d8565b61027f565b9161027f565b146104945761049290610544565b565b6104be6104a05f6103d8565b6104a8610062565b918291631e4fbdf760e01b835260048301610298565b0390fd5b6104cb90610456565b565b5f1b90565b906104e360018060a01b03916104cd565b9181191691161790565b6105016104fc61050692610274565b6103b9565b610274565b90565b610512906104ed565b90565b61051e90610509565b90565b90565b9061053961053461054092610515565b610521565b82546104d2565b9055565b61054d5f610382565b610557825f610524565b9061058b6105857f8be0079c531659141344cd1fd0a4f28419497f9722a3daafe3b4186f6b6457e093610515565b91610515565b91610594610062565b8061059e8161023c565b0390a3565b6105ab61035a565b503390565b634e487b7160e01b5f52604160045260245ffd5b906105ce906100af565b810190811067ffffffffffffffff8211176105e857604052565b6105b0565b906106006105f9610062565b92836105c4565b565b61060d6101406105ed565b90565b606090565b5f90565b5f90565b5f90565b610629610602565b9060208080808080808080808b61063e610610565b815201610649610610565b815201610654610615565b81520161065f610615565b81520161066a610619565b815201610675610619565b81520161068061061d565b81520161068b610610565b815201610696610615565b8152016106a1610610565b81525050565b6106af610621565b90565b634e487b7160e01b5f52602260045260245ffd5b90600160028304921680156106e6575b60208310146106e157565b6106b2565b91607f16916106d6565b5f5260205f2090565b905f929180549061071361070c836106c6565b8094610083565b916001811690815f1461076a575060011461072e575b505050565b61073b91929394506106f0565b915f925b81841061075257505001905f8080610729565b6001816020929593955484860152019101929061073f565b92949550505060ff19168252151560200201905f8080610729565b9061078f916106f9565b90565b906107b26107ab926107a2610062565b93848092610785565b03836105c4565b565b52565b61ffff1690565b6107ca6107cf9161035e565b6107b7565b90565b6107dc90546107be565b90565b906107e9906100ea565b9052565b60101c90565b6107ff610804916107ed565b6107b7565b90565b61081190546107f3565b90565b60201c90565b60ff1690565b61082c61083191610814565b61081a565b90565b61083e9054610820565b90565b9061084b906100fe565b9052565b60281c90565b6108616108669161084f565b61081a565b90565b6108739054610855565b90565b60301c90565b60ff1690565b61088e61089391610876565b61087c565b90565b6108a09054610882565b90565b906108ad90610110565b9052565b906109aa6109a060056108c2610602565b946108d96108d15f8301610792565b5f88016107b4565b6108f16108e860018301610792565b602088016107b4565b610909610900600283016107d2565b604088016107df565b61092161091860028301610807565b606088016107df565b61093961093060028301610834565b60808801610841565b61095161094860028301610869565b60a08801610841565b61096961096060028301610896565b60c088016108a3565b61098161097860038301610792565b60e088016107b4565b61099a610990600483016107d2565b61010088016107df565b01610792565b61012084016107b4565b565b6109b5906108b1565b90565b6109c06106a7565b506109cb60016109ac565b9056fea2646970667358221220e917b45dd3f2ec6d9bb4b2c64867f439ec5b57106230a0b3d6266868c81ebc5664736f6c63430008150033a2646970667358221220151c3fd4e60253304cc05d66428d4648b745c988b36f0ff3f0a95d5d6dc4615564736f6c63430008150033",
  "immutableReferences": {},
  "source": "// SPDX-License-Identifier: MIT\r\npragma solidity ^0.8.0;\r\n\r\nimport \"@openzeppelin/contracts/access/Ownable.sol\";\r\nimport \"./RealEstateInfo.sol\";\r\n\r\ncontract RealEstateDIDRegistry is Ownable {\r\n\r\n        struct PublicKey {\r\n        string id;\r\n        string keyType;\r\n        string controller;\r\n    }\r\n\r\n    struct DIDDocument {\r\n        string context;\r\n        string id;\r\n        PublicKey publicKey;\r\n        string authentication;\r\n    }\r\n\r\n    mapping(string => DIDDocument) didDocuments;\r\n\r\n    constructor() Ownable(msg.sender) {}\r\n\r\n    event DIDCreated(string did);\r\n    event DIDDeleted(string did);\r\n\r\n    function toHexString(uint256 value, uint length) public pure returns (string memory) {\r\n        bytes memory buffer = new bytes(2 * length + 2);\r\n        buffer[0] = '0';\r\n        buffer[1] = 'x';\r\n        for (uint i = 2 * length + 1; i > 1; --i) {\r\n            buffer[i] = bytes1(uint8(value & 0xf) + (value & 0xf < 10 ? 48 : 87));\r\n            value >>= 4;\r\n        }\r\n        return string(buffer);\r\n    }\r\n\r\n    function createDIDDocument(\r\n        string calldata _roadNameAddress,\r\n        string calldata _buildingName,\r\n        uint16  _buildingNumber,\r\n        uint16  _roomNumber,\r\n        bool _isViolated,\r\n        bool _isNotPermitted,\r\n        uint8 _estateType,\r\n        string memory _area,\r\n        uint16 _date,\r\n        string memory _purpose) external onlyOwner {\r\n        RealEstateInfo realEstateInfo = new RealEstateInfo(\r\n        _roadNameAddress,_buildingName, _buildingNumber,_roomNumber,_isViolated,_isNotPermitted,_estateType,_area,_date,_purpose);\r\n        address identifier = address(realEstateInfo);\r\n        DIDDocument memory didDocument;\r\n        didDocument.id = string(abi.encodePacked(\"did:klay:\", toHexString(uint256(uint160(identifier)), 20)));\r\n        didDocument.context = \"https://www.w3.org/ns/did/v1\";\r\n\r\n        didDocument.publicKey.id = \"did:klay:0xb5496deda0d1aa1f7ba39d0217642bcd74ae6cd4#keys-1\";\r\n        didDocument.publicKey.keyType = \"EcdsaSecp256k1VerificationKey2019\";\r\n        didDocument.publicKey.controller = \"did:klay:0xb5496deda0d1aa1f7ba39d0217642bcd74ae6cd4\";\r\n\r\n        didDocument.authentication = didDocument.publicKey.id;\r\n\r\n        didDocuments[didDocument.id] = didDocument;\r\n\r\n        emit DIDCreated(didDocument.id);\r\n    }\r\n\r\n    function getDIDDocument(string calldata did) external view returns (DIDDocument memory) {\r\n        return didDocuments[did];\r\n    }\r\n\r\n    function deleteDIDDocument(string calldata did) external onlyOwner {\r\n        delete didDocuments[did];\r\n        emit DIDDeleted(did);\r\n    }\r\n\r\n}\r\n",
  "sourcePath": "C:\\Users\\SSAFY\\Desktop\\S10P31C203\\blockchain\\contracts\\RealEstateDIDRegistry.sol",
  "compiler": {
    "name": "solc",
    "version": "0.8.21+commit.d9974bed.Emscripten.clang"
  },
  "schemaVersion": "3.4.16",
  "updatedAt": "2024-05-16T06:37:21.019Z",
  "devdoc": {
    "errors": {
      "OwnableInvalidOwner(address)": [
        {
          "details": "The owner is not a valid owner account. (eg. `address(0)`)"
        }
      ],
      "OwnableUnauthorizedAccount(address)": [
        {
          "details": "The caller account is not authorized to perform an operation."
        }
      ]
    },
    "kind": "dev",
    "methods": {
      "owner()": {
        "details": "Returns the address of the current owner."
      },
      "renounceOwnership()": {
        "details": "Leaves the contract without owner. It will not be possible to call `onlyOwner` functions. Can only be called by the current owner. NOTE: Renouncing ownership will leave the contract without an owner, thereby disabling any functionality that is only available to the owner."
      },
      "transferOwnership(address)": {
        "details": "Transfers ownership of the contract to a new account (`newOwner`). Can only be called by the current owner."
      }
    },
    "version": 1
  },
  "userdoc": {
    "kind": "user",
    "methods": {},
    "version": 1
  }
}