{
  "contractName": "RealEstateInfo",
  "abi": [
    {
      "inputs": [
        {
          "internalType": "string",
          "name": "_roadNameAddress",
          "type": "string"
        },
        {
          "internalType": "string",
          "name": "_buildingName",
          "type": "string"
        },
        {
          "internalType": "uint16",
          "name": "_buildingNumber",
          "type": "uint16"
        },
        {
          "internalType": "uint16",
          "name": "_roomNumber",
          "type": "uint16"
        }
      ],
      "stateMutability": "nonpayable",
      "type": "constructor"
    },
    {
      "inputs": [
        {
          "internalType": "address",
          "name": "owner",
          "type": "address"
        }
      ],
      "name": "OwnableInvalidOwner",
      "type": "error"
    },
    {
      "inputs": [
        {
          "internalType": "address",
          "name": "account",
          "type": "address"
        }
      ],
      "name": "OwnableUnauthorizedAccount",
      "type": "error"
    },
    {
      "anonymous": false,
      "inputs": [
        {
          "indexed": true,
          "internalType": "address",
          "name": "previousOwner",
          "type": "address"
        },
        {
          "indexed": true,
          "internalType": "address",
          "name": "newOwner",
          "type": "address"
        }
      ],
      "name": "OwnershipTransferred",
      "type": "event"
    },
    {
      "inputs": [],
      "name": "owner",
      "outputs": [
        {
          "internalType": "address",
          "name": "",
          "type": "address"
        }
      ],
      "stateMutability": "view",
      "type": "function"
    },
    {
      "inputs": [],
      "name": "renounceOwnership",
      "outputs": [],
      "stateMutability": "nonpayable",
      "type": "function"
    },
    {
      "inputs": [
        {
          "internalType": "address",
          "name": "newOwner",
          "type": "address"
        }
      ],
      "name": "transferOwnership",
      "outputs": [],
      "stateMutability": "nonpayable",
      "type": "function"
    },
    {
      "inputs": [],
      "name": "getRealEstateInfo",
      "outputs": [
        {
          "components": [
            {
              "internalType": "string",
              "name": "roadNameAddress",
              "type": "string"
            },
            {
              "internalType": "string",
              "name": "buildingName",
              "type": "string"
            },
            {
              "internalType": "uint16",
              "name": "buildingNumber",
              "type": "uint16"
            },
            {
              "internalType": "uint16",
              "name": "roomNumber",
              "type": "uint16"
            }
          ],
          "internalType": "struct RealEstateInfo.BasicInfo",
          "name": "",
          "type": "tuple"
        }
      ],
      "stateMutability": "view",
      "type": "function"
    }
  ],
  "bytecode": "0x6080604052346200003b5762000022620000186200021b565b9291909162000590565b6200002c62000041565b6107e6620007e182396107e690f35b62000047565b60405190565b5f80fd5b601f801991011690565b634e487b7160e01b5f52604160045260245ffd5b9062000075906200004b565b810190811060018060401b038211176200008e57604052565b62000055565b90620000ab620000a362000041565b928362000069565b565b5f80fd5b5f80fd5b5f80fd5b5f80fd5b60018060401b038111620000dc57620000d86020916200004b565b0190565b62000055565b5f5b838110620000f5575050905f910152565b806020918301518185015201620000e4565b90929192620001206200011a82620000bd565b62000094565b938185526020850190828401116200013f576200013d92620000e2565b565b620000b9565b9080601f830112156200016657816020620001639351910162000107565b90565b620000b5565b61ffff1690565b6200017e816200016c565b036200018657565b5f80fd5b90505190620001998262000173565b565b60808183031262000215575f81015160018060401b0381116200020f5782620001c691830162000145565b92602082015160018060401b0381116200020957620001ec846200020692850162000145565b93620001fc81604086016200018a565b936060016200018a565b90565b620000b1565b620000b1565b620000ad565b6200023e62000fc780380380620002328162000094565b9283398101906200019b565b90919293565b5190565b634e487b7160e01b5f52602260045260245ffd5b90600160028304921680156200027f575b60208310146200027957565b62000248565b91607f16916200026d565b5f5260205f2090565b601f602091010490565b1b90565b91906008620002c0910291620002b95f19846200029d565b926200029d565b9181191691161790565b90565b90565b620002e9620002e3620002ef92620002ca565b620002cd565b620002ca565b90565b90565b9190620003106200030a6200031993620002d0565b620002f2565b908354620002a1565b9055565b5f90565b6200033791620003306200031d565b91620002f5565b565b5b81811062000346575050565b80620003555f60019362000321565b016200033a565b9190601f81116200036d575b505050565b6200037c620003a7936200028a565b9060206200038a8462000293565b83019310620003b0575b6200039f9062000293565b019062000339565b5f808062000368565b91506200039f8192905062000394565b1c90565b90620003d6905f1990600802620003c0565b191690565b81620003e791620003c4565b906002021790565b90620003fb8162000244565b9060018060401b038211620004cc5762000422826200041b85546200025c565b856200035c565b602090601f83116001146200045b5791809162000449935f926200044e575b5050620003db565b90555b565b90915001515f8062000441565b601f198316916200046c856200028a565b925f5b818110620004b35750916002939185600196941062000496575b505050020190556200044c565b620004a8910151601f841690620003c4565b90555f808062000489565b919360206001819287870151815501950192016200046f565b62000055565b90620004de91620003ef565b565b5f1b90565b90620004f461ffff91620004e0565b9181191691161790565b62000517620005116200051d926200016c565b620002cd565b6200016c565b90565b90565b906200053d620005376200054592620004fe565b62000520565b8254620004e5565b9055565b60101b90565b906200056063ffff00009162000549565b9181191691161790565b90620005846200057e6200058c92620004fe565b62000520565b82546200054f565b9055565b91620005c3620005ce92620005b9620005d99695620005af336200064d565b5f600101620004d2565b60018001620004d2565b600260010162000523565b60026001016200056a565b565b90565b60018060a01b031690565b62000602620005fc6200060892620005db565b620002cd565b620005de565b90565b6200061690620005e9565b90565b6200062490620005de565b90565b620006329062000619565b9052565b91906200064b905f6020850194019062000627565b565b806200066e62000667620006615f6200060b565b62000619565b9162000619565b1462000681576200067f9062000775565b565b620006b1620006905f6200060b565b6200069a62000041565b918291631e4fbdf760e01b83526004830162000636565b0390fd5b5f1c90565b60018060a01b031690565b620006d4620006da91620006b5565b620006ba565b90565b620006e99054620006c5565b90565b90620006ff60018060a01b0391620004e0565b9181191691161790565b620007226200071c6200072892620005de565b620002cd565b620005de565b90565b620007369062000709565b90565b62000744906200072b565b90565b90565b90620007646200075e6200076c9262000739565b62000747565b8254620006ec565b9055565b5f0190565b620007805f620006dd565b6200078c825f6200074a565b90620007c4620007bd7f8be0079c531659141344cd1fd0a4f28419497f9722a3daafe3b4186f6b6457e09362000739565b9162000739565b91620007cf62000041565b80620007db8162000770565b0390a356fe60806040526004361015610013575b6102b9565b61001d5f3561005c565b80630998d29214610057578063715018a6146100525780638da5cb5b1461004d5763f2fde38b0361000e57610286565b610210565b6101a4565b61016a565b60e01c90565b60405190565b5f80fd5b5f80fd5b5f91031261007a57565b61006c565b5190565b60209181520190565b5f5b83811061009e575050905f910152565b80602091830151818501520161008e565b601f801991011690565b6100d86100e16020936100e6936100cf8161007f565b93848093610083565b9586910161008c565b6100af565b0190565b61ffff1690565b6100fa906100ea565b9052565b9061014f90606080610132610120608085015f8801518682035f8801526100b9565b602087015185820360208701526100b9565b94610145604082015160408601906100f1565b01519101906100f1565b90565b6101679160208201915f8184039101526100fe565b90565b3461019a5761017a366004610070565b61019661018561079a565b61018d610062565b91829182610152565b0390f35b610068565b5f0190565b346101d2576101b4366004610070565b6101bc61035a565b6101c4610062565b806101ce8161019f565b0390f35b610068565b60018060a01b031690565b6101eb906101d7565b90565b6101f7906101e2565b9052565b919061020e905f602085019401906101ee565b565b3461024057610220366004610070565b61023c61022b6102f2565b610233610062565b918291826101fb565b0390f35b610068565b61024e816101e2565b0361025557565b5f80fd5b9050359061026682610245565b565b906020828203126102815761027e915f01610259565b90565b61006c565b346102b45761029e610299366004610268565b610425565b6102a6610062565b806102b08161019f565b0390f35b610068565b5f80fd5b5f90565b5f1c90565b60018060a01b031690565b6102dd6102e2916102c1565b6102c6565b90565b6102ef90546102d1565b90565b6102fa6102bd565b506103045f6102e5565b90565b61030f610364565b610317610347565b565b90565b90565b61033361032e61033892610319565b61031c565b6101d7565b90565b6103449061031f565b90565b6103586103535f61033b565b6104a7565b565b610362610307565b565b61036c6102f2565b61038561037f61037a610506565b6101e2565b916101e2565b0361038c57565b6103b5610397610506565b61039f610062565b91829163118cdaa760e01b8352600483016101fb565b0390fd5b6103ca906103c5610364565b6103cc565b565b806103e76103e16103dc5f61033b565b6101e2565b916101e2565b146103f7576103f5906104a7565b565b6104216104035f61033b565b61040b610062565b918291631e4fbdf760e01b8352600483016101fb565b0390fd5b61042e906103b9565b565b5f1b90565b9061044660018060a01b0391610430565b9181191691161790565b61046461045f610469926101d7565b61031c565b6101d7565b90565b61047590610450565b90565b6104819061046c565b90565b90565b9061049c6104976104a392610478565b610484565b8254610435565b9055565b6104b05f6102e5565b6104ba825f610487565b906104ee6104e87f8be0079c531659141344cd1fd0a4f28419497f9722a3daafe3b4186f6b6457e093610478565b91610478565b916104f7610062565b806105018161019f565b0390a3565b61050e6102bd565b503390565b634e487b7160e01b5f52604160045260245ffd5b90610531906100af565b810190811067ffffffffffffffff82111761054b57604052565b610513565b9061056361055c610062565b9283610527565b565b61056f6080610550565b90565b606090565b5f90565b610583610565565b90602080808085610592610572565b81520161059d610572565b8152016105a8610577565b8152016105b3610577565b81525050565b6105c161057b565b90565b634e487b7160e01b5f52602260045260245ffd5b90600160028304921680156105f8575b60208310146105f357565b6105c4565b91607f16916105e8565b5f5260205f2090565b905f929180549061062561061e836105d8565b8094610083565b916001811690815f1461067c5750600114610640575b505050565b61064d9192939450610602565b915f925b81841061066457505001905f808061063b565b60018160209295939554848601520191019290610651565b92949550505060ff19168252151560200201905f808061063b565b906106a19161060b565b90565b906106c46106bd926106b4610062565b93848092610697565b0383610527565b565b52565b61ffff1690565b6106dc6106e1916102c1565b6106c9565b90565b6106ee90546106d0565b90565b906106fb906100ea565b9052565b60101c90565b610711610716916106ff565b6106c9565b90565b6107239054610705565b90565b9061078c6107836002610737610565565b9461074e6107465f83016106a4565b5f88016106c6565b61076661075d600183016106a4565b602088016106c6565b61077d6107748383016106e4565b604088016106f1565b01610719565b606084016106f1565b565b61079790610726565b90565b6107a26105b9565b506107ad600161078e565b9056fea2646970667358221220905e1d947df39ba050fe312c2476013c416d54cd8bcb51d83fe92da57beff8fb64736f6c63430008150033",
  "immutableReferences": {},
  "source": "// SPDX-License-Identifier: MIT\r\npragma solidity ^0.8.0;\r\n\r\nimport \"@openzeppelin/contracts/access/Ownable.sol\";\r\n\r\ncontract RealEstateInfo is Ownable {\r\n    \r\n    // 부동산 기본 정보\r\n    struct BasicInfo {\r\n        string roadNameAddress; // 도로명주소\r\n        string buildingName; // 건물명\r\n        uint16 buildingNumber; // 동 번호 (아파트 동)\r\n        uint16 roomNumber; // 호수 번호\r\n    }\r\n\r\n    BasicInfo basicInfo;\r\n\r\n    constructor(\r\n        string memory _roadNameAddress,\r\n        string memory _buildingName,\r\n        uint16  _buildingNumber,\r\n        uint16 _roomNumber\r\n    ) Ownable(msg.sender) {\r\n        basicInfo.roadNameAddress = _roadNameAddress;\r\n        basicInfo.buildingName = _buildingName;\r\n        basicInfo.buildingNumber = _buildingNumber;\r\n        basicInfo.roomNumber = _roomNumber;\r\n    }\r\n\r\n    function getRealEstateInfo() external view returns (BasicInfo memory) {\r\n        return (basicInfo);\r\n    }\r\n\r\n\r\n}",
  "sourcePath": "C:\\Users\\SSAFY\\Desktop\\S10P31C203\\blockchain\\contracts\\RealEstateInfo.sol",
  "compiler": {
    "name": "solc",
    "version": "0.8.21+commit.d9974bed.Emscripten.clang"
  },
  "schemaVersion": "3.4.16",
  "updatedAt": "2024-05-14T08:09:25.740Z",
  "devdoc": {
    "errors": {
      "OwnableInvalidOwner(address)": [
        {
          "details": "The owner is not a valid owner account. (eg. `address(0)`)"
        }
      ],
      "OwnableUnauthorizedAccount(address)": [
        {
          "details": "The caller account is not authorized to perform an operation."
        }
      ]
    },
    "kind": "dev",
    "methods": {
      "owner()": {
        "details": "Returns the address of the current owner."
      },
      "renounceOwnership()": {
        "details": "Leaves the contract without owner. It will not be possible to call `onlyOwner` functions. Can only be called by the current owner. NOTE: Renouncing ownership will leave the contract without an owner, thereby disabling any functionality that is only available to the owner."
      },
      "transferOwnership(address)": {
        "details": "Transfers ownership of the contract to a new account (`newOwner`). Can only be called by the current owner."
      }
    },
    "version": 1
  },
  "userdoc": {
    "kind": "user",
    "methods": {},
    "version": 1
  }
}