{
  "contractName": "RealEstateDIDRegistry",
  "abi": [
    {
      "inputs": [],
      "stateMutability": "nonpayable",
      "type": "constructor"
    },
    {
      "inputs": [
        {
          "internalType": "address",
          "name": "owner",
          "type": "address"
        }
      ],
      "name": "OwnableInvalidOwner",
      "type": "error"
    },
    {
      "inputs": [
        {
          "internalType": "address",
          "name": "account",
          "type": "address"
        }
      ],
      "name": "OwnableUnauthorizedAccount",
      "type": "error"
    },
    {
      "anonymous": false,
      "inputs": [
        {
          "indexed": false,
          "internalType": "string",
          "name": "did",
          "type": "string"
        }
      ],
      "name": "DIDCreated",
      "type": "event"
    },
    {
      "anonymous": false,
      "inputs": [
        {
          "indexed": false,
          "internalType": "string",
          "name": "did",
          "type": "string"
        }
      ],
      "name": "DIDDeleted",
      "type": "event"
    },
    {
      "anonymous": false,
      "inputs": [
        {
          "indexed": true,
          "internalType": "address",
          "name": "previousOwner",
          "type": "address"
        },
        {
          "indexed": true,
          "internalType": "address",
          "name": "newOwner",
          "type": "address"
        }
      ],
      "name": "OwnershipTransferred",
      "type": "event"
    },
    {
      "inputs": [],
      "name": "owner",
      "outputs": [
        {
          "internalType": "address",
          "name": "",
          "type": "address"
        }
      ],
      "stateMutability": "view",
      "type": "function",
      "constant": true
    },
    {
      "inputs": [],
      "name": "renounceOwnership",
      "outputs": [],
      "stateMutability": "nonpayable",
      "type": "function"
    },
    {
      "inputs": [
        {
          "internalType": "address",
          "name": "newOwner",
          "type": "address"
        }
      ],
      "name": "transferOwnership",
      "outputs": [],
      "stateMutability": "nonpayable",
      "type": "function"
    },
    {
      "inputs": [
        {
          "internalType": "uint256",
          "name": "value",
          "type": "uint256"
        },
        {
          "internalType": "uint256",
          "name": "length",
          "type": "uint256"
        }
      ],
      "name": "toHexString",
      "outputs": [
        {
          "internalType": "string",
          "name": "",
          "type": "string"
        }
      ],
      "stateMutability": "pure",
      "type": "function",
      "constant": true
    },
    {
      "inputs": [
        {
          "internalType": "string",
          "name": "_roadNameAddress",
          "type": "string"
        },
        {
          "internalType": "string",
          "name": "_buildingName",
          "type": "string"
        },
        {
          "internalType": "uint16",
          "name": "_buildingNumber",
          "type": "uint16"
        },
        {
          "internalType": "uint16",
          "name": "_roomNumber",
          "type": "uint16"
        }
      ],
      "name": "createDIDDocument",
      "outputs": [],
      "stateMutability": "nonpayable",
      "type": "function"
    },
    {
      "inputs": [
        {
          "internalType": "string",
          "name": "did",
          "type": "string"
        }
      ],
      "name": "getDIDDocument",
      "outputs": [
        {
          "components": [
            {
              "internalType": "string",
              "name": "context",
              "type": "string"
            },
            {
              "internalType": "string",
              "name": "id",
              "type": "string"
            },
            {
              "components": [
                {
                  "internalType": "string",
                  "name": "id",
                  "type": "string"
                },
                {
                  "internalType": "string",
                  "name": "keyType",
                  "type": "string"
                },
                {
                  "internalType": "string",
                  "name": "controller",
                  "type": "string"
                }
              ],
              "internalType": "struct RealEstateDIDRegistry.PublicKey",
              "name": "publicKey",
              "type": "tuple"
            },
            {
              "internalType": "string",
              "name": "authentication",
              "type": "string"
            }
          ],
          "internalType": "struct RealEstateDIDRegistry.DIDDocument",
          "name": "",
          "type": "tuple"
        }
      ],
      "stateMutability": "view",
      "type": "function",
      "constant": true
    },
    {
      "inputs": [
        {
          "internalType": "string",
          "name": "did",
          "type": "string"
        }
      ],
      "name": "deleteDIDDocument",
      "outputs": [],
      "stateMutability": "nonpayable",
      "type": "function"
    }
  ],
  "bytecode": "0x6080604052346200002d57620000146200003d565b6200001e62000033565b612dce620002588239612dce90f35b62000039565b60405190565b5f80fd5b6200004833620000bf565b565b90565b60018060a01b031690565b90565b620000746200006e6200007a926200004a565b62000058565b6200004d565b90565b62000088906200005b565b90565b62000096906200004d565b90565b620000a4906200008b565b9052565b9190620000bd905f6020850194019062000099565b565b80620000e0620000d9620000d35f6200007d565b6200008b565b916200008b565b14620000f357620000f190620001ec565b565b62000123620001025f6200007d565b6200010c62000033565b918291631e4fbdf760e01b835260048301620000a8565b0390fd5b5f1c90565b60018060a01b031690565b620001466200014c9162000127565b6200012c565b90565b6200015b905462000137565b90565b5f1b90565b906200017660018060a01b03916200015e565b9181191691161790565b62000199620001936200019f926200004d565b62000058565b6200004d565b90565b620001ad9062000180565b90565b620001bb90620001a2565b90565b90565b90620001db620001d5620001e392620001b0565b620001be565b825462000163565b9055565b5f0190565b620001f75f6200014f565b62000203825f620001c1565b906200023b620002347f8be0079c531659141344cd1fd0a4f28419497f9722a3daafe3b4186f6b6457e093620001b0565b91620001b0565b916200024662000033565b806200025281620001e7565b0390a356fe6080604052600436101562000015575b6200064f565b620000215f356200009e565b806363e1cbea1462000098578063715018a61462000092578063784afc4e146200008c5780638da5cb5b1462000086578063ae4a3a031462000080578063b9a46384146200007a5763f2fde38b036200000f5762000612565b6200058a565b62000546565b6200044d565b620003ce565b620001f9565b620001a3565b60e01c90565b60405190565b5f80fd5b5f80fd5b5f80fd5b90565b620000c481620000b6565b03620000cc57565b5f80fd5b90503590620000df82620000b9565b565b91906040838203126200010e5780620001016200010b925f8601620000d0565b93602001620000d0565b90565b620000ae565b5190565b60209181520190565b5f5b83811062000134575050905f910152565b80602091830151818501520162000123565b601f801991011690565b620001756200017f60209362000185936200016b8162000114565b9384809362000118565b9586910162000121565b62000146565b0190565b620001a09160208201915f81840391015262000150565b90565b34620001dd57620001d9620001c5620001be366004620000e1565b9062000ca2565b620001cf620000a4565b9182918262000189565b0390f35b620000aa565b5f910312620001ee57565b620000ae565b5f0190565b3462000230576200020c366004620001e3565b620002166200070a565b62000220620000a4565b806200022c81620001f4565b0390f35b620000aa565b5f80fd5b5f80fd5b5f80fd5b909182601f83011215620002815781359167ffffffffffffffff83116200027b5760200192600183028401116200027557565b6200023e565b6200023a565b62000236565b90602082820312620002bd575f82013567ffffffffffffffff8111620002b757620002b3920162000242565b9091565b620000b2565b620000ae565b60209181520190565b620002f1620002fb6020936200030193620002e78162000114565b93848093620002c3565b9586910162000121565b62000146565b0190565b6200034e9160406200033c62000329606084015f8601518582035f870152620002cc565b60208501518482036020860152620002cc565b920151906040818403910152620002cc565b90565b620003b19160606200039f6200038c62000379608085015f8701518682035f880152620002cc565b60208601518582036020870152620002cc565b6040850151848203604086015262000305565b920151906060818403910152620002cc565b90565b620003cb9160208201915f81840391015262000351565b90565b34620004085762000404620003f0620003e936600462000287565b9062001a80565b620003fa620000a4565b91829182620003b4565b0390f35b620000aa565b60018060a01b031690565b62000424906200040e565b90565b620004329062000419565b9052565b91906200044b905f6020850194019062000427565b565b34620004865762000460366004620001e3565b620004826200046e6200068e565b62000478620000a4565b9182918262000436565b0390f35b620000aa565b61ffff1690565b6200049e816200048c565b03620004a657565b5f80fd5b90503590620004b98262000493565b565b919060808382031262000540575f83013567ffffffffffffffff81116200053a5781620004ea91850162000242565b92909360208101359167ffffffffffffffff8311620005345762000515846200053194840162000242565b939094620005278160408601620004aa565b93606001620004aa565b90565b620000b2565b620000b2565b620000ae565b3462000584576200056a6200055d366004620004bb565b9493909392919262001841565b62000574620000a4565b806200058081620001f4565b0390f35b620000aa565b34620005c257620005a8620005a136600462000287565b9062001dc3565b620005b2620000a4565b80620005be81620001f4565b0390f35b620000aa565b620005d38162000419565b03620005db57565b5f80fd5b90503590620005ee82620005c8565b565b906020828203126200060c5762000609915f01620005df565b90565b620000ae565b3462000649576200062f62000629366004620005f0565b620007f9565b62000639620000a4565b806200064581620001f4565b0390f35b620000aa565b5f80fd5b5f90565b5f1c90565b60018060a01b031690565b620006766200067c9162000657565b6200065c565b90565b6200068b905462000667565b90565b6200069862000653565b50620006a45f6200067f565b90565b620006b162000716565b620006bb620006f3565b565b90565b90565b620006dc620006d6620006e292620006bd565b620006c0565b6200040e565b90565b620006f090620006c3565b90565b62000708620007025f620006e5565b6200088f565b565b62000714620006a7565b565b620007206200068e565b6200073f6200073862000732620008fa565b62000419565b9162000419565b036200074757565b6200077662000755620008fa565b6200075f620000a4565b91829163118cdaa760e01b83526004830162000436565b0390fd5b6200078f906200078962000716565b62000791565b565b80620007b2620007ab620007a55f620006e5565b62000419565b9162000419565b14620007c557620007c3906200088f565b565b620007f5620007d45f620006e5565b620007de620000a4565b918291631e4fbdf760e01b83526004830162000436565b0390fd5b62000804906200077a565b565b5f1b90565b906200081e60018060a01b039162000806565b9181191691161790565b620008416200083b62000847926200040e565b620006c0565b6200040e565b90565b620008559062000828565b90565b62000863906200084a565b90565b90565b90620008836200087d6200088b9262000858565b62000866565b82546200080b565b9055565b6200089a5f6200067f565b620008a6825f62000869565b90620008de620008d77f8be0079c531659141344cd1fd0a4f28419497f9722a3daafe3b4186f6b6457e09362000858565b9162000858565b91620008e9620000a4565b80620008f581620001f4565b0390a3565b6200090462000653565b503390565b606090565b90565b6200092a6200092462000930926200090e565b620006c0565b620000b6565b90565b634e487b7160e01b5f52601160045260245ffd5b620009596200096091939293620000b6565b92620000b6565b916200096e838202620000b6565b9281840414901517156200097e57565b62000933565b620009966200099d91939293620000b6565b92620000b6565b8201809211620009a957565b62000933565b634e487b7160e01b5f52604160045260245ffd5b90620009cf9062000146565b810190811067ffffffffffffffff821117620009ea57604052565b620009af565b9062000a07620009ff620000a4565b9283620009c3565b565b67ffffffffffffffff811162000a2a5762000a2660209162000146565b0190565b620009af565b9062000a4662000a408362000a09565b620009f0565b918252565b369037565b9062000a7b62000a608362000a30565b9260208062000a70869362000a09565b920191039062000a4b565b565b600360fc1b90565b634e487b7160e01b5f52603260045260245ffd5b5190565b9062000aa98262000a99565b81101562000abc57600160209102010190565b62000a85565b62000adb62000ad562000ae192620006bd565b620006c0565b620000b6565b90565b600f60fb1b90565b90565b62000b0862000b0262000b0e9262000aec565b620006c0565b620000b6565b90565b62000b1c90620000b6565b5f811462000b2b576001900390565b62000933565b90565b62000b4d62000b4762000b539262000b31565b620006c0565b620000b6565b90565b60ff1690565b62000b7562000b6f62000b7b92620000b6565b620006c0565b62000b56565b90565b90565b62000b9a62000b9462000ba09262000b7e565b620006c0565b620000b6565b90565b90565b62000bbf62000bb962000bc59262000ba3565b620006c0565b62000b56565b90565b90565b62000be462000bde62000bea9262000bc8565b620006c0565b62000b56565b90565b62000bfc62000c039162000b56565b9162000b56565b019060ff821162000c1057565b62000933565b60ff60f81b1690565b60f81b90565b62000c3e62000c3862000c449262000b56565b62000c1f565b62000c16565b90565b90565b62000c6362000c5d62000c699262000c47565b620006c0565b62000b56565b90565b1c90565b62000c969062000c8f62000c8862000c9c9462000b56565b91620000b6565b9062000c6c565b620000b6565b90565b90565b919062000cae62000909565b5062000d6362000d5062000cf062000cea62000cd7600262000cd1879162000911565b62000947565b62000ce3600262000911565b9062000984565b62000a50565b9262000cfb62000a7d565b62000d168562000d0f5f935f1a9362000ac2565b9062000a9d565b5362000d2162000ae4565b62000d3d8562000d366001935f1a9362000aef565b9062000a9d565b5362000d4a600262000911565b62000947565b62000d5c600162000aef565b9062000984565b925b8362000d7d62000d76600162000aef565b91620000b6565b111562000e395762000e198162000df462000dee62000dad62000e209562000da6600f62000b34565b1662000b5c565b8362000dba600f62000b34565b1662000dd262000dcb600a62000b81565b91620000b6565b105f1462000e275762000de6603062000bcb565b5b9062000bed565b62000c25565b62000e05859188905f1a9262000a9d565b5362000e12600462000c4a565b9062000c70565b9362000b11565b9262000d65565b62000e33605762000ba6565b62000de7565b5062000e4791925062000c9f565b90565b9062000e64959493929162000e5e62000716565b6200168f565b565b90825f939282370152565b919062000e908162000e888162000e969562000118565b809562000e66565b62000146565b0190565b62000ea5906200048c565b9052565b9160609362000ef89698979562000ed562000ef09462000ee49460808801918883035f8a015262000e71565b91858303602087015262000e71565b96604083019062000e9a565b019062000e9a565b565b62000f04620000a4565b3d5f823e3d90fd5b62000f17906200084a565b90565b62000f266080620009f0565b90565b606090565b62000f3a6060620009f0565b90565b62000f4762000f2e565b90602080808462000f5762000f29565b81520162000f6462000f29565b81520162000f7162000f29565b81525050565b62000f8162000f3d565b90565b62000f8e62000f1a565b9060208080808562000f9f62000f29565b81520162000fac62000f29565b81520162000fb962000f77565b81520162000fc662000f29565b81525050565b62000fd662000f84565b90565b62000fe49062000828565b90565b6200100062000ffa62001006926200040e565b620006c0565b620000b6565b90565b90565b620010256200101f6200102b9262001009565b620006c0565b620000b6565b90565b905090565b5f7f6469643a6b6c61793a0000000000000000000000000000000000000000000000910152565b62001068600980926200102e565b620010738162001033565b0190565b620010a262001098926020926200108e8162000114565b948580936200102e565b9384910162000121565b0190565b90620010b6620010bd926200105a565b9062001077565b90565b90620010cc90620000b6565b9052565b67ffffffffffffffff8111620010f157620010ed60209162000146565b0190565b620009af565b906200110d6200110783620010d0565b620009f0565b918252565b5f7f68747470733a2f2f7777772e77332e6f72672f6e732f6469642f763100000000910152565b62001145601c620010f7565b90620011546020830162001112565b565b60207f64303231373634326263643734616536636434236b6579732d31000000000000917f6469643a6b6c61793a30786235343936646564613064316161316637626133395f8201520152565b620011af603a620010f7565b90620011be6020830162001156565b565b60207f3900000000000000000000000000000000000000000000000000000000000000917f4563647361536563703235366b31566572696669636174696f6e4b65793230315f8201520152565b620012196021620010f7565b906200122860208301620011c0565b565b60207f6430323137363432626364373461653663643400000000000000000000000000917f6469643a6b6c61793a30786235343936646564613064316161316637626133395f8201520152565b620012836033620010f7565b9062001292602083016200122a565b565b90565b620012a6620012ac91620000b6565b62001294565b9052565b620012c3620012cb916020949362001077565b809262001297565b0190565b620012e7620012dd620000a4565b92839283620012b0565b03902090565b620012f891620012cf565b90565b634e487b7160e01b5f525f60045260245ffd5b5190565b634e487b7160e01b5f52602260045260245ffd5b906001600283049216801562001349575b60208310146200134357565b62001312565b91607f169162001337565b5f5260205f2090565b601f602091010490565b1b90565b919060086200138a910291620013835f198462001367565b9262001367565b9181191691161790565b620013ad620013a7620013b392620000b6565b620006c0565b620000b6565b90565b90565b9190620013d4620013ce620013dd9362001394565b620013b6565b9083546200136b565b9055565b5f90565b620013fb91620013f4620013e1565b91620013b9565b565b5b8181106200140a575050565b80620014195f600193620013e5565b01620013fe565b9190601f811162001431575b505050565b620014406200146b9362001354565b9060206200144e846200135d565b8301931062001474575b62001463906200135d565b0190620013fd565b5f80806200142c565b9150620014638192905062001458565b9062001496905f199060080262000c6c565b191690565b81620014a79162001484565b906002021790565b90620014bb8162000114565b9067ffffffffffffffff82116200158e57620014e482620014dd855462001326565b8562001420565b602090601f83116001146200151d579180916200150b935f9262001510575b50506200149b565b90555b565b90915001515f8062001503565b601f198316916200152e8562001354565b925f5b818110620015755750916002939185600196941062001558575b505050020190556200150e565b6200156a910151601f84169062001484565b90555f80806200154b565b9193602060018192878701518155019501920162001531565b620009af565b90620015a091620014af565b565b5190565b90620015f560406002620015fc94620015cf5f8201620015c85f88016200130e565b9062001594565b620015ec60018201620015e5602088016200130e565b9062001594565b0192016200130e565b9062001594565b565b906200160a91620015a6565b565b9062001678606060056200167f94620016355f82016200162e5f88016200130e565b9062001594565b62001652600182016200164b602088016200130e565b9062001594565b6200166f600282016200166860408801620015a2565b90620015fe565b0192016200130e565b9062001594565b565b906200168d916200160c565b565b949093919294939294919091620016a5620000a4565b95610fc787019487861067ffffffffffffffff8711176200183b578796620016d696610fc762001dd28a3962000ea9565b03905ff080156200183557620016ee60209162000f0c565b6200175b6200174662001755620017306200171d620017176200171062000fcc565b9662000fd9565b62000fe7565b6200172960146200100c565b9062000ca2565b6200173a620000a4565b928391878301620010a6565b868201810382520382620009c3565b62000c9f565b82820152620017775f82016200177062001139565b90620010c0565b620017935f6040830151016200178c620011a3565b90620010c0565b620017af82604083015101620017a86200120d565b90620010c0565b620017cb60408083015101620017c462001277565b90620010c0565b5f604082015101516060820152620017f481620017ee60018585015190620012ed565b62001681565b0151620018307f5fccafd09eeeb6a3dc1c80357ee982c00d7fb00a991274a9b96fe4fd7cb605529162001826620000a4565b9182918262000189565b0390a1565b62000efa565b620009af565b9062001851959493929162000e4a565b565b90918262001866816200186e936200102e565b809362000e66565b0190565b6200188690602094936200188e9362001853565b809262001297565b0190565b9091620018ad90620018a3620000a4565b9384938462001872565b03902090565b9091620018c09262001892565b90565b905f9291805490620018e1620018d98362001326565b8094620002c3565b916001811690815f146200193f5750600114620018fe575b505050565b6200190d919293945062001354565b915f925b8184106200192657505001905f8080620018f9565b6001816020929593955484860152019101929062001911565b92949550505060ff19168252151560200201905f8080620018f9565b906200196791620018c3565b90565b906200199062001988926200197e620000a4565b938480926200195b565b0383620009c3565b565b52565b90620019f2620019e86002620019aa62000f2e565b94620019c5620019bc5f83016200196a565b5f880162001992565b620019e1620019d7600183016200196a565b6020880162001992565b016200196a565b6040840162001992565b565b52565b9062001a7062001a66600562001a0c62000f1a565b9462001a2762001a1e5f83016200196a565b5f880162001992565b62001a4362001a39600183016200196a565b6020880162001992565b62001a5f62001a556002830162001995565b60408801620019f4565b016200196a565b6060840162001992565b565b62001a7d90620019f7565b90565b62001aa09062001aa69262001a9462000fcc565b506001919091620018b3565b62001a72565b90565b9062001abf9162001ab962000716565b62001d69565b565b9062001ad6905f199060200360080262000c6c565b8154169055565b905f9162001af862001aef8262001354565b9283546200149b565b905555565b919290602082105f1462001b6357601f841160011462001b2a5762001b249293506200149b565b90555b5b565b509062001b5762001b5d93600162001b4d62001b468562001354565b926200135d565b82019101620013fd565b62001add565b62001b27565b5062001ba3829362001b7760019462001354565b62001b9b62001b86856200135d565b820192601f86168062001baf575b506200135d565b0190620013fd565b60020217905562001b28565b62001bbd9088860362001ac1565b5f62001b94565b92909168010000000000000000821162001c2d576020115f1462001c1d57602081105f1462001bfe5762001bf8916200149b565b90555b5b565b60019160ff191662001c108462001354565b5560020201905562001bfb565b6001915060020201905562001bfc565b620009af565b90815462001c418162001326565b9081831162001c6f575b81831062001c5a575b50505050565b62001c659362001afd565b5f80808062001c54565b62001c7d8383838762001bc4565b62001c4b565b5f62001c8f9162001c33565b565b905f0362001ca65762001ca49062001c83565b565b620012fb565b5f600262001cd89262001cc28380830162001c91565b62001cd1836001830162001c91565b0162001c91565b565b905f0362001cef5762001ced9062001cac565b565b620012fb565b5f600562001d309262001d0b8380830162001c91565b62001d1a836001830162001c91565b62001d29836002830162001cda565b0162001c91565b565b905f0362001d475762001d459062001cf5565b565b620012fb565b909162001d669260208301925f81850391015262000e71565b90565b62001d835f62001d7d6001848691620018b3565b62001d32565b907fb24f94d3ff75ed62d7237e14a510a969d70c1d4efdd4cce8ad563aa8ba60a64c9162001dbe62001db4620000a4565b9283928362001d4d565b0390a1565b9062001dcf9162001aa9565b56fe6080604052346200003b5762000022620000186200021b565b9291909162000590565b6200002c62000041565b6107e6620007e182396107e690f35b62000047565b60405190565b5f80fd5b601f801991011690565b634e487b7160e01b5f52604160045260245ffd5b9062000075906200004b565b810190811060018060401b038211176200008e57604052565b62000055565b90620000ab620000a362000041565b928362000069565b565b5f80fd5b5f80fd5b5f80fd5b5f80fd5b60018060401b038111620000dc57620000d86020916200004b565b0190565b62000055565b5f5b838110620000f5575050905f910152565b806020918301518185015201620000e4565b90929192620001206200011a82620000bd565b62000094565b938185526020850190828401116200013f576200013d92620000e2565b565b620000b9565b9080601f830112156200016657816020620001639351910162000107565b90565b620000b5565b61ffff1690565b6200017e816200016c565b036200018657565b5f80fd5b90505190620001998262000173565b565b60808183031262000215575f81015160018060401b0381116200020f5782620001c691830162000145565b92602082015160018060401b0381116200020957620001ec846200020692850162000145565b93620001fc81604086016200018a565b936060016200018a565b90565b620000b1565b620000b1565b620000ad565b6200023e62000fc780380380620002328162000094565b9283398101906200019b565b90919293565b5190565b634e487b7160e01b5f52602260045260245ffd5b90600160028304921680156200027f575b60208310146200027957565b62000248565b91607f16916200026d565b5f5260205f2090565b601f602091010490565b1b90565b91906008620002c0910291620002b95f19846200029d565b926200029d565b9181191691161790565b90565b90565b620002e9620002e3620002ef92620002ca565b620002cd565b620002ca565b90565b90565b9190620003106200030a6200031993620002d0565b620002f2565b908354620002a1565b9055565b5f90565b6200033791620003306200031d565b91620002f5565b565b5b81811062000346575050565b80620003555f60019362000321565b016200033a565b9190601f81116200036d575b505050565b6200037c620003a7936200028a565b9060206200038a8462000293565b83019310620003b0575b6200039f9062000293565b019062000339565b5f808062000368565b91506200039f8192905062000394565b1c90565b90620003d6905f1990600802620003c0565b191690565b81620003e791620003c4565b906002021790565b90620003fb8162000244565b9060018060401b038211620004cc5762000422826200041b85546200025c565b856200035c565b602090601f83116001146200045b5791809162000449935f926200044e575b5050620003db565b90555b565b90915001515f8062000441565b601f198316916200046c856200028a565b925f5b818110620004b35750916002939185600196941062000496575b505050020190556200044c565b620004a8910151601f841690620003c4565b90555f808062000489565b919360206001819287870151815501950192016200046f565b62000055565b90620004de91620003ef565b565b5f1b90565b90620004f461ffff91620004e0565b9181191691161790565b62000517620005116200051d926200016c565b620002cd565b6200016c565b90565b90565b906200053d620005376200054592620004fe565b62000520565b8254620004e5565b9055565b60101b90565b906200056063ffff00009162000549565b9181191691161790565b90620005846200057e6200058c92620004fe565b62000520565b82546200054f565b9055565b91620005c3620005ce92620005b9620005d99695620005af336200064d565b5f600101620004d2565b60018001620004d2565b600260010162000523565b60026001016200056a565b565b90565b60018060a01b031690565b62000602620005fc6200060892620005db565b620002cd565b620005de565b90565b6200061690620005e9565b90565b6200062490620005de565b90565b620006329062000619565b9052565b91906200064b905f6020850194019062000627565b565b806200066e62000667620006615f6200060b565b62000619565b9162000619565b1462000681576200067f9062000775565b565b620006b1620006905f6200060b565b6200069a62000041565b918291631e4fbdf760e01b83526004830162000636565b0390fd5b5f1c90565b60018060a01b031690565b620006d4620006da91620006b5565b620006ba565b90565b620006e99054620006c5565b90565b90620006ff60018060a01b0391620004e0565b9181191691161790565b620007226200071c6200072892620005de565b620002cd565b620005de565b90565b620007369062000709565b90565b62000744906200072b565b90565b90565b90620007646200075e6200076c9262000739565b62000747565b8254620006ec565b9055565b5f0190565b620007805f620006dd565b6200078c825f6200074a565b90620007c4620007bd7f8be0079c531659141344cd1fd0a4f28419497f9722a3daafe3b4186f6b6457e09362000739565b9162000739565b91620007cf62000041565b80620007db8162000770565b0390a356fe60806040526004361015610013575b6102b9565b61001d5f3561005c565b80630998d29214610057578063715018a6146100525780638da5cb5b1461004d5763f2fde38b0361000e57610286565b610210565b6101a4565b61016a565b60e01c90565b60405190565b5f80fd5b5f80fd5b5f91031261007a57565b61006c565b5190565b60209181520190565b5f5b83811061009e575050905f910152565b80602091830151818501520161008e565b601f801991011690565b6100d86100e16020936100e6936100cf8161007f565b93848093610083565b9586910161008c565b6100af565b0190565b61ffff1690565b6100fa906100ea565b9052565b9061014f90606080610132610120608085015f8801518682035f8801526100b9565b602087015185820360208701526100b9565b94610145604082015160408601906100f1565b01519101906100f1565b90565b6101679160208201915f8184039101526100fe565b90565b3461019a5761017a366004610070565b61019661018561079a565b61018d610062565b91829182610152565b0390f35b610068565b5f0190565b346101d2576101b4366004610070565b6101bc61035a565b6101c4610062565b806101ce8161019f565b0390f35b610068565b60018060a01b031690565b6101eb906101d7565b90565b6101f7906101e2565b9052565b919061020e905f602085019401906101ee565b565b3461024057610220366004610070565b61023c61022b6102f2565b610233610062565b918291826101fb565b0390f35b610068565b61024e816101e2565b0361025557565b5f80fd5b9050359061026682610245565b565b906020828203126102815761027e915f01610259565b90565b61006c565b346102b45761029e610299366004610268565b610425565b6102a6610062565b806102b08161019f565b0390f35b610068565b5f80fd5b5f90565b5f1c90565b60018060a01b031690565b6102dd6102e2916102c1565b6102c6565b90565b6102ef90546102d1565b90565b6102fa6102bd565b506103045f6102e5565b90565b61030f610364565b610317610347565b565b90565b90565b61033361032e61033892610319565b61031c565b6101d7565b90565b6103449061031f565b90565b6103586103535f61033b565b6104a7565b565b610362610307565b565b61036c6102f2565b61038561037f61037a610506565b6101e2565b916101e2565b0361038c57565b6103b5610397610506565b61039f610062565b91829163118cdaa760e01b8352600483016101fb565b0390fd5b6103ca906103c5610364565b6103cc565b565b806103e76103e16103dc5f61033b565b6101e2565b916101e2565b146103f7576103f5906104a7565b565b6104216104035f61033b565b61040b610062565b918291631e4fbdf760e01b8352600483016101fb565b0390fd5b61042e906103b9565b565b5f1b90565b9061044660018060a01b0391610430565b9181191691161790565b61046461045f610469926101d7565b61031c565b6101d7565b90565b61047590610450565b90565b6104819061046c565b90565b90565b9061049c6104976104a392610478565b610484565b8254610435565b9055565b6104b05f6102e5565b6104ba825f610487565b906104ee6104e87f8be0079c531659141344cd1fd0a4f28419497f9722a3daafe3b4186f6b6457e093610478565b91610478565b916104f7610062565b806105018161019f565b0390a3565b61050e6102bd565b503390565b634e487b7160e01b5f52604160045260245ffd5b90610531906100af565b810190811067ffffffffffffffff82111761054b57604052565b610513565b9061056361055c610062565b9283610527565b565b61056f6080610550565b90565b606090565b5f90565b610583610565565b90602080808085610592610572565b81520161059d610572565b8152016105a8610577565b8152016105b3610577565b81525050565b6105c161057b565b90565b634e487b7160e01b5f52602260045260245ffd5b90600160028304921680156105f8575b60208310146105f357565b6105c4565b91607f16916105e8565b5f5260205f2090565b905f929180549061062561061e836105d8565b8094610083565b916001811690815f1461067c5750600114610640575b505050565b61064d9192939450610602565b915f925b81841061066457505001905f808061063b565b60018160209295939554848601520191019290610651565b92949550505060ff19168252151560200201905f808061063b565b906106a19161060b565b90565b906106c46106bd926106b4610062565b93848092610697565b0383610527565b565b52565b61ffff1690565b6106dc6106e1916102c1565b6106c9565b90565b6106ee90546106d0565b90565b906106fb906100ea565b9052565b60101c90565b610711610716916106ff565b6106c9565b90565b6107239054610705565b90565b9061078c6107836002610737610565565b9461074e6107465f83016106a4565b5f88016106c6565b61076661075d600183016106a4565b602088016106c6565b61077d6107748383016106e4565b604088016106f1565b01610719565b606084016106f1565b565b61079790610726565b90565b6107a26105b9565b506107ad600161078e565b9056fea2646970667358221220905e1d947df39ba050fe312c2476013c416d54cd8bcb51d83fe92da57beff8fb64736f6c63430008150033a26469706673582212203b767716595c71a16ea1e9631575808c59995e8d9111bbfcf61b2d2672bf1ffa64736f6c63430008150033",
  "immutableReferences": {},
  "source": "// SPDX-License-Identifier: MIT\r\npragma solidity ^0.8.0;\r\n\r\nimport \"@openzeppelin/contracts/access/Ownable.sol\";\r\nimport \"./RealEstateInfo.sol\";\r\n\r\ncontract RealEstateDIDRegistry is Ownable {\r\n\r\n        struct PublicKey {\r\n        string id;\r\n        string keyType;\r\n        string controller;\r\n    }\r\n\r\n    struct DIDDocument {\r\n        string context;\r\n        string id;\r\n        PublicKey publicKey;\r\n        string authentication;\r\n    }\r\n\r\n    mapping(string => DIDDocument) didDocuments;\r\n\r\n    constructor() Ownable(msg.sender) {}\r\n\r\n    event DIDCreated(string did);\r\n    event DIDDeleted(string did);\r\n\r\n    function toHexString(uint256 value, uint length) public pure returns (string memory) {\r\n        bytes memory buffer = new bytes(2 * length + 2);\r\n        buffer[0] = '0';\r\n        buffer[1] = 'x';\r\n        for (uint i = 2 * length + 1; i > 1; --i) {\r\n            buffer[i] = bytes1(uint8(value & 0xf) + (value & 0xf < 10 ? 48 : 87));\r\n            value >>= 4;\r\n        }\r\n        return string(buffer);\r\n    }\r\n\r\n    function createDIDDocument(\r\n        string calldata _roadNameAddress,\r\n        string calldata _buildingName,\r\n        uint16  _buildingNumber,\r\n        uint16  _roomNumber) external onlyOwner {\r\n        RealEstateInfo realEstateInfo = new RealEstateInfo(\r\n        _roadNameAddress,\r\n        _buildingName,\r\n        _buildingNumber,\r\n         _roomNumber);\r\n        address identifier = address(realEstateInfo);\r\n        DIDDocument memory didDocument;\r\n        didDocument.id = string(abi.encodePacked(\"did:klay:\", toHexString(uint256(uint160(identifier)), 20)));\r\n        didDocument.context = \"https://www.w3.org/ns/did/v1\";\r\n\r\n        didDocument.publicKey.id = \"did:klay:0xb5496deda0d1aa1f7ba39d0217642bcd74ae6cd4#keys-1\";\r\n        didDocument.publicKey.keyType = \"EcdsaSecp256k1VerificationKey2019\";\r\n        didDocument.publicKey.controller = \"did:klay:0xb5496deda0d1aa1f7ba39d0217642bcd74ae6cd4\";\r\n\r\n        didDocument.authentication = didDocument.publicKey.id;\r\n\r\n        didDocuments[didDocument.id] = didDocument;\r\n\r\n        emit DIDCreated(didDocument.id);\r\n    }\r\n\r\n    function getDIDDocument(string calldata did) external view returns (DIDDocument memory) {\r\n        return didDocuments[did];\r\n    }\r\n\r\n    function deleteDIDDocument(string calldata did) external onlyOwner {\r\n        delete didDocuments[did];\r\n        emit DIDDeleted(did);\r\n    }\r\n\r\n}\r\n",
  "sourcePath": "C:\\Users\\SSAFY\\Desktop\\S10P31C203\\blockchain\\contracts\\RealEstateDIDRegistry.sol",
  "compiler": {
    "name": "solc",
    "version": "0.8.21+commit.d9974bed.Emscripten.clang"
  },
  "schemaVersion": "3.4.16",
  "updatedAt": "2024-05-14T08:09:34.469Z",
  "networkType": "ethereum",
  "devdoc": {
    "errors": {
      "OwnableInvalidOwner(address)": [
        {
          "details": "The owner is not a valid owner account. (eg. `address(0)`)"
        }
      ],
      "OwnableUnauthorizedAccount(address)": [
        {
          "details": "The caller account is not authorized to perform an operation."
        }
      ]
    },
    "kind": "dev",
    "methods": {
      "owner()": {
        "details": "Returns the address of the current owner."
      },
      "renounceOwnership()": {
        "details": "Leaves the contract without owner. It will not be possible to call `onlyOwner` functions. Can only be called by the current owner. NOTE: Renouncing ownership will leave the contract without an owner, thereby disabling any functionality that is only available to the owner."
      },
      "transferOwnership(address)": {
        "details": "Transfers ownership of the contract to a new account (`newOwner`). Can only be called by the current owner."
      }
    },
    "version": 1
  },
  "userdoc": {
    "kind": "user",
    "methods": {},
    "version": 1
  }
}