{
  "contractName": "RealEstateInfo",
  "abi": [
    {
      "inputs": [
        {
          "internalType": "string",
          "name": "_roadNameAddress",
          "type": "string"
        },
        {
          "internalType": "string",
          "name": "_buildingName",
          "type": "string"
        },
        {
          "internalType": "uint16",
          "name": "_buildingNumber",
          "type": "uint16"
        },
        {
          "internalType": "uint16",
          "name": "_roomNumber",
          "type": "uint16"
        },
        {
          "internalType": "bool",
          "name": "_isViolated",
          "type": "bool"
        },
        {
          "internalType": "bool",
          "name": "_isNotPermitted",
          "type": "bool"
        },
        {
          "internalType": "uint8",
          "name": "_estateType",
          "type": "uint8"
        },
        {
          "internalType": "string",
          "name": "_area",
          "type": "string"
        },
        {
          "internalType": "uint16",
          "name": "_date",
          "type": "uint16"
        },
        {
          "internalType": "string",
          "name": "_purpose",
          "type": "string"
        }
      ],
      "stateMutability": "nonpayable",
      "type": "constructor"
    },
    {
      "inputs": [
        {
          "internalType": "address",
          "name": "owner",
          "type": "address"
        }
      ],
      "name": "OwnableInvalidOwner",
      "type": "error"
    },
    {
      "inputs": [
        {
          "internalType": "address",
          "name": "account",
          "type": "address"
        }
      ],
      "name": "OwnableUnauthorizedAccount",
      "type": "error"
    },
    {
      "anonymous": false,
      "inputs": [
        {
          "indexed": true,
          "internalType": "address",
          "name": "previousOwner",
          "type": "address"
        },
        {
          "indexed": true,
          "internalType": "address",
          "name": "newOwner",
          "type": "address"
        }
      ],
      "name": "OwnershipTransferred",
      "type": "event"
    },
    {
      "inputs": [],
      "name": "owner",
      "outputs": [
        {
          "internalType": "address",
          "name": "",
          "type": "address"
        }
      ],
      "stateMutability": "view",
      "type": "function"
    },
    {
      "inputs": [],
      "name": "renounceOwnership",
      "outputs": [],
      "stateMutability": "nonpayable",
      "type": "function"
    },
    {
      "inputs": [
        {
          "internalType": "address",
          "name": "newOwner",
          "type": "address"
        }
      ],
      "name": "transferOwnership",
      "outputs": [],
      "stateMutability": "nonpayable",
      "type": "function"
    },
    {
      "inputs": [],
      "name": "getRealEstateInfo",
      "outputs": [
        {
          "components": [
            {
              "internalType": "string",
              "name": "roadNameAddress",
              "type": "string"
            },
            {
              "internalType": "string",
              "name": "buildingName",
              "type": "string"
            },
            {
              "internalType": "uint16",
              "name": "buildingNumber",
              "type": "uint16"
            },
            {
              "internalType": "uint16",
              "name": "roomNumber",
              "type": "uint16"
            },
            {
              "internalType": "bool",
              "name": "isViolated",
              "type": "bool"
            },
            {
              "internalType": "bool",
              "name": "isNotPermitted",
              "type": "bool"
            },
            {
              "internalType": "uint8",
              "name": "estateType",
              "type": "uint8"
            },
            {
              "internalType": "string",
              "name": "area",
              "type": "string"
            },
            {
              "internalType": "uint16",
              "name": "date",
              "type": "uint16"
            },
            {
              "internalType": "string",
              "name": "purpose",
              "type": "string"
            }
          ],
          "internalType": "struct RealEstateInfo.BasicInfo",
          "name": "",
          "type": "tuple"
        }
      ],
      "stateMutability": "view",
      "type": "function"
    }
  ],
  "bytecode": "0x60806040523462000044576200002b6200001862000313565b989790979691969592959493946200079f565b620000356200004a565b610a0462000a508239610a0490f35b62000050565b60405190565b5f80fd5b601f801991011690565b634e487b7160e01b5f52604160045260245ffd5b906200007e9062000054565b810190811060018060401b038211176200009757604052565b6200005e565b90620000b4620000ac6200004a565b928362000072565b565b5f80fd5b5f80fd5b5f80fd5b5f80fd5b60018060401b038111620000e557620000e160209162000054565b0190565b6200005e565b5f5b838110620000fe575050905f910152565b806020918301518185015201620000ed565b90929192620001296200012382620000c6565b6200009d565b9381855260208501908284011162000148576200014692620000eb565b565b620000c2565b9080601f830112156200016f578160206200016c9351910162000110565b90565b620000be565b61ffff1690565b620001878162000175565b036200018f57565b5f80fd5b90505190620001a2826200017c565b565b151590565b620001b481620001a4565b03620001bc57565b5f80fd5b90505190620001cf82620001a9565b565b60ff1690565b620001e281620001d1565b03620001ea57565b5f80fd5b90505190620001fd82620001d7565b565b90610140828203126200030d575f82015160018060401b0381116200030757816200022c9184016200014e565b92602083015160018060401b0381116200030157826200024e9185016200014e565b926200025e836040830162000193565b926200026e816060840162000193565b926200027e8260808501620001c0565b926200028e8360a08301620001c0565b926200029e8160c08401620001ee565b9260e083015160018060401b038111620002fb5782620002c09185016200014e565b92620002d183610100830162000193565b9261012082015160018060401b038111620002f557620002f292016200014e565b90565b620000ba565b620000ba565b620000ba565b620000ba565b620000b6565b6200033662001454803803806200032a816200009d565b928339810190620001ff565b90919293949596979899565b5190565b634e487b7160e01b5f52602260045260245ffd5b90600160028304921680156200037d575b60208310146200037757565b62000346565b91607f16916200036b565b5f5260205f2090565b601f602091010490565b1b90565b91906008620003be910291620003b75f19846200039b565b926200039b565b9181191691161790565b90565b90565b620003e7620003e1620003ed92620003c8565b620003cb565b620003c8565b90565b90565b91906200040e620004086200041793620003ce565b620003f0565b9083546200039f565b9055565b5f90565b62000435916200042e6200041b565b91620003f3565b565b5b81811062000444575050565b80620004535f6001936200041f565b0162000438565b9190601f81116200046b575b505050565b6200047a620004a59362000388565b906020620004888462000391565b83019310620004ae575b6200049d9062000391565b019062000437565b5f808062000466565b91506200049d8192905062000492565b1c90565b90620004d4905f1990600802620004be565b191690565b81620004e591620004c2565b906002021790565b90620004f98162000342565b9060018060401b038211620005ca5762000520826200051985546200035a565b856200045a565b602090601f8311600114620005595791809162000547935f926200054c575b5050620004d9565b90555b565b90915001515f806200053f565b601f198316916200056a8562000388565b925f5b818110620005b15750916002939185600196941062000594575b505050020190556200054a565b620005a6910151601f841690620004c2565b90555f808062000587565b919360206001819287870151815501950192016200056d565b6200005e565b90620005dc91620004ed565b565b5f1b90565b90620005f261ffff91620005de565b9181191691161790565b620006156200060f6200061b9262000175565b620003cb565b62000175565b90565b90565b906200063b620006356200064392620005fc565b6200061e565b8254620005e3565b9055565b60101b90565b906200065e63ffff00009162000647565b9181191691161790565b90620006826200067c6200068a92620005fc565b6200061e565b82546200064d565b9055565b60201b90565b90620006a664ff00000000916200068e565b9181191691161790565b620006bb90620001a4565b90565b90565b90620006db620006d5620006e392620006b0565b620006be565b825462000694565b9055565b60281b90565b906200070065ff000000000091620006e7565b9181191691161790565b90620007246200071e6200072c92620006b0565b620006be565b8254620006ed565b9055565b60301b90565b906200074a66ff0000000000009162000730565b9181191691161790565b6200076d620007676200077392620001d1565b620003cb565b620001d1565b90565b90565b90620007936200078d6200079b9262000754565b62000776565b825462000736565b9055565b94620008116200083d9895620008066200082796620007fb620008489e9d9b97620007f06200081c98620007e6620008329e620007dc33620008bc565b5f600101620005d0565b60018001620005d0565b600260010162000621565b600260010162000668565b6002600101620006c1565b60026001016200070a565b600260010162000779565b6003600101620005d0565b600460010162000621565b6005600101620005d0565b565b90565b60018060a01b031690565b620008716200086b62000877926200084a565b620003cb565b6200084d565b90565b620008859062000858565b90565b62000893906200084d565b90565b620008a19062000888565b9052565b9190620008ba905f6020850194019062000896565b565b80620008dd620008d6620008d05f6200087a565b62000888565b9162000888565b14620008f057620008ee90620009e4565b565b62000920620008ff5f6200087a565b620009096200004a565b918291631e4fbdf760e01b835260048301620008a5565b0390fd5b5f1c90565b60018060a01b031690565b62000943620009499162000924565b62000929565b90565b62000958905462000934565b90565b906200096e60018060a01b0391620005de565b9181191691161790565b620009916200098b62000997926200084d565b620003cb565b6200084d565b90565b620009a59062000978565b90565b620009b3906200099a565b90565b90565b90620009d3620009cd620009db92620009a8565b620009b6565b82546200095b565b9055565b5f0190565b620009ef5f6200094c565b620009fb825f620009b9565b9062000a3362000a2c7f8be0079c531659141344cd1fd0a4f28419497f9722a3daafe3b4186f6b6457e093620009a8565b91620009a8565b9162000a3e6200004a565b8062000a4a81620009df565b0390a356fe60806040526004361015610013575b610356565b61001d5f3561005c565b80630998d29214610057578063715018a6146100525780638da5cb5b1461004d5763f2fde38b0361000e57610323565b6102ad565b610241565b610207565b60e01c90565b60405190565b5f80fd5b5f80fd5b5f91031261007a57565b61006c565b5190565b60209181520190565b5f5b83811061009e575050905f910152565b80602091830151818501520161008e565b601f801991011690565b6100d86100e16020936100e6936100cf8161007f565b93848093610083565b9586910161008c565b6100af565b0190565b61ffff1690565b6100fa906100ea565b9052565b151590565b61010c906100fe565b9052565b60ff1690565b61011f90610110565b9052565b6101ec916101206101c661015a61014861014085015f8701518682035f8801526100b9565b602086015185820360208701526100b9565b61016c604086015160408601906100f1565b61017e606086015160608601906100f1565b61019060808601516080860190610103565b6101a260a086015160a0860190610103565b6101b460c086015160c0860190610116565b60e085015184820360e08601526100b9565b926101db6101008201516101008501906100f1565b0151906101208184039101526100b9565b90565b6102049160208201915f818403910152610123565b90565b3461023757610217366004610070565b6102336102226109b8565b61022a610062565b918291826101ef565b0390f35b610068565b5f0190565b3461026f57610251366004610070565b6102596103f7565b610261610062565b8061026b8161023c565b0390f35b610068565b60018060a01b031690565b61028890610274565b90565b6102949061027f565b9052565b91906102ab905f6020850194019061028b565b565b346102dd576102bd366004610070565b6102d96102c861038f565b6102d0610062565b91829182610298565b0390f35b610068565b6102eb8161027f565b036102f257565b5f80fd5b90503590610303826102e2565b565b9060208282031261031e5761031b915f016102f6565b90565b61006c565b346103515761033b610336366004610305565b6104c2565b610343610062565b8061034d8161023c565b0390f35b610068565b5f80fd5b5f90565b5f1c90565b60018060a01b031690565b61037a61037f9161035e565b610363565b90565b61038c905461036e565b90565b61039761035a565b506103a15f610382565b90565b6103ac610401565b6103b46103e4565b565b90565b90565b6103d06103cb6103d5926103b6565b6103b9565b610274565b90565b6103e1906103bc565b90565b6103f56103f05f6103d8565b610544565b565b6103ff6103a4565b565b61040961038f565b61042261041c6104176105a3565b61027f565b9161027f565b0361042957565b6104526104346105a3565b61043c610062565b91829163118cdaa760e01b835260048301610298565b0390fd5b61046790610462610401565b610469565b565b8061048461047e6104795f6103d8565b61027f565b9161027f565b146104945761049290610544565b565b6104be6104a05f6103d8565b6104a8610062565b918291631e4fbdf760e01b835260048301610298565b0390fd5b6104cb90610456565b565b5f1b90565b906104e360018060a01b03916104cd565b9181191691161790565b6105016104fc61050692610274565b6103b9565b610274565b90565b610512906104ed565b90565b61051e90610509565b90565b90565b9061053961053461054092610515565b610521565b82546104d2565b9055565b61054d5f610382565b610557825f610524565b9061058b6105857f8be0079c531659141344cd1fd0a4f28419497f9722a3daafe3b4186f6b6457e093610515565b91610515565b91610594610062565b8061059e8161023c565b0390a3565b6105ab61035a565b503390565b634e487b7160e01b5f52604160045260245ffd5b906105ce906100af565b810190811067ffffffffffffffff8211176105e857604052565b6105b0565b906106006105f9610062565b92836105c4565b565b61060d6101406105ed565b90565b606090565b5f90565b5f90565b5f90565b610629610602565b9060208080808080808080808b61063e610610565b815201610649610610565b815201610654610615565b81520161065f610615565b81520161066a610619565b815201610675610619565b81520161068061061d565b81520161068b610610565b815201610696610615565b8152016106a1610610565b81525050565b6106af610621565b90565b634e487b7160e01b5f52602260045260245ffd5b90600160028304921680156106e6575b60208310146106e157565b6106b2565b91607f16916106d6565b5f5260205f2090565b905f929180549061071361070c836106c6565b8094610083565b916001811690815f1461076a575060011461072e575b505050565b61073b91929394506106f0565b915f925b81841061075257505001905f8080610729565b6001816020929593955484860152019101929061073f565b92949550505060ff19168252151560200201905f8080610729565b9061078f916106f9565b90565b906107b26107ab926107a2610062565b93848092610785565b03836105c4565b565b52565b61ffff1690565b6107ca6107cf9161035e565b6107b7565b90565b6107dc90546107be565b90565b906107e9906100ea565b9052565b60101c90565b6107ff610804916107ed565b6107b7565b90565b61081190546107f3565b90565b60201c90565b60ff1690565b61082c61083191610814565b61081a565b90565b61083e9054610820565b90565b9061084b906100fe565b9052565b60281c90565b6108616108669161084f565b61081a565b90565b6108739054610855565b90565b60301c90565b60ff1690565b61088e61089391610876565b61087c565b90565b6108a09054610882565b90565b906108ad90610110565b9052565b906109aa6109a060056108c2610602565b946108d96108d15f8301610792565b5f88016107b4565b6108f16108e860018301610792565b602088016107b4565b610909610900600283016107d2565b604088016107df565b61092161091860028301610807565b606088016107df565b61093961093060028301610834565b60808801610841565b61095161094860028301610869565b60a08801610841565b61096961096060028301610896565b60c088016108a3565b61098161097860038301610792565b60e088016107b4565b61099a610990600483016107d2565b61010088016107df565b01610792565b61012084016107b4565b565b6109b5906108b1565b90565b6109c06106a7565b506109cb60016109ac565b9056fea2646970667358221220e917b45dd3f2ec6d9bb4b2c64867f439ec5b57106230a0b3d6266868c81ebc5664736f6c63430008150033",
  "immutableReferences": {},
  "source": "// SPDX-License-Identifier: MIT\r\npragma solidity ^0.8.0;\r\n\r\nimport \"@openzeppelin/contracts/access/Ownable.sol\";\r\n\r\ncontract RealEstateInfo is Ownable {\r\n    \r\n    // 부동산 기본 정보\r\n    struct BasicInfo {\r\n        string roadNameAddress; // 도로명주소\r\n        string buildingName; // 건물명\r\n        uint16 buildingNumber; // 동 번호 (아파트 동)\r\n        uint16 roomNumber; // 호수 번호\r\n        bool isViolated; //불법건축물 여부\r\n        bool isNotPermitted; //무허가건축물 여부\r\n        uint8 estateType; // 주거 유형\r\n        string area; // 면적\r\n        uint16 date; //등록 일자\r\n        string purpose; //용도\r\n    }\r\n\r\n    BasicInfo basicInfo;\r\n\r\n    constructor(\r\n        string memory _roadNameAddress,\r\n        string memory _buildingName,\r\n        uint16  _buildingNumber,\r\n        uint16 _roomNumber,\r\n        bool _isViolated,\r\n        bool _isNotPermitted,\r\n        uint8 _estateType,\r\n        string memory _area,\r\n        uint16 _date,\r\n        string memory _purpose\r\n    ) Ownable(msg.sender) {\r\n        basicInfo.roadNameAddress = _roadNameAddress;\r\n        basicInfo.buildingName = _buildingName;\r\n        basicInfo.buildingNumber = _buildingNumber;\r\n        basicInfo.roomNumber = _roomNumber;\r\n        basicInfo.isViolated = _isViolated;\r\n        basicInfo.isNotPermitted = _isNotPermitted;\r\n        basicInfo.estateType = _estateType;\r\n        basicInfo.area = _area;\r\n        basicInfo.date = _date;\r\n        basicInfo.purpose = _purpose;\r\n    }\r\n\r\n    function getRealEstateInfo() external view returns (BasicInfo memory) {\r\n        return (basicInfo);\r\n    }\r\n\r\n}",
  "sourcePath": "C:\\Users\\SSAFY\\Desktop\\S10P31C203\\blockchain\\contracts\\RealEstateInfo.sol",
  "compiler": {
    "name": "solc",
    "version": "0.8.21+commit.d9974bed.Emscripten.clang"
  },
  "schemaVersion": "3.4.16",
  "updatedAt": "2024-05-16T06:37:21.021Z",
  "devdoc": {
    "errors": {
      "OwnableInvalidOwner(address)": [
        {
          "details": "The owner is not a valid owner account. (eg. `address(0)`)"
        }
      ],
      "OwnableUnauthorizedAccount(address)": [
        {
          "details": "The caller account is not authorized to perform an operation."
        }
      ]
    },
    "kind": "dev",
    "methods": {
      "owner()": {
        "details": "Returns the address of the current owner."
      },
      "renounceOwnership()": {
        "details": "Leaves the contract without owner. It will not be possible to call `onlyOwner` functions. Can only be called by the current owner. NOTE: Renouncing ownership will leave the contract without an owner, thereby disabling any functionality that is only available to the owner."
      },
      "transferOwnership(address)": {
        "details": "Transfers ownership of the contract to a new account (`newOwner`). Can only be called by the current owner."
      }
    },
    "version": 1
  },
  "userdoc": {
    "kind": "user",
    "methods": {},
    "version": 1
  }
}