{
  "contractName": "RealEstateDIDRegistry",
  "abi": [
    {
      "inputs": [],
      "stateMutability": "nonpayable",
      "type": "constructor"
    },
    {
      "inputs": [
        {
          "internalType": "address",
          "name": "owner",
          "type": "address"
        }
      ],
      "name": "OwnableInvalidOwner",
      "type": "error"
    },
    {
      "inputs": [
        {
          "internalType": "address",
          "name": "account",
          "type": "address"
        }
      ],
      "name": "OwnableUnauthorizedAccount",
      "type": "error"
    },
    {
      "anonymous": false,
      "inputs": [
        {
          "indexed": false,
          "internalType": "string",
          "name": "did",
          "type": "string"
        }
      ],
      "name": "DIDCreated",
      "type": "event"
    },
    {
      "anonymous": false,
      "inputs": [
        {
          "indexed": false,
          "internalType": "string",
          "name": "did",
          "type": "string"
        }
      ],
      "name": "DIDDeleted",
      "type": "event"
    },
    {
      "anonymous": false,
      "inputs": [
        {
          "indexed": true,
          "internalType": "address",
          "name": "previousOwner",
          "type": "address"
        },
        {
          "indexed": true,
          "internalType": "address",
          "name": "newOwner",
          "type": "address"
        }
      ],
      "name": "OwnershipTransferred",
      "type": "event"
    },
    {
      "inputs": [],
      "name": "owner",
      "outputs": [
        {
          "internalType": "address",
          "name": "",
          "type": "address"
        }
      ],
      "stateMutability": "view",
      "type": "function"
    },
    {
      "inputs": [],
      "name": "renounceOwnership",
      "outputs": [],
      "stateMutability": "nonpayable",
      "type": "function"
    },
    {
      "inputs": [
        {
          "internalType": "address",
          "name": "newOwner",
          "type": "address"
        }
      ],
      "name": "transferOwnership",
      "outputs": [],
      "stateMutability": "nonpayable",
      "type": "function"
    },
    {
      "inputs": [
        {
          "internalType": "uint256",
          "name": "value",
          "type": "uint256"
        },
        {
          "internalType": "uint256",
          "name": "length",
          "type": "uint256"
        }
      ],
      "name": "toHexString",
      "outputs": [
        {
          "internalType": "string",
          "name": "",
          "type": "string"
        }
      ],
      "stateMutability": "pure",
      "type": "function"
    },
    {
      "inputs": [],
      "name": "createDIDDocument",
      "outputs": [],
      "stateMutability": "nonpayable",
      "type": "function"
    },
    {
      "inputs": [
        {
          "internalType": "string",
          "name": "did",
          "type": "string"
        }
      ],
      "name": "getDIDDocument",
      "outputs": [
        {
          "components": [
            {
              "internalType": "string",
              "name": "context",
              "type": "string"
            },
            {
              "internalType": "string",
              "name": "id",
              "type": "string"
            },
            {
              "components": [
                {
                  "internalType": "string",
                  "name": "id",
                  "type": "string"
                },
                {
                  "internalType": "string",
                  "name": "keyType",
                  "type": "string"
                },
                {
                  "internalType": "string",
                  "name": "controller",
                  "type": "string"
                }
              ],
              "internalType": "struct RealEstateDIDRegistry.PublicKey",
              "name": "publicKey",
              "type": "tuple"
            },
            {
              "internalType": "string",
              "name": "authentication",
              "type": "string"
            }
          ],
          "internalType": "struct RealEstateDIDRegistry.DIDDocument",
          "name": "",
          "type": "tuple"
        }
      ],
      "stateMutability": "view",
      "type": "function"
    },
    {
      "inputs": [
        {
          "internalType": "string",
          "name": "did",
          "type": "string"
        }
      ],
      "name": "deleteDIDDocument",
      "outputs": [],
      "stateMutability": "nonpayable",
      "type": "function"
    }
  ],
  "bytecode": "0x608060405234801562000010575f80fd5b50335f73ffffffffffffffffffffffffffffffffffffffff168173ffffffffffffffffffffffffffffffffffffffff160362000085575f6040517f1e4fbdf70000000000000000000000000000000000000000000000000000000081526004016200007c9190620001a1565b60405180910390fd5b62000096816200009d60201b60201c565b50620001bc565b5f805f9054906101000a900473ffffffffffffffffffffffffffffffffffffffff169050815f806101000a81548173ffffffffffffffffffffffffffffffffffffffff021916908373ffffffffffffffffffffffffffffffffffffffff1602179055508173ffffffffffffffffffffffffffffffffffffffff168173ffffffffffffffffffffffffffffffffffffffff167f8be0079c531659141344cd1fd0a4f28419497f9722a3daafe3b4186f6b6457e060405160405180910390a35050565b5f73ffffffffffffffffffffffffffffffffffffffff82169050919050565b5f62000189826200015e565b9050919050565b6200019b816200017d565b82525050565b5f602082019050620001b65f83018462000190565b92915050565b61376580620001ca5f395ff3fe608060405234801562000010575f80fd5b506004361062000086575f3560e01c8063784afc4e1162000061578063784afc4e14620000d85780638da5cb5b146200010e578063b9a463841462000130578063f2fde38b14620001505762000086565b806363e1cbea146200008a578063659b28df14620000c0578063715018a614620000cc575b5f80fd5b620000a86004803603810190620000a2919062000d9d565b62000170565b604051620000b7919062000e76565b60405180910390f35b620000ca6200036c565b005b620000d6620005c3565b005b620000f66004803603810190620000f0919062000f02565b620005da565b60405162000105919062001083565b60405180910390f35b62000118620009bb565b604051620001279190620010e8565b60405180910390f35b6200014e600480360381019062000148919062000f02565b620009e2565b005b6200016e600480360381019062000168919062001132565b62000abb565b005b60605f60028360026200018491906200118f565b620001909190620011d9565b67ffffffffffffffff811115620001ac57620001ab62001213565b5b6040519080825280601f01601f191660200182016040528015620001df5781602001600182028036833780820191505090505b5090507f3000000000000000000000000000000000000000000000000000000000000000815f8151811062000219576200021862001240565b5b60200101907effffffffffffffffffffffffffffffffffffffffffffffffffffffffffffff191690815f1a9053507f7800000000000000000000000000000000000000000000000000000000000000816001815181106200027f576200027e62001240565b5b60200101907effffffffffffffffffffffffffffffffffffffffffffffffffffffffffffff191690815f1a9053505f6001846002620002bf91906200118f565b620002cb9190620011d9565b90505b60018111156200036157600a600f861610620002ec576057620002ef565b60305b600f8616620002ff919062001279565b60f81b82828151811062000318576200031762001240565b5b60200101907effffffffffffffffffffffffffffffffffffffffffffffffffffffffffffff191690815f1a905350600485901c9450806200035990620012b4565b9050620002ce565b508091505092915050565b6200037662000b46565b5f33604051620003869062000c9e565b620003929190620010e8565b604051809103905ff080158015620003ac573d5f803e3d5ffd5b509050620003b962000cac565b620003dc8273ffffffffffffffffffffffffffffffffffffffff16601462000170565b604051602001620003ee91906200136e565b60405160208183030381529060405281602001819052506040518060400160405280601c81526020017f68747470733a2f2f7777772e77332e6f72672f6e732f6469642f763100000000815250815f01819052506040518060600160405280603a8152602001620036a2603a913981604001515f0181905250604051806060016040528060218152602001620036dc60219139816040015160200181905250604051806060016040528060338152602001620036fd6033913981604001516040018190525080604001515f015181606001819052508060018260200151604051620004da919062001393565b90815260200160405180910390205f820151815f019081620004fd9190620015cf565b506020820151816001019081620005159190620015cf565b506040820151816002015f820151815f019081620005349190620015cf565b5060208201518160010190816200054c9190620015cf565b506040820151816002019081620005649190620015cf565b50505060608201518160050190816200057e9190620015cf565b509050507f5fccafd09eeeb6a3dc1c80357ee982c00d7fb00a991274a9b96fe4fd7cb605528160200151604051620005b7919062000e76565b60405180910390a15050565b620005cd62000b46565b620005d85f62000bd6565b565b620005e462000cac565b60018383604051620005f8929190620016e9565b90815260200160405180910390206040518060800160405290815f820180546200062290620013d8565b80601f01602080910402602001604051908101604052809291908181526020018280546200065090620013d8565b80156200069f5780601f1062000675576101008083540402835291602001916200069f565b820191905f5260205f20905b8154815290600101906020018083116200068157829003601f168201915b50505050508152602001600182018054620006ba90620013d8565b80601f0160208091040260200160405190810160405280929190818152602001828054620006e890620013d8565b8015620007375780601f106200070d5761010080835404028352916020019162000737565b820191905f5260205f20905b8154815290600101906020018083116200071957829003601f168201915b50505050508152602001600282016040518060600160405290815f820180546200076190620013d8565b80601f01602080910402602001604051908101604052809291908181526020018280546200078f90620013d8565b8015620007de5780601f10620007b457610100808354040283529160200191620007de565b820191905f5260205f20905b815481529060010190602001808311620007c057829003601f168201915b50505050508152602001600182018054620007f990620013d8565b80601f01602080910402602001604051908101604052809291908181526020018280546200082790620013d8565b8015620008765780601f106200084c5761010080835404028352916020019162000876565b820191905f5260205f20905b8154815290600101906020018083116200085857829003601f168201915b505050505081526020016002820180546200089190620013d8565b80601f0160208091040260200160405190810160405280929190818152602001828054620008bf90620013d8565b80156200090e5780601f10620008e4576101008083540402835291602001916200090e565b820191905f5260205f20905b815481529060010190602001808311620008f057829003601f168201915b50505050508152505081526020016005820180546200092d90620013d8565b80601f01602080910402602001604051908101604052809291908181526020018280546200095b90620013d8565b8015620009aa5780601f106200098057610100808354040283529160200191620009aa565b820191905f5260205f20905b8154815290600101906020018083116200098c57829003601f168201915b505050505081525050905092915050565b5f805f9054906101000a900473ffffffffffffffffffffffffffffffffffffffff16905090565b620009ec62000b46565b6001828260405162000a00929190620016e9565b90815260200160405180910390205f8082015f62000a1f919062000cdc565b600182015f62000a30919062000cdc565b600282015f8082015f62000a45919062000cdc565b600182015f62000a56919062000cdc565b600282015f62000a67919062000cdc565b5050600582015f62000a7a919062000cdc565b50507fb24f94d3ff75ed62d7237e14a510a969d70c1d4efdd4cce8ad563aa8ba60a64c828260405162000aaf92919062001735565b60405180910390a15050565b62000ac562000b46565b5f73ffffffffffffffffffffffffffffffffffffffff168173ffffffffffffffffffffffffffffffffffffffff160362000b38575f6040517f1e4fbdf700000000000000000000000000000000000000000000000000000000815260040162000b2f9190620010e8565b60405180910390fd5b62000b438162000bd6565b50565b62000b5062000c97565b73ffffffffffffffffffffffffffffffffffffffff1662000b70620009bb565b73ffffffffffffffffffffffffffffffffffffffff161462000bd45762000b9662000c97565b6040517f118cdaa700000000000000000000000000000000000000000000000000000000815260040162000bcb9190620010e8565b60405180910390fd5b565b5f805f9054906101000a900473ffffffffffffffffffffffffffffffffffffffff169050815f806101000a81548173ffffffffffffffffffffffffffffffffffffffff021916908373ffffffffffffffffffffffffffffffffffffffff1602179055508173ffffffffffffffffffffffffffffffffffffffff168173ffffffffffffffffffffffffffffffffffffffff167f8be0079c531659141344cd1fd0a4f28419497f9722a3daafe3b4186f6b6457e060405160405180910390a35050565b5f33905090565b611f48806200175a83390190565b6040518060800160405280606081526020016060815260200162000ccf62000d1f565b8152602001606081525090565b50805462000cea90620013d8565b5f825580601f1062000cfd575062000d1c565b601f0160209004905f5260205f209081019062000d1b919062000d40565b5b50565b60405180606001604052806060815260200160608152602001606081525090565b5b8082111562000d59575f815f90555060010162000d41565b5090565b5f80fd5b5f80fd5b5f819050919050565b62000d798162000d65565b811462000d84575f80fd5b50565b5f8135905062000d978162000d6e565b92915050565b5f806040838503121562000db65762000db562000d5d565b5b5f62000dc58582860162000d87565b925050602062000dd88582860162000d87565b9150509250929050565b5f81519050919050565b5f82825260208201905092915050565b5f5b8381101562000e1b57808201518184015260208101905062000dfe565b5f8484015250505050565b5f601f19601f8301169050919050565b5f62000e428262000de2565b62000e4e818562000dec565b935062000e6081856020860162000dfc565b62000e6b8162000e26565b840191505092915050565b5f6020820190508181035f83015262000e90818462000e36565b905092915050565b5f80fd5b5f80fd5b5f80fd5b5f8083601f84011262000ebc5762000ebb62000e98565b5b8235905067ffffffffffffffff81111562000edc5762000edb62000e9c565b5b60208301915083600182028301111562000efb5762000efa62000ea0565b5b9250929050565b5f806020838503121562000f1b5762000f1a62000d5d565b5b5f83013567ffffffffffffffff81111562000f3b5762000f3a62000d61565b5b62000f498582860162000ea4565b92509250509250929050565b5f82825260208201905092915050565b5f62000f718262000de2565b62000f7d818562000f55565b935062000f8f81856020860162000dfc565b62000f9a8162000e26565b840191505092915050565b5f606083015f8301518482035f86015262000fc1828262000f65565b9150506020830151848203602086015262000fdd828262000f65565b9150506040830151848203604086015262000ff9828262000f65565b9150508091505092915050565b5f608083015f8301518482035f86015262001022828262000f65565b915050602083015184820360208601526200103e828262000f65565b915050604083015184820360408601526200105a828262000fa5565b9150506060830151848203606086015262001076828262000f65565b9150508091505092915050565b5f6020820190508181035f8301526200109d818462001006565b905092915050565b5f73ffffffffffffffffffffffffffffffffffffffff82169050919050565b5f620010d082620010a5565b9050919050565b620010e281620010c4565b82525050565b5f602082019050620010fd5f830184620010d7565b92915050565b6200110e81620010c4565b811462001119575f80fd5b50565b5f813590506200112c8162001103565b92915050565b5f602082840312156200114a576200114962000d5d565b5b5f62001159848285016200111c565b91505092915050565b7f4e487b71000000000000000000000000000000000000000000000000000000005f52601160045260245ffd5b5f6200119b8262000d65565b9150620011a88362000d65565b9250828202620011b88162000d65565b91508282048414831517620011d257620011d162001162565b5b5092915050565b5f620011e58262000d65565b9150620011f28362000d65565b92508282019050808211156200120d576200120c62001162565b5b92915050565b7f4e487b71000000000000000000000000000000000000000000000000000000005f52604160045260245ffd5b7f4e487b71000000000000000000000000000000000000000000000000000000005f52603260045260245ffd5b5f60ff82169050919050565b5f62001285826200126d565b915062001292836200126d565b9250828201905060ff811115620012ae57620012ad62001162565b5b92915050565b5f620012c08262000d65565b91505f8203620012d557620012d462001162565b5b600182039050919050565b5f81905092915050565b7f6469643a6b6c61793a00000000000000000000000000000000000000000000005f82015250565b5f62001320600983620012e0565b91506200132d82620012ea565b600982019050919050565b5f620013448262000de2565b620013508185620012e0565b93506200136281856020860162000dfc565b80840191505092915050565b5f6200137a8262001312565b915062001388828462001338565b915081905092915050565b5f620013a0828462001338565b915081905092915050565b7f4e487b71000000000000000000000000000000000000000000000000000000005f52602260045260245ffd5b5f6002820490506001821680620013f057607f821691505b602082108103620014065762001405620013ab565b5b50919050565b5f819050815f5260205f209050919050565b5f6020601f8301049050919050565b5f82821b905092915050565b5f600883026200146a7fffffffffffffffffffffffffffffffffffffffffffffffffffffffffffffffff826200142d565b6200147686836200142d565b95508019841693508086168417925050509392505050565b5f819050919050565b5f620014b7620014b1620014ab8462000d65565b6200148e565b62000d65565b9050919050565b5f819050919050565b620014d28362001497565b620014ea620014e182620014be565b84845462001439565b825550505050565b5f90565b62001500620014f2565b6200150d818484620014c7565b505050565b5b818110156200153457620015285f82620014f6565b60018101905062001513565b5050565b601f82111562001583576200154d816200140c565b62001558846200141e565b8101602085101562001568578190505b6200158062001577856200141e565b83018262001512565b50505b505050565b5f82821c905092915050565b5f620015a55f198460080262001588565b1980831691505092915050565b5f620015bf838362001594565b9150826002028217905092915050565b620015da8262000de2565b67ffffffffffffffff811115620015f657620015f562001213565b5b620016028254620013d8565b6200160f82828562001538565b5f60209050601f83116001811462001645575f841562001630578287015190505b6200163c8582620015b2565b865550620016ab565b601f19841662001655866200140c565b5f5b828110156200167e5784890151825560018201915060208501945060208101905062001657565b868310156200169e57848901516200169a601f89168262001594565b8355505b6001600288020188555050505b505050505050565b828183375f83830152505050565b5f620016ce8385620012e0565b9350620016dd838584620016b3565b82840190509392505050565b5f620016f7828486620016c1565b91508190509392505050565b5f62001710838562000dec565b93506200171f838584620016b3565b6200172a8362000e26565b840190509392505050565b5f6020820190508181035f8301526200175081848662001703565b9050939250505056fe608060405234801562000010575f80fd5b5060405162001f4838038062001f488339818101604052810190620000369190620001e9565b805f73ffffffffffffffffffffffffffffffffffffffff168173ffffffffffffffffffffffffffffffffffffffff1603620000aa575f6040517f1e4fbdf7000000000000000000000000000000000000000000000000000000008152600401620000a191906200022a565b60405180910390fd5b620000bb81620000c360201b60201c565b505062000245565b5f805f9054906101000a900473ffffffffffffffffffffffffffffffffffffffff169050815f806101000a81548173ffffffffffffffffffffffffffffffffffffffff021916908373ffffffffffffffffffffffffffffffffffffffff1602179055508173ffffffffffffffffffffffffffffffffffffffff168173ffffffffffffffffffffffffffffffffffffffff167f8be0079c531659141344cd1fd0a4f28419497f9722a3daafe3b4186f6b6457e060405160405180910390a35050565b5f80fd5b5f73ffffffffffffffffffffffffffffffffffffffff82169050919050565b5f620001b38262000188565b9050919050565b620001c581620001a7565b8114620001d0575f80fd5b50565b5f81519050620001e381620001ba565b92915050565b5f6020828403121562000201576200020062000184565b5b5f6200021084828501620001d3565b91505092915050565b6200022481620001a7565b82525050565b5f6020820190506200023f5f83018462000219565b92915050565b611cf580620002535f395ff3fe608060405234801561000f575f80fd5b5060043610610086575f3560e01c8063a2f21d2d11610059578063a2f21d2d146100ee578063dc92b8601461010a578063e250e83814610126578063f2fde38b1461014257610086565b80630998d2921461008a57806357b05dfd146100aa578063715018a6146100c65780638da5cb5b146100d0575b5f80fd5b61009261015e565b6040516100a193929190611468565b60405180910390f35b6100c460048036038101906100bf9190611619565b610b2e565b005b6100ce610bd9565b005b6100d8610bec565b6040516100e591906116f4565b60405180910390f35b61010860048036038101906101039190611737565b610c13565b005b610124600480360381019061011f9190611848565b610cc9565b005b610140600480360381019061013b9190611737565b610e1c565b005b61015c600480360381019061015791906119c2565b610ed3565b005b6101666110a6565b61016e6110d4565b6101766110fa565b60016004600e826040518060800160405290815f8201805461019790611a1a565b80601f01602080910402602001604051908101604052809291908181526020018280546101c390611a1a565b801561020e5780601f106101e55761010080835404028352916020019161020e565b820191905f5260205f20905b8154815290600101906020018083116101f157829003601f168201915b5050505050815260200160018201805461022790611a1a565b80601f016020809104026020016040519081016040528092919081815260200182805461025390611a1a565b801561029e5780601f106102755761010080835404028352916020019161029e565b820191905f5260205f20905b81548152906001019060200180831161028157829003601f168201915b50505050508152602001600282015f9054906101000a900461ffff1661ffff1661ffff1681526020016002820160029054906101000a900461ffff1661ffff1661ffff16815250509250816040518060400160405290815f82016040518060a00160405290815f82015f9054906101000a900460ff1660ff1660ff16815260200160018201805461032e90611a1a565b80601f016020809104026020016040519081016040528092919081815260200182805461035a90611a1a565b80156103a55780601f1061037c576101008083540402835291602001916103a5565b820191905f5260205f20905b81548152906001019060200180831161038857829003601f168201915b505050505081526020016002820180546103be90611a1a565b80601f01602080910402602001604051908101604052809291908181526020018280546103ea90611a1a565b80156104355780601f1061040c57610100808354040283529160200191610435565b820191905f5260205f20905b81548152906001019060200180831161041857829003601f168201915b5050505050815260200160038201805461044e90611a1a565b80601f016020809104026020016040519081016040528092919081815260200182805461047a90611a1a565b80156104c55780601f1061049c576101008083540402835291602001916104c5565b820191905f5260205f20905b8154815290600101906020018083116104a857829003601f168201915b505050505081526020016004820180546104de90611a1a565b80601f016020809104026020016040519081016040528092919081815260200182805461050a90611a1a565b80156105555780601f1061052c57610100808354040283529160200191610555565b820191905f5260205f20905b81548152906001019060200180831161053857829003601f168201915b5050505050815250508152602001600582016040518060a00160405290815f82015f9054906101000a900460ff1660ff1660ff16815260200160018201805461059d90611a1a565b80601f01602080910402602001604051908101604052809291908181526020018280546105c990611a1a565b80156106145780601f106105eb57610100808354040283529160200191610614565b820191905f5260205f20905b8154815290600101906020018083116105f757829003601f168201915b5050505050815260200160028201805461062d90611a1a565b80601f016020809104026020016040519081016040528092919081815260200182805461065990611a1a565b80156106a45780601f1061067b576101008083540402835291602001916106a4565b820191905f5260205f20905b81548152906001019060200180831161068757829003601f168201915b505050505081526020016003820180546106bd90611a1a565b80601f01602080910402602001604051908101604052809291908181526020018280546106e990611a1a565b80156107345780601f1061070b57610100808354040283529160200191610734565b820191905f5260205f20905b81548152906001019060200180831161071757829003601f168201915b5050505050815260200160048201805461074d90611a1a565b80601f016020809104026020016040519081016040528092919081815260200182805461077990611a1a565b80156107c45780601f1061079b576101008083540402835291602001916107c4565b820191905f5260205f20905b8154815290600101906020018083116107a757829003601f168201915b50505050508152505081525050915080604051806101200160405290815f82015f9054906101000a900460ff161515151581526020015f820160019054906101000a900460ff161515151581526020015f820160029054906101000a900461ffff1661ffff1661ffff1681526020015f820160049054906101000a900461ffff1661ffff1661ffff16815260200160018201805461086190611a1a565b80601f016020809104026020016040519081016040528092919081815260200182805461088d90611a1a565b80156108d85780601f106108af576101008083540402835291602001916108d8565b820191905f5260205f20905b8154815290600101906020018083116108bb57829003601f168201915b505050505081526020016002820180546108f190611a1a565b80601f016020809104026020016040519081016040528092919081815260200182805461091d90611a1a565b80156109685780601f1061093f57610100808354040283529160200191610968565b820191905f5260205f20905b81548152906001019060200180831161094b57829003601f168201915b5050505050815260200160038201805461098190611a1a565b80601f01602080910402602001604051908101604052809291908181526020018280546109ad90611a1a565b80156109f85780601f106109cf576101008083540402835291602001916109f8565b820191905f5260205f20905b8154815290600101906020018083116109db57829003601f168201915b50505050508152602001600482018054610a1190611a1a565b80601f0160208091040260200160405190810160405280929190818152602001828054610a3d90611a1a565b8015610a885780601f10610a5f57610100808354040283529160200191610a88565b820191905f5260205f20905b815481529060010190602001808311610a6b57829003601f168201915b50505050508152602001600582018054610aa190611a1a565b80601f0160208091040260200160405190810160405280929190818152602001828054610acd90611a1a565b8015610b185780601f10610aef57610100808354040283529160200191610b18565b820191905f5260205f20905b815481529060010190602001808311610afb57829003601f168201915b5050505050815250509050925092509250909192565b610b36610f57565b60405180608001604052808581526020018481526020018361ffff1681526020018261ffff1681525060015f820151815f019081610b749190611bf0565b506020820151816001019081610b8a9190611bf0565b506040820151816002015f6101000a81548161ffff021916908361ffff16021790555060608201518160020160026101000a81548161ffff021916908361ffff16021790555090505050505050565b610be1610f57565b610bea5f610fde565b565b5f805f9054906101000a900473ffffffffffffffffffffffffffffffffffffffff16905090565b610c1b610f57565b6040518060a001604052808660ff1681526020018581526020018481526020018381526020018281525060045f015f820151815f015f6101000a81548160ff021916908360ff1602179055506020820151816001019081610c7c9190611bf0565b506040820151816002019081610c929190611bf0565b506060820151816003019081610ca89190611bf0565b506080820151816004019081610cbe9190611bf0565b509050505050505050565b610cd1610f57565b6040518061012001604052808a1515815260200189151581526020018861ffff1681526020018761ffff16815260200186815260200185815260200184815260200183815260200182815250600e5f820151815f015f6101000a81548160ff0219169083151502179055506020820151815f0160016101000a81548160ff0219169083151502179055506040820151815f0160026101000a81548161ffff021916908361ffff1602179055506060820151815f0160046101000a81548161ffff021916908361ffff1602179055506080820151816001019081610db49190611bf0565b5060a0820151816002019081610dca9190611bf0565b5060c0820151816003019081610de09190611bf0565b5060e0820151816004019081610df69190611bf0565b50610100820151816005019081610e0d9190611bf0565b50905050505050505050505050565b610e24610f57565b6040518060a001604052808660ff1681526020018581526020018481526020018381526020018281525060046005015f820151815f015f6101000a81548160ff021916908360ff1602179055506020820151816001019081610e869190611bf0565b506040820151816002019081610e9c9190611bf0565b506060820151816003019081610eb29190611bf0565b506080820151816004019081610ec89190611bf0565b509050505050505050565b610edb610f57565b5f73ffffffffffffffffffffffffffffffffffffffff168173ffffffffffffffffffffffffffffffffffffffff1603610f4b575f6040517f1e4fbdf7000000000000000000000000000000000000000000000000000000008152600401610f4291906116f4565b60405180910390fd5b610f5481610fde565b50565b610f5f61109f565b73ffffffffffffffffffffffffffffffffffffffff16610f7d610bec565b73ffffffffffffffffffffffffffffffffffffffff1614610fdc57610fa061109f565b6040517f118cdaa7000000000000000000000000000000000000000000000000000000008152600401610fd391906116f4565b60405180910390fd5b565b5f805f9054906101000a900473ffffffffffffffffffffffffffffffffffffffff169050815f806101000a81548173ffffffffffffffffffffffffffffffffffffffff021916908373ffffffffffffffffffffffffffffffffffffffff1602179055508173ffffffffffffffffffffffffffffffffffffffff168173ffffffffffffffffffffffffffffffffffffffff167f8be0079c531659141344cd1fd0a4f28419497f9722a3daafe3b4186f6b6457e060405160405180910390a35050565b5f33905090565b604051806080016040528060608152602001606081526020015f61ffff1681526020015f61ffff1681525090565b60405180604001604052806110e761114e565b81526020016110f461114e565b81525090565b6040518061012001604052805f151581526020015f151581526020015f61ffff1681526020015f61ffff16815260200160608152602001606081526020016060815260200160608152602001606081525090565b6040518060a001604052805f60ff168152602001606081526020016060815260200160608152602001606081525090565b5f81519050919050565b5f82825260208201905092915050565b5f5b838110156111b657808201518184015260208101905061119b565b5f8484015250505050565b5f601f19601f8301169050919050565b5f6111db8261117f565b6111e58185611189565b93506111f5818560208601611199565b6111fe816111c1565b840191505092915050565b5f61ffff82169050919050565b61121f81611209565b82525050565b5f608083015f8301518482035f86015261123f82826111d1565b9150506020830151848203602086015261125982826111d1565b915050604083015161126e6040860182611216565b5060608301516112816060860182611216565b508091505092915050565b5f60ff82169050919050565b6112a18161128c565b82525050565b5f60a083015f8301516112bc5f860182611298565b50602083015184820360208601526112d482826111d1565b915050604083015184820360408601526112ee82826111d1565b9150506060830151848203606086015261130882826111d1565b9150506080830151848203608086015261132282826111d1565b9150508091505092915050565b5f604083015f8301518482035f86015261134982826112a7565b9150506020830151848203602086015261136382826112a7565b9150508091505092915050565b5f8115159050919050565b61138481611370565b82525050565b5f61012083015f8301516113a05f86018261137b565b5060208301516113b3602086018261137b565b5060408301516113c66040860182611216565b5060608301516113d96060860182611216565b50608083015184820360808601526113f182826111d1565b91505060a083015184820360a086015261140b82826111d1565b91505060c083015184820360c086015261142582826111d1565b91505060e083015184820360e086015261143f82826111d1565b91505061010083015184820361010086015261145b82826111d1565b9150508091505092915050565b5f6060820190508181035f8301526114808186611225565b90508181036020830152611494818561132f565b905081810360408301526114a8818461138a565b9050949350505050565b5f604051905090565b5f80fd5b5f80fd5b5f80fd5b5f80fd5b7f4e487b71000000000000000000000000000000000000000000000000000000005f52604160045260245ffd5b611501826111c1565b810181811067ffffffffffffffff821117156115205761151f6114cb565b5b80604052505050565b5f6115326114b2565b905061153e82826114f8565b919050565b5f67ffffffffffffffff82111561155d5761155c6114cb565b5b611566826111c1565b9050602081019050919050565b828183375f83830152505050565b5f61159361158e84611543565b611529565b9050828152602081018484840111156115af576115ae6114c7565b5b6115ba848285611573565b509392505050565b5f82601f8301126115d6576115d56114c3565b5b81356115e6848260208601611581565b91505092915050565b6115f881611209565b8114611602575f80fd5b50565b5f81359050611613816115ef565b92915050565b5f805f8060808587031215611631576116306114bb565b5b5f85013567ffffffffffffffff81111561164e5761164d6114bf565b5b61165a878288016115c2565b945050602085013567ffffffffffffffff81111561167b5761167a6114bf565b5b611687878288016115c2565b935050604061169887828801611605565b92505060606116a987828801611605565b91505092959194509250565b5f73ffffffffffffffffffffffffffffffffffffffff82169050919050565b5f6116de826116b5565b9050919050565b6116ee816116d4565b82525050565b5f6020820190506117075f8301846116e5565b92915050565b6117168161128c565b8114611720575f80fd5b50565b5f813590506117318161170d565b92915050565b5f805f805f60a086880312156117505761174f6114bb565b5b5f61175d88828901611723565b955050602086013567ffffffffffffffff81111561177e5761177d6114bf565b5b61178a888289016115c2565b945050604086013567ffffffffffffffff8111156117ab576117aa6114bf565b5b6117b7888289016115c2565b935050606086013567ffffffffffffffff8111156117d8576117d76114bf565b5b6117e4888289016115c2565b925050608086013567ffffffffffffffff811115611805576118046114bf565b5b611811888289016115c2565b9150509295509295909350565b61182781611370565b8114611831575f80fd5b50565b5f813590506118428161181e565b92915050565b5f805f805f805f805f6101208a8c031215611866576118656114bb565b5b5f6118738c828d01611834565b99505060206118848c828d01611834565b98505060406118958c828d01611605565b97505060606118a68c828d01611605565b96505060808a013567ffffffffffffffff8111156118c7576118c66114bf565b5b6118d38c828d016115c2565b95505060a08a013567ffffffffffffffff8111156118f4576118f36114bf565b5b6119008c828d016115c2565b94505060c08a013567ffffffffffffffff811115611921576119206114bf565b5b61192d8c828d016115c2565b93505060e08a013567ffffffffffffffff81111561194e5761194d6114bf565b5b61195a8c828d016115c2565b9250506101008a013567ffffffffffffffff81111561197c5761197b6114bf565b5b6119888c828d016115c2565b9150509295985092959850929598565b6119a1816116d4565b81146119ab575f80fd5b50565b5f813590506119bc81611998565b92915050565b5f602082840312156119d7576119d66114bb565b5b5f6119e4848285016119ae565b91505092915050565b7f4e487b71000000000000000000000000000000000000000000000000000000005f52602260045260245ffd5b5f6002820490506001821680611a3157607f821691505b602082108103611a4457611a436119ed565b5b50919050565b5f819050815f5260205f209050919050565b5f6020601f8301049050919050565b5f82821b905092915050565b5f60088302611aa67fffffffffffffffffffffffffffffffffffffffffffffffffffffffffffffffff82611a6b565b611ab08683611a6b565b95508019841693508086168417925050509392505050565b5f819050919050565b5f819050919050565b5f611af4611aef611aea84611ac8565b611ad1565b611ac8565b9050919050565b5f819050919050565b611b0d83611ada565b611b21611b1982611afb565b848454611a77565b825550505050565b5f90565b611b35611b29565b611b40818484611b04565b505050565b5b81811015611b6357611b585f82611b2d565b600181019050611b46565b5050565b601f821115611ba857611b7981611a4a565b611b8284611a5c565b81016020851015611b91578190505b611ba5611b9d85611a5c565b830182611b45565b50505b505050565b5f82821c905092915050565b5f611bc85f1984600802611bad565b1980831691505092915050565b5f611be08383611bb9565b9150826002028217905092915050565b611bf98261117f565b67ffffffffffffffff811115611c1257611c116114cb565b5b611c1c8254611a1a565b611c27828285611b67565b5f60209050601f831160018114611c58575f8415611c46578287015190505b611c508582611bd5565b865550611cb7565b601f198416611c6686611a4a565b5f5b82811015611c8d57848901518255600182019150602085019450602081019050611c68565b86831015611caa5784890151611ca6601f891682611bb9565b8355505b6001600288020188555050505b50505050505056fea2646970667358221220894146943f92dcfd08d0a23e100afed521fe7ffe1951102e441f883d47c760ef64736f6c634300081500336469643a6b6c61793a307862353439366465646130643161613166376261333964303231373634326263643734616536636434236b6579732d314563647361536563703235366b31566572696669636174696f6e4b6579323031396469643a6b6c61793a307862353439366465646130643161613166376261333964303231373634326263643734616536636434a2646970667358221220143e0442272a1e7f9b34bada504ffea54d67542078267aa8e600e65f3421ab9c64736f6c63430008150033",
  "immutableReferences": {},
  "source": "// SPDX-License-Identifier: MIT\r\npragma solidity ^0.8.0;\r\n\r\nimport \"@openzeppelin/contracts/access/Ownable.sol\";\r\nimport \"./RealEstateInfo.sol\";\r\n\r\ncontract RealEstateDIDRegistry is Ownable {\r\n\r\n        struct PublicKey {\r\n        string id;\r\n        string keyType;\r\n        string controller;\r\n    }\r\n\r\n    struct DIDDocument {\r\n        string context;\r\n        string id;\r\n        PublicKey publicKey;\r\n        string authentication;\r\n    }\r\n\r\n    mapping(string => DIDDocument) didDocuments;\r\n\r\n    constructor() Ownable(msg.sender) {}\r\n\r\n    event DIDCreated(string did);\r\n    event DIDDeleted(string did);\r\n\r\n    function toHexString(uint256 value, uint length) public pure returns (string memory) {\r\n        bytes memory buffer = new bytes(2 * length + 2);\r\n        buffer[0] = '0';\r\n        buffer[1] = 'x';\r\n        for (uint i = 2 * length + 1; i > 1; --i) {\r\n            buffer[i] = bytes1(uint8(value & 0xf) + (value & 0xf < 10 ? 48 : 87));\r\n            value >>= 4;\r\n        }\r\n        return string(buffer);\r\n    }\r\n\r\n    function createDIDDocument() external onlyOwner {\r\n        address identifier = address(new RealEstateInfo(msg.sender));\r\n        DIDDocument memory didDocument;\r\n        didDocument.id = string(abi.encodePacked(\"did:klay:\", toHexString(uint256(uint160(identifier)), 20)));\r\n        didDocument.context = \"https://www.w3.org/ns/did/v1\";\r\n\r\n        didDocument.publicKey.id = \"did:klay:0xb5496deda0d1aa1f7ba39d0217642bcd74ae6cd4#keys-1\";\r\n        didDocument.publicKey.keyType = \"EcdsaSecp256k1VerificationKey2019\";\r\n        didDocument.publicKey.controller = \"did:klay:0xb5496deda0d1aa1f7ba39d0217642bcd74ae6cd4\";\r\n\r\n        didDocument.authentication = didDocument.publicKey.id;\r\n\r\n        didDocuments[didDocument.id] = didDocument;\r\n\r\n        emit DIDCreated(didDocument.id);\r\n    }\r\n\r\n    function getDIDDocument(string calldata did) external view returns (DIDDocument memory) {\r\n        return didDocuments[did];\r\n    }\r\n\r\n    function deleteDIDDocument(string calldata did) external onlyOwner {\r\n        delete didDocuments[did];\r\n        emit DIDDeleted(did);\r\n    }\r\n\r\n}\r\n",
  "sourcePath": "C:\\Users\\SSAFY\\Desktop\\S10P31C203\\blockchain\\contracts\\RealEstateDIDRegistry.sol",
  "compiler": {
    "name": "solc",
    "version": "0.8.21+commit.d9974bed.Emscripten.clang"
  },
  "schemaVersion": "3.4.16",
  "updatedAt": "2024-05-14T01:23:49.832Z",
  "devdoc": {
    "errors": {
      "OwnableInvalidOwner(address)": [
        {
          "details": "The owner is not a valid owner account. (eg. `address(0)`)"
        }
      ],
      "OwnableUnauthorizedAccount(address)": [
        {
          "details": "The caller account is not authorized to perform an operation."
        }
      ]
    },
    "kind": "dev",
    "methods": {
      "owner()": {
        "details": "Returns the address of the current owner."
      },
      "renounceOwnership()": {
        "details": "Leaves the contract without owner. It will not be possible to call `onlyOwner` functions. Can only be called by the current owner. NOTE: Renouncing ownership will leave the contract without an owner, thereby disabling any functionality that is only available to the owner."
      },
      "transferOwnership(address)": {
        "details": "Transfers ownership of the contract to a new account (`newOwner`). Can only be called by the current owner."
      }
    },
    "version": 1
  },
  "userdoc": {
    "kind": "user",
    "methods": {},
    "version": 1
  }
}