{
  "contractName": "TaxPayment",
  "abi": [
    {
      "inputs": [
        {
          "internalType": "address",
          "name": "_payerAddress",
          "type": "address"
        }
      ],
      "stateMutability": "nonpayable",
      "type": "constructor"
    },
    {
      "inputs": [
        {
          "internalType": "address",
          "name": "owner",
          "type": "address"
        }
      ],
      "name": "OwnableInvalidOwner",
      "type": "error"
    },
    {
      "inputs": [
        {
          "internalType": "address",
          "name": "account",
          "type": "address"
        }
      ],
      "name": "OwnableUnauthorizedAccount",
      "type": "error"
    },
    {
      "anonymous": false,
      "inputs": [
        {
          "indexed": false,
          "internalType": "uint256",
          "name": "klay",
          "type": "uint256"
        }
      ],
      "name": "AcquisitionTaxPaid",
      "type": "event"
    },
    {
      "anonymous": false,
      "inputs": [
        {
          "indexed": false,
          "internalType": "uint256",
          "name": "klay",
          "type": "uint256"
        }
      ],
      "name": "CapitalGainsTaxPaid",
      "type": "event"
    },
    {
      "anonymous": false,
      "inputs": [
        {
          "indexed": true,
          "internalType": "address",
          "name": "previousOwner",
          "type": "address"
        },
        {
          "indexed": true,
          "internalType": "address",
          "name": "newOwner",
          "type": "address"
        }
      ],
      "name": "OwnershipTransferred",
      "type": "event"
    },
    {
      "anonymous": false,
      "inputs": [
        {
          "indexed": false,
          "internalType": "uint256",
          "name": "klay",
          "type": "uint256"
        }
      ],
      "name": "PropertyTaxPaid",
      "type": "event"
    },
    {
      "inputs": [],
      "name": "owner",
      "outputs": [
        {
          "internalType": "address",
          "name": "",
          "type": "address"
        }
      ],
      "stateMutability": "view",
      "type": "function"
    },
    {
      "inputs": [],
      "name": "renounceOwnership",
      "outputs": [],
      "stateMutability": "nonpayable",
      "type": "function"
    },
    {
      "inputs": [
        {
          "internalType": "address",
          "name": "newOwner",
          "type": "address"
        }
      ],
      "name": "transferOwnership",
      "outputs": [],
      "stateMutability": "nonpayable",
      "type": "function"
    },
    {
      "inputs": [],
      "name": "payPropertyTax",
      "outputs": [],
      "stateMutability": "payable",
      "type": "function"
    },
    {
      "inputs": [],
      "name": "payAcquisitionTax",
      "outputs": [],
      "stateMutability": "payable",
      "type": "function"
    },
    {
      "inputs": [],
      "name": "payCapitalGainsTax",
      "outputs": [],
      "stateMutability": "payable",
      "type": "function"
    }
  ],
  "bytecode": "0x60806040523462000037576200001e6200001862000110565b620001d0565b620000286200003d565b6109e6620003a282396109e690f35b62000043565b60405190565b5f80fd5b601f801991011690565b634e487b7160e01b5f52604160045260245ffd5b90620000719062000047565b810190811060018060401b038211176200008a57604052565b62000051565b90620000a76200009f6200003d565b928362000065565b565b5f80fd5b60018060a01b031690565b620000c390620000ad565b90565b620000d181620000b8565b03620000d957565b5f80fd5b90505190620000ec82620000c6565b565b906020828203126200010a5762000107915f01620000dd565b90565b620000a9565b6200013362000d8880380380620001278162000090565b928339810190620000ee565b90565b90565b620001526200014c6200015892620000ad565b62000136565b620000ad565b90565b620001669062000139565b90565b62000174906200015b565b90565b5f1b90565b906200018f60018060a01b039162000177565b9181191691161790565b620001a4906200015b565b90565b90565b90620001c4620001be620001cc9262000199565b620001a7565b82546200017c565b9055565b620001ea620001f291620001e4336200024d565b62000169565b6001620001aa565b565b90565b620002106200020a6200021692620001f4565b62000136565b620000ad565b90565b6200022490620001f7565b90565b6200023290620000b8565b9052565b91906200024b905f6020850194019062000227565b565b806200026e62000267620002615f62000219565b620000b8565b91620000b8565b1462000281576200027f9062000336565b565b620002b1620002905f62000219565b6200029a6200003d565b918291631e4fbdf760e01b83526004830162000236565b0390fd5b5f1c90565b60018060a01b031690565b620002d4620002da91620002b5565b620002ba565b90565b620002e99054620002c5565b90565b620002f79062000139565b90565b6200030590620002ec565b90565b90565b90620003256200031f6200032d92620002fa565b62000308565b82546200017c565b9055565b5f0190565b620003415f620002dd565b6200034d825f6200030b565b90620003856200037e7f8be0079c531659141344cd1fd0a4f28419497f9722a3daafe3b4186f6b6457e093620002fa565b91620002fa565b91620003906200003d565b806200039c8162000331565b0390a356fe60806040526004361015610013575b610234565b61001d5f3561007c565b8063715018a6146100775780638da5cb5b14610072578063a5c4ab1f1461006d578063d267732f14610068578063db72c6b8146100635763f2fde38b0361000e57610201565b610197565b61016e565b610145565b610110565b6100a4565b60e01c90565b60405190565b5f80fd5b5f80fd5b5f91031261009a57565b61008c565b5f0190565b346100d2576100b4366004610090565b6100bc6102d5565b6100c4610082565b806100ce8161009f565b0390f35b610088565b60018060a01b031690565b6100eb906100d7565b90565b6100f7906100e2565b9052565b919061010e905f602085019401906100ee565b565b3461014057610120366004610090565b61013c61012b61026d565b610133610082565b918291826100fb565b0390f35b610088565b610150366004610090565b6101586107a0565b610160610082565b8061016a8161009f565b0390f35b610179366004610090565b610181610900565b610189610082565b806101938161009f565b0390f35b6101a2366004610090565b6101aa610850565b6101b2610082565b806101bc8161009f565b0390f35b6101c9816100e2565b036101d057565b5f80fd5b905035906101e1826101c0565b565b906020828203126101fc576101f9915f016101d4565b90565b61008c565b3461022f576102196102143660046101e3565b6103a0565b610221610082565b8061022b8161009f565b0390f35b610088565b5f80fd5b5f90565b5f1c90565b60018060a01b031690565b61025861025d9161023c565b610241565b90565b61026a905461024c565b90565b610275610238565b5061027f5f610260565b90565b61028a6102df565b6102926102c2565b565b90565b90565b6102ae6102a96102b392610294565b610297565b6100d7565b90565b6102bf9061029a565b90565b6102d36102ce5f6102b6565b610422565b565b6102dd610282565b565b6102e761026d565b6103006102fa6102f5610481565b6100e2565b916100e2565b0361030757565b610330610312610481565b61031a610082565b91829163118cdaa760e01b8352600483016100fb565b0390fd5b610345906103406102df565b610347565b565b8061036261035c6103575f6102b6565b6100e2565b916100e2565b146103725761037090610422565b565b61039c61037e5f6102b6565b610386610082565b918291631e4fbdf760e01b8352600483016100fb565b0390fd5b6103a990610334565b565b5f1b90565b906103c160018060a01b03916103ab565b9181191691161790565b6103df6103da6103e4926100d7565b610297565b6100d7565b90565b6103f0906103cb565b90565b6103fc906103e7565b90565b90565b9061041761041261041e926103f3565b6103ff565b82546103b0565b9055565b61042b5f610260565b610435825f610402565b906104696104637f8be0079c531659141344cd1fd0a4f28419497f9722a3daafe3b4186f6b6457e0936103f3565b916103f3565b91610472610082565b8061047c8161009f565b0390a3565b610489610238565b503390565b90565b6104a56104a06104aa92610294565b610297565b61048e565b90565b60209181520190565b5f7f596f75206e65656420746f2073656e6420736f6d65204b4c4159000000000000910152565b6104ea601a6020926104ad565b6104f3816104b6565b0190565b61050c9060208101905f8183039101526104dd565b90565b1561051657565b61051e610082565b62461bcd60e51b815280610534600482016104f7565b0390fd5b60018060a01b031690565b61054f6105549161023c565b610538565b90565b6105619054610543565b90565b61056d906103e7565b90565b5f7f496e636f727265637420436f6e74726163742041646472657373000000000000910152565b6105a4601a6020926104ad565b6105ad81610570565b0190565b6105c69060208101905f818303910152610597565b90565b156105d057565b6105d8610082565b62461bcd60e51b8152806105ee600482016105b1565b0390fd5b905090565b6106025f80926105f2565b0190565b61060f906105f7565b90565b601f801991011690565b634e487b7160e01b5f52604160045260245ffd5b9061063a90610612565b810190811067ffffffffffffffff82111761065457604052565b61061c565b9061066c610665610082565b9283610630565b565b67ffffffffffffffff811161068c57610688602091610612565b0190565b61061c565b906106a361069e8361066e565b610659565b918252565b606090565b3d5f146106c8576106bd3d610691565b903d5f602084013e5b565b6106d06106a8565b906106c6565b60207f63636f756e740000000000000000000000000000000000000000000000000000917f4661696c656420746f2073656e64204b4c415920746f207468652074617820615f8201520152565b61073060266040926104ad565b610739816106d6565b0190565b6107529060208101905f818303910152610723565b90565b1561075c57565b610764610082565b62461bcd60e51b81528061077a6004820161073d565b0390fd5b6107879061048e565b9052565b919061079e905f6020850194019061077e565b565b6107bc346107b66107b05f610491565b9161048e565b1161050f565b6107e1336107db6107d56107d06001610557565b610564565b916100e2565b146105c9565b6108145f806107ee61026d565b346107f7610082565b908161080281610606565b03925af161080e6106ad565b50610755565b3461084b7fb627800d159178f8a9d0f20d919e336b48c3a0f910513831897871ac77a4627391610842610082565b9182918261078b565b0390a1565b61086c346108666108605f610491565b9161048e565b1161050f565b6108913361088b6108856108806001610557565b610564565b916100e2565b146105c9565b6108c45f8061089e61026d565b346108a7610082565b90816108b281610606565b03925af16108be6106ad565b50610755565b346108fb7f932aea04ae675778c045416b67dc8d486ffde60351e811a0a208a5888891f1b5916108f2610082565b9182918261078b565b0390a1565b61091c346109166109105f610491565b9161048e565b1161050f565b6109413361093b6109356109306001610557565b610564565b916100e2565b146105c9565b6109745f8061094e61026d565b34610957610082565b908161096281610606565b03925af161096e6106ad565b50610755565b346109ab7fd0572805d790e0d28bb993c858da272484755e34742342d9ad07203e04d896dc916109a2610082565b9182918261078b565b0390a156fea2646970667358221220435e30064b9f170e31e6e11a0c1bffc78ac2221ec7f0f0f9ddca7af416605ecc64736f6c63430008150033",
  "immutableReferences": {},
  "source": "// SPDX-License-Identifier: MIT\r\npragma solidity ^0.8.0;\r\n\r\nimport \"@openzeppelin/contracts/access/Ownable.sol\";\r\n\r\ncontract TaxPayment is Ownable {\r\n\r\n    address payable private payerAccount;\r\n\r\n    constructor(address _payerAddress) Ownable(msg.sender) {\r\n        payerAccount=payable(_payerAddress);\r\n    }\r\n\r\n    event PropertyTaxPaid(uint256 klay);\r\n    event AcquisitionTaxPaid(uint256 klay);\r\n    event CapitalGainsTaxPaid(uint256 klay);\r\n\r\n    function payPropertyTax() external payable {\r\n        require(msg.value > 0, \"You need to send some KLAY\");\r\n        require(msg.sender==payerAccount, \"Incorrect Contract Address\");\r\n        (bool sent, ) = owner().call{value: msg.value}(\"\");\r\n        require(sent, \"Failed to send KLAY to the tax account\");\r\n        emit PropertyTaxPaid(msg.value);\r\n    }\r\n\r\n    function payAcquisitionTax() external payable {\r\n        require(msg.value > 0, \"You need to send some KLAY\");\r\n        require(msg.sender==payerAccount, \"Incorrect Contract Address\");\r\n        (bool sent, ) = owner().call{value: msg.value}(\"\");\r\n        require(sent, \"Failed to send KLAY to the tax account\");\r\n        emit AcquisitionTaxPaid(msg.value);\r\n    }\r\n\r\n    function payCapitalGainsTax() external payable {\r\n        require(msg.value > 0, \"You need to send some KLAY\");\r\n        require(msg.sender==payerAccount, \"Incorrect Contract Address\");\r\n        (bool sent, ) = owner().call{value: msg.value}(\"\");\r\n        require(sent, \"Failed to send KLAY to the tax account\");\r\n        emit CapitalGainsTaxPaid(msg.value);\r\n    }\r\n\r\n}",
  "sourcePath": "C:\\Users\\SSAFY\\Desktop\\S10P31C203\\blockchain\\contracts\\TaxPayment.sol",
  "compiler": {
    "name": "solc",
    "version": "0.8.21+commit.d9974bed.Emscripten.clang"
  },
  "schemaVersion": "3.4.16",
  "updatedAt": "2024-05-17T06:44:13.103Z",
  "devdoc": {
    "errors": {
      "OwnableInvalidOwner(address)": [
        {
          "details": "The owner is not a valid owner account. (eg. `address(0)`)"
        }
      ],
      "OwnableUnauthorizedAccount(address)": [
        {
          "details": "The caller account is not authorized to perform an operation."
        }
      ]
    },
    "kind": "dev",
    "methods": {
      "owner()": {
        "details": "Returns the address of the current owner."
      },
      "renounceOwnership()": {
        "details": "Leaves the contract without owner. It will not be possible to call `onlyOwner` functions. Can only be called by the current owner. NOTE: Renouncing ownership will leave the contract without an owner, thereby disabling any functionality that is only available to the owner."
      },
      "transferOwnership(address)": {
        "details": "Transfers ownership of the contract to a new account (`newOwner`). Can only be called by the current owner."
      }
    },
    "version": 1
  },
  "userdoc": {
    "kind": "user",
    "methods": {},
    "version": 1
  }
}