{
  "contractName": "TaxPayment",
  "abi": [
    {
      "inputs": [
        {
          "internalType": "address",
          "name": "_owner",
          "type": "address"
        }
      ],
      "stateMutability": "nonpayable",
      "type": "constructor"
    },
    {
      "inputs": [
        {
          "internalType": "address",
          "name": "owner",
          "type": "address"
        }
      ],
      "name": "OwnableInvalidOwner",
      "type": "error"
    },
    {
      "inputs": [
        {
          "internalType": "address",
          "name": "account",
          "type": "address"
        }
      ],
      "name": "OwnableUnauthorizedAccount",
      "type": "error"
    },
    {
      "anonymous": false,
      "inputs": [
        {
          "indexed": false,
          "internalType": "uint256",
          "name": "klay",
          "type": "uint256"
        }
      ],
      "name": "AcquisitionTaxPaid",
      "type": "event"
    },
    {
      "anonymous": false,
      "inputs": [
        {
          "indexed": false,
          "internalType": "uint256",
          "name": "klay",
          "type": "uint256"
        }
      ],
      "name": "CapitalGainsTaxPaid",
      "type": "event"
    },
    {
      "anonymous": false,
      "inputs": [
        {
          "indexed": true,
          "internalType": "address",
          "name": "previousOwner",
          "type": "address"
        },
        {
          "indexed": true,
          "internalType": "address",
          "name": "newOwner",
          "type": "address"
        }
      ],
      "name": "OwnershipTransferred",
      "type": "event"
    },
    {
      "inputs": [],
      "name": "owner",
      "outputs": [
        {
          "internalType": "address",
          "name": "",
          "type": "address"
        }
      ],
      "stateMutability": "view",
      "type": "function"
    },
    {
      "inputs": [],
      "name": "renounceOwnership",
      "outputs": [],
      "stateMutability": "nonpayable",
      "type": "function"
    },
    {
      "inputs": [
        {
          "internalType": "address",
          "name": "newOwner",
          "type": "address"
        }
      ],
      "name": "transferOwnership",
      "outputs": [],
      "stateMutability": "nonpayable",
      "type": "function"
    },
    {
      "inputs": [],
      "name": "payAcquisitionTax",
      "outputs": [],
      "stateMutability": "payable",
      "type": "function"
    },
    {
      "inputs": [],
      "name": "payCapitalGainsTax",
      "outputs": [],
      "stateMutability": "payable",
      "type": "function"
    },
    {
      "inputs": [
        {
          "internalType": "address payable",
          "name": "_newTaxAccount",
          "type": "address"
        }
      ],
      "name": "setBankAccount",
      "outputs": [],
      "stateMutability": "nonpayable",
      "type": "function"
    }
  ],
  "bytecode": "0x60806040523462000037576200001e6200001862000110565b620001d0565b620000286200003d565b610973620003b6823961097390f35b62000043565b60405190565b5f80fd5b601f801991011690565b634e487b7160e01b5f52604160045260245ffd5b90620000719062000047565b810190811060018060401b038211176200008a57604052565b62000051565b90620000a76200009f6200003d565b928362000065565b565b5f80fd5b60018060a01b031690565b620000c390620000ad565b90565b620000d181620000b8565b03620000d957565b5f80fd5b90505190620000ec82620000c6565b565b906020828203126200010a5762000107915f01620000dd565b90565b620000a9565b6200013362000d2980380380620001278162000090565b928339810190620000ee565b90565b90565b620001526200014c6200015892620000ad565b62000136565b620000ad565b90565b620001669062000139565b90565b62000174906200015b565b90565b5f1b90565b906200018f60018060a01b039162000177565b9181191691161790565b620001a4906200015b565b90565b90565b90620001c4620001be620001cc9262000199565b620001a7565b82546200017c565b9055565b620001db9062000261565b62000206620001fe73cd48b32650621694240fafb2d467cdb52fd9579562000169565b6001620001aa565b565b90565b620002246200021e6200022a9262000208565b62000136565b620000ad565b90565b62000238906200020b565b90565b6200024690620000b8565b9052565b91906200025f905f602085019401906200023b565b565b80620002826200027b620002755f6200022d565b620000b8565b91620000b8565b14620002955762000293906200034a565b565b620002c5620002a45f6200022d565b620002ae6200003d565b918291631e4fbdf760e01b8352600483016200024a565b0390fd5b5f1c90565b60018060a01b031690565b620002e8620002ee91620002c9565b620002ce565b90565b620002fd9054620002d9565b90565b6200030b9062000139565b90565b620003199062000300565b90565b90565b90620003396200033362000341926200030e565b6200031c565b82546200017c565b9055565b5f0190565b620003555f620002f1565b62000361825f6200031f565b9062000399620003927f8be0079c531659141344cd1fd0a4f28419497f9722a3daafe3b4186f6b6457e0936200030e565b916200030e565b91620003a46200003d565b80620003b08162000345565b0390a356fe60806040526004361015610013575b61028b565b61001d5f3561007c565b8063376791a114610077578063715018a6146100725780638da5cb5b1461006d578063d267732f14610068578063db72c6b8146100635763f2fde38b0361000e57610258565b6101ee565b6101c5565b610190565b61012f565b6100ed565b60e01c90565b60405190565b5f80fd5b5f80fd5b60018060a01b031690565b6100a490610090565b90565b6100b08161009b565b036100b757565b5f80fd5b905035906100c8826100a7565b565b906020828203126100e3576100e0915f016100bb565b90565b61008c565b5f0190565b3461011b576101056101003660046100ca565b610932565b61010d610082565b80610117816100e8565b0390f35b610088565b5f91031261012a57565b61008c565b3461015d5761013f366004610120565b61014761032c565b61014f610082565b80610159816100e8565b0390f35b610088565b61016b90610090565b90565b61017790610162565b9052565b919061018e905f6020850194019061016e565b565b346101c0576101a0366004610120565b6101bc6101ab6102c4565b6101b3610082565b9182918261017b565b0390f35b610088565b6101d0366004610120565b6101d86108cd565b6101e0610082565b806101ea816100e8565b0390f35b6101f9366004610120565b61020161081c565b610209610082565b80610213816100e8565b0390f35b61022081610162565b0361022757565b5f80fd5b9050359061023882610217565b565b9060208282031261025357610250915f0161022b565b90565b61008c565b346102865761027061026b36600461023a565b6103f7565b610278610082565b80610282816100e8565b0390f35b610088565b5f80fd5b5f90565b5f1c90565b60018060a01b031690565b6102af6102b491610293565b610298565b90565b6102c190546102a3565b90565b6102cc61028f565b506102d65f6102b7565b90565b6102e1610336565b6102e9610319565b565b90565b90565b61030561030061030a926102eb565b6102ee565b610090565b90565b610316906102f1565b90565b61032a6103255f61030d565b610479565b565b6103346102d9565b565b61033e6102c4565b61035761035161034c6104d8565b610162565b91610162565b0361035e57565b6103876103696104d8565b610371610082565b91829163118cdaa760e01b83526004830161017b565b0390fd5b61039c90610397610336565b61039e565b565b806103b96103b36103ae5f61030d565b610162565b91610162565b146103c9576103c790610479565b565b6103f36103d55f61030d565b6103dd610082565b918291631e4fbdf760e01b83526004830161017b565b0390fd5b6104009061038b565b565b5f1b90565b9061041860018060a01b0391610402565b9181191691161790565b61043661043161043b92610090565b6102ee565b610090565b90565b61044790610422565b90565b6104539061043e565b90565b90565b9061046e6104696104759261044a565b610456565b8254610407565b9055565b6104825f6102b7565b61048c825f610459565b906104c06104ba7f8be0079c531659141344cd1fd0a4f28419497f9722a3daafe3b4186f6b6457e09361044a565b9161044a565b916104c9610082565b806104d3816100e8565b0390a3565b6104e061028f565b503390565b6104ed610336565b6104f5610787565b565b90565b61050e610509610513926102eb565b6102ee565b6104f7565b90565b60209181520190565b5f7f596f75206e65656420746f2073656e6420736f6d65204b4c4159000000000000910152565b610553601a602092610516565b61055c8161051f565b0190565b6105759060208101905f818303910152610546565b90565b1561057f57565b610587610082565b62461bcd60e51b81528061059d60048201610560565b0390fd5b60018060a01b031690565b6105b86105bd91610293565b6105a1565b90565b6105ca90546105ac565b90565b6105d69061043e565b90565b905090565b6105e95f80926105d9565b0190565b6105f6906105de565b90565b601f801991011690565b634e487b7160e01b5f52604160045260245ffd5b90610621906105f9565b810190811067ffffffffffffffff82111761063b57604052565b610603565b9061065361064c610082565b9283610617565b565b67ffffffffffffffff81116106735761066f6020916105f9565b0190565b610603565b9061068a61068583610655565b610640565b918252565b606090565b3d5f146106af576106a43d610678565b903d5f602084013e5b565b6106b761068f565b906106ad565b60207f63636f756e740000000000000000000000000000000000000000000000000000917f4661696c656420746f2073656e64204b4c415920746f207468652074617820615f8201520152565b6107176026604092610516565b610720816106bd565b0190565b6107399060208101905f81830391015261070a565b90565b1561074357565b61074b610082565b62461bcd60e51b81528061076160048201610724565b0390fd5b61076e906104f7565b9052565b9190610785905f60208501940190610765565b565b6107a33461079d6107975f6104fa565b916104f7565b11610578565b6107e05f806107ba6107b560016105c0565b6105cd565b346107c3610082565b90816107ce816105ed565b03925af16107da610694565b5061073c565b346108177f932aea04ae675778c045416b67dc8d486ffde60351e811a0a208a5888891f1b59161080e610082565b91829182610772565b0390a1565b6108246104e5565b565b61082e610336565b610836610838565b565b6108543461084e6108485f6104fa565b916104f7565b11610578565b6108915f8061086b61086660016105c0565b6105cd565b34610874610082565b908161087f816105ed565b03925af161088b610694565b5061073c565b346108c87fd0572805d790e0d28bb993c858da272484755e34742342d9ad07203e04d896dc916108bf610082565b91829182610772565b0390a1565b6108d5610826565b565b6108e8906108e3610336565b610925565b565b6108f390610422565b90565b6108ff906108ea565b90565b90565b9061091a610915610921926108f6565b610902565b8254610407565b9055565b610930906001610905565b565b61093b906108d7565b56fea26469706673582212203ca6348ee13fa0de27bd139d682a696f86911bc849b31523f880f8b19752ea3d64736f6c63430008150033",
  "immutableReferences": {},
  "source": "// SPDX-License-Identifier: MIT\r\npragma solidity ^0.8.0;\r\n\r\nimport \"@openzeppelin/contracts/access/Ownable.sol\";\r\n\r\ncontract TaxPayment is Ownable {\r\n\r\n    address payable private taxAccount;\r\n\r\n    constructor(address _owner) Ownable(_owner) {\r\n        taxAccount = payable(0xcd48B32650621694240FAFB2D467CdB52fd95795);\r\n    }\r\n\r\n    event AcquisitionTaxPaid(uint256 klay);\r\n    event CapitalGainsTaxPaid(uint256 klay);\r\n\r\n    function payAcquisitionTax() external payable onlyOwner {\r\n        require(msg.value > 0, \"You need to send some KLAY\");\r\n        (bool sent, ) = taxAccount.call{value: msg.value}(\"\");\r\n        require(sent, \"Failed to send KLAY to the tax account\");\r\n        emit AcquisitionTaxPaid(msg.value);\r\n    }\r\n\r\n    function payCapitalGainsTax() external payable onlyOwner {\r\n        require(msg.value > 0, \"You need to send some KLAY\");\r\n        (bool sent, ) = taxAccount.call{value: msg.value}(\"\");\r\n        require(sent, \"Failed to send KLAY to the tax account\");\r\n        emit CapitalGainsTaxPaid(msg.value);\r\n    }\r\n\r\n    function setBankAccount(address payable _newTaxAccount) public onlyOwner {\r\n        taxAccount = _newTaxAccount;\r\n    }\r\n\r\n}",
  "sourcePath": "C:\\Users\\SSAFY\\Desktop\\S10P31C203\\blockchain\\contracts\\TaxPayment.sol",
  "compiler": {
    "name": "solc",
    "version": "0.8.21+commit.d9974bed.Emscripten.clang"
  },
  "schemaVersion": "3.4.16",
  "updatedAt": "2024-05-14T08:09:25.741Z",
  "devdoc": {
    "errors": {
      "OwnableInvalidOwner(address)": [
        {
          "details": "The owner is not a valid owner account. (eg. `address(0)`)"
        }
      ],
      "OwnableUnauthorizedAccount(address)": [
        {
          "details": "The caller account is not authorized to perform an operation."
        }
      ]
    },
    "kind": "dev",
    "methods": {
      "owner()": {
        "details": "Returns the address of the current owner."
      },
      "renounceOwnership()": {
        "details": "Leaves the contract without owner. It will not be possible to call `onlyOwner` functions. Can only be called by the current owner. NOTE: Renouncing ownership will leave the contract without an owner, thereby disabling any functionality that is only available to the owner."
      },
      "transferOwnership(address)": {
        "details": "Transfers ownership of the contract to a new account (`newOwner`). Can only be called by the current owner."
      }
    },
    "version": 1
  },
  "userdoc": {
    "kind": "user",
    "methods": {},
    "version": 1
  }
}