{
  "contractName": "TaxPayment",
  "abi": [
    {
      "inputs": [
        {
          "internalType": "address",
          "name": "_owner",
          "type": "address"
        }
      ],
      "stateMutability": "nonpayable",
      "type": "constructor"
    },
    {
      "inputs": [
        {
          "internalType": "address",
          "name": "owner",
          "type": "address"
        }
      ],
      "name": "OwnableInvalidOwner",
      "type": "error"
    },
    {
      "inputs": [
        {
          "internalType": "address",
          "name": "account",
          "type": "address"
        }
      ],
      "name": "OwnableUnauthorizedAccount",
      "type": "error"
    },
    {
      "anonymous": false,
      "inputs": [
        {
          "indexed": false,
          "internalType": "uint256",
          "name": "klay",
          "type": "uint256"
        }
      ],
      "name": "AcquisitionTaxPaid",
      "type": "event"
    },
    {
      "anonymous": false,
      "inputs": [
        {
          "indexed": false,
          "internalType": "uint256",
          "name": "klay",
          "type": "uint256"
        }
      ],
      "name": "CapitalGainsTaxPaid",
      "type": "event"
    },
    {
      "anonymous": false,
      "inputs": [
        {
          "indexed": true,
          "internalType": "address",
          "name": "previousOwner",
          "type": "address"
        },
        {
          "indexed": true,
          "internalType": "address",
          "name": "newOwner",
          "type": "address"
        }
      ],
      "name": "OwnershipTransferred",
      "type": "event"
    },
    {
      "inputs": [],
      "name": "owner",
      "outputs": [
        {
          "internalType": "address",
          "name": "",
          "type": "address"
        }
      ],
      "stateMutability": "view",
      "type": "function"
    },
    {
      "inputs": [],
      "name": "renounceOwnership",
      "outputs": [],
      "stateMutability": "nonpayable",
      "type": "function"
    },
    {
      "inputs": [
        {
          "internalType": "address",
          "name": "newOwner",
          "type": "address"
        }
      ],
      "name": "transferOwnership",
      "outputs": [],
      "stateMutability": "nonpayable",
      "type": "function"
    },
    {
      "inputs": [],
      "name": "payAcquisitionTax",
      "outputs": [],
      "stateMutability": "payable",
      "type": "function"
    },
    {
      "inputs": [],
      "name": "payCapitalGainsTax",
      "outputs": [],
      "stateMutability": "payable",
      "type": "function"
    },
    {
      "inputs": [
        {
          "internalType": "address payable",
          "name": "_newTaxAccount",
          "type": "address"
        }
      ],
      "name": "setBankAccount",
      "outputs": [],
      "stateMutability": "nonpayable",
      "type": "function"
    }
  ],
  "bytecode": "0x608060405234801561000f575f80fd5b50604051610b3e380380610b3e8339818101604052810190610031919061022b565b805f73ffffffffffffffffffffffffffffffffffffffff168173ffffffffffffffffffffffffffffffffffffffff16036100a2575f6040517f1e4fbdf70000000000000000000000000000000000000000000000000000000081526004016100999190610265565b60405180910390fd5b6100b18161010c60201b60201c565b5073cd48b32650621694240fafb2d467cdb52fd9579560015f6101000a81548173ffffffffffffffffffffffffffffffffffffffff021916908373ffffffffffffffffffffffffffffffffffffffff1602179055505061027e565b5f805f9054906101000a900473ffffffffffffffffffffffffffffffffffffffff169050815f806101000a81548173ffffffffffffffffffffffffffffffffffffffff021916908373ffffffffffffffffffffffffffffffffffffffff1602179055508173ffffffffffffffffffffffffffffffffffffffff168173ffffffffffffffffffffffffffffffffffffffff167f8be0079c531659141344cd1fd0a4f28419497f9722a3daafe3b4186f6b6457e060405160405180910390a35050565b5f80fd5b5f73ffffffffffffffffffffffffffffffffffffffff82169050919050565b5f6101fa826101d1565b9050919050565b61020a816101f0565b8114610214575f80fd5b50565b5f8151905061022581610201565b92915050565b5f602082840312156102405761023f6101cd565b5b5f61024d84828501610217565b91505092915050565b61025f816101f0565b82525050565b5f6020820190506102785f830184610256565b92915050565b6108b38061028b5f395ff3fe608060405260043610610054575f3560e01c8063376791a114610058578063715018a6146100805780638da5cb5b14610096578063d267732f146100c0578063db72c6b8146100ca578063f2fde38b146100d4575b5f80fd5b348015610063575f80fd5b5061007e6004803603810190610079919061064c565b6100fc565b005b34801561008b575f80fd5b50610094610147565b005b3480156100a1575f80fd5b506100aa61015a565b6040516100b79190610697565b60405180910390f35b6100c8610181565b005b6100d26102ce565b005b3480156100df575f80fd5b506100fa60048036038101906100f591906106da565b61041b565b005b61010461049f565b8060015f6101000a81548173ffffffffffffffffffffffffffffffffffffffff021916908373ffffffffffffffffffffffffffffffffffffffff16021790555050565b61014f61049f565b6101585f610526565b565b5f805f9054906101000a900473ffffffffffffffffffffffffffffffffffffffff16905090565b61018961049f565b5f34116101cb576040517f08c379a00000000000000000000000000000000000000000000000000000000081526004016101c29061075f565b60405180910390fd5b5f60015f9054906101000a900473ffffffffffffffffffffffffffffffffffffffff1673ffffffffffffffffffffffffffffffffffffffff1634604051610211906107aa565b5f6040518083038185875af1925050503d805f811461024b576040519150601f19603f3d011682016040523d82523d5f602084013e610250565b606091505b5050905080610294576040517f08c379a000000000000000000000000000000000000000000000000000000000815260040161028b9061082e565b60405180910390fd5b7fd0572805d790e0d28bb993c858da272484755e34742342d9ad07203e04d896dc346040516102c39190610864565b60405180910390a150565b6102d661049f565b5f3411610318576040517f08c379a000000000000000000000000000000000000000000000000000000000815260040161030f9061075f565b60405180910390fd5b5f60015f9054906101000a900473ffffffffffffffffffffffffffffffffffffffff1673ffffffffffffffffffffffffffffffffffffffff163460405161035e906107aa565b5f6040518083038185875af1925050503d805f8114610398576040519150601f19603f3d011682016040523d82523d5f602084013e61039d565b606091505b50509050806103e1576040517f08c379a00000000000000000000000000000000000000000000000000000000081526004016103d89061082e565b60405180910390fd5b7f932aea04ae675778c045416b67dc8d486ffde60351e811a0a208a5888891f1b5346040516104109190610864565b60405180910390a150565b61042361049f565b5f73ffffffffffffffffffffffffffffffffffffffff168173ffffffffffffffffffffffffffffffffffffffff1603610493575f6040517f1e4fbdf700000000000000000000000000000000000000000000000000000000815260040161048a9190610697565b60405180910390fd5b61049c81610526565b50565b6104a76105e7565b73ffffffffffffffffffffffffffffffffffffffff166104c561015a565b73ffffffffffffffffffffffffffffffffffffffff1614610524576104e86105e7565b6040517f118cdaa700000000000000000000000000000000000000000000000000000000815260040161051b9190610697565b60405180910390fd5b565b5f805f9054906101000a900473ffffffffffffffffffffffffffffffffffffffff169050815f806101000a81548173ffffffffffffffffffffffffffffffffffffffff021916908373ffffffffffffffffffffffffffffffffffffffff1602179055508173ffffffffffffffffffffffffffffffffffffffff168173ffffffffffffffffffffffffffffffffffffffff167f8be0079c531659141344cd1fd0a4f28419497f9722a3daafe3b4186f6b6457e060405160405180910390a35050565b5f33905090565b5f80fd5b5f73ffffffffffffffffffffffffffffffffffffffff82169050919050565b5f61061b826105f2565b9050919050565b61062b81610611565b8114610635575f80fd5b50565b5f8135905061064681610622565b92915050565b5f60208284031215610661576106606105ee565b5b5f61066e84828501610638565b91505092915050565b5f610681826105f2565b9050919050565b61069181610677565b82525050565b5f6020820190506106aa5f830184610688565b92915050565b6106b981610677565b81146106c3575f80fd5b50565b5f813590506106d4816106b0565b92915050565b5f602082840312156106ef576106ee6105ee565b5b5f6106fc848285016106c6565b91505092915050565b5f82825260208201905092915050565b7f596f75206e65656420746f2073656e6420736f6d65204b4c41590000000000005f82015250565b5f610749601a83610705565b915061075482610715565b602082019050919050565b5f6020820190508181035f8301526107768161073d565b9050919050565b5f81905092915050565b50565b5f6107955f8361077d565b91506107a082610787565b5f82019050919050565b5f6107b48261078a565b9150819050919050565b7f4661696c656420746f2073656e64204b4c415920746f207468652074617820615f8201527f63636f756e740000000000000000000000000000000000000000000000000000602082015250565b5f610818602683610705565b9150610823826107be565b604082019050919050565b5f6020820190508181035f8301526108458161080c565b9050919050565b5f819050919050565b61085e8161084c565b82525050565b5f6020820190506108775f830184610855565b9291505056fea2646970667358221220ce555d155dc92f880eefbbbfe0717f7ba8a579540ab2472258b6cdee2172e13a64736f6c63430008150033",
  "immutableReferences": {},
  "source": "// SPDX-License-Identifier: MIT\r\npragma solidity ^0.8.0;\r\n\r\nimport \"@openzeppelin/contracts/access/Ownable.sol\";\r\n\r\ncontract TaxPayment is Ownable {\r\n\r\n    address payable private taxAccount;\r\n\r\n    constructor(address _owner) Ownable(_owner) {\r\n        taxAccount = payable(0xcd48B32650621694240FAFB2D467CdB52fd95795);\r\n    }\r\n\r\n    event AcquisitionTaxPaid(uint256 klay);\r\n    event CapitalGainsTaxPaid(uint256 klay);\r\n\r\n    function payAcquisitionTax() external payable onlyOwner {\r\n        require(msg.value > 0, \"You need to send some KLAY\");\r\n        (bool sent, ) = taxAccount.call{value: msg.value}(\"\");\r\n        require(sent, \"Failed to send KLAY to the tax account\");\r\n        emit AcquisitionTaxPaid(msg.value);\r\n    }\r\n\r\n    function payCapitalGainsTax() external payable onlyOwner {\r\n        require(msg.value > 0, \"You need to send some KLAY\");\r\n        (bool sent, ) = taxAccount.call{value: msg.value}(\"\");\r\n        require(sent, \"Failed to send KLAY to the tax account\");\r\n        emit CapitalGainsTaxPaid(msg.value);\r\n    }\r\n\r\n    function setBankAccount(address payable _newTaxAccount) public onlyOwner {\r\n        taxAccount = _newTaxAccount;\r\n    }\r\n\r\n}",
  "sourcePath": "C:\\Users\\SSAFY\\Desktop\\S10P31C203\\blockchain\\contracts\\TaxPayment.sol",
  "compiler": {
    "name": "solc",
    "version": "0.8.21+commit.d9974bed.Emscripten.clang"
  },
  "schemaVersion": "3.4.16",
  "updatedAt": "2024-05-14T01:23:49.845Z",
  "devdoc": {
    "errors": {
      "OwnableInvalidOwner(address)": [
        {
          "details": "The owner is not a valid owner account. (eg. `address(0)`)"
        }
      ],
      "OwnableUnauthorizedAccount(address)": [
        {
          "details": "The caller account is not authorized to perform an operation."
        }
      ]
    },
    "kind": "dev",
    "methods": {
      "owner()": {
        "details": "Returns the address of the current owner."
      },
      "renounceOwnership()": {
        "details": "Leaves the contract without owner. It will not be possible to call `onlyOwner` functions. Can only be called by the current owner. NOTE: Renouncing ownership will leave the contract without an owner, thereby disabling any functionality that is only available to the owner."
      },
      "transferOwnership(address)": {
        "details": "Transfers ownership of the contract to a new account (`newOwner`). Can only be called by the current owner."
      }
    },
    "version": 1
  },
  "userdoc": {
    "kind": "user",
    "methods": {},
    "version": 1
  }
}