{
  "contractName": "UserDIDRegistry",
  "abi": [
    {
      "inputs": [],
      "stateMutability": "nonpayable",
      "type": "constructor"
    },
    {
      "inputs": [
        {
          "internalType": "address",
          "name": "owner",
          "type": "address"
        }
      ],
      "name": "OwnableInvalidOwner",
      "type": "error"
    },
    {
      "inputs": [
        {
          "internalType": "address",
          "name": "account",
          "type": "address"
        }
      ],
      "name": "OwnableUnauthorizedAccount",
      "type": "error"
    },
    {
      "anonymous": false,
      "inputs": [
        {
          "indexed": false,
          "internalType": "string",
          "name": "did",
          "type": "string"
        }
      ],
      "name": "DIDCreated",
      "type": "event"
    },
    {
      "anonymous": false,
      "inputs": [
        {
          "indexed": false,
          "internalType": "string",
          "name": "did",
          "type": "string"
        }
      ],
      "name": "DIDDeleted",
      "type": "event"
    },
    {
      "anonymous": false,
      "inputs": [
        {
          "indexed": true,
          "internalType": "address",
          "name": "previousOwner",
          "type": "address"
        },
        {
          "indexed": true,
          "internalType": "address",
          "name": "newOwner",
          "type": "address"
        }
      ],
      "name": "OwnershipTransferred",
      "type": "event"
    },
    {
      "inputs": [],
      "name": "owner",
      "outputs": [
        {
          "internalType": "address",
          "name": "",
          "type": "address"
        }
      ],
      "stateMutability": "view",
      "type": "function"
    },
    {
      "inputs": [],
      "name": "renounceOwnership",
      "outputs": [],
      "stateMutability": "nonpayable",
      "type": "function"
    },
    {
      "inputs": [
        {
          "internalType": "address",
          "name": "newOwner",
          "type": "address"
        }
      ],
      "name": "transferOwnership",
      "outputs": [],
      "stateMutability": "nonpayable",
      "type": "function"
    },
    {
      "inputs": [
        {
          "internalType": "uint256",
          "name": "value",
          "type": "uint256"
        },
        {
          "internalType": "uint256",
          "name": "length",
          "type": "uint256"
        }
      ],
      "name": "toHexString",
      "outputs": [
        {
          "internalType": "string",
          "name": "",
          "type": "string"
        }
      ],
      "stateMutability": "pure",
      "type": "function"
    },
    {
      "inputs": [
        {
          "internalType": "address",
          "name": "_holderAddress",
          "type": "address"
        },
        {
          "internalType": "string",
          "name": "_publicKey",
          "type": "string"
        },
        {
          "internalType": "address",
          "name": "_taxAddress",
          "type": "address"
        }
      ],
      "name": "createDIDDocument",
      "outputs": [],
      "stateMutability": "nonpayable",
      "type": "function"
    },
    {
      "inputs": [
        {
          "internalType": "string",
          "name": "did",
          "type": "string"
        }
      ],
      "name": "getDIDDocument",
      "outputs": [
        {
          "components": [
            {
              "internalType": "string",
              "name": "context",
              "type": "string"
            },
            {
              "internalType": "string",
              "name": "id",
              "type": "string"
            },
            {
              "components": [
                {
                  "internalType": "string",
                  "name": "id",
                  "type": "string"
                },
                {
                  "internalType": "string",
                  "name": "keyType",
                  "type": "string"
                },
                {
                  "internalType": "string",
                  "name": "controller",
                  "type": "string"
                },
                {
                  "internalType": "string",
                  "name": "publicKeyHex",
                  "type": "string"
                }
              ],
              "internalType": "struct UserDIDRegistry.PublicKey",
              "name": "publicKey",
              "type": "tuple"
            },
            {
              "internalType": "string",
              "name": "authentication",
              "type": "string"
            }
          ],
          "internalType": "struct UserDIDRegistry.DIDDocument",
          "name": "",
          "type": "tuple"
        }
      ],
      "stateMutability": "view",
      "type": "function"
    },
    {
      "inputs": [
        {
          "internalType": "string",
          "name": "did",
          "type": "string"
        }
      ],
      "name": "deleteDIDDocument",
      "outputs": [],
      "stateMutability": "nonpayable",
      "type": "function"
    },
    {
      "inputs": [
        {
          "internalType": "address",
          "name": "did",
          "type": "address"
        }
      ],
      "name": "getTaxContractAddress",
      "outputs": [
        {
          "internalType": "address",
          "name": "",
          "type": "address"
        }
      ],
      "stateMutability": "view",
      "type": "function"
    }
  ],
  "bytecode": "0x6080604052346200002d57620000146200003d565b6200001e62000033565b611a17620002588239611a1790f35b62000039565b60405190565b5f80fd5b6200004833620000bf565b565b90565b60018060a01b031690565b90565b620000746200006e6200007a926200004a565b62000058565b6200004d565b90565b62000088906200005b565b90565b62000096906200004d565b90565b620000a4906200008b565b9052565b9190620000bd905f6020850194019062000099565b565b80620000e0620000d9620000d35f6200007d565b6200008b565b916200008b565b14620000f357620000f190620001ec565b565b62000123620001025f6200007d565b6200010c62000033565b918291631e4fbdf760e01b835260048301620000a8565b0390fd5b5f1c90565b60018060a01b031690565b620001466200014c9162000127565b6200012c565b90565b6200015b905462000137565b90565b5f1b90565b906200017660018060a01b03916200015e565b9181191691161790565b62000199620001936200019f926200004d565b62000058565b6200004d565b90565b620001ad9062000180565b90565b620001bb90620001a2565b90565b90565b90620001db620001d5620001e392620001b0565b620001be565b825462000163565b9055565b5f0190565b620001f75f6200014f565b62000203825f620001c1565b906200023b620002347f8be0079c531659141344cd1fd0a4f28419497f9722a3daafe3b4186f6b6457e093620001b0565b91620001b0565b916200024662000033565b806200025281620001e7565b0390a356fe60806040526004361015610013575b61059b565b61001d5f3561009c565b806363e1cbea14610097578063715018a614610092578063784afc4e1461008d5780638d2cbee8146100885780638da5cb5b14610083578063b703e27f1461007e578063b9a46384146100795763f2fde38b0361000e57610568565b610534565b6104ff565b6104ac565b610453565b610390565b6101d4565b61018a565b60e01c90565b60405190565b5f80fd5b5f80fd5b5f80fd5b90565b6100c0816100b4565b036100c757565b5f80fd5b905035906100d8826100b7565b565b919060408382031261010257806100f66100ff925f86016100cb565b936020016100cb565b90565b6100ac565b5190565b60209181520190565b5f5b838110610126575050905f910152565b806020918301518185015201610116565b601f801991011690565b61016061016960209361016e9361015781610107565b9384809361010b565b95869101610114565b610137565b0190565b6101879160208201915f818403910152610141565b90565b346101bb576101b76101a66101a03660046100da565b90610b18565b6101ae6100a2565b91829182610172565b0390f35b6100a8565b5f9103126101ca57565b6100ac565b5f0190565b34610202576101e43660046101c0565b6101ec61063c565b6101f46100a2565b806101fe816101cf565b0390f35b6100a8565b5f80fd5b5f80fd5b5f80fd5b909182601f8301121561024d5781359167ffffffffffffffff831161024857602001926001830284011161024357565b61020f565b61020b565b610207565b90602082820312610283575f82013567ffffffffffffffff811161027e5761027a9201610213565b9091565b6100b0565b6100ac565b60209181520190565b6102b06102b96020936102be936102a781610107565b93848093610288565b95869101610114565b610137565b0190565b61031a9160606103096102f76102e5608085015f8701518682035f880152610291565b60208601518582036020870152610291565b60408501518482036040860152610291565b920151906060818403910152610291565b90565b610375916060610364610352610340608085015f8701518682035f880152610291565b60208601518582036020870152610291565b604085015184820360408601526102c2565b920151906060818403910152610291565b90565b61038d9160208201915f81840391015261031d565b90565b346103c1576103bd6103ac6103a6366004610252565b906116a7565b6103b46100a2565b91829182610378565b0390f35b6100a8565b60018060a01b031690565b6103da906103c6565b90565b6103e6816103d1565b036103ed57565b5f80fd5b905035906103fe826103dd565b565b9060608282031261044e57610417815f84016103f1565b92602083013567ffffffffffffffff81116104495761043b83610446928601610213565b9390946040016103f1565b90565b6100b0565b6100ac565b346104855761046f610466366004610400565b92919091611345565b6104776100a2565b80610481816101cf565b0390f35b6100a8565b610493906103d1565b9052565b91906104aa905f6020850194019061048a565b565b346104dc576104bc3660046101c0565b6104d86104c76105d4565b6104cf6100a2565b91829182610497565b0390f35b6100a8565b906020828203126104fa576104f7915f016103f1565b90565b6100ac565b3461052f5761052b61051a6105153660046104e1565b6119c2565b6105226100a2565b91829182610497565b0390f35b6100a8565b346105635761054d610547366004610252565b906119b6565b6105556100a2565b8061055f816101cf565b0390f35b6100a8565b346105965761058061057b3660046104e1565b610707565b6105886100a2565b80610592816101cf565b0390f35b6100a8565b5f80fd5b5f90565b5f1c90565b60018060a01b031690565b6105bf6105c4916105a3565b6105a8565b90565b6105d190546105b3565b90565b6105dc61059f565b506105e65f6105c7565b90565b6105f1610646565b6105f9610629565b565b90565b90565b61061561061061061a926105fb565b6105fe565b6103c6565b90565b61062690610601565b90565b61063a6106355f61061d565b610789565b565b6106446105e9565b565b61064e6105d4565b61066761066161065c6107e8565b6103d1565b916103d1565b0361066e57565b6106976106796107e8565b6106816100a2565b91829163118cdaa760e01b835260048301610497565b0390fd5b6106ac906106a7610646565b6106ae565b565b806106c96106c36106be5f61061d565b6103d1565b916103d1565b146106d9576106d790610789565b565b6107036106e55f61061d565b6106ed6100a2565b918291631e4fbdf760e01b835260048301610497565b0390fd5b6107109061069b565b565b5f1b90565b9061072860018060a01b0391610712565b9181191691161790565b61074661074161074b926103c6565b6105fe565b6103c6565b90565b61075790610732565b90565b6107639061074e565b90565b90565b9061077e6107796107859261075a565b610766565b8254610717565b9055565b6107925f6105c7565b61079c825f610769565b906107d06107ca7f8be0079c531659141344cd1fd0a4f28419497f9722a3daafe3b4186f6b6457e09361075a565b9161075a565b916107d96100a2565b806107e3816101cf565b0390a3565b6107f061059f565b503390565b606090565b90565b61081161080c610816926107fa565b6105fe565b6100b4565b90565b634e487b7160e01b5f52601160045260245ffd5b61083c610842919392936100b4565b926100b4565b9161084e8382026100b4565b92818404149015171561085d57565b610819565b610871610877919392936100b4565b926100b4565b820180921161088257565b610819565b634e487b7160e01b5f52604160045260245ffd5b906108a590610137565b810190811067ffffffffffffffff8211176108bf57604052565b610887565b906108d76108d06100a2565b928361089b565b565b67ffffffffffffffff81116108f7576108f3602091610137565b0190565b610887565b9061090e610909836108d9565b6108c4565b918252565b369037565b9061093d610925836108fc565b9260208061093386936108d9565b9201910390610913565b565b600360fc1b90565b634e487b7160e01b5f52603260045260245ffd5b5190565b906109698261095b565b81101561097b57600160209102010190565b610947565b61099461098f610999926105fb565b6105fe565b6100b4565b90565b600f60fb1b90565b90565b6109bb6109b66109c0926109a4565b6105fe565b6100b4565b90565b6109cc906100b4565b5f81146109da576001900390565b610819565b90565b6109f66109f16109fb926109df565b6105fe565b6100b4565b90565b60ff1690565b610a18610a13610a1d926100b4565b6105fe565b6109fe565b90565b90565b610a37610a32610a3c92610a20565b6105fe565b6100b4565b90565b90565b610a56610a51610a5b92610a3f565b6105fe565b6109fe565b90565b90565b610a75610a70610a7a92610a5e565b6105fe565b6109fe565b90565b610a89610a8f916109fe565b916109fe565b019060ff8211610a9b57565b610819565b60ff60f81b1690565b60f81b90565b610ac3610abe610ac8926109fe565b610aa9565b610aa0565b90565b90565b610ae2610add610ae792610acb565b6105fe565b6109fe565b90565b1c90565b610b0d90610b07610b01610b12946109fe565b916100b4565b90610aea565b6100b4565b90565b90565b9190610b226107f5565b50610bb9610ba9610b58610b53610b436002610b3e87916107fd565b61082d565b610b4d60026107fd565b90610862565b610918565b92610b6161093f565b610b7885610b725f935f1a93610980565b9061095f565b53610b8161099c565b610b9985610b936001935f1a936109a7565b9061095f565b53610ba460026107fd565b61082d565b610bb360016109a7565b90610862565b925b83610bcf610bc960016109a7565b916100b4565b1115610c6d57610c5281610c32610c2d610bf6610c5895610bf0600f6109e2565b16610a04565b83610c01600f6109e2565b16610c15610c0f600a610a23565b916100b4565b105f14610c5e57610c266030610a61565b5b90610a7d565b610aaf565b610c41859188905f1a9261095f565b53610c4c6004610ace565b90610aee565b936109c3565b92610bbb565b610c686057610a42565b610c27565b50610c79919250610b15565b90565b610c8660806108c4565b90565b606090565b610c9860806108c4565b90565b610ca3610c8e565b90602080808085610cb2610c89565b815201610cbd610c89565b815201610cc8610c89565b815201610cd3610c89565b81525050565b610ce1610c9b565b90565b610cec610c7c565b90602080808085610cfb610c89565b815201610d06610c89565b815201610d11610cd9565b815201610d1c610c89565b81525050565b610d2a610ce4565b90565b610d3690610732565b90565b610d4d610d48610d52926103c6565b6105fe565b6100b4565b90565b90565b610d6c610d67610d7192610d55565b6105fe565b6100b4565b90565b905090565b5f7f6469643a6b6c61793a0000000000000000000000000000000000000000000000910152565b610dac60098092610d74565b610db581610d79565b0190565b610dde610dd592602092610dcc81610107565b94858093610d74565b93849101610114565b0190565b90610def610df592610da0565b90610db9565b90565b90610e02906100b4565b9052565b67ffffffffffffffff8111610e2457610e20602091610137565b0190565b610887565b90610e3b610e3683610e06565b6108c4565b918252565b5f7f68747470733a2f2f7777772e77332e6f72672f6e732f6469642f763100000000910152565b610e71601c610e29565b90610e7e60208301610e40565b565b5f7f236b6579732d3100000000000000000000000000000000000000000000000000910152565b610eb360078092610d74565b610ebc81610e80565b0190565b610ecd90610ed292610db9565b610ea7565b90565b60207f3900000000000000000000000000000000000000000000000000000000000000917f4563647361536563703235366b31566572696669636174696f6e4b65793230315f8201520152565b610f2c6021610e29565b90610f3960208301610ed5565b565b5f80fd5b90825f939282370152565b90929192610f5f610f5a82610e06565b6108c4565b93818552602085019082840111610f7b57610f7992610f3f565b565b610f3b565b610f8b913691610f4a565b90565b90565b610f9d610fa2916100b4565b610f8e565b9052565b610fb6610fbd9160209493610db9565b8092610f91565b0190565b610fd5610fcc6100a2565b92839283610fa6565b03902090565b610fe491610fc1565b90565b634e487b7160e01b5f525f60045260245ffd5b5190565b634e487b7160e01b5f52602260045260245ffd5b9060016002830492168015611032575b602083101461102d57565b610ffe565b91607f1691611022565b5f5260205f2090565b601f602091010490565b1b90565b9190600861106e9102916110685f198461104f565b9261104f565b9181191691161790565b61108c611087611091926100b4565b6105fe565b6100b4565b90565b90565b91906110ad6110a86110b593611078565b611094565b908354611053565b9055565b5f90565b6110cf916110c96110b9565b91611097565b565b5b8181106110dd575050565b806110ea5f6001936110bd565b016110d2565b9190601f8111611100575b505050565b61110c6111319361103c565b90602061111884611045565b83019310611139575b61112a90611045565b01906110d1565b5f80806110fb565b915061112a81929050611121565b90611157905f1990600802610aea565b191690565b8161116691611147565b906002021790565b9061117881610107565b9067ffffffffffffffff82116112385761119c826111968554611012565b856110f0565b602090601f83116001146111d0579180916111bf935f926111c4575b505061115c565b90555b565b90915001515f806111b8565b601f198316916111df8561103c565b925f5b81811061122057509160029391856001969410611206575b505050020190556111c2565b611216910151601f841690611147565b90555f80806111fa565b919360206001819287870151815501950192016111e2565b610887565b906112479161116e565b565b5190565b906112aa606060036112b0946112705f820161126a5f8801610ffa565b9061123d565b6112896001820161128360208801610ffa565b9061123d565b6112a26002820161129c60408801610ffa565b9061123d565b019201610ffa565b9061123d565b565b906112bc9161124d565b565b9061131b60606006611321946112e15f82016112db5f8801610ffa565b9061123d565b6112fa600182016112f460208801610ffa565b9061123d565b6113136002820161130d60408801611249565b906112b2565b019201610ffa565b9061123d565b565b9061132d916112be565b565b906113399061075a565b5f5260205260405f2090565b611464602094611469939461143561135b610d22565b966113af61139c6113aa6113896113796113748b610d2d565b610d39565b6113836014610d58565b90610b18565b6113916100a2565b9283918e8301610de2565b8d820181038252038261089b565b610b15565b898901526113c75f89016113c1610e67565b90610df8565b6113fa6113e76113f58b8b01516113dc6100a2565b9283918e8301610ec0565b8d820181038252038261089b565b610b15565b5f60408a0151015261141a8960408a015101611414610f22565b90610df8565b888801516040808a0151015291606060408901510192610f80565b90525f60408601510151606086015261145c8561145760028989015190610fdb565b611323565b91600161132f565b610769565b01516114a17f5fccafd09eeeb6a3dc1c80357ee982c00d7fb00a991274a9b96fe4fd7cb60552916114986100a2565b91829182610172565b0390a1565b9091826114b6816114bd93610d74565b8093610f3f565b0190565b6114d290602094936114d9936114a6565b8092610f91565b0190565b90916114f4906114eb6100a2565b938493846114c1565b03902090565b9091611505926114dd565b90565b905f929180549061152261151b83611012565b8094610288565b916001811690815f14611579575060011461153d575b505050565b61154a919293945061103c565b915f925b81841061156157505001905f8080611538565b6001816020929593955484860152019101929061154e565b92949550505060ff19168252151560200201905f8080611538565b9061159e91611508565b90565b906115c16115ba926115b16100a2565b93848092611594565b038361089b565b565b52565b9061162d61162460036115d7610c8e565b946115ee6115e65f83016115a1565b5f88016115c3565b6116066115fd600183016115a1565b602088016115c3565b61161e611615600283016115a1565b604088016115c3565b016115a1565b606084016115c3565b565b52565b906116996116906006611643610c7c565b9461165a6116525f83016115a1565b5f88016115c3565b611672611669600183016115a1565b602088016115c3565b61168a611681600283016115c6565b6040880161162f565b016115a1565b606084016115c3565b565b6116a490611632565b90565b6116c2906116c7926116b7610d22565b5060029190916114fa565b61169b565b90565b906116dc916116d7610646565b611964565b565b906116f1905f1990602003600802610aea565b8154169055565b905f9161170f6117078261103c565b92835461115c565b905555565b919290602082105f1461176d57601f841160011461173d5761173792935061115c565b90555b5b565b509061176361176893600161175a6117548561103c565b92611045565b820191016110d1565b6116f8565b61173a565b506117a4829361177e60019461103c565b61179d61178a85611045565b820192601f8616806117af575b50611045565b01906110d1565b60020217905561173b565b6117bb908886036116de565b5f611797565b929091680100000000000000008211611821576020115f1461181257602081105f146117f6576117f09161115c565b90555b5b565b60019160ff19166118068461103c565b556002020190556117f3565b600191506002020190556117f4565b610887565b90815461183281611012565b9081831161185b575b818310611849575b50505050565b61185293611714565b5f808080611843565b611867838383876117c1565b61183b565b5f61187691611826565b565b905f0361188a576118889061186c565b565b610fe7565b5f60036118c2926118a283808301611878565b6118af8360018301611878565b6118bc8360028301611878565b01611878565b565b905f036118d6576118d49061188f565b565b610fe7565b5f600661190e926118ee83808301611878565b6118fb8360018301611878565b61190883600283016118c4565b01611878565b565b905f0361192257611920906118db565b565b610fe7565b91906119418161193a816119469561010b565b8095610f3f565b610137565b0190565b90916119619260208301925f818503910152611927565b90565b61197a5f61197560028486916114fa565b611910565b907fb24f94d3ff75ed62d7237e14a510a969d70c1d4efdd4cce8ad563aa8ba60a64c916119b16119a86100a2565b9283928361194a565b0390a1565b906119c0916116ca565b565b6119d96119de916119d161059f565b50600161132f565b6105c7565b9056fea2646970667358221220da5b84fc1312b90c49b14459184fa5f699dafd01a180e55ce3b2bc844519a0fa64736f6c63430008150033",
  "immutableReferences": {},
  "source": "// SPDX-License-Identifier: MIT\r\npragma solidity ^0.8.0;\r\n\r\nimport \"@openzeppelin/contracts/access/Ownable.sol\";\r\n\r\ncontract UserDIDRegistry is Ownable {\r\n\r\n        struct PublicKey {\r\n        string id;\r\n        string keyType;\r\n        string controller;\r\n        string publicKeyHex;\r\n    }\r\n    \r\n    struct DIDDocument {\r\n        string context;\r\n        string id;\r\n        PublicKey publicKey;\r\n        string authentication;\r\n    }\r\n\r\n    mapping(address => address) taxAccount;\r\n    mapping(string => DIDDocument) didDocuments;\r\n\r\n    constructor() Ownable(msg.sender) {}\r\n\r\n    event DIDCreated(string did);\r\n    event DIDDeleted(string did);\r\n\r\n    function toHexString(uint256 value, uint length) public pure returns (string memory) {\r\n        bytes memory buffer = new bytes(2 * length + 2);\r\n        buffer[0] = '0';\r\n        buffer[1] = 'x';\r\n        for (uint i = 2 * length + 1; i > 1; --i) {\r\n            buffer[i] = bytes1(uint8(value & 0xf) + (value & 0xf < 10 ? 48 : 87));\r\n            value >>= 4;\r\n        }\r\n        return string(buffer);\r\n    }\r\n\r\n    function createDIDDocument(address _holderAddress, string calldata _publicKey, address _taxAddress) public {\r\n        DIDDocument memory didDocument;\r\n        \r\n        didDocument.id = string(abi.encodePacked(\"did:klay:\", toHexString(uint256(uint160(_holderAddress)), 20)));\r\n        didDocument.context = \"https://www.w3.org/ns/did/v1\";\r\n        didDocument.publicKey.id = string(abi.encodePacked(didDocument.id,\"#keys-1\"));\r\n        didDocument.publicKey.keyType = \"EcdsaSecp256k1VerificationKey2019\";\r\n        didDocument.publicKey.controller = didDocument.id;\r\n        didDocument.publicKey.publicKeyHex = _publicKey;\r\n        didDocument.authentication=didDocument.publicKey.id;\r\n\r\n        didDocuments[didDocument.id] = didDocument;\r\n\r\n        taxAccount[_holderAddress]=_taxAddress;\r\n\r\n        emit DIDCreated(didDocument.id);\r\n    }\r\n\r\n    function getDIDDocument(string calldata did) external view returns (DIDDocument memory) {\r\n        return didDocuments[did];\r\n    }\r\n\r\n    function deleteDIDDocument(string calldata did) external onlyOwner {\r\n        delete didDocuments[did];\r\n        emit DIDDeleted(did);\r\n    }\r\n    \r\n    function getTaxContractAddress(address did) external view returns (address) {\r\n        return taxAccount[did];\r\n    }\r\n\r\n}\r\n",
  "sourcePath": "C:\\Users\\SSAFY\\Desktop\\S10P31C203\\blockchain\\contracts\\UserDIDRegistry.sol",
  "compiler": {
    "name": "solc",
    "version": "0.8.21+commit.d9974bed.Emscripten.clang"
  },
  "schemaVersion": "3.4.16",
  "updatedAt": "2024-05-17T06:44:13.105Z",
  "devdoc": {
    "errors": {
      "OwnableInvalidOwner(address)": [
        {
          "details": "The owner is not a valid owner account. (eg. `address(0)`)"
        }
      ],
      "OwnableUnauthorizedAccount(address)": [
        {
          "details": "The caller account is not authorized to perform an operation."
        }
      ]
    },
    "kind": "dev",
    "methods": {
      "owner()": {
        "details": "Returns the address of the current owner."
      },
      "renounceOwnership()": {
        "details": "Leaves the contract without owner. It will not be possible to call `onlyOwner` functions. Can only be called by the current owner. NOTE: Renouncing ownership will leave the contract without an owner, thereby disabling any functionality that is only available to the owner."
      },
      "transferOwnership(address)": {
        "details": "Transfers ownership of the contract to a new account (`newOwner`). Can only be called by the current owner."
      }
    },
    "version": 1
  },
  "userdoc": {
    "kind": "user",
    "methods": {},
    "version": 1
  }
}