{
  "contractName": "UserDIDRegistry",
  "abi": [
    {
      "inputs": [],
      "stateMutability": "nonpayable",
      "type": "constructor"
    },
    {
      "inputs": [
        {
          "internalType": "address",
          "name": "owner",
          "type": "address"
        }
      ],
      "name": "OwnableInvalidOwner",
      "type": "error"
    },
    {
      "inputs": [
        {
          "internalType": "address",
          "name": "account",
          "type": "address"
        }
      ],
      "name": "OwnableUnauthorizedAccount",
      "type": "error"
    },
    {
      "anonymous": false,
      "inputs": [
        {
          "indexed": false,
          "internalType": "string",
          "name": "did",
          "type": "string"
        }
      ],
      "name": "DIDCreated",
      "type": "event"
    },
    {
      "anonymous": false,
      "inputs": [
        {
          "indexed": false,
          "internalType": "string",
          "name": "did",
          "type": "string"
        }
      ],
      "name": "DIDDeleted",
      "type": "event"
    },
    {
      "anonymous": false,
      "inputs": [
        {
          "indexed": true,
          "internalType": "address",
          "name": "previousOwner",
          "type": "address"
        },
        {
          "indexed": true,
          "internalType": "address",
          "name": "newOwner",
          "type": "address"
        }
      ],
      "name": "OwnershipTransferred",
      "type": "event"
    },
    {
      "inputs": [],
      "name": "owner",
      "outputs": [
        {
          "internalType": "address",
          "name": "",
          "type": "address"
        }
      ],
      "stateMutability": "view",
      "type": "function"
    },
    {
      "inputs": [],
      "name": "renounceOwnership",
      "outputs": [],
      "stateMutability": "nonpayable",
      "type": "function"
    },
    {
      "inputs": [
        {
          "internalType": "address",
          "name": "newOwner",
          "type": "address"
        }
      ],
      "name": "transferOwnership",
      "outputs": [],
      "stateMutability": "nonpayable",
      "type": "function"
    },
    {
      "inputs": [
        {
          "internalType": "uint256",
          "name": "value",
          "type": "uint256"
        },
        {
          "internalType": "uint256",
          "name": "length",
          "type": "uint256"
        }
      ],
      "name": "toHexString",
      "outputs": [
        {
          "internalType": "string",
          "name": "",
          "type": "string"
        }
      ],
      "stateMutability": "pure",
      "type": "function"
    },
    {
      "inputs": [
        {
          "internalType": "address",
          "name": "_holderAddress",
          "type": "address"
        },
        {
          "internalType": "string",
          "name": "_publicKey",
          "type": "string"
        }
      ],
      "name": "createDIDDocument",
      "outputs": [],
      "stateMutability": "nonpayable",
      "type": "function"
    },
    {
      "inputs": [
        {
          "internalType": "string",
          "name": "did",
          "type": "string"
        }
      ],
      "name": "getDIDDocument",
      "outputs": [
        {
          "components": [
            {
              "internalType": "string",
              "name": "context",
              "type": "string"
            },
            {
              "internalType": "string",
              "name": "id",
              "type": "string"
            },
            {
              "components": [
                {
                  "internalType": "string",
                  "name": "id",
                  "type": "string"
                },
                {
                  "internalType": "string",
                  "name": "keyType",
                  "type": "string"
                },
                {
                  "internalType": "string",
                  "name": "controller",
                  "type": "string"
                },
                {
                  "internalType": "string",
                  "name": "publicKeyHex",
                  "type": "string"
                }
              ],
              "internalType": "struct UserDIDRegistry.PublicKey",
              "name": "publicKey",
              "type": "tuple"
            },
            {
              "internalType": "string",
              "name": "authentication",
              "type": "string"
            }
          ],
          "internalType": "struct UserDIDRegistry.DIDDocument",
          "name": "",
          "type": "tuple"
        }
      ],
      "stateMutability": "view",
      "type": "function"
    },
    {
      "inputs": [
        {
          "internalType": "string",
          "name": "did",
          "type": "string"
        }
      ],
      "name": "deleteDIDDocument",
      "outputs": [],
      "stateMutability": "nonpayable",
      "type": "function"
    },
    {
      "inputs": [
        {
          "internalType": "string",
          "name": "did",
          "type": "string"
        }
      ],
      "name": "getTaxContractAddress",
      "outputs": [
        {
          "internalType": "address",
          "name": "",
          "type": "address"
        }
      ],
      "stateMutability": "view",
      "type": "function"
    }
  ],
  "bytecode": "0x608060405234801562000010575f80fd5b50335f73ffffffffffffffffffffffffffffffffffffffff168173ffffffffffffffffffffffffffffffffffffffff160362000085575f6040517f1e4fbdf70000000000000000000000000000000000000000000000000000000081526004016200007c9190620001a1565b60405180910390fd5b62000096816200009d60201b60201c565b50620001bc565b5f805f9054906101000a900473ffffffffffffffffffffffffffffffffffffffff169050815f806101000a81548173ffffffffffffffffffffffffffffffffffffffff021916908373ffffffffffffffffffffffffffffffffffffffff1602179055508173ffffffffffffffffffffffffffffffffffffffff168173ffffffffffffffffffffffffffffffffffffffff167f8be0079c531659141344cd1fd0a4f28419497f9722a3daafe3b4186f6b6457e060405160405180910390a35050565b5f73ffffffffffffffffffffffffffffffffffffffff82169050919050565b5f62000189826200015e565b9050919050565b6200019b816200017d565b82525050565b5f602082019050620001b65f83018462000190565b92915050565b6125ef80620001ca5f395ff3fe608060405234801562000010575f80fd5b506004361062000092575f3560e01c80638da5cb5b11620000615780638da5cb5b146200012e578063a991067e1462000150578063b9a463841462000186578063f2fde38b14620001a65762000092565b8063114080f6146200009657806363e1cbea14620000b6578063715018a614620000ec578063784afc4e14620000f8575b5f80fd5b620000b46004803603810190620000ae91906200103b565b620001c6565b005b620000d46004803603810190620000ce9190620010da565b620004d7565b604051620000e39190620011b3565b60405180910390f35b620000f6620006d3565b005b620001166004803603810190620001109190620011d5565b620006ea565b60405162000125919062001372565b60405180910390f35b6200013862000b63565b604051620001479190620013a5565b60405180910390f35b6200016e6004803603810190620001689190620011d5565b62000b8a565b6040516200017d9190620013a5565b60405180910390f35b620001a460048036038101906200019e9190620011d5565b62000bd5565b005b620001c46004803603810190620001be9190620013c0565b62000cbf565b005b620001d062000ea2565b620001f38473ffffffffffffffffffffffffffffffffffffffff166014620004d7565b6040516020016200020591906200147e565b60405160208183030381529060405281602001819052506040518060400160405280601c81526020017f68747470733a2f2f7777772e77332e6f72672f6e732f6469642f763100000000815250815f01819052508060200151604051602001620002709190620014f1565b60405160208183030381529060405281604001515f01819052506040518060600160405280602181526020016200259960219139816040015160200181905250806020015181604001516040018190525082828080601f0160208091040260200160405190810160405280939291908181526020018383808284375f81840152601f19601f8201169050808301925050505050505081604001516060018190525080604001515f015181606001819052505f84604051620003319062000ed2565b6200033d9190620013a5565b604051809103905ff08015801562000357573d5f803e3d5ffd5b509050806002836020015160405162000371919062001516565b90815260200160405180910390205f6101000a81548173ffffffffffffffffffffffffffffffffffffffff021916908373ffffffffffffffffffffffffffffffffffffffff1602179055508160018360200151604051620003d3919062001516565b90815260200160405180910390205f820151815f019081620003f691906200177f565b5060208201518160010190816200040e91906200177f565b506040820151816002015f820151815f0190816200042d91906200177f565b5060208201518160010190816200044591906200177f565b5060408201518160020190816200045d91906200177f565b5060608201518160030190816200047591906200177f565b50505060608201518160060190816200048f91906200177f565b509050507f5fccafd09eeeb6a3dc1c80357ee982c00d7fb00a991274a9b96fe4fd7cb605528260200151604051620004c89190620011b3565b60405180910390a15050505050565b60605f6002836002620004eb919062001890565b620004f79190620018da565b67ffffffffffffffff8111156200051357620005126200152e565b5b6040519080825280601f01601f191660200182016040528015620005465781602001600182028036833780820191505090505b5090507f3000000000000000000000000000000000000000000000000000000000000000815f8151811062000580576200057f62001914565b5b60200101907effffffffffffffffffffffffffffffffffffffffffffffffffffffffffffff191690815f1a9053507f780000000000000000000000000000000000000000000000000000000000000081600181518110620005e657620005e562001914565b5b60200101907effffffffffffffffffffffffffffffffffffffffffffffffffffffffffffff191690815f1a9053505f600184600262000626919062001890565b620006329190620018da565b90505b6001811115620006c857600a600f8616106200065357605762000656565b60305b600f86166200066691906200194d565b60f81b8282815181106200067f576200067e62001914565b5b60200101907effffffffffffffffffffffffffffffffffffffffffffffffffffffffffffff191690815f1a905350600485901c945080620006c09062001988565b905062000635565b508091505092915050565b620006dd62000d4a565b620006e85f62000dda565b565b620006f462000ea2565b6001838360405162000708929190620019ea565b90815260200160405180910390206040518060800160405290815f82018054620007329062001588565b80601f0160208091040260200160405190810160405280929190818152602001828054620007609062001588565b8015620007af5780601f106200078557610100808354040283529160200191620007af565b820191905f5260205f20905b8154815290600101906020018083116200079157829003601f168201915b50505050508152602001600182018054620007ca9062001588565b80601f0160208091040260200160405190810160405280929190818152602001828054620007f89062001588565b8015620008475780601f106200081d5761010080835404028352916020019162000847565b820191905f5260205f20905b8154815290600101906020018083116200082957829003601f168201915b50505050508152602001600282016040518060800160405290815f82018054620008719062001588565b80601f01602080910402602001604051908101604052809291908181526020018280546200089f9062001588565b8015620008ee5780601f10620008c457610100808354040283529160200191620008ee565b820191905f5260205f20905b815481529060010190602001808311620008d057829003601f168201915b50505050508152602001600182018054620009099062001588565b80601f0160208091040260200160405190810160405280929190818152602001828054620009379062001588565b8015620009865780601f106200095c5761010080835404028352916020019162000986565b820191905f5260205f20905b8154815290600101906020018083116200096857829003601f168201915b50505050508152602001600282018054620009a19062001588565b80601f0160208091040260200160405190810160405280929190818152602001828054620009cf9062001588565b801562000a1e5780601f10620009f45761010080835404028352916020019162000a1e565b820191905f5260205f20905b81548152906001019060200180831162000a0057829003601f168201915b5050505050815260200160038201805462000a399062001588565b80601f016020809104026020016040519081016040528092919081815260200182805462000a679062001588565b801562000ab65780601f1062000a8c5761010080835404028352916020019162000ab6565b820191905f5260205f20905b81548152906001019060200180831162000a9857829003601f168201915b505050505081525050815260200160068201805462000ad59062001588565b80601f016020809104026020016040519081016040528092919081815260200182805462000b039062001588565b801562000b525780601f1062000b285761010080835404028352916020019162000b52565b820191905f5260205f20905b81548152906001019060200180831162000b3457829003601f168201915b505050505081525050905092915050565b5f805f9054906101000a900473ffffffffffffffffffffffffffffffffffffffff16905090565b5f6002838360405162000b9f929190620019ea565b90815260200160405180910390205f9054906101000a900473ffffffffffffffffffffffffffffffffffffffff16905092915050565b62000bdf62000d4a565b6001828260405162000bf3929190620019ea565b90815260200160405180910390205f8082015f62000c12919062000ee0565b600182015f62000c23919062000ee0565b600282015f8082015f62000c38919062000ee0565b600182015f62000c49919062000ee0565b600282015f62000c5a919062000ee0565b600382015f62000c6b919062000ee0565b5050600682015f62000c7e919062000ee0565b50507fb24f94d3ff75ed62d7237e14a510a969d70c1d4efdd4cce8ad563aa8ba60a64c828260405162000cb392919062001a36565b60405180910390a15050565b62000cc962000d4a565b5f73ffffffffffffffffffffffffffffffffffffffff168173ffffffffffffffffffffffffffffffffffffffff160362000d3c575f6040517f1e4fbdf700000000000000000000000000000000000000000000000000000000815260040162000d339190620013a5565b60405180910390fd5b62000d478162000dda565b50565b62000d5462000e9b565b73ffffffffffffffffffffffffffffffffffffffff1662000d7462000b63565b73ffffffffffffffffffffffffffffffffffffffff161462000dd85762000d9a62000e9b565b6040517f118cdaa700000000000000000000000000000000000000000000000000000000815260040162000dcf9190620013a5565b60405180910390fd5b565b5f805f9054906101000a900473ffffffffffffffffffffffffffffffffffffffff169050815f806101000a81548173ffffffffffffffffffffffffffffffffffffffff021916908373ffffffffffffffffffffffffffffffffffffffff1602179055508173ffffffffffffffffffffffffffffffffffffffff168173ffffffffffffffffffffffffffffffffffffffff167f8be0079c531659141344cd1fd0a4f28419497f9722a3daafe3b4186f6b6457e060405160405180910390a35050565b5f33905090565b6040518060800160405280606081526020016060815260200162000ec562000f23565b8152602001606081525090565b610b3e8062001a5b83390190565b50805462000eee9062001588565b5f825580601f1062000f01575062000f20565b601f0160209004905f5260205f209081019062000f1f919062000f4b565b5b50565b6040518060800160405280606081526020016060815260200160608152602001606081525090565b5b8082111562000f64575f815f90555060010162000f4c565b5090565b5f80fd5b5f80fd5b5f73ffffffffffffffffffffffffffffffffffffffff82169050919050565b5f62000f9b8262000f70565b9050919050565b62000fad8162000f8f565b811462000fb8575f80fd5b50565b5f8135905062000fcb8162000fa2565b92915050565b5f80fd5b5f80fd5b5f80fd5b5f8083601f84011262000ff55762000ff462000fd1565b5b8235905067ffffffffffffffff81111562001015576200101462000fd5565b5b60208301915083600182028301111562001034576200103362000fd9565b5b9250929050565b5f805f6040848603121562001055576200105462000f68565b5b5f620010648682870162000fbb565b935050602084013567ffffffffffffffff81111562001088576200108762000f6c565b5b620010968682870162000fdd565b92509250509250925092565b5f819050919050565b620010b681620010a2565b8114620010c1575f80fd5b50565b5f81359050620010d481620010ab565b92915050565b5f8060408385031215620010f357620010f262000f68565b5b5f6200110285828601620010c4565b92505060206200111585828601620010c4565b9150509250929050565b5f81519050919050565b5f82825260208201905092915050565b5f5b83811015620011585780820151818401526020810190506200113b565b5f8484015250505050565b5f601f19601f8301169050919050565b5f6200117f826200111f565b6200118b818562001129565b93506200119d81856020860162001139565b620011a88162001163565b840191505092915050565b5f6020820190508181035f830152620011cd818462001173565b905092915050565b5f8060208385031215620011ee57620011ed62000f68565b5b5f83013567ffffffffffffffff8111156200120e576200120d62000f6c565b5b6200121c8582860162000fdd565b92509250509250929050565b5f82825260208201905092915050565b5f62001244826200111f565b62001250818562001228565b93506200126281856020860162001139565b6200126d8162001163565b840191505092915050565b5f608083015f8301518482035f86015262001294828262001238565b91505060208301518482036020860152620012b0828262001238565b91505060408301518482036040860152620012cc828262001238565b91505060608301518482036060860152620012e8828262001238565b9150508091505092915050565b5f608083015f8301518482035f86015262001311828262001238565b915050602083015184820360208601526200132d828262001238565b9150506040830151848203604086015262001349828262001278565b9150506060830151848203606086015262001365828262001238565b9150508091505092915050565b5f6020820190508181035f8301526200138c8184620012f5565b905092915050565b6200139f8162000f8f565b82525050565b5f602082019050620013ba5f83018462001394565b92915050565b5f60208284031215620013d857620013d762000f68565b5b5f620013e78482850162000fbb565b91505092915050565b5f81905092915050565b7f6469643a6b6c61793a00000000000000000000000000000000000000000000005f82015250565b5f62001430600983620013f0565b91506200143d82620013fa565b600982019050919050565b5f62001454826200111f565b620014608185620013f0565b93506200147281856020860162001139565b80840191505092915050565b5f6200148a8262001422565b915062001498828462001448565b915081905092915050565b7f236b6579732d31000000000000000000000000000000000000000000000000005f82015250565b5f620014d9600783620013f0565b9150620014e682620014a3565b600782019050919050565b5f620014fe828462001448565b91506200150b82620014cb565b915081905092915050565b5f62001523828462001448565b915081905092915050565b7f4e487b71000000000000000000000000000000000000000000000000000000005f52604160045260245ffd5b7f4e487b71000000000000000000000000000000000000000000000000000000005f52602260045260245ffd5b5f6002820490506001821680620015a057607f821691505b602082108103620015b657620015b56200155b565b5b50919050565b5f819050815f5260205f209050919050565b5f6020601f8301049050919050565b5f82821b905092915050565b5f600883026200161a7fffffffffffffffffffffffffffffffffffffffffffffffffffffffffffffffff82620015dd565b620016268683620015dd565b95508019841693508086168417925050509392505050565b5f819050919050565b5f62001667620016616200165b84620010a2565b6200163e565b620010a2565b9050919050565b5f819050919050565b620016828362001647565b6200169a62001691826200166e565b848454620015e9565b825550505050565b5f90565b620016b0620016a2565b620016bd81848462001677565b505050565b5b81811015620016e457620016d85f82620016a6565b600181019050620016c3565b5050565b601f8211156200173357620016fd81620015bc565b6200170884620015ce565b8101602085101562001718578190505b620017306200172785620015ce565b830182620016c2565b50505b505050565b5f82821c905092915050565b5f620017555f198460080262001738565b1980831691505092915050565b5f6200176f838362001744565b9150826002028217905092915050565b6200178a826200111f565b67ffffffffffffffff811115620017a657620017a56200152e565b5b620017b2825462001588565b620017bf828285620016e8565b5f60209050601f831160018114620017f5575f8415620017e0578287015190505b620017ec858262001762565b8655506200185b565b601f1984166200180586620015bc565b5f5b828110156200182e5784890151825560018201915060208501945060208101905062001807565b868310156200184e57848901516200184a601f89168262001744565b8355505b6001600288020188555050505b505050505050565b7f4e487b71000000000000000000000000000000000000000000000000000000005f52601160045260245ffd5b5f6200189c82620010a2565b9150620018a983620010a2565b9250828202620018b981620010a2565b91508282048414831517620018d357620018d262001863565b5b5092915050565b5f620018e682620010a2565b9150620018f383620010a2565b92508282019050808211156200190e576200190d62001863565b5b92915050565b7f4e487b71000000000000000000000000000000000000000000000000000000005f52603260045260245ffd5b5f60ff82169050919050565b5f620019598262001941565b9150620019668362001941565b9250828201905060ff81111562001982576200198162001863565b5b92915050565b5f6200199482620010a2565b91505f8203620019a957620019a862001863565b5b600182039050919050565b828183375f83830152505050565b5f620019cf8385620013f0565b9350620019de838584620019b4565b82840190509392505050565b5f620019f8828486620019c2565b91508190509392505050565b5f62001a11838562001129565b935062001a20838584620019b4565b62001a2b8362001163565b840190509392505050565b5f6020820190508181035f83015262001a5181848662001a04565b9050939250505056fe608060405234801561000f575f80fd5b50604051610b3e380380610b3e8339818101604052810190610031919061022b565b805f73ffffffffffffffffffffffffffffffffffffffff168173ffffffffffffffffffffffffffffffffffffffff16036100a2575f6040517f1e4fbdf70000000000000000000000000000000000000000000000000000000081526004016100999190610265565b60405180910390fd5b6100b18161010c60201b60201c565b5073cd48b32650621694240fafb2d467cdb52fd9579560015f6101000a81548173ffffffffffffffffffffffffffffffffffffffff021916908373ffffffffffffffffffffffffffffffffffffffff1602179055505061027e565b5f805f9054906101000a900473ffffffffffffffffffffffffffffffffffffffff169050815f806101000a81548173ffffffffffffffffffffffffffffffffffffffff021916908373ffffffffffffffffffffffffffffffffffffffff1602179055508173ffffffffffffffffffffffffffffffffffffffff168173ffffffffffffffffffffffffffffffffffffffff167f8be0079c531659141344cd1fd0a4f28419497f9722a3daafe3b4186f6b6457e060405160405180910390a35050565b5f80fd5b5f73ffffffffffffffffffffffffffffffffffffffff82169050919050565b5f6101fa826101d1565b9050919050565b61020a816101f0565b8114610214575f80fd5b50565b5f8151905061022581610201565b92915050565b5f602082840312156102405761023f6101cd565b5b5f61024d84828501610217565b91505092915050565b61025f816101f0565b82525050565b5f6020820190506102785f830184610256565b92915050565b6108b38061028b5f395ff3fe608060405260043610610054575f3560e01c8063376791a114610058578063715018a6146100805780638da5cb5b14610096578063d267732f146100c0578063db72c6b8146100ca578063f2fde38b146100d4575b5f80fd5b348015610063575f80fd5b5061007e6004803603810190610079919061064c565b6100fc565b005b34801561008b575f80fd5b50610094610147565b005b3480156100a1575f80fd5b506100aa61015a565b6040516100b79190610697565b60405180910390f35b6100c8610181565b005b6100d26102ce565b005b3480156100df575f80fd5b506100fa60048036038101906100f591906106da565b61041b565b005b61010461049f565b8060015f6101000a81548173ffffffffffffffffffffffffffffffffffffffff021916908373ffffffffffffffffffffffffffffffffffffffff16021790555050565b61014f61049f565b6101585f610526565b565b5f805f9054906101000a900473ffffffffffffffffffffffffffffffffffffffff16905090565b61018961049f565b5f34116101cb576040517f08c379a00000000000000000000000000000000000000000000000000000000081526004016101c29061075f565b60405180910390fd5b5f60015f9054906101000a900473ffffffffffffffffffffffffffffffffffffffff1673ffffffffffffffffffffffffffffffffffffffff1634604051610211906107aa565b5f6040518083038185875af1925050503d805f811461024b576040519150601f19603f3d011682016040523d82523d5f602084013e610250565b606091505b5050905080610294576040517f08c379a000000000000000000000000000000000000000000000000000000000815260040161028b9061082e565b60405180910390fd5b7fd0572805d790e0d28bb993c858da272484755e34742342d9ad07203e04d896dc346040516102c39190610864565b60405180910390a150565b6102d661049f565b5f3411610318576040517f08c379a000000000000000000000000000000000000000000000000000000000815260040161030f9061075f565b60405180910390fd5b5f60015f9054906101000a900473ffffffffffffffffffffffffffffffffffffffff1673ffffffffffffffffffffffffffffffffffffffff163460405161035e906107aa565b5f6040518083038185875af1925050503d805f8114610398576040519150601f19603f3d011682016040523d82523d5f602084013e61039d565b606091505b50509050806103e1576040517f08c379a00000000000000000000000000000000000000000000000000000000081526004016103d89061082e565b60405180910390fd5b7f932aea04ae675778c045416b67dc8d486ffde60351e811a0a208a5888891f1b5346040516104109190610864565b60405180910390a150565b61042361049f565b5f73ffffffffffffffffffffffffffffffffffffffff168173ffffffffffffffffffffffffffffffffffffffff1603610493575f6040517f1e4fbdf700000000000000000000000000000000000000000000000000000000815260040161048a9190610697565b60405180910390fd5b61049c81610526565b50565b6104a76105e7565b73ffffffffffffffffffffffffffffffffffffffff166104c561015a565b73ffffffffffffffffffffffffffffffffffffffff1614610524576104e86105e7565b6040517f118cdaa700000000000000000000000000000000000000000000000000000000815260040161051b9190610697565b60405180910390fd5b565b5f805f9054906101000a900473ffffffffffffffffffffffffffffffffffffffff169050815f806101000a81548173ffffffffffffffffffffffffffffffffffffffff021916908373ffffffffffffffffffffffffffffffffffffffff1602179055508173ffffffffffffffffffffffffffffffffffffffff168173ffffffffffffffffffffffffffffffffffffffff167f8be0079c531659141344cd1fd0a4f28419497f9722a3daafe3b4186f6b6457e060405160405180910390a35050565b5f33905090565b5f80fd5b5f73ffffffffffffffffffffffffffffffffffffffff82169050919050565b5f61061b826105f2565b9050919050565b61062b81610611565b8114610635575f80fd5b50565b5f8135905061064681610622565b92915050565b5f60208284031215610661576106606105ee565b5b5f61066e84828501610638565b91505092915050565b5f610681826105f2565b9050919050565b61069181610677565b82525050565b5f6020820190506106aa5f830184610688565b92915050565b6106b981610677565b81146106c3575f80fd5b50565b5f813590506106d4816106b0565b92915050565b5f602082840312156106ef576106ee6105ee565b5b5f6106fc848285016106c6565b91505092915050565b5f82825260208201905092915050565b7f596f75206e65656420746f2073656e6420736f6d65204b4c41590000000000005f82015250565b5f610749601a83610705565b915061075482610715565b602082019050919050565b5f6020820190508181035f8301526107768161073d565b9050919050565b5f81905092915050565b50565b5f6107955f8361077d565b91506107a082610787565b5f82019050919050565b5f6107b48261078a565b9150819050919050565b7f4661696c656420746f2073656e64204b4c415920746f207468652074617820615f8201527f63636f756e740000000000000000000000000000000000000000000000000000602082015250565b5f610818602683610705565b9150610823826107be565b604082019050919050565b5f6020820190508181035f8301526108458161080c565b9050919050565b5f819050919050565b61085e8161084c565b82525050565b5f6020820190506108775f830184610855565b9291505056fea2646970667358221220ce555d155dc92f880eefbbbfe0717f7ba8a579540ab2472258b6cdee2172e13a64736f6c634300081500334563647361536563703235366b31566572696669636174696f6e4b657932303139a2646970667358221220a794dd920699be71f11e3a2f457bcb09c576b632776b37471416e7ff372badf164736f6c63430008150033",
  "immutableReferences": {},
  "source": "// SPDX-License-Identifier: MIT\r\npragma solidity ^0.8.0;\r\n\r\nimport \"@openzeppelin/contracts/access/Ownable.sol\";\r\nimport \"./TaxPayment.sol\";\r\n\r\ncontract UserDIDRegistry is Ownable {\r\n\r\n        struct PublicKey {\r\n        string id;\r\n        string keyType;\r\n        string controller;\r\n        string publicKeyHex;\r\n    }\r\n    \r\n    struct DIDDocument {\r\n        string context;\r\n        string id;\r\n        PublicKey publicKey;\r\n        string authentication;\r\n    }\r\n\r\n    mapping(string => DIDDocument) didDocuments;\r\n\r\n    mapping(string => address) taxAddresses;\r\n    mapping(string => address) loanAddresses;\r\n\r\n    constructor() Ownable(msg.sender) {}\r\n\r\n    event DIDCreated(string did);\r\n    event DIDDeleted(string did);\r\n\r\n    function toHexString(uint256 value, uint length) public pure returns (string memory) {\r\n        bytes memory buffer = new bytes(2 * length + 2);\r\n        buffer[0] = '0';\r\n        buffer[1] = 'x';\r\n        for (uint i = 2 * length + 1; i > 1; --i) {\r\n            buffer[i] = bytes1(uint8(value & 0xf) + (value & 0xf < 10 ? 48 : 87));\r\n            value >>= 4;\r\n        }\r\n        return string(buffer);\r\n    }\r\n\r\n    function createDIDDocument(address _holderAddress, string calldata _publicKey) public {\r\n        DIDDocument memory didDocument;\r\n        \r\n        didDocument.id = string(abi.encodePacked(\"did:klay:\", toHexString(uint256(uint160(_holderAddress)), 20)));\r\n        didDocument.context = \"https://www.w3.org/ns/did/v1\";\r\n        didDocument.publicKey.id = string(abi.encodePacked(didDocument.id,\"#keys-1\"));\r\n        didDocument.publicKey.keyType = \"EcdsaSecp256k1VerificationKey2019\";\r\n        didDocument.publicKey.controller = didDocument.id;\r\n        didDocument.publicKey.publicKeyHex = _publicKey;\r\n        didDocument.authentication=didDocument.publicKey.id;\r\n\r\n        address taxAddress = address(new TaxPayment(_holderAddress));\r\n        taxAddresses[didDocument.id] = taxAddress;\r\n\r\n        didDocuments[didDocument.id] = didDocument;\r\n\r\n        emit DIDCreated(didDocument.id);\r\n    }\r\n\r\n    function getDIDDocument(string calldata did) external view returns (DIDDocument memory) {\r\n        return didDocuments[did];\r\n    }\r\n\r\n    function deleteDIDDocument(string calldata did) external onlyOwner {\r\n        delete didDocuments[did];\r\n        emit DIDDeleted(did);\r\n    }\r\n    \r\n    function getTaxContractAddress(string calldata did) external view returns (address) {\r\n        return taxAddresses[did];\r\n    }\r\n\r\n}\r\n",
  "sourcePath": "C:\\Users\\SSAFY\\Desktop\\S10P31C203\\blockchain\\contracts\\UserDIDRegistry.sol",
  "compiler": {
    "name": "solc",
    "version": "0.8.21+commit.d9974bed.Emscripten.clang"
  },
  "schemaVersion": "3.4.16",
  "updatedAt": "2024-05-14T00:35:27.924Z",
  "devdoc": {
    "errors": {
      "OwnableInvalidOwner(address)": [
        {
          "details": "The owner is not a valid owner account. (eg. `address(0)`)"
        }
      ],
      "OwnableUnauthorizedAccount(address)": [
        {
          "details": "The caller account is not authorized to perform an operation."
        }
      ]
    },
    "kind": "dev",
    "methods": {
      "owner()": {
        "details": "Returns the address of the current owner."
      },
      "renounceOwnership()": {
        "details": "Leaves the contract without owner. It will not be possible to call `onlyOwner` functions. Can only be called by the current owner. NOTE: Renouncing ownership will leave the contract without an owner, thereby disabling any functionality that is only available to the owner."
      },
      "transferOwnership(address)": {
        "details": "Transfers ownership of the contract to a new account (`newOwner`). Can only be called by the current owner."
      }
    },
    "version": 1
  },
  "userdoc": {
    "kind": "user",
    "methods": {},
    "version": 1
  }
}