{
  "contractName": "UserDIDRegistry",
  "abi": [
    {
      "inputs": [],
      "stateMutability": "nonpayable",
      "type": "constructor"
    },
    {
      "inputs": [
        {
          "internalType": "address",
          "name": "owner",
          "type": "address"
        }
      ],
      "name": "OwnableInvalidOwner",
      "type": "error"
    },
    {
      "inputs": [
        {
          "internalType": "address",
          "name": "account",
          "type": "address"
        }
      ],
      "name": "OwnableUnauthorizedAccount",
      "type": "error"
    },
    {
      "anonymous": false,
      "inputs": [
        {
          "indexed": false,
          "internalType": "string",
          "name": "did",
          "type": "string"
        }
      ],
      "name": "DIDCreated",
      "type": "event"
    },
    {
      "anonymous": false,
      "inputs": [
        {
          "indexed": false,
          "internalType": "string",
          "name": "did",
          "type": "string"
        }
      ],
      "name": "DIDDeleted",
      "type": "event"
    },
    {
      "anonymous": false,
      "inputs": [
        {
          "indexed": true,
          "internalType": "address",
          "name": "previousOwner",
          "type": "address"
        },
        {
          "indexed": true,
          "internalType": "address",
          "name": "newOwner",
          "type": "address"
        }
      ],
      "name": "OwnershipTransferred",
      "type": "event"
    },
    {
      "inputs": [],
      "name": "owner",
      "outputs": [
        {
          "internalType": "address",
          "name": "",
          "type": "address"
        }
      ],
      "stateMutability": "view",
      "type": "function"
    },
    {
      "inputs": [],
      "name": "renounceOwnership",
      "outputs": [],
      "stateMutability": "nonpayable",
      "type": "function"
    },
    {
      "inputs": [
        {
          "internalType": "address",
          "name": "newOwner",
          "type": "address"
        }
      ],
      "name": "transferOwnership",
      "outputs": [],
      "stateMutability": "nonpayable",
      "type": "function"
    },
    {
      "inputs": [
        {
          "internalType": "uint256",
          "name": "value",
          "type": "uint256"
        },
        {
          "internalType": "uint256",
          "name": "length",
          "type": "uint256"
        }
      ],
      "name": "toHexString",
      "outputs": [
        {
          "internalType": "string",
          "name": "",
          "type": "string"
        }
      ],
      "stateMutability": "pure",
      "type": "function"
    },
    {
      "inputs": [
        {
          "internalType": "address",
          "name": "_holderAddress",
          "type": "address"
        },
        {
          "internalType": "string",
          "name": "_publicKey",
          "type": "string"
        }
      ],
      "name": "createDIDDocument",
      "outputs": [],
      "stateMutability": "nonpayable",
      "type": "function"
    },
    {
      "inputs": [
        {
          "internalType": "string",
          "name": "did",
          "type": "string"
        }
      ],
      "name": "getDIDDocument",
      "outputs": [
        {
          "components": [
            {
              "internalType": "string",
              "name": "context",
              "type": "string"
            },
            {
              "internalType": "string",
              "name": "id",
              "type": "string"
            },
            {
              "components": [
                {
                  "internalType": "string",
                  "name": "id",
                  "type": "string"
                },
                {
                  "internalType": "string",
                  "name": "keyType",
                  "type": "string"
                },
                {
                  "internalType": "string",
                  "name": "controller",
                  "type": "string"
                },
                {
                  "internalType": "string",
                  "name": "publicKeyHex",
                  "type": "string"
                }
              ],
              "internalType": "struct UserDIDRegistry.PublicKey",
              "name": "publicKey",
              "type": "tuple"
            },
            {
              "internalType": "string",
              "name": "authentication",
              "type": "string"
            }
          ],
          "internalType": "struct UserDIDRegistry.DIDDocument",
          "name": "",
          "type": "tuple"
        }
      ],
      "stateMutability": "view",
      "type": "function"
    },
    {
      "inputs": [
        {
          "internalType": "string",
          "name": "did",
          "type": "string"
        }
      ],
      "name": "deleteDIDDocument",
      "outputs": [],
      "stateMutability": "nonpayable",
      "type": "function"
    },
    {
      "inputs": [
        {
          "internalType": "string",
          "name": "did",
          "type": "string"
        }
      ],
      "name": "getTaxContractAddress",
      "outputs": [
        {
          "internalType": "address",
          "name": "",
          "type": "address"
        }
      ],
      "stateMutability": "view",
      "type": "function"
    }
  ],
  "bytecode": "0x6080604052346200002d57620000146200003d565b6200001e62000033565b612b58620002588239612b5890f35b62000039565b60405190565b5f80fd5b6200004833620000bf565b565b90565b60018060a01b031690565b90565b620000746200006e6200007a926200004a565b62000058565b6200004d565b90565b62000088906200005b565b90565b62000096906200004d565b90565b620000a4906200008b565b9052565b9190620000bd905f6020850194019062000099565b565b80620000e0620000d9620000d35f6200007d565b6200008b565b916200008b565b14620000f357620000f190620001ec565b565b62000123620001025f6200007d565b6200010c62000033565b918291631e4fbdf760e01b835260048301620000a8565b0390fd5b5f1c90565b60018060a01b031690565b620001466200014c9162000127565b6200012c565b90565b6200015b905462000137565b90565b5f1b90565b906200017660018060a01b03916200015e565b9181191691161790565b62000199620001936200019f926200004d565b62000058565b6200004d565b90565b620001ad9062000180565b90565b620001bb90620001a2565b90565b90565b90620001db620001d5620001e392620001b0565b620001be565b825462000163565b9055565b5f0190565b620001f75f6200014f565b62000203825f620001c1565b906200023b620002347f8be0079c531659141344cd1fd0a4f28419497f9722a3daafe3b4186f6b6457e093620001b0565b91620001b0565b916200024662000033565b806200025281620001e7565b0390a356fe6080604052600436101562000015575b62000646565b620000215f35620000b0565b8063114080f614620000aa57806363e1cbea14620000a4578063715018a6146200009e578063784afc4e14620000985780638da5cb5b1462000092578063a991067e146200008c578063b9a4638414620000865763f2fde38b036200000f5762000609565b620005a9565b62000569565b6200052a565b620004c4565b62000329565b620002d8565b620001ad565b60e01c90565b60405190565b5f80fd5b5f80fd5b5f80fd5b60018060a01b031690565b620000de90620000c8565b90565b620000ec81620000d3565b03620000f457565b5f80fd5b905035906200010782620000e1565b565b5f80fd5b5f80fd5b5f80fd5b909182601f83011215620001545781359167ffffffffffffffff83116200014e5760200192600183028401116200014857565b62000111565b6200010d565b62000109565b919091604081840312620001a25762000176835f8301620000f8565b92602082013567ffffffffffffffff81116200019c5762000198920162000115565b9091565b620000c4565b620000c0565b5f0190565b34620001e557620001cb620001c43660046200015a565b91620015f5565b620001d5620000b6565b80620001e181620001a8565b0390f35b620000bc565b90565b620001f981620001eb565b036200020157565b5f80fd5b905035906200021482620001ee565b565b91906040838203126200024357806200023662000240925f860162000205565b9360200162000205565b90565b620000c0565b5190565b60209181520190565b5f5b83811062000269575050905f910152565b80602091830151818501520162000258565b601f801991011690565b620002aa620002b4602093620002ba93620002a08162000249565b938480936200024d565b9586910162000256565b6200027b565b0190565b620002d59160208201915f81840391015262000285565b90565b3462000312576200030e620002fa620002f336600462000216565b9062000c99565b62000304620000b6565b91829182620002be565b0390f35b620000bc565b5f9103126200032357565b620000c0565b3462000360576200033c36600462000318565b6200034662000701565b62000350620000b6565b806200035c81620001a8565b0390f35b620000bc565b906020828203126200039c575f82013567ffffffffffffffff8111620003965762000392920162000115565b9091565b620000c4565b620000c0565b60209181520190565b620003d0620003da602093620003e093620003c68162000249565b93848093620003a2565b9586910162000256565b6200027b565b0190565b62000444916060620004326200041f6200040c608085015f8701518682035f880152620003ab565b60208601518582036020870152620003ab565b60408501518482036040860152620003ab565b920151906060818403910152620003ab565b90565b620004a791606062000495620004826200046f608085015f8701518682035f880152620003ab565b60208601518582036020870152620003ab565b60408501518482036040860152620003e4565b920151906060818403910152620003ab565b90565b620004c19160208201915f81840391015262000447565b90565b34620004fe57620004fa620004e6620004df36600462000366565b9062001a37565b620004f0620000b6565b91829182620004aa565b0390f35b620000bc565b6200050f90620000d3565b9052565b919062000528905f6020850194019062000504565b565b3462000563576200053d36600462000318565b6200055f6200054b62000685565b62000555620000b6565b9182918262000513565b0390f35b620000bc565b34620005a3576200059f6200058b6200058436600462000366565b9062001dd0565b62000595620000b6565b9182918262000513565b0390f35b620000bc565b34620005e157620005c7620005c036600462000366565b9062001db2565b620005d1620000b6565b80620005dd81620001a8565b0390f35b620000bc565b90602082820312620006035762000600915f01620000f8565b90565b620000c0565b3462000640576200062662000620366004620005e7565b620007f0565b62000630620000b6565b806200063c81620001a8565b0390f35b620000bc565b5f80fd5b5f90565b5f1c90565b60018060a01b031690565b6200066d62000673916200064e565b62000653565b90565b6200068290546200065e565b90565b6200068f6200064a565b506200069b5f62000676565b90565b620006a86200070d565b620006b2620006ea565b565b90565b90565b620006d3620006cd620006d992620006b4565b620006b7565b620000c8565b90565b620006e790620006ba565b90565b620006ff620006f95f620006dc565b62000886565b565b6200070b6200069e565b565b6200071762000685565b620007366200072f62000729620008f1565b620000d3565b91620000d3565b036200073e57565b6200076d6200074c620008f1565b62000756620000b6565b91829163118cdaa760e01b83526004830162000513565b0390fd5b6200078690620007806200070d565b62000788565b565b80620007a9620007a26200079c5f620006dc565b620000d3565b91620000d3565b14620007bc57620007ba9062000886565b565b620007ec620007cb5f620006dc565b620007d5620000b6565b918291631e4fbdf760e01b83526004830162000513565b0390fd5b620007fb9062000771565b565b5f1b90565b906200081560018060a01b0391620007fd565b9181191691161790565b62000838620008326200083e92620000c8565b620006b7565b620000c8565b90565b6200084c906200081f565b90565b6200085a9062000841565b90565b90565b906200087a6200087462000882926200084f565b6200085d565b825462000802565b9055565b620008915f62000676565b6200089d825f62000860565b90620008d5620008ce7f8be0079c531659141344cd1fd0a4f28419497f9722a3daafe3b4186f6b6457e0936200084f565b916200084f565b91620008e0620000b6565b80620008ec81620001a8565b0390a3565b620008fb6200064a565b503390565b606090565b90565b620009216200091b620009279262000905565b620006b7565b620001eb565b90565b634e487b7160e01b5f52601160045260245ffd5b620009506200095791939293620001eb565b92620001eb565b9162000965838202620001eb565b9281840414901517156200097557565b6200092a565b6200098d6200099491939293620001eb565b92620001eb565b8201809211620009a057565b6200092a565b634e487b7160e01b5f52604160045260245ffd5b90620009c6906200027b565b810190811067ffffffffffffffff821117620009e157604052565b620009a6565b90620009fe620009f6620000b6565b9283620009ba565b565b67ffffffffffffffff811162000a215762000a1d6020916200027b565b0190565b620009a6565b9062000a3d62000a378362000a00565b620009e7565b918252565b369037565b9062000a7262000a578362000a27565b9260208062000a67869362000a00565b920191039062000a42565b565b600360fc1b90565b634e487b7160e01b5f52603260045260245ffd5b5190565b9062000aa08262000a90565b81101562000ab357600160209102010190565b62000a7c565b62000ad262000acc62000ad892620006b4565b620006b7565b620001eb565b90565b600f60fb1b90565b90565b62000aff62000af962000b059262000ae3565b620006b7565b620001eb565b90565b62000b1390620001eb565b5f811462000b22576001900390565b6200092a565b90565b62000b4462000b3e62000b4a9262000b28565b620006b7565b620001eb565b90565b60ff1690565b62000b6c62000b6662000b7292620001eb565b620006b7565b62000b4d565b90565b90565b62000b9162000b8b62000b979262000b75565b620006b7565b620001eb565b90565b90565b62000bb662000bb062000bbc9262000b9a565b620006b7565b62000b4d565b90565b90565b62000bdb62000bd562000be19262000bbf565b620006b7565b62000b4d565b90565b62000bf362000bfa9162000b4d565b9162000b4d565b019060ff821162000c0757565b6200092a565b60ff60f81b1690565b60f81b90565b62000c3562000c2f62000c3b9262000b4d565b62000c16565b62000c0d565b90565b90565b62000c5a62000c5462000c609262000c3e565b620006b7565b62000b4d565b90565b1c90565b62000c8d9062000c8662000c7f62000c939462000b4d565b91620001eb565b9062000c63565b620001eb565b90565b90565b919062000ca562000900565b5062000d5a62000d4762000ce762000ce162000cce600262000cc8879162000908565b6200093e565b62000cda600262000908565b906200097b565b62000a47565b9262000cf262000a74565b62000d0d8562000d065f935f1a9362000ab9565b9062000a94565b5362000d1862000adb565b62000d348562000d2d6001935f1a9362000ae6565b9062000a94565b5362000d41600262000908565b6200093e565b62000d53600162000ae6565b906200097b565b925b8362000d7462000d6d600162000ae6565b91620001eb565b111562000e305762000e108162000deb62000de562000da462000e179562000d9d600f62000b2b565b1662000b53565b8362000db1600f62000b2b565b1662000dc962000dc2600a62000b78565b91620001eb565b105f1462000e1e5762000ddd603062000bc2565b5b9062000be4565b62000c1c565b62000dfc859188905f1a9262000a94565b5362000e09600462000c41565b9062000c67565b9362000b08565b9262000d5c565b62000e2a605762000b9d565b62000dde565b5062000e3e91925062000c96565b90565b62000e4d6080620009e7565b90565b606090565b62000e616080620009e7565b90565b62000e6e62000e55565b9060208080808562000e7f62000e50565b81520162000e8c62000e50565b81520162000e9962000e50565b81520162000ea662000e50565b81525050565b62000eb662000e64565b90565b62000ec362000e41565b9060208080808562000ed462000e50565b81520162000ee162000e50565b81520162000eee62000eac565b81520162000efb62000e50565b81525050565b62000f0b62000eb9565b90565b62000f19906200081f565b90565b62000f3562000f2f62000f3b92620000c8565b620006b7565b620001eb565b90565b90565b62000f5a62000f5462000f609262000f3e565b620006b7565b620001eb565b90565b905090565b5f7f6469643a6b6c61793a0000000000000000000000000000000000000000000000910152565b62000f9d6009809262000f63565b62000fa88162000f68565b0190565b62000fd762000fcd9260209262000fc38162000249565b9485809362000f63565b9384910162000256565b0190565b9062000feb62000ff29262000f8f565b9062000fac565b90565b906200100190620001eb565b9052565b67ffffffffffffffff81116200102657620010226020916200027b565b0190565b620009a6565b90620010426200103c8362001005565b620009e7565b918252565b5f7f68747470733a2f2f7777772e77332e6f72672f6e732f6469642f763100000000910152565b6200107a601c6200102c565b90620010896020830162001047565b565b5f7f236b6579732d3100000000000000000000000000000000000000000000000000910152565b620010c06007809262000f63565b620010cb816200108b565b0190565b620010df90620010e59262000fac565b620010b2565b90565b60207f3900000000000000000000000000000000000000000000000000000000000000917f4563647361536563703235366b31566572696669636174696f6e4b65793230315f8201520152565b6200114160216200102c565b906200115060208301620010e8565b565b5f80fd5b90825f939282370152565b909291926200117a620011748262001005565b620009e7565b938185526020850190828401116200119957620011979262001156565b565b62001152565b620011ac91369162001161565b90565b620011b9620000b6565b3d5f823e3d90fd5b620011cc9062000841565b90565b90565b620011e1620011e791620001eb565b620011cf565b9052565b620011fe62001206916020949362000fac565b8092620011d2565b0190565b6200122262001218620000b6565b92839283620011eb565b03902090565b62001233916200120a565b90565b62001241916200120a565b90565b634e487b7160e01b5f525f60045260245ffd5b5190565b634e487b7160e01b5f52602260045260245ffd5b906001600283049216801562001292575b60208310146200128c57565b6200125b565b91607f169162001280565b5f5260205f2090565b601f602091010490565b1b90565b91906008620012d3910291620012cc5f1984620012b0565b92620012b0565b9181191691161790565b620012f6620012f0620012fc92620001eb565b620006b7565b620001eb565b90565b90565b91906200131d620013176200132693620012dd565b620012ff565b908354620012b4565b9055565b5f90565b62001344916200133d6200132a565b9162001302565b565b5b81811062001353575050565b80620013625f6001936200132e565b0162001347565b9190601f81116200137a575b505050565b62001389620013b4936200129d565b9060206200139784620012a6565b83019310620013bd575b620013ac90620012a6565b019062001346565b5f808062001375565b9150620013ac81929050620013a1565b90620013df905f199060080262000c63565b191690565b81620013f091620013cd565b906002021790565b90620014048162000249565b9067ffffffffffffffff8211620014d7576200142d826200142685546200126f565b8562001369565b602090601f8311600114620014665791809162001454935f9262001459575b5050620013e4565b90555b565b90915001515f806200144c565b601f1983169162001477856200129d565b925f5b818110620014be57509160029391856001969410620014a1575b5050500201905562001457565b620014b3910151601f841690620013cd565b90555f808062001494565b919360206001819287870151815501950192016200147a565b620009a6565b90620014e991620013f8565b565b5190565b906200155b606060036200156294620015185f8201620015115f880162001257565b90620014dd565b62001535600182016200152e6020880162001257565b90620014dd565b62001552600282016200154b6040880162001257565b90620014dd565b01920162001257565b90620014dd565b565b906200157091620014ef565b565b90620015de60606006620015e5946200159b5f8201620015945f880162001257565b90620014dd565b620015b860018201620015b16020880162001257565b90620014dd565b620015d560028201620015ce60408801620014eb565b9062001564565b01920162001257565b90620014dd565b565b90620015f39162001572565b565b9091620017086200160562000f01565b936200166b62001655620016656200163e6200162b620016258962000f0e565b62000f1c565b62001637601462000f41565b9062000c99565b62001648620000b6565b9283916020830162000fdb565b60208201810382520382620009ba565b62000c96565b6020860152620016885f8601620016816200106e565b9062000ff5565b620016c6620016b0620016c06020880151620016a3620000b6565b92839160208301620010cf565b60208201810382520382620009ba565b62000c96565b5f60408701510152620016eb6020604087015101620016e462001135565b9062000ff5565b60208501516040808701510152916060604086015101926200119f565b90525f60408301510151606083015262001721620000b6565b90610d29820182811067ffffffffffffffff821117620017e85782916200175191610d2962001dfa853962000513565b03905ff0908115620017e257620017856200176e602093620011c1565b6200177f6002858501519062001228565b62000860565b620017a1816200179b6001858501519062001236565b620015e7565b0151620017dd7f5fccafd09eeeb6a3dc1c80357ee982c00d7fb00a991274a9b96fe4fd7cb6055291620017d3620000b6565b91829182620002be565b0390a1565b620011af565b620009a6565b9091826200180181620018099362000f63565b809362001156565b0190565b6200182190602094936200182993620017ee565b8092620011d2565b0190565b909162001848906200183e620000b6565b938493846200180d565b03902090565b90916200185b926200182d565b90565b905f92918054906200187c62001874836200126f565b8094620003a2565b916001811690815f14620018da575060011462001899575b505050565b620018a891929394506200129d565b915f925b818410620018c157505001905f808062001894565b60018160209295939554848601520191019290620018ac565b92949550505060ff19168252151560200201905f808062001894565b9062001902916200185e565b90565b906200192b620019239262001919620000b6565b93848092620018f6565b0383620009ba565b565b52565b90620019a96200199f60036200194562000e55565b9462001960620019575f830162001905565b5f88016200192d565b6200197c620019726001830162001905565b602088016200192d565b620019986200198e6002830162001905565b604088016200192d565b0162001905565b606084016200192d565b565b52565b9062001a2762001a1d6006620019c362000e41565b94620019de620019d55f830162001905565b5f88016200192d565b620019fa620019f06001830162001905565b602088016200192d565b62001a1662001a0c6002830162001930565b60408801620019ab565b0162001905565b606084016200192d565b565b62001a3490620019ae565b90565b62001a579062001a5d9262001a4b62000f01565b5060019190916200184e565b62001a29565b90565b9062001a769162001a706200070d565b62001d58565b565b9062001a8d905f199060200360080262000c63565b8154169055565b905f9162001aaf62001aa6826200129d565b928354620013e4565b905555565b919290602082105f1462001b1a57601f841160011462001ae15762001adb929350620013e4565b90555b5b565b509062001b0e62001b1493600162001b0462001afd856200129d565b92620012a6565b8201910162001346565b62001a94565b62001ade565b5062001b5a829362001b2e6001946200129d565b62001b5262001b3d85620012a6565b820192601f86168062001b66575b50620012a6565b019062001346565b60020217905562001adf565b62001b749088860362001a78565b5f62001b4b565b92909168010000000000000000821162001be4576020115f1462001bd457602081105f1462001bb55762001baf91620013e4565b90555b5b565b60019160ff191662001bc7846200129d565b5560020201905562001bb2565b6001915060020201905562001bb3565b620009a6565b90815462001bf8816200126f565b9081831162001c26575b81831062001c11575b50505050565b62001c1c9362001ab4565b5f80808062001c0b565b62001c348383838762001b7b565b62001c02565b5f62001c469162001bea565b565b905f0362001c5d5762001c5b9062001c3a565b565b62001244565b5f600362001c9e9262001c798380830162001c48565b62001c88836001830162001c48565b62001c97836002830162001c48565b0162001c48565b565b905f0362001cb55762001cb39062001c63565b565b62001244565b5f600662001cf69262001cd18380830162001c48565b62001ce0836001830162001c48565b62001cef836002830162001ca0565b0162001c48565b565b905f0362001d0d5762001d0b9062001cbb565b565b62001244565b919062001d328162001d2a8162001d38956200024d565b809562001156565b6200027b565b0190565b909162001d559260208301925f81850391015262001d13565b90565b62001d725f62001d6c60018486916200184e565b62001cf8565b907fb24f94d3ff75ed62d7237e14a510a969d70c1d4efdd4cce8ad563aa8ba60a64c9162001dad62001da3620000b6565b9283928362001d3c565b0390a1565b9062001dbe9162001a60565b565b909162001dcd926200182d565b90565b62001df09062001df69262001de46200064a565b50600291909162001dc0565b62000676565b9056fe60806040523462000037576200001e6200001862000110565b620001d0565b620000286200003d565b610973620003b6823961097390f35b62000043565b60405190565b5f80fd5b601f801991011690565b634e487b7160e01b5f52604160045260245ffd5b90620000719062000047565b810190811060018060401b038211176200008a57604052565b62000051565b90620000a76200009f6200003d565b928362000065565b565b5f80fd5b60018060a01b031690565b620000c390620000ad565b90565b620000d181620000b8565b03620000d957565b5f80fd5b90505190620000ec82620000c6565b565b906020828203126200010a5762000107915f01620000dd565b90565b620000a9565b6200013362000d2980380380620001278162000090565b928339810190620000ee565b90565b90565b620001526200014c6200015892620000ad565b62000136565b620000ad565b90565b620001669062000139565b90565b62000174906200015b565b90565b5f1b90565b906200018f60018060a01b039162000177565b9181191691161790565b620001a4906200015b565b90565b90565b90620001c4620001be620001cc9262000199565b620001a7565b82546200017c565b9055565b620001db9062000261565b62000206620001fe73cd48b32650621694240fafb2d467cdb52fd9579562000169565b6001620001aa565b565b90565b620002246200021e6200022a9262000208565b62000136565b620000ad565b90565b62000238906200020b565b90565b6200024690620000b8565b9052565b91906200025f905f602085019401906200023b565b565b80620002826200027b620002755f6200022d565b620000b8565b91620000b8565b14620002955762000293906200034a565b565b620002c5620002a45f6200022d565b620002ae6200003d565b918291631e4fbdf760e01b8352600483016200024a565b0390fd5b5f1c90565b60018060a01b031690565b620002e8620002ee91620002c9565b620002ce565b90565b620002fd9054620002d9565b90565b6200030b9062000139565b90565b620003199062000300565b90565b90565b90620003396200033362000341926200030e565b6200031c565b82546200017c565b9055565b5f0190565b620003555f620002f1565b62000361825f6200031f565b9062000399620003927f8be0079c531659141344cd1fd0a4f28419497f9722a3daafe3b4186f6b6457e0936200030e565b916200030e565b91620003a46200003d565b80620003b08162000345565b0390a356fe60806040526004361015610013575b61028b565b61001d5f3561007c565b8063376791a114610077578063715018a6146100725780638da5cb5b1461006d578063d267732f14610068578063db72c6b8146100635763f2fde38b0361000e57610258565b6101ee565b6101c5565b610190565b61012f565b6100ed565b60e01c90565b60405190565b5f80fd5b5f80fd5b60018060a01b031690565b6100a490610090565b90565b6100b08161009b565b036100b757565b5f80fd5b905035906100c8826100a7565b565b906020828203126100e3576100e0915f016100bb565b90565b61008c565b5f0190565b3461011b576101056101003660046100ca565b610932565b61010d610082565b80610117816100e8565b0390f35b610088565b5f91031261012a57565b61008c565b3461015d5761013f366004610120565b61014761032c565b61014f610082565b80610159816100e8565b0390f35b610088565b61016b90610090565b90565b61017790610162565b9052565b919061018e905f6020850194019061016e565b565b346101c0576101a0366004610120565b6101bc6101ab6102c4565b6101b3610082565b9182918261017b565b0390f35b610088565b6101d0366004610120565b6101d86108cd565b6101e0610082565b806101ea816100e8565b0390f35b6101f9366004610120565b61020161081c565b610209610082565b80610213816100e8565b0390f35b61022081610162565b0361022757565b5f80fd5b9050359061023882610217565b565b9060208282031261025357610250915f0161022b565b90565b61008c565b346102865761027061026b36600461023a565b6103f7565b610278610082565b80610282816100e8565b0390f35b610088565b5f80fd5b5f90565b5f1c90565b60018060a01b031690565b6102af6102b491610293565b610298565b90565b6102c190546102a3565b90565b6102cc61028f565b506102d65f6102b7565b90565b6102e1610336565b6102e9610319565b565b90565b90565b61030561030061030a926102eb565b6102ee565b610090565b90565b610316906102f1565b90565b61032a6103255f61030d565b610479565b565b6103346102d9565b565b61033e6102c4565b61035761035161034c6104d8565b610162565b91610162565b0361035e57565b6103876103696104d8565b610371610082565b91829163118cdaa760e01b83526004830161017b565b0390fd5b61039c90610397610336565b61039e565b565b806103b96103b36103ae5f61030d565b610162565b91610162565b146103c9576103c790610479565b565b6103f36103d55f61030d565b6103dd610082565b918291631e4fbdf760e01b83526004830161017b565b0390fd5b6104009061038b565b565b5f1b90565b9061041860018060a01b0391610402565b9181191691161790565b61043661043161043b92610090565b6102ee565b610090565b90565b61044790610422565b90565b6104539061043e565b90565b90565b9061046e6104696104759261044a565b610456565b8254610407565b9055565b6104825f6102b7565b61048c825f610459565b906104c06104ba7f8be0079c531659141344cd1fd0a4f28419497f9722a3daafe3b4186f6b6457e09361044a565b9161044a565b916104c9610082565b806104d3816100e8565b0390a3565b6104e061028f565b503390565b6104ed610336565b6104f5610787565b565b90565b61050e610509610513926102eb565b6102ee565b6104f7565b90565b60209181520190565b5f7f596f75206e65656420746f2073656e6420736f6d65204b4c4159000000000000910152565b610553601a602092610516565b61055c8161051f565b0190565b6105759060208101905f818303910152610546565b90565b1561057f57565b610587610082565b62461bcd60e51b81528061059d60048201610560565b0390fd5b60018060a01b031690565b6105b86105bd91610293565b6105a1565b90565b6105ca90546105ac565b90565b6105d69061043e565b90565b905090565b6105e95f80926105d9565b0190565b6105f6906105de565b90565b601f801991011690565b634e487b7160e01b5f52604160045260245ffd5b90610621906105f9565b810190811067ffffffffffffffff82111761063b57604052565b610603565b9061065361064c610082565b9283610617565b565b67ffffffffffffffff81116106735761066f6020916105f9565b0190565b610603565b9061068a61068583610655565b610640565b918252565b606090565b3d5f146106af576106a43d610678565b903d5f602084013e5b565b6106b761068f565b906106ad565b60207f63636f756e740000000000000000000000000000000000000000000000000000917f4661696c656420746f2073656e64204b4c415920746f207468652074617820615f8201520152565b6107176026604092610516565b610720816106bd565b0190565b6107399060208101905f81830391015261070a565b90565b1561074357565b61074b610082565b62461bcd60e51b81528061076160048201610724565b0390fd5b61076e906104f7565b9052565b9190610785905f60208501940190610765565b565b6107a33461079d6107975f6104fa565b916104f7565b11610578565b6107e05f806107ba6107b560016105c0565b6105cd565b346107c3610082565b90816107ce816105ed565b03925af16107da610694565b5061073c565b346108177f932aea04ae675778c045416b67dc8d486ffde60351e811a0a208a5888891f1b59161080e610082565b91829182610772565b0390a1565b6108246104e5565b565b61082e610336565b610836610838565b565b6108543461084e6108485f6104fa565b916104f7565b11610578565b6108915f8061086b61086660016105c0565b6105cd565b34610874610082565b908161087f816105ed565b03925af161088b610694565b5061073c565b346108c87fd0572805d790e0d28bb993c858da272484755e34742342d9ad07203e04d896dc916108bf610082565b91829182610772565b0390a1565b6108d5610826565b565b6108e8906108e3610336565b610925565b565b6108f390610422565b90565b6108ff906108ea565b90565b90565b9061091a610915610921926108f6565b610902565b8254610407565b9055565b610930906001610905565b565b61093b906108d7565b56fea26469706673582212203ca6348ee13fa0de27bd139d682a696f86911bc849b31523f880f8b19752ea3d64736f6c63430008150033a264697066735822122092335e5004b4ff30b432c78838f7db946675f63daef3d22cd5ffb26ee275d39e64736f6c63430008150033",
  "immutableReferences": {},
  "source": "// SPDX-License-Identifier: MIT\r\npragma solidity ^0.8.0;\r\n\r\nimport \"@openzeppelin/contracts/access/Ownable.sol\";\r\nimport \"./TaxPayment.sol\";\r\n\r\ncontract UserDIDRegistry is Ownable {\r\n\r\n        struct PublicKey {\r\n        string id;\r\n        string keyType;\r\n        string controller;\r\n        string publicKeyHex;\r\n    }\r\n    \r\n    struct DIDDocument {\r\n        string context;\r\n        string id;\r\n        PublicKey publicKey;\r\n        string authentication;\r\n    }\r\n\r\n    mapping(string => DIDDocument) didDocuments;\r\n\r\n    mapping(string => address) taxAddresses;\r\n    mapping(string => address) loanAddresses;\r\n\r\n    constructor() Ownable(msg.sender) {}\r\n\r\n    event DIDCreated(string did);\r\n    event DIDDeleted(string did);\r\n\r\n    function toHexString(uint256 value, uint length) public pure returns (string memory) {\r\n        bytes memory buffer = new bytes(2 * length + 2);\r\n        buffer[0] = '0';\r\n        buffer[1] = 'x';\r\n        for (uint i = 2 * length + 1; i > 1; --i) {\r\n            buffer[i] = bytes1(uint8(value & 0xf) + (value & 0xf < 10 ? 48 : 87));\r\n            value >>= 4;\r\n        }\r\n        return string(buffer);\r\n    }\r\n\r\n    function createDIDDocument(address _holderAddress, string calldata _publicKey) public {\r\n        DIDDocument memory didDocument;\r\n        \r\n        didDocument.id = string(abi.encodePacked(\"did:klay:\", toHexString(uint256(uint160(_holderAddress)), 20)));\r\n        didDocument.context = \"https://www.w3.org/ns/did/v1\";\r\n        didDocument.publicKey.id = string(abi.encodePacked(didDocument.id,\"#keys-1\"));\r\n        didDocument.publicKey.keyType = \"EcdsaSecp256k1VerificationKey2019\";\r\n        didDocument.publicKey.controller = didDocument.id;\r\n        didDocument.publicKey.publicKeyHex = _publicKey;\r\n        didDocument.authentication=didDocument.publicKey.id;\r\n\r\n        address taxAddress = address(new TaxPayment(_holderAddress));\r\n        taxAddresses[didDocument.id] = taxAddress;\r\n\r\n        didDocuments[didDocument.id] = didDocument;\r\n\r\n        emit DIDCreated(didDocument.id);\r\n    }\r\n\r\n    function getDIDDocument(string calldata did) external view returns (DIDDocument memory) {\r\n        return didDocuments[did];\r\n    }\r\n\r\n    function deleteDIDDocument(string calldata did) external onlyOwner {\r\n        delete didDocuments[did];\r\n        emit DIDDeleted(did);\r\n    }\r\n    \r\n    function getTaxContractAddress(string calldata did) external view returns (address) {\r\n        return taxAddresses[did];\r\n    }\r\n\r\n}\r\n",
  "sourcePath": "C:\\Users\\SSAFY\\Desktop\\S10P31C203\\blockchain\\contracts\\UserDIDRegistry.sol",
  "compiler": {
    "name": "solc",
    "version": "0.8.21+commit.d9974bed.Emscripten.clang"
  },
  "schemaVersion": "3.4.16",
  "updatedAt": "2024-05-14T08:09:25.743Z",
  "devdoc": {
    "errors": {
      "OwnableInvalidOwner(address)": [
        {
          "details": "The owner is not a valid owner account. (eg. `address(0)`)"
        }
      ],
      "OwnableUnauthorizedAccount(address)": [
        {
          "details": "The caller account is not authorized to perform an operation."
        }
      ]
    },
    "kind": "dev",
    "methods": {
      "owner()": {
        "details": "Returns the address of the current owner."
      },
      "renounceOwnership()": {
        "details": "Leaves the contract without owner. It will not be possible to call `onlyOwner` functions. Can only be called by the current owner. NOTE: Renouncing ownership will leave the contract without an owner, thereby disabling any functionality that is only available to the owner."
      },
      "transferOwnership(address)": {
        "details": "Transfers ownership of the contract to a new account (`newOwner`). Can only be called by the current owner."
      }
    },
    "version": 1
  },
  "userdoc": {
    "kind": "user",
    "methods": {},
    "version": 1
  }
}