{
  "contractName": "userVCregistry",
  "abi": [
    {
      "inputs": [],
      "stateMutability": "nonpayable",
      "type": "constructor"
    },
    {
      "inputs": [
        {
          "internalType": "address",
          "name": "owner",
          "type": "address"
        }
      ],
      "name": "OwnableInvalidOwner",
      "type": "error"
    },
    {
      "inputs": [
        {
          "internalType": "address",
          "name": "account",
          "type": "address"
        }
      ],
      "name": "OwnableUnauthorizedAccount",
      "type": "error"
    },
    {
      "anonymous": false,
      "inputs": [
        {
          "indexed": true,
          "internalType": "address",
          "name": "previousOwner",
          "type": "address"
        },
        {
          "indexed": true,
          "internalType": "address",
          "name": "newOwner",
          "type": "address"
        }
      ],
      "name": "OwnershipTransferred",
      "type": "event"
    },
    {
      "anonymous": false,
      "inputs": [
        {
          "indexed": false,
          "internalType": "string",
          "name": "id",
          "type": "string"
        }
      ],
      "name": "VCcreated",
      "type": "event"
    },
    {
      "anonymous": false,
      "inputs": [
        {
          "indexed": false,
          "internalType": "string",
          "name": "id",
          "type": "string"
        }
      ],
      "name": "VCdeleted",
      "type": "event"
    },
    {
      "inputs": [],
      "name": "owner",
      "outputs": [
        {
          "internalType": "address",
          "name": "",
          "type": "address"
        }
      ],
      "stateMutability": "view",
      "type": "function"
    },
    {
      "inputs": [],
      "name": "renounceOwnership",
      "outputs": [],
      "stateMutability": "nonpayable",
      "type": "function"
    },
    {
      "inputs": [
        {
          "internalType": "address",
          "name": "newOwner",
          "type": "address"
        }
      ],
      "name": "transferOwnership",
      "outputs": [],
      "stateMutability": "nonpayable",
      "type": "function"
    },
    {
      "inputs": [
        {
          "components": [
            {
              "internalType": "string",
              "name": "context",
              "type": "string"
            },
            {
              "internalType": "string",
              "name": "id",
              "type": "string"
            },
            {
              "internalType": "string",
              "name": "credentialType",
              "type": "string"
            },
            {
              "internalType": "string",
              "name": "issuer",
              "type": "string"
            },
            {
              "internalType": "uint256",
              "name": "issuanceDate",
              "type": "uint256"
            },
            {
              "components": [
                {
                  "internalType": "string",
                  "name": "id",
                  "type": "string"
                },
                {
                  "components": [
                    {
                      "internalType": "string",
                      "name": "id",
                      "type": "string"
                    },
                    {
                      "components": [
                        {
                          "internalType": "string",
                          "name": "value",
                          "type": "string"
                        },
                        {
                          "internalType": "string",
                          "name": "lang",
                          "type": "string"
                        }
                      ],
                      "internalType": "struct VCstruct.Name",
                      "name": "name",
                      "type": "tuple"
                    }
                  ],
                  "internalType": "struct VCstruct.CitizenOf",
                  "name": "citizenOf",
                  "type": "tuple"
                }
              ],
              "internalType": "struct VCstruct.CredentialSubject",
              "name": "credentialSubject",
              "type": "tuple"
            },
            {
              "components": [
                {
                  "internalType": "string",
                  "name": "proofType",
                  "type": "string"
                },
                {
                  "internalType": "string",
                  "name": "proofPurpose",
                  "type": "string"
                },
                {
                  "internalType": "string",
                  "name": "verificationMethod",
                  "type": "string"
                },
                {
                  "internalType": "string",
                  "name": "jws",
                  "type": "string"
                }
              ],
              "internalType": "struct VCstruct.Proof",
              "name": "proof",
              "type": "tuple"
            }
          ],
          "internalType": "struct VCstruct.Credential",
          "name": "_inputCredential",
          "type": "tuple"
        }
      ],
      "name": "claimCredential",
      "outputs": [],
      "stateMutability": "nonpayable",
      "type": "function"
    },
    {
      "inputs": [
        {
          "internalType": "string",
          "name": "id",
          "type": "string"
        }
      ],
      "name": "getVC",
      "outputs": [
        {
          "components": [
            {
              "internalType": "string",
              "name": "context",
              "type": "string"
            },
            {
              "internalType": "string",
              "name": "id",
              "type": "string"
            },
            {
              "internalType": "string",
              "name": "credentialType",
              "type": "string"
            },
            {
              "internalType": "string",
              "name": "issuer",
              "type": "string"
            },
            {
              "internalType": "uint256",
              "name": "issuanceDate",
              "type": "uint256"
            },
            {
              "components": [
                {
                  "internalType": "string",
                  "name": "id",
                  "type": "string"
                },
                {
                  "components": [
                    {
                      "internalType": "string",
                      "name": "id",
                      "type": "string"
                    },
                    {
                      "components": [
                        {
                          "internalType": "string",
                          "name": "value",
                          "type": "string"
                        },
                        {
                          "internalType": "string",
                          "name": "lang",
                          "type": "string"
                        }
                      ],
                      "internalType": "struct VCstruct.Name",
                      "name": "name",
                      "type": "tuple"
                    }
                  ],
                  "internalType": "struct VCstruct.CitizenOf",
                  "name": "citizenOf",
                  "type": "tuple"
                }
              ],
              "internalType": "struct VCstruct.CredentialSubject",
              "name": "credentialSubject",
              "type": "tuple"
            },
            {
              "components": [
                {
                  "internalType": "string",
                  "name": "proofType",
                  "type": "string"
                },
                {
                  "internalType": "string",
                  "name": "proofPurpose",
                  "type": "string"
                },
                {
                  "internalType": "string",
                  "name": "verificationMethod",
                  "type": "string"
                },
                {
                  "internalType": "string",
                  "name": "jws",
                  "type": "string"
                }
              ],
              "internalType": "struct VCstruct.Proof",
              "name": "proof",
              "type": "tuple"
            }
          ],
          "internalType": "struct VCstruct.Credential",
          "name": "",
          "type": "tuple"
        }
      ],
      "stateMutability": "view",
      "type": "function"
    },
    {
      "inputs": [
        {
          "internalType": "string",
          "name": "id",
          "type": "string"
        }
      ],
      "name": "deleteVC",
      "outputs": [],
      "stateMutability": "nonpayable",
      "type": "function"
    }
  ],
  "bytecode": "0x608060405234801562000010575f80fd5b50335f73ffffffffffffffffffffffffffffffffffffffff168173ffffffffffffffffffffffffffffffffffffffff160362000085575f6040517f1e4fbdf70000000000000000000000000000000000000000000000000000000081526004016200007c9190620001a1565b60405180910390fd5b62000096816200009d60201b60201c565b50620001bc565b5f805f9054906101000a900473ffffffffffffffffffffffffffffffffffffffff169050815f806101000a81548173ffffffffffffffffffffffffffffffffffffffff021916908373ffffffffffffffffffffffffffffffffffffffff1602179055508173ffffffffffffffffffffffffffffffffffffffff168173ffffffffffffffffffffffffffffffffffffffff167f8be0079c531659141344cd1fd0a4f28419497f9722a3daafe3b4186f6b6457e060405160405180910390a35050565b5f73ffffffffffffffffffffffffffffffffffffffff82169050919050565b5f62000189826200015e565b9050919050565b6200019b816200017d565b82525050565b5f602082019050620001b65f83018462000190565b92915050565b611da780620001ca5f395ff3fe608060405234801561000f575f80fd5b5060043610610060575f3560e01c80630289a8fe14610064578063715018a6146100805780638da5cb5b1461008a578063d905515a146100a8578063f2fde38b146100d8578063fcf0527f146100f4575b5f80fd5b61007e60048036038101906100799190610fe2565b610110565b005b61008861024a565b005b61009261025d565b60405161009f919061106c565b60405180910390f35b6100c260048036038101906100bd9190610fe2565b610284565b6040516100cf919061131b565b60405180910390f35b6100f260048036038101906100ed9190611365565b6109d4565b005b61010e600480360381019061010991906118b7565b610a58565b005b610118610cff565b6001828260405161012a92919061192c565b90815260200160405180910390205f8082015f6101479190610e4e565b600182015f6101569190610e4e565b600282015f6101659190610e4e565b600382015f6101749190610e4e565b600482015f9055600582015f8082015f61018e9190610e4e565b600182015f8082015f6101a19190610e4e565b600182015f8082015f6101b49190610e4e565b600182015f6101c39190610e4e565b505050505050600982015f8082015f6101dc9190610e4e565b600182015f6101eb9190610e4e565b600282015f6101fa9190610e4e565b600382015f6102099190610e4e565b505050507ff73018c7f397f59e4dfbab5fc1e381788eac8b63cb77e818c984c4e18313b434828260405161023e929190611980565b60405180910390a15050565b610252610cff565b61025b5f610d86565b565b5f805f9054906101000a900473ffffffffffffffffffffffffffffffffffffffff16905090565b61028c610e8b565b6001838360405161029e92919061192c565b90815260200160405180910390206040518060e00160405290815f820180546102c6906119cf565b80601f01602080910402602001604051908101604052809291908181526020018280546102f2906119cf565b801561033d5780601f106103145761010080835404028352916020019161033d565b820191905f5260205f20905b81548152906001019060200180831161032057829003601f168201915b50505050508152602001600182018054610356906119cf565b80601f0160208091040260200160405190810160405280929190818152602001828054610382906119cf565b80156103cd5780601f106103a4576101008083540402835291602001916103cd565b820191905f5260205f20905b8154815290600101906020018083116103b057829003601f168201915b505050505081526020016002820180546103e6906119cf565b80601f0160208091040260200160405190810160405280929190818152602001828054610412906119cf565b801561045d5780601f106104345761010080835404028352916020019161045d565b820191905f5260205f20905b81548152906001019060200180831161044057829003601f168201915b50505050508152602001600382018054610476906119cf565b80601f01602080910402602001604051908101604052809291908181526020018280546104a2906119cf565b80156104ed5780601f106104c4576101008083540402835291602001916104ed565b820191905f5260205f20905b8154815290600101906020018083116104d057829003601f168201915b5050505050815260200160048201548152602001600582016040518060400160405290815f8201805461051f906119cf565b80601f016020809104026020016040519081016040528092919081815260200182805461054b906119cf565b80156105965780601f1061056d57610100808354040283529160200191610596565b820191905f5260205f20905b81548152906001019060200180831161057957829003601f168201915b50505050508152602001600182016040518060400160405290815f820180546105be906119cf565b80601f01602080910402602001604051908101604052809291908181526020018280546105ea906119cf565b80156106355780601f1061060c57610100808354040283529160200191610635565b820191905f5260205f20905b81548152906001019060200180831161061857829003601f168201915b50505050508152602001600182016040518060400160405290815f8201805461065d906119cf565b80601f0160208091040260200160405190810160405280929190818152602001828054610689906119cf565b80156106d45780601f106106ab576101008083540402835291602001916106d4565b820191905f5260205f20905b8154815290600101906020018083116106b757829003601f168201915b505050505081526020016001820180546106ed906119cf565b80601f0160208091040260200160405190810160405280929190818152602001828054610719906119cf565b80156107645780601f1061073b57610100808354040283529160200191610764565b820191905f5260205f20905b81548152906001019060200180831161074757829003601f168201915b50505050508152505081525050815250508152602001600982016040518060800160405290815f82018054610798906119cf565b80601f01602080910402602001604051908101604052809291908181526020018280546107c4906119cf565b801561080f5780601f106107e65761010080835404028352916020019161080f565b820191905f5260205f20905b8154815290600101906020018083116107f257829003601f168201915b50505050508152602001600182018054610828906119cf565b80601f0160208091040260200160405190810160405280929190818152602001828054610854906119cf565b801561089f5780601f106108765761010080835404028352916020019161089f565b820191905f5260205f20905b81548152906001019060200180831161088257829003601f168201915b505050505081526020016002820180546108b8906119cf565b80601f01602080910402602001604051908101604052809291908181526020018280546108e4906119cf565b801561092f5780601f106109065761010080835404028352916020019161092f565b820191905f5260205f20905b81548152906001019060200180831161091257829003601f168201915b50505050508152602001600382018054610948906119cf565b80601f0160208091040260200160405190810160405280929190818152602001828054610974906119cf565b80156109bf5780601f10610996576101008083540402835291602001916109bf565b820191905f5260205f20905b8154815290600101906020018083116109a257829003601f168201915b50505050508152505081525050905092915050565b6109dc610cff565b5f73ffffffffffffffffffffffffffffffffffffffff168173ffffffffffffffffffffffffffffffffffffffff1603610a4c575f6040517f1e4fbdf7000000000000000000000000000000000000000000000000000000008152600401610a43919061106c565b60405180910390fd5b610a5581610d86565b50565b610a60610cff565b5f60018260a001515f0151604051610a789190611a2f565b90815260200160405180910390206004015414610aca576040517f08c379a0000000000000000000000000000000000000000000000000000000008152600401610ac190611a8f565b60405180910390fd5b610ad2610e8b565b815f0151815f0181905250816020015181602001819052508160400151816040018190525081606001518160600181905250428160800181815250508160a001515f01518160a001515f01819052508160a00151602001515f01518160a00151602001515f01819052508160a0015160200151602001518160a0015160200151602001819052508160c001518160c001819052508060018260200151604051610b7b9190611a2f565b90815260200160405180910390205f820151815f019081610b9c9190611c4a565b506020820151816001019081610bb29190611c4a565b506040820151816002019081610bc89190611c4a565b506060820151816003019081610bde9190611c4a565b506080820151816004015560a0820151816005015f820151815f019081610c059190611c4a565b506020820151816001015f820151815f019081610c229190611c4a565b506020820151816001015f820151815f019081610c3f9190611c4a565b506020820151816001019081610c559190611c4a565b5050505050505060c0820151816009015f820151815f019081610c789190611c4a565b506020820151816001019081610c8e9190611c4a565b506040820151816002019081610ca49190611c4a565b506060820151816003019081610cba9190611c4a565b5050509050507f654d76f61e4e7047f6181124017f2f814cd81e4b075b0ef23e6bc07d12dcffb28160200151604051610cf39190611d51565b60405180910390a15050565b610d07610e47565b73ffffffffffffffffffffffffffffffffffffffff16610d2561025d565b73ffffffffffffffffffffffffffffffffffffffff1614610d8457610d48610e47565b6040517f118cdaa7000000000000000000000000000000000000000000000000000000008152600401610d7b919061106c565b60405180910390fd5b565b5f805f9054906101000a900473ffffffffffffffffffffffffffffffffffffffff169050815f806101000a81548173ffffffffffffffffffffffffffffffffffffffff021916908373ffffffffffffffffffffffffffffffffffffffff1602179055508173ffffffffffffffffffffffffffffffffffffffff168173ffffffffffffffffffffffffffffffffffffffff167f8be0079c531659141344cd1fd0a4f28419497f9722a3daafe3b4186f6b6457e060405160405180910390a35050565b5f33905090565b508054610e5a906119cf565b5f825580601f10610e6b5750610e88565b601f0160209004905f5260205f2090810190610e879190610ed3565b5b50565b6040518060e00160405280606081526020016060815260200160608152602001606081526020015f8152602001610ec0610eee565b8152602001610ecd610f0e565b81525090565b5b80821115610eea575f815f905550600101610ed4565b5090565b604051806040016040528060608152602001610f08610f36565b81525090565b6040518060800160405280606081526020016060815260200160608152602001606081525090565b604051806040016040528060608152602001610f50610f56565b81525090565b604051806040016040528060608152602001606081525090565b5f604051905090565b5f80fd5b5f80fd5b5f80fd5b5f80fd5b5f80fd5b5f8083601f840112610fa257610fa1610f81565b5b8235905067ffffffffffffffff811115610fbf57610fbe610f85565b5b602083019150836001820283011115610fdb57610fda610f89565b5b9250929050565b5f8060208385031215610ff857610ff7610f79565b5b5f83013567ffffffffffffffff81111561101557611014610f7d565b5b61102185828601610f8d565b92509250509250929050565b5f73ffffffffffffffffffffffffffffffffffffffff82169050919050565b5f6110568261102d565b9050919050565b6110668161104c565b82525050565b5f60208201905061107f5f83018461105d565b92915050565b5f81519050919050565b5f82825260208201905092915050565b5f5b838110156110bc5780820151818401526020810190506110a1565b5f8484015250505050565b5f601f19601f8301169050919050565b5f6110e182611085565b6110eb818561108f565b93506110fb81856020860161109f565b611104816110c7565b840191505092915050565b5f819050919050565b6111218161110f565b82525050565b5f604083015f8301518482035f86015261114182826110d7565b9150506020830151848203602086015261115b82826110d7565b9150508091505092915050565b5f604083015f8301518482035f86015261118282826110d7565b9150506020830151848203602086015261119c8282611127565b9150508091505092915050565b5f604083015f8301518482035f8601526111c382826110d7565b915050602083015184820360208601526111dd8282611168565b9150508091505092915050565b5f608083015f8301518482035f86015261120482826110d7565b9150506020830151848203602086015261121e82826110d7565b9150506040830151848203604086015261123882826110d7565b9150506060830151848203606086015261125282826110d7565b9150508091505092915050565b5f60e083015f8301518482035f86015261127982826110d7565b9150506020830151848203602086015261129382826110d7565b915050604083015184820360408601526112ad82826110d7565b915050606083015184820360608601526112c782826110d7565b91505060808301516112dc6080860182611118565b5060a083015184820360a08601526112f482826111a9565b91505060c083015184820360c086015261130e82826111ea565b9150508091505092915050565b5f6020820190508181035f830152611333818461125f565b905092915050565b6113448161104c565b811461134e575f80fd5b50565b5f8135905061135f8161133b565b92915050565b5f6020828403121561137a57611379610f79565b5b5f61138784828501611351565b91505092915050565b5f80fd5b7f4e487b71000000000000000000000000000000000000000000000000000000005f52604160045260245ffd5b6113ca826110c7565b810181811067ffffffffffffffff821117156113e9576113e8611394565b5b80604052505050565b5f6113fb610f70565b905061140782826113c1565b919050565b5f80fd5b5f80fd5b5f67ffffffffffffffff82111561142e5761142d611394565b5b611437826110c7565b9050602081019050919050565b828183375f83830152505050565b5f61146461145f84611414565b6113f2565b9050828152602081018484840111156114805761147f611410565b5b61148b848285611444565b509392505050565b5f82601f8301126114a7576114a6610f81565b5b81356114b7848260208601611452565b91505092915050565b6114c98161110f565b81146114d3575f80fd5b50565b5f813590506114e4816114c0565b92915050565b5f604082840312156114ff576114fe611390565b5b61150960406113f2565b90505f82013567ffffffffffffffff8111156115285761152761140c565b5b61153484828501611493565b5f83015250602082013567ffffffffffffffff8111156115575761155661140c565b5b61156384828501611493565b60208301525092915050565b5f6040828403121561158457611583611390565b5b61158e60406113f2565b90505f82013567ffffffffffffffff8111156115ad576115ac61140c565b5b6115b984828501611493565b5f83015250602082013567ffffffffffffffff8111156115dc576115db61140c565b5b6115e8848285016114ea565b60208301525092915050565b5f6040828403121561160957611608611390565b5b61161360406113f2565b90505f82013567ffffffffffffffff8111156116325761163161140c565b5b61163e84828501611493565b5f83015250602082013567ffffffffffffffff8111156116615761166061140c565b5b61166d8482850161156f565b60208301525092915050565b5f6080828403121561168e5761168d611390565b5b61169860806113f2565b90505f82013567ffffffffffffffff8111156116b7576116b661140c565b5b6116c384828501611493565b5f83015250602082013567ffffffffffffffff8111156116e6576116e561140c565b5b6116f284828501611493565b602083015250604082013567ffffffffffffffff8111156117165761171561140c565b5b61172284828501611493565b604083015250606082013567ffffffffffffffff8111156117465761174561140c565b5b61175284828501611493565b60608301525092915050565b5f60e0828403121561177357611772611390565b5b61177d60e06113f2565b90505f82013567ffffffffffffffff81111561179c5761179b61140c565b5b6117a884828501611493565b5f83015250602082013567ffffffffffffffff8111156117cb576117ca61140c565b5b6117d784828501611493565b602083015250604082013567ffffffffffffffff8111156117fb576117fa61140c565b5b61180784828501611493565b604083015250606082013567ffffffffffffffff81111561182b5761182a61140c565b5b61183784828501611493565b606083015250608061184b848285016114d6565b60808301525060a082013567ffffffffffffffff81111561186f5761186e61140c565b5b61187b848285016115f4565b60a08301525060c082013567ffffffffffffffff81111561189f5761189e61140c565b5b6118ab84828501611679565b60c08301525092915050565b5f602082840312156118cc576118cb610f79565b5b5f82013567ffffffffffffffff8111156118e9576118e8610f7d565b5b6118f58482850161175e565b91505092915050565b5f81905092915050565b5f61191383856118fe565b9350611920838584611444565b82840190509392505050565b5f611938828486611908565b91508190509392505050565b5f82825260208201905092915050565b5f61195f8385611944565b935061196c838584611444565b611975836110c7565b840190509392505050565b5f6020820190508181035f830152611999818486611954565b90509392505050565b7f4e487b71000000000000000000000000000000000000000000000000000000005f52602260045260245ffd5b5f60028204905060018216806119e657607f821691505b6020821081036119f9576119f86119a2565b5b50919050565b5f611a0982611085565b611a1381856118fe565b9350611a2381856020860161109f565b80840191505092915050565b5f611a3a82846119ff565b915081905092915050565b7f43726564656e7469616c20616c726561647920697373756564000000000000005f82015250565b5f611a79601983611944565b9150611a8482611a45565b602082019050919050565b5f6020820190508181035f830152611aa681611a6d565b9050919050565b5f819050815f5260205f209050919050565b5f6020601f8301049050919050565b5f82821b905092915050565b5f60088302611b097fffffffffffffffffffffffffffffffffffffffffffffffffffffffffffffffff82611ace565b611b138683611ace565b95508019841693508086168417925050509392505050565b5f819050919050565b5f611b4e611b49611b448461110f565b611b2b565b61110f565b9050919050565b5f819050919050565b611b6783611b34565b611b7b611b7382611b55565b848454611ada565b825550505050565b5f90565b611b8f611b83565b611b9a818484611b5e565b505050565b5b81811015611bbd57611bb25f82611b87565b600181019050611ba0565b5050565b601f821115611c0257611bd381611aad565b611bdc84611abf565b81016020851015611beb578190505b611bff611bf785611abf565b830182611b9f565b50505b505050565b5f82821c905092915050565b5f611c225f1984600802611c07565b1980831691505092915050565b5f611c3a8383611c13565b9150826002028217905092915050565b611c5382611085565b67ffffffffffffffff811115611c6c57611c6b611394565b5b611c7682546119cf565b611c81828285611bc1565b5f60209050601f831160018114611cb2575f8415611ca0578287015190505b611caa8582611c2f565b865550611d11565b601f198416611cc086611aad565b5f5b82811015611ce757848901518255600182019150602085019450602081019050611cc2565b86831015611d045784890151611d00601f891682611c13565b8355505b6001600288020188555050505b505050505050565b5f611d2382611085565b611d2d8185611944565b9350611d3d81856020860161109f565b611d46816110c7565b840191505092915050565b5f6020820190508181035f830152611d698184611d19565b90509291505056fea26469706673582212207a7380c4075141f531aa4e18a72afaecd06e9f24c063a82c1883a6669f8d168a64736f6c63430008150033",
  "immutableReferences": {},
  "source": "// SPDX-License-Identifier: MIT\r\npragma solidity ^0.8.0;\r\n\r\nimport \"../struct/VCstruct.sol\";\r\nimport \"@openzeppelin/contracts/access/Ownable.sol\";\r\n\r\ncontract userVCregistry is Ownable{\r\n\r\n    mapping( string=> VCstruct.Credential) credentials;\r\n\r\n    constructor() Ownable(msg.sender) {}\r\n\r\n    event VCcreated(string id);\r\n    event VCdeleted(string id);\r\n\r\n    function claimCredential(VCstruct.Credential memory _inputCredential) external onlyOwner{\r\n        require(credentials[_inputCredential.credentialSubject.id].issuanceDate == 0, \"Credential already issued\");\r\n\r\n        VCstruct.Credential memory newCredential;\r\n\r\n        newCredential.context=_inputCredential.context;\r\n        newCredential.id=_inputCredential.id;\r\n        newCredential.credentialType=_inputCredential.credentialType;\r\n        newCredential.issuer=_inputCredential.issuer;\r\n        newCredential.issuanceDate=block.timestamp;\r\n        newCredential.credentialSubject.id=_inputCredential.credentialSubject.id;\r\n        newCredential.credentialSubject.citizenOf.id=_inputCredential.credentialSubject.citizenOf.id;\r\n        newCredential.credentialSubject.citizenOf.name=_inputCredential.credentialSubject.citizenOf.name;\r\n        newCredential.proof=_inputCredential.proof;\r\n\r\n        credentials[newCredential.id] = newCredential;\r\n\r\n        emit VCcreated(newCredential.id);\r\n    }\r\n\r\n    function getVC(string calldata id) external view returns (VCstruct.Credential memory) {\r\n        return credentials[id];\r\n    }\r\n\r\n    function deleteVC(string calldata id) external onlyOwner {\r\n        delete credentials[id];\r\n        emit VCdeleted(id);\r\n    }\r\n\r\n}",
  "sourcePath": "C:\\Users\\SSAFY\\Desktop\\S10P31C203\\blockchain\\vc-user\\contracts\\user-vc\\UserIdentityVC.sol",
  "compiler": {
    "name": "solc",
    "version": "0.8.21+commit.d9974bed.Emscripten.clang"
  },
  "schemaVersion": "3.4.16",
  "updatedAt": "2024-05-08T01:34:35.373Z",
  "devdoc": {
    "errors": {
      "OwnableInvalidOwner(address)": [
        {
          "details": "The owner is not a valid owner account. (eg. `address(0)`)"
        }
      ],
      "OwnableUnauthorizedAccount(address)": [
        {
          "details": "The caller account is not authorized to perform an operation."
        }
      ]
    },
    "kind": "dev",
    "methods": {
      "owner()": {
        "details": "Returns the address of the current owner."
      },
      "renounceOwnership()": {
        "details": "Leaves the contract without owner. It will not be possible to call `onlyOwner` functions. Can only be called by the current owner. NOTE: Renouncing ownership will leave the contract without an owner, thereby disabling any functionality that is only available to the owner."
      },
      "transferOwnership(address)": {
        "details": "Transfers ownership of the contract to a new account (`newOwner`). Can only be called by the current owner."
      }
    },
    "version": 1
  },
  "userdoc": {
    "kind": "user",
    "methods": {},
    "version": 1
  }
}