{
  "contractName": "LongTermRent",
  "abi": [
    {
      "inputs": [
        {
          "internalType": "address payable",
          "name": "_landlordAddress",
          "type": "address"
        },
        {
          "internalType": "address payable",
          "name": "_tenantAddress",
          "type": "address"
        },
        {
          "internalType": "string",
          "name": "_landlordDID",
          "type": "string"
        },
        {
          "internalType": "string",
          "name": "_tenantDID",
          "type": "string"
        },
        {
          "internalType": "uint16",
          "name": "_leasePeriod",
          "type": "uint16"
        },
        {
          "internalType": "uint256",
          "name": "_deposit",
          "type": "uint256"
        },
        {
          "internalType": "string",
          "name": "_propertyDID",
          "type": "string"
        },
        {
          "internalType": "uint256",
          "name": "_contractDate",
          "type": "uint256"
        },
        {
          "internalType": "string[]",
          "name": "_terms",
          "type": "string[]"
        }
      ],
      "stateMutability": "nonpayable",
      "type": "constructor"
    },
    {
      "inputs": [],
      "name": "rentalContract",
      "outputs": [
        {
          "components": [
            {
              "internalType": "string",
              "name": "landlordDID",
              "type": "string"
            },
            {
              "internalType": "string",
              "name": "tenantDID",
              "type": "string"
            },
            {
              "internalType": "uint16",
              "name": "leasePeriod",
              "type": "uint16"
            },
            {
              "internalType": "uint256",
              "name": "deposit",
              "type": "uint256"
            },
            {
              "internalType": "string",
              "name": "propertyDID",
              "type": "string"
            },
            {
              "internalType": "uint256",
              "name": "contractDate",
              "type": "uint256"
            },
            {
              "internalType": "string[]",
              "name": "terms",
              "type": "string[]"
            }
          ],
          "internalType": "struct LongTermRentStruct.ContractInfo",
          "name": "contractInfo",
          "type": "tuple"
        },
        {
          "internalType": "bytes32",
          "name": "contractInfoHash",
          "type": "bytes32"
        },
        {
          "internalType": "bytes",
          "name": "landlordSignature",
          "type": "bytes"
        },
        {
          "internalType": "bytes",
          "name": "tenantSignature",
          "type": "bytes"
        }
      ],
      "stateMutability": "view",
      "type": "function"
    },
    {
      "inputs": [
        {
          "internalType": "bytes",
          "name": "_landlordSignature",
          "type": "bytes"
        }
      ],
      "name": "signContractByLandlord",
      "outputs": [],
      "stateMutability": "nonpayable",
      "type": "function"
    },
    {
      "inputs": [
        {
          "internalType": "bytes",
          "name": "_tenantSignature",
          "type": "bytes"
        }
      ],
      "name": "signContractByTenant",
      "outputs": [],
      "stateMutability": "nonpayable",
      "type": "function"
    },
    {
      "inputs": [],
      "name": "verifyContract",
      "outputs": [
        {
          "internalType": "bool",
          "name": "",
          "type": "bool"
        }
      ],
      "stateMutability": "view",
      "type": "function"
    },
    {
      "inputs": [],
      "name": "payDeposit",
      "outputs": [],
      "stateMutability": "payable",
      "type": "function"
    }
  ],
  "bytecode": "0x608060405234801562000010575f80fd5b5060405162002243380380620022438339818101604052810190620000369190620005c1565b88600a5f6101000a81548173ffffffffffffffffffffffffffffffffffffffff021916908373ffffffffffffffffffffffffffffffffffffffff16021790555087600b5f6101000a81548173ffffffffffffffffffffffffffffffffffffffff021916908373ffffffffffffffffffffffffffffffffffffffff160217905550865f80015f019081620000ca919062000944565b50855f80016001019081620000e0919062000944565b50845f80016002015f6101000a81548161ffff021916908361ffff160217905550835f800160030181905550825f8001600401908162000121919062000944565b50815f800160050181905550805f80016006019080519060200190620001499291906200018a565b505f6040516020016200015d919062000e5f565b604051602081830303815290604052805190602001205f6007018190555050505050505050505062000e81565b828054828255905f5260205f20908101928215620001d5579160200282015b82811115620001d4578251829081620001c3919062000944565b5091602001919060010190620001a9565b5b509050620001e49190620001e8565b5090565b5b808211156200020b575f81816200020191906200020f565b50600101620001e9565b5090565b5080546200021d906200074d565b5f825580601f106200023057506200024f565b601f0160209004905f5260205f20908101906200024e919062000252565b5b50565b5b808211156200026b575f815f90555060010162000253565b5090565b5f604051905090565b5f80fd5b5f80fd5b5f73ffffffffffffffffffffffffffffffffffffffff82169050919050565b5f620002ab8262000280565b9050919050565b620002bd816200029f565b8114620002c8575f80fd5b50565b5f81519050620002db81620002b2565b92915050565b5f80fd5b5f80fd5b5f601f19601f8301169050919050565b7f4e487b71000000000000000000000000000000000000000000000000000000005f52604160045260245ffd5b6200033182620002e9565b810181811067ffffffffffffffff82111715620003535762000352620002f9565b5b80604052505050565b5f620003676200026f565b905062000375828262000326565b919050565b5f67ffffffffffffffff821115620003975762000396620002f9565b5b620003a282620002e9565b9050602081019050919050565b5f5b83811015620003ce578082015181840152602081019050620003b1565b5f8484015250505050565b5f620003ef620003e9846200037a565b6200035c565b9050828152602081018484840111156200040e576200040d620002e5565b5b6200041b848285620003af565b509392505050565b5f82601f8301126200043a5762000439620002e1565b5b81516200044c848260208601620003d9565b91505092915050565b5f61ffff82169050919050565b6200046d8162000455565b811462000478575f80fd5b50565b5f815190506200048b8162000462565b92915050565b5f819050919050565b620004a58162000491565b8114620004b0575f80fd5b50565b5f81519050620004c3816200049a565b92915050565b5f67ffffffffffffffff821115620004e657620004e5620002f9565b5b602082029050602081019050919050565b5f80fd5b5f620005116200050b84620004c9565b6200035c565b90508083825260208201905060208402830185811115620005375762000536620004f7565b5b835b818110156200058557805167ffffffffffffffff81111562000560576200055f620002e1565b5b8086016200056f898262000423565b8552602085019450505060208101905062000539565b5050509392505050565b5f82601f830112620005a657620005a5620002e1565b5b8151620005b8848260208601620004fb565b91505092915050565b5f805f805f805f805f6101208a8c031215620005e257620005e162000278565b5b5f620005f18c828d01620002cb565b9950506020620006048c828d01620002cb565b98505060408a015167ffffffffffffffff8111156200062857620006276200027c565b5b620006368c828d0162000423565b97505060608a015167ffffffffffffffff8111156200065a57620006596200027c565b5b620006688c828d0162000423565b96505060806200067b8c828d016200047b565b95505060a06200068e8c828d01620004b3565b94505060c08a015167ffffffffffffffff811115620006b257620006b16200027c565b5b620006c08c828d0162000423565b93505060e0620006d38c828d01620004b3565b9250506101008a015167ffffffffffffffff811115620006f857620006f76200027c565b5b620007068c828d016200058f565b9150509295985092959850929598565b5f81519050919050565b7f4e487b71000000000000000000000000000000000000000000000000000000005f52602260045260245ffd5b5f60028204905060018216806200076557607f821691505b6020821081036200077b576200077a62000720565b5b50919050565b5f819050815f5260205f209050919050565b5f6020601f8301049050919050565b5f82821b905092915050565b5f60088302620007df7fffffffffffffffffffffffffffffffffffffffffffffffffffffffffffffffff82620007a2565b620007eb8683620007a2565b95508019841693508086168417925050509392505050565b5f819050919050565b5f6200082c62000826620008208462000491565b62000803565b62000491565b9050919050565b5f819050919050565b62000847836200080c565b6200085f620008568262000833565b848454620007ae565b825550505050565b5f90565b6200087562000867565b620008828184846200083c565b505050565b5b81811015620008a9576200089d5f826200086b565b60018101905062000888565b5050565b601f821115620008f857620008c28162000781565b620008cd8462000793565b81016020851015620008dd578190505b620008f5620008ec8562000793565b83018262000887565b50505b505050565b5f82821c905092915050565b5f6200091a5f1984600802620008fd565b1980831691505092915050565b5f62000934838362000909565b9150826002028217905092915050565b6200094f8262000716565b67ffffffffffffffff8111156200096b576200096a620002f9565b5b6200097782546200074d565b62000984828285620008ad565b5f60209050601f831160018114620009ba575f8415620009a5578287015190505b620009b1858262000927565b86555062000a20565b601f198416620009ca8662000781565b5f5b82811015620009f357848901518255600182019150602085019450602081019050620009cc565b8683101562000a13578489015162000a0f601f89168262000909565b8355505b6001600288020188555050505b505050505050565b5f82825260208201905092915050565b5f815462000a46816200074d565b62000a52818662000a28565b9450600182165f811462000a6f576001811462000a865762000abc565b60ff19831686528115156020028601935062000abc565b62000a918562000781565b5f5b8381101562000ab45781548189015260018201915060208101905062000a93565b808801955050505b50505092915050565b5f815f1c9050919050565b5f61ffff82169050919050565b5f62000af362000aed8362000ac5565b62000ad0565b9050919050565b62000b058162000455565b82525050565b5f819050919050565b5f62000b2a62000b248362000ac5565b62000b0b565b9050919050565b62000b3c8162000491565b82525050565b5f81549050919050565b5f82825260208201905092915050565b5f819050815f5260205f209050919050565b5f62000b7b838362000a38565b905092915050565b5f600182019050919050565b5f62000b9b8262000b42565b62000ba7818562000b4c565b93508360208202850162000bbb8562000b5c565b805f5b8581101562000bfb5784840389528162000bd9858262000b6e565b945062000be68362000b83565b925060208a0199505060018101905062000bbe565b50829750879550505050505092915050565b5f60e083015f8084018583035f87015262000c29838262000a38565b92505060018401858303602087015262000c44838262000a38565b9250506002840154905062000c598162000add565b62000c68604087018262000afa565b506003840154905062000c7b8162000b14565b62000c8a606087018262000b31565b5060048401858303608087015262000ca3838262000a38565b9250506005840154905062000cb88162000b14565b62000cc760a087018262000b31565b506006840185830360c087015262000ce0838262000b8f565b925050819250505092915050565b5f819050919050565b5f62000d0d62000d078362000ac5565b62000cee565b9050919050565b5f819050919050565b62000d288162000d14565b82525050565b5f82825260208201905092915050565b5f819050815f5260205f209050919050565b5f815462000d5e816200074d565b62000d6a818662000d2e565b9450600182165f811462000d87576001811462000d9e5762000dd4565b60ff19831686528115156020028601935062000dd4565b62000da98562000d3e565b5f5b8381101562000dcc5781548189015260018201915060208101905062000dab565b808801955050505b50505092915050565b5f608083015f8084018583035f87015262000df9838262000c0d565b9250506007840154905062000e0e8162000cf7565b62000e1d602087018262000d1d565b5060088401858303604087015262000e36838262000d50565b92505060098401858303606087015262000e51838262000d50565b925050819250505092915050565b5f6020820190508181035f83015262000e79818462000ddd565b905092915050565b6113b48062000e8f5f395ff3fe608060405260043610610049575f3560e01c806330f532b31461004d5780635c274b8614610075578063a0d948ea1461007f578063caa5fbaf146100a9578063e8f4e9d4146100d1575b5f80fd5b348015610058575f80fd5b50610073600480360381019061006e9190610930565b6100fe565b005b61007d6101a2565b005b34801561008a575f80fd5b506100936102e1565b6040516100a09190610991565b60405180910390f35b3480156100b4575f80fd5b506100cf60048036038101906100ca9190610930565b610357565b005b3480156100dc575f80fd5b506100e56103fb565b6040516100f59493929190610c2b565b60405180910390f35b600b5f9054906101000a900473ffffffffffffffffffffffffffffffffffffffff1673ffffffffffffffffffffffffffffffffffffffff163373ffffffffffffffffffffffffffffffffffffffff161461018d576040517f08c379a000000000000000000000000000000000000000000000000000000000815260040161018490610d03565b60405180910390fd5b805f600901908161019e9190610f1b565b5050565b600b5f9054906101000a900473ffffffffffffffffffffffffffffffffffffffff1673ffffffffffffffffffffffffffffffffffffffff163373ffffffffffffffffffffffffffffffffffffffff1614610231576040517f08c379a00000000000000000000000000000000000000000000000000000000081526004016102289061105a565b60405180910390fd5b5f80016003015434101561027a576040517f08c379a0000000000000000000000000000000000000000000000000000000008152600401610271906110e8565b60405180910390fd5b600a5f9054906101000a900473ffffffffffffffffffffffffffffffffffffffff1673ffffffffffffffffffffffffffffffffffffffff166108fc3490811502906040515f60405180830381858888f193505050501580156102de573d5f803e3d5ffd5b50565b5f805f80015f015f80016001015f80016002015f9054906101000a900461ffff165f8001600301545f80016004015f8001600501545f800160060160405160200161033297969594939291906112f5565b604051602081830303815290604052805190602001209050805f600701541491505090565b600a5f9054906101000a900473ffffffffffffffffffffffffffffffffffffffff1673ffffffffffffffffffffffffffffffffffffffff163373ffffffffffffffffffffffffffffffffffffffff16146103e6576040517f08c379a00000000000000000000000000000000000000000000000000000000081526004016103dd90610d03565b60405180910390fd5b805f60080190816103f79190610f1b565b5050565b5f805f016040518060e00160405290815f8201805461041990610d4e565b80601f016020809104026020016040519081016040528092919081815260200182805461044590610d4e565b80156104905780601f1061046757610100808354040283529160200191610490565b820191905f5260205f20905b81548152906001019060200180831161047357829003601f168201915b505050505081526020016001820180546104a990610d4e565b80601f01602080910402602001604051908101604052809291908181526020018280546104d590610d4e565b80156105205780601f106104f757610100808354040283529160200191610520565b820191905f5260205f20905b81548152906001019060200180831161050357829003601f168201915b50505050508152602001600282015f9054906101000a900461ffff1661ffff1661ffff1681526020016003820154815260200160048201805461056290610d4e565b80601f016020809104026020016040519081016040528092919081815260200182805461058e90610d4e565b80156105d95780601f106105b0576101008083540402835291602001916105d9565b820191905f5260205f20905b8154815290600101906020018083116105bc57829003601f168201915b505050505081526020016005820154815260200160068201805480602002602001604051908101604052809291908181526020015f905b828210156106b8578382905f5260205f2001805461062d90610d4e565b80601f016020809104026020016040519081016040528092919081815260200182805461065990610d4e565b80156106a45780601f1061067b576101008083540402835291602001916106a4565b820191905f5260205f20905b81548152906001019060200180831161068757829003601f168201915b505050505081526020019060010190610610565b5050505081525050908060070154908060080180546106d690610d4e565b80601f016020809104026020016040519081016040528092919081815260200182805461070290610d4e565b801561074d5780601f106107245761010080835404028352916020019161074d565b820191905f5260205f20905b81548152906001019060200180831161073057829003601f168201915b50505050509080600901805461076290610d4e565b80601f016020809104026020016040519081016040528092919081815260200182805461078e90610d4e565b80156107d95780601f106107b0576101008083540402835291602001916107d9565b820191905f5260205f20905b8154815290600101906020018083116107bc57829003601f168201915b5050505050905084565b5f604051905090565b5f80fd5b5f80fd5b5f80fd5b5f80fd5b5f601f19601f8301169050919050565b7f4e487b71000000000000000000000000000000000000000000000000000000005f52604160045260245ffd5b610842826107fc565b810181811067ffffffffffffffff821117156108615761086061080c565b5b80604052505050565b5f6108736107e3565b905061087f8282610839565b919050565b5f67ffffffffffffffff82111561089e5761089d61080c565b5b6108a7826107fc565b9050602081019050919050565b828183375f83830152505050565b5f6108d46108cf84610884565b61086a565b9050828152602081018484840111156108f0576108ef6107f8565b5b6108fb8482856108b4565b509392505050565b5f82601f830112610917576109166107f4565b5b81356109278482602086016108c2565b91505092915050565b5f60208284031215610945576109446107ec565b5b5f82013567ffffffffffffffff811115610962576109616107f0565b5b61096e84828501610903565b91505092915050565b5f8115159050919050565b61098b81610977565b82525050565b5f6020820190506109a45f830184610982565b92915050565b5f81519050919050565b5f82825260208201905092915050565b5f5b838110156109e15780820151818401526020810190506109c6565b5f8484015250505050565b5f6109f6826109aa565b610a0081856109b4565b9350610a108185602086016109c4565b610a19816107fc565b840191505092915050565b5f61ffff82169050919050565b610a3a81610a24565b82525050565b5f819050919050565b610a5281610a40565b82525050565b5f81519050919050565b5f82825260208201905092915050565b5f819050602082019050919050565b5f610a8c83836109ec565b905092915050565b5f602082019050919050565b5f610aaa82610a58565b610ab48185610a62565b935083602082028501610ac685610a72565b805f5b85811015610b015784840389528151610ae28582610a81565b9450610aed83610a94565b925060208a01995050600181019050610ac9565b50829750879550505050505092915050565b5f60e083015f8301518482035f860152610b2d82826109ec565b91505060208301518482036020860152610b4782826109ec565b9150506040830151610b5c6040860182610a31565b506060830151610b6f6060860182610a49565b5060808301518482036080860152610b8782826109ec565b91505060a0830151610b9c60a0860182610a49565b5060c083015184820360c0860152610bb48282610aa0565b9150508091505092915050565b5f819050919050565b610bd381610bc1565b82525050565b5f81519050919050565b5f82825260208201905092915050565b5f610bfd82610bd9565b610c078185610be3565b9350610c178185602086016109c4565b610c20816107fc565b840191505092915050565b5f6080820190508181035f830152610c438187610b13565b9050610c526020830186610bca565b8181036040830152610c648185610bf3565b90508181036060830152610c788184610bf3565b905095945050505050565b5f82825260208201905092915050565b7f4f6e6c79206c616e646c6f72642063616e207369676e2074686520636f6e74725f8201527f6163742e00000000000000000000000000000000000000000000000000000000602082015250565b5f610ced602483610c83565b9150610cf882610c93565b604082019050919050565b5f6020820190508181035f830152610d1a81610ce1565b9050919050565b7f4e487b71000000000000000000000000000000000000000000000000000000005f52602260045260245ffd5b5f6002820490506001821680610d6557607f821691505b602082108103610d7857610d77610d21565b5b50919050565b5f819050815f5260205f209050919050565b5f6020601f8301049050919050565b5f82821b905092915050565b5f60088302610dda7fffffffffffffffffffffffffffffffffffffffffffffffffffffffffffffffff82610d9f565b610de48683610d9f565b95508019841693508086168417925050509392505050565b5f819050919050565b5f610e1f610e1a610e1584610a40565b610dfc565b610a40565b9050919050565b5f819050919050565b610e3883610e05565b610e4c610e4482610e26565b848454610dab565b825550505050565b5f90565b610e60610e54565b610e6b818484610e2f565b505050565b5b81811015610e8e57610e835f82610e58565b600181019050610e71565b5050565b601f821115610ed357610ea481610d7e565b610ead84610d90565b81016020851015610ebc578190505b610ed0610ec885610d90565b830182610e70565b50505b505050565b5f82821c905092915050565b5f610ef35f1984600802610ed8565b1980831691505092915050565b5f610f0b8383610ee4565b9150826002028217905092915050565b610f2482610bd9565b67ffffffffffffffff811115610f3d57610f3c61080c565b5b610f478254610d4e565b610f52828285610e92565b5f60209050601f831160018114610f83575f8415610f71578287015190505b610f7b8582610f00565b865550610fe2565b601f198416610f9186610d7e565b5f5b82811015610fb857848901518255600182019150602085019450602081019050610f93565b86831015610fd55784890151610fd1601f891682610ee4565b8355505b6001600288020188555050505b505050505050565b7f4f6e6c79207468652074656e616e742063616e2070617920746865206465706f5f8201527f7369742e00000000000000000000000000000000000000000000000000000000602082015250565b5f611044602483610c83565b915061104f82610fea565b604082019050919050565b5f6020820190508181035f83015261107181611038565b9050919050565b7f4465706f73697420616d6f756e74206973206e6f742073756666696369656e745f8201527f2e00000000000000000000000000000000000000000000000000000000000000602082015250565b5f6110d2602183610c83565b91506110dd82611078565b604082019050919050565b5f6020820190508181035f8301526110ff816110c6565b9050919050565b5f819050815f5260205f209050919050565b5f815461112481610d4e565b61112e8186610c83565b9450600182165f8114611148576001811461115e57611190565b60ff198316865281151560200286019350611190565b61116785611106565b5f5b8381101561118857815481890152600182019150602081019050611169565b808801955050505b50505092915050565b6111a281610a24565b82525050565b6111b181610a40565b82525050565b5f81549050919050565b5f82825260208201905092915050565b5f819050815f5260205f209050919050565b5f81546111ef81610d4e565b6111f981866109b4565b9450600182165f811461121357600181146112295761125b565b60ff19831686528115156020028601935061125b565b61123285611106565b5f5b8381101561125357815481890152600182019150602081019050611234565b808801955050505b50505092915050565b5f61126f83836111e3565b905092915050565b5f600182019050919050565b5f61128d826111b7565b61129781856111c1565b9350836020820285016112a9856111d1565b805f5b858110156112e3578484038952816112c48582611264565b94506112cf83611277565b925060208a019950506001810190506112ac565b50829750879550505050505092915050565b5f60e0820190508181035f83015261130d818a611118565b905081810360208301526113218189611118565b90506113306040830188611199565b61133d60608301876111a8565b818103608083015261134f8186611118565b905061135e60a08301856111a8565b81810360c08301526113708184611283565b90509897505050505050505056fea2646970667358221220a4f8a318ef13649dea25bde3705600de74ef977b0a9fdcba5d5ec160e42340b664736f6c63430008150033",
  "immutableReferences": {},
  "source": "// SPDX-License-Identifier: MIT\r\npragma solidity ^0.8.0;\r\n\r\nimport \"./LongTermRentStruct.sol\";\r\n\r\ncontract LongTermRent {\r\n\r\n    LongTermRentStruct.LongTermRentContract public rentalContract;\r\n\r\n    address payable landlordAddress;\r\n    address payable tenantAddress;\r\n\r\n    constructor(\r\n        address payable _landlordAddress,\r\n        address payable _tenantAddress,\r\n        string memory _landlordDID,\r\n        string memory _tenantDID,\r\n        uint16 _leasePeriod,\r\n        uint256 _deposit,\r\n        string memory _propertyDID,\r\n        uint256 _contractDate,\r\n        string[] memory _terms\r\n    ) {\r\n        landlordAddress = _landlordAddress;\r\n        tenantAddress = _tenantAddress;\r\n\r\n        //   \r\n        rentalContract.contractInfo.landlordDID = _landlordDID;\r\n        rentalContract.contractInfo.tenantDID = _tenantDID;\r\n        rentalContract.contractInfo.leasePeriod = _leasePeriod;\r\n        rentalContract.contractInfo.deposit = _deposit;\r\n        rentalContract.contractInfo.propertyDID = _propertyDID;\r\n        rentalContract.contractInfo.contractDate = _contractDate;\r\n        rentalContract.contractInfo.terms = _terms;\r\n\r\n        //    \r\n        rentalContract.contractInfoHash = keccak256(abi.encode(rentalContract));\r\n    }\r\n\r\n    function signContractByLandlord(bytes memory _landlordSignature) external {\r\n        require(msg.sender == landlordAddress, \"Only landlord can sign the contract.\");\r\n        rentalContract.landlordSignature = _landlordSignature;\r\n    }\r\n\r\n    function signContractByTenant(bytes memory _tenantSignature) external {\r\n        require(msg.sender == tenantAddress, \"Only landlord can sign the contract.\");\r\n        rentalContract.tenantSignature = _tenantSignature;\r\n    }\r\n\r\n    //   \r\n    function verifyContract() public view returns (bool) {\r\n        bytes32 hash = keccak256(\r\n            abi.encode(\r\n                rentalContract.contractInfo.landlordDID,\r\n                rentalContract.contractInfo.tenantDID,\r\n                rentalContract.contractInfo.leasePeriod,\r\n                rentalContract.contractInfo.deposit,\r\n                rentalContract.contractInfo.propertyDID,\r\n                rentalContract.contractInfo.contractDate,\r\n                rentalContract.contractInfo.terms\r\n            )\r\n        );\r\n\r\n        return rentalContract.contractInfoHash == hash;\r\n    }\r\n    \r\n    //      payable \r\n    function payDeposit() public payable {\r\n        require(msg.sender == tenantAddress, \"Only the tenant can pay the deposit.\");\r\n        require(msg.value >= rentalContract.contractInfo.deposit, \"Deposit amount is not sufficient.\");\r\n\r\n        //    \r\n        landlordAddress.transfer(msg.value);\r\n    }\r\n\r\n}",
  "sourcePath": "C:\\SSAFY\\S10P31C203\\blockchain\\contract-real-estate\\contracts\\long-term-rent\\LongTermRent.sol",
  "compiler": {
    "name": "solc",
    "version": "0.8.21+commit.d9974bed.Emscripten.clang"
  },
  "schemaVersion": "3.4.16",
  "updatedAt": "2024-05-09T01:36:28.217Z",
  "devdoc": {
    "kind": "dev",
    "methods": {},
    "version": 1
  },
  "userdoc": {
    "kind": "user",
    "methods": {},
    "version": 1
  }
}