{
  "contractName": "BytesUtils",
  "abi": [
    {
      "inputs": [
        {
          "internalType": "string",
          "name": "str",
          "type": "string"
        }
      ],
      "name": "hexStringToAddress",
      "outputs": [
        {
          "internalType": "bytes",
          "name": "",
          "type": "bytes"
        }
      ],
      "stateMutability": "pure",
      "type": "function"
    },
    {
      "inputs": [
        {
          "internalType": "string",
          "name": "did",
          "type": "string"
        }
      ],
      "name": "getSinger",
      "outputs": [
        {
          "internalType": "bytes",
          "name": "bs",
          "type": "bytes"
        }
      ],
      "stateMutability": "pure",
      "type": "function"
    },
    {
      "inputs": [
        {
          "internalType": "string",
          "name": "str",
          "type": "string"
        },
        {
          "internalType": "uint256",
          "name": "startIndex",
          "type": "uint256"
        },
        {
          "internalType": "uint256",
          "name": "endIndex",
          "type": "uint256"
        }
      ],
      "name": "substring",
      "outputs": [
        {
          "internalType": "string",
          "name": "",
          "type": "string"
        }
      ],
      "stateMutability": "pure",
      "type": "function"
    },
    {
      "inputs": [
        {
          "internalType": "string",
          "name": "str",
          "type": "string"
        }
      ],
      "name": "stringToBytes",
      "outputs": [
        {
          "internalType": "bytes",
          "name": "",
          "type": "bytes"
        }
      ],
      "stateMutability": "pure",
      "type": "function"
    },
    {
      "inputs": [
        {
          "internalType": "bytes",
          "name": "_bs",
          "type": "bytes"
        }
      ],
      "name": "bytesToAddress",
      "outputs": [
        {
          "internalType": "address",
          "name": "addr",
          "type": "address"
        }
      ],
      "stateMutability": "pure",
      "type": "function"
    },
    {
      "inputs": [
        {
          "internalType": "address",
          "name": "_addr",
          "type": "address"
        }
      ],
      "name": "addressToBytes",
      "outputs": [
        {
          "internalType": "bytes",
          "name": "bs",
          "type": "bytes"
        }
      ],
      "stateMutability": "pure",
      "type": "function"
    },
    {
      "inputs": [
        {
          "internalType": "uint8",
          "name": "c",
          "type": "uint8"
        }
      ],
      "name": "fromHexChar",
      "outputs": [
        {
          "internalType": "uint8",
          "name": "",
          "type": "uint8"
        }
      ],
      "stateMutability": "pure",
      "type": "function"
    },
    {
      "inputs": [
        {
          "internalType": "string",
          "name": "s",
          "type": "string"
        }
      ],
      "name": "fromHex",
      "outputs": [
        {
          "internalType": "bytes",
          "name": "",
          "type": "bytes"
        }
      ],
      "stateMutability": "pure",
      "type": "function"
    },
    {
      "inputs": [
        {
          "internalType": "string",
          "name": "str",
          "type": "string"
        }
      ],
      "name": "toLower",
      "outputs": [
        {
          "internalType": "string",
          "name": "",
          "type": "string"
        }
      ],
      "stateMutability": "pure",
      "type": "function"
    }
  ],
  "bytecode": "0x6113f561004d600b8282823980515f1a6073146041577f4e487b71000000000000000000000000000000000000000000000000000000005f525f60045260245ffd5b305f52607381538281f3fe730000000000000000000000000000000000000000301460806040526004361061009c575f3560e01c80638e7e34d71161006f5780638e7e34d7146101605780639416b42314610190578063ded8454a146101c0578063e106fb4b146101f0578063eaaefe3d146102205761009c565b80631dcd9b55146100a05780632ecb20d3146100d05780632f3875141461010057806342526e4e14610130575b5f80fd5b6100ba60048036038101906100b59190610d2f565b610250565b6040516100c79190610dfb565b60405180910390f35b6100ea60048036038101906100e59190610e51565b610342565b6040516100f79190610e8b565b60405180910390f35b61011a60048036038101906101159190610ea4565b6106af565b6040516101279190610f3d565b60405180910390f35b61014a60048036038101906101459190610ffb565b610827565b6040516101579190611081565b60405180910390f35b61017a60048036038101906101759190610ea4565b610878565b6040516101879190610f3d565b60405180910390f35b6101aa60048036038101906101a59190610ea4565b6109f0565b6040516101b79190610dfb565b60405180910390f35b6101da60048036038101906101d591906110c4565b610b62565b6040516101e79190610f3d565b60405180910390f35b61020a60048036038101906102059190610ea4565b610b82565b6040516102179190610f3d565b60405180910390f35b61023a60048036038101906102359190610ea4565b610b8c565b6040516102479190610f3d565b60405180910390f35b60605f8490505f8484610263919061111c565b67ffffffffffffffff81111561027c5761027b610bd8565b5b6040519080825280601f01601f1916602001820160405280156102ae5781602001600182028036833780820191505090505b5090505f8590505b84811015610335578281815181106102d1576102d061114f565b5b602001015160f81c60f81b8287836102e9919061111c565b815181106102fa576102f961114f565b5b60200101907effffffffffffffffffffffffffffffffffffffffffffffffffffffffffffff191690815f1a90535080806001019150506102b6565b5080925050509392505050565b5f7f30000000000000000000000000000000000000000000000000000000000000007effffffffffffffffffffffffffffffffffffffffffffffffffffffffffffff19168260f81b7effffffffffffffffffffffffffffffffffffffffffffffffffffffffffffff19161015801561042157507f39000000000000000000000000000000000000000000000000000000000000007effffffffffffffffffffffffffffffffffffffffffffffffffffffffffffff19168260f81b7effffffffffffffffffffffffffffffffffffffffffffffffffffffffffffff191611155b1561045c577f300000000000000000000000000000000000000000000000000000000000000060f81c82610455919061117c565b90506106aa565b7f61000000000000000000000000000000000000000000000000000000000000007effffffffffffffffffffffffffffffffffffffffffffffffffffffffffffff19168260f81b7effffffffffffffffffffffffffffffffffffffffffffffffffffffffffffff19161015801561053a57507f66000000000000000000000000000000000000000000000000000000000000007effffffffffffffffffffffffffffffffffffffffffffffffffffffffffffff19168260f81b7effffffffffffffffffffffffffffffffffffffffffffffffffffffffffffff191611155b15610581577f610000000000000000000000000000000000000000000000000000000000000060f81c82600a61057091906111b0565b61057a919061117c565b90506106aa565b7f41000000000000000000000000000000000000000000000000000000000000007effffffffffffffffffffffffffffffffffffffffffffffffffffffffffffff19168260f81b7effffffffffffffffffffffffffffffffffffffffffffffffffffffffffffff19161015801561065f57507f46000000000000000000000000000000000000000000000000000000000000007effffffffffffffffffffffffffffffffffffffffffffffffffffffffffffff19168260f81b7effffffffffffffffffffffffffffffffffffffffffffffffffffffffffffff191611155b156106a6577f410000000000000000000000000000000000000000000000000000000000000060f81c82600a61069591906111b0565b61069f919061117c565b90506106aa565b5f80fd5b919050565b60605f8290505f600282516106c49190611211565b146106cd575f80fd5b5f600282516106dc9190611241565b67ffffffffffffffff8111156106f5576106f4610bd8565b5b6040519080825280601f01601f1916602001820160405280156107275781602001600182028036833780820191505090505b5090505f5b6002835161073a9190611241565b81101561081c576107828360018360026107549190611271565b61075e91906112b2565b8151811061076f5761076e61114f565b5b602001015160f81c60f81b60f81c610342565b60106107b9858460026107959190611271565b815181106107a6576107a561114f565b5b602001015160f81c60f81b60f81c610342565b6107c391906112e5565b6107cd91906111b0565b60f81b8282815181106107e3576107e261114f565b5b60200101907effffffffffffffffffffffffffffffffffffffffffffffffffffffffffffff191690815f1a90535080600101905061072c565b508092505050919050565b5f601482511461086c576040517f08c379a0000000000000000000000000000000000000000000000000000000008152600401610863906113a1565b60405180910390fd5b60148201519050919050565b60605f8290505f6002825161088d9190611211565b14610896575f80fd5b5f600282516108a59190611241565b67ffffffffffffffff8111156108be576108bd610bd8565b5b6040519080825280601f01601f1916602001820160405280156108f05781602001600182028036833780820191505090505b5090505f5b600283516109039190611241565b8110156109e55761094b83600183600261091d9190611271565b61092791906112b2565b815181106109385761093761114f565b5b602001015160f81c60f81b60f81c610342565b60106109828584600261095e9190611271565b8151811061096f5761096e61114f565b5b602001015160f81c60f81b60f81c610342565b61098c91906112e5565b61099691906111b0565b60f81b8282815181106109ac576109ab61114f565b5b60200101907effffffffffffffffffffffffffffffffffffffffffffffffffffffffffffff191690815f1a9053508060010190506108f5565b508092505050919050565b60605f8290505f815167ffffffffffffffff811115610a1257610a11610bd8565b5b6040519080825280601f01601f191660200182016040528015610a445781602001600182028036833780820191505090505b5090505f5b8251811015610b57575f838281518110610a6657610a6561114f565b5b602001015160f81c60f81b60f81c905060418160ff1610158015610a8e5750605a8160ff1611155b15610ae957602081610aa091906111b0565b60f81b838381518110610ab657610ab561114f565b5b60200101907effffffffffffffffffffffffffffffffffffffffffffffffffffffffffffff191690815f1a905350610b49565b838281518110610afc57610afb61114f565b5b602001015160f81c60f81b838381518110610b1a57610b1961114f565b5b60200101907effffffffffffffffffffffffffffffffffffffffffffffffffffffffffffff191690815f1a9053505b508080600101915050610a49565b508092505050919050565b60606040519050601481528160601b602082015260408101604052919050565b6060819050919050565b60605f610b9c8360096031610250565b9050610ba7816106af565b915050919050565b5f604051905090565b5f80fd5b5f80fd5b5f80fd5b5f80fd5b5f601f19601f8301169050919050565b7f4e487b71000000000000000000000000000000000000000000000000000000005f52604160045260245ffd5b610c0e82610bc8565b810181811067ffffffffffffffff82111715610c2d57610c2c610bd8565b5b80604052505050565b5f610c3f610baf565b9050610c4b8282610c05565b919050565b5f67ffffffffffffffff821115610c6a57610c69610bd8565b5b610c7382610bc8565b9050602081019050919050565b828183375f83830152505050565b5f610ca0610c9b84610c50565b610c36565b905082815260208101848484011115610cbc57610cbb610bc4565b5b610cc7848285610c80565b509392505050565b5f82601f830112610ce357610ce2610bc0565b5b8135610cf3848260208601610c8e565b91505092915050565b5f819050919050565b610d0e81610cfc565b8114610d18575f80fd5b50565b5f81359050610d2981610d05565b92915050565b5f805f60608486031215610d4657610d45610bb8565b5b5f84013567ffffffffffffffff811115610d6357610d62610bbc565b5b610d6f86828701610ccf565b9350506020610d8086828701610d1b565b9250506040610d9186828701610d1b565b9150509250925092565b5f81519050919050565b5f82825260208201905092915050565b8281835e5f83830152505050565b5f610dcd82610d9b565b610dd78185610da5565b9350610de7818560208601610db5565b610df081610bc8565b840191505092915050565b5f6020820190508181035f830152610e138184610dc3565b905092915050565b5f60ff82169050919050565b610e3081610e1b565b8114610e3a575f80fd5b50565b5f81359050610e4b81610e27565b92915050565b5f60208284031215610e6657610e65610bb8565b5b5f610e7384828501610e3d565b91505092915050565b610e8581610e1b565b82525050565b5f602082019050610e9e5f830184610e7c565b92915050565b5f60208284031215610eb957610eb8610bb8565b5b5f82013567ffffffffffffffff811115610ed657610ed5610bbc565b5b610ee284828501610ccf565b91505092915050565b5f81519050919050565b5f82825260208201905092915050565b5f610f0f82610eeb565b610f198185610ef5565b9350610f29818560208601610db5565b610f3281610bc8565b840191505092915050565b5f6020820190508181035f830152610f558184610f05565b905092915050565b5f67ffffffffffffffff821115610f7757610f76610bd8565b5b610f8082610bc8565b9050602081019050919050565b5f610f9f610f9a84610f5d565b610c36565b905082815260208101848484011115610fbb57610fba610bc4565b5b610fc6848285610c80565b509392505050565b5f82601f830112610fe257610fe1610bc0565b5b8135610ff2848260208601610f8d565b91505092915050565b5f602082840312156110105761100f610bb8565b5b5f82013567ffffffffffffffff81111561102d5761102c610bbc565b5b61103984828501610fce565b91505092915050565b5f73ffffffffffffffffffffffffffffffffffffffff82169050919050565b5f61106b82611042565b9050919050565b61107b81611061565b82525050565b5f6020820190506110945f830184611072565b92915050565b6110a381611061565b81146110ad575f80fd5b50565b5f813590506110be8161109a565b92915050565b5f602082840312156110d9576110d8610bb8565b5b5f6110e6848285016110b0565b91505092915050565b7f4e487b71000000000000000000000000000000000000000000000000000000005f52601160045260245ffd5b5f61112682610cfc565b915061113183610cfc565b9250828203905081811115611149576111486110ef565b5b92915050565b7f4e487b71000000000000000000000000000000000000000000000000000000005f52603260045260245ffd5b5f61118682610e1b565b915061119183610e1b565b9250828203905060ff8111156111aa576111a96110ef565b5b92915050565b5f6111ba82610e1b565b91506111c583610e1b565b9250828201905060ff8111156111de576111dd6110ef565b5b92915050565b7f4e487b71000000000000000000000000000000000000000000000000000000005f52601260045260245ffd5b5f61121b82610cfc565b915061122683610cfc565b925082611236576112356111e4565b5b828206905092915050565b5f61124b82610cfc565b915061125683610cfc565b925082611266576112656111e4565b5b828204905092915050565b5f61127b82610cfc565b915061128683610cfc565b925082820261129481610cfc565b915082820484148315176112ab576112aa6110ef565b5b5092915050565b5f6112bc82610cfc565b91506112c783610cfc565b92508282019050808211156112df576112de6110ef565b5b92915050565b5f6112ef82610e1b565b91506112fa83610e1b565b925082820261130881610e1b565b915080821461131a576113196110ef565b5b5092915050565b5f82825260208201905092915050565b7f6279746573206c656e67746820646f6573206e6f74206d6174636820616464725f8201527f6573730000000000000000000000000000000000000000000000000000000000602082015250565b5f61138b602383611321565b915061139682611331565b604082019050919050565b5f6020820190508181035f8301526113b88161137f565b905091905056fea26469706673582212208fb277e611a61b2dc1b2e3422decf8bf7ab5317c808443fe43f2b9cf23500cee64736f6c63430008190033",
  "immutableReferences": {},
  "source": "// SPDX-License-Identifier: MIT\r\npragma solidity ^0.8.21;\r\n\r\nlibrary BytesUtils {\r\n    function hexStringToAddress(string memory str)\r\n        public\r\n        pure\r\n        returns (bytes memory)\r\n    {\r\n        bytes memory res = bytes(str);\r\n        require(res.length % 2 == 0); // length must be even\r\n        bytes memory r = new bytes(res.length / 2);\r\n        for (uint256 i = 0; i < res.length / 2; ++i) {\r\n            r[i] = bytes1(\r\n                fromHexChar(uint8(res[2 * i])) *\r\n                    16 +\r\n                    fromHexChar(uint8(res[2 * i + 1]))\r\n            );\r\n        }\r\n\r\n        return r;\r\n    }\r\n\r\n    function getSinger(string memory did)\r\n        public\r\n        pure\r\n        returns (bytes memory bs)\r\n    {\r\n        string memory cid = substring(did, 9, 49);\r\n        return hexStringToAddress(cid);\r\n    }\r\n\r\n    function substring(\r\n        string memory str,\r\n        uint256 startIndex,\r\n        uint256 endIndex\r\n    ) public pure returns (string memory) {\r\n        bytes memory strBytes = bytes(str);\r\n        bytes memory result = new bytes(endIndex - startIndex);\r\n        for (uint256 i = startIndex; i < endIndex; i++) {\r\n            result[i - startIndex] = strBytes[i];\r\n        }\r\n        return string(result);\r\n    }\r\n\r\n    function stringToBytes(string memory str)\r\n        public\r\n        pure\r\n        returns (bytes memory)\r\n    {\r\n        return bytes(str);\r\n    }\r\n\r\n    /* @notice      Convert bytes to address\r\n     *  @param _bs   Source bytes: bytes length must be 20\r\n     *  @return      Converted address from source bytes\r\n     */\r\n    function bytesToAddress(bytes memory _bs)\r\n        public\r\n        pure\r\n        returns (address addr)\r\n    {\r\n        require(_bs.length == 20, \"bytes length does not match address\");\r\n        assembly {\r\n            // for _bs, first word store _bs.length, second word store _bs.value\r\n            // load 32 bytes from mem[_bs+20], convert it into Uint160, meaning we take last 20 bytes as addr (address).\r\n            addr := mload(add(_bs, 0x14))\r\n        }\r\n    }\r\n\r\n    /* @notice      Convert address to bytes\r\n     *  @param _addr Address need to be converted\r\n     *  @return      Converted bytes from address\r\n     */\r\n    function addressToBytes(address _addr)\r\n        public\r\n        pure\r\n        returns (bytes memory bs)\r\n    {\r\n        assembly {\r\n            // Get a location of some free memory and store it in result as\r\n            // Solidity does for memory variables.\r\n            bs := mload(0x40)\r\n            // Put 20 (address byte length) at the first word, the length of bytes for uint256 value\r\n            mstore(bs, 0x14)\r\n            // logical shift left _a by 12 bytes, change _a from right-aligned to left-aligned\r\n            mstore(add(bs, 0x20), shl(96, _addr))\r\n            // Update the free-memory pointer by padding our last write location to 32 bytes\r\n            mstore(0x40, add(bs, 0x40))\r\n        }\r\n    }\r\n\r\n    /* @notice              Compare if two bytes are equal, which are in storage and memory, seperately\r\n                            Refer from https://github.com/summa-tx/bitcoin-spv/blob/master/solidity/contracts/BytesLib.sol#L368\r\n    *  @param _preBytes     The bytes stored in storage\r\n    *  @param _postBytes    The bytes stored in memory\r\n    *  @return              Bool type indicating if they are equal\r\n    */\r\n    function equalStorage(bytes storage _preBytes, bytes memory _postBytes)\r\n        internal\r\n        view\r\n        returns (bool)\r\n    {\r\n        // Load the length of the storage array\r\n        uint256 slength = _preBytes.length;\r\n        // Load the length of the memory array\r\n        uint256 mlength = _postBytes.length;\r\n\r\n        // If lengths don't match, the arrays are not equal\r\n        if (slength != mlength) {\r\n            return false;\r\n        }\r\n\r\n        // Compute the keccak hash of the storage location of _preBytes\r\n        uint256 sc = uint256(keccak256(abi.encodePacked(_preBytes)));\r\n\r\n        bool success = true;\r\n\r\n        assembly {\r\n            // Start position of the _postBytes data\r\n            let mc := add(_postBytes, 0x20)\r\n            // End position of the _postBytes data\r\n            let end := add(mc, mlength)\r\n\r\n            // Loop over each element in the storage and memory arrays\r\n            for { } lt(mc, end) { } {\r\n                mc := add(mc, 0x20)  // Move to the next 32-byte block in memory\r\n                sc := add(sc, 1)     // Move to the next slot in storage\r\n\r\n                // Load the current element from storage and memory\r\n                let sElement := sload(sc)\r\n                let mElement := mload(mc)\r\n\r\n                // Check if the elements are not equal\r\n                if iszero(eq(sElement, mElement)) {\r\n                    success := 0  // Set success to false\r\n                    break         // Exit the loop\r\n                }\r\n            }\r\n        }\r\n\r\n        return success;\r\n    }\r\n\r\n    // function equalStorage(bytes storage _preBytes, bytes memory _postBytes)\r\n    //     internal\r\n    //     view\r\n    //     returns (bool)\r\n    // {\r\n    //     bool success = true;\r\n\r\n    //     assembly {\r\n    //         // we know _preBytes_offset is 0\r\n    //         let fslot := sload(_preBytes_slot)\r\n    //         // Arrays of 31 bytes or less have an even value in their slot,\r\n    //         // while longer arrays have an odd value. The actual length is\r\n    //         // the slot divided by two for odd values, and the lowest order\r\n    //         // byte divided by two for even values.\r\n    //         // If the slot is even, bitwise and the slot with 255 and divide by\r\n    //         // two to get the length. If the slot is odd, bitwise and the slot\r\n    //         // with -1 and divide by two.\r\n    //         let slength := div(\r\n    //             and(fslot, sub(mul(0x100, iszero(and(fslot, 1))), 1)),\r\n    //             2\r\n    //         )\r\n    //         let mlength := mload(_postBytes)\r\n\r\n    //         // if lengths don't match the arrays are not equal\r\n    //         switch eq(slength, mlength)\r\n    //         case 1 {\r\n    //             // fslot can contain both the length and contents of the array\r\n    //             // if slength < 32 bytes so let's prepare for that\r\n    //             // v. http://solidity.readthedocs.io/en/latest/miscellaneous.html#layout-of-state-variables-in-storage\r\n    //             // slength != 0\r\n    //             if iszero(iszero(slength)) {\r\n    //                 switch lt(slength, 32)\r\n    //                 case 1 {\r\n    //                     // blank the last byte which is the length\r\n    //                     fslot := mul(div(fslot, 0x100), 0x100)\r\n\r\n    //                     if iszero(eq(fslot, mload(add(_postBytes, 0x20)))) {\r\n    //                         // unsuccess:\r\n    //                         success := 0\r\n    //                     }\r\n    //                 }\r\n    //                 default {\r\n    //                     // cb is a circuit breaker in the for loop since there's\r\n    //                     //  no said feature for inline assembly loops\r\n    //                     // cb = 1 - don't breaker\r\n    //                     // cb = 0 - break\r\n    //                     let cb := 1\r\n\r\n    //                     // get the keccak hash to get the contents of the array\r\n    //                     mstore(0x0, _preBytes_slot)\r\n    //                     let sc := keccak256(0x0, 0x20)\r\n\r\n    //                     let mc := add(_postBytes, 0x20)\r\n    //                     let end := add(mc, mlength)\r\n\r\n    //                     // the next line is the loop condition:\r\n    //                     // while(uint(mc < end) + cb == 2)\r\n    //                     for {\r\n\r\n    //                     } eq(add(lt(mc, end), cb), 2) {\r\n    //                         sc := add(sc, 1)\r\n    //                         mc := add(mc, 0x20)\r\n    //                     } {\r\n    //                         if iszero(eq(sload(sc), mload(mc))) {\r\n    //                             // unsuccess:\r\n    //                             success := 0\r\n    //                             cb := 0\r\n    //                         }\r\n    //                     }\r\n    //                 }\r\n    //             }\r\n    //         }\r\n    //         default {\r\n    //             // unsuccess:\r\n    //             success := 0\r\n    //         }\r\n    //     }\r\n\r\n    //     return success;\r\n    // }\r\n\r\n\r\n    function equal(bytes memory _preBytes, bytes memory _postBytes)\r\n        internal\r\n        pure\r\n        returns (bool)\r\n    {\r\n        bool success = true;\r\n\r\n        assembly {\r\n            let length := mload(_preBytes)\r\n\r\n            // if lengths don't match the arrays are not equal\r\n            switch eq(length, mload(_postBytes))\r\n            case 1 {\r\n                // cb is a circuit breaker in the for loop since there's\r\n                //  no said feature for inline assembly loops\r\n                // cb = 1 - don't breaker\r\n                // cb = 0 - break\r\n                let cb := 1\r\n\r\n                let mc := add(_preBytes, 0x20)\r\n                let end := add(mc, length)\r\n\r\n                for {\r\n                    let cc := add(_postBytes, 0x20)\r\n                    // the next line is the loop condition:\r\n                    // while(uint256(mc < end) + cb == 2)\r\n                } eq(add(lt(mc, end), cb), 2) {\r\n                    mc := add(mc, 0x20)\r\n                    cc := add(cc, 0x20)\r\n                } {\r\n                    // if any of these checks fails then arrays are not equal\r\n                    if iszero(eq(mload(mc), mload(cc))) {\r\n                        // unsuccess:\r\n                        success := 0\r\n                        cb := 0\r\n                    }\r\n                }\r\n            }\r\n            default {\r\n                // unsuccess:\r\n                success := 0\r\n            }\r\n        }\r\n\r\n        return success;\r\n    }\r\n\r\n    /* @notice              Slice the _bytes from _start index till the result has length of _length\r\n                            Refer from https://github.com/summa-tx/bitcoin-spv/blob/master/solidity/contracts/BytesLib.sol#L246\r\n    *  @param _bytes        The original bytes needs to be sliced\r\n    *  @param _start        The index of _bytes for the start of sliced bytes\r\n    *  @param _length       The index of _bytes for the end of sliced bytes\r\n    *  @return              The sliced bytes\r\n    */\r\n    function slice(\r\n        bytes memory _bytes,\r\n        uint256 _start,\r\n        uint256 _length\r\n    ) internal pure returns (bytes memory) {\r\n        require(_bytes.length >= (_start + _length));\r\n\r\n        bytes memory tempBytes;\r\n\r\n        assembly {\r\n            switch iszero(_length)\r\n            case 0 {\r\n                // Get a location of some free memory and store it in tempBytes as\r\n                // Solidity does for memory variables.\r\n                tempBytes := mload(0x40)\r\n\r\n                // The first word of the slice result is potentially a partial\r\n                // word read from the original array. To read it, we calculate\r\n                // the length of that partial word and start copying that many\r\n                // bytes into the array. The first word we copy will start with\r\n                // data we don't care about, but the last `lengthmod` bytes will\r\n                // land at the beginning of the contents of the new array. When\r\n                // we're done copying, we overwrite the full first word with\r\n                // the actual length of the slice.\r\n                // lengthmod <= _length % 32\r\n                let lengthmod := and(_length, 31)\r\n\r\n                // The multiplication in the next line is necessary\r\n                // because when slicing multiples of 32 bytes (lengthmod == 0)\r\n                // the following copy loop was copying the origin's length\r\n                // and then ending prematurely not copying everything it should.\r\n                let mc := add(\r\n                    add(tempBytes, lengthmod),\r\n                    mul(0x20, iszero(lengthmod))\r\n                )\r\n                let end := add(mc, _length)\r\n\r\n                for {\r\n                    // The multiplication in the next line has the same exact purpose\r\n                    // as the one above.\r\n                    let cc := add(\r\n                        add(\r\n                            add(_bytes, lengthmod),\r\n                            mul(0x20, iszero(lengthmod))\r\n                        ),\r\n                        _start\r\n                    )\r\n                } lt(mc, end) {\r\n                    mc := add(mc, 0x20)\r\n                    cc := add(cc, 0x20)\r\n                } {\r\n                    mstore(mc, mload(cc))\r\n                }\r\n\r\n                mstore(tempBytes, _length)\r\n\r\n                //update free-memory pointer\r\n                //allocating the array padded to 32 bytes like the compiler does now\r\n                mstore(0x40, and(add(mc, 31), not(31)))\r\n            }\r\n            //if we want a zero-length slice let's just return a zero-length array\r\n            default {\r\n                tempBytes := mload(0x40)\r\n\r\n                mstore(0x40, add(tempBytes, 0x20))\r\n            }\r\n        }\r\n\r\n        return tempBytes;\r\n    }\r\n\r\n    /**\r\n     * @dev Returns true if `account` is a contract.\r\n     *      Refer from https://github.com/OpenZeppelin/openzeppelin-contracts/blob/master/contracts/utils/Address.sol#L18\r\n     *\r\n     * This test is non-exhaustive, and there may be false-negatives: during the\r\n     * execution of a contract's constructor, its address will be reported as\r\n     * not containing a contract.\r\n     *\r\n     * IMPORTANT: It is unsafe to assume that an address for which this\r\n     * function returns false is an externally-owned account (EOA) and not a\r\n     * contract.\r\n     */\r\n    function isContract(address account) internal view returns (bool) {\r\n        // This method relies in extcodesize, which returns 0 for contracts in\r\n        // construction, since the code is only stored at the end of the\r\n        // constructor execution.\r\n\r\n        // According to EIP-1052, 0x0 is the value returned for not-yet created accounts\r\n        // and 0xc5d2460186f7233c927e7db2dcc703c0e500b653ca82273b7bfad8045d85a470 is returned\r\n        // for accounts without code, i.e. `keccak256('')`\r\n        bytes32 codehash;\r\n        bytes32 accountHash = 0xc5d2460186f7233c927e7db2dcc703c0e500b653ca82273b7bfad8045d85a470;\r\n        // solhint-disable-next-line no-inline-assembly\r\n        assembly {\r\n            codehash := extcodehash(account)\r\n        }\r\n        return (codehash != 0x0 && codehash != accountHash);\r\n    }\r\n\r\n    /**\r\n     * @dev Convert an hexadecimal character to their value\r\n     * @param c char\r\n     */\r\n    function fromHexChar(uint8 c) public pure returns (uint8) {\r\n        if (bytes1(c) >= bytes1(\"0\") && bytes1(c) <= bytes1(\"9\")) {\r\n            return c - uint8(bytes1(\"0\"));\r\n        }\r\n        if (bytes1(c) >= bytes1(\"a\") && bytes1(c) <= bytes1(\"f\")) {\r\n            return 10 + c - uint8(bytes1(\"a\"));\r\n        }\r\n        if (bytes1(c) >= bytes1(\"A\") && bytes1(c) <= bytes1(\"F\")) {\r\n            return 10 + c - uint8(bytes1(\"A\"));\r\n        }\r\n        revert();\r\n    }\r\n\r\n    /**\r\n     * @dev  Convert an hexadecimal string to raw bytes\r\n     * @param s string\r\n     */\r\n    function fromHex(string memory s) public pure returns (bytes memory) {\r\n        bytes memory ss = bytes(s);\r\n        require(ss.length % 2 == 0);\r\n        // length must be even\r\n        bytes memory r = new bytes(ss.length / 2);\r\n        for (uint256 i = 0; i < ss.length / 2; ++i) {\r\n            r[i] = bytes1(\r\n                fromHexChar(uint8(ss[2 * i])) *\r\n                    16 +\r\n                    fromHexChar(uint8(ss[2 * i + 1]))\r\n            );\r\n        }\r\n        return r;\r\n    }\r\n\r\n    /**\r\n     * @dev  Convert uint to string\r\n     * @param _i uint\r\n     */\r\n    function uint2str(uint256 _i)\r\n        internal\r\n        pure\r\n        returns (string memory _uintAsString)\r\n    {\r\n        if (_i == 0) {\r\n            return \"0\";\r\n        }\r\n        uint256 j = _i;\r\n        uint256 len;\r\n        while (j != 0) {\r\n            len++;\r\n            j /= 10;\r\n        }\r\n        bytes memory bstr = new bytes(len);\r\n        uint256 k = len - 1;\r\n        while (_i != 0) {\r\n            bstr[k--] = bytes1(uint8(48 + (_i % 10)));\r\n            _i /= 10;\r\n        }\r\n        return string(bstr);\r\n    }\r\n\r\n    /**\r\n     * @dev  Convert string to lowercase\r\n     * @param str string\r\n     */\r\n    function toLower(string memory str) public pure returns (string memory) {\r\n        bytes memory bStr = bytes(str);\r\n        bytes memory bLower = new bytes(bStr.length);\r\n        for (uint256 i = 0; i < bStr.length; i++) {\r\n            // Uppercase character...\r\n            uint8 c = uint8(bStr[i]);\r\n            if ((c >= 65) && (c <= 90)) {\r\n                // So we add 32 to make it lowercase\r\n                bLower[i] = bytes1(c + 32);\r\n            } else {\r\n                bLower[i] = bStr[i];\r\n            }\r\n        }\r\n        return string(bLower);\r\n    }\r\n}",
  "sourcePath": "C:\\SSAFY\\S10P31C203\\smart-contract\\contracts\\utils\\BytesUtils.sol",
  "compiler": {
    "name": "solc",
    "version": "0.8.25+commit.b61c2a91.Emscripten.clang"
  },
  "schemaVersion": "3.4.16",
  "updatedAt": "2024-05-02T07:19:17.843Z",
  "devdoc": {
    "kind": "dev",
    "methods": {
      "fromHex(string)": {
        "details": "Convert an hexadecimal string to raw bytes",
        "params": {
          "s": "string"
        }
      },
      "fromHexChar(uint8)": {
        "details": "Convert an hexadecimal character to their value",
        "params": {
          "c": "char"
        }
      },
      "toLower(string)": {
        "details": "Convert string to lowercase",
        "params": {
          "str": "string"
        }
      }
    },
    "version": 1
  },
  "userdoc": {
    "kind": "user",
    "methods": {},
    "version": 1
  }
}