{
  "contractName": "BytesUtils",
  "abi": [
    {
      "inputs": [
        {
          "internalType": "string",
          "name": "str",
          "type": "string"
        }
      ],
      "name": "hexStringToAddress",
      "outputs": [
        {
          "internalType": "bytes",
          "name": "",
          "type": "bytes"
        }
      ],
      "stateMutability": "pure",
      "type": "function"
    },
    {
      "inputs": [
        {
          "internalType": "string",
          "name": "did",
          "type": "string"
        }
      ],
      "name": "getSigner",
      "outputs": [
        {
          "internalType": "bytes",
          "name": "",
          "type": "bytes"
        }
      ],
      "stateMutability": "pure",
      "type": "function"
    },
    {
      "inputs": [
        {
          "internalType": "string",
          "name": "str",
          "type": "string"
        },
        {
          "internalType": "uint256",
          "name": "startIndex",
          "type": "uint256"
        },
        {
          "internalType": "uint256",
          "name": "endIndex",
          "type": "uint256"
        }
      ],
      "name": "substring",
      "outputs": [
        {
          "internalType": "string",
          "name": "",
          "type": "string"
        }
      ],
      "stateMutability": "pure",
      "type": "function"
    },
    {
      "inputs": [
        {
          "internalType": "string",
          "name": "str",
          "type": "string"
        }
      ],
      "name": "stringToBytes",
      "outputs": [
        {
          "internalType": "bytes",
          "name": "",
          "type": "bytes"
        }
      ],
      "stateMutability": "pure",
      "type": "function"
    },
    {
      "inputs": [
        {
          "internalType": "bytes",
          "name": "_bs",
          "type": "bytes"
        }
      ],
      "name": "bytesToAddress",
      "outputs": [
        {
          "internalType": "address",
          "name": "addr",
          "type": "address"
        }
      ],
      "stateMutability": "pure",
      "type": "function"
    },
    {
      "inputs": [
        {
          "internalType": "address",
          "name": "_addr",
          "type": "address"
        }
      ],
      "name": "addressToBytes",
      "outputs": [
        {
          "internalType": "bytes",
          "name": "bs",
          "type": "bytes"
        }
      ],
      "stateMutability": "pure",
      "type": "function"
    },
    {
      "inputs": [
        {
          "internalType": "uint8",
          "name": "c",
          "type": "uint8"
        }
      ],
      "name": "fromHexChar",
      "outputs": [
        {
          "internalType": "uint8",
          "name": "",
          "type": "uint8"
        }
      ],
      "stateMutability": "pure",
      "type": "function"
    },
    {
      "inputs": [
        {
          "internalType": "string",
          "name": "s",
          "type": "string"
        }
      ],
      "name": "fromHex",
      "outputs": [
        {
          "internalType": "bytes",
          "name": "",
          "type": "bytes"
        }
      ],
      "stateMutability": "pure",
      "type": "function"
    },
    {
      "inputs": [
        {
          "internalType": "string",
          "name": "str",
          "type": "string"
        }
      ],
      "name": "toLower",
      "outputs": [
        {
          "internalType": "string",
          "name": "",
          "type": "string"
        }
      ],
      "stateMutability": "pure",
      "type": "function"
    }
  ],
  "bytecode": "0x6113f561004d600b8282823980515f1a6073146041577f4e487b71000000000000000000000000000000000000000000000000000000005f525f60045260245ffd5b305f52607381538281f3fe730000000000000000000000000000000000000000301460806040526004361061009c575f3560e01c806342526e4e1161006f57806342526e4e146101605780638e7e34d7146101905780639416b423146101c0578063ded8454a146101f0578063e106fb4b146102205761009c565b8063119750d8146100a05780631dcd9b55146100d05780632ecb20d3146101005780632f38751414610130575b5f80fd5b6100ba60048036038101906100b59190610cfc565b610250565b6040516100c79190610da3565b60405180910390f35b6100ea60048036038101906100e59190610df6565b610273565b6040516100f79190610eb4565b60405180910390f35b61011a60048036038101906101159190610f0a565b610365565b6040516101279190610f44565b60405180910390f35b61014a60048036038101906101459190610cfc565b6106d2565b6040516101579190610da3565b60405180910390f35b61017a60048036038101906101759190610ffb565b61084a565b6040516101879190611081565b60405180910390f35b6101aa60048036038101906101a59190610cfc565b61089b565b6040516101b79190610da3565b60405180910390f35b6101da60048036038101906101d59190610cfc565b610a13565b6040516101e79190610eb4565b60405180910390f35b61020a600480360381019061020591906110c4565b610b85565b6040516102179190610da3565b60405180910390f35b61023a60048036038101906102359190610cfc565b610ba5565b6040516102479190610da3565b60405180910390f35b60605f6102608360096031610273565b905061026b816106d2565b915050919050565b60605f8490505f8484610286919061111c565b67ffffffffffffffff81111561029f5761029e610bd8565b5b6040519080825280601f01601f1916602001820160405280156102d15781602001600182028036833780820191505090505b5090505f8590505b84811015610358578281815181106102f4576102f361114f565b5b602001015160f81c60f81b82878361030c919061111c565b8151811061031d5761031c61114f565b5b60200101907effffffffffffffffffffffffffffffffffffffffffffffffffffffffffffff191690815f1a90535080806001019150506102d9565b5080925050509392505050565b5f7f30000000000000000000000000000000000000000000000000000000000000007effffffffffffffffffffffffffffffffffffffffffffffffffffffffffffff19168260f81b7effffffffffffffffffffffffffffffffffffffffffffffffffffffffffffff19161015801561044457507f39000000000000000000000000000000000000000000000000000000000000007effffffffffffffffffffffffffffffffffffffffffffffffffffffffffffff19168260f81b7effffffffffffffffffffffffffffffffffffffffffffffffffffffffffffff191611155b1561047f577f300000000000000000000000000000000000000000000000000000000000000060f81c82610478919061117c565b90506106cd565b7f61000000000000000000000000000000000000000000000000000000000000007effffffffffffffffffffffffffffffffffffffffffffffffffffffffffffff19168260f81b7effffffffffffffffffffffffffffffffffffffffffffffffffffffffffffff19161015801561055d57507f66000000000000000000000000000000000000000000000000000000000000007effffffffffffffffffffffffffffffffffffffffffffffffffffffffffffff19168260f81b7effffffffffffffffffffffffffffffffffffffffffffffffffffffffffffff191611155b156105a4577f610000000000000000000000000000000000000000000000000000000000000060f81c82600a61059391906111b0565b61059d919061117c565b90506106cd565b7f41000000000000000000000000000000000000000000000000000000000000007effffffffffffffffffffffffffffffffffffffffffffffffffffffffffffff19168260f81b7effffffffffffffffffffffffffffffffffffffffffffffffffffffffffffff19161015801561068257507f46000000000000000000000000000000000000000000000000000000000000007effffffffffffffffffffffffffffffffffffffffffffffffffffffffffffff19168260f81b7effffffffffffffffffffffffffffffffffffffffffffffffffffffffffffff191611155b156106c9577f410000000000000000000000000000000000000000000000000000000000000060f81c82600a6106b891906111b0565b6106c2919061117c565b90506106cd565b5f80fd5b919050565b60605f8290505f600282516106e79190611211565b146106f0575f80fd5b5f600282516106ff9190611241565b67ffffffffffffffff81111561071857610717610bd8565b5b6040519080825280601f01601f19166020018201604052801561074a5781602001600182028036833780820191505090505b5090505f5b6002835161075d9190611241565b81101561083f576107a58360018360026107779190611271565b61078191906112b2565b815181106107925761079161114f565b5b602001015160f81c60f81b60f81c610365565b60106107dc858460026107b89190611271565b815181106107c9576107c861114f565b5b602001015160f81c60f81b60f81c610365565b6107e691906112e5565b6107f091906111b0565b60f81b8282815181106108065761080561114f565b5b60200101907effffffffffffffffffffffffffffffffffffffffffffffffffffffffffffff191690815f1a90535080600101905061074f565b508092505050919050565b5f601482511461088f576040517f08c379a0000000000000000000000000000000000000000000000000000000008152600401610886906113a1565b60405180910390fd5b60148201519050919050565b60605f8290505f600282516108b09190611211565b146108b9575f80fd5b5f600282516108c89190611241565b67ffffffffffffffff8111156108e1576108e0610bd8565b5b6040519080825280601f01601f1916602001820160405280156109135781602001600182028036833780820191505090505b5090505f5b600283516109269190611241565b811015610a085761096e8360018360026109409190611271565b61094a91906112b2565b8151811061095b5761095a61114f565b5b602001015160f81c60f81b60f81c610365565b60106109a5858460026109819190611271565b815181106109925761099161114f565b5b602001015160f81c60f81b60f81c610365565b6109af91906112e5565b6109b991906111b0565b60f81b8282815181106109cf576109ce61114f565b5b60200101907effffffffffffffffffffffffffffffffffffffffffffffffffffffffffffff191690815f1a905350806001019050610918565b508092505050919050565b60605f8290505f815167ffffffffffffffff811115610a3557610a34610bd8565b5b6040519080825280601f01601f191660200182016040528015610a675781602001600182028036833780820191505090505b5090505f5b8251811015610b7a575f838281518110610a8957610a8861114f565b5b602001015160f81c60f81b60f81c905060418160ff1610158015610ab15750605a8160ff1611155b15610b0c57602081610ac391906111b0565b60f81b838381518110610ad957610ad861114f565b5b60200101907effffffffffffffffffffffffffffffffffffffffffffffffffffffffffffff191690815f1a905350610b6c565b838281518110610b1f57610b1e61114f565b5b602001015160f81c60f81b838381518110610b3d57610b3c61114f565b5b60200101907effffffffffffffffffffffffffffffffffffffffffffffffffffffffffffff191690815f1a9053505b508080600101915050610a6c565b508092505050919050565b60606040519050601481528160601b602082015260408101604052919050565b6060819050919050565b5f604051905090565b5f80fd5b5f80fd5b5f80fd5b5f80fd5b5f601f19601f8301169050919050565b7f4e487b71000000000000000000000000000000000000000000000000000000005f52604160045260245ffd5b610c0e82610bc8565b810181811067ffffffffffffffff82111715610c2d57610c2c610bd8565b5b80604052505050565b5f610c3f610baf565b9050610c4b8282610c05565b919050565b5f67ffffffffffffffff821115610c6a57610c69610bd8565b5b610c7382610bc8565b9050602081019050919050565b828183375f83830152505050565b5f610ca0610c9b84610c50565b610c36565b905082815260208101848484011115610cbc57610cbb610bc4565b5b610cc7848285610c80565b509392505050565b5f82601f830112610ce357610ce2610bc0565b5b8135610cf3848260208601610c8e565b91505092915050565b5f60208284031215610d1157610d10610bb8565b5b5f82013567ffffffffffffffff811115610d2e57610d2d610bbc565b5b610d3a84828501610ccf565b91505092915050565b5f81519050919050565b5f82825260208201905092915050565b8281835e5f83830152505050565b5f610d7582610d43565b610d7f8185610d4d565b9350610d8f818560208601610d5d565b610d9881610bc8565b840191505092915050565b5f6020820190508181035f830152610dbb8184610d6b565b905092915050565b5f819050919050565b610dd581610dc3565b8114610ddf575f80fd5b50565b5f81359050610df081610dcc565b92915050565b5f805f60608486031215610e0d57610e0c610bb8565b5b5f84013567ffffffffffffffff811115610e2a57610e29610bbc565b5b610e3686828701610ccf565b9350506020610e4786828701610de2565b9250506040610e5886828701610de2565b9150509250925092565b5f81519050919050565b5f82825260208201905092915050565b5f610e8682610e62565b610e908185610e6c565b9350610ea0818560208601610d5d565b610ea981610bc8565b840191505092915050565b5f6020820190508181035f830152610ecc8184610e7c565b905092915050565b5f60ff82169050919050565b610ee981610ed4565b8114610ef3575f80fd5b50565b5f81359050610f0481610ee0565b92915050565b5f60208284031215610f1f57610f1e610bb8565b5b5f610f2c84828501610ef6565b91505092915050565b610f3e81610ed4565b82525050565b5f602082019050610f575f830184610f35565b92915050565b5f67ffffffffffffffff821115610f7757610f76610bd8565b5b610f8082610bc8565b9050602081019050919050565b5f610f9f610f9a84610f5d565b610c36565b905082815260208101848484011115610fbb57610fba610bc4565b5b610fc6848285610c80565b509392505050565b5f82601f830112610fe257610fe1610bc0565b5b8135610ff2848260208601610f8d565b91505092915050565b5f602082840312156110105761100f610bb8565b5b5f82013567ffffffffffffffff81111561102d5761102c610bbc565b5b61103984828501610fce565b91505092915050565b5f73ffffffffffffffffffffffffffffffffffffffff82169050919050565b5f61106b82611042565b9050919050565b61107b81611061565b82525050565b5f6020820190506110945f830184611072565b92915050565b6110a381611061565b81146110ad575f80fd5b50565b5f813590506110be8161109a565b92915050565b5f602082840312156110d9576110d8610bb8565b5b5f6110e6848285016110b0565b91505092915050565b7f4e487b71000000000000000000000000000000000000000000000000000000005f52601160045260245ffd5b5f61112682610dc3565b915061113183610dc3565b9250828203905081811115611149576111486110ef565b5b92915050565b7f4e487b71000000000000000000000000000000000000000000000000000000005f52603260045260245ffd5b5f61118682610ed4565b915061119183610ed4565b9250828203905060ff8111156111aa576111a96110ef565b5b92915050565b5f6111ba82610ed4565b91506111c583610ed4565b9250828201905060ff8111156111de576111dd6110ef565b5b92915050565b7f4e487b71000000000000000000000000000000000000000000000000000000005f52601260045260245ffd5b5f61121b82610dc3565b915061122683610dc3565b925082611236576112356111e4565b5b828206905092915050565b5f61124b82610dc3565b915061125683610dc3565b925082611266576112656111e4565b5b828204905092915050565b5f61127b82610dc3565b915061128683610dc3565b925082820261129481610dc3565b915082820484148315176112ab576112aa6110ef565b5b5092915050565b5f6112bc82610dc3565b91506112c783610dc3565b92508282019050808211156112df576112de6110ef565b5b92915050565b5f6112ef82610ed4565b91506112fa83610ed4565b925082820261130881610ed4565b915080821461131a576113196110ef565b5b5092915050565b5f82825260208201905092915050565b7f6279746573206c656e67746820646f6573206e6f74206d6174636820616464725f8201527f6573732028323029000000000000000000000000000000000000000000000000602082015250565b5f61138b602883611321565b915061139682611331565b604082019050919050565b5f6020820190508181035f8301526113b88161137f565b905091905056fea2646970667358221220bfe477c83ff9bf3579b9badc9fb9e957c996dbb847434aedbb764617025b1dc264736f6c63430008190033",
  "immutableReferences": {},
  "source": "// SPDX-License-Identifier: MIT\npragma solidity ^0.8.21;\n\nlibrary BytesUtils {\n\n    /**\n     *  0x...  hexString    \n     */ \n    function hexStringToAddress(string memory str)\n        public\n        pure\n        returns (bytes memory)\n    {\n        bytes memory res = bytes(str);\n        require(res.length % 2 == 0); // length must be even\n        bytes memory r = new bytes(res.length / 2);\n        for (uint256 i = 0; i < res.length / 2; ++i) {\n            r[i] = bytes1(\n                fromHexChar(uint8(res[2 * i])) *\n                    16 +\n                    fromHexChar(uint8(res[2 * i + 1]))\n            );\n        }\n\n        return r;\n    }\n\n    /**\n     * DID   (Identifier) ,    return\n     */\n    function getSigner(string memory did)\n        public\n        pure\n        returns (bytes memory)\n    {\n        string memory cid = substring(did, 9, 49);\n        return hexStringToAddress(cid);\n    }\n\n    /**\n     * string  \n     */\n    function substring(\n        string memory str,\n        uint256 startIndex,\n        uint256 endIndex\n    ) public pure returns (string memory) {\n        bytes memory strBytes = bytes(str);\n        bytes memory result = new bytes(endIndex - startIndex);\n        for (uint256 i = startIndex; i < endIndex; i++) {\n            result[i - startIndex] = strBytes[i];\n        }\n        return string(result);\n    }\n\n    /**\n     * string bytes  \n     */\n    function stringToBytes(string memory str)\n        public\n        pure\n        returns (bytes memory)\n    {\n        return bytes(str);\n    }\n\n    /** \n     *  @notice      Convert bytes to address\n     *  @param _bs   Source bytes: bytes length must be 20\n     *  @return addr Converted address from source bytes\n     */\n    function bytesToAddress(bytes memory _bs)\n        public\n        pure\n        returns (address addr)\n    {\n        require(_bs.length == 20, \"bytes length does not match address (20)\");\n        assembly {\n            // for _bs, first word store _bs.length, second word store _bs.value\n            // load 32 bytes from mem[_bs+20], convert it into Uint160, meaning we take last 20 bytes as addr (address).\n            addr := mload(add(_bs, 0x14))\n        }\n    }\n\n    /** \n     *  @notice      Convert address to bytes\n     *  @param _addr Address need to be converted\n     *  @return bs   Converted bytes from address\n     */\n    function addressToBytes(address _addr)\n        public\n        pure\n        returns (bytes memory bs)\n    {\n        assembly {\n            // Get a location of some free memory and store it in result as\n            // Solidity does for memory variables.\n            bs := mload(0x40)\n            // Put 20 (address byte length) at the first word, the length of bytes for uint256 value\n            mstore(bs, 0x14)\n            // logical shift left _a by 12 bytes, change _a from right-aligned to left-aligned\n            mstore(add(bs, 0x20), shl(96, _addr))\n            // Update the free-memory pointer by padding our last write location to 32 bytes\n            mstore(0x40, add(bs, 0x40))\n        }\n    }\n\n    /* @notice              Compare if two bytes are equal, which are in storage and memory, seperately\n                            Refer from https://github.com/summa-tx/bitcoin-spv/blob/master/solidity/contracts/BytesLib.sol#L368\n    *  @param _preBytes     The bytes stored in storage\n    *  @param _postBytes    The bytes stored in memory\n    *  @return              Bool type indicating if they are equal\n    */\n    function equalStorage(bytes storage _preBytes, bytes memory _postBytes)\n        internal\n        view\n        returns (bool)\n    {\n        // Load the length of the storage array\n        uint256 slength = _preBytes.length;\n        // Load the length of the memory array\n        uint256 mlength = _postBytes.length;\n\n        // If lengths don't match, the arrays are not equal\n        if (slength != mlength) {\n            return false;\n        }\n\n        // Compute the keccak hash of the storage location of _preBytes\n        uint256 sc = uint256(keccak256(abi.encodePacked(_preBytes)));\n\n        bool success = true;\n\n        assembly {\n            // Start position of the _postBytes data\n            let mc := add(_postBytes, 0x20)\n            // End position of the _postBytes data\n            let end := add(mc, mlength)\n\n            // Loop over each element in the storage and memory arrays\n            for { } lt(mc, end) { } {\n                mc := add(mc, 0x20)  // Move to the next 32-byte block in memory\n                sc := add(sc, 1)     // Move to the next slot in storage\n\n                // Load the current element from storage and memory\n                let sElement := sload(sc)\n                let mElement := mload(mc)\n\n                // Check if the elements are not equal\n                if iszero(eq(sElement, mElement)) {\n                    success := 0  // Set success to false\n                    break         // Exit the loop\n                }\n            }\n        }\n\n        return success;\n    }\n\n    // function equalStorage(bytes storage _preBytes, bytes memory _postBytes)\n    //     internal\n    //     view\n    //     returns (bool)\n    // {\n    //     bool success = true;\n\n    //     assembly {\n    //         // we know _preBytes_offset is 0\n    //         let fslot := sload(_preBytes_slot)\n    //         // Arrays of 31 bytes or less have an even value in their slot,\n    //         // while longer arrays have an odd value. The actual length is\n    //         // the slot divided by two for odd values, and the lowest order\n    //         // byte divided by two for even values.\n    //         // If the slot is even, bitwise and the slot with 255 and divide by\n    //         // two to get the length. If the slot is odd, bitwise and the slot\n    //         // with -1 and divide by two.\n    //         let slength := div(\n    //             and(fslot, sub(mul(0x100, iszero(and(fslot, 1))), 1)),\n    //             2\n    //         )\n    //         let mlength := mload(_postBytes)\n\n    //         // if lengths don't match the arrays are not equal\n    //         switch eq(slength, mlength)\n    //         case 1 {\n    //             // fslot can contain both the length and contents of the array\n    //             // if slength < 32 bytes so let's prepare for that\n    //             // v. http://solidity.readthedocs.io/en/latest/miscellaneous.html#layout-of-state-variables-in-storage\n    //             // slength != 0\n    //             if iszero(iszero(slength)) {\n    //                 switch lt(slength, 32)\n    //                 case 1 {\n    //                     // blank the last byte which is the length\n    //                     fslot := mul(div(fslot, 0x100), 0x100)\n\n    //                     if iszero(eq(fslot, mload(add(_postBytes, 0x20)))) {\n    //                         // unsuccess:\n    //                         success := 0\n    //                     }\n    //                 }\n    //                 default {\n    //                     // cb is a circuit breaker in the for loop since there's\n    //                     //  no said feature for inline assembly loops\n    //                     // cb = 1 - don't breaker\n    //                     // cb = 0 - break\n    //                     let cb := 1\n\n    //                     // get the keccak hash to get the contents of the array\n    //                     mstore(0x0, _preBytes_slot)\n    //                     let sc := keccak256(0x0, 0x20)\n\n    //                     let mc := add(_postBytes, 0x20)\n    //                     let end := add(mc, mlength)\n\n    //                     // the next line is the loop condition:\n    //                     // while(uint(mc < end) + cb == 2)\n    //                     for {\n\n    //                     } eq(add(lt(mc, end), cb), 2) {\n    //                         sc := add(sc, 1)\n    //                         mc := add(mc, 0x20)\n    //                     } {\n    //                         if iszero(eq(sload(sc), mload(mc))) {\n    //                             // unsuccess:\n    //                             success := 0\n    //                             cb := 0\n    //                         }\n    //                     }\n    //                 }\n    //             }\n    //         }\n    //         default {\n    //             // unsuccess:\n    //             success := 0\n    //         }\n    //     }\n\n    //     return success;\n    // }\n\n\n    function equal(bytes memory _preBytes, bytes memory _postBytes)\n        internal\n        pure\n        returns (bool)\n    {\n        bool success = true;\n\n        assembly {\n            let length := mload(_preBytes)\n\n            // if lengths don't match the arrays are not equal\n            switch eq(length, mload(_postBytes))\n            case 1 {\n                // cb is a circuit breaker in the for loop since there's\n                //  no said feature for inline assembly loops\n                // cb = 1 - don't breaker\n                // cb = 0 - break\n                let cb := 1\n\n                let mc := add(_preBytes, 0x20)\n                let end := add(mc, length)\n\n                for {\n                    let cc := add(_postBytes, 0x20)\n                    // the next line is the loop condition:\n                    // while(uint256(mc < end) + cb == 2)\n                } eq(add(lt(mc, end), cb), 2) {\n                    mc := add(mc, 0x20)\n                    cc := add(cc, 0x20)\n                } {\n                    // if any of these checks fails then arrays are not equal\n                    if iszero(eq(mload(mc), mload(cc))) {\n                        // unsuccess:\n                        success := 0\n                        cb := 0\n                    }\n                }\n            }\n            default {\n                // unsuccess:\n                success := 0\n            }\n        }\n\n        return success;\n    }\n\n    /* @notice              Slice the _bytes from _start index till the result has length of _length\n                            Refer from https://github.com/summa-tx/bitcoin-spv/blob/master/solidity/contracts/BytesLib.sol#L246\n    *  @param _bytes        The original bytes needs to be sliced\n    *  @param _start        The index of _bytes for the start of sliced bytes\n    *  @param _length       The index of _bytes for the end of sliced bytes\n    *  @return              The sliced bytes\n    */\n    function slice(\n        bytes memory _bytes,\n        uint256 _start,\n        uint256 _length\n    ) internal pure returns (bytes memory) {\n        require(_bytes.length >= (_start + _length));\n\n        bytes memory tempBytes;\n\n        assembly {\n            switch iszero(_length)\n            case 0 {\n                // Get a location of some free memory and store it in tempBytes as\n                // Solidity does for memory variables.\n                tempBytes := mload(0x40)\n\n                // The first word of the slice result is potentially a partial\n                // word read from the original array. To read it, we calculate\n                // the length of that partial word and start copying that many\n                // bytes into the array. The first word we copy will start with\n                // data we don't care about, but the last `lengthmod` bytes will\n                // land at the beginning of the contents of the new array. When\n                // we're done copying, we overwrite the full first word with\n                // the actual length of the slice.\n                // lengthmod <= _length % 32\n                let lengthmod := and(_length, 31)\n\n                // The multiplication in the next line is necessary\n                // because when slicing multiples of 32 bytes (lengthmod == 0)\n                // the following copy loop was copying the origin's length\n                // and then ending prematurely not copying everything it should.\n                let mc := add(\n                    add(tempBytes, lengthmod),\n                    mul(0x20, iszero(lengthmod))\n                )\n                let end := add(mc, _length)\n\n                for {\n                    // The multiplication in the next line has the same exact purpose\n                    // as the one above.\n                    let cc := add(\n                        add(\n                            add(_bytes, lengthmod),\n                            mul(0x20, iszero(lengthmod))\n                        ),\n                        _start\n                    )\n                } lt(mc, end) {\n                    mc := add(mc, 0x20)\n                    cc := add(cc, 0x20)\n                } {\n                    mstore(mc, mload(cc))\n                }\n\n                mstore(tempBytes, _length)\n\n                //update free-memory pointer\n                //allocating the array padded to 32 bytes like the compiler does now\n                mstore(0x40, and(add(mc, 31), not(31)))\n            }\n            //if we want a zero-length slice let's just return a zero-length array\n            default {\n                tempBytes := mload(0x40)\n\n                mstore(0x40, add(tempBytes, 0x20))\n            }\n        }\n\n        return tempBytes;\n    }\n\n    /**\n     * @dev Returns true if `account` is a contract.\n     *      Refer from https://github.com/OpenZeppelin/openzeppelin-contracts/blob/master/contracts/utils/Address.sol#L18\n     *\n     * This test is non-exhaustive, and there may be false-negatives: during the\n     * execution of a contract's constructor, its address will be reported as\n     * not containing a contract.\n     *\n     * IMPORTANT: It is unsafe to assume that an address for which this\n     * function returns false is an externally-owned account (EOA) and not a\n     * contract.\n     */\n    function isContract(address account) internal view returns (bool) {\n        // This method relies in extcodesize, which returns 0 for contracts in\n        // construction, since the code is only stored at the end of the\n        // constructor execution.\n\n        // According to EIP-1052, 0x0 is the value returned for not-yet created accounts\n        // and 0xc5d2460186f7233c927e7db2dcc703c0e500b653ca82273b7bfad8045d85a470 is returned\n        // for accounts without code, i.e. `keccak256('')`\n        bytes32 codehash;\n        bytes32 accountHash = 0xc5d2460186f7233c927e7db2dcc703c0e500b653ca82273b7bfad8045d85a470;\n        // solhint-disable-next-line no-inline-assembly\n        assembly {\n            codehash := extcodehash(account)\n        }\n        return (codehash != 0x0 && codehash != accountHash);\n    }\n\n    /**\n     * @dev Convert an hexadecimal character to their value\n     * @param c char\n     */\n    function fromHexChar(uint8 c) public pure returns (uint8) {\n        if (bytes1(c) >= bytes1(\"0\") && bytes1(c) <= bytes1(\"9\")) {\n            return c - uint8(bytes1(\"0\"));\n        }\n        if (bytes1(c) >= bytes1(\"a\") && bytes1(c) <= bytes1(\"f\")) {\n            return 10 + c - uint8(bytes1(\"a\"));\n        }\n        if (bytes1(c) >= bytes1(\"A\") && bytes1(c) <= bytes1(\"F\")) {\n            return 10 + c - uint8(bytes1(\"A\"));\n        }\n        revert();\n    }\n\n    /**\n     * @dev  Convert an hexadecimal string to raw bytes\n     * @param s string\n     */\n    function fromHex(string memory s) public pure returns (bytes memory) {\n        bytes memory ss = bytes(s);\n        require(ss.length % 2 == 0);\n        // length must be even\n        bytes memory r = new bytes(ss.length / 2);\n        for (uint256 i = 0; i < ss.length / 2; ++i) {\n            r[i] = bytes1(\n                fromHexChar(uint8(ss[2 * i])) *\n                    16 +\n                    fromHexChar(uint8(ss[2 * i + 1]))\n            );\n        }\n        return r;\n    }\n\n    /**\n     * @dev  Convert uint to string\n     * @param _i uint\n     */\n    function uint2str(uint256 _i)\n        internal\n        pure\n        returns (string memory _uintAsString)\n    {\n        if (_i == 0) {\n            return \"0\";\n        }\n        uint256 j = _i;\n        uint256 len;\n        while (j != 0) {\n            len++;\n            j /= 10;\n        }\n        bytes memory bstr = new bytes(len);\n        uint256 k = len - 1;\n        while (_i != 0) {\n            bstr[k--] = bytes1(uint8(48 + (_i % 10)));\n            _i /= 10;\n        }\n        return string(bstr);\n    }\n\n    /**\n     * @dev  Convert string to lowercase\n     * @param str string\n     */\n    function toLower(string memory str) public pure returns (string memory) {\n        bytes memory bStr = bytes(str);\n        bytes memory bLower = new bytes(bStr.length);\n        for (uint256 i = 0; i < bStr.length; i++) {\n            // Uppercase character...\n            uint8 c = uint8(bStr[i]);\n            if ((c >= 65) && (c <= 90)) {\n                // So we add 32 to make it lowercase\n                bLower[i] = bytes1(c + 32);\n            } else {\n                bLower[i] = bStr[i];\n            }\n        }\n        return string(bLower);\n    }\n}",
  "sourcePath": "/Users/sejin/Desktop/Development/C203/S10P31C203/blockchain/did-real-estate/contracts/utils/BytesUtils.sol",
  "compiler": {
    "name": "solc",
    "version": "0.8.25+commit.b61c2a91.Emscripten.clang"
  },
  "schemaVersion": "3.4.16",
  "updatedAt": "2024-05-05T00:31:22.844Z",
  "devdoc": {
    "kind": "dev",
    "methods": {
      "addressToBytes(address)": {
        "params": {
          "_addr": "Address need to be converted"
        },
        "returns": {
          "bs": "  Converted bytes from address"
        }
      },
      "bytesToAddress(bytes)": {
        "params": {
          "_bs": "Source bytes: bytes length must be 20"
        },
        "returns": {
          "addr": "Converted address from source bytes"
        }
      },
      "fromHex(string)": {
        "details": "Convert an hexadecimal string to raw bytes",
        "params": {
          "s": "string"
        }
      },
      "fromHexChar(uint8)": {
        "details": "Convert an hexadecimal character to their value",
        "params": {
          "c": "char"
        }
      },
      "toLower(string)": {
        "details": "Convert string to lowercase",
        "params": {
          "str": "string"
        }
      }
    },
    "version": 1
  },
  "userdoc": {
    "kind": "user",
    "methods": {
      "addressToBytes(address)": {
        "notice": "Convert address to bytes"
      },
      "bytesToAddress(bytes)": {
        "notice": "Convert bytes to address"
      },
      "getSigner(string)": {
        "notice": "DID   (Identifier) ,    return"
      },
      "hexStringToAddress(string)": {
        "notice": "0x...  hexString    "
      },
      "stringToBytes(string)": {
        "notice": "string bytes  "
      },
      "substring(string,uint256,uint256)": {
        "notice": "string  "
      }
    },
    "version": 1
  }
}