{
  "contractName": "DidUtils",
  "abi": [
    {
      "inputs": [
        {
          "internalType": "string",
          "name": "did",
          "type": "string"
        }
      ],
      "name": "verifyDIDFormat",
      "outputs": [
        {
          "internalType": "bool",
          "name": "",
          "type": "bool"
        }
      ],
      "stateMutability": "pure",
      "type": "function"
    },
    {
      "inputs": [
        {
          "internalType": "bytes",
          "name": "did",
          "type": "bytes"
        }
      ],
      "name": "parseAddrFromDID",
      "outputs": [
        {
          "internalType": "address",
          "name": "",
          "type": "address"
        }
      ],
      "stateMutability": "pure",
      "type": "function"
    },
    {
      "inputs": [
        {
          "internalType": "bytes",
          "name": "did",
          "type": "bytes"
        }
      ],
      "name": "parseAddrFromDID2",
      "outputs": [
        {
          "internalType": "bytes",
          "name": "",
          "type": "bytes"
        }
      ],
      "stateMutability": "pure",
      "type": "function"
    },
    {
      "inputs": [
        {
          "internalType": "bytes",
          "name": "pubKey",
          "type": "bytes"
        }
      ],
      "name": "pubKeyToAddr",
      "outputs": [
        {
          "internalType": "address",
          "name": "",
          "type": "address"
        }
      ],
      "stateMutability": "pure",
      "type": "function"
    },
    {
      "inputs": [
        {
          "internalType": "string",
          "name": "did",
          "type": "string"
        }
      ],
      "name": "byteFromDid",
      "outputs": [
        {
          "internalType": "bytes",
          "name": "",
          "type": "bytes"
        }
      ],
      "stateMutability": "pure",
      "type": "function"
    }
  ],
  "bytecode": "0x610aa561004d600b8282823980515f1a6073146041577f4e487b71000000000000000000000000000000000000000000000000000000005f525f60045260245ffd5b305f52607381538281f3fe7300000000000000000000000000000000000000003014608060405260043610610060575f3560e01c80636619b7ec14610064578063c6b8e1a214610094578063ca77ea15146100c4578063cdc7df5a146100f4578063f925113214610124575b5f80fd5b61007e60048036038101906100799190610620565b610154565b60405161008b91906106a6565b60405180910390f35b6100ae60048036038101906100a99190610620565b610166565b6040516100bb91906106a6565b60405180910390f35b6100de60048036038101906100d99190610620565b610282565b6040516100eb919061071f565b60405180910390f35b61010e600480360381019061010991906107dd565b6102ad565b60405161011b919061071f565b60405180910390f35b61013e600480360381019061013991906107dd565b6102bc565b60405161014b919061083e565b60405180910390f35b5f81805190602001205f1c9050919050565b5f80600990505f610184848384875161017f919061088d565b6103d8565b90505f73__BytesUtils____________________________638e7e34d7836040518263ffffffff1660e01b81526004016101be9190610912565b5f60405180830381865af41580156101d8573d5f803e3d5ffd5b505050506040513d5f823e3d601f19601f8201168201806040525081019061020091906109a0565b905073__BytesUtils____________________________6342526e4e826040518263ffffffff1660e01b8152600401610239919061071f565b602060405180830381865af4158015610254573d5f803e3d5ffd5b505050506040513d601f19601f820116820180604052508101906102789190610a11565b9350505050919050565b60605f600990505f6102a1848384875161029c919061088d565b6103d8565b90508092505050919050565b60605f82905080915050919050565b5f8082905060318151146102d3575f9150506103d3565b5f6040518060400160405280600981526020017f6469643a6b6c61793a0000000000000000000000000000000000000000000000815250905061032161031b835f84516103d8565b8261046b565b61032f575f925050506103d3565b5f61034983835184518651610344919061088d565b6103d8565b90505f73__BytesUtils____________________________638e7e34d7836040518263ffffffff1660e01b81526004016103839190610912565b5f60405180830381865af415801561039d573d5f803e3d5ffd5b505050506040513d5f823e3d601f19601f820116820180604052508101906103c591906109a0565b905060148151149450505050505b919050565b606081836103e69190610a3c565b845110156103f2575f80fd5b606082155f811461040e5760405191506020820160405261045f565b6040519150601f8416801560200281840101858101878315602002848b0101015b8183101561044c578051835260208301925060208101905061042f565b50868552601f19601f8301166040525050505b50809150509392505050565b5f806001905083518351811460018114610487575f92506104c7565b600160208701838101602088015b60028483851001036104c25780518351146104b1575f96505f93505b602083019250602081019050610495565b505050505b50508091505092915050565b5f604051905090565b5f80fd5b5f80fd5b5f80fd5b5f80fd5b5f601f19601f8301169050919050565b7f4e487b71000000000000000000000000000000000000000000000000000000005f52604160045260245ffd5b610532826104ec565b810181811067ffffffffffffffff82111715610551576105506104fc565b5b80604052505050565b5f6105636104d3565b905061056f8282610529565b919050565b5f67ffffffffffffffff82111561058e5761058d6104fc565b5b610597826104ec565b9050602081019050919050565b828183375f83830152505050565b5f6105c46105bf84610574565b61055a565b9050828152602081018484840111156105e0576105df6104e8565b5b6105eb8482856105a4565b509392505050565b5f82601f830112610607576106066104e4565b5b81356106178482602086016105b2565b91505092915050565b5f60208284031215610635576106346104dc565b5b5f82013567ffffffffffffffff811115610652576106516104e0565b5b61065e848285016105f3565b91505092915050565b5f73ffffffffffffffffffffffffffffffffffffffff82169050919050565b5f61069082610667565b9050919050565b6106a081610686565b82525050565b5f6020820190506106b95f830184610697565b92915050565b5f81519050919050565b5f82825260208201905092915050565b8281835e5f83830152505050565b5f6106f1826106bf565b6106fb81856106c9565b935061070b8185602086016106d9565b610714816104ec565b840191505092915050565b5f6020820190508181035f83015261073781846106e7565b905092915050565b5f67ffffffffffffffff821115610759576107586104fc565b5b610762826104ec565b9050602081019050919050565b5f61078161077c8461073f565b61055a565b90508281526020810184848401111561079d5761079c6104e8565b5b6107a88482856105a4565b509392505050565b5f82601f8301126107c4576107c36104e4565b5b81356107d484826020860161076f565b91505092915050565b5f602082840312156107f2576107f16104dc565b5b5f82013567ffffffffffffffff81111561080f5761080e6104e0565b5b61081b848285016107b0565b91505092915050565b5f8115159050919050565b61083881610824565b82525050565b5f6020820190506108515f83018461082f565b92915050565b5f819050919050565b7f4e487b71000000000000000000000000000000000000000000000000000000005f52601160045260245ffd5b5f61089782610857565b91506108a283610857565b92508282039050818111156108ba576108b9610860565b5b92915050565b5f81519050919050565b5f82825260208201905092915050565b5f6108e4826108c0565b6108ee81856108ca565b93506108fe8185602086016106d9565b610907816104ec565b840191505092915050565b5f6020820190508181035f83015261092a81846108da565b905092915050565b5f61094461093f84610574565b61055a565b9050828152602081018484840111156109605761095f6104e8565b5b61096b8482856106d9565b509392505050565b5f82601f830112610987576109866104e4565b5b8151610997848260208601610932565b91505092915050565b5f602082840312156109b5576109b46104dc565b5b5f82015167ffffffffffffffff8111156109d2576109d16104e0565b5b6109de84828501610973565b91505092915050565b6109f081610686565b81146109fa575f80fd5b50565b5f81519050610a0b816109e7565b92915050565b5f60208284031215610a2657610a256104dc565b5b5f610a33848285016109fd565b91505092915050565b5f610a4682610857565b9150610a5183610857565b9250828201905080821115610a6957610a68610860565b5b9291505056fea2646970667358221220b73edbd762f86dfd94219001eed24646635b7f091679d9f0c6a399e1c5e50c0564736f6c63430008190033",
  "immutableReferences": {},
  "source": "// SPDX-License-Identifier: MIT\r\npragma solidity ^0.8.0;\r\n\r\nimport \"./BytesUtils.sol\";\r\n\r\nlibrary DidUtils {\r\n    // example: did:klay:5Ee76017be7F983a520a778B413758A9DB49cBe9\r\n    /**\r\n     * @dev verify did format\r\n     * @param did did\r\n     */\r\n    function verifyDIDFormat(string memory did) public pure returns (bool) {\r\n        bytes memory didData = bytes(did);\r\n        if (didData.length != 49) {\r\n            return false;\r\n        }\r\n        bytes memory prefix = bytes(\"did:klay:\");\r\n        if (\r\n            !BytesUtils.equal(\r\n                BytesUtils.slice(didData, 0, prefix.length),\r\n                prefix\r\n            )\r\n        ) {\r\n            return false;\r\n        }\r\n        bytes memory addressBytesData = BytesUtils.slice(\r\n            didData,\r\n            prefix.length,\r\n            didData.length - prefix.length\r\n        );\r\n        bytes memory addressBytes = BytesUtils.fromHex(\r\n            string(addressBytesData)\r\n        );\r\n        return addressBytes.length == 20;\r\n    }\r\n\r\n    function parseAddrFromDID(bytes memory did) public pure returns (address) {\r\n        uint256 prefixLen = 9;\r\n        bytes memory addressBytesData = BytesUtils.slice(\r\n            did,\r\n            prefixLen,\r\n            did.length - prefixLen\r\n        );\r\n        bytes memory addressBytes = BytesUtils.fromHex(\r\n            string(addressBytesData)\r\n        );\r\n        return BytesUtils.bytesToAddress(addressBytes);\r\n    }\r\n\r\n    function parseAddrFromDID2(bytes memory did)\r\n        public\r\n        pure\r\n        returns (bytes memory)\r\n    {\r\n        uint256 prefixLen = 9;\r\n        bytes memory addressBytesData = BytesUtils.slice(\r\n            did,\r\n            prefixLen,\r\n            did.length - prefixLen\r\n        );\r\n        return addressBytesData;\r\n    }\r\n\r\n    /**\r\n     * @dev parse public key to address\r\n     * @param pubKey public key\r\n     */\r\n    function pubKeyToAddr(bytes memory pubKey) public pure returns (address) {\r\n        return address(uint160(uint256(keccak256(pubKey))));\r\n    }\r\n\r\n    function byteFromDid(string memory did) public pure returns (bytes memory) {\r\n        bytes memory res = bytes(did);\r\n        return res;\r\n    }\r\n}",
  "sourcePath": "C:\\SSAFY\\S10P31C203\\blockchain\\did-real-estate\\contracts\\utils\\DidUtils.sol",
  "compiler": {
    "name": "solc",
    "version": "0.8.25+commit.b61c2a91.Emscripten.clang"
  },
  "schemaVersion": "3.4.16",
  "updatedAt": "2024-05-07T00:13:08.132Z",
  "devdoc": {
    "kind": "dev",
    "methods": {
      "pubKeyToAddr(bytes)": {
        "details": "parse public key to address",
        "params": {
          "pubKey": "public key"
        }
      },
      "verifyDIDFormat(string)": {
        "details": "verify did format",
        "params": {
          "did": "did"
        }
      }
    },
    "version": 1
  },
  "userdoc": {
    "kind": "user",
    "methods": {},
    "version": 1
  }
}