{
  "contractName": "HexUtils",
  "abi": [
    {
      "inputs": [
        {
          "internalType": "uint256",
          "name": "value",
          "type": "uint256"
        },
        {
          "internalType": "uint256",
          "name": "length",
          "type": "uint256"
        }
      ],
      "name": "toHexString",
      "outputs": [
        {
          "internalType": "string",
          "name": "",
          "type": "string"
        }
      ],
      "stateMutability": "pure",
      "type": "function"
    }
  ],
  "bytecode": "0x6104e461004d600b8282823980515f1a6073146041577f4e487b71000000000000000000000000000000000000000000000000000000005f525f60045260245ffd5b305f52607381538281f3fe7300000000000000000000000000000000000000003014608060405260043610610034575f3560e01c806363e1cbea14610038575b5f80fd5b610052600480360381019061004d919061027e565b610068565b60405161005f919061032c565b60405180910390f35b60605f600283600261007a9190610379565b61008491906103ba565b67ffffffffffffffff81111561009d5761009c6103ed565b5b6040519080825280601f01601f1916602001820160405280156100cf5781602001600182028036833780820191505090505b5090507f3000000000000000000000000000000000000000000000000000000000000000815f815181106101065761010561041a565b5b60200101907effffffffffffffffffffffffffffffffffffffffffffffffffffffffffffff191690815f1a9053507f7800000000000000000000000000000000000000000000000000000000000000816001815181106101695761016861041a565b5b60200101907effffffffffffffffffffffffffffffffffffffffffffffffffffffffffffff191690815f1a9053505f60018460026101a79190610379565b6101b191906103ba565b90505b600181111561023c57600a600f8616106101cf5760576101d2565b60305b600f86166101e09190610453565b60f81b8282815181106101f6576101f561041a565b5b60200101907effffffffffffffffffffffffffffffffffffffffffffffffffffffffffffff191690815f1a905350600485901c94508061023590610487565b90506101b4565b508091505092915050565b5f80fd5b5f819050919050565b61025d8161024b565b8114610267575f80fd5b50565b5f8135905061027881610254565b92915050565b5f806040838503121561029457610293610247565b5b5f6102a18582860161026a565b92505060206102b28582860161026a565b9150509250929050565b5f81519050919050565b5f82825260208201905092915050565b8281835e5f83830152505050565b5f601f19601f8301169050919050565b5f6102fe826102bc565b61030881856102c6565b93506103188185602086016102d6565b610321816102e4565b840191505092915050565b5f6020820190508181035f83015261034481846102f4565b905092915050565b7f4e487b71000000000000000000000000000000000000000000000000000000005f52601160045260245ffd5b5f6103838261024b565b915061038e8361024b565b925082820261039c8161024b565b915082820484148315176103b3576103b261034c565b5b5092915050565b5f6103c48261024b565b91506103cf8361024b565b92508282019050808211156103e7576103e661034c565b5b92915050565b7f4e487b71000000000000000000000000000000000000000000000000000000005f52604160045260245ffd5b7f4e487b71000000000000000000000000000000000000000000000000000000005f52603260045260245ffd5b5f60ff82169050919050565b5f61045d82610447565b915061046883610447565b9250828201905060ff8111156104815761048061034c565b5b92915050565b5f6104918261024b565b91505f82036104a3576104a261034c565b5b60018203905091905056fea264697066735822122095d9723da0a1ea40c07691755eaf416915795cf6548a939865aeafc051e8a28b64736f6c63430008190033",
  "immutableReferences": {},
  "source": "// SPDX-License-Identifier: MIT\npragma solidity ^0.8.0;\n\nlibrary HexUtils {\n\n    function toHexString(uint256 value, uint length) public pure returns (string memory) {\n        bytes memory buffer = new bytes(2 * length + 2);\n        buffer[0] = '0';\n        buffer[1] = 'x';\n        for (uint i = 2 * length + 1; i > 1; --i) {\n            buffer[i] = bytes1(uint8(value & 0xf) + (value & 0xf < 10 ? 48 : 87));\n            value >>= 4;\n        }\n        return string(buffer);\n    }\n\n}",
  "sourcePath": "/Users/sejin/Desktop/Development/C203/S10P31C203/blockchain/did-real-estate/contracts/utils/HexUtils.sol",
  "compiler": {
    "name": "solc",
    "version": "0.8.25+commit.b61c2a91.Emscripten.clang"
  },
  "schemaVersion": "3.4.16",
  "updatedAt": "2024-05-05T03:29:01.565Z",
  "devdoc": {
    "kind": "dev",
    "methods": {},
    "version": 1
  },
  "userdoc": {
    "kind": "user",
    "methods": {},
    "version": 1
  }
}