{
  "contractName": "KeyUtils",
  "abi": [
    {
      "inputs": [
        {
          "internalType": "string",
          "name": "did",
          "type": "string"
        }
      ],
      "name": "genContextKey",
      "outputs": [
        {
          "internalType": "string",
          "name": "",
          "type": "string"
        }
      ],
      "stateMutability": "pure",
      "type": "function"
    },
    {
      "inputs": [
        {
          "internalType": "string",
          "name": "ctx",
          "type": "string"
        }
      ],
      "name": "genContextSecondKey",
      "outputs": [
        {
          "internalType": "bytes32",
          "name": "",
          "type": "bytes32"
        }
      ],
      "stateMutability": "pure",
      "type": "function"
    },
    {
      "inputs": [
        {
          "internalType": "string",
          "name": "did",
          "type": "string"
        }
      ],
      "name": "genPubKeyListKey",
      "outputs": [
        {
          "internalType": "string",
          "name": "",
          "type": "string"
        }
      ],
      "stateMutability": "pure",
      "type": "function"
    },
    {
      "inputs": [
        {
          "internalType": "bytes",
          "name": "pubKey",
          "type": "bytes"
        }
      ],
      "name": "genPubKeyListSecondKey",
      "outputs": [
        {
          "internalType": "bytes32",
          "name": "",
          "type": "bytes32"
        }
      ],
      "stateMutability": "pure",
      "type": "function"
    },
    {
      "inputs": [
        {
          "internalType": "string",
          "name": "did",
          "type": "string"
        }
      ],
      "name": "genControllerKey",
      "outputs": [
        {
          "internalType": "string",
          "name": "",
          "type": "string"
        }
      ],
      "stateMutability": "pure",
      "type": "function"
    },
    {
      "inputs": [
        {
          "internalType": "string",
          "name": "controller",
          "type": "string"
        }
      ],
      "name": "genControllerSecondKey",
      "outputs": [
        {
          "internalType": "bytes32",
          "name": "",
          "type": "bytes32"
        }
      ],
      "stateMutability": "pure",
      "type": "function"
    },
    {
      "inputs": [
        {
          "internalType": "string",
          "name": "did",
          "type": "string"
        }
      ],
      "name": "genServiceKey",
      "outputs": [
        {
          "internalType": "string",
          "name": "",
          "type": "string"
        }
      ],
      "stateMutability": "pure",
      "type": "function"
    },
    {
      "inputs": [
        {
          "internalType": "string",
          "name": "serviceId",
          "type": "string"
        }
      ],
      "name": "genServiceSecondKey",
      "outputs": [
        {
          "internalType": "bytes32",
          "name": "",
          "type": "bytes32"
        }
      ],
      "stateMutability": "pure",
      "type": "function"
    },
    {
      "inputs": [
        {
          "internalType": "string",
          "name": "did",
          "type": "string"
        }
      ],
      "name": "genUpdateTimeKey",
      "outputs": [
        {
          "internalType": "string",
          "name": "",
          "type": "string"
        }
      ],
      "stateMutability": "pure",
      "type": "function"
    },
    {
      "inputs": [],
      "name": "genUpdateTimeSecondKey",
      "outputs": [
        {
          "internalType": "bytes32",
          "name": "",
          "type": "bytes32"
        }
      ],
      "stateMutability": "pure",
      "type": "function"
    }
  ],
  "bytecode": "0x61096061004d600b8282823980515f1a6073146041577f4e487b71000000000000000000000000000000000000000000000000000000005f525f60045260245ffd5b305f52607381538281f3fe73000000000000000000000000000000000000000030146080604052600436106100a7575f3560e01c80639eee0a891161006f5780639eee0a891461019b578063b726099b146101cb578063e97b8b90146101fb578063eb82484414610219578063f4d9407f14610249576100a7565b8063170b9254146100ab5780631badc8de146100db5780631eae56fe1461010b578063229cbc871461013b5780634acf27051461016b575b5f80fd5b6100c560048036038101906100c091906104fc565b610279565b6040516100d291906105a3565b60405180910390f35b6100f560048036038101906100f091906104fc565b6102a2565b60405161010291906105a3565b60405180910390f35b610125600480360381019061012091906104fc565b6102cb565b60405161013291906105a3565b60405180910390f35b610155600480360381019061015091906104fc565b6102f4565b60405161016291906105db565b60405180910390f35b610185600480360381019061018091906104fc565b610304565b60405161019291906105db565b60405180910390f35b6101b560048036038101906101b091906104fc565b610314565b6040516101c291906105a3565b60405180910390f35b6101e560048036038101906101e09190610692565b61033d565b6040516101f291906105db565b60405180910390f35b61020361034d565b60405161021091906105db565b60405180910390f35b610233600480360381019061022e91906104fc565b610376565b60405161024091906105a3565b60405180910390f35b610263600480360381019061025e91906104fc565b61039f565b60405161027091906105db565b60405180910390f35b60608160405160200161028c919061075d565b6040516020818303038152906040529050919050565b6060816040516020016102b591906107c8565b6040516020818303038152906040529050919050565b6060816040516020016102de9190610833565b6040516020818303038152906040529050919050565b5f81805190602001209050919050565b5f81805190602001209050919050565b606081604051602001610327919061089e565b6040516020818303038152906040529050919050565b5f81805190602001209050919050565b5f7fc82895c0c3ceabd782a01504a94c9aacea049cda0758a362503092064cb5015f5f1b905090565b6060816040516020016103899190610909565b6040516020818303038152906040529050919050565b5f81805190602001209050919050565b5f604051905090565b5f80fd5b5f80fd5b5f80fd5b5f80fd5b5f601f19601f8301169050919050565b7f4e487b71000000000000000000000000000000000000000000000000000000005f52604160045260245ffd5b61040e826103c8565b810181811067ffffffffffffffff8211171561042d5761042c6103d8565b5b80604052505050565b5f61043f6103af565b905061044b8282610405565b919050565b5f67ffffffffffffffff82111561046a576104696103d8565b5b610473826103c8565b9050602081019050919050565b828183375f83830152505050565b5f6104a061049b84610450565b610436565b9050828152602081018484840111156104bc576104bb6103c4565b5b6104c7848285610480565b509392505050565b5f82601f8301126104e3576104e26103c0565b5b81356104f384826020860161048e565b91505092915050565b5f60208284031215610511576105106103b8565b5b5f82013567ffffffffffffffff81111561052e5761052d6103bc565b5b61053a848285016104cf565b91505092915050565b5f81519050919050565b5f82825260208201905092915050565b8281835e5f83830152505050565b5f61057582610543565b61057f818561054d565b935061058f81856020860161055d565b610598816103c8565b840191505092915050565b5f6020820190508181035f8301526105bb818461056b565b905092915050565b5f819050919050565b6105d5816105c3565b82525050565b5f6020820190506105ee5f8301846105cc565b92915050565b5f67ffffffffffffffff82111561060e5761060d6103d8565b5b610617826103c8565b9050602081019050919050565b5f610636610631846105f4565b610436565b905082815260208101848484011115610652576106516103c4565b5b61065d848285610480565b509392505050565b5f82601f830112610679576106786103c0565b5b8135610689848260208601610624565b91505092915050565b5f602082840312156106a7576106a66103b8565b5b5f82013567ffffffffffffffff8111156106c4576106c36103bc565b5b6106d084828501610665565b91505092915050565b5f81905092915050565b5f6106ed82610543565b6106f781856106d9565b935061070781856020860161055d565b80840191505092915050565b7f7075626c69634b657900000000000000000000000000000000000000000000005f82015250565b5f6107476009836106d9565b915061075282610713565b600982019050919050565b5f61076882846106e3565b91506107738261073b565b915081905092915050565b7f40636f6e746578740000000000000000000000000000000000000000000000005f82015250565b5f6107b26008836106d9565b91506107bd8261077e565b600882019050919050565b5f6107d382846106e3565b91506107de826107a6565b915081905092915050565b7f636f6e74726f6c6c6572000000000000000000000000000000000000000000005f82015250565b5f61081d600a836106d9565b9150610828826107e9565b600a82019050919050565b5f61083e82846106e3565b915061084982610811565b915081905092915050565b7f75706461746554696d65000000000000000000000000000000000000000000005f82015250565b5f610888600a836106d9565b915061089382610854565b600a82019050919050565b5f6108a982846106e3565b91506108b48261087c565b915081905092915050565b7f73657276696365000000000000000000000000000000000000000000000000005f82015250565b5f6108f36007836106d9565b91506108fe826108bf565b600782019050919050565b5f61091482846106e3565b915061091f826108e7565b91508190509291505056fea2646970667358221220f1112f61d9ca6c5d84ea41fa276fad2d13ec842f00383578be2d5725164aff7864736f6c63430008190033",
  "immutableReferences": {},
  "source": "// SPDX-License-Identifier: MIT\r\npragma solidity ^0.8.0;\r\n\r\nimport \"./BytesUtils.sol\";\r\n\r\nlibrary KeyUtils {\r\n    function genContextKey(string memory did)\r\n        public\r\n        pure\r\n        returns (string memory)\r\n    {\r\n        return string(abi.encodePacked(did, \"@context\"));\r\n    }\r\n\r\n    function genContextSecondKey(string memory ctx)\r\n        public\r\n        pure\r\n        returns (bytes32)\r\n    {\r\n        return keccak256(bytes(ctx));\r\n    }\r\n\r\n    function genPubKeyListKey(string memory did)\r\n        public\r\n        pure\r\n        returns (string memory)\r\n    {\r\n        return string(abi.encodePacked(did, \"publicKey\"));\r\n    }\r\n\r\n    function genPubKeyListSecondKey(bytes memory pubKey)\r\n        public\r\n        pure\r\n        returns (bytes32)\r\n    {\r\n        return keccak256(pubKey);\r\n    }\r\n\r\n    function genControllerKey(string memory did)\r\n        public\r\n        pure\r\n        returns (string memory)\r\n    {\r\n        return string(abi.encodePacked(did, \"controller\"));\r\n    }\r\n\r\n    function genControllerSecondKey(string memory controller)\r\n        public\r\n        pure\r\n        returns (bytes32)\r\n    {\r\n        return keccak256(bytes(controller));\r\n    }\r\n\r\n    function genServiceKey(string memory did)\r\n        public\r\n        pure\r\n        returns (string memory)\r\n    {\r\n        return string(abi.encodePacked(did, \"service\"));\r\n    }\r\n\r\n    function genServiceSecondKey(string memory serviceId)\r\n        public\r\n        pure\r\n        returns (bytes32)\r\n    {\r\n        return keccak256(bytes(serviceId));\r\n    }\r\n\r\n    function genUpdateTimeKey(string memory did)\r\n        public\r\n        pure\r\n        returns (string memory)\r\n    {\r\n        return string(abi.encodePacked(did, \"updateTime\"));\r\n    }\r\n\r\n    function genUpdateTimeSecondKey() public pure returns (bytes32) {\r\n        // return keccak256(\"updateTime\");\r\n        return\r\n            0xc82895c0c3ceabd782a01504a94c9aacea049cda0758a362503092064cb5015f;\r\n    }\r\n}",
  "sourcePath": "C:\\SSAFY\\S10P31C203\\blockchain\\did-real-estate\\contracts\\utils\\KeyUtils.sol",
  "compiler": {
    "name": "solc",
    "version": "0.8.25+commit.b61c2a91.Emscripten.clang"
  },
  "schemaVersion": "3.4.16",
  "updatedAt": "2024-05-09T06:53:29.639Z",
  "devdoc": {
    "kind": "dev",
    "methods": {},
    "version": 1
  },
  "userdoc": {
    "kind": "user",
    "methods": {},
    "version": 1
  }
}