{
  "contractName": "RealEstateInfo",
  "abi": [
    {
      "inputs": [
        {
          "internalType": "address",
          "name": "_owner",
          "type": "address"
        }
      ],
      "stateMutability": "nonpayable",
      "type": "constructor"
    },
    {
      "inputs": [
        {
          "internalType": "address",
          "name": "owner",
          "type": "address"
        }
      ],
      "name": "OwnableInvalidOwner",
      "type": "error"
    },
    {
      "inputs": [
        {
          "internalType": "address",
          "name": "account",
          "type": "address"
        }
      ],
      "name": "OwnableUnauthorizedAccount",
      "type": "error"
    },
    {
      "anonymous": false,
      "inputs": [
        {
          "indexed": true,
          "internalType": "address",
          "name": "previousOwner",
          "type": "address"
        },
        {
          "indexed": true,
          "internalType": "address",
          "name": "newOwner",
          "type": "address"
        }
      ],
      "name": "OwnershipTransferred",
      "type": "event"
    },
    {
      "inputs": [],
      "name": "owner",
      "outputs": [
        {
          "internalType": "address",
          "name": "",
          "type": "address"
        }
      ],
      "stateMutability": "view",
      "type": "function"
    },
    {
      "inputs": [],
      "name": "renounceOwnership",
      "outputs": [],
      "stateMutability": "nonpayable",
      "type": "function"
    },
    {
      "inputs": [
        {
          "internalType": "address",
          "name": "newOwner",
          "type": "address"
        }
      ],
      "name": "transferOwnership",
      "outputs": [],
      "stateMutability": "nonpayable",
      "type": "function"
    },
    {
      "inputs": [
        {
          "components": [
            {
              "internalType": "string",
              "name": "roadNameAddress",
              "type": "string"
            },
            {
              "internalType": "string",
              "name": "buildingName",
              "type": "string"
            },
            {
              "internalType": "uint8",
              "name": "buildingNumber",
              "type": "uint8"
            },
            {
              "internalType": "uint8",
              "name": "roomNumber",
              "type": "uint8"
            },
            {
              "internalType": "string",
              "name": "genDate",
              "type": "string"
            }
          ],
          "internalType": "struct RealEstateStructs.RealEstateBasicInfo",
          "name": "_basicInfo",
          "type": "tuple"
        }
      ],
      "name": "setRealEstateBasicInfo",
      "outputs": [],
      "stateMutability": "nonpayable",
      "type": "function"
    },
    {
      "inputs": [
        {
          "components": [
            {
              "internalType": "uint8",
              "name": "num",
              "type": "uint8"
            },
            {
              "internalType": "string",
              "name": "registration",
              "type": "string"
            },
            {
              "internalType": "string",
              "name": "location",
              "type": "string"
            },
            {
              "internalType": "string",
              "name": "buildingInfo",
              "type": "string"
            },
            {
              "internalType": "string",
              "name": "reasonAndEtc",
              "type": "string"
            }
          ],
          "internalType": "struct RealEstateStructs.HeadLine",
          "name": "_headline",
          "type": "tuple"
        }
      ],
      "name": "setHeadLine",
      "outputs": [],
      "stateMutability": "nonpayable",
      "type": "function"
    },
    {
      "inputs": [
        {
          "components": [
            {
              "internalType": "uint8",
              "name": "rank",
              "type": "uint8"
            },
            {
              "internalType": "string",
              "name": "purpose",
              "type": "string"
            },
            {
              "internalType": "string",
              "name": "registration",
              "type": "string"
            },
            {
              "internalType": "string",
              "name": "reason",
              "type": "string"
            },
            {
              "internalType": "string",
              "name": "holderAndEtc",
              "type": "string"
            }
          ],
          "internalType": "struct RealEstateStructs.Section",
          "name": "_rightsSection",
          "type": "tuple"
        }
      ],
      "name": "setRightsSection",
      "outputs": [],
      "stateMutability": "nonpayable",
      "type": "function"
    },
    {
      "inputs": [
        {
          "components": [
            {
              "internalType": "uint8",
              "name": "rank",
              "type": "uint8"
            },
            {
              "internalType": "string",
              "name": "purpose",
              "type": "string"
            },
            {
              "internalType": "string",
              "name": "registration",
              "type": "string"
            },
            {
              "internalType": "string",
              "name": "reason",
              "type": "string"
            },
            {
              "internalType": "string",
              "name": "holderAndEtc",
              "type": "string"
            }
          ],
          "internalType": "struct RealEstateStructs.Section",
          "name": "_encumbrancesSection",
          "type": "tuple"
        }
      ],
      "name": "setEncumbrancesSection",
      "outputs": [],
      "stateMutability": "nonpayable",
      "type": "function"
    },
    {
      "inputs": [
        {
          "components": [
            {
              "internalType": "bool",
              "name": "isViolated",
              "type": "bool"
            },
            {
              "internalType": "uint8",
              "name": "units",
              "type": "uint8"
            },
            {
              "internalType": "uint8",
              "name": "households",
              "type": "uint8"
            },
            {
              "internalType": "uint8",
              "name": "dwellingUnits",
              "type": "uint8"
            },
            {
              "internalType": "string",
              "name": "landLocation",
              "type": "string"
            },
            {
              "internalType": "uint8",
              "name": "landNumber",
              "type": "uint8"
            },
            {
              "internalType": "string",
              "name": "landArea",
              "type": "string"
            },
            {
              "internalType": "string",
              "name": "totalFloorArea",
              "type": "string"
            },
            {
              "internalType": "string",
              "name": "region",
              "type": "string"
            },
            {
              "internalType": "string",
              "name": "buildingArea",
              "type": "string"
            },
            {
              "internalType": "string",
              "name": "mainStructure",
              "type": "string"
            },
            {
              "internalType": "string",
              "name": "mainUsage",
              "type": "string"
            },
            {
              "internalType": "uint8",
              "name": "basementFloorCount",
              "type": "uint8"
            },
            {
              "internalType": "uint8",
              "name": "aboveGroundFloorCount",
              "type": "uint8"
            },
            {
              "internalType": "string",
              "name": "height",
              "type": "string"
            },
            {
              "internalType": "string",
              "name": "floor",
              "type": "string"
            },
            {
              "components": [
                {
                  "internalType": "string",
                  "name": "category",
                  "type": "string"
                },
                {
                  "internalType": "uint8",
                  "name": "floorNumber",
                  "type": "uint8"
                },
                {
                  "internalType": "string",
                  "name": "structure",
                  "type": "string"
                },
                {
                  "internalType": "string",
                  "name": "usage",
                  "type": "string"
                },
                {
                  "internalType": "string",
                  "name": "area",
                  "type": "string"
                }
              ],
              "internalType": "struct RealEstateStructs.StructureStatus[]",
              "name": "statuses",
              "type": "tuple[]"
            }
          ],
          "internalType": "struct RealEstateStructs.BuildingManagementRecord",
          "name": "_buildingManagementRecord",
          "type": "tuple"
        }
      ],
      "name": "setBuildingManagementRecord",
      "outputs": [],
      "stateMutability": "nonpayable",
      "type": "function"
    },
    {
      "inputs": [
        {
          "components": [
            {
              "internalType": "string",
              "name": "category",
              "type": "string"
            },
            {
              "internalType": "uint8",
              "name": "floorNumber",
              "type": "uint8"
            },
            {
              "internalType": "string",
              "name": "structure",
              "type": "string"
            },
            {
              "internalType": "string",
              "name": "usage",
              "type": "string"
            },
            {
              "internalType": "string",
              "name": "area",
              "type": "string"
            }
          ],
          "internalType": "struct RealEstateStructs.StructureStatus",
          "name": "_status",
          "type": "tuple"
        }
      ],
      "name": "addStatus",
      "outputs": [],
      "stateMutability": "nonpayable",
      "type": "function"
    },
    {
      "inputs": [],
      "name": "getRealEstateFullInfo",
      "outputs": [
        {
          "components": [
            {
              "internalType": "string",
              "name": "roadNameAddress",
              "type": "string"
            },
            {
              "internalType": "string",
              "name": "buildingName",
              "type": "string"
            },
            {
              "internalType": "uint8",
              "name": "buildingNumber",
              "type": "uint8"
            },
            {
              "internalType": "uint8",
              "name": "roomNumber",
              "type": "uint8"
            },
            {
              "internalType": "string",
              "name": "genDate",
              "type": "string"
            }
          ],
          "internalType": "struct RealEstateStructs.RealEstateBasicInfo",
          "name": "",
          "type": "tuple"
        },
        {
          "components": [
            {
              "components": [
                {
                  "internalType": "uint8",
                  "name": "num",
                  "type": "uint8"
                },
                {
                  "internalType": "string",
                  "name": "registration",
                  "type": "string"
                },
                {
                  "internalType": "string",
                  "name": "location",
                  "type": "string"
                },
                {
                  "internalType": "string",
                  "name": "buildingInfo",
                  "type": "string"
                },
                {
                  "internalType": "string",
                  "name": "reasonAndEtc",
                  "type": "string"
                }
              ],
              "internalType": "struct RealEstateStructs.HeadLine",
              "name": "headline",
              "type": "tuple"
            },
            {
              "components": [
                {
                  "internalType": "uint8",
                  "name": "rank",
                  "type": "uint8"
                },
                {
                  "internalType": "string",
                  "name": "purpose",
                  "type": "string"
                },
                {
                  "internalType": "string",
                  "name": "registration",
                  "type": "string"
                },
                {
                  "internalType": "string",
                  "name": "reason",
                  "type": "string"
                },
                {
                  "internalType": "string",
                  "name": "holderAndEtc",
                  "type": "string"
                }
              ],
              "internalType": "struct RealEstateStructs.Section",
              "name": "rightsSection",
              "type": "tuple"
            },
            {
              "components": [
                {
                  "internalType": "uint8",
                  "name": "rank",
                  "type": "uint8"
                },
                {
                  "internalType": "string",
                  "name": "purpose",
                  "type": "string"
                },
                {
                  "internalType": "string",
                  "name": "registration",
                  "type": "string"
                },
                {
                  "internalType": "string",
                  "name": "reason",
                  "type": "string"
                },
                {
                  "internalType": "string",
                  "name": "holderAndEtc",
                  "type": "string"
                }
              ],
              "internalType": "struct RealEstateStructs.Section",
              "name": "encumbrancesSection",
              "type": "tuple"
            }
          ],
          "internalType": "struct RealEstateStructs.RealEstateRegistryCertificate",
          "name": "",
          "type": "tuple"
        },
        {
          "components": [
            {
              "internalType": "bool",
              "name": "isViolated",
              "type": "bool"
            },
            {
              "internalType": "uint8",
              "name": "units",
              "type": "uint8"
            },
            {
              "internalType": "uint8",
              "name": "households",
              "type": "uint8"
            },
            {
              "internalType": "uint8",
              "name": "dwellingUnits",
              "type": "uint8"
            },
            {
              "internalType": "string",
              "name": "landLocation",
              "type": "string"
            },
            {
              "internalType": "uint8",
              "name": "landNumber",
              "type": "uint8"
            },
            {
              "internalType": "string",
              "name": "landArea",
              "type": "string"
            },
            {
              "internalType": "string",
              "name": "totalFloorArea",
              "type": "string"
            },
            {
              "internalType": "string",
              "name": "region",
              "type": "string"
            },
            {
              "internalType": "string",
              "name": "buildingArea",
              "type": "string"
            },
            {
              "internalType": "string",
              "name": "mainStructure",
              "type": "string"
            },
            {
              "internalType": "string",
              "name": "mainUsage",
              "type": "string"
            },
            {
              "internalType": "uint8",
              "name": "basementFloorCount",
              "type": "uint8"
            },
            {
              "internalType": "uint8",
              "name": "aboveGroundFloorCount",
              "type": "uint8"
            },
            {
              "internalType": "string",
              "name": "height",
              "type": "string"
            },
            {
              "internalType": "string",
              "name": "floor",
              "type": "string"
            },
            {
              "components": [
                {
                  "internalType": "string",
                  "name": "category",
                  "type": "string"
                },
                {
                  "internalType": "uint8",
                  "name": "floorNumber",
                  "type": "uint8"
                },
                {
                  "internalType": "string",
                  "name": "structure",
                  "type": "string"
                },
                {
                  "internalType": "string",
                  "name": "usage",
                  "type": "string"
                },
                {
                  "internalType": "string",
                  "name": "area",
                  "type": "string"
                }
              ],
              "internalType": "struct RealEstateStructs.StructureStatus[]",
              "name": "statuses",
              "type": "tuple[]"
            }
          ],
          "internalType": "struct RealEstateStructs.BuildingManagementRecord",
          "name": "",
          "type": "tuple"
        }
      ],
      "stateMutability": "view",
      "type": "function"
    },
    {
      "inputs": [],
      "name": "getBasicInfo",
      "outputs": [
        {
          "components": [
            {
              "internalType": "string",
              "name": "roadNameAddress",
              "type": "string"
            },
            {
              "internalType": "string",
              "name": "buildingName",
              "type": "string"
            },
            {
              "internalType": "uint8",
              "name": "buildingNumber",
              "type": "uint8"
            },
            {
              "internalType": "uint8",
              "name": "roomNumber",
              "type": "uint8"
            },
            {
              "internalType": "string",
              "name": "genDate",
              "type": "string"
            }
          ],
          "internalType": "struct RealEstateStructs.RealEstateBasicInfo",
          "name": "",
          "type": "tuple"
        }
      ],
      "stateMutability": "view",
      "type": "function"
    },
    {
      "inputs": [],
      "name": "getRegistryCertificate",
      "outputs": [
        {
          "components": [
            {
              "components": [
                {
                  "internalType": "uint8",
                  "name": "num",
                  "type": "uint8"
                },
                {
                  "internalType": "string",
                  "name": "registration",
                  "type": "string"
                },
                {
                  "internalType": "string",
                  "name": "location",
                  "type": "string"
                },
                {
                  "internalType": "string",
                  "name": "buildingInfo",
                  "type": "string"
                },
                {
                  "internalType": "string",
                  "name": "reasonAndEtc",
                  "type": "string"
                }
              ],
              "internalType": "struct RealEstateStructs.HeadLine",
              "name": "headline",
              "type": "tuple"
            },
            {
              "components": [
                {
                  "internalType": "uint8",
                  "name": "rank",
                  "type": "uint8"
                },
                {
                  "internalType": "string",
                  "name": "purpose",
                  "type": "string"
                },
                {
                  "internalType": "string",
                  "name": "registration",
                  "type": "string"
                },
                {
                  "internalType": "string",
                  "name": "reason",
                  "type": "string"
                },
                {
                  "internalType": "string",
                  "name": "holderAndEtc",
                  "type": "string"
                }
              ],
              "internalType": "struct RealEstateStructs.Section",
              "name": "rightsSection",
              "type": "tuple"
            },
            {
              "components": [
                {
                  "internalType": "uint8",
                  "name": "rank",
                  "type": "uint8"
                },
                {
                  "internalType": "string",
                  "name": "purpose",
                  "type": "string"
                },
                {
                  "internalType": "string",
                  "name": "registration",
                  "type": "string"
                },
                {
                  "internalType": "string",
                  "name": "reason",
                  "type": "string"
                },
                {
                  "internalType": "string",
                  "name": "holderAndEtc",
                  "type": "string"
                }
              ],
              "internalType": "struct RealEstateStructs.Section",
              "name": "encumbrancesSection",
              "type": "tuple"
            }
          ],
          "internalType": "struct RealEstateStructs.RealEstateRegistryCertificate",
          "name": "",
          "type": "tuple"
        }
      ],
      "stateMutability": "view",
      "type": "function"
    },
    {
      "inputs": [],
      "name": "getBuildingManagementRecord",
      "outputs": [
        {
          "components": [
            {
              "internalType": "bool",
              "name": "isViolated",
              "type": "bool"
            },
            {
              "internalType": "uint8",
              "name": "units",
              "type": "uint8"
            },
            {
              "internalType": "uint8",
              "name": "households",
              "type": "uint8"
            },
            {
              "internalType": "uint8",
              "name": "dwellingUnits",
              "type": "uint8"
            },
            {
              "internalType": "string",
              "name": "landLocation",
              "type": "string"
            },
            {
              "internalType": "uint8",
              "name": "landNumber",
              "type": "uint8"
            },
            {
              "internalType": "string",
              "name": "landArea",
              "type": "string"
            },
            {
              "internalType": "string",
              "name": "totalFloorArea",
              "type": "string"
            },
            {
              "internalType": "string",
              "name": "region",
              "type": "string"
            },
            {
              "internalType": "string",
              "name": "buildingArea",
              "type": "string"
            },
            {
              "internalType": "string",
              "name": "mainStructure",
              "type": "string"
            },
            {
              "internalType": "string",
              "name": "mainUsage",
              "type": "string"
            },
            {
              "internalType": "uint8",
              "name": "basementFloorCount",
              "type": "uint8"
            },
            {
              "internalType": "uint8",
              "name": "aboveGroundFloorCount",
              "type": "uint8"
            },
            {
              "internalType": "string",
              "name": "height",
              "type": "string"
            },
            {
              "internalType": "string",
              "name": "floor",
              "type": "string"
            },
            {
              "components": [
                {
                  "internalType": "string",
                  "name": "category",
                  "type": "string"
                },
                {
                  "internalType": "uint8",
                  "name": "floorNumber",
                  "type": "uint8"
                },
                {
                  "internalType": "string",
                  "name": "structure",
                  "type": "string"
                },
                {
                  "internalType": "string",
                  "name": "usage",
                  "type": "string"
                },
                {
                  "internalType": "string",
                  "name": "area",
                  "type": "string"
                }
              ],
              "internalType": "struct RealEstateStructs.StructureStatus[]",
              "name": "statuses",
              "type": "tuple[]"
            }
          ],
          "internalType": "struct RealEstateStructs.BuildingManagementRecord",
          "name": "",
          "type": "tuple"
        }
      ],
      "stateMutability": "view",
      "type": "function"
    }
  ],
  "bytecode": "0x608060405234801561000f575f80fd5b50604051614a29380380614a29833981810160405281019061003191906101d7565b805f73ffffffffffffffffffffffffffffffffffffffff168173ffffffffffffffffffffffffffffffffffffffff16036100a2575f6040517f1e4fbdf70000000000000000000000000000000000000000000000000000000081526004016100999190610211565b60405180910390fd5b6100b1816100b860201b60201c565b505061022a565b5f805f9054906101000a900473ffffffffffffffffffffffffffffffffffffffff169050815f806101000a81548173ffffffffffffffffffffffffffffffffffffffff021916908373ffffffffffffffffffffffffffffffffffffffff1602179055508173ffffffffffffffffffffffffffffffffffffffff168173ffffffffffffffffffffffffffffffffffffffff167f8be0079c531659141344cd1fd0a4f28419497f9722a3daafe3b4186f6b6457e060405160405180910390a35050565b5f80fd5b5f73ffffffffffffffffffffffffffffffffffffffff82169050919050565b5f6101a68261017d565b9050919050565b6101b68161019c565b81146101c0575f80fd5b50565b5f815190506101d1816101ad565b92915050565b5f602082840312156101ec576101eb610179565b5b5f6101f9848285016101c3565b91505092915050565b61020b8161019c565b82525050565b5f6020820190506102245f830184610202565b92915050565b6147f2806102375f395ff3fe608060405234801561000f575f80fd5b50600436106100cd575f3560e01c8063a501f7221161008a578063ea148ace11610064578063ea148ace146101c3578063ecc1b184146101df578063f2fde38b146101ff578063f593f9281461021b576100cd565b8063a501f7221461016f578063ae8aa8e31461018b578063c8db2b52146101a7576100cd565b806323663383146100d15780632d51eb1f146100ef578063715018a61461010b5780638b6cb4e8146101155780638da5cb5b146101335780639f999da314610151575b5f80fd5b6100d9610237565b6040516100e691906139e0565b60405180910390f35b61010960048036038101906101049190613a2a565b61099d565b005b610113610bca565b005b61011d610bdd565b60405161012a9190613d77565b60405180910390f35b61013b611481565b6040516101489190613dd6565b60405180910390f35b6101596114a8565b6040516101669190613e70565b60405180910390f35b61018960048036038101906101849190613eae565b6116aa565b005b6101a560048036038101906101a09190613f14565b6118b1565b005b6101c160048036038101906101bc9190613f79565b611bed565b005b6101dd60048036038101906101d89190613eae565b611dc1565b005b6101e7611fc8565b6040516101f693929190613fc0565b60405180910390f35b61021960048036038101906102149190614034565b6131d9565b005b6102356004803603810190610230919061407d565b61325d565b005b61023f6135b3565b60056040518060600160405290815f82016040518060a00160405290815f82015f9054906101000a900460ff1660ff1660ff168152602001600182018054610286906140f1565b80601f01602080910402602001604051908101604052809291908181526020018280546102b2906140f1565b80156102fd5780601f106102d4576101008083540402835291602001916102fd565b820191905f5260205f20905b8154815290600101906020018083116102e057829003601f168201915b50505050508152602001600282018054610316906140f1565b80601f0160208091040260200160405190810160405280929190818152602001828054610342906140f1565b801561038d5780601f106103645761010080835404028352916020019161038d565b820191905f5260205f20905b81548152906001019060200180831161037057829003601f168201915b505050505081526020016003820180546103a6906140f1565b80601f01602080910402602001604051908101604052809291908181526020018280546103d2906140f1565b801561041d5780601f106103f45761010080835404028352916020019161041d565b820191905f5260205f20905b81548152906001019060200180831161040057829003601f168201915b50505050508152602001600482018054610436906140f1565b80601f0160208091040260200160405190810160405280929190818152602001828054610462906140f1565b80156104ad5780601f10610484576101008083540402835291602001916104ad565b820191905f5260205f20905b81548152906001019060200180831161049057829003601f168201915b5050505050815250508152602001600582016040518060a00160405290815f82015f9054906101000a900460ff1660ff1660ff1681526020016001820180546104f5906140f1565b80601f0160208091040260200160405190810160405280929190818152602001828054610521906140f1565b801561056c5780601f106105435761010080835404028352916020019161056c565b820191905f5260205f20905b81548152906001019060200180831161054f57829003601f168201915b50505050508152602001600282018054610585906140f1565b80601f01602080910402602001604051908101604052809291908181526020018280546105b1906140f1565b80156105fc5780601f106105d3576101008083540402835291602001916105fc565b820191905f5260205f20905b8154815290600101906020018083116105df57829003601f168201915b50505050508152602001600382018054610615906140f1565b80601f0160208091040260200160405190810160405280929190818152602001828054610641906140f1565b801561068c5780601f106106635761010080835404028352916020019161068c565b820191905f5260205f20905b81548152906001019060200180831161066f57829003601f168201915b505050505081526020016004820180546106a5906140f1565b80601f01602080910402602001604051908101604052809291908181526020018280546106d1906140f1565b801561071c5780601f106106f35761010080835404028352916020019161071c565b820191905f5260205f20905b8154815290600101906020018083116106ff57829003601f168201915b5050505050815250508152602001600a82016040518060a00160405290815f82015f9054906101000a900460ff1660ff1660ff168152602001600182018054610764906140f1565b80601f0160208091040260200160405190810160405280929190818152602001828054610790906140f1565b80156107db5780601f106107b2576101008083540402835291602001916107db565b820191905f5260205f20905b8154815290600101906020018083116107be57829003601f168201915b505050505081526020016002820180546107f4906140f1565b80601f0160208091040260200160405190810160405280929190818152602001828054610820906140f1565b801561086b5780601f106108425761010080835404028352916020019161086b565b820191905f5260205f20905b81548152906001019060200180831161084e57829003601f168201915b50505050508152602001600382018054610884906140f1565b80601f01602080910402602001604051908101604052809291908181526020018280546108b0906140f1565b80156108fb5780601f106108d2576101008083540402835291602001916108fb565b820191905f5260205f20905b8154815290600101906020018083116108de57829003601f168201915b50505050508152602001600482018054610914906140f1565b80601f0160208091040260200160405190810160405280929190818152602001828054610940906140f1565b801561098b5780601f106109625761010080835404028352916020019161098b565b820191905f5260205f20905b81548152906001019060200180831161096e57829003601f168201915b50505050508152505081525050905090565b6109a5613464565b6014600c016040518060a0016040528083805f01906109c4919061412d565b8080601f0160208091040260200160405190810160405280939291908181526020018383808284375f81840152601f19601f820116905080830192505050505050508152602001836020016020810190610a1e91906141b9565b60ff168152602001838060400190610a36919061412d565b8080601f0160208091040260200160405190810160405280939291908181526020018383808284375f81840152601f19601f820116905080830192505050505050508152602001838060600190610a8d919061412d565b8080601f0160208091040260200160405190810160405280939291908181526020018383808284375f81840152601f19601f820116905080830192505050505050508152602001838060800190610ae4919061412d565b8080601f0160208091040260200160405190810160405280939291908181526020018383808284375f81840152601f19601f82011690508083019250505050505050815250908060018154018082558091505060019003905f5260205f2090600502015f909190919091505f820151815f019081610b6291906143b7565b506020820151816001015f6101000a81548160ff021916908360ff1602179055506040820151816002019081610b9891906143b7565b506060820151816003019081610bae91906143b7565b506080820151816004019081610bc491906143b7565b50505050565b610bd2613464565b610bdb5f6134eb565b565b610be56135e6565b6014604051806102200160405290815f82015f9054906101000a900460ff161515151581526020015f820160019054906101000a900460ff1660ff1660ff1681526020015f820160029054906101000a900460ff1660ff1660ff1681526020015f820160039054906101000a900460ff1660ff1660ff168152602001600182018054610c70906140f1565b80601f0160208091040260200160405190810160405280929190818152602001828054610c9c906140f1565b8015610ce75780601f10610cbe57610100808354040283529160200191610ce7565b820191905f5260205f20905b815481529060010190602001808311610cca57829003601f168201915b50505050508152602001600282015f9054906101000a900460ff1660ff1660ff168152602001600382018054610d1c906140f1565b80601f0160208091040260200160405190810160405280929190818152602001828054610d48906140f1565b8015610d935780601f10610d6a57610100808354040283529160200191610d93565b820191905f5260205f20905b815481529060010190602001808311610d7657829003601f168201915b50505050508152602001600482018054610dac906140f1565b80601f0160208091040260200160405190810160405280929190818152602001828054610dd8906140f1565b8015610e235780601f10610dfa57610100808354040283529160200191610e23565b820191905f5260205f20905b815481529060010190602001808311610e0657829003601f168201915b50505050508152602001600582018054610e3c906140f1565b80601f0160208091040260200160405190810160405280929190818152602001828054610e68906140f1565b8015610eb35780601f10610e8a57610100808354040283529160200191610eb3565b820191905f5260205f20905b815481529060010190602001808311610e9657829003601f168201915b50505050508152602001600682018054610ecc906140f1565b80601f0160208091040260200160405190810160405280929190818152602001828054610ef8906140f1565b8015610f435780601f10610f1a57610100808354040283529160200191610f43565b820191905f5260205f20905b815481529060010190602001808311610f2657829003601f168201915b50505050508152602001600782018054610f5c906140f1565b80601f0160208091040260200160405190810160405280929190818152602001828054610f88906140f1565b8015610fd35780601f10610faa57610100808354040283529160200191610fd3565b820191905f5260205f20905b815481529060010190602001808311610fb657829003601f168201915b50505050508152602001600882018054610fec906140f1565b80601f0160208091040260200160405190810160405280929190818152602001828054611018906140f1565b80156110635780601f1061103a57610100808354040283529160200191611063565b820191905f5260205f20905b81548152906001019060200180831161104657829003601f168201915b50505050508152602001600982015f9054906101000a900460ff1660ff1660ff1681526020016009820160019054906101000a900460ff1660ff1660ff168152602001600a820180546110b5906140f1565b80601f01602080910402602001604051908101604052809291908181526020018280546110e1906140f1565b801561112c5780601f106111035761010080835404028352916020019161112c565b820191905f5260205f20905b81548152906001019060200180831161110f57829003601f168201915b50505050508152602001600b82018054611145906140f1565b80601f0160208091040260200160405190810160405280929190818152602001828054611171906140f1565b80156111bc5780601f10611193576101008083540402835291602001916111bc565b820191905f5260205f20905b81548152906001019060200180831161119f57829003601f168201915b50505050508152602001600c8201805480602002602001604051908101604052809291908181526020015f905b82821015611474578382905f5260205f2090600502016040518060a00160405290815f82018054611219906140f1565b80601f0160208091040260200160405190810160405280929190818152602001828054611245906140f1565b80156112905780601f1061126757610100808354040283529160200191611290565b820191905f5260205f20905b81548152906001019060200180831161127357829003601f168201915b50505050508152602001600182015f9054906101000a900460ff1660ff1660ff1681526020016002820180546112c5906140f1565b80601f01602080910402602001604051908101604052809291908181526020018280546112f1906140f1565b801561133c5780601f106113135761010080835404028352916020019161133c565b820191905f5260205f20905b81548152906001019060200180831161131f57829003601f168201915b50505050508152602001600382018054611355906140f1565b80601f0160208091040260200160405190810160405280929190818152602001828054611381906140f1565b80156113cc5780601f106113a3576101008083540402835291602001916113cc565b820191905f5260205f20905b8154815290600101906020018083116113af57829003601f168201915b505050505081526020016004820180546113e5906140f1565b80601f0160208091040260200160405190810160405280929190818152602001828054611411906140f1565b801561145c5780601f106114335761010080835404028352916020019161145c565b820191905f5260205f20905b81548152906001019060200180831161143f57829003601f168201915b505050505081525050815260200190600101906111e9565b5050505081525050905090565b5f805f9054906101000a900473ffffffffffffffffffffffffffffffffffffffff16905090565b6114b0613677565b60016040518060a00160405290815f820180546114cc906140f1565b80601f01602080910402602001604051908101604052809291908181526020018280546114f8906140f1565b80156115435780601f1061151a57610100808354040283529160200191611543565b820191905f5260205f20905b81548152906001019060200180831161152657829003601f168201915b5050505050815260200160018201805461155c906140f1565b80601f0160208091040260200160405190810160405280929190818152602001828054611588906140f1565b80156115d35780601f106115aa576101008083540402835291602001916115d3565b820191905f5260205f20905b8154815290600101906020018083116115b657829003601f168201915b50505050508152602001600282015f9054906101000a900460ff1660ff1660ff1681526020016002820160019054906101000a900460ff1660ff1660ff168152602001600382018054611625906140f1565b80601f0160208091040260200160405190810160405280929190818152602001828054611651906140f1565b801561169c5780601f106116735761010080835404028352916020019161169c565b820191905f5260205f20905b81548152906001019060200180831161167f57829003601f168201915b505050505081525050905090565b6116b2613464565b6040518060a00160405280825f0160208101906116cf91906141b9565b60ff1681526020018280602001906116e7919061412d565b8080601f0160208091040260200160405190810160405280939291908181526020018383808284375f81840152601f19601f82011690508083019250505050505050815260200182806040019061173e919061412d565b8080601f0160208091040260200160405190810160405280939291908181526020018383808284375f81840152601f19601f820116905080830192505050505050508152602001828060600190611795919061412d565b8080601f0160208091040260200160405190810160405280939291908181526020018383808284375f81840152601f19601f8201169050808301925050505050505081526020018280608001906117ec919061412d565b8080601f0160208091040260200160405190810160405280939291908181526020018383808284375f81840152601f19601f82011690508083019250505050505050815250600580015f820151815f015f6101000a81548160ff021916908360ff160217905550602082015181600101908161186891906143b7565b50604082015181600201908161187e91906143b7565b50606082015181600301908161189491906143b7565b5060808201518160040190816118aa91906143b7565b5090505050565b6118b9613464565b805f0160208101906118cb91906144b0565b60145f015f6101000a81548160ff0219169083151502179055508060200160208101906118f891906141b9565b60145f0160016101000a81548160ff021916908360ff16021790555080604001602081019061192791906141b9565b60145f0160026101000a81548160ff021916908360ff16021790555080606001602081019061195691906141b9565b60145f0160036101000a81548160ff021916908360ff160217905550808060800190611982919061412d565b601460010191826119949291906144e5565b508060a00160208101906119a891906141b9565b60146002015f6101000a81548160ff021916908360ff160217905550808060c001906119d4919061412d565b601460030191826119e69291906144e5565b50808060e001906119f7919061412d565b60146004019182611a099291906144e5565b5080806101000190611a1b919061412d565b60146005019182611a2d9291906144e5565b5080806101200190611a3f919061412d565b60146006019182611a519291906144e5565b5080806101400190611a63919061412d565b60146007019182611a759291906144e5565b5080806101600190611a87919061412d565b60146008019182611a999291906144e5565b5080610180016020810190611aae91906141b9565b60146009015f6101000a81548160ff021916908360ff160217905550806101a0016020810190611ade91906141b9565b601460090160016101000a81548160ff021916908360ff16021790555080806101c00190611b0c919061412d565b6014600a019182611b1e9291906144e5565b5080806101e00190611b30919061412d565b6014600b019182611b429291906144e5565b506014600c015f611b5391906136aa565b5f5b81806102000190611b6691906145b2565b9050811015611be9576014600c0182806102000190611b8591906145b2565b83818110611b9657611b95614614565b5b9050602002810190611ba89190614641565b908060018154018082558091505060019003905f5260205f2090600502015f909190919091508181611bda91906147ae565b50508080600101915050611b55565b5050565b611bf5613464565b6040518060a0016040528082805f0190611c0f919061412d565b8080601f0160208091040260200160405190810160405280939291908181526020018383808284375f81840152601f19601f820116905080830192505050505050508152602001828060200190611c66919061412d565b8080601f0160208091040260200160405190810160405280939291908181526020018383808284375f81840152601f19601f820116905080830192505050505050508152602001826040016020810190611cc091906141b9565b60ff168152602001826060016020810190611cdb91906141b9565b60ff168152602001828060800190611cf3919061412d565b8080601f0160208091040260200160405190810160405280939291908181526020018383808284375f81840152601f19601f8201169050808301925050505050505081525060015f820151815f019081611d4d91906143b7565b506020820151816001019081611d6391906143b7565b506040820151816002015f6101000a81548160ff021916908360ff16021790555060608201518160020160016101000a81548160ff021916908360ff1602179055506080820151816003019081611dba91906143b7565b5090505050565b611dc9613464565b6040518060a00160405280825f016020810190611de691906141b9565b60ff168152602001828060200190611dfe919061412d565b8080601f0160208091040260200160405190810160405280939291908181526020018383808284375f81840152601f19601f820116905080830192505050505050508152602001828060400190611e55919061412d565b8080601f0160208091040260200160405190810160405280939291908181526020018383808284375f81840152601f19601f820116905080830192505050505050508152602001828060600190611eac919061412d565b8080601f0160208091040260200160405190810160405280939291908181526020018383808284375f81840152601f19601f820116905080830192505050505050508152602001828060800190611f03919061412d565b8080601f0160208091040260200160405190810160405280939291908181526020018383808284375f81840152601f19601f82011690508083019250505050505050815250600580015f820151815f015f6101000a81548160ff021916908360ff1602179055506020820151816001019081611f7f91906143b7565b506040820151816002019081611f9591906143b7565b506060820151816003019081611fab91906143b7565b506080820151816004019081611fc191906143b7565b5090505050565b611fd0613677565b611fd86135b3565b611fe06135e6565b600160056014826040518060a00160405290815f82018054612001906140f1565b80601f016020809104026020016040519081016040528092919081815260200182805461202d906140f1565b80156120785780601f1061204f57610100808354040283529160200191612078565b820191905f5260205f20905b81548152906001019060200180831161205b57829003601f168201915b50505050508152602001600182018054612091906140f1565b80601f01602080910402602001604051908101604052809291908181526020018280546120bd906140f1565b80156121085780601f106120df57610100808354040283529160200191612108565b820191905f5260205f20905b8154815290600101906020018083116120eb57829003601f168201915b50505050508152602001600282015f9054906101000a900460ff1660ff1660ff1681526020016002820160019054906101000a900460ff1660ff1660ff16815260200160038201805461215a906140f1565b80601f0160208091040260200160405190810160405280929190818152602001828054612186906140f1565b80156121d15780601f106121a8576101008083540402835291602001916121d1565b820191905f5260205f20905b8154815290600101906020018083116121b457829003601f168201915b5050505050815250509250816040518060600160405290815f82016040518060a00160405290815f82015f9054906101000a900460ff1660ff1660ff168152602001600182018054612222906140f1565b80601f016020809104026020016040519081016040528092919081815260200182805461224e906140f1565b80156122995780601f1061227057610100808354040283529160200191612299565b820191905f5260205f20905b81548152906001019060200180831161227c57829003601f168201915b505050505081526020016002820180546122b2906140f1565b80601f01602080910402602001604051908101604052809291908181526020018280546122de906140f1565b80156123295780601f1061230057610100808354040283529160200191612329565b820191905f5260205f20905b81548152906001019060200180831161230c57829003601f168201915b50505050508152602001600382018054612342906140f1565b80601f016020809104026020016040519081016040528092919081815260200182805461236e906140f1565b80156123b95780601f10612390576101008083540402835291602001916123b9565b820191905f5260205f20905b81548152906001019060200180831161239c57829003601f168201915b505050505081526020016004820180546123d2906140f1565b80601f01602080910402602001604051908101604052809291908181526020018280546123fe906140f1565b80156124495780601f1061242057610100808354040283529160200191612449565b820191905f5260205f20905b81548152906001019060200180831161242c57829003601f168201915b5050505050815250508152602001600582016040518060a00160405290815f82015f9054906101000a900460ff1660ff1660ff168152602001600182018054612491906140f1565b80601f01602080910402602001604051908101604052809291908181526020018280546124bd906140f1565b80156125085780601f106124df57610100808354040283529160200191612508565b820191905f5260205f20905b8154815290600101906020018083116124eb57829003601f168201915b50505050508152602001600282018054612521906140f1565b80601f016020809104026020016040519081016040528092919081815260200182805461254d906140f1565b80156125985780601f1061256f57610100808354040283529160200191612598565b820191905f5260205f20905b81548152906001019060200180831161257b57829003601f168201915b505050505081526020016003820180546125b1906140f1565b80601f01602080910402602001604051908101604052809291908181526020018280546125dd906140f1565b80156126285780601f106125ff57610100808354040283529160200191612628565b820191905f5260205f20905b81548152906001019060200180831161260b57829003601f168201915b50505050508152602001600482018054612641906140f1565b80601f016020809104026020016040519081016040528092919081815260200182805461266d906140f1565b80156126b85780601f1061268f576101008083540402835291602001916126b8565b820191905f5260205f20905b81548152906001019060200180831161269b57829003601f168201915b5050505050815250508152602001600a82016040518060a00160405290815f82015f9054906101000a900460ff1660ff1660ff168152602001600182018054612700906140f1565b80601f016020809104026020016040519081016040528092919081815260200182805461272c906140f1565b80156127775780601f1061274e57610100808354040283529160200191612777565b820191905f5260205f20905b81548152906001019060200180831161275a57829003601f168201915b50505050508152602001600282018054612790906140f1565b80601f01602080910402602001604051908101604052809291908181526020018280546127bc906140f1565b80156128075780601f106127de57610100808354040283529160200191612807565b820191905f5260205f20905b8154815290600101906020018083116127ea57829003601f168201915b50505050508152602001600382018054612820906140f1565b80601f016020809104026020016040519081016040528092919081815260200182805461284c906140f1565b80156128975780601f1061286e57610100808354040283529160200191612897565b820191905f5260205f20905b81548152906001019060200180831161287a57829003601f168201915b505050505081526020016004820180546128b0906140f1565b80601f01602080910402602001604051908101604052809291908181526020018280546128dc906140f1565b80156129275780601f106128fe57610100808354040283529160200191612927565b820191905f5260205f20905b81548152906001019060200180831161290a57829003601f168201915b50505050508152505081525050915080604051806102200160405290815f82015f9054906101000a900460ff161515151581526020015f820160019054906101000a900460ff1660ff1660ff1681526020015f820160029054906101000a900460ff1660ff1660ff1681526020015f820160039054906101000a900460ff1660ff1660ff1681526020016001820180546129c0906140f1565b80601f01602080910402602001604051908101604052809291908181526020018280546129ec906140f1565b8015612a375780601f10612a0e57610100808354040283529160200191612a37565b820191905f5260205f20905b815481529060010190602001808311612a1a57829003601f168201915b50505050508152602001600282015f9054906101000a900460ff1660ff1660ff168152602001600382018054612a6c906140f1565b80601f0160208091040260200160405190810160405280929190818152602001828054612a98906140f1565b8015612ae35780601f10612aba57610100808354040283529160200191612ae3565b820191905f5260205f20905b815481529060010190602001808311612ac657829003601f168201915b50505050508152602001600482018054612afc906140f1565b80601f0160208091040260200160405190810160405280929190818152602001828054612b28906140f1565b8015612b735780601f10612b4a57610100808354040283529160200191612b73565b820191905f5260205f20905b815481529060010190602001808311612b5657829003601f168201915b50505050508152602001600582018054612b8c906140f1565b80601f0160208091040260200160405190810160405280929190818152602001828054612bb8906140f1565b8015612c035780601f10612bda57610100808354040283529160200191612c03565b820191905f5260205f20905b815481529060010190602001808311612be657829003601f168201915b50505050508152602001600682018054612c1c906140f1565b80601f0160208091040260200160405190810160405280929190818152602001828054612c48906140f1565b8015612c935780601f10612c6a57610100808354040283529160200191612c93565b820191905f5260205f20905b815481529060010190602001808311612c7657829003601f168201915b50505050508152602001600782018054612cac906140f1565b80601f0160208091040260200160405190810160405280929190818152602001828054612cd8906140f1565b8015612d235780601f10612cfa57610100808354040283529160200191612d23565b820191905f5260205f20905b815481529060010190602001808311612d0657829003601f168201915b50505050508152602001600882018054612d3c906140f1565b80601f0160208091040260200160405190810160405280929190818152602001828054612d68906140f1565b8015612db35780601f10612d8a57610100808354040283529160200191612db3565b820191905f5260205f20905b815481529060010190602001808311612d9657829003601f168201915b50505050508152602001600982015f9054906101000a900460ff1660ff1660ff1681526020016009820160019054906101000a900460ff1660ff1660ff168152602001600a82018054612e05906140f1565b80601f0160208091040260200160405190810160405280929190818152602001828054612e31906140f1565b8015612e7c5780601f10612e5357610100808354040283529160200191612e7c565b820191905f5260205f20905b815481529060010190602001808311612e5f57829003601f168201915b50505050508152602001600b82018054612e95906140f1565b80601f0160208091040260200160405190810160405280929190818152602001828054612ec1906140f1565b8015612f0c5780601f10612ee357610100808354040283529160200191612f0c565b820191905f5260205f20905b815481529060010190602001808311612eef57829003601f168201915b50505050508152602001600c8201805480602002602001604051908101604052809291908181526020015f905b828210156131c4578382905f5260205f2090600502016040518060a00160405290815f82018054612f69906140f1565b80601f0160208091040260200160405190810160405280929190818152602001828054612f95906140f1565b8015612fe05780601f10612fb757610100808354040283529160200191612fe0565b820191905f5260205f20905b815481529060010190602001808311612fc357829003601f168201915b50505050508152602001600182015f9054906101000a900460ff1660ff1660ff168152602001600282018054613015906140f1565b80601f0160208091040260200160405190810160405280929190818152602001828054613041906140f1565b801561308c5780601f106130635761010080835404028352916020019161308c565b820191905f5260205f20905b81548152906001019060200180831161306f57829003601f168201915b505050505081526020016003820180546130a5906140f1565b80601f01602080910402602001604051908101604052809291908181526020018280546130d1906140f1565b801561311c5780601f106130f35761010080835404028352916020019161311c565b820191905f5260205f20905b8154815290600101906020018083116130ff57829003601f168201915b50505050508152602001600482018054613135906140f1565b80601f0160208091040260200160405190810160405280929190818152602001828054613161906140f1565b80156131ac5780601f10613183576101008083540402835291602001916131ac565b820191905f5260205f20905b81548152906001019060200180831161318f57829003601f168201915b50505050508152505081526020019060010190612f39565b50505050815250509050925092509250909192565b6131e1613464565b5f73ffffffffffffffffffffffffffffffffffffffff168173ffffffffffffffffffffffffffffffffffffffff1603613251575f6040517f1e4fbdf70000000000000000000000000000000000000000000000000000000081526004016132489190613dd6565b60405180910390fd5b61325a816134eb565b50565b613265613464565b6040518060a00160405280825f01602081019061328291906141b9565b60ff16815260200182806020019061329a919061412d565b8080601f0160208091040260200160405190810160405280939291908181526020018383808284375f81840152601f19601f8201169050808301925050505050505081526020018280604001906132f1919061412d565b8080601f0160208091040260200160405190810160405280939291908181526020018383808284375f81840152601f19601f820116905080830192505050505050508152602001828060600190613348919061412d565b8080601f0160208091040260200160405190810160405280939291908181526020018383808284375f81840152601f19601f82011690508083019250505050505050815260200182806080019061339f919061412d565b8080601f0160208091040260200160405190810160405280939291908181526020018383808284375f81840152601f19601f8201169050808301925050505050505081525060055f015f820151815f015f6101000a81548160ff021916908360ff160217905550602082015181600101908161341b91906143b7565b50604082015181600201908161343191906143b7565b50606082015181600301908161344791906143b7565b50608082015181600401908161345d91906143b7565b5090505050565b61346c6135ac565b73ffffffffffffffffffffffffffffffffffffffff1661348a611481565b73ffffffffffffffffffffffffffffffffffffffff16146134e9576134ad6135ac565b6040517f118cdaa70000000000000000000000000000000000000000000000000000000081526004016134e09190613dd6565b60405180910390fd5b565b5f805f9054906101000a900473ffffffffffffffffffffffffffffffffffffffff169050815f806101000a81548173ffffffffffffffffffffffffffffffffffffffff021916908373ffffffffffffffffffffffffffffffffffffffff1602179055508173ffffffffffffffffffffffffffffffffffffffff168173ffffffffffffffffffffffffffffffffffffffff167f8be0079c531659141344cd1fd0a4f28419497f9722a3daafe3b4186f6b6457e060405160405180910390a35050565b5f33905090565b60405180606001604052806135c66136cb565b81526020016135d36136fc565b81526020016135e06136fc565b81525090565b6040518061022001604052805f151581526020015f60ff1681526020015f60ff1681526020015f60ff168152602001606081526020015f60ff1681526020016060815260200160608152602001606081526020016060815260200160608152602001606081526020015f60ff1681526020015f60ff1681526020016060815260200160608152602001606081525090565b6040518060a0016040528060608152602001606081526020015f60ff1681526020015f60ff168152602001606081525090565b5080545f8255600502905f5260205f20908101906136c8919061372d565b50565b6040518060a001604052805f60ff168152602001606081526020016060815260200160608152602001606081525090565b6040518060a001604052805f60ff168152602001606081526020016060815260200160608152602001606081525090565b5b8082111561378e575f8082015f6137459190613792565b600182015f6101000a81549060ff0219169055600282015f6137679190613792565b600382015f6137769190613792565b600482015f6137859190613792565b5060050161372e565b5090565b50805461379e906140f1565b5f825580601f106137af57506137cc565b601f0160209004905f5260205f20908101906137cb91906137cf565b5b50565b5b808211156137e6575f815f9055506001016137d0565b5090565b5f60ff82169050919050565b6137ff816137ea565b82525050565b5f81519050919050565b5f82825260208201905092915050565b8281835e5f83830152505050565b5f601f19601f8301169050919050565b5f61384782613805565b613851818561380f565b935061386181856020860161381f565b61386a8161382d565b840191505092915050565b5f60a083015f83015161388a5f8601826137f6565b50602083015184820360208601526138a2828261383d565b915050604083015184820360408601526138bc828261383d565b915050606083015184820360608601526138d6828261383d565b915050608083015184820360808601526138f0828261383d565b9150508091505092915050565b5f60a083015f8301516139125f8601826137f6565b506020830151848203602086015261392a828261383d565b91505060408301518482036040860152613944828261383d565b9150506060830151848203606086015261395e828261383d565b91505060808301518482036080860152613978828261383d565b9150508091505092915050565b5f606083015f8301518482035f86015261399f8282613875565b915050602083015184820360208601526139b982826138fd565b915050604083015184820360408601526139d382826138fd565b9150508091505092915050565b5f6020820190508181035f8301526139f88184613985565b905092915050565b5f80fd5b5f80fd5b5f80fd5b5f60a08284031215613a2157613a20613a08565b5b81905092915050565b5f60208284031215613a3f57613a3e613a00565b5b5f82013567ffffffffffffffff811115613a5c57613a5b613a04565b5b613a6884828501613a0c565b91505092915050565b5f8115159050919050565b613a8581613a71565b82525050565b5f81519050919050565b5f82825260208201905092915050565b5f819050602082019050919050565b5f60a083015f8301518482035f860152613ace828261383d565b9150506020830151613ae360208601826137f6565b5060408301518482036040860152613afb828261383d565b91505060608301518482036060860152613b15828261383d565b91505060808301518482036080860152613b2f828261383d565b9150508091505092915050565b5f613b478383613ab4565b905092915050565b5f602082019050919050565b5f613b6582613a8b565b613b6f8185613a95565b935083602082028501613b8185613aa5565b805f5b85811015613bbc5784840389528151613b9d8582613b3c565b9450613ba883613b4f565b925060208a01995050600181019050613b84565b50829750879550505050505092915050565b5f61022083015f830151613be45f860182613a7c565b506020830151613bf760208601826137f6565b506040830151613c0a60408601826137f6565b506060830151613c1d60608601826137f6565b5060808301518482036080860152613c35828261383d565b91505060a0830151613c4a60a08601826137f6565b5060c083015184820360c0860152613c62828261383d565b91505060e083015184820360e0860152613c7c828261383d565b915050610100830151848203610100860152613c98828261383d565b915050610120830151848203610120860152613cb4828261383d565b915050610140830151848203610140860152613cd0828261383d565b915050610160830151848203610160860152613cec828261383d565b915050610180830151613d036101808601826137f6565b506101a0830151613d186101a08601826137f6565b506101c08301518482036101c0860152613d32828261383d565b9150506101e08301518482036101e0860152613d4e828261383d565b915050610200830151848203610200860152613d6a8282613b5b565b9150508091505092915050565b5f6020820190508181035f830152613d8f8184613bce565b905092915050565b5f73ffffffffffffffffffffffffffffffffffffffff82169050919050565b5f613dc082613d97565b9050919050565b613dd081613db6565b82525050565b5f602082019050613de95f830184613dc7565b92915050565b5f60a083015f8301518482035f860152613e09828261383d565b91505060208301518482036020860152613e23828261383d565b9150506040830151613e3860408601826137f6565b506060830151613e4b60608601826137f6565b5060808301518482036080860152613e63828261383d565b9150508091505092915050565b5f6020820190508181035f830152613e888184613def565b905092915050565b5f60a08284031215613ea557613ea4613a08565b5b81905092915050565b5f60208284031215613ec357613ec2613a00565b5b5f82013567ffffffffffffffff811115613ee057613edf613a04565b5b613eec84828501613e90565b91505092915050565b5f6102208284031215613f0b57613f0a613a08565b5b81905092915050565b5f60208284031215613f2957613f28613a00565b5b5f82013567ffffffffffffffff811115613f4657613f45613a04565b5b613f5284828501613ef5565b91505092915050565b5f60a08284031215613f7057613f6f613a08565b5b81905092915050565b5f60208284031215613f8e57613f8d613a00565b5b5f82013567ffffffffffffffff811115613fab57613faa613a04565b5b613fb784828501613f5b565b91505092915050565b5f6060820190508181035f830152613fd88186613def565b90508181036020830152613fec8185613985565b905081810360408301526140008184613bce565b9050949350505050565b61401381613db6565b811461401d575f80fd5b50565b5f8135905061402e8161400a565b92915050565b5f6020828403121561404957614048613a00565b5b5f61405684828501614020565b91505092915050565b5f60a0828403121561407457614073613a08565b5b81905092915050565b5f6020828403121561409257614091613a00565b5b5f82013567ffffffffffffffff8111156140af576140ae613a04565b5b6140bb8482850161405f565b91505092915050565b7f4e487b71000000000000000000000000000000000000000000000000000000005f52602260045260245ffd5b5f600282049050600182168061410857607f821691505b60208210810361411b5761411a6140c4565b5b50919050565b5f80fd5b5f80fd5b5f80fd5b5f808335600160200384360303811261414957614148614121565b5b80840192508235915067ffffffffffffffff82111561416b5761416a614125565b5b60208301925060018202360383131561418757614186614129565b5b509250929050565b614198816137ea565b81146141a2575f80fd5b50565b5f813590506141b38161418f565b92915050565b5f602082840312156141ce576141cd613a00565b5b5f6141db848285016141a5565b91505092915050565b7f4e487b71000000000000000000000000000000000000000000000000000000005f52604160045260245ffd5b5f819050815f5260205f209050919050565b5f6020601f8301049050919050565b5f82821b905092915050565b5f6008830261426d7fffffffffffffffffffffffffffffffffffffffffffffffffffffffffffffffff82614232565b6142778683614232565b95508019841693508086168417925050509392505050565b5f819050919050565b5f819050919050565b5f6142bb6142b66142b18461428f565b614298565b61428f565b9050919050565b5f819050919050565b6142d4836142a1565b6142e86142e0826142c2565b84845461423e565b825550505050565b5f90565b6142fc6142f0565b6143078184846142cb565b505050565b5b8181101561432a5761431f5f826142f4565b60018101905061430d565b5050565b601f82111561436f5761434081614211565b61434984614223565b81016020851015614358578190505b61436c61436485614223565b83018261430c565b50505b505050565b5f82821c905092915050565b5f61438f5f1984600802614374565b1980831691505092915050565b5f6143a78383614380565b9150826002028217905092915050565b6143c082613805565b67ffffffffffffffff8111156143d9576143d86141e4565b5b6143e382546140f1565b6143ee82828561432e565b5f60209050601f83116001811461441f575f841561440d578287015190505b614417858261439c565b86555061447e565b601f19841661442d86614211565b5f5b828110156144545784890151825560018201915060208501945060208101905061442f565b86831015614471578489015161446d601f891682614380565b8355505b6001600288020188555050505b505050505050565b61448f81613a71565b8114614499575f80fd5b50565b5f813590506144aa81614486565b92915050565b5f602082840312156144c5576144c4613a00565b5b5f6144d28482850161449c565b91505092915050565b5f82905092915050565b6144ef83836144db565b67ffffffffffffffff811115614508576145076141e4565b5b61451282546140f1565b61451d82828561432e565b5f601f83116001811461454a575f8415614538578287013590505b614542858261439c565b8655506145a9565b601f19841661455886614211565b5f5b8281101561457f5784890135825560018201915060208501945060208101905061455a565b8683101561459c5784890135614598601f891682614380565b8355505b6001600288020188555050505b50505050505050565b5f80833560016020038436030381126145ce576145cd614121565b5b80840192508235915067ffffffffffffffff8211156145f0576145ef614125565b5b60208301925060208202360383131561460c5761460b614129565b5b509250929050565b7f4e487b71000000000000000000000000000000000000000000000000000000005f52603260045260245ffd5b5f8235600160a00383360303811261465c5761465b614121565b5b80830191505092915050565b6146738383836144e5565b505050565b5f81356146848161418f565b80915050919050565b5f815f1b9050919050565b5f60ff6146a48461468d565b9350801983169250808416831791505092915050565b5f6146d46146cf6146ca846137ea565b614298565b6137ea565b9050919050565b5f819050919050565b6146ed826146ba565b6147006146f9826146db565b8354614698565b8255505050565b5f81015f8301614717818561412d565b614722818386614668565b5050505060018101602083018061473881614678565b905061474481846146e4565b5050506002810160408301614759818561412d565b614764818386614668565b50505050600381016060830161477a818561412d565b614785818386614668565b50505050600481016080830161479b818561412d565b6147a6818386614668565b505050505050565b6147b88282614707565b505056fea264697066735822122085cfea66830b3fad821a496e7c2edd7f1a032fd887b7241f8bb1cac5470586e164736f6c63430008190033",
  "immutableReferences": {},
  "source": "// SPDX-License-Identifier: MIT\npragma solidity ^0.8.0;\n\nimport \"@openzeppelin/contracts/access/Ownable.sol\";\nimport \"../structs/RealEstateStructs.sol\";\n\ncontract RealEstateInfo is Ownable {\n\n    RealEstateStructs.RealEstateBasicInfo basicInfo;\n    RealEstateStructs.RealEstateRegistryCertificate registryCertificate;\n    RealEstateStructs.BuildingManagementRecord buildingManagementRecord;\n\n    constructor(address _owner) Ownable(_owner) {}\n\n    function setRealEstateBasicInfo(RealEstateStructs.RealEstateBasicInfo calldata _basicInfo) external onlyOwner {\n        basicInfo = RealEstateStructs.RealEstateBasicInfo({\n            roadNameAddress: _basicInfo.roadNameAddress,\n            buildingName: _basicInfo.buildingName,\n            buildingNumber: _basicInfo.buildingNumber,\n            roomNumber: _basicInfo.roomNumber,\n            genDate: _basicInfo.genDate\n        });\n    }\n\n    function setHeadLine(RealEstateStructs.HeadLine calldata _headline) external onlyOwner {\n        registryCertificate.headline = RealEstateStructs.HeadLine({\n            num: _headline.num,\n            registration: _headline.registration,\n            location: _headline.location,\n            buildingInfo: _headline.buildingInfo,\n            reasonAndEtc: _headline.reasonAndEtc\n        });\n    }\n\n    function setRightsSection(RealEstateStructs.Section calldata _rightsSection) external onlyOwner {\n        registryCertificate.rightsSection = RealEstateStructs.Section({\n            rank: _rightsSection.rank,\n            purpose: _rightsSection.purpose,\n            registration: _rightsSection.registration,\n            reason: _rightsSection.reason,\n            holderAndEtc: _rightsSection.holderAndEtc\n        });\n    }\n\n    function setEncumbrancesSection(RealEstateStructs.Section calldata _encumbrancesSection) external onlyOwner {\n        registryCertificate.rightsSection = RealEstateStructs.Section({\n            rank: _encumbrancesSection.rank,\n            purpose: _encumbrancesSection.purpose,\n            registration: _encumbrancesSection.registration,\n            reason: _encumbrancesSection.reason,\n            holderAndEtc: _encumbrancesSection.holderAndEtc\n        });\n    }\n\n    function setBuildingManagementRecord(RealEstateStructs.BuildingManagementRecord calldata _buildingManagementRecord) external onlyOwner {\n        buildingManagementRecord.isViolated = _buildingManagementRecord.isViolated;\n        buildingManagementRecord.units = _buildingManagementRecord.units;\n        buildingManagementRecord.households = _buildingManagementRecord.households;\n        buildingManagementRecord.dwellingUnits = _buildingManagementRecord.dwellingUnits;\n        buildingManagementRecord.landLocation = _buildingManagementRecord.landLocation;\n        buildingManagementRecord.landNumber = _buildingManagementRecord.landNumber;\n        buildingManagementRecord.landArea = _buildingManagementRecord.landArea;\n        buildingManagementRecord.totalFloorArea = _buildingManagementRecord.totalFloorArea;\n        buildingManagementRecord.region = _buildingManagementRecord.region;\n        buildingManagementRecord.buildingArea = _buildingManagementRecord.buildingArea;\n        buildingManagementRecord.mainStructure = _buildingManagementRecord.mainStructure;\n        buildingManagementRecord.mainUsage = _buildingManagementRecord.mainUsage;\n        buildingManagementRecord.basementFloorCount = _buildingManagementRecord.basementFloorCount;\n        buildingManagementRecord.aboveGroundFloorCount = _buildingManagementRecord.aboveGroundFloorCount;\n        buildingManagementRecord.height = _buildingManagementRecord.height;\n        buildingManagementRecord.floor = _buildingManagementRecord.floor;\n\n        // Clear the existing statuses array\n        delete buildingManagementRecord.statuses;\n        \n        // Copy each status from calldata to storage\n        for (uint i = 0; i < _buildingManagementRecord.statuses.length; i++) {\n            buildingManagementRecord.statuses.push(_buildingManagementRecord.statuses[i]);\n        }\n    }\n\n\n    function addStatus(RealEstateStructs.StructureStatus calldata _status) external onlyOwner {\n        buildingManagementRecord.statuses.push(RealEstateStructs.StructureStatus({\n            category: _status.category,\n            floorNumber: _status.floorNumber,\n            structure: _status.structure,\n            usage: _status.usage,\n            area: _status.area\n        }));\n    }\n\n    function getRealEstateFullInfo() external view returns (\n        RealEstateStructs.RealEstateBasicInfo memory, \n        RealEstateStructs.RealEstateRegistryCertificate memory, \n        RealEstateStructs.BuildingManagementRecord memory) {\n        return (basicInfo, registryCertificate, buildingManagementRecord);\n    }\n\n    function getBasicInfo() external view returns (RealEstateStructs.RealEstateBasicInfo memory) {\n        return basicInfo;\n    }\n\n    function getRegistryCertificate() external view returns (RealEstateStructs.RealEstateRegistryCertificate memory) {\n        return registryCertificate;\n    }\n\n    function getBuildingManagementRecord() external view returns (RealEstateStructs.BuildingManagementRecord memory) {\n        return buildingManagementRecord;\n    }\n\n}",
  "sourcePath": "/Users/sejin/Desktop/Development/C203/S10P31C203/blockchain/did-real-estate/contracts/real-estate/RealEstateInfo.sol",
  "compiler": {
    "name": "solc",
    "version": "0.8.25+commit.b61c2a91.Emscripten.clang"
  },
  "schemaVersion": "3.4.16",
  "updatedAt": "2024-05-05T03:06:30.416Z",
  "devdoc": {
    "errors": {
      "OwnableInvalidOwner(address)": [
        {
          "details": "The owner is not a valid owner account. (eg. `address(0)`)"
        }
      ],
      "OwnableUnauthorizedAccount(address)": [
        {
          "details": "The caller account is not authorized to perform an operation."
        }
      ]
    },
    "kind": "dev",
    "methods": {
      "owner()": {
        "details": "Returns the address of the current owner."
      },
      "renounceOwnership()": {
        "details": "Leaves the contract without owner. It will not be possible to call `onlyOwner` functions. Can only be called by the current owner. NOTE: Renouncing ownership will leave the contract without an owner, thereby disabling any functionality that is only available to the owner."
      },
      "transferOwnership(address)": {
        "details": "Transfers ownership of the contract to a new account (`newOwner`). Can only be called by the current owner."
      }
    },
    "version": 1
  },
  "userdoc": {
    "kind": "user",
    "methods": {},
    "version": 1
  }
}