{
  "contractName": "RealEstateInfo",
  "abi": [
    {
      "inputs": [
        {
          "internalType": "address",
          "name": "_owner",
          "type": "address"
        }
      ],
      "stateMutability": "nonpayable",
      "type": "constructor"
    },
    {
      "inputs": [
        {
          "internalType": "address",
          "name": "owner",
          "type": "address"
        }
      ],
      "name": "OwnableInvalidOwner",
      "type": "error"
    },
    {
      "inputs": [
        {
          "internalType": "address",
          "name": "account",
          "type": "address"
        }
      ],
      "name": "OwnableUnauthorizedAccount",
      "type": "error"
    },
    {
      "anonymous": false,
      "inputs": [
        {
          "indexed": true,
          "internalType": "address",
          "name": "previousOwner",
          "type": "address"
        },
        {
          "indexed": true,
          "internalType": "address",
          "name": "newOwner",
          "type": "address"
        }
      ],
      "name": "OwnershipTransferred",
      "type": "event"
    },
    {
      "inputs": [],
      "name": "owner",
      "outputs": [
        {
          "internalType": "address",
          "name": "",
          "type": "address"
        }
      ],
      "stateMutability": "view",
      "type": "function"
    },
    {
      "inputs": [],
      "name": "renounceOwnership",
      "outputs": [],
      "stateMutability": "nonpayable",
      "type": "function"
    },
    {
      "inputs": [
        {
          "internalType": "address",
          "name": "newOwner",
          "type": "address"
        }
      ],
      "name": "transferOwnership",
      "outputs": [],
      "stateMutability": "nonpayable",
      "type": "function"
    },
    {
      "inputs": [
        {
          "components": [
            {
              "internalType": "string",
              "name": "roadNameAddress",
              "type": "string"
            },
            {
              "internalType": "string",
              "name": "buildingName",
              "type": "string"
            },
            {
              "internalType": "uint16",
              "name": "buildingNumber",
              "type": "uint16"
            },
            {
              "internalType": "uint16",
              "name": "roomNumber",
              "type": "uint16"
            },
            {
              "internalType": "string",
              "name": "genDate",
              "type": "string"
            },
            {
              "internalType": "bool",
              "name": "isViolated",
              "type": "bool"
            },
            {
              "internalType": "bool",
              "name": "isNotPermitted",
              "type": "bool"
            },
            {
              "internalType": "string",
              "name": "mainUsage",
              "type": "string"
            }
          ],
          "internalType": "struct RealEstateInfo.RealEstate",
          "name": "_realEstate",
          "type": "tuple"
        }
      ],
      "name": "setRealEstateInfo",
      "outputs": [],
      "stateMutability": "nonpayable",
      "type": "function"
    },
    {
      "inputs": [],
      "name": "getBasicInfo",
      "outputs": [
        {
          "components": [
            {
              "internalType": "string",
              "name": "roadNameAddress",
              "type": "string"
            },
            {
              "internalType": "string",
              "name": "buildingName",
              "type": "string"
            },
            {
              "internalType": "uint16",
              "name": "buildingNumber",
              "type": "uint16"
            },
            {
              "internalType": "uint16",
              "name": "roomNumber",
              "type": "uint16"
            },
            {
              "internalType": "string",
              "name": "genDate",
              "type": "string"
            },
            {
              "internalType": "bool",
              "name": "isViolated",
              "type": "bool"
            },
            {
              "internalType": "bool",
              "name": "isNotPermitted",
              "type": "bool"
            },
            {
              "internalType": "string",
              "name": "mainUsage",
              "type": "string"
            }
          ],
          "internalType": "struct RealEstateInfo.RealEstate",
          "name": "",
          "type": "tuple"
        }
      ],
      "stateMutability": "view",
      "type": "function"
    }
  ],
  "bytecode": "0x608060405234801561000f575f80fd5b506040516111e53803806111e5833981810160405281019061003191906101d7565b805f73ffffffffffffffffffffffffffffffffffffffff168173ffffffffffffffffffffffffffffffffffffffff16036100a2575f6040517f1e4fbdf70000000000000000000000000000000000000000000000000000000081526004016100999190610211565b60405180910390fd5b6100b1816100b860201b60201c565b505061022a565b5f805f9054906101000a900473ffffffffffffffffffffffffffffffffffffffff169050815f806101000a81548173ffffffffffffffffffffffffffffffffffffffff021916908373ffffffffffffffffffffffffffffffffffffffff1602179055508173ffffffffffffffffffffffffffffffffffffffff168173ffffffffffffffffffffffffffffffffffffffff167f8be0079c531659141344cd1fd0a4f28419497f9722a3daafe3b4186f6b6457e060405160405180910390a35050565b5f80fd5b5f73ffffffffffffffffffffffffffffffffffffffff82169050919050565b5f6101a68261017d565b9050919050565b6101b68161019c565b81146101c0575f80fd5b50565b5f815190506101d1816101ad565b92915050565b5f602082840312156101ec576101eb610179565b5b5f6101f9848285016101c3565b91505092915050565b61020b8161019c565b82525050565b5f6020820190506102245f830184610202565b92915050565b610fae806102375f395ff3fe608060405234801561000f575f80fd5b5060043610610055575f3560e01c8063715018a6146100595780638da5cb5b1461006357806393e9567a146100815780639f999da31461009d578063f2fde38b146100bb575b5f80fd5b6100616100d7565b005b61006b6100ea565b60405161007891906108f9565b60405180910390f35b61009b6004803603810190610096919061093d565b610111565b005b6100a56103cc565b6040516100b29190610aec565b60405180910390f35b6100d560048036038101906100d09190610b36565b61069a565b005b6100df61071e565b6100e85f6107a5565b565b5f805f9054906101000a900473ffffffffffffffffffffffffffffffffffffffff16905090565b61011961071e565b60405180610100016040528082805f01906101349190610b6d565b8080601f0160208091040260200160405190810160405280939291908181526020018383808284375f81840152601f19601f82011690508083019250505050505050815260200182806020019061018b9190610b6d565b8080601f0160208091040260200160405190810160405280939291908181526020018383808284375f81840152601f19601f8201169050808301925050505050505081526020018260400160208101906101e59190610bf9565b61ffff1681526020018260600160208101906102019190610bf9565b61ffff16815260200182806080019061021a9190610b6d565b8080601f0160208091040260200160405190810160405280939291908181526020018383808284375f81840152601f19601f8201169050808301925050505050505081526020018260a00160208101906102749190610c4e565b151581526020018260c001602081019061028e9190610c4e565b15158152602001828060e001906102a59190610b6d565b8080601f0160208091040260200160405190810160405280939291908181526020018383808284375f81840152601f19601f8201169050808301925050505050505081525060015f820151815f0190816102ff9190610ea9565b5060208201518160010190816103159190610ea9565b506040820151816002015f6101000a81548161ffff021916908361ffff16021790555060608201518160020160026101000a81548161ffff021916908361ffff16021790555060808201518160030190816103709190610ea9565b5060a0820151816004015f6101000a81548160ff02191690831515021790555060c08201518160040160016101000a81548160ff02191690831515021790555060e08201518160050190816103c59190610ea9565b5090505050565b6103d461086d565b6001604051806101000160405290815f820180546103f190610cd3565b80601f016020809104026020016040519081016040528092919081815260200182805461041d90610cd3565b80156104685780601f1061043f57610100808354040283529160200191610468565b820191905f5260205f20905b81548152906001019060200180831161044b57829003601f168201915b5050505050815260200160018201805461048190610cd3565b80601f01602080910402602001604051908101604052809291908181526020018280546104ad90610cd3565b80156104f85780601f106104cf576101008083540402835291602001916104f8565b820191905f5260205f20905b8154815290600101906020018083116104db57829003601f168201915b50505050508152602001600282015f9054906101000a900461ffff1661ffff1661ffff1681526020016002820160029054906101000a900461ffff1661ffff1661ffff16815260200160038201805461055090610cd3565b80601f016020809104026020016040519081016040528092919081815260200182805461057c90610cd3565b80156105c75780601f1061059e576101008083540402835291602001916105c7565b820191905f5260205f20905b8154815290600101906020018083116105aa57829003601f168201915b50505050508152602001600482015f9054906101000a900460ff161515151581526020016004820160019054906101000a900460ff1615151515815260200160058201805461061590610cd3565b80601f016020809104026020016040519081016040528092919081815260200182805461064190610cd3565b801561068c5780601f106106635761010080835404028352916020019161068c565b820191905f5260205f20905b81548152906001019060200180831161066f57829003601f168201915b505050505081525050905090565b6106a261071e565b5f73ffffffffffffffffffffffffffffffffffffffff168173ffffffffffffffffffffffffffffffffffffffff1603610712575f6040517f1e4fbdf700000000000000000000000000000000000000000000000000000000815260040161070991906108f9565b60405180910390fd5b61071b816107a5565b50565b610726610866565b73ffffffffffffffffffffffffffffffffffffffff166107446100ea565b73ffffffffffffffffffffffffffffffffffffffff16146107a357610767610866565b6040517f118cdaa700000000000000000000000000000000000000000000000000000000815260040161079a91906108f9565b60405180910390fd5b565b5f805f9054906101000a900473ffffffffffffffffffffffffffffffffffffffff169050815f806101000a81548173ffffffffffffffffffffffffffffffffffffffff021916908373ffffffffffffffffffffffffffffffffffffffff1602179055508173ffffffffffffffffffffffffffffffffffffffff168173ffffffffffffffffffffffffffffffffffffffff167f8be0079c531659141344cd1fd0a4f28419497f9722a3daafe3b4186f6b6457e060405160405180910390a35050565b5f33905090565b60405180610100016040528060608152602001606081526020015f61ffff1681526020015f61ffff168152602001606081526020015f151581526020015f15158152602001606081525090565b5f73ffffffffffffffffffffffffffffffffffffffff82169050919050565b5f6108e3826108ba565b9050919050565b6108f3816108d9565b82525050565b5f60208201905061090c5f8301846108ea565b92915050565b5f80fd5b5f80fd5b5f80fd5b5f61010082840312156109345761093361091a565b5b81905092915050565b5f6020828403121561095257610951610912565b5b5f82013567ffffffffffffffff81111561096f5761096e610916565b5b61097b8482850161091e565b91505092915050565b5f81519050919050565b5f82825260208201905092915050565b8281835e5f83830152505050565b5f601f19601f8301169050919050565b5f6109c682610984565b6109d0818561098e565b93506109e081856020860161099e565b6109e9816109ac565b840191505092915050565b5f61ffff82169050919050565b610a0a816109f4565b82525050565b5f8115159050919050565b610a2481610a10565b82525050565b5f61010083015f8301518482035f860152610a4582826109bc565b91505060208301518482036020860152610a5f82826109bc565b9150506040830151610a746040860182610a01565b506060830151610a876060860182610a01565b5060808301518482036080860152610a9f82826109bc565b91505060a0830151610ab460a0860182610a1b565b5060c0830151610ac760c0860182610a1b565b5060e083015184820360e0860152610adf82826109bc565b9150508091505092915050565b5f6020820190508181035f830152610b048184610a2a565b905092915050565b610b15816108d9565b8114610b1f575f80fd5b50565b5f81359050610b3081610b0c565b92915050565b5f60208284031215610b4b57610b4a610912565b5b5f610b5884828501610b22565b91505092915050565b5f80fd5b5f80fd5b5f80fd5b5f8083356001602003843603038112610b8957610b88610b61565b5b80840192508235915067ffffffffffffffff821115610bab57610baa610b65565b5b602083019250600182023603831315610bc757610bc6610b69565b5b509250929050565b610bd8816109f4565b8114610be2575f80fd5b50565b5f81359050610bf381610bcf565b92915050565b5f60208284031215610c0e57610c0d610912565b5b5f610c1b84828501610be5565b91505092915050565b610c2d81610a10565b8114610c37575f80fd5b50565b5f81359050610c4881610c24565b92915050565b5f60208284031215610c6357610c62610912565b5b5f610c7084828501610c3a565b91505092915050565b7f4e487b71000000000000000000000000000000000000000000000000000000005f52604160045260245ffd5b7f4e487b71000000000000000000000000000000000000000000000000000000005f52602260045260245ffd5b5f6002820490506001821680610cea57607f821691505b602082108103610cfd57610cfc610ca6565b5b50919050565b5f819050815f5260205f209050919050565b5f6020601f8301049050919050565b5f82821b905092915050565b5f60088302610d5f7fffffffffffffffffffffffffffffffffffffffffffffffffffffffffffffffff82610d24565b610d698683610d24565b95508019841693508086168417925050509392505050565b5f819050919050565b5f819050919050565b5f610dad610da8610da384610d81565b610d8a565b610d81565b9050919050565b5f819050919050565b610dc683610d93565b610dda610dd282610db4565b848454610d30565b825550505050565b5f90565b610dee610de2565b610df9818484610dbd565b505050565b5b81811015610e1c57610e115f82610de6565b600181019050610dff565b5050565b601f821115610e6157610e3281610d03565b610e3b84610d15565b81016020851015610e4a578190505b610e5e610e5685610d15565b830182610dfe565b50505b505050565b5f82821c905092915050565b5f610e815f1984600802610e66565b1980831691505092915050565b5f610e998383610e72565b9150826002028217905092915050565b610eb282610984565b67ffffffffffffffff811115610ecb57610eca610c79565b5b610ed58254610cd3565b610ee0828285610e20565b5f60209050601f831160018114610f11575f8415610eff578287015190505b610f098582610e8e565b865550610f70565b601f198416610f1f86610d03565b5f5b82811015610f4657848901518255600182019150602085019450602081019050610f21565b86831015610f635784890151610f5f601f891682610e72565b8355505b6001600288020188555050505b50505050505056fea26469706673582212207e3ccd7f14ea5aca4af999cbe4c7d1f343372f113aefbde07ec822785f2ba54c64736f6c63430008190033",
  "immutableReferences": {},
  "source": "// SPDX-License-Identifier: MIT\r\npragma solidity ^0.8.0;\r\n\r\nimport \"@openzeppelin/contracts/access/Ownable.sol\";\r\n\r\ncontract RealEstateInfo is Ownable {\r\n\r\n    struct RealEstate {\r\n        string roadNameAddress; // \r\n        string buildingName; // \r\n        uint16 buildingNumber; //   ( )\r\n        uint16 roomNumber; //  \r\n        string genDate; //  \r\n        bool isViolated; //  \r\n        bool isNotPermitted; //  \r\n        string mainUsage; // \r\n    }\r\n\r\n    RealEstate realEstate;\r\n\r\n    constructor(address _owner) Ownable(_owner) {}\r\n\r\n    function setRealEstateInfo(RealEstate calldata _realEstate) external onlyOwner {\r\n        realEstate = RealEstate({\r\n            roadNameAddress: _realEstate.roadNameAddress,\r\n            buildingName: _realEstate.buildingName,\r\n            buildingNumber: _realEstate.buildingNumber,\r\n            roomNumber: _realEstate.roomNumber,\r\n            genDate: _realEstate.genDate,\r\n            isViolated: _realEstate.isViolated,\r\n            isNotPermitted: _realEstate.isNotPermitted,\r\n            mainUsage: _realEstate.mainUsage\r\n        });\r\n    }\r\n\r\n   \r\n    function getBasicInfo() external view returns (RealEstate memory) {\r\n        return realEstate;\r\n    }\r\n\r\n}",
  "sourcePath": "C:\\SSAFY\\S10P31C203\\blockchain\\did-real-estate\\contracts\\real-estate\\RealEstateInfo.sol",
  "compiler": {
    "name": "solc",
    "version": "0.8.25+commit.b61c2a91.Emscripten.clang"
  },
  "schemaVersion": "3.4.16",
  "updatedAt": "2024-05-07T08:31:40.980Z",
  "devdoc": {
    "errors": {
      "OwnableInvalidOwner(address)": [
        {
          "details": "The owner is not a valid owner account. (eg. `address(0)`)"
        }
      ],
      "OwnableUnauthorizedAccount(address)": [
        {
          "details": "The caller account is not authorized to perform an operation."
        }
      ]
    },
    "kind": "dev",
    "methods": {
      "owner()": {
        "details": "Returns the address of the current owner."
      },
      "renounceOwnership()": {
        "details": "Leaves the contract without owner. It will not be possible to call `onlyOwner` functions. Can only be called by the current owner. NOTE: Renouncing ownership will leave the contract without an owner, thereby disabling any functionality that is only available to the owner."
      },
      "transferOwnership(address)": {
        "details": "Transfers ownership of the contract to a new account (`newOwner`). Can only be called by the current owner."
      }
    },
    "version": 1
  },
  "userdoc": {
    "kind": "user",
    "methods": {},
    "version": 1
  }
}