{
  "contractName": "RealEstateInfo",
  "abi": [
    {
      "inputs": [
        {
          "internalType": "address",
          "name": "_owner",
          "type": "address"
        }
      ],
      "stateMutability": "nonpayable",
      "type": "constructor"
    },
    {
      "inputs": [
        {
          "internalType": "address",
          "name": "owner",
          "type": "address"
        }
      ],
      "name": "OwnableInvalidOwner",
      "type": "error"
    },
    {
      "inputs": [
        {
          "internalType": "address",
          "name": "account",
          "type": "address"
        }
      ],
      "name": "OwnableUnauthorizedAccount",
      "type": "error"
    },
    {
      "anonymous": false,
      "inputs": [
        {
          "indexed": true,
          "internalType": "address",
          "name": "previousOwner",
          "type": "address"
        },
        {
          "indexed": true,
          "internalType": "address",
          "name": "newOwner",
          "type": "address"
        }
      ],
      "name": "OwnershipTransferred",
      "type": "event"
    },
    {
      "inputs": [],
      "name": "owner",
      "outputs": [
        {
          "internalType": "address",
          "name": "",
          "type": "address"
        }
      ],
      "stateMutability": "view",
      "type": "function"
    },
    {
      "inputs": [],
      "name": "renounceOwnership",
      "outputs": [],
      "stateMutability": "nonpayable",
      "type": "function"
    },
    {
      "inputs": [
        {
          "internalType": "address",
          "name": "newOwner",
          "type": "address"
        }
      ],
      "name": "transferOwnership",
      "outputs": [],
      "stateMutability": "nonpayable",
      "type": "function"
    },
    {
      "inputs": [
        {
          "components": [
            {
              "internalType": "string",
              "name": "roadNameAddress",
              "type": "string"
            },
            {
              "internalType": "string",
              "name": "buildingName",
              "type": "string"
            },
            {
              "internalType": "uint16",
              "name": "buildingNumber",
              "type": "uint16"
            },
            {
              "internalType": "uint16",
              "name": "roomNumber",
              "type": "uint16"
            },
            {
              "internalType": "string",
              "name": "genDate",
              "type": "string"
            }
          ],
          "internalType": "struct RealEstateStructs.RealEstateBasicInfo",
          "name": "_basicInfo",
          "type": "tuple"
        }
      ],
      "name": "setRealEstateBasicInfo",
      "outputs": [],
      "stateMutability": "nonpayable",
      "type": "function"
    },
    {
      "inputs": [
        {
          "components": [
            {
              "internalType": "uint32",
              "name": "num",
              "type": "uint32"
            },
            {
              "internalType": "string",
              "name": "registration",
              "type": "string"
            },
            {
              "internalType": "string",
              "name": "location",
              "type": "string"
            },
            {
              "internalType": "string",
              "name": "buildingInfo",
              "type": "string"
            },
            {
              "internalType": "string",
              "name": "reasonAndEtc",
              "type": "string"
            }
          ],
          "internalType": "struct RealEstateStructs.HeadLine",
          "name": "_headline",
          "type": "tuple"
        }
      ],
      "name": "setHeadLine",
      "outputs": [],
      "stateMutability": "nonpayable",
      "type": "function"
    },
    {
      "inputs": [
        {
          "components": [
            {
              "internalType": "uint8",
              "name": "rank",
              "type": "uint8"
            },
            {
              "internalType": "string",
              "name": "purpose",
              "type": "string"
            },
            {
              "internalType": "string",
              "name": "registration",
              "type": "string"
            },
            {
              "internalType": "string",
              "name": "reason",
              "type": "string"
            },
            {
              "internalType": "string",
              "name": "holderAndEtc",
              "type": "string"
            }
          ],
          "internalType": "struct RealEstateStructs.Section",
          "name": "_rightsSection",
          "type": "tuple"
        }
      ],
      "name": "setRightsSection",
      "outputs": [],
      "stateMutability": "nonpayable",
      "type": "function"
    },
    {
      "inputs": [
        {
          "components": [
            {
              "internalType": "uint8",
              "name": "rank",
              "type": "uint8"
            },
            {
              "internalType": "string",
              "name": "purpose",
              "type": "string"
            },
            {
              "internalType": "string",
              "name": "registration",
              "type": "string"
            },
            {
              "internalType": "string",
              "name": "reason",
              "type": "string"
            },
            {
              "internalType": "string",
              "name": "holderAndEtc",
              "type": "string"
            }
          ],
          "internalType": "struct RealEstateStructs.Section",
          "name": "_encumbrancesSection",
          "type": "tuple"
        }
      ],
      "name": "setEncumbrancesSection",
      "outputs": [],
      "stateMutability": "nonpayable",
      "type": "function"
    },
    {
      "inputs": [
        {
          "components": [
            {
              "internalType": "bool",
              "name": "isViolated",
              "type": "bool"
            },
            {
              "internalType": "uint16",
              "name": "units",
              "type": "uint16"
            },
            {
              "internalType": "uint16",
              "name": "households",
              "type": "uint16"
            },
            {
              "internalType": "uint16",
              "name": "dwellingUnits",
              "type": "uint16"
            },
            {
              "internalType": "string",
              "name": "landLocation",
              "type": "string"
            },
            {
              "internalType": "uint16",
              "name": "landNumber",
              "type": "uint16"
            },
            {
              "internalType": "string",
              "name": "landArea",
              "type": "string"
            },
            {
              "internalType": "string",
              "name": "totalFloorArea",
              "type": "string"
            },
            {
              "internalType": "string",
              "name": "region",
              "type": "string"
            },
            {
              "internalType": "string",
              "name": "buildingArea",
              "type": "string"
            },
            {
              "internalType": "string",
              "name": "mainStructure",
              "type": "string"
            },
            {
              "internalType": "string",
              "name": "mainUsage",
              "type": "string"
            },
            {
              "internalType": "uint8",
              "name": "basementFloorCount",
              "type": "uint8"
            },
            {
              "internalType": "uint8",
              "name": "aboveGroundFloorCount",
              "type": "uint8"
            },
            {
              "internalType": "string",
              "name": "height",
              "type": "string"
            },
            {
              "internalType": "string",
              "name": "floor",
              "type": "string"
            },
            {
              "components": [
                {
                  "internalType": "string",
                  "name": "category",
                  "type": "string"
                },
                {
                  "internalType": "uint8",
                  "name": "floorNumber",
                  "type": "uint8"
                },
                {
                  "internalType": "string",
                  "name": "structure",
                  "type": "string"
                },
                {
                  "internalType": "string",
                  "name": "usage",
                  "type": "string"
                },
                {
                  "internalType": "string",
                  "name": "area",
                  "type": "string"
                }
              ],
              "internalType": "struct RealEstateStructs.StructureStatus[]",
              "name": "statuses",
              "type": "tuple[]"
            }
          ],
          "internalType": "struct RealEstateStructs.BuildingManagementRecord",
          "name": "_buildingManagementRecord",
          "type": "tuple"
        }
      ],
      "name": "setBuildingManagementRecord",
      "outputs": [],
      "stateMutability": "nonpayable",
      "type": "function"
    },
    {
      "inputs": [
        {
          "components": [
            {
              "internalType": "string",
              "name": "category",
              "type": "string"
            },
            {
              "internalType": "uint8",
              "name": "floorNumber",
              "type": "uint8"
            },
            {
              "internalType": "string",
              "name": "structure",
              "type": "string"
            },
            {
              "internalType": "string",
              "name": "usage",
              "type": "string"
            },
            {
              "internalType": "string",
              "name": "area",
              "type": "string"
            }
          ],
          "internalType": "struct RealEstateStructs.StructureStatus",
          "name": "_status",
          "type": "tuple"
        }
      ],
      "name": "addStatus",
      "outputs": [],
      "stateMutability": "nonpayable",
      "type": "function"
    },
    {
      "inputs": [],
      "name": "getRealEstateFullInfo",
      "outputs": [
        {
          "components": [
            {
              "internalType": "string",
              "name": "roadNameAddress",
              "type": "string"
            },
            {
              "internalType": "string",
              "name": "buildingName",
              "type": "string"
            },
            {
              "internalType": "uint16",
              "name": "buildingNumber",
              "type": "uint16"
            },
            {
              "internalType": "uint16",
              "name": "roomNumber",
              "type": "uint16"
            },
            {
              "internalType": "string",
              "name": "genDate",
              "type": "string"
            }
          ],
          "internalType": "struct RealEstateStructs.RealEstateBasicInfo",
          "name": "",
          "type": "tuple"
        },
        {
          "components": [
            {
              "components": [
                {
                  "internalType": "uint32",
                  "name": "num",
                  "type": "uint32"
                },
                {
                  "internalType": "string",
                  "name": "registration",
                  "type": "string"
                },
                {
                  "internalType": "string",
                  "name": "location",
                  "type": "string"
                },
                {
                  "internalType": "string",
                  "name": "buildingInfo",
                  "type": "string"
                },
                {
                  "internalType": "string",
                  "name": "reasonAndEtc",
                  "type": "string"
                }
              ],
              "internalType": "struct RealEstateStructs.HeadLine",
              "name": "headline",
              "type": "tuple"
            },
            {
              "components": [
                {
                  "internalType": "uint8",
                  "name": "rank",
                  "type": "uint8"
                },
                {
                  "internalType": "string",
                  "name": "purpose",
                  "type": "string"
                },
                {
                  "internalType": "string",
                  "name": "registration",
                  "type": "string"
                },
                {
                  "internalType": "string",
                  "name": "reason",
                  "type": "string"
                },
                {
                  "internalType": "string",
                  "name": "holderAndEtc",
                  "type": "string"
                }
              ],
              "internalType": "struct RealEstateStructs.Section",
              "name": "rightsSection",
              "type": "tuple"
            },
            {
              "components": [
                {
                  "internalType": "uint8",
                  "name": "rank",
                  "type": "uint8"
                },
                {
                  "internalType": "string",
                  "name": "purpose",
                  "type": "string"
                },
                {
                  "internalType": "string",
                  "name": "registration",
                  "type": "string"
                },
                {
                  "internalType": "string",
                  "name": "reason",
                  "type": "string"
                },
                {
                  "internalType": "string",
                  "name": "holderAndEtc",
                  "type": "string"
                }
              ],
              "internalType": "struct RealEstateStructs.Section",
              "name": "encumbrancesSection",
              "type": "tuple"
            }
          ],
          "internalType": "struct RealEstateStructs.RealEstateRegistryCertificate",
          "name": "",
          "type": "tuple"
        },
        {
          "components": [
            {
              "internalType": "bool",
              "name": "isViolated",
              "type": "bool"
            },
            {
              "internalType": "uint16",
              "name": "units",
              "type": "uint16"
            },
            {
              "internalType": "uint16",
              "name": "households",
              "type": "uint16"
            },
            {
              "internalType": "uint16",
              "name": "dwellingUnits",
              "type": "uint16"
            },
            {
              "internalType": "string",
              "name": "landLocation",
              "type": "string"
            },
            {
              "internalType": "uint16",
              "name": "landNumber",
              "type": "uint16"
            },
            {
              "internalType": "string",
              "name": "landArea",
              "type": "string"
            },
            {
              "internalType": "string",
              "name": "totalFloorArea",
              "type": "string"
            },
            {
              "internalType": "string",
              "name": "region",
              "type": "string"
            },
            {
              "internalType": "string",
              "name": "buildingArea",
              "type": "string"
            },
            {
              "internalType": "string",
              "name": "mainStructure",
              "type": "string"
            },
            {
              "internalType": "string",
              "name": "mainUsage",
              "type": "string"
            },
            {
              "internalType": "uint8",
              "name": "basementFloorCount",
              "type": "uint8"
            },
            {
              "internalType": "uint8",
              "name": "aboveGroundFloorCount",
              "type": "uint8"
            },
            {
              "internalType": "string",
              "name": "height",
              "type": "string"
            },
            {
              "internalType": "string",
              "name": "floor",
              "type": "string"
            },
            {
              "components": [
                {
                  "internalType": "string",
                  "name": "category",
                  "type": "string"
                },
                {
                  "internalType": "uint8",
                  "name": "floorNumber",
                  "type": "uint8"
                },
                {
                  "internalType": "string",
                  "name": "structure",
                  "type": "string"
                },
                {
                  "internalType": "string",
                  "name": "usage",
                  "type": "string"
                },
                {
                  "internalType": "string",
                  "name": "area",
                  "type": "string"
                }
              ],
              "internalType": "struct RealEstateStructs.StructureStatus[]",
              "name": "statuses",
              "type": "tuple[]"
            }
          ],
          "internalType": "struct RealEstateStructs.BuildingManagementRecord",
          "name": "",
          "type": "tuple"
        }
      ],
      "stateMutability": "view",
      "type": "function"
    },
    {
      "inputs": [],
      "name": "getBasicInfo",
      "outputs": [
        {
          "components": [
            {
              "internalType": "string",
              "name": "roadNameAddress",
              "type": "string"
            },
            {
              "internalType": "string",
              "name": "buildingName",
              "type": "string"
            },
            {
              "internalType": "uint16",
              "name": "buildingNumber",
              "type": "uint16"
            },
            {
              "internalType": "uint16",
              "name": "roomNumber",
              "type": "uint16"
            },
            {
              "internalType": "string",
              "name": "genDate",
              "type": "string"
            }
          ],
          "internalType": "struct RealEstateStructs.RealEstateBasicInfo",
          "name": "",
          "type": "tuple"
        }
      ],
      "stateMutability": "view",
      "type": "function"
    },
    {
      "inputs": [],
      "name": "getRegistryCertificate",
      "outputs": [
        {
          "components": [
            {
              "components": [
                {
                  "internalType": "uint32",
                  "name": "num",
                  "type": "uint32"
                },
                {
                  "internalType": "string",
                  "name": "registration",
                  "type": "string"
                },
                {
                  "internalType": "string",
                  "name": "location",
                  "type": "string"
                },
                {
                  "internalType": "string",
                  "name": "buildingInfo",
                  "type": "string"
                },
                {
                  "internalType": "string",
                  "name": "reasonAndEtc",
                  "type": "string"
                }
              ],
              "internalType": "struct RealEstateStructs.HeadLine",
              "name": "headline",
              "type": "tuple"
            },
            {
              "components": [
                {
                  "internalType": "uint8",
                  "name": "rank",
                  "type": "uint8"
                },
                {
                  "internalType": "string",
                  "name": "purpose",
                  "type": "string"
                },
                {
                  "internalType": "string",
                  "name": "registration",
                  "type": "string"
                },
                {
                  "internalType": "string",
                  "name": "reason",
                  "type": "string"
                },
                {
                  "internalType": "string",
                  "name": "holderAndEtc",
                  "type": "string"
                }
              ],
              "internalType": "struct RealEstateStructs.Section",
              "name": "rightsSection",
              "type": "tuple"
            },
            {
              "components": [
                {
                  "internalType": "uint8",
                  "name": "rank",
                  "type": "uint8"
                },
                {
                  "internalType": "string",
                  "name": "purpose",
                  "type": "string"
                },
                {
                  "internalType": "string",
                  "name": "registration",
                  "type": "string"
                },
                {
                  "internalType": "string",
                  "name": "reason",
                  "type": "string"
                },
                {
                  "internalType": "string",
                  "name": "holderAndEtc",
                  "type": "string"
                }
              ],
              "internalType": "struct RealEstateStructs.Section",
              "name": "encumbrancesSection",
              "type": "tuple"
            }
          ],
          "internalType": "struct RealEstateStructs.RealEstateRegistryCertificate",
          "name": "",
          "type": "tuple"
        }
      ],
      "stateMutability": "view",
      "type": "function"
    },
    {
      "inputs": [],
      "name": "getBuildingManagementRecord",
      "outputs": [
        {
          "components": [
            {
              "internalType": "bool",
              "name": "isViolated",
              "type": "bool"
            },
            {
              "internalType": "uint16",
              "name": "units",
              "type": "uint16"
            },
            {
              "internalType": "uint16",
              "name": "households",
              "type": "uint16"
            },
            {
              "internalType": "uint16",
              "name": "dwellingUnits",
              "type": "uint16"
            },
            {
              "internalType": "string",
              "name": "landLocation",
              "type": "string"
            },
            {
              "internalType": "uint16",
              "name": "landNumber",
              "type": "uint16"
            },
            {
              "internalType": "string",
              "name": "landArea",
              "type": "string"
            },
            {
              "internalType": "string",
              "name": "totalFloorArea",
              "type": "string"
            },
            {
              "internalType": "string",
              "name": "region",
              "type": "string"
            },
            {
              "internalType": "string",
              "name": "buildingArea",
              "type": "string"
            },
            {
              "internalType": "string",
              "name": "mainStructure",
              "type": "string"
            },
            {
              "internalType": "string",
              "name": "mainUsage",
              "type": "string"
            },
            {
              "internalType": "uint8",
              "name": "basementFloorCount",
              "type": "uint8"
            },
            {
              "internalType": "uint8",
              "name": "aboveGroundFloorCount",
              "type": "uint8"
            },
            {
              "internalType": "string",
              "name": "height",
              "type": "string"
            },
            {
              "internalType": "string",
              "name": "floor",
              "type": "string"
            },
            {
              "components": [
                {
                  "internalType": "string",
                  "name": "category",
                  "type": "string"
                },
                {
                  "internalType": "uint8",
                  "name": "floorNumber",
                  "type": "uint8"
                },
                {
                  "internalType": "string",
                  "name": "structure",
                  "type": "string"
                },
                {
                  "internalType": "string",
                  "name": "usage",
                  "type": "string"
                },
                {
                  "internalType": "string",
                  "name": "area",
                  "type": "string"
                }
              ],
              "internalType": "struct RealEstateStructs.StructureStatus[]",
              "name": "statuses",
              "type": "tuple[]"
            }
          ],
          "internalType": "struct RealEstateStructs.BuildingManagementRecord",
          "name": "",
          "type": "tuple"
        }
      ],
      "stateMutability": "view",
      "type": "function"
    }
  ],
  "bytecode": "0x608060405234801561000f575f80fd5b50604051614b63380380614b63833981810160405281019061003191906101d7565b805f73ffffffffffffffffffffffffffffffffffffffff168173ffffffffffffffffffffffffffffffffffffffff16036100a2575f6040517f1e4fbdf70000000000000000000000000000000000000000000000000000000081526004016100999190610211565b60405180910390fd5b6100b1816100b860201b60201c565b505061022a565b5f805f9054906101000a900473ffffffffffffffffffffffffffffffffffffffff169050815f806101000a81548173ffffffffffffffffffffffffffffffffffffffff021916908373ffffffffffffffffffffffffffffffffffffffff1602179055508173ffffffffffffffffffffffffffffffffffffffff168173ffffffffffffffffffffffffffffffffffffffff167f8be0079c531659141344cd1fd0a4f28419497f9722a3daafe3b4186f6b6457e060405160405180910390a35050565b5f80fd5b5f73ffffffffffffffffffffffffffffffffffffffff82169050919050565b5f6101a68261017d565b9050919050565b6101b68161019c565b81146101c0575f80fd5b50565b5f815190506101d1816101ad565b92915050565b5f602082840312156101ec576101eb610179565b5b5f6101f9848285016101c3565b91505092915050565b61020b8161019c565b82525050565b5f6020820190506102245f830184610202565b92915050565b61492c806102375f395ff3fe608060405234801561000f575f80fd5b50600436106100cd575f3560e01c80639cd014491161008a578063b1bd924f11610064578063b1bd924f146101c3578063ea148ace146101df578063ecc1b184146101fb578063f2fde38b1461021b576100cd565b80639cd014491461016d5780639f999da314610189578063a501f722146101a7576100cd565b806323663383146100d15780632d51eb1f146100ef57806330c5f27b1461010b578063715018a6146101275780638b6cb4e8146101315780638da5cb5b1461014f575b5f80fd5b6100d9610237565b6040516100e69190613a54565b60405180910390f35b61010960048036038101906101049190613a9e565b6109a6565b005b61012560048036038101906101209190613b03565b610bd3565b005b61012f610dad565b005b610139610dc0565b6040516101469190613e6c565b60405180910390f35b610157611670565b6040516101649190613ecb565b60405180910390f35b61018760048036038101906101829190613f02565b611697565b005b6101916118a7565b60405161019e9190613fca565b60405180910390f35b6101c160048036038101906101bc9190614008565b611aaf565b005b6101dd60048036038101906101d8919061406e565b611cb6565b005b6101f960048036038101906101f49190614008565b611ffa565b005b610203612201565b604051610212939291906140b5565b60405180910390f35b61023560048036038101906102309190614129565b61342d565b005b61023f613600565b60056040518060600160405290815f82016040518060a00160405290815f82015f9054906101000a900463ffffffff1663ffffffff1663ffffffff16815260200160018201805461028f90614181565b80601f01602080910402602001604051908101604052809291908181526020018280546102bb90614181565b80156103065780601f106102dd57610100808354040283529160200191610306565b820191905f5260205f20905b8154815290600101906020018083116102e957829003601f168201915b5050505050815260200160028201805461031f90614181565b80601f016020809104026020016040519081016040528092919081815260200182805461034b90614181565b80156103965780601f1061036d57610100808354040283529160200191610396565b820191905f5260205f20905b81548152906001019060200180831161037957829003601f168201915b505050505081526020016003820180546103af90614181565b80601f01602080910402602001604051908101604052809291908181526020018280546103db90614181565b80156104265780601f106103fd57610100808354040283529160200191610426565b820191905f5260205f20905b81548152906001019060200180831161040957829003601f168201915b5050505050815260200160048201805461043f90614181565b80601f016020809104026020016040519081016040528092919081815260200182805461046b90614181565b80156104b65780601f1061048d576101008083540402835291602001916104b6565b820191905f5260205f20905b81548152906001019060200180831161049957829003601f168201915b5050505050815250508152602001600582016040518060a00160405290815f82015f9054906101000a900460ff1660ff1660ff1681526020016001820180546104fe90614181565b80601f016020809104026020016040519081016040528092919081815260200182805461052a90614181565b80156105755780601f1061054c57610100808354040283529160200191610575565b820191905f5260205f20905b81548152906001019060200180831161055857829003601f168201915b5050505050815260200160028201805461058e90614181565b80601f01602080910402602001604051908101604052809291908181526020018280546105ba90614181565b80156106055780601f106105dc57610100808354040283529160200191610605565b820191905f5260205f20905b8154815290600101906020018083116105e857829003601f168201915b5050505050815260200160038201805461061e90614181565b80601f016020809104026020016040519081016040528092919081815260200182805461064a90614181565b80156106955780601f1061066c57610100808354040283529160200191610695565b820191905f5260205f20905b81548152906001019060200180831161067857829003601f168201915b505050505081526020016004820180546106ae90614181565b80601f01602080910402602001604051908101604052809291908181526020018280546106da90614181565b80156107255780601f106106fc57610100808354040283529160200191610725565b820191905f5260205f20905b81548152906001019060200180831161070857829003601f168201915b5050505050815250508152602001600a82016040518060a00160405290815f82015f9054906101000a900460ff1660ff1660ff16815260200160018201805461076d90614181565b80601f016020809104026020016040519081016040528092919081815260200182805461079990614181565b80156107e45780601f106107bb576101008083540402835291602001916107e4565b820191905f5260205f20905b8154815290600101906020018083116107c757829003601f168201915b505050505081526020016002820180546107fd90614181565b80601f016020809104026020016040519081016040528092919081815260200182805461082990614181565b80156108745780601f1061084b57610100808354040283529160200191610874565b820191905f5260205f20905b81548152906001019060200180831161085757829003601f168201915b5050505050815260200160038201805461088d90614181565b80601f01602080910402602001604051908101604052809291908181526020018280546108b990614181565b80156109045780601f106108db57610100808354040283529160200191610904565b820191905f5260205f20905b8154815290600101906020018083116108e757829003601f168201915b5050505050815260200160048201805461091d90614181565b80601f016020809104026020016040519081016040528092919081815260200182805461094990614181565b80156109945780601f1061096b57610100808354040283529160200191610994565b820191905f5260205f20905b81548152906001019060200180831161097757829003601f168201915b50505050508152505081525050905090565b6109ae6134b1565b6014600c016040518060a0016040528083805f01906109cd91906141bd565b8080601f0160208091040260200160405190810160405280939291908181526020018383808284375f81840152601f19601f820116905080830192505050505050508152602001836020016020810190610a279190614249565b60ff168152602001838060400190610a3f91906141bd565b8080601f0160208091040260200160405190810160405280939291908181526020018383808284375f81840152601f19601f820116905080830192505050505050508152602001838060600190610a9691906141bd565b8080601f0160208091040260200160405190810160405280939291908181526020018383808284375f81840152601f19601f820116905080830192505050505050508152602001838060800190610aed91906141bd565b8080601f0160208091040260200160405190810160405280939291908181526020018383808284375f81840152601f19601f82011690508083019250505050505050815250908060018154018082558091505060019003905f5260205f2090600502015f909190919091505f820151815f019081610b6b9190614447565b506020820151816001015f6101000a81548160ff021916908360ff1602179055506040820151816002019081610ba19190614447565b506060820151816003019081610bb79190614447565b506080820151816004019081610bcd9190614447565b50505050565b610bdb6134b1565b6040518060a0016040528082805f0190610bf591906141bd565b8080601f0160208091040260200160405190810160405280939291908181526020018383808284375f81840152601f19601f820116905080830192505050505050508152602001828060200190610c4c91906141bd565b8080601f0160208091040260200160405190810160405280939291908181526020018383808284375f81840152601f19601f820116905080830192505050505050508152602001826040016020810190610ca69190614540565b61ffff168152602001826060016020810190610cc29190614540565b61ffff168152602001828060800190610cdb91906141bd565b8080601f0160208091040260200160405190810160405280939291908181526020018383808284375f81840152601f19601f8201169050808301925050505050505081525060015f820151815f019081610d359190614447565b506020820151816001019081610d4b9190614447565b506040820151816002015f6101000a81548161ffff021916908361ffff16021790555060608201518160020160026101000a81548161ffff021916908361ffff1602179055506080820151816003019081610da69190614447565b5090505050565b610db56134b1565b610dbe5f613538565b565b610dc8613633565b6014604051806102200160405290815f82015f9054906101000a900460ff161515151581526020015f820160019054906101000a900461ffff1661ffff1661ffff1681526020015f820160039054906101000a900461ffff1661ffff1661ffff1681526020015f820160059054906101000a900461ffff1661ffff1661ffff168152602001600182018054610e5c90614181565b80601f0160208091040260200160405190810160405280929190818152602001828054610e8890614181565b8015610ed35780601f10610eaa57610100808354040283529160200191610ed3565b820191905f5260205f20905b815481529060010190602001808311610eb657829003601f168201915b50505050508152602001600282015f9054906101000a900461ffff1661ffff1661ffff168152602001600382018054610f0b90614181565b80601f0160208091040260200160405190810160405280929190818152602001828054610f3790614181565b8015610f825780601f10610f5957610100808354040283529160200191610f82565b820191905f5260205f20905b815481529060010190602001808311610f6557829003601f168201915b50505050508152602001600482018054610f9b90614181565b80601f0160208091040260200160405190810160405280929190818152602001828054610fc790614181565b80156110125780601f10610fe957610100808354040283529160200191611012565b820191905f5260205f20905b815481529060010190602001808311610ff557829003601f168201915b5050505050815260200160058201805461102b90614181565b80601f016020809104026020016040519081016040528092919081815260200182805461105790614181565b80156110a25780601f10611079576101008083540402835291602001916110a2565b820191905f5260205f20905b81548152906001019060200180831161108557829003601f168201915b505050505081526020016006820180546110bb90614181565b80601f01602080910402602001604051908101604052809291908181526020018280546110e790614181565b80156111325780601f1061110957610100808354040283529160200191611132565b820191905f5260205f20905b81548152906001019060200180831161111557829003601f168201915b5050505050815260200160078201805461114b90614181565b80601f016020809104026020016040519081016040528092919081815260200182805461117790614181565b80156111c25780601f10611199576101008083540402835291602001916111c2565b820191905f5260205f20905b8154815290600101906020018083116111a557829003601f168201915b505050505081526020016008820180546111db90614181565b80601f016020809104026020016040519081016040528092919081815260200182805461120790614181565b80156112525780601f1061122957610100808354040283529160200191611252565b820191905f5260205f20905b81548152906001019060200180831161123557829003601f168201915b50505050508152602001600982015f9054906101000a900460ff1660ff1660ff1681526020016009820160019054906101000a900460ff1660ff1660ff168152602001600a820180546112a490614181565b80601f01602080910402602001604051908101604052809291908181526020018280546112d090614181565b801561131b5780601f106112f25761010080835404028352916020019161131b565b820191905f5260205f20905b8154815290600101906020018083116112fe57829003601f168201915b50505050508152602001600b8201805461133490614181565b80601f016020809104026020016040519081016040528092919081815260200182805461136090614181565b80156113ab5780601f10611382576101008083540402835291602001916113ab565b820191905f5260205f20905b81548152906001019060200180831161138e57829003601f168201915b50505050508152602001600c8201805480602002602001604051908101604052809291908181526020015f905b82821015611663578382905f5260205f2090600502016040518060a00160405290815f8201805461140890614181565b80601f016020809104026020016040519081016040528092919081815260200182805461143490614181565b801561147f5780601f106114565761010080835404028352916020019161147f565b820191905f5260205f20905b81548152906001019060200180831161146257829003601f168201915b50505050508152602001600182015f9054906101000a900460ff1660ff1660ff1681526020016002820180546114b490614181565b80601f01602080910402602001604051908101604052809291908181526020018280546114e090614181565b801561152b5780601f106115025761010080835404028352916020019161152b565b820191905f5260205f20905b81548152906001019060200180831161150e57829003601f168201915b5050505050815260200160038201805461154490614181565b80601f016020809104026020016040519081016040528092919081815260200182805461157090614181565b80156115bb5780601f10611592576101008083540402835291602001916115bb565b820191905f5260205f20905b81548152906001019060200180831161159e57829003601f168201915b505050505081526020016004820180546115d490614181565b80601f016020809104026020016040519081016040528092919081815260200182805461160090614181565b801561164b5780601f106116225761010080835404028352916020019161164b565b820191905f5260205f20905b81548152906001019060200180831161162e57829003601f168201915b505050505081525050815260200190600101906113d8565b5050505081525050905090565b5f805f9054906101000a900473ffffffffffffffffffffffffffffffffffffffff16905090565b61169f6134b1565b6040518060a00160405280825f0160208101906116bc9190614595565b63ffffffff1681526020018280602001906116d791906141bd565b8080601f0160208091040260200160405190810160405280939291908181526020018383808284375f81840152601f19601f82011690508083019250505050505050815260200182806040019061172e91906141bd565b8080601f0160208091040260200160405190810160405280939291908181526020018383808284375f81840152601f19601f82011690508083019250505050505050815260200182806060019061178591906141bd565b8080601f0160208091040260200160405190810160405280939291908181526020018383808284375f81840152601f19601f8201169050808301925050505050505081526020018280608001906117dc91906141bd565b8080601f0160208091040260200160405190810160405280939291908181526020018383808284375f81840152601f19601f8201169050808301925050505050505081525060055f015f820151815f015f6101000a81548163ffffffff021916908363ffffffff160217905550602082015181600101908161185e9190614447565b5060408201518160020190816118749190614447565b50606082015181600301908161188a9190614447565b5060808201518160040190816118a09190614447565b5090505050565b6118af6136c8565b60016040518060a00160405290815f820180546118cb90614181565b80601f01602080910402602001604051908101604052809291908181526020018280546118f790614181565b80156119425780601f1061191957610100808354040283529160200191611942565b820191905f5260205f20905b81548152906001019060200180831161192557829003601f168201915b5050505050815260200160018201805461195b90614181565b80601f016020809104026020016040519081016040528092919081815260200182805461198790614181565b80156119d25780601f106119a9576101008083540402835291602001916119d2565b820191905f5260205f20905b8154815290600101906020018083116119b557829003601f168201915b50505050508152602001600282015f9054906101000a900461ffff1661ffff1661ffff1681526020016002820160029054906101000a900461ffff1661ffff1661ffff168152602001600382018054611a2a90614181565b80601f0160208091040260200160405190810160405280929190818152602001828054611a5690614181565b8015611aa15780601f10611a7857610100808354040283529160200191611aa1565b820191905f5260205f20905b815481529060010190602001808311611a8457829003601f168201915b505050505081525050905090565b611ab76134b1565b6040518060a00160405280825f016020810190611ad49190614249565b60ff168152602001828060200190611aec91906141bd565b8080601f0160208091040260200160405190810160405280939291908181526020018383808284375f81840152601f19601f820116905080830192505050505050508152602001828060400190611b4391906141bd565b8080601f0160208091040260200160405190810160405280939291908181526020018383808284375f81840152601f19601f820116905080830192505050505050508152602001828060600190611b9a91906141bd565b8080601f0160208091040260200160405190810160405280939291908181526020018383808284375f81840152601f19601f820116905080830192505050505050508152602001828060800190611bf191906141bd565b8080601f0160208091040260200160405190810160405280939291908181526020018383808284375f81840152601f19601f82011690508083019250505050505050815250600580015f820151815f015f6101000a81548160ff021916908360ff1602179055506020820151816001019081611c6d9190614447565b506040820151816002019081611c839190614447565b506060820151816003019081611c999190614447565b506080820151816004019081611caf9190614447565b5090505050565b611cbe6134b1565b805f016020810190611cd091906145ea565b60145f015f6101000a81548160ff021916908315150217905550806020016020810190611cfd9190614540565b60145f0160016101000a81548161ffff021916908361ffff160217905550806040016020810190611d2e9190614540565b60145f0160036101000a81548161ffff021916908361ffff160217905550806060016020810190611d5f9190614540565b60145f0160056101000a81548161ffff021916908361ffff160217905550808060800190611d8d91906141bd565b60146001019182611d9f92919061461f565b508060a0016020810190611db39190614540565b60146002015f6101000a81548161ffff021916908361ffff160217905550808060c00190611de191906141bd565b60146003019182611df392919061461f565b50808060e00190611e0491906141bd565b60146004019182611e1692919061461f565b5080806101000190611e2891906141bd565b60146005019182611e3a92919061461f565b5080806101200190611e4c91906141bd565b60146006019182611e5e92919061461f565b5080806101400190611e7091906141bd565b60146007019182611e8292919061461f565b5080806101600190611e9491906141bd565b60146008019182611ea692919061461f565b5080610180016020810190611ebb9190614249565b60146009015f6101000a81548160ff021916908360ff160217905550806101a0016020810190611eeb9190614249565b601460090160016101000a81548160ff021916908360ff16021790555080806101c00190611f1991906141bd565b6014600a019182611f2b92919061461f565b5080806101e00190611f3d91906141bd565b6014600b019182611f4f92919061461f565b506014600c015f611f6091906136fd565b5f5b81806102000190611f7391906146ec565b9050811015611ff6576014600c0182806102000190611f9291906146ec565b83818110611fa357611fa261474e565b5b9050602002810190611fb5919061477b565b908060018154018082558091505060019003905f5260205f2090600502015f909190919091508181611fe791906148e8565b50508080600101915050611f62565b5050565b6120026134b1565b6040518060a00160405280825f01602081019061201f9190614249565b60ff16815260200182806020019061203791906141bd565b8080601f0160208091040260200160405190810160405280939291908181526020018383808284375f81840152601f19601f82011690508083019250505050505050815260200182806040019061208e91906141bd565b8080601f0160208091040260200160405190810160405280939291908181526020018383808284375f81840152601f19601f8201169050808301925050505050505081526020018280606001906120e591906141bd565b8080601f0160208091040260200160405190810160405280939291908181526020018383808284375f81840152601f19601f82011690508083019250505050505050815260200182806080019061213c91906141bd565b8080601f0160208091040260200160405190810160405280939291908181526020018383808284375f81840152601f19601f82011690508083019250505050505050815250600580015f820151815f015f6101000a81548160ff021916908360ff16021790555060208201518160010190816121b89190614447565b5060408201518160020190816121ce9190614447565b5060608201518160030190816121e49190614447565b5060808201518160040190816121fa9190614447565b5090505050565b6122096136c8565b612211613600565b612219613633565b600160056014826040518060a00160405290815f8201805461223a90614181565b80601f016020809104026020016040519081016040528092919081815260200182805461226690614181565b80156122b15780601f10612288576101008083540402835291602001916122b1565b820191905f5260205f20905b81548152906001019060200180831161229457829003601f168201915b505050505081526020016001820180546122ca90614181565b80601f01602080910402602001604051908101604052809291908181526020018280546122f690614181565b80156123415780601f1061231857610100808354040283529160200191612341565b820191905f5260205f20905b81548152906001019060200180831161232457829003601f168201915b50505050508152602001600282015f9054906101000a900461ffff1661ffff1661ffff1681526020016002820160029054906101000a900461ffff1661ffff1661ffff16815260200160038201805461239990614181565b80601f01602080910402602001604051908101604052809291908181526020018280546123c590614181565b80156124105780601f106123e757610100808354040283529160200191612410565b820191905f5260205f20905b8154815290600101906020018083116123f357829003601f168201915b5050505050815250509250816040518060600160405290815f82016040518060a00160405290815f82015f9054906101000a900463ffffffff1663ffffffff1663ffffffff16815260200160018201805461246a90614181565b80601f016020809104026020016040519081016040528092919081815260200182805461249690614181565b80156124e15780601f106124b8576101008083540402835291602001916124e1565b820191905f5260205f20905b8154815290600101906020018083116124c457829003601f168201915b505050505081526020016002820180546124fa90614181565b80601f016020809104026020016040519081016040528092919081815260200182805461252690614181565b80156125715780601f1061254857610100808354040283529160200191612571565b820191905f5260205f20905b81548152906001019060200180831161255457829003601f168201915b5050505050815260200160038201805461258a90614181565b80601f01602080910402602001604051908101604052809291908181526020018280546125b690614181565b80156126015780601f106125d857610100808354040283529160200191612601565b820191905f5260205f20905b8154815290600101906020018083116125e457829003601f168201915b5050505050815260200160048201805461261a90614181565b80601f016020809104026020016040519081016040528092919081815260200182805461264690614181565b80156126915780601f1061266857610100808354040283529160200191612691565b820191905f5260205f20905b81548152906001019060200180831161267457829003601f168201915b5050505050815250508152602001600582016040518060a00160405290815f82015f9054906101000a900460ff1660ff1660ff1681526020016001820180546126d990614181565b80601f016020809104026020016040519081016040528092919081815260200182805461270590614181565b80156127505780601f1061272757610100808354040283529160200191612750565b820191905f5260205f20905b81548152906001019060200180831161273357829003601f168201915b5050505050815260200160028201805461276990614181565b80601f016020809104026020016040519081016040528092919081815260200182805461279590614181565b80156127e05780601f106127b7576101008083540402835291602001916127e0565b820191905f5260205f20905b8154815290600101906020018083116127c357829003601f168201915b505050505081526020016003820180546127f990614181565b80601f016020809104026020016040519081016040528092919081815260200182805461282590614181565b80156128705780601f1061284757610100808354040283529160200191612870565b820191905f5260205f20905b81548152906001019060200180831161285357829003601f168201915b5050505050815260200160048201805461288990614181565b80601f01602080910402602001604051908101604052809291908181526020018280546128b590614181565b80156129005780601f106128d757610100808354040283529160200191612900565b820191905f5260205f20905b8154815290600101906020018083116128e357829003601f168201915b5050505050815250508152602001600a82016040518060a00160405290815f82015f9054906101000a900460ff1660ff1660ff16815260200160018201805461294890614181565b80601f016020809104026020016040519081016040528092919081815260200182805461297490614181565b80156129bf5780601f10612996576101008083540402835291602001916129bf565b820191905f5260205f20905b8154815290600101906020018083116129a257829003601f168201915b505050505081526020016002820180546129d890614181565b80601f0160208091040260200160405190810160405280929190818152602001828054612a0490614181565b8015612a4f5780601f10612a2657610100808354040283529160200191612a4f565b820191905f5260205f20905b815481529060010190602001808311612a3257829003601f168201915b50505050508152602001600382018054612a6890614181565b80601f0160208091040260200160405190810160405280929190818152602001828054612a9490614181565b8015612adf5780601f10612ab657610100808354040283529160200191612adf565b820191905f5260205f20905b815481529060010190602001808311612ac257829003601f168201915b50505050508152602001600482018054612af890614181565b80601f0160208091040260200160405190810160405280929190818152602001828054612b2490614181565b8015612b6f5780601f10612b4657610100808354040283529160200191612b6f565b820191905f5260205f20905b815481529060010190602001808311612b5257829003601f168201915b50505050508152505081525050915080604051806102200160405290815f82015f9054906101000a900460ff161515151581526020015f820160019054906101000a900461ffff1661ffff1661ffff1681526020015f820160039054906101000a900461ffff1661ffff1661ffff1681526020015f820160059054906101000a900461ffff1661ffff1661ffff168152602001600182018054612c1190614181565b80601f0160208091040260200160405190810160405280929190818152602001828054612c3d90614181565b8015612c885780601f10612c5f57610100808354040283529160200191612c88565b820191905f5260205f20905b815481529060010190602001808311612c6b57829003601f168201915b50505050508152602001600282015f9054906101000a900461ffff1661ffff1661ffff168152602001600382018054612cc090614181565b80601f0160208091040260200160405190810160405280929190818152602001828054612cec90614181565b8015612d375780601f10612d0e57610100808354040283529160200191612d37565b820191905f5260205f20905b815481529060010190602001808311612d1a57829003601f168201915b50505050508152602001600482018054612d5090614181565b80601f0160208091040260200160405190810160405280929190818152602001828054612d7c90614181565b8015612dc75780601f10612d9e57610100808354040283529160200191612dc7565b820191905f5260205f20905b815481529060010190602001808311612daa57829003601f168201915b50505050508152602001600582018054612de090614181565b80601f0160208091040260200160405190810160405280929190818152602001828054612e0c90614181565b8015612e575780601f10612e2e57610100808354040283529160200191612e57565b820191905f5260205f20905b815481529060010190602001808311612e3a57829003601f168201915b50505050508152602001600682018054612e7090614181565b80601f0160208091040260200160405190810160405280929190818152602001828054612e9c90614181565b8015612ee75780601f10612ebe57610100808354040283529160200191612ee7565b820191905f5260205f20905b815481529060010190602001808311612eca57829003601f168201915b50505050508152602001600782018054612f0090614181565b80601f0160208091040260200160405190810160405280929190818152602001828054612f2c90614181565b8015612f775780601f10612f4e57610100808354040283529160200191612f77565b820191905f5260205f20905b815481529060010190602001808311612f5a57829003601f168201915b50505050508152602001600882018054612f9090614181565b80601f0160208091040260200160405190810160405280929190818152602001828054612fbc90614181565b80156130075780601f10612fde57610100808354040283529160200191613007565b820191905f5260205f20905b815481529060010190602001808311612fea57829003601f168201915b50505050508152602001600982015f9054906101000a900460ff1660ff1660ff1681526020016009820160019054906101000a900460ff1660ff1660ff168152602001600a8201805461305990614181565b80601f016020809104026020016040519081016040528092919081815260200182805461308590614181565b80156130d05780601f106130a7576101008083540402835291602001916130d0565b820191905f5260205f20905b8154815290600101906020018083116130b357829003601f168201915b50505050508152602001600b820180546130e990614181565b80601f016020809104026020016040519081016040528092919081815260200182805461311590614181565b80156131605780601f1061313757610100808354040283529160200191613160565b820191905f5260205f20905b81548152906001019060200180831161314357829003601f168201915b50505050508152602001600c8201805480602002602001604051908101604052809291908181526020015f905b82821015613418578382905f5260205f2090600502016040518060a00160405290815f820180546131bd90614181565b80601f01602080910402602001604051908101604052809291908181526020018280546131e990614181565b80156132345780601f1061320b57610100808354040283529160200191613234565b820191905f5260205f20905b81548152906001019060200180831161321757829003601f168201915b50505050508152602001600182015f9054906101000a900460ff1660ff1660ff16815260200160028201805461326990614181565b80601f016020809104026020016040519081016040528092919081815260200182805461329590614181565b80156132e05780601f106132b7576101008083540402835291602001916132e0565b820191905f5260205f20905b8154815290600101906020018083116132c357829003601f168201915b505050505081526020016003820180546132f990614181565b80601f016020809104026020016040519081016040528092919081815260200182805461332590614181565b80156133705780601f1061334757610100808354040283529160200191613370565b820191905f5260205f20905b81548152906001019060200180831161335357829003601f168201915b5050505050815260200160048201805461338990614181565b80601f01602080910402602001604051908101604052809291908181526020018280546133b590614181565b80156134005780601f106133d757610100808354040283529160200191613400565b820191905f5260205f20905b8154815290600101906020018083116133e357829003601f168201915b5050505050815250508152602001906001019061318d565b50505050815250509050925092509250909192565b6134356134b1565b5f73ffffffffffffffffffffffffffffffffffffffff168173ffffffffffffffffffffffffffffffffffffffff16036134a5575f6040517f1e4fbdf700000000000000000000000000000000000000000000000000000000815260040161349c9190613ecb565b60405180910390fd5b6134ae81613538565b50565b6134b96135f9565b73ffffffffffffffffffffffffffffffffffffffff166134d7611670565b73ffffffffffffffffffffffffffffffffffffffff1614613536576134fa6135f9565b6040517f118cdaa700000000000000000000000000000000000000000000000000000000815260040161352d9190613ecb565b60405180910390fd5b565b5f805f9054906101000a900473ffffffffffffffffffffffffffffffffffffffff169050815f806101000a81548173ffffffffffffffffffffffffffffffffffffffff021916908373ffffffffffffffffffffffffffffffffffffffff1602179055508173ffffffffffffffffffffffffffffffffffffffff168173ffffffffffffffffffffffffffffffffffffffff167f8be0079c531659141344cd1fd0a4f28419497f9722a3daafe3b4186f6b6457e060405160405180910390a35050565b5f33905090565b604051806060016040528061361361371e565b8152602001613620613752565b815260200161362d613752565b81525090565b6040518061022001604052805f151581526020015f61ffff1681526020015f61ffff1681526020015f61ffff168152602001606081526020015f61ffff1681526020016060815260200160608152602001606081526020016060815260200160608152602001606081526020015f60ff1681526020015f60ff1681526020016060815260200160608152602001606081525090565b6040518060a0016040528060608152602001606081526020015f61ffff1681526020015f61ffff168152602001606081525090565b5080545f8255600502905f5260205f209081019061371b9190613783565b50565b6040518060a001604052805f63ffffffff168152602001606081526020016060815260200160608152602001606081525090565b6040518060a001604052805f60ff168152602001606081526020016060815260200160608152602001606081525090565b5b808211156137e4575f8082015f61379b91906137e8565b600182015f6101000a81549060ff0219169055600282015f6137bd91906137e8565b600382015f6137cc91906137e8565b600482015f6137db91906137e8565b50600501613784565b5090565b5080546137f490614181565b5f825580601f106138055750613822565b601f0160209004905f5260205f20908101906138219190613825565b5b50565b5b8082111561383c575f815f905550600101613826565b5090565b5f63ffffffff82169050919050565b61385881613840565b82525050565b5f81519050919050565b5f82825260208201905092915050565b8281835e5f83830152505050565b5f601f19601f8301169050919050565b5f6138a08261385e565b6138aa8185613868565b93506138ba818560208601613878565b6138c381613886565b840191505092915050565b5f60a083015f8301516138e35f86018261384f565b50602083015184820360208601526138fb8282613896565b915050604083015184820360408601526139158282613896565b9150506060830151848203606086015261392f8282613896565b915050608083015184820360808601526139498282613896565b9150508091505092915050565b5f60ff82169050919050565b61396b81613956565b82525050565b5f60a083015f8301516139865f860182613962565b506020830151848203602086015261399e8282613896565b915050604083015184820360408601526139b88282613896565b915050606083015184820360608601526139d28282613896565b915050608083015184820360808601526139ec8282613896565b9150508091505092915050565b5f606083015f8301518482035f860152613a1382826138ce565b91505060208301518482036020860152613a2d8282613971565b91505060408301518482036040860152613a478282613971565b9150508091505092915050565b5f6020820190508181035f830152613a6c81846139f9565b905092915050565b5f80fd5b5f80fd5b5f80fd5b5f60a08284031215613a9557613a94613a7c565b5b81905092915050565b5f60208284031215613ab357613ab2613a74565b5b5f82013567ffffffffffffffff811115613ad057613acf613a78565b5b613adc84828501613a80565b91505092915050565b5f60a08284031215613afa57613af9613a7c565b5b81905092915050565b5f60208284031215613b1857613b17613a74565b5b5f82013567ffffffffffffffff811115613b3557613b34613a78565b5b613b4184828501613ae5565b91505092915050565b5f8115159050919050565b613b5e81613b4a565b82525050565b5f61ffff82169050919050565b613b7a81613b64565b82525050565b5f81519050919050565b5f82825260208201905092915050565b5f819050602082019050919050565b5f60a083015f8301518482035f860152613bc38282613896565b9150506020830151613bd86020860182613962565b5060408301518482036040860152613bf08282613896565b91505060608301518482036060860152613c0a8282613896565b91505060808301518482036080860152613c248282613896565b9150508091505092915050565b5f613c3c8383613ba9565b905092915050565b5f602082019050919050565b5f613c5a82613b80565b613c648185613b8a565b935083602082028501613c7685613b9a565b805f5b85811015613cb15784840389528151613c928582613c31565b9450613c9d83613c44565b925060208a01995050600181019050613c79565b50829750879550505050505092915050565b5f61022083015f830151613cd95f860182613b55565b506020830151613cec6020860182613b71565b506040830151613cff6040860182613b71565b506060830151613d126060860182613b71565b5060808301518482036080860152613d2a8282613896565b91505060a0830151613d3f60a0860182613b71565b5060c083015184820360c0860152613d578282613896565b91505060e083015184820360e0860152613d718282613896565b915050610100830151848203610100860152613d8d8282613896565b915050610120830151848203610120860152613da98282613896565b915050610140830151848203610140860152613dc58282613896565b915050610160830151848203610160860152613de18282613896565b915050610180830151613df8610180860182613962565b506101a0830151613e0d6101a0860182613962565b506101c08301518482036101c0860152613e278282613896565b9150506101e08301518482036101e0860152613e438282613896565b915050610200830151848203610200860152613e5f8282613c50565b9150508091505092915050565b5f6020820190508181035f830152613e848184613cc3565b905092915050565b5f73ffffffffffffffffffffffffffffffffffffffff82169050919050565b5f613eb582613e8c565b9050919050565b613ec581613eab565b82525050565b5f602082019050613ede5f830184613ebc565b92915050565b5f60a08284031215613ef957613ef8613a7c565b5b81905092915050565b5f60208284031215613f1757613f16613a74565b5b5f82013567ffffffffffffffff811115613f3457613f33613a78565b5b613f4084828501613ee4565b91505092915050565b5f60a083015f8301518482035f860152613f638282613896565b91505060208301518482036020860152613f7d8282613896565b9150506040830151613f926040860182613b71565b506060830151613fa56060860182613b71565b5060808301518482036080860152613fbd8282613896565b9150508091505092915050565b5f6020820190508181035f830152613fe28184613f49565b905092915050565b5f60a08284031215613fff57613ffe613a7c565b5b81905092915050565b5f6020828403121561401d5761401c613a74565b5b5f82013567ffffffffffffffff81111561403a57614039613a78565b5b61404684828501613fea565b91505092915050565b5f610220828403121561406557614064613a7c565b5b81905092915050565b5f6020828403121561408357614082613a74565b5b5f82013567ffffffffffffffff8111156140a05761409f613a78565b5b6140ac8482850161404f565b91505092915050565b5f6060820190508181035f8301526140cd8186613f49565b905081810360208301526140e181856139f9565b905081810360408301526140f58184613cc3565b9050949350505050565b61410881613eab565b8114614112575f80fd5b50565b5f81359050614123816140ff565b92915050565b5f6020828403121561413e5761413d613a74565b5b5f61414b84828501614115565b91505092915050565b7f4e487b71000000000000000000000000000000000000000000000000000000005f52602260045260245ffd5b5f600282049050600182168061419857607f821691505b6020821081036141ab576141aa614154565b5b50919050565b5f80fd5b5f80fd5b5f80fd5b5f80833560016020038436030381126141d9576141d86141b1565b5b80840192508235915067ffffffffffffffff8211156141fb576141fa6141b5565b5b602083019250600182023603831315614217576142166141b9565b5b509250929050565b61422881613956565b8114614232575f80fd5b50565b5f813590506142438161421f565b92915050565b5f6020828403121561425e5761425d613a74565b5b5f61426b84828501614235565b91505092915050565b7f4e487b71000000000000000000000000000000000000000000000000000000005f52604160045260245ffd5b5f819050815f5260205f209050919050565b5f6020601f8301049050919050565b5f82821b905092915050565b5f600883026142fd7fffffffffffffffffffffffffffffffffffffffffffffffffffffffffffffffff826142c2565b61430786836142c2565b95508019841693508086168417925050509392505050565b5f819050919050565b5f819050919050565b5f61434b6143466143418461431f565b614328565b61431f565b9050919050565b5f819050919050565b61436483614331565b61437861437082614352565b8484546142ce565b825550505050565b5f90565b61438c614380565b61439781848461435b565b505050565b5b818110156143ba576143af5f82614384565b60018101905061439d565b5050565b601f8211156143ff576143d0816142a1565b6143d9846142b3565b810160208510156143e8578190505b6143fc6143f4856142b3565b83018261439c565b50505b505050565b5f82821c905092915050565b5f61441f5f1984600802614404565b1980831691505092915050565b5f6144378383614410565b9150826002028217905092915050565b6144508261385e565b67ffffffffffffffff81111561446957614468614274565b5b6144738254614181565b61447e8282856143be565b5f60209050601f8311600181146144af575f841561449d578287015190505b6144a7858261442c565b86555061450e565b601f1984166144bd866142a1565b5f5b828110156144e4578489015182556001820191506020850194506020810190506144bf565b8683101561450157848901516144fd601f891682614410565b8355505b6001600288020188555050505b505050505050565b61451f81613b64565b8114614529575f80fd5b50565b5f8135905061453a81614516565b92915050565b5f6020828403121561455557614554613a74565b5b5f6145628482850161452c565b91505092915050565b61457481613840565b811461457e575f80fd5b50565b5f8135905061458f8161456b565b92915050565b5f602082840312156145aa576145a9613a74565b5b5f6145b784828501614581565b91505092915050565b6145c981613b4a565b81146145d3575f80fd5b50565b5f813590506145e4816145c0565b92915050565b5f602082840312156145ff576145fe613a74565b5b5f61460c848285016145d6565b91505092915050565b5f82905092915050565b6146298383614615565b67ffffffffffffffff81111561464257614641614274565b5b61464c8254614181565b6146578282856143be565b5f601f831160018114614684575f8415614672578287013590505b61467c858261442c565b8655506146e3565b601f198416614692866142a1565b5f5b828110156146b957848901358255600182019150602085019450602081019050614694565b868310156146d657848901356146d2601f891682614410565b8355505b6001600288020188555050505b50505050505050565b5f8083356001602003843603038112614708576147076141b1565b5b80840192508235915067ffffffffffffffff82111561472a576147296141b5565b5b602083019250602082023603831315614746576147456141b9565b5b509250929050565b7f4e487b71000000000000000000000000000000000000000000000000000000005f52603260045260245ffd5b5f8235600160a003833603038112614796576147956141b1565b5b80830191505092915050565b6147ad83838361461f565b505050565b5f81356147be8161421f565b80915050919050565b5f815f1b9050919050565b5f60ff6147de846147c7565b9350801983169250808416831791505092915050565b5f61480e61480961480484613956565b614328565b613956565b9050919050565b5f819050919050565b614827826147f4565b61483a61483382614815565b83546147d2565b8255505050565b5f81015f830161485181856141bd565b61485c8183866147a2565b50505050600181016020830180614872816147b2565b905061487e818461481e565b505050600281016040830161489381856141bd565b61489e8183866147a2565b5050505060038101606083016148b481856141bd565b6148bf8183866147a2565b5050505060048101608083016148d581856141bd565b6148e08183866147a2565b505050505050565b6148f28282614841565b505056fea2646970667358221220ee18dea3f4d56616c1cbb3f2a98bf4a7b6c438a321f2ff7021955cdad5c3805d64736f6c63430008190033",
  "immutableReferences": {},
  "source": "// SPDX-License-Identifier: MIT\r\npragma solidity ^0.8.0;\r\n\r\nimport \"@openzeppelin/contracts/access/Ownable.sol\";\r\nimport \"../structs/RealEstateStructs.sol\";\r\n\r\ncontract RealEstateInfo is Ownable {\r\n\r\n    RealEstateStructs.RealEstateBasicInfo basicInfo;\r\n    RealEstateStructs.RealEstateRegistryCertificate registryCertificate;\r\n    RealEstateStructs.BuildingManagementRecord buildingManagementRecord;\r\n\r\n    constructor(address _owner) Ownable(_owner) {}\r\n\r\n    function setRealEstateBasicInfo(RealEstateStructs.RealEstateBasicInfo calldata _basicInfo) external onlyOwner {\r\n        basicInfo = RealEstateStructs.RealEstateBasicInfo({\r\n            roadNameAddress: _basicInfo.roadNameAddress,\r\n            buildingName: _basicInfo.buildingName,\r\n            buildingNumber: _basicInfo.buildingNumber,\r\n            roomNumber: _basicInfo.roomNumber,\r\n            genDate: _basicInfo.genDate\r\n        });\r\n    }\r\n\r\n    function setHeadLine(RealEstateStructs.HeadLine calldata _headline) external onlyOwner {\r\n        registryCertificate.headline = RealEstateStructs.HeadLine({\r\n            num: _headline.num,\r\n            registration: _headline.registration,\r\n            location: _headline.location,\r\n            buildingInfo: _headline.buildingInfo,\r\n            reasonAndEtc: _headline.reasonAndEtc\r\n        });\r\n    }\r\n\r\n    function setRightsSection(RealEstateStructs.Section calldata _rightsSection) external onlyOwner {\r\n        registryCertificate.rightsSection = RealEstateStructs.Section({\r\n            rank: _rightsSection.rank,\r\n            purpose: _rightsSection.purpose,\r\n            registration: _rightsSection.registration,\r\n            reason: _rightsSection.reason,\r\n            holderAndEtc: _rightsSection.holderAndEtc\r\n        });\r\n    }\r\n\r\n    function setEncumbrancesSection(RealEstateStructs.Section calldata _encumbrancesSection) external onlyOwner {\r\n        registryCertificate.rightsSection = RealEstateStructs.Section({\r\n            rank: _encumbrancesSection.rank,\r\n            purpose: _encumbrancesSection.purpose,\r\n            registration: _encumbrancesSection.registration,\r\n            reason: _encumbrancesSection.reason,\r\n            holderAndEtc: _encumbrancesSection.holderAndEtc\r\n        });\r\n    }\r\n\r\n    function setBuildingManagementRecord(RealEstateStructs.BuildingManagementRecord calldata _buildingManagementRecord) external onlyOwner {\r\n        buildingManagementRecord.isViolated = _buildingManagementRecord.isViolated;\r\n        buildingManagementRecord.units = _buildingManagementRecord.units;\r\n        buildingManagementRecord.households = _buildingManagementRecord.households;\r\n        buildingManagementRecord.dwellingUnits = _buildingManagementRecord.dwellingUnits;\r\n        buildingManagementRecord.landLocation = _buildingManagementRecord.landLocation;\r\n        buildingManagementRecord.landNumber = _buildingManagementRecord.landNumber;\r\n        buildingManagementRecord.landArea = _buildingManagementRecord.landArea;\r\n        buildingManagementRecord.totalFloorArea = _buildingManagementRecord.totalFloorArea;\r\n        buildingManagementRecord.region = _buildingManagementRecord.region;\r\n        buildingManagementRecord.buildingArea = _buildingManagementRecord.buildingArea;\r\n        buildingManagementRecord.mainStructure = _buildingManagementRecord.mainStructure;\r\n        buildingManagementRecord.mainUsage = _buildingManagementRecord.mainUsage;\r\n        buildingManagementRecord.basementFloorCount = _buildingManagementRecord.basementFloorCount;\r\n        buildingManagementRecord.aboveGroundFloorCount = _buildingManagementRecord.aboveGroundFloorCount;\r\n        buildingManagementRecord.height = _buildingManagementRecord.height;\r\n        buildingManagementRecord.floor = _buildingManagementRecord.floor;\r\n\r\n        // Clear the existing statuses array\r\n        delete buildingManagementRecord.statuses;\r\n        \r\n        // Copy each status from calldata to storage\r\n        for (uint i = 0; i < _buildingManagementRecord.statuses.length; i++) {\r\n            buildingManagementRecord.statuses.push(_buildingManagementRecord.statuses[i]);\r\n        }\r\n    }\r\n\r\n    function addStatus(RealEstateStructs.StructureStatus calldata _status) external onlyOwner {\r\n        buildingManagementRecord.statuses.push(RealEstateStructs.StructureStatus({\r\n            category: _status.category,\r\n            floorNumber: _status.floorNumber,\r\n            structure: _status.structure,\r\n            usage: _status.usage,\r\n            area: _status.area\r\n        }));\r\n    }\r\n\r\n\r\n    function getRealEstateFullInfo() external view returns (\r\n        RealEstateStructs.RealEstateBasicInfo memory, \r\n        RealEstateStructs.RealEstateRegistryCertificate memory, \r\n        RealEstateStructs.BuildingManagementRecord memory) {\r\n        return (basicInfo, registryCertificate, buildingManagementRecord);\r\n    }\r\n\r\n    function getBasicInfo() external view returns (RealEstateStructs.RealEstateBasicInfo memory) {\r\n        return basicInfo;\r\n    }\r\n\r\n    function getRegistryCertificate() external view returns (RealEstateStructs.RealEstateRegistryCertificate memory) {\r\n        return registryCertificate;\r\n    }\r\n\r\n    function getBuildingManagementRecord() external view returns (RealEstateStructs.BuildingManagementRecord memory) {\r\n        return buildingManagementRecord;\r\n    }\r\n\r\n}",
  "sourcePath": "C:\\SSAFY\\S10P31C203\\blockchain\\did-real-estate\\contracts\\real-estate\\RealEstateInfo.sol",
  "compiler": {
    "name": "solc",
    "version": "0.8.25+commit.b61c2a91.Emscripten.clang"
  },
  "schemaVersion": "3.4.16",
  "updatedAt": "2024-05-07T00:13:08.117Z",
  "devdoc": {
    "errors": {
      "OwnableInvalidOwner(address)": [
        {
          "details": "The owner is not a valid owner account. (eg. `address(0)`)"
        }
      ],
      "OwnableUnauthorizedAccount(address)": [
        {
          "details": "The caller account is not authorized to perform an operation."
        }
      ]
    },
    "kind": "dev",
    "methods": {
      "owner()": {
        "details": "Returns the address of the current owner."
      },
      "renounceOwnership()": {
        "details": "Leaves the contract without owner. It will not be possible to call `onlyOwner` functions. Can only be called by the current owner. NOTE: Renouncing ownership will leave the contract without an owner, thereby disabling any functionality that is only available to the owner."
      },
      "transferOwnership(address)": {
        "details": "Transfers ownership of the contract to a new account (`newOwner`). Can only be called by the current owner."
      }
    },
    "version": 1
  },
  "userdoc": {
    "kind": "user",
    "methods": {},
    "version": 1
  }
}