{
  "contractName": "RealEstateInfo",
  "abi": [
    {
      "inputs": [
        {
          "internalType": "address",
          "name": "_owner",
          "type": "address"
        }
      ],
      "stateMutability": "nonpayable",
      "type": "constructor"
    },
    {
      "inputs": [
        {
          "internalType": "address",
          "name": "owner",
          "type": "address"
        }
      ],
      "name": "OwnableInvalidOwner",
      "type": "error"
    },
    {
      "inputs": [
        {
          "internalType": "address",
          "name": "account",
          "type": "address"
        }
      ],
      "name": "OwnableUnauthorizedAccount",
      "type": "error"
    },
    {
      "anonymous": false,
      "inputs": [
        {
          "indexed": true,
          "internalType": "address",
          "name": "previousOwner",
          "type": "address"
        },
        {
          "indexed": true,
          "internalType": "address",
          "name": "newOwner",
          "type": "address"
        }
      ],
      "name": "OwnershipTransferred",
      "type": "event"
    },
    {
      "inputs": [],
      "name": "owner",
      "outputs": [
        {
          "internalType": "address",
          "name": "",
          "type": "address"
        }
      ],
      "stateMutability": "view",
      "type": "function"
    },
    {
      "inputs": [],
      "name": "renounceOwnership",
      "outputs": [],
      "stateMutability": "nonpayable",
      "type": "function"
    },
    {
      "inputs": [
        {
          "internalType": "address",
          "name": "newOwner",
          "type": "address"
        }
      ],
      "name": "transferOwnership",
      "outputs": [],
      "stateMutability": "nonpayable",
      "type": "function"
    },
    {
      "inputs": [
        {
          "internalType": "string",
          "name": "_roadNameAddress",
          "type": "string"
        },
        {
          "internalType": "string",
          "name": "_buildingName",
          "type": "string"
        },
        {
          "internalType": "uint16",
          "name": "_buildingNumber",
          "type": "uint16"
        },
        {
          "internalType": "uint16",
          "name": "_roomNumber",
          "type": "uint16"
        }
      ],
      "name": "setBasicInfo",
      "outputs": [],
      "stateMutability": "nonpayable",
      "type": "function"
    },
    {
      "inputs": [
        {
          "internalType": "uint8",
          "name": "_rank",
          "type": "uint8"
        },
        {
          "internalType": "string",
          "name": "_purpose",
          "type": "string"
        },
        {
          "internalType": "string",
          "name": "_registration",
          "type": "string"
        },
        {
          "internalType": "string",
          "name": "_reason",
          "type": "string"
        },
        {
          "internalType": "string",
          "name": "_holderAndEtc",
          "type": "string"
        }
      ],
      "name": "setRightsSection",
      "outputs": [],
      "stateMutability": "nonpayable",
      "type": "function"
    },
    {
      "inputs": [
        {
          "internalType": "uint8",
          "name": "_rank",
          "type": "uint8"
        },
        {
          "internalType": "string",
          "name": "_purpose",
          "type": "string"
        },
        {
          "internalType": "string",
          "name": "_registration",
          "type": "string"
        },
        {
          "internalType": "string",
          "name": "_reason",
          "type": "string"
        },
        {
          "internalType": "string",
          "name": "_holderAndEtc",
          "type": "string"
        }
      ],
      "name": "setEncumbrancesSection",
      "outputs": [],
      "stateMutability": "nonpayable",
      "type": "function"
    },
    {
      "inputs": [
        {
          "internalType": "bool",
          "name": "_isViolated",
          "type": "bool"
        },
        {
          "internalType": "bool",
          "name": "_isNotPermitted",
          "type": "bool"
        },
        {
          "internalType": "uint16",
          "name": "_units",
          "type": "uint16"
        },
        {
          "internalType": "uint16",
          "name": "_households",
          "type": "uint16"
        },
        {
          "internalType": "string",
          "name": "_landArea",
          "type": "string"
        },
        {
          "internalType": "string",
          "name": "_mainStructure",
          "type": "string"
        },
        {
          "internalType": "string",
          "name": "_mainUsage",
          "type": "string"
        },
        {
          "internalType": "string",
          "name": "_height",
          "type": "string"
        },
        {
          "internalType": "string",
          "name": "_floor",
          "type": "string"
        }
      ],
      "name": "setBuildingManagementRecord",
      "outputs": [],
      "stateMutability": "nonpayable",
      "type": "function"
    },
    {
      "inputs": [],
      "name": "getRealEstateInfo",
      "outputs": [
        {
          "components": [
            {
              "internalType": "string",
              "name": "roadNameAddress",
              "type": "string"
            },
            {
              "internalType": "string",
              "name": "buildingName",
              "type": "string"
            },
            {
              "internalType": "uint16",
              "name": "buildingNumber",
              "type": "uint16"
            },
            {
              "internalType": "uint16",
              "name": "roomNumber",
              "type": "uint16"
            }
          ],
          "internalType": "struct RealEstateStructs.BasicInfo",
          "name": "",
          "type": "tuple"
        },
        {
          "components": [
            {
              "components": [
                {
                  "internalType": "uint8",
                  "name": "rank",
                  "type": "uint8"
                },
                {
                  "internalType": "string",
                  "name": "purpose",
                  "type": "string"
                },
                {
                  "internalType": "string",
                  "name": "registration",
                  "type": "string"
                },
                {
                  "internalType": "string",
                  "name": "reason",
                  "type": "string"
                },
                {
                  "internalType": "string",
                  "name": "holderAndEtc",
                  "type": "string"
                }
              ],
              "internalType": "struct RealEstateStructs.Section",
              "name": "rightsSection",
              "type": "tuple"
            },
            {
              "components": [
                {
                  "internalType": "uint8",
                  "name": "rank",
                  "type": "uint8"
                },
                {
                  "internalType": "string",
                  "name": "purpose",
                  "type": "string"
                },
                {
                  "internalType": "string",
                  "name": "registration",
                  "type": "string"
                },
                {
                  "internalType": "string",
                  "name": "reason",
                  "type": "string"
                },
                {
                  "internalType": "string",
                  "name": "holderAndEtc",
                  "type": "string"
                }
              ],
              "internalType": "struct RealEstateStructs.Section",
              "name": "encumbrancesSection",
              "type": "tuple"
            }
          ],
          "internalType": "struct RealEstateStructs.RealEstateRegistryCertificate",
          "name": "",
          "type": "tuple"
        },
        {
          "components": [
            {
              "internalType": "bool",
              "name": "isViolated",
              "type": "bool"
            },
            {
              "internalType": "bool",
              "name": "isNotPermitted",
              "type": "bool"
            },
            {
              "internalType": "uint16",
              "name": "units",
              "type": "uint16"
            },
            {
              "internalType": "uint16",
              "name": "households",
              "type": "uint16"
            },
            {
              "internalType": "string",
              "name": "landArea",
              "type": "string"
            },
            {
              "internalType": "string",
              "name": "mainStructure",
              "type": "string"
            },
            {
              "internalType": "string",
              "name": "mainUsage",
              "type": "string"
            },
            {
              "internalType": "string",
              "name": "height",
              "type": "string"
            },
            {
              "internalType": "string",
              "name": "floor",
              "type": "string"
            }
          ],
          "internalType": "struct RealEstateStructs.BuildingManagementRecord",
          "name": "",
          "type": "tuple"
        }
      ],
      "stateMutability": "view",
      "type": "function"
    }
  ],
  "bytecode": "0x608060405234801561000f575f80fd5b50604051611f12380380611f12833981810160405281019061003191906101d7565b805f73ffffffffffffffffffffffffffffffffffffffff168173ffffffffffffffffffffffffffffffffffffffff16036100a2575f6040517f1e4fbdf70000000000000000000000000000000000000000000000000000000081526004016100999190610211565b60405180910390fd5b6100b1816100b860201b60201c565b505061022a565b5f805f9054906101000a900473ffffffffffffffffffffffffffffffffffffffff169050815f806101000a81548173ffffffffffffffffffffffffffffffffffffffff021916908373ffffffffffffffffffffffffffffffffffffffff1602179055508173ffffffffffffffffffffffffffffffffffffffff168173ffffffffffffffffffffffffffffffffffffffff167f8be0079c531659141344cd1fd0a4f28419497f9722a3daafe3b4186f6b6457e060405160405180910390a35050565b5f80fd5b5f73ffffffffffffffffffffffffffffffffffffffff82169050919050565b5f6101a68261017d565b9050919050565b6101b68161019c565b81146101c0575f80fd5b50565b5f815190506101d1816101ad565b92915050565b5f602082840312156101ec576101eb610179565b5b5f6101f9848285016101c3565b91505092915050565b61020b8161019c565b82525050565b5f6020820190506102245f830184610202565b92915050565b611cdb806102375f395ff3fe608060405234801561000f575f80fd5b5060043610610086575f3560e01c8063a2f21d2d11610059578063a2f21d2d146100ee578063dc92b8601461010a578063e250e83814610126578063f2fde38b1461014257610086565b80630998d2921461008a57806357b05dfd146100aa578063715018a6146100c65780638da5cb5b146100d0575b5f80fd5b61009261015e565b6040516100a19392919061144e565b60405180910390f35b6100c460048036038101906100bf91906115ff565b610b2e565b005b6100ce610bd9565b005b6100d8610bec565b6040516100e591906116da565b60405180910390f35b6101086004803603810190610103919061171d565b610c13565b005b610124600480360381019061011f919061182e565b610cc9565b005b610140600480360381019061013b919061171d565b610e1c565b005b61015c600480360381019061015791906119a8565b610ed3565b005b6101666110a6565b61016e6110d4565b6101766110fa565b60016004600e826040518060800160405290815f8201805461019790611a00565b80601f01602080910402602001604051908101604052809291908181526020018280546101c390611a00565b801561020e5780601f106101e55761010080835404028352916020019161020e565b820191905f5260205f20905b8154815290600101906020018083116101f157829003601f168201915b5050505050815260200160018201805461022790611a00565b80601f016020809104026020016040519081016040528092919081815260200182805461025390611a00565b801561029e5780601f106102755761010080835404028352916020019161029e565b820191905f5260205f20905b81548152906001019060200180831161028157829003601f168201915b50505050508152602001600282015f9054906101000a900461ffff1661ffff1661ffff1681526020016002820160029054906101000a900461ffff1661ffff1661ffff16815250509250816040518060400160405290815f82016040518060a00160405290815f82015f9054906101000a900460ff1660ff1660ff16815260200160018201805461032e90611a00565b80601f016020809104026020016040519081016040528092919081815260200182805461035a90611a00565b80156103a55780601f1061037c576101008083540402835291602001916103a5565b820191905f5260205f20905b81548152906001019060200180831161038857829003601f168201915b505050505081526020016002820180546103be90611a00565b80601f01602080910402602001604051908101604052809291908181526020018280546103ea90611a00565b80156104355780601f1061040c57610100808354040283529160200191610435565b820191905f5260205f20905b81548152906001019060200180831161041857829003601f168201915b5050505050815260200160038201805461044e90611a00565b80601f016020809104026020016040519081016040528092919081815260200182805461047a90611a00565b80156104c55780601f1061049c576101008083540402835291602001916104c5565b820191905f5260205f20905b8154815290600101906020018083116104a857829003601f168201915b505050505081526020016004820180546104de90611a00565b80601f016020809104026020016040519081016040528092919081815260200182805461050a90611a00565b80156105555780601f1061052c57610100808354040283529160200191610555565b820191905f5260205f20905b81548152906001019060200180831161053857829003601f168201915b5050505050815250508152602001600582016040518060a00160405290815f82015f9054906101000a900460ff1660ff1660ff16815260200160018201805461059d90611a00565b80601f01602080910402602001604051908101604052809291908181526020018280546105c990611a00565b80156106145780601f106105eb57610100808354040283529160200191610614565b820191905f5260205f20905b8154815290600101906020018083116105f757829003601f168201915b5050505050815260200160028201805461062d90611a00565b80601f016020809104026020016040519081016040528092919081815260200182805461065990611a00565b80156106a45780601f1061067b576101008083540402835291602001916106a4565b820191905f5260205f20905b81548152906001019060200180831161068757829003601f168201915b505050505081526020016003820180546106bd90611a00565b80601f01602080910402602001604051908101604052809291908181526020018280546106e990611a00565b80156107345780601f1061070b57610100808354040283529160200191610734565b820191905f5260205f20905b81548152906001019060200180831161071757829003601f168201915b5050505050815260200160048201805461074d90611a00565b80601f016020809104026020016040519081016040528092919081815260200182805461077990611a00565b80156107c45780601f1061079b576101008083540402835291602001916107c4565b820191905f5260205f20905b8154815290600101906020018083116107a757829003601f168201915b50505050508152505081525050915080604051806101200160405290815f82015f9054906101000a900460ff161515151581526020015f820160019054906101000a900460ff161515151581526020015f820160029054906101000a900461ffff1661ffff1661ffff1681526020015f820160049054906101000a900461ffff1661ffff1661ffff16815260200160018201805461086190611a00565b80601f016020809104026020016040519081016040528092919081815260200182805461088d90611a00565b80156108d85780601f106108af576101008083540402835291602001916108d8565b820191905f5260205f20905b8154815290600101906020018083116108bb57829003601f168201915b505050505081526020016002820180546108f190611a00565b80601f016020809104026020016040519081016040528092919081815260200182805461091d90611a00565b80156109685780601f1061093f57610100808354040283529160200191610968565b820191905f5260205f20905b81548152906001019060200180831161094b57829003601f168201915b5050505050815260200160038201805461098190611a00565b80601f01602080910402602001604051908101604052809291908181526020018280546109ad90611a00565b80156109f85780601f106109cf576101008083540402835291602001916109f8565b820191905f5260205f20905b8154815290600101906020018083116109db57829003601f168201915b50505050508152602001600482018054610a1190611a00565b80601f0160208091040260200160405190810160405280929190818152602001828054610a3d90611a00565b8015610a885780601f10610a5f57610100808354040283529160200191610a88565b820191905f5260205f20905b815481529060010190602001808311610a6b57829003601f168201915b50505050508152602001600582018054610aa190611a00565b80601f0160208091040260200160405190810160405280929190818152602001828054610acd90611a00565b8015610b185780601f10610aef57610100808354040283529160200191610b18565b820191905f5260205f20905b815481529060010190602001808311610afb57829003601f168201915b5050505050815250509050925092509250909192565b610b36610f57565b60405180608001604052808581526020018481526020018361ffff1681526020018261ffff1681525060015f820151815f019081610b749190611bd6565b506020820151816001019081610b8a9190611bd6565b506040820151816002015f6101000a81548161ffff021916908361ffff16021790555060608201518160020160026101000a81548161ffff021916908361ffff16021790555090505050505050565b610be1610f57565b610bea5f610fde565b565b5f805f9054906101000a900473ffffffffffffffffffffffffffffffffffffffff16905090565b610c1b610f57565b6040518060a001604052808660ff1681526020018581526020018481526020018381526020018281525060045f015f820151815f015f6101000a81548160ff021916908360ff1602179055506020820151816001019081610c7c9190611bd6565b506040820151816002019081610c929190611bd6565b506060820151816003019081610ca89190611bd6565b506080820151816004019081610cbe9190611bd6565b509050505050505050565b610cd1610f57565b6040518061012001604052808a1515815260200189151581526020018861ffff1681526020018761ffff16815260200186815260200185815260200184815260200183815260200182815250600e5f820151815f015f6101000a81548160ff0219169083151502179055506020820151815f0160016101000a81548160ff0219169083151502179055506040820151815f0160026101000a81548161ffff021916908361ffff1602179055506060820151815f0160046101000a81548161ffff021916908361ffff1602179055506080820151816001019081610db49190611bd6565b5060a0820151816002019081610dca9190611bd6565b5060c0820151816003019081610de09190611bd6565b5060e0820151816004019081610df69190611bd6565b50610100820151816005019081610e0d9190611bd6565b50905050505050505050505050565b610e24610f57565b6040518060a001604052808660ff1681526020018581526020018481526020018381526020018281525060046005015f820151815f015f6101000a81548160ff021916908360ff1602179055506020820151816001019081610e869190611bd6565b506040820151816002019081610e9c9190611bd6565b506060820151816003019081610eb29190611bd6565b506080820151816004019081610ec89190611bd6565b509050505050505050565b610edb610f57565b5f73ffffffffffffffffffffffffffffffffffffffff168173ffffffffffffffffffffffffffffffffffffffff1603610f4b575f6040517f1e4fbdf7000000000000000000000000000000000000000000000000000000008152600401610f4291906116da565b60405180910390fd5b610f5481610fde565b50565b610f5f61109f565b73ffffffffffffffffffffffffffffffffffffffff16610f7d610bec565b73ffffffffffffffffffffffffffffffffffffffff1614610fdc57610fa061109f565b6040517f118cdaa7000000000000000000000000000000000000000000000000000000008152600401610fd391906116da565b60405180910390fd5b565b5f805f9054906101000a900473ffffffffffffffffffffffffffffffffffffffff169050815f806101000a81548173ffffffffffffffffffffffffffffffffffffffff021916908373ffffffffffffffffffffffffffffffffffffffff1602179055508173ffffffffffffffffffffffffffffffffffffffff168173ffffffffffffffffffffffffffffffffffffffff167f8be0079c531659141344cd1fd0a4f28419497f9722a3daafe3b4186f6b6457e060405160405180910390a35050565b5f33905090565b604051806080016040528060608152602001606081526020015f61ffff1681526020015f61ffff1681525090565b60405180604001604052806110e761114e565b81526020016110f461114e565b81525090565b6040518061012001604052805f151581526020015f151581526020015f61ffff1681526020015f61ffff16815260200160608152602001606081526020016060815260200160608152602001606081525090565b6040518060a001604052805f60ff168152602001606081526020016060815260200160608152602001606081525090565b5f81519050919050565b5f82825260208201905092915050565b8281835e5f83830152505050565b5f601f19601f8301169050919050565b5f6111c18261117f565b6111cb8185611189565b93506111db818560208601611199565b6111e4816111a7565b840191505092915050565b5f61ffff82169050919050565b611205816111ef565b82525050565b5f608083015f8301518482035f86015261122582826111b7565b9150506020830151848203602086015261123f82826111b7565b915050604083015161125460408601826111fc565b50606083015161126760608601826111fc565b508091505092915050565b5f60ff82169050919050565b61128781611272565b82525050565b5f60a083015f8301516112a25f86018261127e565b50602083015184820360208601526112ba82826111b7565b915050604083015184820360408601526112d482826111b7565b915050606083015184820360608601526112ee82826111b7565b9150506080830151848203608086015261130882826111b7565b9150508091505092915050565b5f604083015f8301518482035f86015261132f828261128d565b91505060208301518482036020860152611349828261128d565b9150508091505092915050565b5f8115159050919050565b61136a81611356565b82525050565b5f61012083015f8301516113865f860182611361565b5060208301516113996020860182611361565b5060408301516113ac60408601826111fc565b5060608301516113bf60608601826111fc565b50608083015184820360808601526113d782826111b7565b91505060a083015184820360a08601526113f182826111b7565b91505060c083015184820360c086015261140b82826111b7565b91505060e083015184820360e086015261142582826111b7565b91505061010083015184820361010086015261144182826111b7565b9150508091505092915050565b5f6060820190508181035f830152611466818661120b565b9050818103602083015261147a8185611315565b9050818103604083015261148e8184611370565b9050949350505050565b5f604051905090565b5f80fd5b5f80fd5b5f80fd5b5f80fd5b7f4e487b71000000000000000000000000000000000000000000000000000000005f52604160045260245ffd5b6114e7826111a7565b810181811067ffffffffffffffff82111715611506576115056114b1565b5b80604052505050565b5f611518611498565b905061152482826114de565b919050565b5f67ffffffffffffffff821115611543576115426114b1565b5b61154c826111a7565b9050602081019050919050565b828183375f83830152505050565b5f61157961157484611529565b61150f565b905082815260208101848484011115611595576115946114ad565b5b6115a0848285611559565b509392505050565b5f82601f8301126115bc576115bb6114a9565b5b81356115cc848260208601611567565b91505092915050565b6115de816111ef565b81146115e8575f80fd5b50565b5f813590506115f9816115d5565b92915050565b5f805f8060808587031215611617576116166114a1565b5b5f85013567ffffffffffffffff811115611634576116336114a5565b5b611640878288016115a8565b945050602085013567ffffffffffffffff811115611661576116606114a5565b5b61166d878288016115a8565b935050604061167e878288016115eb565b925050606061168f878288016115eb565b91505092959194509250565b5f73ffffffffffffffffffffffffffffffffffffffff82169050919050565b5f6116c48261169b565b9050919050565b6116d4816116ba565b82525050565b5f6020820190506116ed5f8301846116cb565b92915050565b6116fc81611272565b8114611706575f80fd5b50565b5f81359050611717816116f3565b92915050565b5f805f805f60a08688031215611736576117356114a1565b5b5f61174388828901611709565b955050602086013567ffffffffffffffff811115611764576117636114a5565b5b611770888289016115a8565b945050604086013567ffffffffffffffff811115611791576117906114a5565b5b61179d888289016115a8565b935050606086013567ffffffffffffffff8111156117be576117bd6114a5565b5b6117ca888289016115a8565b925050608086013567ffffffffffffffff8111156117eb576117ea6114a5565b5b6117f7888289016115a8565b9150509295509295909350565b61180d81611356565b8114611817575f80fd5b50565b5f8135905061182881611804565b92915050565b5f805f805f805f805f6101208a8c03121561184c5761184b6114a1565b5b5f6118598c828d0161181a565b995050602061186a8c828d0161181a565b985050604061187b8c828d016115eb565b975050606061188c8c828d016115eb565b96505060808a013567ffffffffffffffff8111156118ad576118ac6114a5565b5b6118b98c828d016115a8565b95505060a08a013567ffffffffffffffff8111156118da576118d96114a5565b5b6118e68c828d016115a8565b94505060c08a013567ffffffffffffffff811115611907576119066114a5565b5b6119138c828d016115a8565b93505060e08a013567ffffffffffffffff811115611934576119336114a5565b5b6119408c828d016115a8565b9250506101008a013567ffffffffffffffff811115611962576119616114a5565b5b61196e8c828d016115a8565b9150509295985092959850929598565b611987816116ba565b8114611991575f80fd5b50565b5f813590506119a28161197e565b92915050565b5f602082840312156119bd576119bc6114a1565b5b5f6119ca84828501611994565b91505092915050565b7f4e487b71000000000000000000000000000000000000000000000000000000005f52602260045260245ffd5b5f6002820490506001821680611a1757607f821691505b602082108103611a2a57611a296119d3565b5b50919050565b5f819050815f5260205f209050919050565b5f6020601f8301049050919050565b5f82821b905092915050565b5f60088302611a8c7fffffffffffffffffffffffffffffffffffffffffffffffffffffffffffffffff82611a51565b611a968683611a51565b95508019841693508086168417925050509392505050565b5f819050919050565b5f819050919050565b5f611ada611ad5611ad084611aae565b611ab7565b611aae565b9050919050565b5f819050919050565b611af383611ac0565b611b07611aff82611ae1565b848454611a5d565b825550505050565b5f90565b611b1b611b0f565b611b26818484611aea565b505050565b5b81811015611b4957611b3e5f82611b13565b600181019050611b2c565b5050565b601f821115611b8e57611b5f81611a30565b611b6884611a42565b81016020851015611b77578190505b611b8b611b8385611a42565b830182611b2b565b50505b505050565b5f82821c905092915050565b5f611bae5f1984600802611b93565b1980831691505092915050565b5f611bc68383611b9f565b9150826002028217905092915050565b611bdf8261117f565b67ffffffffffffffff811115611bf857611bf76114b1565b5b611c028254611a00565b611c0d828285611b4d565b5f60209050601f831160018114611c3e575f8415611c2c578287015190505b611c368582611bbb565b865550611c9d565b601f198416611c4c86611a30565b5f5b82811015611c7357848901518255600182019150602085019450602081019050611c4e565b86831015611c905784890151611c8c601f891682611b9f565b8355505b6001600288020188555050505b50505050505056fea2646970667358221220d73f60fdf7266f2045df08bcb5d4d60041d939c8e65372f918cd7adfbade008964736f6c63430008190033",
  "immutableReferences": {},
  "source": "// SPDX-License-Identifier: MIT\r\npragma solidity ^0.8.0;\r\n\r\nimport \"@openzeppelin/contracts/access/Ownable.sol\";\r\nimport \"../structs/RealEstateStructs.sol\";\r\n\r\ncontract RealEstateInfo is Ownable {\r\n\r\n    RealEstateStructs.BasicInfo basicInfo;\r\n    RealEstateStructs.RealEstateRegistryCertificate registryCertificate;\r\n    RealEstateStructs.BuildingManagementRecord buildingManagementRecord;\r\n\r\n\r\n    constructor(address _owner) Ownable(_owner) {}\r\n\r\n    function setBasicInfo(\r\n        string memory _roadNameAddress,\r\n        string memory _buildingName,\r\n        uint16 _buildingNumber,\r\n        uint16 _roomNumber\r\n    ) external onlyOwner {\r\n        basicInfo = RealEstateStructs.BasicInfo({\r\n            roadNameAddress: _roadNameAddress,\r\n            buildingName: _buildingName,\r\n            buildingNumber: _buildingNumber,\r\n            roomNumber: _roomNumber\r\n        });\r\n    }\r\n\r\n    function setRightsSection(\r\n        uint8 _rank,\r\n        string memory _purpose,\r\n        string memory _registration,\r\n        string memory _reason,\r\n        string memory _holderAndEtc\r\n    ) external onlyOwner {\r\n        registryCertificate.rightsSection = RealEstateStructs.Section({\r\n            rank: _rank,\r\n            purpose: _purpose,\r\n            registration: _registration,\r\n            reason: _reason,\r\n            holderAndEtc: _holderAndEtc\r\n        });\r\n    }\r\n\r\n    function setEncumbrancesSection(\r\n        uint8 _rank,\r\n        string memory _purpose,\r\n        string memory _registration,\r\n        string memory _reason,\r\n        string memory _holderAndEtc\r\n    ) external onlyOwner {\r\n        registryCertificate.encumbrancesSection = RealEstateStructs.Section({\r\n            rank: _rank,\r\n            purpose: _purpose,\r\n            registration: _registration,\r\n            reason: _reason,\r\n            holderAndEtc: _holderAndEtc\r\n        });\r\n    }\r\n\r\n    function setBuildingManagementRecord(\r\n        bool _isViolated,\r\n        bool _isNotPermitted,\r\n        uint16 _units,\r\n        uint16 _households,\r\n        string memory _landArea,\r\n        string memory _mainStructure,\r\n        string memory _mainUsage,\r\n        string memory _height,\r\n        string memory _floor\r\n    ) external onlyOwner {\r\n        buildingManagementRecord = RealEstateStructs.BuildingManagementRecord({\r\n            isViolated: _isViolated,\r\n            isNotPermitted: _isNotPermitted,\r\n            units: _units,\r\n            households: _households,\r\n            landArea: _landArea,\r\n            mainStructure: _mainStructure,\r\n            mainUsage: _mainUsage,\r\n            height: _height,\r\n            floor: _floor\r\n        });\r\n    }\r\n\r\n    function getRealEstateInfo() external view returns (\r\n        RealEstateStructs.BasicInfo memory, \r\n        RealEstateStructs.RealEstateRegistryCertificate memory, \r\n        RealEstateStructs.BuildingManagementRecord memory) {\r\n            return (basicInfo, registryCertificate, buildingManagementRecord);\r\n    }\r\n\r\n\r\n\r\n}",
  "sourcePath": "C:\\Users\\SSAFY\\Desktop\\S10P31C203\\blockchain\\did-real-estate\\contracts\\real-estate\\RealEstateInfo.sol",
  "compiler": {
    "name": "solc",
    "version": "0.8.25+commit.b61c2a91.Emscripten.clang"
  },
  "schemaVersion": "3.4.16",
  "updatedAt": "2024-05-10T05:10:13.633Z",
  "devdoc": {
    "errors": {
      "OwnableInvalidOwner(address)": [
        {
          "details": "The owner is not a valid owner account. (eg. `address(0)`)"
        }
      ],
      "OwnableUnauthorizedAccount(address)": [
        {
          "details": "The caller account is not authorized to perform an operation."
        }
      ]
    },
    "kind": "dev",
    "methods": {
      "owner()": {
        "details": "Returns the address of the current owner."
      },
      "renounceOwnership()": {
        "details": "Leaves the contract without owner. It will not be possible to call `onlyOwner` functions. Can only be called by the current owner. NOTE: Renouncing ownership will leave the contract without an owner, thereby disabling any functionality that is only available to the owner."
      },
      "transferOwnership(address)": {
        "details": "Transfers ownership of the contract to a new account (`newOwner`). Can only be called by the current owner."
      }
    },
    "version": 1
  },
  "userdoc": {
    "kind": "user",
    "methods": {},
    "version": 1
  }
}